:100000000C9462000C948A000C948A000C948A0070
:100010000C948A000C948A000C948A000C948A0038
:100020000C948A000C948A000C948A000C948A0028
:100030000C948A000C948A000C948A000C948A0018
:100040000C94CD040C948A000C943D050C94170577
:100050000C948A000C948A000C948A000C948A00F8
:100060000C948A000C948A000000000024002700F1
:100070002A0000000000250028002B0000000000DE
:1000800023002600290004040404040404040202DA
:100090000202020203030303030301020408102007
:1000A0004080010204081020010204081020000012
:1000B0000008000201000003040700000000000027
:1000C00000006F0511241FBECFEFD8E0DEBFCDBF0B
:1000D00011E0A0E0B1E0E6E8F4E102C005900D9285
:1000E000A836B107D9F723E0A8E6B1E001C01D9218
:1000F000A039B207E1F710E0C2E6D0E004C02197D2
:10010000FE010E94360AC136D107C9F70E941206C5
:100110000C94410A0C940000833081F028F4813063
:1001200099F08230A1F008958730A9F08830B9F0B5
:100130008430D1F4809180008F7D03C08091800055
:100140008F7780938000089584B58F7702C084B53F
:100150008F7D84BD08958091B0008F7703C080911A
:10016000B0008F7D8093B0000895CF93DF93E4EBD0
:10017000F0E08491E0EAF0E0D491ECE8F0E0C491A2
:10018000CC2391F081110E948C00EC2FF0E0EE0F57
:10019000FF1FE458FF4FA591B491EC91ED2381E04E
:1001A00090E021F480E002C080E090E0DF91CF9108
:1001B00008951F93CF93DF93282F30E0F901E25584
:1001C000FF4F8491F901E656FF4FD491F901EA57A8
:1001D000FF4FC491CC23C1F0162F81110E948C00D7
:1001E000EC2FF0E0EE0FFF1FEE58FF4FA591B491FA
:1001F0009FB7F894111104C08C91D095D82302C0F8
:10020000EC91DE2BDC939FBFDF91CF911F9108957E
:10021000AF92BF92CF92DF92EF92FF920F931F9314
:10022000CF93DF938C015C018EE0A80EB11CC42E2D
:10023000D12CC0E0D0E0E62EF12CCC15DD0579F014
:10024000B7010C2E02C0759567950A94E2F76170AC
:10025000F50181915F010E94D9002196EECF61E006
:10026000F80185850E94D90060E0F8018585DF915D
:10027000CF911F910F91FF90EF90DF90CF90BF90A3
:10028000AF900C94D900CF93DF9390E0FC01E65639
:10029000FF4F2491FC01EA57FF4F8491882361F1BD
:1002A00090E0880F991FFC01E859FF4FC591D49148
:1002B000FC01EE58FF4FA591B491611109C09FB7A1
:1002C000F8948881209582238883EC912E230BC09B
:1002D000623061F49FB7F8948881322F3095832380
:1002E0008883EC912E2B2C939FBF06C08FB7F89478
:1002F000E8812E2B28838FBFDF91CF9108953FB7E0
:10030000F8948091D8029091D902A091DA02B0912C
:10031000DB0226B5A89B05C02F3F19F00196A11D51
:10032000B11D3FBFBA2FA92F982F8827820F911D8B
:10033000A11DB11DBC01CD0142E0660F771F881FD2
:10034000991F4A95D1F708952FB7F8946091D40278
:100350007091D5028091D6029091D7022FBF089557
:10036000CF92DF92EF92FF920F931F93CF93DF9381
:100370006C017A018B01C0E0D0E0CE15DF0581F081
:10038000D8016D918D01D601ED91FC910190F08124
:10039000E02DC6010995892B11F02196EECF7E0143
:1003A000C701DF91CF911F910F91FF90EF90DF90E8
:1003B000CF900895FC01538D448D252F30E0842F7C
:1003C00090E0821B930B541710F0CF96089501977D
:1003D0000895FC01918D828D981761F0828DDF0167
:1003E000A80FB11D5D968C91928D9F5F9F73928F28
:1003F00090E008958FEF9FEF0895FC01918D828D1D
:10040000981731F0828DE80FF11D858D90E00895E9
:100410008FEF9FEF0895FC01918D228D892F90E041
:10042000805C9F4F821B91098F73992708958CEDF3
:1004300092E00E940B0221E0892B09F420E0822F38
:100440000895FC01848DDF01A80FB11DA35ABF4F91
:100450002C91848D90E001968F739927848FA689C3
:10046000B7892C93A089B1898C91837080648C9317
:10047000938D848D981306C00288F389E02D8081C6
:100480008F7D80830895EF92FF920F931F93CF93F8
:10049000DF93EC0181E0888F9B8D8C8D981305C0D4
:1004A000E889F989808185FD26C0F62E0B8D10E044
:1004B0000F5F1F4F0F731127E02E8C8DE8120CC0B9
:1004C0000FB607FCFACFE889F989808185FFF5CF5F
:1004D000CE010E942102F1CF8B8DFE01E80FF11DAC
:1004E000E35AFF4FF0829FB7F8940B8FEA89FB899C
:1004F000808180620AC09FB7F894EE89FF8960838B
:10050000E889F98980818370806480839FBF81E05E
:1005100090E0DF91CF911F910F91FF90EF900895A0
:10052000CF93DF93EC01888D8823C9F0EA89FB899A
:10053000808185FD05C0A889B9898C9186FD0FC091
:100540000FB607FCF5CF808185FFF2CFA889B98966
:100550008C9185FFEDCFCE010E942102E7CFDF9184
:10056000CF91089580E090E0892B29F00E94170236
:1005700081110C94000008950E94A40160936C0105
:1005800070936D0180936E0190936F0180E00895E8
:10059000CF92DF92EF92FF920F931F936115710537
:1005A0008105910541F41F910F91FF90EF90DF902D
:1005B000CF900C94BC026B017C010E94A4010091BD
:1005C0006C0110916D0120916E0130916F01DC0181
:1005D000CB01801B910BA20BB30B21E0C816D906EF
:1005E000EA06FB0608F020E0822F1F910F91FF9092
:1005F000EF90DF90CF9008950E94A401609368016E
:100600007093690180936A0190936B0180E0089573
:10061000CF92DF92EF92FF920F931F9361157105B6
:100620008105910541F41F910F91FF90EF90DF90AC
:10063000CF900C94FC026B017C010E94A4010091FC
:1006400068011091690120916A0130916B01DC0110
:10065000CB01801B910BA20BB30B21E0C816D9066E
:10066000EA06FB0608F020E0822F1F910F91FF9011
:10067000EF90DF90CF900895FC0186898F3F79F04D
:1006800021853285662319F0232B31F403C02130F4
:10069000310511F461E001C060E00C94D9000895C7
:1006A000EF92FF921F93CF93DF93EC01162F7A0105
:1006B00061E0812F0E9443011E8BFA86E986E88162
:1006C000F9810484F585E02D60E0CE01DF91CF91C2
:1006D0001F91FF90EF9009940F931F93CF93DF9397
:1006E000EC01162F042F61E0413009F060E08B85AA
:1006F0000E94D9008C858F3F19F060E00E94D900DC
:10070000023081F08C8184FF02C048E00CC0612F70
:1007100070E084E0759567958A95E1F744E0CE0135
:100720000E94080144E0612FCE01DF91CF911F911B
:100730000F910C940801DC01ED91FC910684F78582
:10074000E02D41E0099581E090E00895DC01ED9114
:10075000FC910684F785E02D40E00994CF93DF9368
:10076000CDB7DEB728970FB6F894DEBF0FBECDBF6A
:1007700040910001509101016091020170910301CB
:100780004D835E836F83788740910401509105010A
:10079000609106017091070149835A836B837C83C2
:1007A00020918003821710F08FEF820F3091810328
:1007B00090E0FE01E80FF91F303121F4243011F4EC
:1007C000618101C06581606889E793E028960FB672
:1007D000F894DEBF0FBECDBFDF91CF910C94A6037E
:1007E00061E00E94A6038BE39FE10197F1F7089572
:1007F0008F929F92AF92BF92CF92DF92EF92FF9231
:100800000F931F93CF93DF93EC01423018F08C814C
:1008100088608C834F836887222329F0413019F444
:100820008C8184608C830E947F016B017C0184E653
:10083000882E912CA12CB12C0E947F01DC01CB01D0
:100840008C199D09AE09BF09883E9340A105B105E9
:1008500098F321E0821A9108A108B10888EEC80E29
:1008600083E0D81EE11CF11C81149104A104B104A1
:1008700019F76C8164FD31C0E881F9810684F78540
:10088000E02D42E063E0CE0109958BE496E4019708
:10089000F1F7E881F9810684F785E02D42E063E015
:1008A000CE01099503E512E0C8010197F1F7E8814F
:1008B000F9810684F785E02D42E063E0CE010995D9
:1008C000C8010197F1F7E881F9810684F785E02DE9
:1008D00042E062E0CE01099517C06062CE010E943D
:1008E000A6038BE496E40197F1F76C816062CE0178
:1008F0000E94A60303E512E0C8010197F1F76C819D
:100900006062CE010E94A603C8010197F1F76C81D5
:100910006062CE010E94A6038BEE90E00197F1F792
:1009200084E08D836CE0CE010E94A603CE010E947C
:10093000F00382E08E8366E0CE010E94A603E88188
:10094000F9810484F585E02D6FEFCE01DF91CF9121
:100950001F910F91FF90EF90DF90CF90BF90AF90DD
:100960009F908F90099408950895089580E090E0F5
:100970000895009769F0FC0101900020E9F7319794
:10098000AF01481B590BBC0189E793E00C94B001FF
:1009900080E090E008950E943C0A1F920F920FB6EB
:1009A0000F9211242F933F938F939F93AF93BF93F5
:1009B0008091D4029091D502A091D602B091D70235
:1009C0003091D30223E0230F2D3720F40196A11D8F
:1009D000B11D05C026E8230F0296A11DB11D20936D
:1009E000D3028093D4029093D502A093D602B09301
:1009F000D7028091D8029091D902A091DA02B091E9
:100A0000DB020196A11DB11D8093D8029093D902FB
:100A1000A093DA02B093DB02BF91AF919F918F91C7
:100A20003F912F910F900FBE0F901F9018951F921E
:100A30000F920FB60F9211242F933F934F935F9312
:100A40006F937F938F939F93AF93BF93EF93FF9396
:100A50008CED92E00E942102FF91EF91BF91AF9146
:100A60009F918F917F916F915F914F913F912F91C6
:100A70000F900FBE0F901F9018951F920F920FB6F8
:100A80000F9211242F938F939F93EF93FF93E091F5
:100A9000EC02F091ED028081E091F202F091F3021C
:100AA00082FD12C090818091F5028F5F8F7320913B
:100AB000F602821751F0E091F502F0E0E452FD4FAA
:100AC000958F8093F50201C08081FF91EF919F91F6
:100AD0008F912F910F900FBE0F901F901895CF936D
:100AE000DF931092DF021092DE0288EE93E0A0E026
:100AF000B0E08093E0029093E102A093E202B09311
:100B0000E3028CE091E09093DD028093DC0285ECBF
:100B100090E09093E9028093E80284EC90E0909357
:100B2000EB028093EA0280EC90E09093ED028093D8
:100B3000EC0281EC90E09093EF028093EE0282EC65
:100B400090E09093F1028093F00286EC90E0909315
:100B5000F3028093F2021092F5021092F6021092C4
:100B6000F7021092F80210927C0310927B038EE140
:100B700091E090937A03809379038CE080938403CF
:100B80008FEF809385038BE08093860385E08093CD
:100B9000870384E08093880383E08093890382E065
:100BA00080938A0310928B0310928C0310928D0312
:100BB00010928E03C7E8D3E061E089910E9443015F
:100BC00083E0CB38D807C1F761E0809184030E94AD
:100BD0004301809185038F3F19F061E00E9443013A
:100BE00061E0809186030E94430110927D0360E0E2
:100BF000809184030E94D90060E0809186030E9466
:100C0000D900809185038F3F19F060E00E94D900E0
:100C10008FEF80938F031092830310928203DF91F2
:100C2000CF910895789484B5826084BD84B5816045
:100C300084BD85B5826085BD85B5816085BD8091A7
:100C40006E00816080936E0010928100809181001F
:100C50008260809381008091810081608093810017
:100C6000809180008160809380008091B1008460D9
:100C70008093B1008091B00081608093B00080913A
:100C80007A00846080937A0080917A0082608093F9
:100C90007A0080917A00816080937A0080917A0056
:100CA000806880937A001092C10020E042E060E109
:100CB00089E793E00E94F80362E089E793E00E94ED
:100CC000A6038BE39FE10197F1F78EE291E00E948A
:100CD000B90481E00E94AE0388E391E00E94B90468
:100CE0001092C8021092C70262E086E00E9443019F
:100CF0000E94BC02109275011092740182E090E093
:100D00009093B8018093B70110927B0110927A0101
:100D10001092A3011092A201E091EC02F091ED0279
:100D20008083E091E802F091E9021082E091EA020A
:100D3000F091EB0280E180831092F402E091F002E6
:100D4000F091F10286E08083E091EE02F091EF02F3
:100D5000808180618083E091EE02F091EF028081DA
:100D600088608083E091EE02F091EF0280818068DC
:100D70008083E091EE02F091EF0280818F7D80838D
:100D800061E08DE00E94430142E0C42ED12CC1E01D
:100D9000D0E053E0E52EF12C64E0662E712C70E675
:100DA000872E7AEE972EA12CB12C80917401909110
:100DB00075018130910529F178F0029709F05BC047
:100DC000109275011092740160919001862F90E04D
:100DD0009C01275F3F4F41C00E94A4010091700118
:100DE000109171012091720130917301DC01CB01EE
:100DF000801B910BA20BB30BC397A105B105D8F1D2
:100E000090C2D0927501C09274010091900110E0DF
:100E100030E4232E20927C0080917A0080648093BD
:100E20007A0080917A0086FDFCCFA09178008091B5
:100E30007900B0E0B82B000F111F04581E4F24E6B4
:100E400030E00E941B0A2FEF33E040E050E00E94A8
:100E5000B709F801318320830EC0462F50E02417D4
:100E6000350714F06F5FF9CF01966AE070E00E94D9
:100E7000070A809390010091B7011091B8010130E9
:100E8000110509F4ACC080F00230110509F046C12B
:100E90008091A401882309F441C11092A40180919A
:100EA000A501811109C0A5C08091A401882361F02A
:100EB0001092A4018091A501813009F02FC1D09337
:100EC000B801C093B7012AC180917A0190917B014A
:100ED0008230910509F440C050F4009781F00197E9
:100EE00009F078C0D0927B01C0927A01FFC08330B4
:100EF000910509F45AC0049709F45CC06BC0D09303
:100F00007B01C0937A011091A6012091A701812F46
:100F100090E00196289F1001299F300C1124032C8A
:100F2000000C44085508C501B401A20191010E94BA
:100F3000B7093093790120937801212F30E0A0E6A2
:100F4000BAEE0E94F809A20191010E94B7093093FC
:100F5000770120937601E2C0E0919001F0E0EE0F7E
:100F6000FF1FE458FE4F80819181909393018093FD
:100F700092012091AC013091AD018217930728F4C2
:100F8000F0927B01E0927A01C9C060917801709182
:100F9000790180E090E00E940803882309F4BEC034
:100FA000F0927B01E0927A0198C070927B0160928E
:100FB0007A019CC0609176017091770180E090E0A9
:100FC0000E940803882309F4A9C0D0937B01C09331
:100FD0007A019DC010927B0110927A019FC080918E
:100FE000A401882359F01092A4018091A5018111D8
:100FF00095C01092B8011092B70190C08091A201E3
:101000009091A3018230910509F440C050F40097FB
:1010100081F0019709F07EC0D092A301C092A20195
:1010200065C08330910509F45DC0049709F461C07F
:1010300071C01093A3010093A2011091A601209109
:10104000A701812F90E00196289F1001299F300C65
:101050001124032C000C44085508C501B401A20159
:1010600091010E94B7093093A1012093A001212F83
:1010700030E0A0E6BAEE0E94F809A20191010E94B8
:10108000B70930939F0120939E0148C0E0919001E1
:10109000F0E0EE0FFF1FE458FE4F808191819093A6
:1010A0009301809392012091AC013091AD018217A0
:1010B000930728F4F092A301E092A2012FC060915F
:1010C000A0017091A10180E090E00E9408038823B4
:1010D00029F1F092A301E092A20110929D011092D9
:1010E0009C011CC07092A3016092A2010E94FC02AC
:1010F00015C060919E0170919F0180E090E00E9478
:101100000803882359F01093A3010093A2011092C1
:10111000910104C01092A3011092A2018091C70214
:101120009091C8028230910531F198F40097C9F08E
:10113000019709F09DC0D092C802C092C70289E70A
:1011400093E00E94F00380E00E94AE0386E491E009
:1011500054C08330910509F486C0049709F483C014
:1011600087C068EB7BE080E090E00E94C8028823A3
:1011700009F482C07DC08091790290917A02009733
:1011800009F440C0019709F069C00E94B5000097BA
:1011900021F0019709F457C0D3C00E94A401009127
:1011A000D1011091D2012091D3013091D401DC0101
:1011B000CB01801B910BA20BB30B0697A105B105C8
:1011C00008F4BEC010927A02109279020E94A40123
:1011D0006093D1017093D2018093D3019093D40195
:1011E000F092C802E092C70289E793E00E94F00300
:1011F00080E00E94AE0387E591E00E94B9040E945E
:10120000BC023AC00E94B5008C010097E1F0019742
:1012100009F096C00E94A4012091D1013091D20121
:101220004091D3015091D401DC01CB01821B930B7F
:10123000A40BB50B0697A105B10508F481C0109366
:101240007A02009379020E94A4016093D101709305
:10125000D2018093D3019093D40172C0D0937A02CB
:10126000C09379026DC060ED77E080E090E07DCFC3
:10127000D093C802C093C7020E94A4010091C90282
:101280001091CA022091CB023091CC02DC01CB013B
:10129000801B910BA20BB30B893C9105A105B105F5
:1012A00050F00E94A4016093C9027093CA02809317
:1012B000CB029093CC020E94A4010091CF02109126
:1012C000D0022091D1023091D2021B012C01201AB0
:1012D000310A420A530A44EF241641E0340641041D
:1012E0005104E0F06093CF027093D0028093D1025A
:1012F0009093D2028091CD029091CE02892B29F455
:10130000D093CE02C093CD0204C01092CE021092B0
:10131000CD026091CD028DE00E94D9000E94B20200
:1013200044CDD0937501C09374010E94A4016093D1
:1013300070017093710180937201909373019BCD42
:1013400068E873E180E090E00E94C802882309F415
:1013500093CF7092C8026092C70289E793E00E941F
:10136000F00380E00E94AE0380E691E046CF052EB8
:1013700097FB1EF400940E94CE0957FD07D00E94EF
:10138000D60907FC03D04EF40C94CE095095409535
:10139000309521953F4F4F4F5F4F08959095809521
:1013A000709561957F4F8F4F9F4F0895A1E21A2E40
:1013B000AA1BBB1BFD010DC0AA1FBB1FEE1FFF1FF9
:1013C000A217B307E407F50720F0A21BB30BE40B49
:1013D000F50B661F771F881F991F1A9469F7609590
:1013E0007095809590959B01AC01BD01CF0108954A
:1013F000A29FB001B39FC001A39F700D811D112456
:10140000911DB29F700D811D1124911D089597FBB0
:10141000072E16F4009407D077FD09D00E94220A07
:1014200007FC05D03EF4909581959F4F08957095E7
:1014300061957F4F08950E94F809B7FF0895821BB8
:10144000930B0895AA1BBB1B51E107C0AA1FBB1F2A
:10145000A617B70710F0A61BB70B881F991F5A9540
:10146000A9F780959095BC01CD010895EE0FFF1F5F
:101470000590F491E02D099481E090E0F8940C94AB
:06148000410AF894FFCFC1
:101486000040145400401050000000004302B00118
:10149600DA0190020B02E901FD01000000009B0346
:1014A600B001B604B504F80350033C036C0352457F
:1014B600535049524F4E450044656D6F2044697341
:1014C600706C61792000507265737320616E7920AB
:1014D600627574746F6E0053756363657373210070
:0814E6004572726F72210000D3
:00000001FF
