:100000000C9462000C948A000C948A000C948A0070
:100010000C948A000C948A000C948A000C948A0038
:100020000C948A000C948A000C948A000C948A0028
:100030000C948A000C948A000C948A000C948A0018
:100040000C948D040C948A000C94FD040C94D70439
:100050000C948A000C948A000C948A000C948A00F8
:100060000C948A000C948A000000000024002700F1
:100070002A0000000000250028002B0000000000DE
:1000800023002600290004040404040404040202DA
:100090000202020203030303030301020408102007
:1000A0004080010204081020010204081020000012
:1000B0000008000201000003040700000000000027
:1000C00000002F0511241FBECFEFD8E0DEBFCDBF4B
:1000D00011E0A0E0B1E0E4E9FFE002C005900D927C
:1000E000A836B107D9F722E0A8E6B1E001C01D9219
:1000F000AA34B207E1F710E0C2E6D0E004C02197CD
:10010000FE010E94BD07C136D107C9F70E94D20582
:100110000C94C8070C940000833081F028F48130DF
:1001200099F08230A1F008958730A9F08830B9F0B5
:100130008430D1F4809180008F7D03C08091800055
:100140008F7780938000089584B58F7702C084B53F
:100150008F7D84BD08958091B0008F7703C080911A
:10016000B0008F7D8093B0000895CF93DF93E4EBD0
:10017000F0E08491E0EAF0E0D491ECE8F0E0C491A2
:10018000CC2391F081110E948C00EC2FF0E0EE0F57
:10019000FF1FE458FF4FA591B491EC91ED2381E04E
:1001A00090E021F480E002C080E090E0DF91CF9108
:1001B00008951F93CF93DF93282F30E0F901E25584
:1001C000FF4F8491F901E656FF4FD491F901EA57A8
:1001D000FF4FC491CC23C1F0162F81110E948C00D7
:1001E000EC2FF0E0EE0FFF1FEE58FF4FA591B491FA
:1001F0009FB7F894111104C08C91D095D82302C0F8
:10020000EC91DE2BDC939FBFDF91CF911F9108957E
:10021000AF92BF92CF92DF92EF92FF920F931F9314
:10022000CF93DF938C015C018EE0A80EB11CC42E2D
:10023000D12CC0E0D0E0E62EF12CCC15DD0579F014
:10024000B7010C2E02C0759567950A94E2F76170AC
:10025000F50181915F010E94D9002196EECF61E006
:10026000F80185850E94D90060E0F8018585DF915D
:10027000CF911F910F91FF90EF90DF90CF90BF90A3
:10028000AF900C94D900CF93DF9390E0FC01E65639
:10029000FF4F2491FC01EA57FF4F8491882361F1BD
:1002A00090E0880F991FFC01E859FF4FC591D49148
:1002B000FC01EE58FF4FA591B491611109C09FB7A1
:1002C000F8948881209582238883EC912E230BC09B
:1002D000623061F49FB7F8948881322F3095832380
:1002E0008883EC912E2B2C939FBF06C08FB7F89478
:1002F000E8812E2B28838FBFDF91CF9108953FB7E0
:10030000F8948091920190919301A0919401B09101
:10031000950126B5A89B05C02F3F19F00196A11D98
:10032000B11D3FBFBA2FA92F982F8827820F911D8B
:10033000A11DB11DBC01CD0142E0660F771F881FD2
:10034000991F4A95D1F708952FB7F89460918E01BF
:1003500070918F0180919001909191012FBF08952C
:10036000CF92DF92EF92FF920F931F93CF93DF9381
:100370006C017A018B01C0E0D0E0CE15DF0581F081
:10038000D8016D918D01D601ED91FC910190F08124
:10039000E02DC6010995892B11F02196EECF7E0143
:1003A000C701DF91CF911F910F91FF90EF90DF90E8
:1003B000CF900895FC01538D448D252F30E0842F7C
:1003C00090E0821B930B541710F0CF96089501977D
:1003D0000895FC01918D828D981761F0828DDF0167
:1003E000A80FB11D5D968C91928D9F5F9F73928F28
:1003F00090E008958FEF9FEF0895FC01918D828D1D
:10040000981731F0828DE80FF11D858D90E00895E9
:100410008FEF9FEF0895FC01918D228D892F90E041
:10042000805C9F4F821B91098F739927089586E9FD
:1004300091E00E940B0221E0892B09F420E0822F39
:100440000895FC01848DDF01A80FB11DA35ABF4F91
:100450002C91848D90E001968F739927848FA689C3
:10046000B7892C93A089B1898C91837080648C9317
:10047000938D848D981306C00288F389E02D8081C6
:100480008F7D80830895EF92FF920F931F93CF93F8
:10049000DF93EC0181E0888F9B8D8C8D981305C0D4
:1004A000E889F989808185FD26C0F62E0B8D10E044
:1004B0000F5F1F4F0F731127E02E8C8DE8120CC0B9
:1004C0000FB607FCFACFE889F989808185FFF5CF5F
:1004D000CE010E942102F1CF8B8DFE01E80FF11DAC
:1004E000E35AFF4FF0829FB7F8940B8FEA89FB899C
:1004F000808180620AC09FB7F894EE89FF8960838B
:10050000E889F98980818370806480839FBF81E05E
:1005100090E0DF91CF911F910F91FF90EF900895A0
:10052000CF93DF93EC01888D8823C9F0EA89FB899A
:10053000808185FD05C0A889B9898C9186FD0FC091
:100540000FB607FCF5CF808185FFF2CFA889B98966
:100550008C9185FFEDCFCE010E942102E7CFDF9184
:10056000CF91089580E090E0892B29F00E94170236
:1005700081110C94000008950E94A4016093680109
:100580007093690180936A0190936B0180E00895F4
:10059000CF92DF92EF92FF920F931F936115710537
:1005A0008105910541F41F910F91FF90EF90DF902D
:1005B000CF900C94BC026B017C010E94A4010091BD
:1005C00068011091690120916A0130916B01DC0191
:1005D000CB01801B910BA20BB30B21E0C816D906EF
:1005E000EA06FB0608F020E0822F1F910F91FF9092
:1005F000EF90DF90CF900895FC0186898F3F79F0CE
:1006000021853285662319F0232B31F403C0213074
:10061000310511F461E001C060E00C94D900089547
:10062000EF92FF921F93CF93DF93EC01162F7A0185
:1006300061E0812F0E9443011E8BFA86E986E881E2
:10064000F9810484F585E02D60E0CE01DF91CF9142
:100650001F91FF90EF9009940F931F93CF93DF9317
:10066000EC01162F042F61E0413009F060E08B852A
:100670000E94D9008C858F3F19F060E00E94D9005C
:10068000023081F08C8184FF02C048E00CC0612FF1
:1006900070E084E0759567958A95E1F744E0CE01B6
:1006A0000E94080144E0612FCE01DF91CF911F919C
:1006B0000F910C940801DC01ED91FC910684F78503
:1006C000E02D41E0099581E090E00895DC01ED9195
:1006D000FC910684F785E02D40E00994CF93DF93E9
:1006E000CDB7DEB728970FB6F894DEBF0FBECDBFEB
:1006F000409100015091010160910201709103014C
:100700004D835E836F83788740910401509105018A
:10071000609106017091070149835A836B837C8342
:1007200020913A02821710F08FEF820F30913B0236
:1007300090E0FE01E80FF91F303121F4243011F46C
:10074000618101C06581606883E392E028960FB6FD
:10075000F894DEBF0FBECDBFDF91CF910C9466033E
:1007600061E00E9466038BE39FE10197F1F7089532
:100770008F929F92AF92BF92CF92DF92EF92FF92B1
:100780000F931F93CF93DF93EC01423018F08C81CD
:1007900088608C834F836887222329F0413019F4C5
:1007A0008C8184608C830E947F016B017C0184E6D4
:1007B000882E912CA12CB12C0E947F01DC01CB0151
:1007C0008C199D09AE09BF09883E9340A105B1056A
:1007D00098F321E0821A9108A108B10888EEC80EAA
:1007E00083E0D81EE11CF11C81149104A104B10422
:1007F00019F76C8164FD31C0E881F9810684F785C1
:10080000E02D42E063E0CE0109958BE496E4019788
:10081000F1F7E881F9810684F785E02D42E063E095
:10082000CE01099503E512E0C8010197F1F7E881CF
:10083000F9810684F785E02D42E063E0CE01099559
:10084000C8010197F1F7E881F9810684F785E02D69
:1008500042E062E0CE01099517C06062CE010E94BD
:1008600066038BE496E40197F1F76C816062CE0138
:100870000E94660303E512E0C8010197F1F76C815D
:100880006062CE010E946603C8010197F1F76C8196
:100890006062CE010E9466038BEE90E00197F1F753
:1008A00084E08D836CE0CE010E946603CE010E943D
:1008B000B00382E08E8366E0CE010E946603E88189
:1008C000F9810484F585E02D6FEFCE01DF91CF91A2
:1008D0001F910F91FF90EF90DF90CF90BF90AF905E
:1008E0009F908F90099408950895089580E090E076
:1008F0000895009769F0FC0101900020E9F7319715
:10090000AF01481B590BBC0183E392E00C94B0018A
:1009100080E090E008950E94C3071F920F920FB6E7
:100920000F9211242F933F938F939F93AF93BF9375
:1009300080918E0190918F01A0919001B0919101D1
:1009400030918D0123E0230F2D3720F40196A11D56
:10095000B11D05C026E8230F0296A11DB11D2093ED
:100960008D0180938E0190938F01A0939001B0939D
:1009700091018091920190919301A0919401B09185
:1009800095010196A11DB11D809392019093930151
:10099000A0939401B0939501BF91AF919F918F91D6
:1009A0003F912F910F900FBE0F901F9018951F929F
:1009B0000F920FB60F9211242F933F934F935F9393
:1009C0006F937F938F939F93AF93BF93EF93FF9317
:1009D00086E991E00E942102FF91EF91BF91AF91D2
:1009E0009F918F917F916F915F914F913F912F9147
:1009F0000F900FBE0F901F9018951F920F920FB679
:100A00000F9211242F938F939F93EF93FF93E09175
:100A1000A601F091A7018081E091AC01F091AD01B8
:100A200082FD12C090818091AF018F5F8F73209102
:100A3000B001821751F0E091AF01F0E0EA56FE4FAD
:100A4000958F8093AF0101C08081FF91EF919F91BD
:100A50008F912F910F900FBE0F901F901895CF93ED
:100A6000DF93109299011092980188EE93E0A0E034
:100A7000B0E080939A0190939B01A0939C01B09366
:100A80009D018CE091E0909397018093960185EC15
:100A900090E09093A3018093A20184EC90E0909366
:100AA000A5018093A40180EC90E09093A70180932E
:100AB000A60181EC90E09093A9018093A80182ECBB
:100AC00090E09093AB018093AA0186EC90E0909324
:100AD000AD018093AC011092AF011092B001109261
:100AE000B1011092B20110923602109235028EE1DD
:100AF00091E090933402809333028CE080933E0225
:100B00008FEF80933F028BE08093400285E08093DB
:100B1000410284E08093420283E08093430282E0BA
:100B200080934402109245021092460210924702AE
:100B300010924802C1E4D2E061E089910E94430131
:100B400082E0C534D807C1F761E080913E020E947F
:100B5000430180913F028F3F19F061E00E94430101
:100B600061E0809140020E9443011092370260E0F0
:100B700080913E020E94D90060E0809140020E9474
:100B8000D90080913F028F3F19F060E00E94D900A8
:100B90008FEF8093490210923D0210923C02DF9148
:100BA000CF910895789484B5826084BD84B58160C6
:100BB00084BD85B5826085BD85B5816085BD809128
:100BC0006E00816080936E001092810080918100A0
:100BD0008260809381008091810081608093810098
:100BE000809180008160809380008091B10084605A
:100BF0008093B1008091B00081608093B0008091BB
:100C00007A00846080937A0080917A008260809379
:100C10007A0080917A00816080937A0080917A00D6
:100C2000806880937A001092C10020E042E060E189
:100C300083E392E00E94B80362E083E392E00E94C3
:100C400066038BE39FE10197F1F78EE291E00E944A
:100C5000790481E00E946E0388E391E00E947904A8
:100C6000109282011092810162E086E00E944301AD
:100C70000E94BC0282E090E0909371018093700129
:100C8000E091A601F091A7018083E091A201F0918B
:100C9000A3011082E091A401F091A50180E180837D
:100CA0001092AE01E091AA01F091AB0186E0808341
:100CB000E091A801F091A901808180618083E09199
:100CC000A801F091A901808188608083E091A8014A
:100CD000F091A901808180688083E091A801F09162
:100CE000A90180818F7D808361E08DE00E944301B6
:100CF00002E010E0C1E0D0E084E0E82EF12C93E0C7
:100D0000C92ED12C80917001909171018130910593
:100D100061F188F0029709F04FC080916E0188233D
:100D200009F44AC010926E0180916F01882339F155
:100D3000813059F041C080916E01882359F01092A2
:100D40006E0180916F01813029F4D0937101C093BD
:100D5000700119C080916C0190916D0181309105F5
:100D600011F130F1029721F10EC080916E018823BC
:100D700079F010926E0180916F01811109C010927B
:100D800071011092700110926D0110926C0114C0EB
:100D900080916C0190916D018130910521F040F0BE
:100DA000029731F009C010936D0100936C0104C0EB
:100DB000D0936D01C0936C0180918101909182016B
:100DC0008230910531F198F40097C9F0019709F04C
:100DD00062C0109382010093810183E392E00E943C
:100DE000B00380E00E946E0386E491E03BC0833054
:100DF000910509F44BC0049709F448C04CC068EB56
:100E00007BE080E090E00E94C802882309F447C09C
:100E100042C080917F0190918001009719F0019765
:100E200059F12FC00E94B500892B09F50E94A40139
:100E300070E080917801681B7109633371050CF4CF
:100E400085C0D0938001C0937F01D0928201C0926F
:100E5000810183E392E00E94B00380E00E946E0370
:100E600087E591E00E9479040E94BC0218C00E94AC
:100E7000A401609378016AC00E94B500019709F04F
:100E800065C01092800110927F0160C060ED77E034
:100E900080E090E0B8CFD0938201C09381010E949E
:100EA000A4018090830190908401A0908501B0906E
:100EB0008601DC01CB0188199909AA09BB09893C83
:100EC0009105A105B10550F00E94A4016093830132
:100ED0007093840180938501909386010E94A40100
:100EE0008090890190908A01A0908B01B0908C0134
:100EF0009B01AC01281939094A095B0949015A01CA
:100F000034EF831631E09306A104B104E0F060935E
:100F1000890170938A0180938B0190938C01809159
:100F2000870190918801892B29F4D0938801C0937F
:100F3000870104C010928801109287016091870197
:100F40008DE00E94D9000E94B202DCCE68E873E115
:100F500080E090E00E94C802882309F4A0CFF092BC
:100F60008201E092810183E392E00E94B00380E07D
:100F70000E946E0380E691E075CFEE0FFF1F059093
:100F8000F491E02D099481E090E0F8940C94C80766
:040F9000F894FFCF03
:100F94000040145400401050000000004302B0010F
:100FA400DA0190020B02E901FD01000000005B037D
:100FB400B00176047504B8031003FC022C035245F7
:100FC400535049524F4E450044656D6F2044697338
:100FD400706C61792000507265737320616E7920A2
:100FE400627574746F6E0053756363657373210067
:080FF4004572726F72210000CA
:00000001FF
