:100000000C9486000C94AE000C94AE000C94AE00E0
:100010000C94AE000C94AE000C94AE000C94AE00A8
:100020000C94AE000C94AE000C94AE000C94AE0098
:100030000C94AE000C94AE000C94AE000C94AE0088
:100040000C94E3060C94AE000C946B020C944502E5
:100050000C94AE000C94AE000C94AE000C94AE0068
:100060000C94AE000C94AE00DF09FA09860AFA0A75
:100070005B0ACF0A390B640B4E0DF30DAA0EC30BAE
:10008000680C1D0DDB0EA50F8010B1107D115A12EA
:100090008A123E13FF133A14111505163416091768
:1000A000EE171E18D618A019111AC319001B0E1B23
:1000B00000000000240027002A00000000002500A6
:1000C00028002B0000000000230026002900040463
:1000D00004040404040402020202020203030303F0
:1000E00003030102040810204080010204081020CC
:1000F00001020408102000000008000201000003B3
:1001000004070000000000000000941B11241FBE23
:10011000CFEFD8E0DEBFCDBF13E0A0E0B1E0E6E076
:10012000FAE302C005900D92A835B107D9F725E092
:10013000A8E5B3E001C01D92A63CB207E1F710E0CC
:10014000C6E8D0E004C02197FE010E94D01CC5384B
:10015000D107C9F70E942D070C94011D0C940000D3
:10016000CF92DF92EF92FF920F931F93CF93DF9383
:100170006C017A018B01C0E0D0E0CE15DF0581F083
:10018000D8016D918D01D601ED91FC910190F08126
:10019000E02DC6010995892B11F02196EECF7E0145
:1001A000C701DF91CF911F910F91FF90EF90DF90EA
:1001B000CF900895FC01538D448D252F30E0842F7E
:1001C00090E0821B930B541710F0CF96089501977F
:1001D0000895FC01918D828D981761F0828DDF0169
:1001E000A80FB11D5D968C91928D9F5F9F73928F2A
:1001F00090E008958FEF9FEF0895FC01918D828D1F
:10020000981731F0828DE80FF11D858D90E00895EB
:100210008FEF9FEF0895FC01918D228D892F90E043
:10022000805C9F4F821B91098F739927089589E005
:1002300095E00E940B0121E0892B09F420E0822F38
:100240000895FC01848DDF01A80FB11DA35ABF4F93
:100250002C91848D90E001968F739927848FA689C5
:10026000B7892C93A089B1898C91837080648C9319
:10027000938D848D981306C00288F389E02D8081C8
:100280008F7D80830895EF92FF920F931F93CF93FA
:10029000DF93EC0181E0888F9B8D8C8D981305C0D6
:1002A000E889F989808185FD26C0F62E0B8D10E046
:1002B0000F5F1F4F0F731127E02E8C8DE8120CC0BB
:1002C0000FB607FCFACFE889F989808185FFF5CF61
:1002D000CE010E942101F1CF8B8DFE01E80FF11DAF
:1002E000E35AFF4FF0829FB7F8940B8FEA89FB899E
:1002F000808180620AC09FB7F894EE89FF8960838D
:10030000E889F98980818370806480839FBF81E060
:1003100090E0DF91CF911F910F91FF90EF900895A2
:10032000CF93DF93EC01888D8823C9F0EA89FB899C
:10033000808185FD05C0A889B9898C9186FD0FC093
:100340000FB607FCF5CF808185FFF2CFA889B98968
:100350008C9185FFEDCFCE010E942101E7CFDF9187
:10036000CF91089580E090E0892B29F00E94170139
:1003700081110C9400000895DC01ED91FC9106843C
:10038000F785E02D41E0099581E090E0089508951A
:100390000895089580E090E008950E94F11CEF9286
:1003A000FF921F93CF93DF93EC01162F7A0161E048
:1003B000812F0E9476061E8BFA86E986E881F981F4
:1003C0000484F585E02D60E0CE01DF91CF911F918F
:1003D000FF90EF900994FC0186898F3F79F0218589
:1003E0003285662319F0232B31F403C02130310507
:1003F00011F461E001C060E00C940C0608950F93C5
:100400001F93CF93DF93EC01162F042F61E041304F
:1004100009F060E08B850E940C068C858F3F19F0F7
:1004200060E00E940C06023081F08C8184FF02C0E3
:1004300048E00CC0612F70E084E0759567958A955F
:10044000E1F744E0CE010E943B0644E0612FCE017B
:10045000DF91CF911F910F910C943B0661157105AF
:1004600079F0FB0101900020E9F73197AF01461BBD
:10047000570BDC01ED91FC910280F381E02D099492
:1004800080E090E008950C942E021F920F920FB618
:100490000F9211242F933F934F935F936F937F930A
:1004A0008F939F93AF93BF93EF93FF9389E095E072
:1004B0000E942101FF91EF91BF91AF919F918F9188
:1004C0007F916F915F914F913F912F910F900FBE50
:1004D0000F901F9018951F920F920FB60F92112434
:1004E0002F938F939F93EF93FF93E0911905F091D2
:1004F0001A058081E0911F05F091200582FD12C050
:100500009081809122058F5F8F7320912305821740
:1005100051F0E0912205F0E0E75FFA4F958F80936C
:10052000220501C08081FF91EF919F918F912F91C2
:100530000F900FBE0F901F9018950E94D7066093E2
:10054000050570930605809307059093080580E0E4
:100550000895CF92DF92EF92FF920F931F93611550
:1005600071058105910541F41F910F91FF90EF9066
:10057000DF90CF900C949D026B017C010E94D70606
:100580000091050510910605209107053091080599
:10059000DC01CB01801B910BA20BB30B21E0C81631
:1005A000D906EA06FB0608F020E0822F1F910F9182
:1005B000FF90EF90DF90CF9008958F929F92AF922F
:1005C000BF92EF92FF920F931F93CF93DF93C82FA9
:1005D000D0E08E01000F111F05551B4FF80120813F
:1005E00031812115310521F021303105A1F16FC094
:1005F0000E94E305009719F00197A1F16BC00E94DA
:10060000D7069E01220F331F220F331FA901495025
:100610005C4F7A01FA0180809180A280B380DC0176
:10062000CB0188199909AA09BB090697A105B1054B
:1006300008F450C081E090E0F80191838083C85AAB
:10064000DC4F88830E94D706F70160837183828321
:10065000938381E040C00E94E305009719F0019761
:1006600071F038C00E94D706CC0FDD1FCC0FDD1F04
:10067000C950DC4F688379838A839B832BC00E9497
:10068000D7069E01220F331F220F331FA9014950A5
:100690005C4F7A01FA0180809180A280B380DC01F6
:1006A000CB0188199909AA09BB090697A105B105CB
:1006B00088F0F80111821082C85ADC4F18820E941B
:1006C000D706F701608371838283938303C0F801A7
:1006D0001182108280E0DF91CF911F910F91FF90E6
:1006E000EF90BF90AF909F908F9008950E94D70693
:1006F0006093F3037093F4038093F5039093F603F0
:1007000080E00895CF92DF92EF92FF920F931F93B4
:10071000611571058105910541F41F910F91FF90BD
:10072000EF90DF90CF900C9476036B017C010E94D8
:10073000D7060091F3031091F4032091F503309153
:10074000F603DC01CB01801B910BA20BB30B21E064
:10075000C816D906EA06FB0608F020E0822F1F9192
:100760000F91FF90EF90DF90CF900895DC01ED9115
:10077000FC910684F785E02D40E0099461E086EA6B
:1007800095E00E94B6038BE39FE10197F1F708958E
:100790008F929F92AF92BF92CF92DF92EF92FF9291
:1007A0000F931F93CF93DF93EC01423018F08C81AD
:1007B00088608C834F836887222329F0413019F4A5
:1007C0008C8184608C830E94B2066B017C0184E67C
:1007D000882E912CA12CB12C0E94B206DC01CB01F9
:1007E0008C199D09AE09BF09883E9340A105B1054A
:1007F00098F321E0821A9108A108B10888EEC80E8A
:1008000083E0D81EE11CF11C81149104A104B10401
:1008100019F76C8164FD31C0E881F9810684F785A0
:10082000E02D42E063E0CE0109958BE496E4019768
:10083000F1F7E881F9810684F785E02D42E063E075
:10084000CE01099503E512E0C8010197F1F7E881AF
:10085000F9810684F785E02D42E063E0CE01099539
:10086000C8010197F1F7E881F9810684F785E02D49
:1008700042E062E0CE01099517C06062CE010E949D
:10088000B6038BE496E40197F1F76C816062CE01C8
:100890000E94B60303E512E0C8010197F1F76C81ED
:1008A0006062CE010E94B603C8010197F1F76C8126
:1008B0006062CE010E94B6038BEE90E00197F1F7E3
:1008C00084E08D836CE0CE010E94B60361E0CE012E
:1008D0000E94B6038BE39FE10197F1F782E08E83DC
:1008E00066E0CE010E94B603E881F9810484F585B3
:1008F000E02D6FEFCE01DF91CF911F910F91FF900F
:10090000EF90DF90CF90BF90AF909F908F90099421
:10091000CF93E9E0F5E0A089B189C2E0CC93A4854A
:10092000B5851C92A685B7858FEC8C93108EA48913
:10093000B58986E08C93A289B3898C9180618C9370
:10094000A289B3898C9188608C93A289B3898C9198
:1009500080688C930288F389E02D80818F7D80836D
:1009600020E042E060E186EA95E00E94C80362E090
:1009700086EA95E00E94B6038BE39FE10197F1F7C9
:100980000E94BE0362E771E080E00E942D0563E8EB
:1009900071E081E00E942D05109299031092980356
:1009A00062E086E00E94760662E083E00E947606BE
:1009B00062E082E00E94760662E085E00E947606B0
:1009C00062E084E00E9476060E949D02E5E8F3E082
:1009D000C18384EF91E0958784878EE090E09787CC
:1009E000868784E090E0918B808B8EE08383C28346
:1009F0008EE190E0918780878CEF828B84E190E09C
:100A000097838683CF910895833081F028F48130D5
:100A100099F08230A1F008958730A9F08830B9F0BC
:100A20008430D1F4809180008F7D03C0809180005C
:100A30008F7780938000089584B58F7702C084B546
:100A40008F7D84BD08958091B0008F7703C0809121
:100A5000B0008F7D8093B00008950F931F93CF93C4
:100A6000DF93CDB7DEB728970FB6F894DEBF0FBE81
:100A7000CDBF8B01409100015091010160910201B5
:100A8000709103014D835E836F83788740910401E9
:100A900050910501609106017091070149835A83C5
:100AA0006B837C832091AD05821710F08FEF820F4E
:100AB0003091AE0590E0FE01E80FF91F303121F4CE
:100AC000243011F4618101C06581606886EA95E097
:100AD0000E94B603B80186EA95E028960FB6F8940E
:100AE000DEBF0FBECDBFDF91CF911F910F910C9450
:100AF00043028F929F92AF92BF920F931F93CF9317
:100B0000DF93CDB7DEB7A1970FB6F894DEBF0FBE67
:100B1000CDBF19A2423008F44AE08E010F5D1F4F8D
:100B2000842E912CA12CB12CA50194010E948B1C28
:100B3000E62FB901CA0101501109EA3014F4E05D51
:100B400001C0E95CD801EC93232B242B252B61F702
:100B5000B80189E095E00E942E02A1960FB6F894A4
:100B6000DEBF0FBECDBFDF91CF911F910F91BF9020
:100B7000AF909F908F900895CF93DF93BC0180E05A
:100B800090E04AE00E947905EC0163E173E089E0BE
:100B900095E00E942E028C0F9D1FDF91CF9108954A
:100BA000CF93DF93BC0189E095E00E942E02EC0117
:100BB00063E173E089E095E00E942E028C0F9D1F97
:100BC000DF91CF910895CF93DF93282F30E0F90183
:100BD000EA50FF4F8491F901EE51FF4FD491F90192
:100BE000E253FF4FC491CC2391F081110E94040580
:100BF000EC2FF0E0EE0FFF1FEC53FF4FA591B491E7
:100C0000EC91ED2381E090E021F480E002C080E0EF
:100C100090E0DF91CF9108951F93CF93DF93282F1A
:100C200030E0F901EA50FF4F8491F901EE51FF4F96
:100C3000D491F901E253FF4FC491CC23C1F0162F98
:100C400081110E940405EC2FF0E0EE0FFF1FE65427
:100C5000FF4FA591B4919FB7F894111104C08C91E6
:100C6000D095D82302C0EC91DE2BDC939FBFDF919F
:100C7000CF911F910895AF92BF92CF92DF92EF92E2
:100C8000FF920F931F93CF93DF938C015C018EE053
:100C9000A80EB11CC42ED12CC0E0D0E0E62EF12C61
:100CA000CC15DD0579F0B7010C2E02C0759567955E
:100CB0000A94E2F76170F50181915F010E940C06D0
:100CC0002196EECF61E0F80185850E940C0660E078
:100CD000F8018585DF91CF911F910F91FF90EF90E3
:100CE000DF90CF90BF90AF900C940C06CF93DF9322
:100CF00090E0FC01EE51FF4F2491FC01E253FF4FC5
:100D00008491882361F190E0880F991FFC01E055E0
:100D1000FF4FC591D491FC01E654FF4FA591B491CA
:100D2000611109C09FB7F894888120958223888338
:100D3000EC912E230BC0623061F49FB7F894888148
:100D4000322F309583238883EC912E2B2C939FBFD9
:100D500006C08FB7F894E8812E2B28838FBFDF91D0
:100D6000CF9108953FB7F8948091C2059091C30543
:100D7000A091C405B091C50526B5A89B05C02F3F1D
:100D800019F00196A11DB11D3FBFBA2FA92F982FB1
:100D90008827820F911DA11DB11DBC01CD0142E02C
:100DA000660F771F881F991F4A95D1F708952FB7AF
:100DB000F8946091BE057091BF058091C005909137
:100DC000C1052FBF08951F920F920FB60F921124E5
:100DD0002F933F938F939F93AF93BF938091BE05C3
:100DE0009091BF05A091C005B091C1053091BD059E
:100DF00023E0230F2D3720F40196A11DB11D05C05E
:100E000026E8230F0296A11DB11D2093BD058093F6
:100E1000BE059093BF05A093C005B093C105809116
:100E2000C2059091C305A091C405B091C505019676
:100E3000A11DB11D8093C2059093C305A093C40565
:100E4000B093C505BF91AF919F918F913F912F9125
:100E50000F900FBE0F901F901895CF93DF93CDB7D3
:100E6000DEB7A0970FB6F894DEBF0FBECDBF789463
:100E700084B5826084BD84B5816084BD85B582609F
:100E800085BD85B5816085BD80916E008160809350
:100E90006E001092810080918100826080938100B9
:100EA00080918100816080938100809180008160C9
:100EB000809380008091B10084608093B100809124
:100EC000B00081608093B00080917A00846080934C
:100ED0007A0080917A00826080937A0080917A0013
:100EE000816080937A0080917A00806880937A0094
:100EF0001092C1000E9488041092A1031092A003D6
:100F00001092BC031092BE031092BD0382E090E0E9
:100F10009093D5038093D4031092D1031092D00301
:100F20001092D3031092D203E0911905F0911A05A3
:100F30008083E0911505F09116051082E091170568
:100F4000F091180580E1808310922105E0911D0544
:100F5000F0911E0586E08083E0911B05F0911C0551
:100F6000808180618083E0911B05F0911C05808168
:100F700088608083E0911B05F0911C05808180686A
:100F80008083E0911B05F0911C0580818F7D80831B
:100F900061E08DE00E947606F3E0EF2EF12CA2E0F6
:100FA0006A2E712C01E010E0B0E68B2EBAEE9B2E7B
:100FB000A12CB12C80919A0390919B0381309105D3
:100FC00061F030F08230910541F0039731F009C0B3
:100FD000F0929B03E0929A0304C010929B0310923C
:100FE0009A038091A0039091A1038130910531F182
:100FF00078F0029709F05EC01092A1031092A0034E
:101000002091BA03822F90E0AC01475F5F4F44C04C
:101010000E94D70620919C0330919D0340919E032E
:1010200050919F03DC01CB01821B930BA40BB50BEA
:10103000C397A105B105F0F10C94791B7092A1033F
:101040006092A003C090BA03D12C80E480937C000E
:1010500080917A00806480937A0080917A0086FD86
:10106000FCCFA091780080917900B0E0B82BC60148
:10107000880F991F9C012A553C4F690124E630E0F6
:101080000E94D61C2FEF33E040E050E00E946C1C21
:10109000F601318320830EC0622F70E04617570798
:1010A00014F02F5FF9CF01966AE070E00E94BC1C3B
:1010B0008093BA03C090D403D090D503F1E0CF164B
:1010C000D10409F4BAC088F032E0C316D10409F0A3
:1010D00067C18091D603882309F462C11092D603B8
:1010E0008091D703811109C0B2C08091D6038823B3
:1010F00061F01092D6038091D703813009F050C17E
:101100001093D5030093D40347C18091D0039091ED
:10111000D1038230910509F445C050F4009781F065
:10112000019709F098C07092D1036092D0036DC00E
:101130008330910509F463C0049709F469C08BC03A
:101140008091BB03882309F42BC11093D103009332
:10115000D003D090D8032091D9038D2D90E0019633
:10116000289F1001299F300C1124032C000C4408E7
:101170005508C501B401A20191010E946C1C309375
:10118000A5032093A4032D2D30E0A0E6BAEE0E9423
:10119000AD1CA20191010E946C1C3093A30320930B
:1011A000A203FEC0E091BA03F0E0EE0FFF1FEA5584
:1011B000FC4FC080D180D092C103C092C003809107
:1011C000DE039091DF03C816D90628F4F092D1030C
:1011D000E092D003E5C06091A4037091A50380E084
:1011E00090E00E948203882309F4DAC0F092D103D0
:1011F000E092D003D092C303C092C203A5C084E0A2
:1012000090E09093D1038093D0030E947603C8C0EE
:101210008091BB03882309F4C3C06091A20370913D
:10122000A30380E090E00E948203882309F4B8C001
:101230001093D1030093D003AAC08091D6038823D2
:1012400079F01092D6038091D7038111A9C0109232
:10125000D5031092D4031092D1031092D003A0C0F2
:101260008091D2039091D3038230910509F445C057
:1012700050F4009781F0019709F08EC07092D3036B
:101280006092D203C2CF8330910509F467C00497FE
:1012900009F46BC081C08091BB03882309F480C02E
:1012A000D092D303C092D203D090D8032091D90317
:1012B0008D2D90E00196289F1001299F300C11245C
:1012C000032C000C44085508C501B401A20191018A
:1012D0000E946C1C3093CF032093CE032D2D30E061
:1012E000A0E6BAEE0E94AD1CA20191010E946C1C06
:1012F0003093CD032093CC0353C0E091BA03F0E0C8
:10130000EE0FFF1FEA55FC4F808191819093C1033E
:101310008093C0032091DE033091DF03821793078F
:1013200028F4F092D303E092D2033AC06091CE0346
:101330007091CF0380E090E00E948203882381F1C6
:10134000F092D303E092D2038091BD039091BE034B
:1013500099279093CB038093CA0322C0E4E0F0E086
:10136000F093D303E093D20350CF8091BB03882343
:10137000B9F06091CC037091CD0380E090E00E94C1
:101380008203882369F0D092D303C092D203809164
:10139000BC038093BF0304C01092D3031092D20306
:1013A000198A1982E0919803F0919903E432F105CA
:1013B00010F00C941F1BEC5CFF4F0C94D01C82E0CF
:1013C0000E94DD02882311F40C94231B0E94BE03AB
:1013D0006EE271E080E00E942D056FE371E081E034
:1013E0000E942D0510939903009398030E949D027B
:1013F0000C94231B86E00E94DD02882359F060E5EF
:1014000071E081E00E942D05F0929903E09298032B
:101410000C94231B83E00E94DD02882359F061E6CF
:1014200071E081E00E942D0570929903609298030B
:101430000C94231B85E00E94DD02882369F082E082
:101440008093D70381E290E090939903809398036F
:101450000E949D020C94231B84E00E94DD028823DD
:1014600081F062E771E080E00E942D0563E871E0A1
:1014700081E00E942D0510929903109298030C941C
:10148000231B64EF71E080E090E00E94A9028823B2
:1014900011F40C94231B54E0252E312C3092990327
:1014A000209298036AE173E081E00E942D050E947A
:1014B0009D020C94231B86E00E94DD0281119FCFC8
:1014C00083E00E94DD028111AACF85E00E94DD0247
:1014D0008111B5CF84E00E94DD028111C2CF6AEF95
:1014E00070E080E090E00E94A902882311F40C943F
:1014F000231B6FE371E081E00E942D051093990397
:10150000009398030E949D020C94231B86E00E9486
:10151000DD02882359F06FE371E081E00E942D0520
:1015200010939903009398030C94231B83E00E946B
:10153000DD02811164CF85E00E94DD02882389F0FD
:1015400061E671E081E00E942D051092D70387E0EB
:1015500090E090939903809398030E949D020C94CD
:10156000231B84E00E94DD0281117BCF64EF71E0D8
:1015700080E090E00E94A902882311F40C94231BC0
:1015800085E090E090939903809398036AE173E07B
:1015900081E00E942D050E949D020C94231B86E091
:1015A0000E94DD028111B7CF83E00E94DD0281112C
:1015B00026CF85E00E94DD028111C2CF84E00E9427
:1015C000DD0281114ECF6AEF70E080E090E00E9472
:1015D000A902882311F40C94231B70929903609242
:1015E000980361E671E081E00E942D050E949D0252
:1015F0000C94231B86E00E94DD02811110CF83E052
:101600000E94DD02811187CF85E00E94DD028823E0
:1016100091F060E571E081E00E942D0581E080930A
:10162000D70387E090E090939903809398030E94FA
:101630009D020C94231B84E00E94DD02811111CFD6
:1016400064EF71E080E090E00E94A902882311F429
:101650000C94231B86E090E0909399038093980369
:101660006AE173E081E00E942D050E949D020C94C6
:10167000231B86E00E94DD028111D1CE83E00E940F
:10168000DD02811148CF85E00E94DD028111C1CFCA
:1016900084E00E94DD028111E4CE6AEF70E080E018
:1016A00090E00E94A902882311F40C94231BF0926D
:1016B0009903E092980360E571E081E00E942D05B6
:1016C0000E949D020C94231B64EF71E080E090E087
:1016D0000E94A902882311F40C94231B8091D70344
:1016E000813039F50E94BE0364E971E080E00E9418
:1016F0002D054AE0BE016F5E7F4F80918B03909174
:101700008C030E94371C65EA71E0CE0141960E946D
:10171000F61CBE016F5E7F4F81E00E942D058BE0BD
:1017200090E090939903809398030E949D020C94FB
:10173000231B81110C94231B0E94BE036CEA71E0F1
:1017400080E00E942D054AE0BE016F5E7F4F8091D0
:101750009103909192030E94371C6DEB71E0CE01D2
:1017600041960E94F61CBE016F5E7F4F81E00E9491
:101770002D0588E090E090939903809398030E9450
:101780009D020C94231B86E00E94DD02882339F120
:1017900080918B0390918C038832910510F401960F
:1017A00002C088E290E090938C0380938B034AE020
:1017B000BE016F5E7F4F80918B0390918C030E94DE
:1017C000371C65EA71E0CE0141960E94F61CBE010D
:1017D0006F5E7F4F81E00E942D050C94231B83E0F8
:1017E0000E94DD02882349F180918B0390918C0344
:1017F0008630910530F0019790938C0380938B0392
:1018000004C010938C0300938B034AE0BE016F5E0B
:101810007F4F80918B0390918C030E94371C65EA67
:1018200071E0CE0141960E94F61CBE016F5E7F4FB3
:1018300081E00E942D050C94231B85E00E94DD02AF
:10184000882341F14AE0BE016F5E7F4F80918B0398
:1018500090918C030E94371C65EA71E0CE0141969D
:101860000E94F61CBE016F5E7F4F81E00E942D0535
:1018700080918B0390918C039093DD038093DC0324
:101880008DE090E090939903809398030E949D02CD
:101890000C94231B84E00E94DD02811197CD64EF3C
:1018A00071E080E090E00E94A902882311F40C947A
:1018B000231B8CE090E090939903809398036AE156
:1018C00073E081E00E942D050E949D020C94231B71
:1018D00086E00E94DD02882341F180918B03909184
:1018E0008C038832910538F4209191033091920352
:1018F0002F5F3F4F02C028E230E0309392032093E5
:1019000091034AE0BE016F5E7F4F0E94371C65EA7B
:1019100071E0CE0141960E94F61CBE016F5E7F4FC2
:1019200081E00E942D050C94231B83E00E94DD02C0
:10193000882339F18091910390919203863091052B
:1019400010F0019702C085E090E09093920380939D
:1019500091034AE0BE016F5E7F4F80918B039091AF
:101960008C030E94371C65EA71E0CE0141960E940B
:10197000F61CBE016F5E7F4F81E00E942D050C9426
:10198000231B85E00E94DD02882341F14AE0BE016D
:101990006F5E7F4F80918B0390918C030E94371C68
:1019A00065EA71E0CE0141960E94F61CBE016F5EB1
:1019B0007F4F81E00E942D0580918B0390918C03D5
:1019C0009093DD038093DC038DE090E09093990386
:1019D000809398030E949D020C94231B84E00E9434
:1019E000DD028111F3CC6AEF70E080E090E00E94AC
:1019F000A902882311F40C94231B4AE0BE016F5EF8
:101A00007F4F80918B0390918C030E94371C65EA75
:101A100071E0CE0141960E94F61CBE016F5E7F4FC1
:101A200081E00E942D058BE090E0909399038093D4
:101A300098030E949D020C94231B64EF71E080E0E8
:101A400090E00E94A902882311F40C94231B0E94A9
:101A5000BE0360EC71E080E00E942D054AE0BE010B
:101A60006F5E7F4F80919303909194030E94371C87
:101A700061ED71E0CE0141960E94F61CBE016F5EE1
:101A80007F4F81E00E942D058EE090E090939903B6
:101A9000809398030E949D020C94231B86E00E9471
:101AA000DD02882341F1809191039091920380326D
:101AB00023E0920710F4C29602C080E293E0909374
:101AC0009203809391034AE0BE016F5E7F4F809145
:101AD0009103909192030E94371C6DEB71E0CE014F
:101AE00041960E94F61CBE016F5E7F4F81E00E940E
:101AF0002D050C94231B83E00E94DD02882341F115
:101B000080919103909192038D3231E0930710F010
:101B1000C29702C08CE291E090939203809391036C
:101B20004AE0BE016F5E7F4F8091910390919203D6
:101B30000E94371C6DEB71E0CE0141960E94F61CAD
:101B4000BE016F5E7F4F81E00E942D050C94231B28
:101B500085E00E94DD02882341F14AE0BE016F5E0C
:101B60007F4F80919103909192030E94371C6DEBFF
:101B700071E0CE0141960E94F61CBE016F5E7F4F60
:101B800081E00E942D0580919103909192039093A2
:101B9000E3038093E2038AE090E0909399038093BB
:101BA00098030E949D020C94231B84E00E94DD0296
:101BB00081110CCC64EF71E080E090E00E94A902FA
:101BC000882311F40C94231B89E090E090939903EF
:101BD000809398036AE173E081E00E942D050E94E2
:101BE0009D020C94231B86E00E94DD02882341F1B4
:101BF00080919103909192038032E3E09E0710F46C
:101C0000C29602C080E293E0909392038093910386
:101C10004AE0BE016F5E7F4F8091910390919203E5
:101C20000E94371C6DEB71E0CE0141960E94F61CBC
:101C3000BE016F5E7F4F81E00E942D050C94231B37
:101C400083E00E94DD02882341F18091910390910D
:101C500092038D32F1E09F0710F0C29702C08CE230
:101C600091E090939203809391034AE0BE016F5EEE
:101C70007F4F80919103909192030E94371C6DEBEE
:101C800071E0CE0141960E94F61CBE016F5E7F4F4F
:101C900081E00E942D050C94231B85E00E94DD024B
:101CA000882349F14AE0BE016F5E7F4F8091910326
:101CB000909192030E94371C6DEB71E0CE0141962A
:101CC0000E94F61CBE016F5E7F4F81E00E942D05D1
:101CD00080919103909192039093E3038093E203A8
:101CE0004AE0242E312C30929903209298030E94CE
:101CF0009D020C94231B84E00E94DD02811166CBBF
:101D00006AEF70E080E090E00E94A902882311F45D
:101D10000C94231B4AE0BE016F5E7F4F80919103BC
:101D2000909192030E94371C6DEB71E0CE014196B9
:101D30000E94F61CBE016F5E7F4F81E00E942D0560
:101D400088E090E090939903809398030E949D020D
:101D50000C94231B64EF71E080E090E00E94A902E4
:101D6000882311F40C94231B0E94BE0360EC71E0E5
:101D700080E00E942D054AE0BE016F5E7F4F80919A
:101D80009303909194030E94371C61ED71E0CE01A2
:101D900041960E94F61CBE016F5E7F4F81E00E945B
:101DA0002D058EE090E090939903809398030E9414
:101DB0009D020C94231B86E00E94DD02882339F1EA
:101DC00080919303909194038431910510F40196CE
:101DD00002C084E190E090939403809393034AE0DF
:101DE000BE016F5E7F4F80919303909194030E9498
:101DF000371C61ED71E0CE0141960E94F61CBE01D8
:101E00006F5E7F4F81E00E942D050C94231B83E0C1
:101E10000E94DD02882339F180919303909194030D
:101E20008D30910510F0019702C08CE090E0909306
:101E30009403809393034AE0BE016F5E7F4F8091CD
:101E40009303909194030E94371C61ED71E0CE01E1
:101E500041960E94F61CBE016F5E7F4F81E00E949A
:101E60002D050C94231B85E00E94DD02882341F19F
:101E70004AE0BE016F5E7F4F80919303909194037F
:101E80000E94371C61ED71E0CE0141960E94F61C64
:101E9000BE016F5E7F4F81E00E942D05809193030C
:101EA000909194039093E5038093E40380E190E0A4
:101EB00090939903809398030E949D020C94231B96
:101EC00084E00E94DD02882339F10E94BE036CEA9F
:101ED00071E080E00E942D054AE0BE016F5E7F4FF9
:101EE00080919103909192030E94371C6DEB71E0F9
:101EF000CE0141960E94F61CBE016F5E7F4F81E0CD
:101F00000E942D0588E090E09093990380939803B8
:101F10000E949D020C94231B64EF71E080E090E02E
:101F20000E94A902882311F40C94231B8FE090E0F7
:101F300090939903809398036AE173E081E00E9493
:101F40002D050E949D020C94231B86E00E94DD0259
:101F5000882339F180919303909194038431910502
:101F600010F4019602C084E190E090939403809372
:101F700093034AE0BE016F5E7F4F8091930390917F
:101F800094030E94371C61ED71E0CE0141960E94DE
:101F9000F61CBE016F5E7F4F81E00E942D050C9400
:101FA000231B83E00E94DD02882339F18091930393
:101FB000909194038D30910510F0019702C08CE050
:101FC00090E090939403809393034AE0BE016F5E88
:101FD0007F4F80919303909194030E94371C61ED91
:101FE00071E0CE0141960E94F61CBE016F5E7F4FEC
:101FF00081E00E942D050C94231B85E00E94DD02E8
:10200000882341F14AE0BE016F5E7F4F80919303C8
:10201000909194030E94371C61ED71E0CE014196CE
:102020000E94F61CBE016F5E7F4F81E00E942D056D
:1020300080919303909194039093E5038093E4033C
:1020400080E190E090939903809398030E949D0211
:102050000C94231B84E00E94DD02882339F10E9446
:10206000BE036CEA71E080E00E942D054AE0BE01EB
:102070006F5E7F4F80919103909192030E94371C75
:102080006DEB71E0CE0141960E94F61CBE016F5EC1
:102090007F4F81E00E942D0588E090E090939903A6
:1020A000809398030E949D020C94231B64EF71E0BF
:1020B00080E090E00E94A902882311F40C94231B75
:1020C0004AE0BE016F5E7F4F80919303909194032D
:1020D0000E94371C61ED71E0CE0141960E94F61C12
:1020E000BE016F5E7F4F81E00E942D058EE090E083
:1020F00090939903809398030E949D020C94231B54
:1021000064EF71E080E090E00E94A902882311F45E
:102110000C94231B0E94BE0365ED71E080E00E94D9
:102120002D054AE0BE016F5E7F4F80919303909131
:1021300094030E94371C61ED71E0CE0141960E942C
:10214000F61CBE016F5E7F4F81E00E942D0581E18C
:1021500090E090939903809398030E949D020C94C1
:10216000231B86E00E94DD02882339F180919303CE
:10217000909194038530910510F4019602C085E09A
:1021800090E090939403809393034AE0BE016F5EC6
:102190007F4F80919303909194030E94371C61EDCF
:1021A00071E0CE0141960E94F61CBE016F5E7F4F2A
:1021B00081E00E942D050C94231B83E00E94DD0228
:1021C000882349F180919303909194038230910583
:1021D00030F00197909394038093930304C010937D
:1021E0009403009393034AE0BE016F5E7F4F80919A
:1021F0009303909194030E94371C61ED71E0CE012E
:1022000041960E94F61CBE016F5E7F4F81E00E94E6
:102210002D050C94231B85E00E94DD02882341F1EB
:102220004AE0BE016F5E7F4F8091930390919403CB
:102230000E94371C61ED71E0CE0141960E94F61CB0
:10224000BE016F5E7F4F81E00E942D058091930358
:10225000909194039093E5038093E40383E190E0ED
:1022600090939903809398030E949D020C94231BE2
:1022700084E00E94DD02882339F10E94BE0360ECF5
:1022800071E080E00E942D054AE0BE016F5E7F4F45
:1022900080919303909194030E94371C61ED71E04B
:1022A000CE0141960E94F61CBE016F5E7F4F81E019
:1022B0000E942D058EE090E09093990380939803FF
:1022C0000E949D020C94231B64EF71E080E090E07B
:1022D0000E94A902882311F40C94231B82E190E050
:1022E00090939903809398036AE173E081E00E94E0
:1022F0002D050E949D020C94231B86E00E94DD02A6
:10230000882339F18091930390919403853091054E
:1023100010F4019602C085E090E0909394038093BE
:1023200093034AE0BE016F5E7F4F809193039091CB
:1023300094030E94371C61ED71E0CE0141960E942A
:10234000F61CBE016F5E7F4F81E00E942D050C944C
:10235000231B83E00E94DD02882349F180919303CF
:10236000909194038230910530F0019790939403FB
:102370008093930304C010939403009393034AE063
:10238000BE016F5E7F4F80919303909194030E94F2
:10239000371C61ED71E0CE0141960E94F61CBE0132
:1023A0006F5E7F4F81E00E942D050C94231B85E01A
:1023B0000E94DD02882341F14AE0BE016F5E7F4F3B
:1023C00080919303909194030E94371C61ED71E01A
:1023D000CE0141960E94F61CBE016F5E7F4F81E0E8
:1023E0000E942D0580919303909194039093E503AF
:1023F0008093E40383E190E09093990380939803A2
:102400000E949D020C94231B84E00E94DD0288231D
:1024100039F10E94BE0360EC71E080E00E942D055E
:102420004AE0BE016F5E7F4F8091930390919403C9
:102430000E94371C61ED71E0CE0141960E94F61CAE
:10244000BE016F5E7F4F81E00E942D058EE090E01F
:1024500090939903809398030E949D020C94231BF0
:1024600064EF71E080E090E00E94A902882311F4FB
:102470000C94231B4AE0BE016F5E7F4F8091930353
:10248000909194030E94371C61ED71E0CE0141965A
:102490000E94F61CBE016F5E7F4F81E00E942D05F9
:1024A00081E190E090939903809398030E949D02AC
:1024B0000C94231B64EF71E080E090E00E94A9027D
:1024C000882311F40C94231B0E94BE0366EE71E076
:1024D00080E00E942D05809188034AE0BE016F5E76
:1024E0007F4F90E00E94371C69E273E0CE01419675
:1024F0000E94F61CBE016F5E7F4F81E00E942D0599
:1025000084E190E090939903809398030E949D0248
:102510000C94231B86E00E94DD02882301F1809148
:1025200088038E3110F48F5F01C08EE180938803A1
:10253000809188034AE0BE016F5E7F4F90E00E9469
:10254000371C69E273E0CE0141960E94F61CBE0181
:102550006F5E7F4F81E00E942D050C94231B83E06A
:102560000E94DD02882301F180918803863010F0FB
:10257000815001C085E080938803809188034AE000
:10258000BE016F5E7F4F90E00E94371C69E273E0EE
:10259000CE0141960E94F61CBE016F5E7F4F81E026
:1025A0000E942D050C94231B85E00E94DD028823E8
:1025B00019F1809188034AE0BE016F5E7F4F90E081
:1025C0000E94371C69E273E0CE0141960E94F61C1E
:1025D000BE016F5E7F4F81E00E942D0580918803D0
:1025E0008093D90386E190E09093990380939803B8
:1025F0000E949D020C94231B84E00E94DD0288232C
:1026000031F10E94BE0365ED71E080E00E942D056E
:102610004AE0BE016F5E7F4F8091930390919403D7
:102620000E94371C69E273E0CE0141960E94F61CBD
:10263000BE016F5E7F4F81E00E942D0581E190E039
:1026400090939903809398030E949D02FCC764EFC6
:1026500071E080E090E00E94A902882309F4F3C7AA
:1026600085E190E090939903809398036AE173E089
:1026700081E00E942D050E949D02E5C786E00E9430
:10268000DD028823F9F0809188038E3110F48F5F8A
:1026900001C08EE180938803809188034AE0BE01E7
:1026A0006F5E7F4F90E00E94371C69E273E0CE01BD
:1026B00041960E94F61CBE016F5E7F4F81E00E9432
:1026C0002D05C1C783E00E94DD028823F9F08091C7
:1026D0008803863010F0815001C085E08093880324
:1026E000809188034AE0BE016F5E7F4F90E00E94B8
:1026F000371C69E273E0CE0141960E94F61CBE01D0
:102700006F5E7F4F81E00E942D059DC785E00E948E
:10271000DD02882311F1809188034AE0BE016F5EDB
:102720007F4F90E00E94371C69E273E0CE01419632
:102730000E94F61CBE016F5E7F4F81E00E942D0556
:10274000809188038093D90386E190E09093990368
:10275000809398030E949D0276C784E00E94DD0268
:10276000882331F10E94BE0365ED71E080E00E9494
:102770002D054AE0BE016F5E7F4F809193039091DB
:1027800094030E94371C69E273E0CE0141960E94D7
:10279000F61CBE016F5E7F4F81E00E942D0581E136
:1027A00090E090939903809398030E949D024BC7F9
:1027B00064EF71E080E090E00E94A902882309F4B0
:1027C00042C7809188034AE0BE016F5E7F4F90E070
:1027D0000E94371C69E273E0CE0141960E94F61C0C
:1027E000BE016F5E7F4F81E00E942D0584E190E085
:1027F00090939903809398030E949D0224C764EFED
:1028000071E080E090E00E94A902882309F41BC7D0
:102810000E94BE0367EF71E080E00E942D0568E032
:1028200072E0CE0141960E94F61C809187034AE037
:10283000BE016F5F7F4F90E00E94371CBE016F5F4B
:102840007F4FCE0141960E94F61C69E273E0CE01F3
:1028500041960E94F61CBE016F5E7F4F81E00E9490
:102860002D0587E190E090939903809398030E944F
:102870009D02E9C686E00E94DD02882361F1809115
:102880008703843010F48F5F01C084E08093870356
:1028900068E072E0CE0141960E94F61C80918703A9
:1028A0004AE0BE016F5F7F4F90E00E94371CBE017F
:1028B0006F5F7F4FCE0141960E94F61C69E273E084
:1028C000CE0141960E94F61CBE016F5E7F4F81E0F3
:1028D0000E942D05B8C683E00E94DD02882361F1C5
:1028E00080918703823010F0815001C081E0809395
:1028F000870368E072E0CE0141960E94F61C809149
:1029000087034AE0BE016F5F7F4F90E00E94371C53
:10291000BE016F5F7F4FCE0141960E94F61C69E2B7
:1029200073E0CE0141960E94F61CBE016F5E7F4FA0
:1029300081E00E942D0587C685E00E94DD02882384
:1029400079F168E072E0CE0141960E94F61C809118
:1029500087034AE0BE016F5F7F4F90E00E94371C03
:10296000BE016F5F7F4FCE0141960E94F61C69E267
:1029700073E0CE0141960E94F61CBE016F5E7F4F50
:1029800081E00E942D05809187038093D80389E11F
:1029900090E090939903809398030E949D0253C600
:1029A00084E00E94DD02882329F10E94BE0366EEC6
:1029B00071E080E00E942D05809188034AE0BE010D
:1029C0006F5E7F4F90E00E94371C69E273E0CE019A
:1029D00041960E94F61CBE016F5E7F4F81E00E940F
:1029E0002D0584E190E090939903809398030E94D1
:1029F0009D0229C664EF71E080E090E00E94A90288
:102A0000882309F420C688E190E09093990380938D
:102A100098036AE173E081E00E942D050E949D0207
:102A200012C686E00E94DD02882361F1809187034F
:102A3000843010F48F5F01C084E08093870368E0E6
:102A400072E0CE0141960E94F61C809187034AE015
:102A5000BE016F5F7F4F90E00E94371CBE016F5F29
:102A60007F4FCE0141960E94F61C69E273E0CE01D1
:102A700041960E94F61CBE016F5E7F4F81E00E946E
:102A80002D05E1C583E00E94DD02882361F180917C
:102A90008703823010F0815001C081E0809387036A
:102AA00068E072E0CE0141960E94F61C8091870397
:102AB0004AE0BE016F5F7F4F90E00E94371CBE016D
:102AC0006F5F7F4FCE0141960E94F61C69E273E072
:102AD000CE0141960E94F61CBE016F5E7F4F81E0E1
:102AE0000E942D05B0C585E00E94DD02882379F1A2
:102AF00068E072E0CE0141960E94F61C8091870347
:102B00004AE0BE016F5F7F4F90E00E94371CBE011C
:102B10006F5F7F4FCE0141960E94F61C69E273E021
:102B2000CE0141960E94F61CBE016F5E7F4F81E090
:102B30000E942D05809187038093D80389E190E05E
:102B400090939903809398030E949D027CC584E032
:102B50000E94DD02882329F10E94BE0366EE71E027
:102B600080E00E942D05809188034AE0BE016F5EDF
:102B70007F4F90E00E94371C69E273E0CE014196DE
:102B80000E94F61CBE016F5E7F4F81E00E942D0502
:102B900084E190E090939903809398030E949D02B2
:102BA00052C564EF71E080E090E00E94A9028823A2
:102BB00009F449C568E072E0CE0141960E94F61C16
:102BC000809187034AE0BE016F5F7F4F90E00E94D3
:102BD000371CBE016F5F7F4FCE0141960E94F61CED
:102BE00069E273E0CE0141960E94F61CBE016F5E61
:102BF0007F4F81E00E942D0587E190E0909399033B
:102C0000809398030E949D021EC564EF71E080E0EE
:102C100090E00E94A902882309F415C50E94BE0312
:102C20006BE072E080E00E942D054AE0BE016F5E1D
:102C30007F4F80918D0390918E030E94371C65EA2F
:102C400071E0CE0141960E94F61CBE016F5E7F4F7F
:102C500081E00E942D058AE190E090939903809392
:102C600098030E949D02EFC486E00E94DD02882343
:102C700031F180918D0390918E038733910510F48B
:102C8000019602C087E390E090938E0380938D03BA
:102C90004AE0BE016F5E7F4F80918D0390918E035D
:102CA0000E94371C65EA71E0CE0141960E94F61C35
:102CB000BE016F5E7F4F81E00E942D05C4C483E09A
:102CC0000E94DD02882359F180918D0390918E033B
:102CD0008432910530F0019790938E0380938D0399
:102CE00007C033E2432E512C50928E0340928D0345
:102CF0004AE0BE016F5E7F4F80918D0390918E03FD
:102D00000E94371C65EA71E0CE0141960E94F61CD4
:102D1000BE016F5E7F4F81E00E942D0594C485E067
:102D20000E94DD02882339F14AE0BE016F5E7F4FC9
:102D300080918D0390918E030E94371C65EA71E0AB
:102D4000CE0141960E94F61CBE016F5E7F4F81E06E
:102D50000E942D0580918D0390918E039093DF0347
:102D60008093DE038CE190E0909399038093980325
:102D70000E949D0268C484E00E94DD02882391F1D4
:102D80000E94BE0367EF71E080E00E942D0568E0BD
:102D900072E0CE0141960E94F61C809187034AE0C2
:102DA000BE016F5F7F4F90E00E94371CBE016F5FD6
:102DB0007F4FCE0141960E94F61C69E273E0CE017E
:102DC00041960E94F61CBE016F5E7F4F81E00E941B
:102DD0002D0587E190E090939903809398030E94DA
:102DE0009D0231C464EF71E080E090E00E94A9028E
:102DF000882309F428C48BE190E090939903809391
:102E000098036AE173E081E00E942D050E949D0213
:102E10001AC486E00E94DD02882331F180918D037F
:102E200090918E038733910510F4019602C087E3D9
:102E300090E090938E0380938D034AE0BE016F5E15
:102E40007F4F80918D0390918E030E94371C65EA1D
:102E500071E0CE0141960E94F61CBE016F5E7F4F6D
:102E600081E00E942D05EFC383E00E94DD028823EC
:102E700051F180918D0390918E038432910530F051
:102E8000019790938E0380938D0306C023E230E078
:102E900030938E0320938D034AE0BE016F5E7F4F17
:102EA00080918D0390918E030E94371C65EA71E03A
:102EB000CE0141960E94F61CBE016F5E7F4F81E0FD
:102EC0000E942D05C0C385E00E94DD02882339F1F0
:102ED0004AE0BE016F5E7F4F80918D0390918E031B
:102EE0000E94371C65EA71E0CE0141960E94F61CF3
:102EF000BE016F5E7F4F81E00E942D0580918D03A2
:102F000090918E039093DF038093DE038CE190E039
:102F100090939903809398030E949D0294C384E048
:102F20000E94DD02882391F10E94BE0367EF71E0E9
:102F300080E00E942D0568E072E0CE0141960E947B
:102F4000F61C809187034AE0BE016F5F7F4F90E0DF
:102F50000E94371CBE016F5F7F4FCE0141960E94D9
:102F6000F61C69E273E0CE0141960E94F61CBE0198
:102F70006F5E7F4F81E00E942D0587E190E0909386
:102F80009903809398030E949D025DC364EF71E0F2
:102F900080E090E00E94A902882309F454C34AE02B
:102FA000BE016F5E7F4F80918D0390918E030E94D2
:102FB000371C65EA71E0CE0141960E94F61CBE0105
:102FC0006F5E7F4F81E00E942D058AE190E0909333
:102FD0009903809398030E949D0235C364EF71E0CA
:102FE00080E090E00E94A902882309F42CC30E948B
:102FF000BE036CE172E080E00E942D058091970392
:103000004AE0BE016F5E7F4F082E000C990B0E94B4
:10301000371C69E273E0CE0141960E94F61CBE01A6
:103020006F5E7F4F81E00E942D058DE190E09093CF
:103030009903809398030E949D0205C386E00E9435
:10304000DD02882311F18091970387FF04C08F5F11
:103050008093970302C010929703809197034AE0F0
:10306000BE016F5E7F4F082E000C990B0E94371C2B
:1030700069E273E0CE0141960E94F61CBE016F5ECC
:103080007F4F81E00E942D05DEC283E00E94DD02B9
:10309000882309F180919703813F14F0815001C08A
:1030A00080EF80939703809197034AE0BE016F5EA3
:1030B0007F4F082E000C990B0E94371C69E273E0C9
:1030C000CE0141960E94F61CBE016F5E7F4F81E0EB
:1030D0000E942D05B8C285E00E94DD02882321F1FF
:1030E000809197034AE0BE016F5E7F4F082E000C6F
:1030F000990B0E94371C69E273E0CE0141960E9451
:10310000F61CBE016F5E7F4F81E00E942D0580910D
:1031100097038093E8038FE190E090939903809365
:1031200098030E949D028FC284E00E94DD028823E2
:1031300031F10E94BE036BE072E080E00E942D0539
:103140004AE0BE016F5E7F4F80918D0390918E03A8
:103150000E94371C65EA71E0CE0141960E94F61C80
:10316000BE016F5E7F4F81E00E942D058AE190E0F5
:1031700090939903809398030E949D0264C264EF28
:1031800071E080E090E00E94A902882309F45BC20C
:103190008EE190E090939903809398036AE173E045
:1031A00081E00E942D050E949D024DC286E00E9492
:1031B000DD02882311F18091970387FF04C08F5FA0
:1031C0008093970302C010929703809197034AE07F
:1031D000BE016F5E7F4F082E000C990B0E94371CBA
:1031E00069E273E0CE0141960E94F61CBE016F5E5B
:1031F0007F4F81E00E942D0526C283E00E94DD0200
:10320000882309F180919703813F14F0815001C018
:1032100080EF80939703809197034AE0BE016F5E31
:103220007F4F082E000C990B0E94371C69E273E057
:10323000CE0141960E94F61CBE016F5E7F4F81E079
:103240000E942D0500C285E00E94DD02882321F145
:10325000809197034AE0BE016F5E7F4F082E000CFD
:10326000990B0E94371C69E273E0CE0141960E94DF
:10327000F61CBE016F5E7F4F81E00E942D0580919C
:1032800097038093E8038FE190E0909399038093F4
:1032900098030E949D02D7C184E00E94DD0288232A
:1032A00031F10E94BE036BE072E080E00E942D05C8
:1032B0004AE0BE016F5E7F4F80918D0390918E0337
:1032C0000E94371C65EA71E0CE0141960E94F61C0F
:1032D000BE016F5E7F4F81E00E942D058AE190E084
:1032E00090939903809398030E949D02ACC164EF70
:1032F00071E080E090E00E94A902882309F4A3C154
:10330000809197034AE0BE016F5E7F4F082E000C4C
:10331000990B0E94371C69E273E0CE0141960E942E
:10332000F61CBE016F5E7F4F81E00E942D05EDE12E
:10333000F0E0F0939903E09398030E949D0283C10B
:1033400064EF71E080E090E00E94A902882309F414
:103350007AC10E94BE036DE272E080E00E942D05FA
:103360006EE372E081E00E942D05BE016F5E7F4F2B
:1033700081E00E942D0520E2222E312C309299030B
:103380002092980360C1809187038093D803809135
:103390008D0390918E039093DF038093DE038091E1
:1033A00088038093D9038091910390919203909325
:1033B000E3038093E203809197038093E803809175
:1033C0009303909194039093E5038093E40364EF57
:1033D00071E080E090E00E94A902882309F433C1E3
:1033E0000E94BE038091D703813019F46DE272E030
:1033F00002C06FE472E080E00E942D056EE372E08F
:1034000081E00E942D05BE016F5E7F4F81E00E942A
:103410002D0590E2492E512C509299034092980329
:1034200012C185E00E94DD02882309F4BCC081E05E
:103430008093D60322E230E03093990320939803DF
:103440000E94BE0360E672E080E00E942D0567E600
:1034500072E081E00E942D050E949D0267E772E004
:1034600089E095E00E9443028091D703813049F0C2
:1034700028F0823019F587EC92E012C08CE892E0D7
:103480000FC089EA92E00E94D00561EB72E089E00A
:1034900095E00E9443028091DC039091DD030CC013
:1034A0000E94D00564E972E089E095E00E94430241
:1034B0008091E2039091E3030E94BC0562ED72E00B
:1034C00089E095E00E9443028091E4039091E50336
:1034D0000E94BC0568EE72E089E095E00E9443021C
:1034E0008091E4039091E5030E94BC056EEF72E0C9
:1034F00089E095E00E9443026091D90370E080E08A
:1035000090E04AE00E94790563E173E089E095E08C
:103510000E942E0266E173E089E095E00E9443027A
:103520006091D80370E080E090E04AE00E94790565
:1035300063E173E089E095E00E942E026BE273E0A4
:1035400089E095E00E9443028091DE039091DF03C1
:103550000E94BC0562E473E089E095E00E944302AA
:103560002090E803022C000C33084408550857FE4D
:103570000EC06DE289E095E00E944301662777273F
:10358000CB0162197309840995094AE003C04AE036
:10359000C201B1010E94790563E173E089E095E021
:1035A0000E942E0250C084E00E94DD02882309F4AC
:1035B0004AC00E94BE036CE172E080E00E942D05CB
:1035C000809197034AE0BE016F5E7F4F082E000C8A
:1035D000990B0E94371C69E273E0CE0141960E946C
:1035E000F61CBE016F5E7F4F81E00E942D058DE1CC
:1035F00090E090939903809398030E949D0223C0CA
:1036000082E00E94DD028823F1F0E3E2F0E0F09333
:103610009903E09398030E949D0215C082E00E94E6
:10362000DD0280915A03882309F476C068E873E1CB
:1036300080E090E00E94A90281116BC004C010924A
:103640009903109298030E94D7062091E9033091C4
:10365000EA034091EB035091EC03DC01CB01821BA8
:10366000930BA40BB50B893C9105A105B10550F056
:103670000E94D7066093E9037093EA038093EB03FB
:103680009093EC030E94D7062091EF033091F00352
:103690004091F1035091F2031B012C01221A330ACD
:1036A000440A550AE4EF2E16E1E03E0641045104B7
:1036B000E0F06093EF037093F0038093F103909335
:1036C000F2038091ED039091EE03892B29F410937E
:1036D000EE030093ED0304C01092EE031092ED038D
:1036E0006091ED038DE00E940C060E94B2010C94E3
:1036F000DA071093A1030093A0030E94D7066093FA
:103700009C0370939D0380939E0390939F030C945E
:103710005A080E94880497CF82E2282E312C3092DA
:103720009903209298038FCFCF93DF9310920C05CB
:1037300010920B0588EE93E0A0E0B0E080930D05B9
:1037400090930E05A0930F05B09310058CE091E0C7
:1037500090930A058093090585EC90E090931605F7
:103760008093150584EC90E09093180580931705DD
:1037700080EC90E090931A058093190581EC90E01D
:1037800090931C0580931B0582EC90E090931E059E
:1037900080931D0586EC90E09093200580931F0593
:1037A00010922205109223051092240510922505EF
:1037B0001092A9051092A8058EE191E09093A705BB
:1037C0008093A6058DE28093B1058FEF8093B205BB
:1037D0008CE28093B3058BE28093B4058AE28093F8
:1037E000B50589E28093B60588E28093B70510920B
:1037F000B8051092B9051092BA051092BB05C4EB3A
:10380000D5E061E089910E94760685E0C83BD80743
:10381000C1F761E08091B1050E9476068091B20502
:103820008F3F19F061E00E94760661E08091B30558
:103830000E9476061092AA0560E08091B1050E9470
:103840000C0660E08091B3050E940C068091B205E1
:103850008F3F19F060E00E940C068FEF8093BC054B
:103860001092B0051092AF05DF91CF910895BB275C
:103870004A3031F4992322F4BDE2909581959F4F0F
:103880000C94431CBB27FB015527AA27880F991FBF
:10389000AA1FA41710F0A41B83955051B9F7A05D7F
:1038A000AA3308F0A95DA193009779F7B111B193FC
:1038B0001192CB010C945C1CDC01FC01672F71910F
:1038C0007723E1F7329704C07C916D937083629106
:1038D000AE17BF07C8F30895052E97FB1EF400949A
:1038E0000E94831C57FD07D00E948B1C07FC03D04D
:1038F0004EF40C94831C50954095309521953F4F84
:103900004F4F5F4F089590958095709561957F4FCB
:103910008F4F9F4F0895A1E21A2EAA1BBB1BFD01DA
:103920000DC0AA1FBB1FEE1FFF1FA217B307E4079E
:10393000F50720F0A21BB30BE40BF50B661F771FF6
:10394000881F991F1A9469F76095709580959095D6
:103950009B01AC01BD01CF010895A29FB001B39FAF
:10396000C001A39F700D811D1124911DB29F700D88
:10397000811D1124911D089597FB072E16F40094C4
:1039800007D077FD09D00E94DD1C07FC05D03EF46E
:10399000909581959F4F0895709561957F4F0895FB
:1039A000EE0FFF1F0590F491E02D09940E94AD1CCD
:1039B000B7FF0895821B930B0895AA1BBB1B51E10F
:1039C00007C0AA1FBB1FA617B70710F0A61BB70B8F
:1039D000881F991F5A95A9F780959095BC01CD0134
:1039E000089581E090E0F8940C94011DFB01DC0146
:1039F0000D900020E9F7119701900D920020E1F75A
:063A00000895F894FFCFC9
:103A06000040145400401050000000004301B00074
:103A1600DA0090010B01E900FD0000000000BC0186
:103A2600B000CA01C901C803CF01EB01FF0153650C
:103A36006C656363696F6E6172204D6F646F0041E0
:103A460075746F6D617469636F20202020202000DB
:103A560050726573696F6E20202020202020202060
:103A660000566F6C756D656E20202020202020206A
:103A760020005245535049524F4E452020202020C9
:103A860020200050726573696F6E65204D656E75F6
:103A960020202000504120202020202020202020EF
:103AA6002020202000636D2E48324F00564F4C20B8
:103AB600544944202020202020202020006D6C0026
:103AC600564D4D2020202020202020202020202060
:103AD600004C2F6D00564D6D2020202020202020E8
:103AE60020202020200052504D2020202020202061
:103AF60020202020202000493A4520202020202078
:103B06002020202020202000313A00504D617820CE
:103B16002020202020202020202020005472502009
:103B260020202020202020202020202000436F6EEF
:103B36006669726D61722020202020202000534982
:103B46003A456E7465722C4E4F3A4261636B004380
:103B56006F6E6669726D6172204175746F20200008
:103B6600544F20444F3A0053484F5720504152413A
:103B76004D4554455253004D4F444F3A2020202086
:103B8600202020202020202020202000564F4C5589
:103B96004D454E00566F6C756D656E2054696461B7
:103BA6006C3A2020202020200050524553494F4E89
:103BB600005072657369C3B36E20416A7573746190
:103BC60064613A202020004155544F4D41544943E9
:103BD6004F00566F6C756D656E206D696E75746FEE
:103BE600204DC3A1783A2000566F6C756D656E2026
:103BF6006D696E75746F206DC3AD6E3A20005250BC
:103C06004D3A202020202020202020202020202067
:103C16002020000D0A00493A453A20202020202085
:103C2600202020202020202020200050726573694B
:103C3600C3B36E204DC3A1783A2020202020202037
:103C460020005472503A20202020202020202020BE
:083C56002020202020200000A6
:00000001FF
