:100000000C9465040C941E2F0C94F32E0C94C82EA3
:100010000C949D2E0C94722E0C94472E0C941C2E36
:100020000C94F12D0C9496040C9496040C94960464
:100030000C9496040C94D62F0C9496040C9496046D
:100040000C9496040C9496040C9496040C949604C8
:100050000C9496040C9496040C9496040C948D2D98
:100060000C9496040C94E0460C94B6460C949604BA
:100070000C9496040C9496040C9496040C94960498
:100080000C9496040C9496040C9496040C94960488
:100090000C9496040C9496040C9496040C94824749
:1000A0000C9496040C9496040C9496040C94960468
:1000B0000C9496040C9496040C9496040C94960458
:1000C0000C9496040C9496040C9496040C94960448
:1000D0000C9496040C9496040C9496040C94960438
:1000E0000C949604B404620514060C05BB05700656
:1000F000CC0639090C0AF50A3D071208FD08310B38
:10010000590C970DD30DC20EC70FFE0FCC10AC11BA
:10011000E311B0128F13C61393147215A915761636
:1001200055178C1755182D196619491A421B7B1B38
:10013000621C5F1D961D661E4A1F9F1F6F1F652450
:1001400031247924312431243124312431243124BF
:1001500031243124312431243124312431243124F7
:1001600031243124312431243124572431243124C1
:1001700031243124312431243124312431243124D7
:100180004C245E243124312431243124312431247F
:100190003124532431243124312431243124312495
:1001A0003124312431243124312457243124312481
:1001B0003124312431243124312431243124312497
:1001C0004C245E243124312431243124312431243F
:1001D000B22453243124312431249B245B295F2908
:1001E00049294F295529A429632969296F29752986
:1001F0007B29812987298D29A429932999299F2938
:100200006E2C732C782C822C8C2C032D962C9E2CEF
:10021000A62CB02CBA2CC42CD12CDB2C032DE52C15
:10022000EF2CF92C9B2FA52F602F6A2F782F882F6A
:10023000B32FC32FFF376F38F4384D39A239F63951
:10024000493A9F3A2C3B663FBB3FE53F0540434060
:10025000FD4012413F416C418C4890489048904885
:100260009048904890489048A447904890489048BB
:100270009048904890489048A447904890489048AB
:100280009048904890489048AC4790489048904893
:100290009048904890489048D2479048904890485D
:1002A0009048904890489048AC4790489048904873
:1002B0009048904890489048D84790489048904837
:1002C0009048904890489048DE4790489048904821
:1002D0009048904890489048F047904890489048FF
:1002E00090489048904890481A48904890489048C4
:1002F0009048904890489048E447904890489048EB
:100300009048904890489048FE47904890489048C0
:1003100090489048904890481D4890489048904890
:1003200090489048904890481D4890489048904880
:1003300090489048904890481D4890489048904870
:1003400090489048904890481D4890489048904860
:100350009048904890489048264890489048904847
:100360009048904890489048554890489048904808
:100370009048904890489048264890489048904827
:1003800090489048904890485548904890489048E8
:1003900090489048904890483E48904890489048EF
:1003A00090489048904890485948904890489048C4
:1003B00090489048904890485948904890489048B4
:1003C00090489048904890486C4890489048904891
:1003D0009048904890489048864890489048904867
:1003E000904890489048904886488C501B519750B0
:1003F000EE503752F752DB531954DB540C94390941
:100400000C949E2C0C94AC110C9437520C94FE0F4F
:100410000C94970D0C943D070C942D190C946A2F95
:100420000C9430440C94782F0C944A1F0C948F1326
:100430000C9493140C94B4040C9464440C94A62C63
:100440000C94C70F0C94EF2C0C9497500C941B51E8
:100450000C94E9210C946E2C0C946F380C94EE5093
:100460000C9431210C94B02C0C94D8470C94072395
:100470000C9470060C9455290C94FE470C94D30DE3
:100480000C941D480C94BB280C94D4450C941D204E
:100490000C9431240C9443400C940C050C94663F4E
:1004A0000C9412080C949B240C94EC210C94692954
:1004B0000C947B1B0C9405400C94DB530C946C48FF
:1004C0000C9487290C94EA210C9400440C94A447C2
:1004D0000C946D2B0C943E480C94621C0C9442447A
:1004E0000C94661E0C94C7450C94882F0C94310B09
:1004F0000C946F290C94F0470C9457240C947616A6
:100500000C94D12C0C947B290C94782C0C946220A4
:100510000C94A4290C945F290C94C20E0C94A6444C
:100520000C948C170C945B290C948D290C94590C09
:100530000C94F50A0C94E4470C9414060C94A72030
:100540000C9493290C948C500C945E240C943F4191
:100550000C94AC470C949F3A0C94DB540C940C0A0A
:100560000C946B2B0C94A2390C9475290C94F752B3
:100570000C94EB210C945F1D0C9459480C94CC10F6
:100580000C9490480C94C6130C94421B0C94491A7A
:100590000C942E2A0C944F290C94E52C0C94532483
:1005A0000C941A480C9466190C94493A0C94FD402A
:1005B0000C94822C0C94A52F0C94EE220C949F2961
:1005C0000C940A450C9426480C94DE470C94F6399A
:1005D0000C9455180C94BD450C9456440C94FD088D
:1005E0000C9455170C94961D0C9479240C948C2C17
:1005F0000C94EC200C9449290C946C410C94B2247A
:100600000C9476210C94BA450C9465240C9486487D
:100610000C9455480C94E3110C948C480C94032DC5
:100620000C94BB210C949F1F0C94F4380C94FF374E
:100630000C94BB050C946F1F0C94C32F0C94C42C0A
:100640000C94C0450C9462050C9472150C941954CA
:100650000C9481290C94BB3F0C9412410C94BA2C3D
:100660000C94A9150C94962C0C94D2470C944D39EB
:100670000C9414240C94B32F0C942C3B0C94602FEA
:100680000C94CC060C94F92C0C94E53F0C944C245F
:100690000C9499290C94732C0C9463290C94DB2CE6
:1006A0000C949B2F0C94B9450C94B01200407A1016
:1006B000F35A00A0724E18090010A5D4E80000E813
:1006C0007648170000E40B54020000CA9A3B000071
:1006D00000E1F505000080969800000040420F0000
:1006E0000000A08601000000102700000000E803C1
:1006F000000000006400000000000A00000000008C
:100700000100000000002C76D888DC674F0823DF4A
:10071000C1DFAE59E1B1B796E5E3E453C63AE6511D
:10072000997696E8E6C28426EB898C9B62ED407C44
:100730006FFCEFBC9C9F40F2BAA56FA5F490055AE0
:100740002AF75C936B6CF9676DC11BFCE0E40D4705
:10075000FEF520E6B500D0ED902E03009435770528
:100760000080841E080000204E0A000000C80C33E0
:100770003333330F986E12831141EF8D2114893B6F
:10078000E65516CFFEE6DB18D1844B381BF77C1DEF
:10079000901DA4BBE424203284725E228100C9F142
:1007A00024ECA1E53D270200002100240027002AB7
:1007B000002D003000330001010000040107010A90
:1007C0000100002200250028002B002E00310034FB
:1007D0000002010000050108010B010000200023B8
:1007E00000260029002C002F003200000100000329
:1007F00001060109010505050507050808080802A5
:100800000202020A0A0808040404040101010101A9
:100810000101010303030303030303040707070C98
:100820000C0C0C0C0C0C0C0202020206060606064E
:100830000606060B0B0B0B0B0B0B0B0102102020FB
:100840000808102040102040800201020108040224
:10085000010102040810204080804020100804029A
:1008600001800402018040201008040201080402F3
:1008700001010204081020408001020408102040F9
:100880008000000A0B02090C0D0E0807030401008A
:100890000000000000000000000000000000000058
:1008A0000000000000000000000000000012111015
:1008B0000000000000000000000000000000000038
:1008C00000000000000000006D2B11241FBECFEFC0
:1008D000D1E2DEBFCDBF00E00CBF16E0A0E0B2E089
:1008E000E4E2F9EC00E00BBF02C007900D92A83AD9
:1008F000B107D9F72DE0A8EAB6E001C01D92AB32EE
:10090000B207E1F714E0C5E6D4E000E006C02197A5
:100910000109802FFE010E940062C436D10780E0E9
:100920000807A9F70E94E82D0C9490640C9400002D
:100930000F931F93CF93DF93CDB7DEB760970FB6BA
:10094000F894DEBF0FBECDBF1982E091A806F091EA
:10095000A906ED32F10510F00C940E208827EE5810
:10096000FF4F8F4F0C9400628CE20E94DB4988237A
:1009700071F046EB53E061E080E00E94A14A81E023
:1009800090E09093A9068093A8060C9412208AE226
:100990000E94DB49882371F046EB53E061E080E080
:1009A0000E94A14A81E090E09093A9068093A80656
:1009B0000C94122086E20E94DB49882381F082E0B9
:1009C0008093F4068CE290E09093A9068093A806A9
:1009D00060E070E0CB010E94A4490C94122064EF07
:1009E00071E080E090E00E94A449882311F40C9407
:1009F000122083E090E09093A9068093A80647EC2C
:100A000053E061E080E00E94A14A60E070E0CB0129
:100A10000E94A4490C9412208CE20E94DB49882396
:100A200071F046EB53E061E080E00E94A14A81E072
:100A300090E09093A9068093A8060C9412208AE275
:100A40000E94DB49882371F046EB53E061E080E0CF
:100A50000E94A14A81E090E09093A9068093A806A5
:100A60000C94122086E20E94DB49882381F082E008
:100A70008093F4068CE290E09093A9068093A806F8
:100A800060E070E0CB010E94A4490C9412206AEF50
:100A900070E080E090E00E94A449882311F40C9457
:100AA000122048ED53E061E080E00E94A14A1092DC
:100AB000A9061092A80660E070E0CB010E94A4494C
:100AC0000C9412208CE20E94DB49882361F048EDEF
:100AD00053E061E080E00E94A14A1092A9061092C2
:100AE000A8060C9412208AE20E94DB49882361F058
:100AF00048ED53E061E080E00E94A14A1092A9060F
:100B00001092A8060C94122086E20E94DB498823EA
:100B1000A9F046EB53E061E080E00E94A14A109208
:100B2000F40686E090E09093A9068093A80660E022
:100B300070E0CB010E94A4490C94122064EF71E094
:100B400080E090E00E94A449882311F40C941220C4
:100B500084E090E09093A9068093A80647EC53E0C8
:100B600061E080E00E94A14A60E070E0CB010E9459
:100B7000A4490C9412208CE20E94DB49882361F086
:100B800048ED53E061E080E00E94A14A1092A9067E
:100B90001092A8060C9412208AE20E94DB49882356
:100BA00061F048ED53E061E080E00E94A14A1092BC
:100BB000A9061092A8060C94122086E20E94DB4936
:100BC0008823A9F046EB53E061E080E00E94A14A4F
:100BD0001092F40686E090E09093A9068093A80610
:100BE00060E070E0CB010E94A4490C9412206AEFEF
:100BF00070E080E090E00E94A449882311F40C94F6
:100C0000122081E090E09093A9068093A80646EB1D
:100C100053E061E080E00E94A14A60E070E0CB0117
:100C20000E94A4490C9412208CE20E94DB49882384
:100C300071F046EB53E061E080E00E94A14A81E060
:100C400090E09093A9068093A8060C9412208AE263
:100C50000E94DB49882361F048ED53E061E080E0C9
:100C60000E94A14A1092A9061092A8060C94122084
:100C700086E20E94DB498823B1F049EE53E061E04F
:100C800080E00E94A14A81E08093F40686E090E033
:100C90009093A9068093A80660E070E0CB010E94C3
:100CA000A4490C94122064EF71E080E090E00E946F
:100CB000A449882311F40C94122085E090E09093CD
:100CC000A9068093A80647EC53E061E080E00E940B
:100CD000A14A60E070E0CB010E94A4490C9412206C
:100CE0008CE20E94DB49882371F046EB53E061E01F
:100CF00080E00E94A14A81E090E09093A906809351
:100D0000A8060C9412208AE20E94DB49882361F035
:100D100048ED53E061E080E00E94A14A1092A906EC
:100D20001092A8060C94122086E20E94DB498823C8
:100D3000B1F049EE53E061E080E00E94A14A81E019
:100D40008093F40686E090E09093A9068093A8062D
:100D500060E070E0CB010E94A4490C9412206AEF7D
:100D600070E080E090E00E94A449882311F40C9484
:100D7000122082E090E09093A9068093A80649EEA5
:100D800053E061E080E00E94A14A60E070E0CB01A6
:100D90000E94A4490C94122064EF71E080E090E07E
:100DA0000E94A449882311F40C9412208091F40627
:100DB000813089F50E94914A4AEF53E060E080E07B
:100DC0000E94A14A4AE08E010F5F1F4FB801809137
:100DD000FA069091FB060E94115FD8010D90002049
:100DE000E9F7119787E0EBE0F4E001900D928A9526
:100DF000E1F7A80161E080E00E94A14A8AE090E06A
:100E00009093A9068093A80660E070E0CB010E9451
:100E1000A4490C94122081110C9412200E94914A32
:100E200042E154E060E080E00E94A14A4AE08E0185
:100E30000F5F1F4FB80180910007909101070E943A
:100E4000115FF80101900020E9F731978DE69CE6EB
:100E5000918380831282A80161E080E00E94A14A10
:100E600087E090E09093A9068093A80660E070E088
:100E7000CB010E94A4490C9412208CE20E94DB4911
:100E8000882389F18091FA069091FB0688329105BA
:100E900030F401969093FB068093FA0606C088E230
:100EA00090E09093FB068093FA064AE08E010F5F74
:100EB0001F4FB8018091FA069091FB060E94115FC6
:100EC000D8010D900020E9F7119787E0EBE0F4E0FE
:100ED00001900D928A95E1F7A80161E080E00E94FF
:100EE000A14A0C9412208AE20E94DB49882389F1EE
:100EF0008091FA069091FB068630910530F00197BB
:100F00009093FB068093FA0606C085E090E09093EC
:100F1000FB068093FA064AE08E010F5F1F4FB8016F
:100F20008091FA069091FB060E94115FD8010D9006
:100F30000020E9F7119787E0EBE0F4E001900D92D3
:100F40008A95E1F7A80161E080E00E94A14A0C9433
:100F5000122086E20E94DB49882349F14AE08E0193
:100F60000F5F1F4FB8018091FA069091FB060E9417
:100F7000115FD8010D900020E9F7119787E0EBE0B1
:100F8000F4E001900D928A95E1F7A80161E080E01C
:100F90000E94A14A8CE090E09093A9068093A80655
:100FA00060E070E0CB010E94A4490C9412208EE214
:100FB0000E94DB498823C9F00E94914A43E254E031
:100FC00060E080E00E94A14A48ED53E061E080E0EB
:100FD0000E94A14A1092A9061092A80660E070E053
:100FE000CB010E94A4490C94122064EF71E080E0D0
:100FF00090E00E94A449882311F40C9412208BE005
:1010000090E09093A9068093A80647EC53E061E036
:1010100080E00E94A14A60E070E0CB010E94A449F8
:101020000C9412208CE20E94DB49882389F1809184
:10103000FA069091FB068832910530F40196909360
:10104000FB068093FA0606C088E290E09093FB06C8
:101050008093FA064AE08E010F5F1F4FB80180911E
:10106000FA069091FB060E94115FD8010D900020B6
:10107000E9F7119787E0EBE0F4E001900D928A9593
:10108000E1F7A80161E080E00E94A14A0C941220DF
:101090008AE20E94DB49882389F18091FA069091C7
:1010A000FB068630910530F001979093FB06809304
:1010B000FA0606C085E090E09093FB068093FA065E
:1010C0004AE08E010F5F1F4FB8018091FA069091A0
:1010D000FB060E94115FD8010D900020E9F71197DF
:1010E00087E0EBE0F4E001900D928A95E1F7A8012A
:1010F00061E080E00E94A14A0C94122086E20E94E6
:10110000DB49882349F14AE08E010F5F1F4FB80188
:101110008091FA069091FB060E94115FD8010D9014
:101120000020E9F7119787E0EBE0F4E001900D92E1
:101130008A95E1F7A80161E080E00E94A14A8CE075
:1011400090E09093A9068093A80660E070E0CB0140
:101150000E94A4490C9412208EE20E94DB4988234D
:10116000C9F00E94914A43E254E060E080E00E94AE
:10117000A14A48ED53E061E080E00E94A14A10924C
:10118000A9061092A80660E070E0CB010E94A44975
:101190000C9412206AEF70E080E090E00E94A44975
:1011A000882311F40C9412204AE08E010F5F1F4F28
:1011B000B8018091FA069091FB060E94115FD80158
:1011C0000D900020E9F7119787E0EBE0F4E0019043
:1011D0000D928A95E1F7A80161E080E00E94A14AA2
:1011E0008AE090E09093A9068093A80660E070E002
:1011F000CB010E94A4490C94122064EF71E080E0BE
:1012000090E00E94A449882311F40C9412200E94BB
:10121000914A44E354E060E080E00E94A14A4AE041
:101220008E010F5F1F4FB801809102079091030755
:101230000E94115FF80101900020E9F731978CE4DA
:101240009FE2918380838DE690E093838283A8015F
:1012500061E080E00E94A14A8DE090E09093A906B1
:101260008093A80660E070E0CB010E94A4490C9432
:1012700012208CE20E94DB49882381F180910007D3
:1012800090910107803223E0920730F4C296909348
:1012900001078093000706C080E293E09093010766
:1012A000809300074AE08E010F5F1F4FB8018091C5
:1012B0000007909101070E94115FF8010190002042
:1012C000E9F731978DE69CE6918380831282A8012D
:1012D00061E080E00E94A14A0C9412208AE20E9400
:1012E000DB49882381F180910007909101078D32BD
:1012F00021E0920730F0C297909301078093000796
:1013000006C08CE291E090930107809300074AE0C9
:101310008E010F5F1F4FB801809100079091010768
:101320000E94115FF80101900020E9F731978DE6E6
:101330009CE6918380831282A80161E080E00E9494
:10134000A14A0C94122086E20E94DB49882349F1CD
:101350004AE08E010F5F1F4FB80180910007909106
:1013600001070E94115FD8010D900020E9F7119745
:1013700083E0E5E4F4E001900D928A95E1F7A8019D
:1013800061E080E00E94A14A89E090E09093A90684
:101390008093A80660E070E0CB010E94A4490C9401
:1013A00012208EE20E94DB498823C9F00E94914AF4
:1013B00043E254E060E080E00E94A14A48ED53E03F
:1013C00061E080E00E94A14A1092A9061092A8064E
:1013D00060E070E0CB010E94A4490C94122064EFFD
:1013E00071E080E090E00E94A449882311F40C94FD
:1013F000122088E090E09093A9068093A80647EC1D
:1014000053E061E080E00E94A14A60E070E0CB011F
:101410000E94A4490C9412208CE20E94DB4988238C
:1014200081F18091000790910107803223E09207BB
:1014300030F4C296909301078093000706C080E2C3
:1014400093E090930107809300074AE08E010F5FBD
:101450001F4FB80180910007909101070E94115F12
:10146000F80101900020E9F731978DE69CE6918321
:1014700080831282A80161E080E00E94A14A0C945E
:1014800012208AE20E94DB49882381F180910007C3
:10149000909101078D3221E0920730F0C29790932E
:1014A00001078093000706C08CE291E0909301074A
:1014B000809300074AE08E010F5F1F4FB8018091B3
:1014C0000007909101070E94115FF8010190002030
:1014D000E9F731978DE69CE6918380831282A8011B
:1014E00061E080E00E94A14A0C94122086E20E94F2
:1014F000DB49882349F14AE08E010F5F1F4FB80195
:1015000080910007909101070E94115FD8010D9012
:101510000020E9F7119783E0E5E4F4E001900D92F3
:101520008A95E1F7A80161E080E00E94A14A89E084
:1015300090E09093A9068093A80660E070E0CB014C
:101540000E94A4490C9412208EE20E94DB49882359
:10155000C9F00E94914A43E254E060E080E00E94BA
:10156000A14A48ED53E061E080E00E94A14A109258
:10157000A9061092A80660E070E0CB010E94A44981
:101580000C9412206AEF70E080E090E00E94A44981
:10159000882311F40C9412204AE08E010F5F1F4F34
:1015A000B80180910007909101070E94115FD80156
:1015B0000D900020E9F7119783E0E5E4F4E0019055
:1015C0000D928A95E1F7A80161E080E00E94A14AAE
:1015D00087E090E09093A9068093A80660E070E011
:1015E000CB010E94A4490C94122064EF71E080E0CA
:1015F00090E00E94A449882311F40C9412200E94C8
:10160000914A44E354E060E080E00E94A14A4AE04D
:101610008E010F5F1F4FB801809102079091030761
:101620000E94115FF80101900020E9F731978CE4E6
:101630009FE2918380838DE690E093838283A8016B
:1016400061E080E00E94A14A8DE090E09093A906BD
:101650008093A80660E070E0CB010E94A4490C943E
:1016600012208CE20E94DB49882391F180910207CD
:10167000909103078031910530F401969093030710
:101680008093020706C080E190E090930307809367
:1016900002074AE08E010F5F1F4FB80180910207D9
:1016A000909103070E94115FF80101900020E9F773
:1016B00031978CE49FE2918380838DE690E0938361
:1016C0008283A80161E080E00E94A14A0C9412206C
:1016D0008AE20E94DB49882391F180910207909170
:1016E00003078D30910530F00197909303078093A5
:1016F000020706C08CE090E09093030780930207F6
:101700004AE08E010F5F1F4FB80180910207909150
:1017100003070E94115FF80101900020E9F731975B
:101720008CE49FE2918380838DE690E093838283B3
:10173000A80161E080E00E94A14A0C94122086E298
:101740000E94DB49882349F14AE08E010F5F1F4F59
:10175000B80180910207909103070E94115FD801A0
:101760000D900020E9F7119784E0E8E4F4E001909F
:101770000D928A95E1F7A80161E080E00E94A14AFC
:101780008FE090E09093A9068093A80660E070E057
:10179000CB010E94A4490C9412208EE20E94DB49E6
:1017A000882309F469C08091F406813089F50E948C
:1017B000914A4AEF53E060E080E00E94A14A4AE08B
:1017C0008E010F5F1F4FB8018091FA069091FB06C2
:1017D0000E94115FD8010D900020E9F7119787E072
:1017E000EBE0F4E001900D928A95E1F7A80161E049
:1017F00080E00E94A14A8AE090E09093A90680933D
:10180000A80660E070E0CB010E94A4490C9412206D
:1018100081110C9412200E94914A42E154E060E050
:1018200080E00E94A14A4AE08E010F5F1F4FB8017D
:1018300080910007909101070E94115FD8010D90DF
:101840000020E9F7119783E0E5E4F4E001900D92C0
:101850008A95E1F7A80161E080E00E94A14A87E053
:1018600090E09093A9068093A80660E070E0CB0119
:101870000E94A4490C94122064EF71E080E090E093
:101880000E94A449882311F40C9412208EE090E069
:101890009093A9068093A80647EC53E061E080E0AE
:1018A0000E94A14A60E070E0CB010E94A4490C9420
:1018B00012208CE20E94DB49882391F1809102077B
:1018C000909103078031910530F4019690930307BE
:1018D0008093020706C080E190E090930307809315
:1018E00002074AE08E010F5F1F4FB8018091020787
:1018F000909103070E94115FF80101900020E9F721
:1019000031978CE49FE2918380838DE690E093830E
:101910008283A80161E080E00E94A14A0C94122019
:101920008AE20E94DB49882391F18091020790911D
:1019300003078D30910530F0019790930307809352
:10194000020706C08CE090E09093030780930207A3
:101950004AE08E010F5F1F4FB801809102079091FE
:1019600003070E94115FF80101900020E9F7319709
:101970008CE49FE2918380838DE690E09383828361
:10198000A80161E080E00E94A14A0C94122086E246
:101990000E94DB49882349F14AE08E010F5F1F4F07
:1019A000B80180910207909103070E94115FD8014E
:1019B0000D900020E9F7119784E0E8E4F4E001904D
:1019C0000D928A95E1F7A80161E080E00E94A14AAA
:1019D0008FE090E09093A9068093A80660E070E005
:1019E000CB010E94A4490C9412208EE20E94DB4994
:1019F000882309F469C08091F406813089F50E943A
:101A0000914A4AEF53E060E080E00E94A14A4AE038
:101A10008E010F5F1F4FB8018091FA069091FB066F
:101A20000E94115FD8010D900020E9F7119787E01F
:101A3000EBE0F4E001900D928A95E1F7A80161E0F6
:101A400080E00E94A14A8AE090E09093A9068093EA
:101A5000A80660E070E0CB010E94A4490C9412201B
:101A600081110C9412200E94914A42E154E060E0FE
:101A700080E00E94A14A4AE08E010F5F1F4FB8012B
:101A800080910007909101070E94115FD8010D908D
:101A90000020E9F7119783E0E5E4F4E001900D926E
:101AA0008A95E1F7A80161E080E00E94A14A87E001
:101AB00090E09093A9068093A80660E070E0CB01C7
:101AC0000E94A4490C94122064EF71E080E090E041
:101AD0000E94A449882311F40C9412204AE08E013C
:101AE0000F5F1F4FB80180910207909103070E947A
:101AF000115FD8010D900020E9F7119784E0E8E428
:101B0000F4E001900D928A95E1F7A80161E080E090
:101B10000E94A14A8DE090E09093A9068093A806C8
:101B200060E070E0CB010E94A4490C94122064EFA5
:101B300071E080E090E00E94A449882311F40C94A5
:101B400012200E94914A4CE454E060E080E00E9440
:101B5000A14A4AE08E010F5F1F4FB8018091040730
:101B6000909105070E94115FF80101900020E9F7AC
:101B700031978CE49FE2918380838DE690E093839C
:101B80008283A80161E080E00E94A14A80E190E0A8
:101B90009093A9068093A80660E070E0CB010E94B4
:101BA000A4490C9412208CE20E94DB49882391F115
:101BB00080910407909105078530910530F40196D6
:101BC000909305078093040706C085E090E090930A
:101BD0000507809304074AE08E010F5F1F4FB8018D
:101BE00080910407909105070E94115FF801019010
:101BF0000020E9F731978CE49FE2918380838DE6A2
:101C000090E093838283A80161E080E00E94A14A72
:101C10000C9412208AE20E94DB49882391F1809182
:101C20000407909105078230910530F00197909359
:101C300005078093040706C081E090E090930507B4
:101C4000809304074AE08E010F5F1F4FB801809117
:101C50000407909105070E94115FF8010190002090
:101C6000E9F731978CE49FE2918380838DE690E0E1
:101C700093838283A80161E080E00E94A14A0C94D2
:101C8000122086E20E94DB49882349F14AE08E0156
:101C90000F5F1F4FB80180910407909105070E94C4
:101CA000115FD8010D900020E9F7119784E0E8E476
:101CB000F4E001900D928A95E1F7A80161E080E0DF
:101CC0000E94A14A82E190E09093A9068093A80621
:101CD00060E070E0CB010E94A4490C9412208EE2D7
:101CE0000E94DB49882389F10E94914A44E354E031
:101CF00060E080E00E94A14A4AE08E010F5F1F4F22
:101D0000B80180910207909103070E94115FD801EA
:101D10000D900020E9F7119784E0E8E4F4E00190E9
:101D20000D928A95E1F7A80161E080E00E94A14A46
:101D30008DE090E09093A9068093A80660E070E0A3
:101D4000CB010E94A4490C94122064EF71E080E062
:101D500090E00E94A449882311F40C94122081E1A0
:101D600090E09093A9068093A80647EC53E061E0C9
:101D700080E00E94A14A60E070E0CB010E94A4498B
:101D80000C9412208CE20E94DB49882391F180910F
:101D90000407909105078530910530F401969093E2
:101DA00005078093040706C085E090E0909305073F
:101DB000809304074AE08E010F5F1F4FB8018091A6
:101DC0000407909105070E94115FF801019000201F
:101DD000E9F731978CE49FE2918380838DE690E070
:101DE00093838283A80161E080E00E94A14A0C9461
:101DF00012208AE20E94DB49882391F18091040736
:101E0000909105078230910530F001979093050776
:101E10008093040706C081E090E0909305078093CB
:101E200004074AE08E010F5F1F4FB801809104073D
:101E3000909105070E94115FF80101900020E9F7D9
:101E400031978CE49FE2918380838DE690E09383C9
:101E50008283A80161E080E00E94A14A0C941220D4
:101E600086E20E94DB49882349F14AE08E010F5F38
:101E70001F4FB80180910407909105070E94115FE0
:101E8000D8010D900020E9F7119784E0E8E4F4E030
:101E900001900D928A95E1F7A80161E080E00E942F
:101EA000A14A82E190E09093A9068093A80660E0A1
:101EB00070E0CB010E94A4490C9412208EE20E9493
:101EC000DB49882389F10E94914A44E354E060E0B1
:101ED00080E00E94A14A4AE08E010F5F1F4FB801C7
:101EE00080910207909103070E94115FD8010D9025
:101EF0000020E9F7119784E0E8E4F4E001900D9206
:101F00008A95E1F7A80161E080E00E94A14A8DE096
:101F100090E09093A9068093A80660E070E0CB0162
:101F20000E94A4490C94122064EF71E080E090E0DC
:101F30000E94A449882311F40C9412204AE08E01D7
:101F40000F5F1F4FB80180910407909105070E9411
:101F5000115FD8010D900020E9F7119784E0E8E4C3
:101F6000F4E001900D928A95E1F7A80161E080E02C
:101F70000E94A14A80E190E09093A9068093A80670
:101F800060E070E0CB010E94A4490C94122064EF41
:101F900071E080E090E00E94A449882311F40C9441
:101FA00012200E94914A4DE554E060E080E00E94DA
:101FB000A14A8091F7064AE08E010F5F1F4FB801DA
:101FC00090E00E94115FF80101900020E9F731973D
:101FD00080E290E091838083A80161E080E00E942C
:101FE000A14A83E190E09093A9068093A80660E05F
:101FF00070E0CB010E94A4490C9412208CE20E9454
:10200000DB49882329F18091F7068E3120F48F5F18
:102010008093F70603C08EE18093F7068091F70660
:102020004AE08E010F5F1F4FB80190E00E94115FE0
:10203000F80101900020E9F7319780E290E0918368
:102040008083A80161E080E00E94A14A0C941220E4
:102050008AE20E94DB49882329F18091F7068630C5
:1020600020F081508093F70603C085E08093F70647
:102070008091F7064AE08E010F5F1F4FB80190E094
:102080000E94115FF80101900020E9F7319780E28A
:1020900090E091838083A80161E080E00E94A14AE2
:1020A0000C94122086E20E94DB49882329F180915A
:1020B000F7064AE08E010F5F1F4FB80190E00E94C3
:1020C000115FF80101900020E9F7319780E290E07C
:1020D00091838083A80161E080E00E94A14A85E1AC
:1020E00090E09093A9068093A80660E070E0CB0191
:1020F0000E94A4490C9412208EE20E94DB4988239E
:1021000071F10E94914A4CE454E060E080E00E944A
:10211000A14A4AE08E010F5F1F4FB801809102076C
:10212000909103070E94115FF80101900020E9F7E8
:10213000319780E290E091838083A80161E080E0A4
:102140000E94A14A80E190E09093A9068093A8069E
:1021500060E070E0CB010E94A4490C94122064EF6F
:1021600071E080E090E00E94A449882311F40C946F
:10217000122084E190E09093A9068093A80647EC92
:1021800053E061E080E00E94A14A60E070E0CB0192
:102190000E94A4490C9412208CE20E94DB498823FF
:1021A00029F18091F7068E3120F48F5F8093F70636
:1021B00003C08EE18093F7068091F7064AE08E0116
:1021C0000F5F1F4FB80190E00E94115FF80101906E
:1021D0000020E9F7319780E290E091838083A801A5
:1021E00061E080E00E94A14A0C9412208AE20E94E1
:1021F000DB49882329F18091F706863020F0815051
:102200008093F70603C085E08093F7068091F70678
:102210004AE08E010F5F1F4FB80190E00E94115FEE
:10222000F80101900020E9F7319780E290E0918376
:102230008083A80161E080E00E94A14A0C941220F2
:1022400086E20E94DB49882329F18091F7064AE063
:102250008E010F5F1F4FB80190E00E94115FF801DF
:1022600001900020E9F7319780E290E0918380832C
:10227000A80161E080E00E94A14A85E190E090938E
:10228000A9068093A80660E070E0CB010E94A449F3
:102290000C9412208EE20E94DB49882371F10E9487
:1022A000914A4CE454E060E080E00E94A14A4AE098
:1022B0008E010F5F1F4FB8018091020790910307B5
:1022C0000E94115FF80101900020E9F7319780E248
:1022D00090E091838083A80161E080E00E94A14AA0
:1022E00080E190E09093A9068093A80660E070E0FA
:1022F000CB010E94A4490C94122064EF71E080E0AD
:1023000090E00E94A449882311F40C94122080913B
:10231000F7064AE08E010F5F1F4FB80190E00E9460
:10232000115FF80101900020E9F7319780E290E019
:1023300091838083A80161E080E00E94A14A83E14B
:1023400090E09093A9068093A80660E070E0CB012E
:102350000E94A4490C94122064EF71E080E090E0A8
:102360000E94A449882311F40C9412200E94914ADF
:102370004EE654E060E080E00E94A14A8091F806B9
:102380004AE08E010F5F1F4FB80190E00E94115F7D
:10239000F80101900020E9F7319780E290E0918305
:1023A0008083A80161E080E00E94A14A86E190E07C
:1023B0009093A9068093A80660E070E0CB010E948C
:1023C000A4490C9412208CE20E94DB49882329F155
:1023D0008091F806833220F48F5F8093F80603C063
:1023E00083E28093F8068091F8064AE08E010F5F41
:1023F0001F4FB80190E00E94115FF801019000208A
:10240000E9F7319780E290E091838083A80161E051
:1024100080E00E94A14A0C9412208AE20E94DB49CB
:10242000882329F18091F8068A3120F08150809329
:10243000F80603C089E18093F8068091F8064AE027
:102440008E010F5F1F4FB80190E00E94115FF801ED
:1024500001900020E9F7319780E290E0918380833A
:10246000A80161E080E00E94A14A0C94122086E25B
:102470000E94DB49882329F18091F8064AE08E0109
:102480000F5F1F4FB80190E00E94115FF8010190AB
:102490000020E9F7319780E290E091838083A801E2
:1024A00061E080E00E94A14A88E190E09093A90653
:1024B0008093A80660E070E0CB010E94A4490C94D0
:1024C00012208EE20E94DB49882369F10E94914A22
:1024D0004DE554E060E080E00E94A14A8091F7065B
:1024E0004AE08E010F5F1F4FB80190E00E94115F1C
:1024F000F80101900020E9F7319780E290E09183A4
:102500008083A80161E080E00E94A14A83E190E01D
:102510009093A9068093A80660E070E0CB010E942A
:10252000A4490C94122064EF71E080E090E00E94D6
:10253000A449882311F40C94122087E190E0909331
:10254000A9068093A80647EC53E061E080E00E9472
:10255000A14A60E070E0CB010E94A4490C941220D3
:102560008CE20E94DB49882329F18091F8068332AE
:1025700020F48F5F8093F80603C083E28093F8060F
:102580008091F8064AE08E010F5F1F4FB80190E07E
:102590000E94115FF80101900020E9F7319780E275
:1025A00090E091838083A80161E080E00E94A14ACD
:1025B0000C9412208AE20E94DB49882329F1809141
:1025C000F8068A3120F081508093F80603C089E133
:1025D0008093F8068091F8064AE08E010F5F1F4F46
:1025E000B80190E00E94115FF80101900020E9F726
:1025F000319780E290E091838083A80161E080E0E0
:102600000E94A14A0C94122086E20E94DB49882392
:1026100029F18091F8064AE08E010F5F1F4FB80143
:1026200090E00E94115FF80101900020E9F73197D6
:1026300080E290E091838083A80161E080E00E94C5
:10264000A14A88E190E09093A9068093A80660E0F3
:1026500070E0CB010E94A4490C9412208EE20E94EB
:10266000DB49882369F10E94914A4DE554E060E01E
:1026700080E00E94A14A8091F7064AE08E010F5F38
:102680001F4FB80190E00E94115FF80101900020F7
:10269000E9F7319780E290E091838083A80161E0BF
:1026A00080E00E94A14A83E190E09093A906809384
:1026B000A80660E070E0CB010E94A4490C941220AF
:1026C00064EF71E080E090E00E94A449882311F457
:1026D0000C9412208091F8064AE08E010F5F1F4F84
:1026E000B80190E00E94115FF80101900020E9F725
:1026F000319780E290E091838083A80161E080E0DF
:102700000E94A14A86E190E09093A9068093A806D2
:1027100060E070E0CB010E94A4490C94122064EFA9
:1027200071E080E090E00E94A449882311F40C94A9
:1027300012200E94914A4FE754E060E080E00E943E
:10274000A14A8091F9064AE08E010F5F1F4FB80140
:1027500090E00E94115FF80101900020E9F73197A5
:1027600080E290E091838083A80161E080E00E9494
:10277000A14A89E190E09093A9068093A80660E0C1
:1027800070E0CB010E94A4490C9412208CE20E94BC
:10279000DB49882329F18091F9068A3020F48F5F84
:1027A0008093F90603C08AE08093F9068091F906C8
:1027B0004AE08E010F5F1F4FB80190E00E94115F49
:1027C000F80101900020E9F7319780E290E09183D1
:1027D0008083A80161E080E00E94A14A0C9412204D
:1027E0008AE20E94DB49882329F18091F90686302C
:1027F00020F081508093F90603C085E08093F906AC
:102800008091F9064AE08E010F5F1F4FB80190E0FA
:102810000E94115FF80101900020E9F7319780E2F2
:1028200090E091838083A80161E080E00E94A14A4A
:102830000C94122086E20E94DB49882329F18091C2
:10284000F9064AE08E010F5F1F4FB80190E00E9429
:10285000115FF80101900020E9F7319780E290E0E4
:1028600091838083A80161E080E00E94A14A8BE10E
:1028700090E09093A9068093A80660E070E0CB01F9
:102880000E94A4490C9412208EE20E94DB49882306
:1028900069F10E94914A4EE654E060E080E00E94B7
:1028A000A14A8091F8064AE08E010F5F1F4FB801E0
:1028B00090E00E94115FF80101900020E9F7319744
:1028C00080E290E091838083A80161E080E00E9433
:1028D000A14A86E190E09093A9068093A80660E063
:1028E00070E0CB010E94A4490C94122064EF71E0C7
:1028F00080E090E00E94A449882311F40C941220F7
:102900008AE190E09093A9068093A80647EC53E0F3
:1029100061E080E00E94A14A60E070E0CB010E948B
:10292000A4490C9412208CE20E94DB49882329F1EF
:102930008091F9068A3020F48F5F8093F90603C0F6
:102940008AE08093F9068091F9064AE08E010F5FD4
:102950001F4FB80190E00E94115FF8010190002024
:10296000E9F7319780E290E091838083A80161E0EC
:1029700080E00E94A14A0C9412208AE20E94DB4966
:10298000882329F18091F906863020F081508093C8
:10299000F90603C085E08093F9068091F9064AE0C4
:1029A0008E010F5F1F4FB80190E00E94115FF80188
:1029B00001900020E9F7319780E290E091838083D5
:1029C000A80161E080E00E94A14A0C94122086E2F6
:1029D0000E94DB49882329F18091F9064AE08E01A3
:1029E0000F5F1F4FB80190E00E94115FF801019046
:1029F0000020E9F7319780E290E091838083A8017D
:102A000061E080E00E94A14A8BE190E09093A906EA
:102A10008093A80660E070E0CB010E94A4490C946A
:102A200012208EE20E94DB49882369F10E94914ABC
:102A30004EE654E060E080E00E94A14A8091F806F2
:102A40004AE08E010F5F1F4FB80190E00E94115FB6
:102A5000F80101900020E9F7319780E290E091833E
:102A60008083A80161E080E00E94A14A86E190E0B5
:102A70009093A9068093A80660E070E0CB010E94C5
:102A8000A4490C94122064EF71E080E090E00E9471
:102A9000A449882311F40C9412208091F9064AE08D
:102AA0008E010F5F1F4FB80190E00E94115FF80187
:102AB00001900020E9F7319780E290E091838083D4
:102AC000A80161E080E00E94A14A89E190E0909332
:102AD000A9068093A80660E070E0CB010E94A4499B
:102AE0000C94122064EF71E080E090E00E94A44911
:102AF000882311F40C9412200E94914A40E954E07A
:102B000060E080E00E94A14A8091F5064AE08E01D3
:102B10000F5F1F4FB80190E00E94115FF801019014
:102B20000020E9F7319785E290E091838083A80146
:102B300061E080E00E94A14A8CE190E09093A906B8
:102B40008093A80660E070E0CB010E94A4490C9439
:102B500012208CE20E94DB49882329F18091F5063E
:102B6000803520F48B5F8093F50603C080E5809369
:102B7000F5068091F5064AE08E010F5F1F4FB80100
:102B800090E00E94115FF80101900020E9F7319771
:102B900085E290E091838083A80161E080E00E945B
:102BA000A14A0C9412208AE20E94DB49882329F171
:102BB0008091F5068B3020F085508093F50603C098
:102BC0008AE08093F5068091F5064AE08E010F5F5A
:102BD0001F4FB80190E00E94115FF80101900020A2
:102BE000E9F7319785E290E091838083A80161E065
:102BF00080E00E94A14A0C94122086E20E94DB49E8
:102C0000882329F18091F5064AE08E010F5F1F4F5E
:102C1000B80190E00E94115FF80101900020E9F7EF
:102C2000319785E290E091838083A80161E080E0A4
:102C30000E94A14A8EE190E09093A9068093A80695
:102C400060E070E0CB010E94A4490C9412208EE257
:102C50000E94DB49882369F10E94914A4FE754E0C2
:102C600060E080E00E94A14A8091F9064AE08E016E
:102C70000F5F1F4FB80190E00E94115FF8010190B3
:102C80000020E9F7319780E290E091838083A801EA
:102C900061E080E00E94A14A89E190E09093A9065A
:102CA0008093A80660E070E0CB010E94A4490C94D8
:102CB000122064EF71E080E090E00E94A449882334
:102CC00011F40C9412208DE190E09093A90680936A
:102CD000A80647EC53E061E080E00E94A14A60E072
:102CE00070E0CB010E94A4490C9412208CE20E9457
:102CF000DB49882329F18091F506803520F48B5F2C
:102D00008093F50603C080E58093F5068091F50673
:102D10004AE08E010F5F1F4FB80190E00E94115FE3
:102D2000F80101900020E9F7319785E290E0918366
:102D30008083A80161E080E00E94A14A0C941220E7
:102D40008AE20E94DB49882329F18091F5068B30C5
:102D500020F085508093F50603C08AE08093F50645
:102D60008091F5064AE08E010F5F1F4FB80190E099
:102D70000E94115FF80101900020E9F7319785E288
:102D800090E091838083A80161E080E00E94A14AE5
:102D90000C94122086E20E94DB49882329F180915D
:102DA000F5064AE08E010F5F1F4FB80190E00E94C8
:102DB000115FF80101900020E9F7319785E290E07A
:102DC00091838083A80161E080E00E94A14A8EE1A6
:102DD00090E09093A9068093A80660E070E0CB0194
:102DE0000E94A4490C9412208EE20E94DB498823A1
:102DF00069F10E94914A4DE554E060E080E00E9454
:102E0000A14A8091F7064AE08E010F5F1F4FB8017B
:102E100090E00E94115FF80101900020E9F73197DE
:102E200080E290E091838083A80161E080E00E94CD
:102E3000A14A83E190E09093A9068093A80660E000
:102E400070E0CB010E94A4490C94122064EF71E061
:102E500080E090E00E94A449882311F40C94122091
:102E60008091F5064AE08E010F5F1F4FB80190E098
:102E70000E94115FF80101900020E9F7319785E287
:102E800090E091838083A80161E080E00E94A14AE4
:102E90008CE190E09093A9068093A80660E070E032
:102EA000CB010E94A4490C94122064EF71E080E0F1
:102EB00090E00E94A449882311F40C9412200E94EF
:102EC000914A41EA54E060E080E00E94A14A80918A
:102ED000F6064AE08E010F5F1F4FB80190E00E9496
:102EE000115FF80101900020E9F7319785E290E049
:102EF00091838083A80161E080E00E94A14A8FE174
:102F000090E09093A9068093A80660E070E0CB0162
:102F10000E94A4490C9412208CE20E94DB49882371
:102F200029F18091F6068E3120F48B5F8093F606AE
:102F300003C08EE18093F6068091F6064AE08E018A
:102F40000F5F1F4FB80190E00E94115FF8010190E0
:102F50000020E9F7319785E290E091838083A80112
:102F600061E080E00E94A14A0C9412208AE20E9453
:102F7000DB49882321F18091F606882321F08550D2
:102F80008093F60602C01092F6068091F6064AE09B
:102F90008E010F5F1F4FB80190E00E94115FF80192
:102FA00001900020E9F7319785E290E091838083DA
:102FB000A80161E080E00E94A14A0C94122086E200
:102FC0000E94DB49882329F18091F6064AE08E01B0
:102FD0000F5F1F4FB80190E00E94115FF801019050
:102FE0000020E9F7319785E290E091838083A80182
:102FF00061E080E00E94A14A81E290E09093A906FE
:103000008093A80660E070E0CB010E94A4490C9474
:1030100012208EE20E94DB49882361F10E94914ACE
:1030200040E954E060E080E00E94A14A8091F5060A
:103030004AE08E010F5F1F4FB80190E00E94115FC0
:10304000F80101900020E9F7319785E290E0918343
:103050008083A80161E080E00E94A14A8CE190E0B9
:103060009093A9068093A80660E070E0CB010E94CF
:10307000A449D8C764EF71E080E090E00E94A449C1
:10308000882309F4CFC780E290E09093A90680934B
:10309000A80647EC53E061E080E00E94A14A60E0AE
:1030A00070E0CB010E94A449BDC78CE20E94DB49BD
:1030B000882321F18091F6068E3120F48B5F809376
:1030C000F60603C08EE18093F6068091F6064AE08C
:1030D0008E010F5F1F4FB80190E00E94115FF80151
:1030E00001900020E9F7319785E290E09183808399
:1030F000A80161E080E00E94A14A94C78AE20E9490
:10310000DB49882319F18091F606882321F0855048
:103110008093F60602C01092F6068091F6064AE009
:103120008E010F5F1F4FB80190E00E94115FF80100
:1031300001900020E9F7319785E290E09183808348
:10314000A80161E080E00E94A14A6CC786E20E946B
:10315000DB49882321F18091F6064AE08E010F5F5A
:103160001F4FB80190E00E94115FF801019000200C
:10317000E9F7319785E290E091838083A80161E0CF
:1031800080E00E94A14A81E290E09093A90680939A
:10319000A80660E070E0CB010E94A44943C78EE21C
:1031A0000E94DB49882361F10E94914A40E954E082
:1031B00060E080E00E94A14A8091F5064AE08E011D
:1031C0000F5F1F4FB80190E00E94115FF80101905E
:1031D0000020E9F7319785E290E091838083A80190
:1031E00061E080E00E94A14A8CE190E09093A90602
:1031F0008093A80660E070E0CB010E94A44912C74A
:1032000064EF71E080E090E00E94A449882309F413
:1032100009C78091F6064AE08E010F5F1F4FB80183
:1032200090E00E94115FF80101900020E9F73197CA
:1032300085E290E091838083A80161E080E00E94B4
:10324000A14A8FE190E09093A9068093A80660E0E0
:1032500070E0CB010E94A449E5C664EF71E080E014
:1032600090E00E94A449882309F4DCC60E94914A98
:1032700042EB54E060E080E00E94A14A4AE08E0107
:103280000F5F1F4FB8018091FC069091FD060E94D0
:10329000115FD8010D900020E9F7119787E0EBE06E
:1032A000F4E001900D928A95E1F7A80161E080E0D9
:1032B0000E94A14A82E290E09093A9068093A8061A
:1032C00060E070E0CB010E94A449ACC68CE20E9491
:1032D000DB49882381F18091FC069091FD068733BC
:1032E000910530F401969093FD068093FC0606C08C
:1032F00087E390E09093FD068093FC064AE08E0100
:103300000F5F1F4FB8018091FC069091FD060E944F
:10331000115FD8010D900020E9F7119787E0EBE0ED
:10332000F4E001900D928A95E1F7A80161E080E058
:103330000E94A14A77C68AE20E94DB49882381F174
:103340008091FC069091FD068432910530F0019742
:103350009093FD068093FC0606C083E290E0909374
:10336000FD068093FC064AE08E010F5F1F4FB801F7
:103370008091FC069091FD060E94115FD8010D908E
:103380000020E9F7119787E0EBE0F4E001900D925F
:103390008A95E1F7A80161E080E00E94A14A42C657
:1033A00086E20E94DB49882341F14AE08E010F5FEB
:1033B0001F4FB8018091FC069091FD060E94115F9D
:1033C000D8010D900020E9F7119787E0EBE0F4E0D9
:1033D00001900D928A95E1F7A80161E080E00E94DA
:1033E000A14A84E290E09093A9068093A80660E049
:1033F00070E0CB010E94A44915C68EE20E94DB4911
:10340000882361F10E94914A41EA54E060E080E043
:103410000E94A14A8091F6064AE08E010F5F1F4F7D
:10342000B80190E00E94115FF80101900020E9F7D7
:10343000319785E290E091838083A80161E080E08C
:103440000E94A14A8FE190E09093A9068093A8067C
:1034500060E070E0CB010E94A449E4C564EF71E034
:1034600080E090E00E94A449882309F4DBC583E250
:1034700090E09093A9068093A80647EC53E061E0A2
:1034800080E00E94A14A60E070E0CB010E94A44964
:10349000C9C58CE20E94DB49882381F18091FC063A
:1034A0009091FD068733910530F401969093FD06C7
:1034B0008093FC0606C087E390E09093FD0680931E
:1034C000FC064AE08E010F5F1F4FB8018091FC0699
:1034D0009091FD060E94115FD8010D900020E9F740
:1034E000119787E0EBE0F4E001900D928A95E1F707
:1034F000A80161E080E00E94A14A94C58AE20E948E
:10350000DB49882381F18091FC069091FD0684328D
:10351000910530F001979093FD068093FC0606C05C
:1035200083E290E09093FD068093FC064AE08E01D2
:103530000F5F1F4FB8018091FC069091FD060E941D
:10354000115FD8010D900020E9F7119787E0EBE0BB
:10355000F4E001900D928A95E1F7A80161E080E026
:103560000E94A14A5FC586E20E94DB49882341F19F
:103570004AE08E010F5F1F4FB8018091FC069091C9
:10358000FD060E94115FD8010D900020E9F7119708
:1035900087E0EBE0F4E001900D928A95E1F7A80155
:1035A00061E080E00E94A14A84E290E09093A90645
:1035B0008093A80660E070E0CB010E94A44932C568
:1035C0008EE20E94DB49882361F10E94914A41EA20
:1035D00054E060E080E00E94A14A8091F6064AE053
:1035E0008E010F5F1F4FB80190E00E94115FF8013C
:1035F00001900020E9F7319785E290E09183808384
:10360000A80161E080E00E94A14A8FE190E09093E0
:10361000A9068093A80660E070E0CB010E94A4494F
:1036200001C564EF71E080E090E00E94A449882326
:1036300009F4F8C44AE08E010F5F1F4FB801809172
:10364000FC069091FD060E94115FD8010D900020AC
:10365000E9F7119787E0EBE0F4E001900D928A958D
:10366000E1F7A80161E080E00E94A14A82E290E0D7
:103670009093A9068093A80660E070E0CB010E94B9
:10368000A449D0C464EF71E080E090E00E94A449B6
:10369000882309F4C7C40E94914A43EC54E060E0D7
:1036A00080E00E94A14A4AE08E010F5F1F4FB801DF
:1036B0008091FE069091FF060E94115FD8010D9047
:1036C0000020E9F7119787E0EBE0F4E001900D921C
:1036D0008A95E1F7A80161E080E00E94A14A85E2B5
:1036E00090E09093A9068093A80660E070E0CB017B
:1036F0000E94A44997C48CE20E94DB49882381F18F
:103700008091FE069091FF068A30910530F4019673
:103710009093FF068093FE0606C08AE090E09093A7
:10372000FF068093FE064AE08E010F5F1F4FB8012F
:103730008091FE069091FF060E94115FD8010D90C6
:103740000020E9F7119787E0EBE0F4E001900D929B
:103750008A95E1F7A80161E080E00E94A14A62C475
:103760008AE20E94DB49882381F18091FE069091D4
:10377000FF068630910530F001979093FF06809305
:10378000FE0606C085E090E09093FF068093FE065B
:103790004AE08E010F5F1F4FB8018091FE069091A5
:1037A000FF060E94115FD8010D900020E9F71197E4
:1037B00087E0EBE0F4E001900D928A95E1F7A80133
:1037C00061E080E00E94A14A2DC486E20E94DB49AC
:1037D000882341F14AE08E010F5F1F4FB8018091AD
:1037E000FE069091FF060E94115FD8010D90002007
:1037F000E9F7119787E0EBE0F4E001900D928A95EC
:10380000E1F7A80161E080E00E94A14A87E290E030
:103810009093A9068093A80660E070E0CB010E9417
:10382000A44900C48EE20E94DB49882381F10E94F2
:10383000914A42EB54E060E080E00E94A14A4AE0F5
:103840008E010F5F1F4FB8018091FC069091FD061D
:103850000E94115FD8010D900020E9F7119787E0D1
:10386000EBE0F4E001900D928A95E1F7A80161E0A8
:1038700080E00E94A14A82E290E09093A9068093A2
:10388000A80660E070E0CB010E94A449CBC364EFBE
:1038900071E080E090E00E94A449882309F4C2C34B
:1038A00086E290E09093A9068093A80647EC53E047
:1038B00061E080E00E94A14A60E070E0CB010E94DC
:1038C000A449B0C38CE20E94DB49882381F1809136
:1038D000FE069091FF068A30910530F40196909390
:1038E000FF068093FE0606C08AE090E09093FF06F4
:1038F0008093FE064AE08E010F5F1F4FB801809152
:10390000FE069091FF060E94115FD8010D900020E5
:10391000E9F7119787E0EBE0F4E001900D928A95CA
:10392000E1F7A80161E080E00E94A14A7BC38AE23E
:103930000E94DB49882381F18091FE069091FF0669
:103940008630910530F001979093FF068093FE0634
:1039500006C085E090E09093FF068093FE064AE063
:103960008E010F5F1F4FB8018091FE069091FF06F8
:103970000E94115FD8010D900020E9F7119787E0B0
:10398000EBE0F4E001900D928A95E1F7A80161E087
:1039900080E00E94A14A46C386E20E94DB49882358
:1039A00041F14AE08E010F5F1F4FB8018091FE0682
:1039B0009091FF060E94115FD8010D900020E9F759
:1039C000119787E0EBE0F4E001900D928A95E1F722
:1039D000A80161E080E00E94A14A87E290E0909314
:1039E000A9068093A80660E070E0CB010E94A4497C
:1039F00019C38EE20E94DB49882381F10E94914A1B
:103A000042EB54E060E080E00E94A14A4AE08E016F
:103A10000F5F1F4FB8018091FC069091FD060E9438
:103A2000115FD8010D900020E9F7119787E0EBE0D6
:103A3000F4E001900D928A95E1F7A80161E080E041
:103A40000E94A14A82E290E09093A9068093A80682
:103A500060E070E0CB010E94A449E4C264EF71E031
:103A600080E090E00E94A449882309F4DBC24AE088
:103A70008E010F5F1F4FB8018091FE069091FF06E7
:103A80000E94115FD8010D900020E9F7119787E09F
:103A9000EBE0F4E001900D928A95E1F7A80161E076
:103AA00080E00E94A14A85E290E09093A90680936D
:103AB000A80660E070E0CB010E94A449B3C264EFA5
:103AC00071E080E090E00E94A449882309F4AAC232
:103AD0000E94914A44ED54E060E080E00E94A14AD7
:103AE000809106074AE08E010F5F1F4FB801082E34
:103AF000000C990B0E94115FF80101900020E9F77A
:103B0000319780E290E091838083A80161E080E0BA
:103B10000E94A14A88E290E09093A9068093A806AB
:103B200060E070E0CB010E94A4497CC28CE20E945C
:103B3000DB49882329F180910607882324F48F5FCD
:103B40008093060702C010920607809106074AE09C
:103B50008E010F5F1F4FB801082E000C990B0E94B9
:103B6000115FF80101900020E9F7319780E290E0C1
:103B700091838083A80161E080E00E94A14A52C243
:103B80008AE20E94DB49882331F1809106078F3E4B
:103B900024F081508093060703C08EEE80930607C1
:103BA000809106074AE08E010F5F1F4FB801082E73
:103BB000000C990B0E94115FF80101900020E9F7B9
:103BC000319780E290E091838083A80161E080E0FA
:103BD0000E94A14A27C286E20E94DB49882331F174
:103BE000809106074AE08E010F5F1F4FB801082E33
:103BF000000C990B0E94115FF80101900020E9F779
:103C0000319780E290E091838083A80161E080E0B9
:103C10000E94A14A8AE290E09093A9068093A806A8
:103C200060E070E0CB010E94A449FCC18EE20E94DA
:103C3000DB49882381F10E94914A43EC54E060E023
:103C400080E00E94A14A4AE08E010F5F1F4FB80139
:103C50008091FE069091FF060E94115FD8010D90A1
:103C60000020E9F7119787E0EBE0F4E001900D9276
:103C70008A95E1F7A80161E080E00E94A14A85E20F
:103C800090E09093A9068093A80660E070E0CB01D5
:103C90000E94A449C7C164EF71E080E090E00E94F7
:103CA000A449882309F4BEC189E290E09093A90653
:103CB0008093A80647EC53E061E080E00E94A14AAF
:103CC00060E070E0CB010E94A449ACC18CE20E948C
:103CD000DB49882329F180910607882324F48F5F2C
:103CE0008093060702C010920607809106074AE0FB
:103CF0008E010F5F1F4FB801082E000C990B0E9418
:103D0000115FF80101900020E9F7319780E290E01F
:103D100091838083A80161E080E00E94A14A82C172
:103D20008AE20E94DB49882331F1809106078F3EA9
:103D300024F081508093060703C08EEE809306071F
:103D4000809106074AE08E010F5F1F4FB801082ED1
:103D5000000C990B0E94115FF80101900020E9F717
:103D6000319780E290E091838083A80161E080E058
:103D70000E94A14A57C186E20E94DB49882331F1A3
:103D8000809106074AE08E010F5F1F4FB801082E91
:103D9000000C990B0E94115FF80101900020E9F7D7
:103DA000319780E290E091838083A80161E080E018
:103DB0000E94A14A8AE290E09093A9068093A80607
:103DC00060E070E0CB010E94A4492CC18EE20E9409
:103DD000DB49882381F10E94914A42EB54E060E084
:103DE00080E00E94A14A4AE08E010F5F1F4FB80198
:103DF0008091FC069091FD060E94115FD8010D9004
:103E00000020E9F7119787E0EBE0F4E001900D92D4
:103E10008A95E1F7A80161E080E00E94A14A82E270
:103E200090E09093A9068093A80660E070E0CB0133
:103E30000E94A449F7C064EF71E080E090E00E9426
:103E4000A449882309F4EEC0809106074AE08E0158
:103E50000F5F1F4FB801082E000C990B0E94115FD5
:103E6000F80101900020E9F7319780E290E091831A
:103E70008083A80161E080E00E94A14A88E290E08E
:103E80009093A9068093A80660E070E0CB010E94A1
:103E9000A449C8C064EF71E080E090E00E94A449AA
:103EA000882309F4BFC00E94914A45EE54E060E0C7
:103EB00080E00E94A14A46EF54E061E080E00E9469
:103EC000A14AAE014F5F5F4F61E080E00E94A14ACE
:103ED0008BE290E09093A9068093A806A3C064EFBC
:103EE00071E080E090E00E94A449882309F49AC020
:103EF0000E94914A8091F406823039F447E055E0FF
:103F000060E080E00E94A14A06C045EE54E060E017
:103F100080E00E94A14A46EF54E061E080E00E9408
:103F2000A14AAE014F5F5F4F61E080E00E94A14A6D
:103F30008BE290E09093A9068093A80673C086E276
:103F40000E94DB498823D1F08091F406823021F46D
:103F500081E00E94093C03C080E00E94093C81E0AE
:103F600080931B071092A9061092A8060E94914AFE
:103F700060E070E0CB010E94A44954C08EE20E9430
:103F8000DB49882309F44EC08091F406823071F138
:103F90000E94914A44ED54E060E080E00E94A14A12
:103FA000809106074AE08E010F5F1F4FB801082E6F
:103FB000000C990B0E94115FF80101900020E9F7B5
:103FC000319780E290E091838083A80161E080E0F6
:103FD0000E94A14A88E290E09093A9068093A806E7
:103FE00060E070E0CB010E94A4491CC00E94914A8D
:103FF00043E254E060E080E00E94A14A48ED53E0D3
:1040000061E080E00E94A14A1092A9061092A806E1
:1040100060E070E0CB010E94A44904C01092A906A0
:104020001092A80660960FB6F894DEBF0FBECDBF03
:10403000DF91CF911F910F910895A091C406B09187
:10404000C506ED91FD918081ED91FD919081ED91FD
:10405000FD916C9163708E2309F064609F2309F0D9
:104060006860EDE3F0E2E60FF11D659565956D93EF
:104070006D917D918D919D91099423C01AC012C0BC
:1040800016C010C01EC009C014C013C006C019C09D
:1040900009C00DC007C00DC014C062507040804000
:1040A00090400BC0615070408040904006C06E5FF1
:1040B00001C06F5F7F4F8F4F9F4F9E938E937E9374
:1040C0006E930895A091C206B091C306ED91FD9143
:1040D0008081ED91FD919081ED91FD916C916370E6
:1040E0008E2309F064609F2309F06860E2E8F0E243
:1040F000E60FF11D659565956D936D917D918D919F
:104100009D91099423C01AC012C016C010C01EC0D1
:1041100009C014C013C006C019C009C00DC007C033
:104120000DC014C062507040804090400BC0615080
:1041300070408040904006C06E5F01C06F5F7F4F4F
:104140008F4F9F4F9E938E937E936E930895A09171
:10415000C006B091C106ED91FD918081ED91FD9178
:104160009081ED91FD916C9163708E2309F06460F4
:104170009F2309F06860E7ECF0E2E60FF11D65951A
:1041800065956D936D917D918D919D91099423C05D
:104190001AC012C016C010C01EC009C014C013C07F
:1041A00006C019C009C00DC007C00DC014C06250C0
:1041B0007040804090400BC0615070408040904003
:1041C00006C06E5F01C06F5F7F4F8F4F9F4F9E9302
:1041D0008E937E936E930895A091BE06B091BF0614
:1041E000ED91FD918081ED91FD919081ED91FD9199
:1041F0006C9163708E2309F064609F2309F06860FE
:10420000ECE0F1E2E60FF11D659565956D936D911A
:104210007D918D919D91099423C01AC012C016C042
:1042200010C01EC009C014C013C006C019C009C008
:104230000DC007C00DC014C0625070408040904057
:104240000BC0615070408040904006C06E5F01C05E
:104250006F5F7F4F8F4F9F4F9E938E937E936E9392
:104260000895A091BC06B091BD06ED91FD918081AD
:10427000ED91FD919081ED91FD916C9163708E2394
:1042800009F064609F2309F06860E1E5F1E2E60F60
:10429000F11D659565956D936D917D918D919D91C4
:1042A000099423C01AC012C016C010C01EC009C095
:1042B00014C013C006C019C009C00DC007C00DC08E
:1042C00014C062507040804090400BC061507040FC
:1042D0008040904006C06E5F01C06F5F7F4F8F4F80
:1042E0009F4F9E938E937E936E930895A091BA06EE
:1042F000B091BB06ED91FD918081ED91FD91908192
:10430000ED91FD916C9163708E2309F064609F23A1
:1043100009F06860E6E9F1E2E60FF11D6595659543
:104320006D936D917D918D919D91099423C01AC0DB
:1043300012C016C010C01EC009C014C013C006C0F1
:1043400019C009C00DC007C00DC014C06250704034
:10435000804090400BC0615070408040904006C04B
:104360006E5F01C06F5F7F4F8F4F9F4F9E938E9305
:104370007E936E930895DC01ED91FC910684F785A0
:10438000E02D41E0199581E090E00895DC01ED9188
:10439000FC910684F785E02D40E019950895DC0135
:1043A000ED91FC910484F585E02D6FEF199508954A
:1043B000FC016581262F246025836C600E94C62144
:1043C0000895FC011382128229E132E031832083B7
:1043D000089508950895089580E090E00895E5E235
:1043E000FBE01182128213821482158216821782D8
:1043F0001086158616861786108A118A128A138AE5
:10440000148A158A168A178A108E118E138E148EAE
:10441000158E168E178E10A211A212A213A214A22C
:1044200015A216A217A210A611A612A613A614A6CC
:1044300015A616A617A610AA11AA12AA13AA14AA9C
:1044400015AA16AA17AA10AE11AE12AE13AE14AE6C
:1044500015AE16AE17AE1092650B1092660B109249
:10446000670B1092680B1092690B10926A0B1092F6
:104470006B0B10926C0B1092710B1092720B1092CE
:10448000730B1092740B1092750B1092760B1092A6
:10449000770B1092780B1092790B10927A0B109286
:1044A0007B0B10927C0B10927D0B10927E0B109266
:1044B0007F0B1092800B1092810B1092820B109246
:1044C000830B1092840B1092850B1092860B109226
:1044D000870B1092880B1092890B10928A0B109206
:1044E0008B0B10928C0B10928D0B10928E0B1092E6
:1044F0008F0B1092900B1092910B1092920B1092C6
:10450000930B1092940B1092950B1092960B1092A5
:10451000970B1092980B1092990B10929A0B109285
:104520009B0B10929C0B10929E0B10929D0B109265
:104530009F0B1092A00B81E08093A10B1092A30B14
:104540001092A20B1092A40B80E090E0A0E0B0E4E7
:104550008093A60B9093A70BA093A80BB093A90BE5
:104560001092AA0B1092AB0B1092AC0B1092AD0BE9
:104570000E94FE540895CF93DF93EC0161E08D8596
:104580000E94B12B60E08D850E94B12BDF91CF910D
:104590000895FF920F931F93CF93DF938C01F62E14
:1045A000D42FC0E0CD1788F46F2D70E00C2E02C020
:1045B000759567950A94E2F76170F801EC0FF11DAB
:1045C00086850E94B12BCF5FEDCFC8010E94BB2230
:1045D000DF91CF911F910F91FF900895FC01868983
:1045E0008F3FA1F0662321F021853285232B39F0FE
:1045F000611109C0218532852130310521F461E046
:104600000E94B12B089560E00E94B12B08950F9392
:104610001F93CF93DF93EC01062F142F61E04130FD
:1046200009F060E08B850E94B12B8C858F3F19F0DB
:1046300060E00E94B12B1230E9F08C8184FF06C04B
:1046400048E0602FCE010E94C92219C0602F70E09F
:104650007595679575956795759567957595679542
:1046600044E0CE010E94C92244E0602FCE010E94A6
:10467000C92205C044E0602FCE010E94C922DF910B
:10468000CF911F910F910895CF92DF92EF92FF92F9
:104690000E94812D6B017C010E942B36882329F01A
:1046A00061E08DE00E94B12B33C08091B6069091FD
:1046B000B706A091B806B091B906A7019601281BCC
:1046C000390B4A0B5B0BDA01C901883E9340A10507
:1046D000B105F0F0C092B606D092B706E092B806E7
:1046E000F092B9068091B4069091B506892B39F401
:1046F00081E090E09093B5068093B40604C01092D8
:10470000B5061092B4066091B4068DE00E94B12BFC
:10471000FF90EF90DF90CF90089561E08DE00E94D0
:10472000052C1092B5061092B4060E94812D60935C
:10473000B6067093B7068093B8069093B9060895AD
:104740006F927F928F92AF92CF92EF92FF920F93E0
:104750001F93CF93DF93CDB7DEB73C01F62EFC015C
:10476000438724870587E686C786A08A818A8F8546
:10477000828B8889838B8989848B8A89858B10E0D9
:10478000143048F4F301E10FF11D61E086850E94C9
:10479000052C1F5FF5CFF1100CC014E0183048F461
:1047A000F301E10FF11D61E086850E94052C1F5F7A
:1047B000F5CF61E0F30183850E94052CF301848528
:1047C0008F3F19F061E00E94052C61E0F3018585BF
:1047D0000E94052CFF2019F0F301148203C080E130
:1047E000F301848360E0F30183850E94B12B60E0D4
:1047F000F30185850E94B12BF30184858F3F19F069
:1048000060E00E94B12B8FEFF301868B1286118638
:10481000DF91CF911F910F91FF90EF90CF90AF90CC
:104820008F907F906F900895EF92FF921F93CF9398
:10483000DF93EC01162F7A0161E0812F0E94052C95
:104840001E8BFA86E986E881F9810484F585E02DDE
:1048500060E0CE011995DF91CF911F91FF90EF900D
:10486000089585E998E00E946444892B09F491C079
:1048700085E998E00E944244082E000C990BAA0B8F
:10488000BB0BFC01BB97EF34F10558F78827E156C5
:10489000FF4F8F4F0C9400629091B30681E08927FF
:1048A0008093B306DECF81E08093B206DACFE3E3F4
:1048B000F7E0908181E089278083D3CFE3E3F7E0BD
:1048C000918181E089278183CCCF8091AE06909140
:1048D000AF06A091B006B091B106C296A11DB11D60
:1048E0008093AE069093AF06A093B006B093B10646
:1048F000B8CF8091AE069091AF06A091B006B0916E
:10490000B10683339105A105B10560F0C297A109F5
:10491000B1098093AE069093AF06A093B006B09312
:10492000B1069FCF1092AE061092AF061092B0065D
:104930001092B10696CF2DEC3CEC4CEC5DE360910F
:1049400000027091010280910202909103020E9484
:104950003762609300027093010280930202909389
:1049600003027FCF2DEC3CEC4CEC5DE36091000248
:104970007091010280910202909103020E943662BE
:1049800060930002709301028093020290930302ED
:1049900068CF0895CF93DF9380912007813009F489
:1049A000FDC018F0823009F0F1C168E175E085E9D9
:1049B00098E00E946E4660E275E085E998E00E940A
:1049C0006E46CBE1D7E0688570E04AE050E085E9CB
:1049D00098E00E9466466EE175E085E998E00E94E5
:1049E0006E4665E275E085E998E00E946E4669854D
:1049F00070E04AE050E085E998E00E9466466EE18A
:104A000075E085E998E00E946E466AE275E085E906
:104A100098E00E946E466A8570E04AE050E085E9C1
:104A200098E00E9466466EE175E085E998E00E9494
:104A30006E466FE275E085E998E00E946E466E81F1
:104A400070E04AE050E085E998E00E9466466EE139
:104A500075E085E998E00E946E4663E375E085E9BC
:104A600098E00E946E466F8170E04AE050E085E970
:104A700098E00E9466466EE175E085E998E00E9444
:104A80006E4667E375E085E998E00E946E466F899F
:104A9000062E000C770B4AE050E085E998E00E9472
:104AA00066466EE175E085E998E00E946E466CE32B
:104AB00075E085E998E00E946E466B857C854AE04A
:104AC00050E085E998E00E9466466EE175E085E970
:104AD00098E00E946E4660E475E085E998E00E94E7
:104AE0006E466D857E854AE050E085E998E00E943B
:104AF00066466EE175E085E998E00E946E4664E4E2
:104B000075E085E998E00E946E466F8578894AE0F5
:104B100050E085E998E00E9466466EE175E085E91F
:104B200098E00E946E4668E475E085E998E00E948E
:104B30006E4669897A894AE050E085E998E00E94EA
:104B400066466EE175E085E998E00E946E466CE489
:104B500075E085E998E00E946E466B897C894AE0A1
:104B600050E085E998E00E9466466EE175E085E9CF
:104B700098E00E946E4661E575E085E998E00E9444
:104B80006E466D897E894AE050E085E998E00E9492
:104B9000664685E998E00E94F545F8C066E575E04F
:104BA00085E998E00E946E4660E275E085E998E04C
:104BB0000E946E46CBE1D7E0688570E04AE050E0A5
:104BC00085E998E00E9466466EE175E085E998E027
:104BD0000E946E4665E275E085E998E00E946E46A7
:104BE000698570E04AE050E085E998E00E946646F9
:104BF0006EE175E085E998E00E946E466AE275E034
:104C000085E998E00E946E466A8570E04AE050E0CF
:104C100085E998E00E9466466EE175E085E998E0D6
:104C20000E946E466FE275E085E998E00E946E464C
:104C30006E8170E04AE050E085E998E00E946646A7
:104C40006EE175E085E998E00E946E4663E375E0E9
:104C500085E998E00E946E466F8170E04AE050E07E
:104C600085E998E00E9466466EE175E085E998E086
:104C70000E946E4667E375E085E998E00E946E4603
:104C80006F89062E000C770B4AE050E085E998E02A
:104C90000E9466466EE175E085E998E00E946E46E6
:104CA0006CE375E085E998E00E946E466B857C8533
:104CB0004AE050E085E998E00E9466466EE175E0C2
:104CC00085E998E00E946E4660E475E085E998E029
:104CD0000E946E466D857E854AE050E085E998E049
:104CE0000E9466466EE175E085E998E00E946E4696
:104CF00064E475E085E998E00E946E466F857889E6
:104D00004AE050E085E998E00E9466466EE175E071
:104D100085E998E00E946E4668E475E085E998E0D0
:104D20000E946E4669897A894AE050E085E998E0F8
:104D30000E9466466EE175E085E998E00E946E4645
:104D40006CE475E085E998E00E946E466B897C8989
:104D50004AE050E085E998E00E9466466EE175E021
:104D600085E998E00E946E4661E575E085E998E086
:104D70000E946E466D897E894AE050E085E998E0A0
:104D80000E94664685E998E00E94F545DF91CF9143
:104D90000895CF93DF93C6E8D7E0488159816A81AF
:104DA0007B8122E030E085E998E00E9401466FE5D2
:104DB00075E085E998E00E946E464C815D816E81C8
:104DC0007F8122E030E085E998E00E9401466FE5AE
:104DD00075E085E998E00E946E46488559856A85A8
:104DE0007B8522E030E085E998E00E9401466FE58E
:104DF00075E085E998E00E946E464C855D856E857C
:104E00007F8522E030E085E998E00E9401466FE569
:104E100075E085E998E00E946E46488959896A895B
:104E20007B8922E030E085E998E00E9401466FE549
:104E300075E085E998E00E946E464C8D5D8D6E8D23
:104E40007F8D22E030E085E998E00E9401466FE521
:104E500075E085E998E00E946E4648A159A16AA1D3
:104E60007BA122E030E085E998E00E9401466FE5F1
:104E700075E085E998E00E946E464CA15DA16EA1A7
:104E80007FA122E030E085E998E00E9401466FE5CD
:104E900075E085E998E00E946E4648A559A56AA587
:104EA0007BA522E030E085E998E00E94014685E993
:104EB00098E00E94F545DF91CF9108950F931F93DD
:104EC0008091B306882349F10E94812D0091AA06A2
:104ED0001091AB062091AC063091AD06DC01CB0100
:104EE000801B910BA20BB30B0091AE061091AF0685
:104EF0002091B0063091B106081719072A073B0721
:104F000060F40E94812D6093AA067093AB06809393
:104F1000AC069093AD060E94C9268091B206882304
:104F200021F01092B2060E94CA241F910F91089599
:104F300026E040E052EC61E070E085E998E00E94F4
:104F40001C471092B3061092B20684E690E0A0E0EF
:104F5000B0E08093AE069093AF06A093B006B093F6
:104F6000B10608950E940F590E94515008950E9461
:104F700061590E94EF210895823109F44DC028F44F
:104F8000823049F08330A1F054C0843159F1B8F136
:104F90008531D9F04EC07093BB066093BA0641E0EC
:104FA00050E066E771E280E00E94492F81E00895B9
:104FB0007093BD066093BC0641E050E061E371E28E
:104FC00081E00E94492F81E008957093BF066093AD
:104FD000BE0641E050E06CEE70E282E00E94492F94
:104FE00081E008957093C1066093C00641E050E0EF
:104FF00067EA70E283E00E94492F81E00895709390
:10500000C3066093C20641E050E062E670E284E0CD
:105010000E94492F81E008957093C5066093C406ED
:1050200041E050E06DE170E285E00E94492F81E0AF
:10503000089580E008950E94B2270E944B3F0E948D
:105040005E270E9464590E9421420E9444230895D1
:105050000E94B7270E94FC3E0E94B6420E949827F9
:105060000E9490590E948D2308958F92AF92CF9203
:10507000DF92EF92FF920F931F93CF93DF93EC0198
:10508000162FF42ED22E0E94E1218DE292E0998318
:1050900088831F921F921F921F928C2CAE2CC02EC1
:1050A000ED2C0F2D2FEF412F61E0CE010E94A023A8
:1050B0000F900F900F900F90DF91CF911F910F9154
:1050C000FF90EF90DF90CF90AF908F900895CF93A7
:1050D000DF93CDB7DEB728970FB6F894DEBF0FBECB
:1050E000CDBFFC01198280E48A8394E19B8394E51F
:1050F0009C831D828E8380E18F8380E588878781F2
:10510000481710F04FEF480F9085903179F48430B4
:1051100069F4A5E0B0E0AC0FBD1FA40FB11D8C91E8
:10512000680F6068CF010E94C6210CC0A1E0B0E00A
:10513000AC0FBD1FA40FB11D9C91690F6068CF011A
:105140000E94C62128960FB6F894DEBF0FBECDBFD1
:10515000DF91CF91089562E00E94C62180ED97E033
:105160000E943C2D089561E00E94C62180ED97E0E9
:105170000E943C2D0895CF93DF93EC01423018F04C
:105180008C8188608C834F836887222329F041308B
:1051900019F48C8184608C836C8164FD35C0E88156
:1051A000F9810684F785E02D42E063E0CE01199590
:1051B00084E991E10E943C2DE881F9810684F7851C
:1051C000E02D42E063E0CE01199586E990E00E946F
:1051D0003C2DE881F9810684F785E02D42E063E00B
:1051E000CE01199586E990E00E943C2DE881F98175
:1051F0000684F785E02D42E062E0CE01199586E94C
:1052000090E00E943C2D1AC06062CE010E94C6212F
:1052100084E991E10E943C2D6C816062CE010E9484
:10522000C62186E990E00E943C2D6C816062CE012F
:105230000E94C62186E990E00E943C2D6C8160624C
:10524000CE010E94C6218CE390E00E943C2D84E0B8
:105250008D83CE010E94D821CE010E94B32882E026
:105260008E8366E0CE010E94C621CE010E94CF212E
:10527000DF91CF910895089590E0FC013197E231DC
:10528000F10508F061C08827E251FF4F8F4F0C9461
:105290000062E0E8F0E080818F7780830895E0E8A5
:1052A000F0E080818F7D80830895E0E8F0E08081E8
:1052B000877F8083089584B58F7784BD089584B5F2
:1052C0008F7D84BD0895E0EBF0E080818F7780834F
:1052D0000895E0EBF0E080818F7D80830895E0E920
:1052E000F0E080818F7780830895E0E9F0E08081AD
:1052F0008F7D80830895E0E9F0E08081877F80835F
:105300000895E0EAF0E080818F7780830895E0EAF5
:10531000F0E080818F7D80830895E0EAF0E0808175
:10532000877F80830895E0E2F1E080818F7780833A
:105330000895E0E2F1E080818F7D80830895E0E2CE
:10534000F1E08081877F80830895789484B58260BE
:1053500084BD84B5816084BD85B5826085BD85B519
:10536000816085BDEEE6F0E0808181608083E1E8C8
:10537000F0E0108280818260808380818160808300
:10538000E0E8F0E0808181608083E1EBF0E0808103
:1053900084608083E0EBF0E0808181608083E1E9DC
:1053A000F0E0808182608083808181608083E0E999
:1053B000F0E0808181608083E1EAF0E080818260BA
:1053C0008083808181608083E0EAF0E08081816079
:1053D0008083E1E2F1E0808182608083808181606E
:1053E0008083E0E2F1E0808181608083EAE7F0E0A1
:1053F00080818460808380818260808380818160FD
:1054000080838081806880831092C10008953FB7B7
:10541000F8948091EB069091EC06A091ED06B09186
:10542000EE0626B5A89B05C02F3F19F00196A11DD9
:10543000B11D3FBFBA2FA92F982F8827820F911D2A
:10544000A11DB11DBC01CD01660F771F881F991FDB
:10545000660F771F881F991F089508950895823059
:10546000A9F028F4882349F0813051F00895843060
:1054700021F1E8F0853039F1089510926E00089519
:10548000EFE6F0E080818D7F80830895E0E7F0E033
:1054900080818D7F808381E08093B000E1EBF0E03C
:1054A0008081887F846080831092B3000895E1E753
:1054B000F0E080818D7F80830895E2E7F0E08081D5
:1054C0008D7F80830895E3E7F0E080818D7F808386
:1054D0000895E0E0F0E01E161F0664F0DF01AC5F07
:1054E000BD4F9C91981304C0EA55F84F84910895DC
:1054F0003196F1CFE0E0F0E01E161F0684F0DF01E8
:10550000AC5FBD4F9C919F3F41F4DF01AC5FBD4F4D
:105510008C93EA55F84F949103C03196EDCF9FEFED
:105520009F3F09F4D4C0923009F44CC02CF4992365
:1055300061F0913039F1CDC0943009F488C00CF499
:1055400066C0953009F4A3C0C4C014BC15BC24B512
:10555000226024BD25B5216025BD282F30E0F9014A
:10556000EB50F84FE491F0E0EE0FFF1FEF53F84FD0
:1055700045915491F901E55CF74F24912093CA06B7
:10558000892F089510928000E1E8F0E010822081D8
:1055900028602083208121602083282F30E0F901BA
:1055A000EB50F84FE491F0E0EE0FFF1FEF53F84F90
:1055B00045915491F901E55CF74F24912093C90678
:1055C000892F0895A0EBB0E01C92E1EBF0E010828F
:1055D0002C9122602C93208121602083282F30E0A1
:1055E000F901EB50F84FE491F0E0EE0FFF1FEF539D
:1055F000F84F459154915093E0064093DF06F9012E
:10560000E55CF74F24912093E106892F08951092CD
:105610009000E1E9F0E01082208128602083208161
:1056200021602083282F30E0F901EB50F84FE491FE
:10563000F0E0EE0FFF1FEF53F84F45915491F90141
:10564000E55CF74F24912093C806892F08951092A6
:10565000A000E1EAF0E01082208128602083208110
:1056600021602083282F30E0F901EB50F84FE491BE
:10567000F0E0EE0FFF1FEF53F84F45915491F90101
:10568000E55CF74F24912093C706892F0895109267
:105690002001E1E2F1E01082208128602083208156
:1056A00021602083282F30E0F901EB50F84FE4917E
:1056B000F0E0EE0FFF1FEF53F84F45915491F901C1
:1056C000E55CF74F24912093C606892F0895892F12
:1056D0000895892F08950E9479646FEF7FEF81E02C
:1056E00090E00E9484466FEF7FEF81E090E00E949F
:1056F000A3486FEF7FEF81E090E00E94AD486FEF2D
:105700007FEF81E090E00E94A1590895CF93DF934D
:10571000282F30E0F901EF57F74F8491F901E55C4C
:10572000F74FD491F901EB50F84FC491CC2389F095
:1057300081110E943C29EC2FF0E0EE0FFF1FE55293
:10574000F84FA591B491EC91ED2331F081E090E018
:1057500005C080E090E002C080E090E0DF91CF9152
:1057600008951F93CF93DF93282F30E0F901EF576F
:10577000F74F8491F901E55CF74F1491F901EB5073
:10578000F84FC491CC23D1F0D62F81110E943C292F
:10579000EC2FF0E0EE0FFF1FEF53F84FA591B491FF
:1057A0008FB7F894D11106C09C91E12FE095E923C1
:1057B000EC9303C0EC91E12BEC938FBFDF91CF9181
:1057C0001F910895CF93C82F20E030E012161306E2
:1057D0009CF0F901EC5FFD4F80818C130AC0F90148
:1057E000EA55F84F8491F901EC5FFD4F9FEF9083EC
:1057F00004C02F5F3F4FEACF8FEF0E942F2A60E057
:105800008C2F0E94B12BCF910895CF93DF9390E01E
:10581000FC01E55CF74F2491FC01EB50F84F8491BB
:10582000882379F190E0880F991FFC01E955F84F22
:10583000A591B491FC01EF53F84FC591D49161113A
:105840000CC09FB7F8948C91E22FE0958E238C9337
:105850002881E223E8839FBF14C0623061F49FB7C0
:10586000F8948C91322F309583238C93E881E22B2E
:10587000E8839FBF06C08FB7F894EC91E22BEC93BE
:105880008FBFDF91CF9108951F93CF93DF93182F90
:10589000EB0161E00E94052C209729F460E0812F44
:1058A0000E94B12BBCC0CF3FD10529F461E0812F0C
:1058B0000E94B12BB4C0E12FF0E0EF57F74FE49115
:1058C0008E2F90E0FC013197E231F10508F09BC08A
:1058D0008827E050FF4F8F4F0C94006284B580689A
:1058E00084BDC7BD9CC084B5806284BDC8BD97C05F
:1058F000E0E8F0E0808180688083D0938900C093E5
:1059000088008DC0E0E8F0E0808180628083D093E1
:105910008B00C0938A0083C0E0E8F0E0808188605B
:105920008083D0938D00C0938C0079C0E0EBF0E0D1
:10593000808180688083C093B30071C0E0EBF0E0A9
:10594000808180628083C093B40069C0E0E9F0E0A8
:10595000808180688083D0939900C09398005FC055
:10596000E0E9F0E0808180628083D0939B00C09367
:105970009A0055C0E0E9F0E0808188608083D09390
:105980009D00C0939C004BC0E0EAF0E080818068FD
:10599000808380818F7B8083D093A900C093A800EF
:1059A0003EC0E0EAF0E0808180628083D093AB006B
:1059B000C093AA0034C0E0EAF0E080818860808370
:1059C000D093AD00C093AC002AC0E0E2F1E080814A
:1059D00080688083D0932901C093280120C0E0E231
:1059E000F1E0808180628083D0932B01C0932A01F3
:1059F00016C0E0E2F1E0808188608083D0932D01C1
:105A0000C0932C010CC0C038D1052CF460E0812F6C
:105A10000E94B12B04C061E0812F0E94B12BDF9165
:105A2000CF911F910895863308F08653EBE7F0E09D
:105A3000908183FB222720F930E0220F331F220FB1
:105A4000331F220F331F977F292B20838770806499
:105A500080937C00EAE7F0E080818064808380911D
:105A60007A0086FDFCCF209178008091790090E04B
:105A7000982F8827822B08958230910538F0880F5F
:105A8000991F880F991F05970197F1F708958F9235
:105A90009F92AF92BF92CF92DF92EF92FF926B01F3
:105AA0007C010E94072A4B015C011DC021E0C21A43
:105AB000D108E108F10888EE880E83E0981EA11C49
:105AC000B11CC114D104E104F10469F00E94072A59
:105AD000DC01CB0188199909AA09BB09883E9340CA
