:100000000C94D3020C94050F0C94DA0E0C94AF0EE2
:100010000C94840E0C94590E0C942E0E0C94030E1A
:100020000C94D80D0C9404030C9404030C94040356
:100030000C9404030C9404030C9404030C94040324
:100040000C9404030C9404030C9404030C94040314
:100050000C9404030C9404030C9404030C94101BE0
:100060000C9404030C94710F0C94470F0C9404032C
:100070000C9404030C9404030C9404030C940403E4
:100080000C9404030C9404030C9404030C940403D4
:100090000C9404030C9404030C9404030C94A70F15
:1000A0000C9404030C9404030C9404030C940403B4
:1000B0000C9404030C9404030C9404030C940403A4
:1000C0000C9404030C9404030C9404030C94040394
:1000D0000C9404030C9404030C9404030C94040384
:1000E0000C9404032E22A32213237C22EC224D2302
:1000F00074236F251026C326D5238C243C25F62691
:10010000EE27F6282929F529D22A042BBD2B862C87
:10011000B82C702D382E6A2E222FEA2F1C30D430A6
:100120009A31CA317D32403371333234043535353A
:10013000FB35D2360437BE378B38DD38B038A53AB8
:10014000F13A633BA13BDA3B103C453C0A05A20572
:100150001C057D05F5053E06100776084D0744177A
:1001600049174E1758176217DB176C1774177C174F
:10017000861790179A17A917B317DB17BD17C7175C
:10018000D11702180518F417F817FE173C180918AC
:100190000D18131817181B182118251829183C18A2
:1001A0002F18331837180C94A2050C949A310C941C
:1001B00071330C949E040C940D180C947C170C94C1
:1001C00021180C9410260C94702D0C946F250C940F
:1001D00004350C94F5050C9435350C94A3220C943D
:1001E000F8170C94A9170C940A050C948C240C9401
:1001F0001C300C941B180C943C250C9437180C9450
:10020000862C0C9409180C944D230C94FE170C9416
:1002100029290C941C0C0C9432340C94BD030C94BE
:10022000633B0C94453C0C94B82C0C9440330C94D8
:100230007D320C943C180C9410070C94042B0C94F5
:100240004F0D0C94382E0C94D73E0C945E0D0C94EC
:10025000DB170C94C3260C940D0C0C94F13A0C94FF
:100260001C050C944C0D0C94BD2B0C9476080C942E
:100270006E040C944E170C94A3030C9413230C944B
:100280009A170C94F5290C9405180C94C30C0C9433
:100290007D050C94E30B0C94B3170C947A0D0C941D
:1002A000F4170C94A70D0C94CA310C942F180C94CD
:1002B000D5230C9474230C94D2360C94F6260C940B
:1002C00029180C94760C0C94720D0C948B380C94A9
:1002D00062170C94103C0C94D22A0C946C170C945A
:1002E0003E0C0C9413180C944E0D0C94D4300C94BA
:1002F000220B0C94300C0C94BD170C94DD380C942C
:100300004D070C94A9030C94A53A0C9425180C9451
:10031000AF030C9490170C94E20B0C946A2E0C947F
:10032000FB350C94EC220C9444170C943E060C9470
:1003300004370C9433180C94BE370C9417180C9493
:1003400082040C94C7170C94EE270C9474170C9429
:10035000D1170C94A13B0C94BC030C94B0380C94B2
:10036000F6280C942E220C9458170C94DA3B0C941B
:1003700086170C94EA2F0C94222F0C947C220C9458
:100380004D0D0C9402180C94491700407A10F35A42
:1003900000A0724E18090010A5D4E80000E87648C5
:1003A000170000E40B54020000CA9A3B000000E171
:1003B000F505000080969800000040420F00000004
:1003C000A08601000000102700000000E8030000E4
:1003D00000006400000000000A00000000000100AE
:1003E000000000002C76D888DC674F0823DFC1DFCF
:1003F000AE59E1B1B796E5E3E453C63AE6519976D2
:1004000096E8E6C28426EB898C9B62ED407C6FFC0B
:10041000EFBC9C9F40F2BAA56FA5F490055A2AF74D
:100420005C936B6CF9676DC11BFCE0E40D47FEF556
:1004300020E6B500D0ED902E0300943577050080BE
:10044000841E080000204E0A000000C80C3333331D
:10045000330F986E12831141EF8D2114893BE655BD
:1004600016CFFEE6DB18D1844B381BF77C1D901DA0
:10047000A4BBE424203284725E228100C9F124EC02
:10048000A1E53D2700000A0B02090C0D0E08070329
:100490000401000000000000000000000000000057
:1004A000000000000000000000000000000000004C
:1004B0001211100000000000000000000000000009
:1004C00000000000000000000000010210202008D1
:1004D000081020401020408002010201080402019F
:1004E000010204081020408080402010080402010E
:1004F0008004020180402010080402010804020167
:1005000001020408102040800102040810204080ED
:10051000000020002300260029002C002F003200BC
:100520000001000003010601090105050505070595
:1005300008080808020202020A0A0808040404045F
:10054000010101010101010103030303030303038B
:10055000040707070C0C0C0C0C0C0C0C020202021A
:1005600006060606060606060B0B0B0B0B0B0B0B03
:1005700000002100240027002A002D003000330055
:1005800001010000040107010A010000220025000A
:1005900028002B002E00310034000201000005016C
:1005A00008010B01D73E11241FBECFEFD1E2DEBF01
:1005B000CDBF00E00CBF15E0A0E0B2E0E0E5FBE855
:1005C00000E00BBF02C007900D92A63FB107D9F71C
:1005D0002CE0A6EFB5E001C01D92A038B207E1F70C
:1005E00012E0C3EDD2E000E006C021970109802FA0
:1005F000FE010E943143C23DD10780E00807A9F700
:100600000E945A1B0C94A6450C940000DC01ED914D
:10061000FD918081ED91FD919081ED91FD916C9125
:1006200063708E2309F064609F2309F06860E3E241
:10063000F3E0E60FF11D659565956D936D917D91E4
:100640008D919D91099423C01AC012C016C010C08C
:100650001EC009C014C013C006C019C009C00DC017
:1006600007C00DC014C062507040804090400BC065
:10067000615070408040904006C06E5F01C06F5F67
:100680007F4F8F4F9F4F9E938E937E936E930895CF
:1006900080912B0C823030F4F89480E29CE00E9430
:1006A000060301C0F8948091270C9091280CA0912A
:1006B000290CB0912A0C789480939C0B90939D0BFD
:1006C000A0939E0BB0939F0BF8941092270C10925E
:1006D000280C1092290C10922A0C78944091A00BAF
:1006E0005091A10B6091A20B7091A30B80919C0B78
:1006F00090919D0BA0919E0BB0919F0B840F951F25
:10070000A61FB71F8093A00B9093A10BA093A20BE1
:10071000B093A30B089580912B0B90912C0B0C940C
:1007200006038091290B90912A0B0C94060380916B
:10073000270B9091280B0C9406038091250B909128
:10074000260B0C9406038091230B9091240B0C94A0
:1007500006038091210B9091220B0C940603DC017F
:10076000ED91FC910684F785E02D41E0199581E03B
:1007700090E0089508950895089580E090E0089528
:10078000CF93C1E081E69AE00E943E0C892B09F4E8
:10079000A3C081E69AE00E941C0C853609F485C04E
:1007A000B4F48D32D1F174F48B3261F78091AE06DE
:1007B0009091AF06A091B006B091B106C296A11D6E
:1007C000B11D3BC08C3401F1853521F1DBCF803781
:1007D00009F445C09CF48C36B9F08F3699F62DECAF
:1007E0003CEC4CEC5DE36091100270911102809141
:1007F0001202909113020E9453433FC0823709F4C2
:1008000045C0853739F0BECF8091B2068C278093E2
:10081000B206B8CFC093AD06B5CF8091AE06909129
:10082000AF06A091B006B091B10683339105A10542
:10083000B10560F0C297A109B1098093AE0690930B
:10084000AF06A093B006B093B1069CCF1092AE064F
:100850001092AF061092B0061092B10693CF2DEC15
:100860003CEC4CEC5DE360911002709111028091C0
:100870001202909113020E945443609310027093ED
:10088000110280931202909313027CCF2DEC3CEC6A
:100890004CEC5DE360911402709115028091160298
:1008A000909117020E9454430EC02DEC3CEC4CEC8E
:1008B0005DE360911402709115028091160290918F
:1008C00017020E94534360931402709315028093A1
:1008D00016029093170256CFCF910895FC01868996
:1008E0008F3F79F021853285662319F0232B31F46F
:1008F00003C02130310511F461E001C060E00C94C7
:100900009B190895EF92FF921F93CF93DF93EC0111
:10091000162F7A0161E0812F0E94CA191E8BFA8678
:10092000E986E881F9810484F585E02D60E0CE0157
:10093000DF91CF911F91FF90EF9019940F931F9328
:10094000CF93DF93EC01162F042F61E0413009F0C3
:1009500060E08B850E949B198C858F3F19F060E0C9
:100960000E949B19023081F08C8184FF02C048E014
:100970000CC0612F70E084E0759567958A95E1F76A
:1009800044E0CE010E94341644E0612FCE01DF9195
:10099000CF911F910F910C9434164F925F926F92EA
:1009A0007F928F929F92AF92BF92CF92DF92EF92FF
:1009B000FF92CF93DF9300D000D0CDB7DEB786E0B3
:1009C0000E94721921E0892B09F420E02093690B21
:1009D00020E030E040EA50E46091DC0B7091DD0BE8
:1009E0008091DE0B9091DF0B0E941F4587FD04C0B4
:1009F0001092730710927207E0917207F0917307DB
:100A0000E930F10508F08AC38827EA55FF4F8F4F78
:100A10000C9431438AE894E00E9475161092D90B29
:100A20001092D80B82E090E0909373078093720746
:100A30008AE994E00E9475168091D80B9091D90BA9
:100A4000029709F583E090E09093D90B8093D80B3F
:100A50000E944A1A0E946D442091B00B3091B10B54
:100A60004091B20B5091B30B0E9454430E943E44FC
:100A70006093D00B7093D10B8093D20B9093D30BD8
:100A800081E08093DA0B8091690B882331F08091AB
:100A9000D80B9091D90B892B69F08091A00B909184
:100AA000A10BA091A20BB091A30B181619061A0660
:100AB0001B062CF46CE57FE882E290EC99C160E0C3
:100AC00070E0CB010E94F2168091D80B9091D90B67
:100AD000892B51F40E9448031092A00B1092A10B95
:100AE0001092A20B1092A30B83E090E090937307F7
:100AF0008093720780EB94E0FBC28091A00B9091F1
:100B0000A10BA091A20BB091A30B80399140A1053C
:100B1000B1054CF46AE47CE082E090E40E94F216B5
:100B20000E9448030FC060E070E0CB010E94F21603
:100B300081E090E090937307809372078BEC94E0D0
:100B40000E9475160E94AC148091D80B9091D90B1D
:100B50009C012350310922303105D8F484E090E023
:100B60009093D90B8093D80B0E944A1AC090D00B57
:100B7000D090D10BE090D20BF090D30B6C157D058B
:100B80008E059F0508F0D5C280917F0B8111D1C2DF
:100B90003CC5892B09F039C580919906882309F451
:100BA00034C50E94AC141092990684E090E09093B2
:100BB000D90B8093D80B80917E0B982F9D7F49F4A1
:100BC00084E090E0909373078093720787ED94E040
:100BD0008FC2813009F0A6C285E090E09093730740
:100BE000809372078DEE94E083C28091D80B909130
:100BF000D90B049711F40E943B158091A40B90919E
:100C0000A50BA091A60BB091A70B81579E4FAF4F9C
:100C1000BF4F4091A00B5091A10B6091A20B70911E
:100C2000A30B84179507A607B7070CF4DBC30E9434
:100C30004A1AC090C80BD090C90BE090CA0BF09034
:100C4000CB0B6C157D058E059F0508F0CBC360911D
:100C5000A2067091A30680E090E00E946D449B0183
:100C6000AC016091790670917A0680917B06909133
:100C70007C060E94C04387FD23C3B4C38091D80B78
:100C80009091D90B049711F40E943B150E944A1AC7
:100C9000C090C80BD090C90BE090CA0BF090CB0B62
:100CA0006C157D058E059F0508F033C48091A00B5F
:100CB0009091A10BA091A20BB091A30B8430904115
:100CC000A105B1050CF025C48091790690917A06B2
:100CD000A0917B06B0917C068093940B9093950B2A
:100CE000A093960BB093970B8091670B882321F00C
:100CF0008DE29BE00E94D9102091900B3091910BD6
:100D00004091920B5091930B6091980B7091990BBD
:100D100080919A0B90919B0B0E9453436B017C0135
:100D200020E030E0A9010E941F4518160CF414C4FD
:100D3000C701B601905820E030E040EA50E40E943C
:100D400053432EE135E84BEE5FE30E94244520E05B
:100D500030E040EF51E40E94C54323E333E343E333
:100D60005FE30E9454434B015C0120E030E0A901A5
:100D7000C701B6010E941F45A501940187FDEFC37D
:100D80006091880B7091890B80918A0B90918B0BED
:100D90000E9454436093880B7093890B80938A0B55
:100DA00090938B0BC090880BD090890BE0908A0BAE
:100DB000F0908B0B23E333E343E35FE3C701B6011A
:100DC0000E94C04387FFD6C383E393E3A3E3BFE35B
:100DD0008093880B9093890BA0938A0BB0938B0B15
:100DE0006091880B7091890B80918A0B90918B0B8D
:100DF0000E94F21626960FB6F894DEBF0FBECDBF46
:100E0000DF91CF91FF90EF90DF90CF90BF90AF90A8
:100E10009F908F907F906F905F904F900C944803BD
:100E20008AE495E00E9475164091A40B5091A50BA1
:100E30006091A60B7091A70B8091A80B9091A90BC4
:100E4000A091AA0BB091AB0B840F951FA61FB71FE3
:100E50004091A00B5091A10B6091A20B7091A30B3C
:100E600084179507A607B7074CF46AE47CE082E094
:100E700090EC0E94F2160E9448030FC060E070E000
:100E8000CB010E94F21682E090E09093730780936A
:100E900072078AE994E00E9475168091D80B9091B0
:100EA000D90B0197D1F523E333E343E35FE360918B
:100EB000880B7091890B80918A0B90918B0B0E940B
:100EC00053436B017C0120E030E040E251E460914B
:100ED000B80B7091B90B8091BA0B9091BB0B0E942B
:100EE000C5439B01AC01C701B6010E94C543609395
:100EF0008C0B70938D0B80938E0B90938F0B82E0F5
:100F000090E09093D90B8093D80B1092A80B10927D
:100F1000A90B1092AA0B1092AB0B0E944A1AC09018
:100F2000CC0BD090CD0BE090CE0BF090CF0B6C158E
:100F30007D058E059F0508F09CC00E944A1AC0904E
:100F40006607D0906707E0906807F0906907DC01BA
:100F5000CB018C199D09AE09BF090A97A105B105FE
:100F600008F453C365E675E081E69AE00E94450FF8
:100F70006091880B7091890B80918A0B90918B0BFB
:100F800042E00E943D180E946F166CE775E081E612
:100F90009AE00E94450F60918C0B70918D0B8091AF
:100FA0008E0B90918F0B42E00E943D180E946F16AD
:100FB00020918C0B30918D0B40918E0B50918F0BAB
:100FC0006091880B7091890B80918A0B90918B0BAB
:100FD0000E9453436093880B7093890B80938A0B14
:100FE00090938B0B23E333E343E35FE30E94C0431F
:100FF00087FF0CC083E393E3A3E3BFE38093800BFD
:101000009093810BA093820BB093830B0E944803B3
:101010004091A80B5091A90B6091AA0B7091AB0B5A
:1010200080919C0B90919D0BA0919E0BB0919F0B7A
:10103000840F951FA61FB71F8093A80B9093A90B31
:10104000A093AA0BB093AB0B6091880B7091890BA6
:1010500080918A0B90918B0B0E94F2160E944A1A83
:10106000609366077093670780936807909369079A
:10107000CCC260E070E0CB010E94F2166091A80B38
:101080007091A90B8091AA0B9091AB0B97FF03C0B5
:101090000E94C71603C04AE00E9484160E946F1681
:1010A00086E090E090937307809372078FE895E055
:1010B0000E94751680917207909173070E94E8163E
:1010C00026960FB6F894DEBF0FBECDBFDF91CF914D
:1010D000FF90EF90DF90CF90BF90AF909F908F9058
:1010E0007F906F905F904F900C946F1689EA95E017
:1010F00026960FB6F894DEBF0FBECDBFDF91CF911D
:10110000FF90EF90DF90CF90BF90AF909F908F9027
:101110007F906F905F904F900C94751681EB95E0E7
:101120000E94751681E090E0909373078093720798
:101130006CC281E08093DB0B80906A0790906B0714
:10114000A0906C07B0906D070E944A1A2B013C01D9
:101150008091D40B9091D50BA091D60BB091D70B69
:1011600089839A83AB83BC83209185063091860660
:10117000409187065091880660917D0670917E06A9
:1011800080917F06909180060E9453439B01AC01A1
:10119000C501B4010E94C5436B017C0160936E07D9
:1011A00070936F078093700790937107A0EDB8E07C
:1011B000E4E7F7E0FE83ED83CD010C972CE0FC0122
:1011C00001900D922A95E1F7DC014D815E8148176F
:1011D000590791F789819A81AB81BC81481A590AD4
:1011E0006A0A7B0A409278075092790760927A07E0
:1011F00070927B078092740790927507A092760791
:10120000B0927707C0927C07D0927D07E0927E076C
:10121000F0927F070E945714682F70E080E090E002
:101220000E946D44609375067093760680937706EE
:10123000909378068092890690928A06A0928B06F7
:10124000B0928C060E945714882EA12CB12C60E01D
:1012500070E0CB01912CA814B90488F4AD81BE8153
:101260002D913D914D915C910E945443BFEFAB1A7B
:10127000BB0AED81FE813C96FE83ED83ECCF20E03E
:1012800030E04AE754E40E94C54360938D067093B2
:101290008E0680938F0690939006C0929106D0920E
:1012A0009206E0929306F09294060E944A1A609386
:1012B000D40B7093D50B8093D60B9093D70B7BCC2C
:1012C0000E944A1A6093C00B7093C10B8093C20BAB
:1012D0009093C30BC090C40BD090C50BE090C60B8D
:1012E000F090C70B9B01AC012C193D094E095F0919
:1012F00069017A012093BC0B3093BD0B4093BE0B68
:101300005093BF0B6093C40B7093C50B8093C60BB7
:101310009093C70B8CE59FE8A2E2B0E48093800B2A
:101320009093810BA093820BB093830B0E94480390
:1013300060919C0B70919D0B80919E0B90919F0BE7
:101340000E946F449B01AC010E9454432BED3FE08F
:1013500049E450E40E9424454B015C01A0E0B2E462
:10136000A70196010E94394328EE33E040E050E0A7
:101370000E941243CA01B9010E946F449B01AC0153
:10138000C501B4010E94C5436093840B7093850B23
:101390008093860B9093870B80911E0C882321F0FD
:1013A00084EE9BE00E94D9106091880B7091890BAC
:1013B00080918A0B90918B0B26960FB6F894DEBF26
:1013C0000FBECDBFDF91CF91FF90EF90DF90CF9018
:1013D000BF90AF909F908F907F906F905F904F9055
:1013E0000C94F2166091A2067091A30680E090E042
:1013F0000E946D449B01AC016091790670917A0660
:1014000080917B0690917C060E941F4518167CF007
:101410000E944A1AC090C80BD090C90BE090CA0B2A
:10142000F090CB0B6C157D058E059F05E0F080914B
:10143000A40B9091A50BA091A60BB091A70B805780
:101440009E4FAF4FBF4F4091A00B5091A10B6091A9
:10145000A20B7091A30B84179507A607B70794F406
:1014600085E095E039C08091A00B9091A10BA091EF
:10147000A20BB091A30B843F9140A105B1050CF4E0
:1014800066C0D5CF0E944A1AC090C80BD090C90B35
:10149000E090CA0BF090CB0BC616D706E806F9060B
:1014A00018F485E195E018C06091A2067091A3063A
:1014B00080E090E00E946D449B01AC016091790650
:1014C00070917A0680917B0690917C060E941F4560
:1014D000181624F48DE195E00E9475160E94791487
:1014E00060936A0770936B0780936C0790936D0706
:1014F0006093E00B7093E10B8093E20B9093E30B0E
:1015000088E090E090937307809372078AE295E0F9
:10151000EFCD0E944A1A8090C80B9090C90BA09002
:10152000CA0BB090CB0BC090A00BD090A10BE09059
:10153000A20BF090A30B681579058A059B0550F561
:1015400034EFC31631E0D306E104F1041CF5109228
:1015500073071092720759C0C701B601ECCB6091B6
:10156000880B7091890B80918A0B90918B0B0E9454
:10157000534310CC2CE53FE842E250E4C701B601EA
:101580000E941F4518160CF02BCC8CE59FE8A2E2B8
:10159000B0E41ECC0E94791460936A0770936B07C5
:1015A00080936C0790936D076093E00B7093E10B51
:1015B0008093E20B9093E30B35E0C31630E1D30642
:1015C000E104F104ACF067E375E081E69AE00E9483
:1015D000450F60916A0770916B0780916C0790913D
:1015E0006D0742E00E943D1886ED92E00E9475165C
:1015F00082E090E090937307809372079093D90BE9
:101600008093D80B8AE994E073CD26960FB6F894B0
:10161000DEBF0FBECDBFDF91CF91FF90EF90DF9087
:10162000CF90BF90AF909F908F907F906F905F9082
:101630004F900895DC01ED91FC910684F785E02D33
:1016400040E019948F929F92AF92BF92CF92DF9217
:10165000EF92FF920F931F93CF93DF93EC014230F1
:1016600018F08C8188608C834F836887222329F04F
:10167000413019F48C8184608C830E94251A6B019F
:101680007C0184E6882E912CA12CB12C0E94251A75
:10169000DC01CB018C199D09AE09BF09883E93403E
:1016A000A105B10598F321E0821A9108A108B108BB
:1016B00088EEC80E83E0D81EE11CF11C8114910451
:1016C000A104B10419F76C8164FD31C0E881F9818E
:1016D0000684F785E02D42E063E0CE0119958BE4A6
:1016E00096E40197F1F7E881F9810684F785E02D0A
:1016F00042E063E0CE01199503E512E0C8010197CD
:10170000F1F7E881F9810684F785E02D42E063E096
:10171000CE011995C8010197F1F7E881F981068496
:10172000F785E02D42E062E0CE01199517C06062B6
:10173000CE010E941A0B8BE496E40197F1F76C81BD
:101740006062CE010E941A0B03E512E0C801019706
:10175000F1F76C816062CE010E941A0BC8010197FB
:10176000F1F76C816062CE010E941A0B8BEE90E063
:101770000197F1F784E08D836CE0CE010E941A0B93
:1017800061E0CE010E941A0B8BE39FE10197F1F714
:1017900082E08E8366E0CE010E941A0BE881F98117
:1017A0000484F585E02D6FEFCE01DF91CF911F917D
:1017B0000F91FF90EF90DF90CF90BF90AF909F90F0
:1017C0008F9019940895CF92DF92EF92FF920F932A
:1017D0001F93CF93DF936C017A018B01C0E0D0E0BF
:1017E000CE15DF0581F0D8016D918D01D601ED9107
:1017F000FC910190F081E02DC6011995892B11F023
:101800002196EECF7E01C701DF91CF911F910F91FD
:10181000FF90EF90DF90CF900895FC01538D448DA1
:10182000252F30E0842F90E0821B930B541710F08B
:10183000CF96089501970895FC01918D828D981798
:1018400061F0828DDF01A80FB11D5D968C91928DA4
:101850009F5F9F73928F90E008958FEF9FEF0895A1
:10186000FC01918D828D981731F0828DE80FF11D6A
:10187000858D90E008958FEF9FEF0895FC01918D85
:10188000228D892F90E0805C9F4F821B91098F737E
:101890009927089581E69AE00E943E0C21E0892B69
:1018A00009F420E0822F0895FC01848DDF01A80F48
:1018B000B11DA35ABF4F2C91848D90E001968F7378
:1018C0009927848FA689B7892C93A089B1898C9197
:1018D000837080648C93938D848D981306C00288E6
:1018E000F389E02D80818F7D80830895EF92FF92B0
:1018F0000F931F93CF93DF93EC0181E0888F9B8D33
:101900008C8D981305C0E889F989808185FD26C0F2
:10191000F62E0B8D10E00F5F1F4F0F731127E02E77
:101920008C8DE8120CC00FB607FCFACFE889F98954
:10193000808185FFF5CFCE010E94540CF1CF8B8DB5
:10194000FE01E80FF11DE35AFF4FF0829FB7F894B4
:101950000B8FEA89FB89808180620AC09FB7F89467
:10196000EE89FF896083E889F989808183708064CA
:1019700080839FBF81E090E0DF91CF911F910F9115
:10198000FF90EF900895CF93DF93EC01888D88232B
:10199000C9F0EA89FB89808185FD05C0A889B989DC
:1019A0008C9186FD0FC00FB607FCF5CF808185FFB7
:1019B000F2CFA889B9898C9185FFEDCFCE010E9425
:1019C000540CE7CFDF91CF9108950E944A0C81110A
:1019D00025C080E090E0892B41F080E090E0892BE9
:1019E00021F00E94000081111CC080E090E0892B52
:1019F00041F080E090E0892B21F00E9400008111ED
:101A000013C080E090E0892BA1F080E090E0892B6A
:101A100081F00E94000081110AC008950E94C00355
:101A2000D8CF0E940000E1CF0E940000EACF0C94C2
:101A30000000089585ED8093BC008091BC0084FD7A
:101A4000FCCF1092520C089540913E0A262F30E0B0
:101A5000240F311D21323105DCF42091520C243049
:101A6000C9F4FC0180E090E0861758F430913E0AFA
:101A70002191DC01A25EB54FA30FB11D2C930196FD
:101A8000F3CF80913E0A680F60933E0A80E008958C
:101A900081E0089582E00895089508950895E09101
:101AA000FB058091FA05E81730F4F0E0E450FA4FB6
:101AB000808190E008958FEF9FEF08959091FB054E
:101AC0008091FA05981750F4E92FF0E0E450FA4FAE
:101AD000208130E09F5F9093FB0502C02FEF3FEF26
:101AE000C90108958091FA0590E02091FB05821BC1
:101AF00091090895CF92DF92EF92FF920F931F9377
:101B0000CF93DF937C01CB018A012091530C2223D8
:101B100089F0EB016B01C40ED51ECC15DD0569F013
:101B20006991D701ED91FC910190F081E02DC70101
:101B30001995F3CF642F0E94240DC801DF91CF9136
:101B40001F910F91FF90EF90DF90CF900895CF936A
:101B5000DF931F92CDB7DEB769832091530C222308
:101B6000D1F02091760C203240F021E030E0FC01F1
:101B70003383228380E090E015C08091540CE82FDD
:101B8000F0E0EB5AF34F998190838F5F8093540C70
:101B90008093760C05C061E0CE0101960E94240D71
:101BA00081E090E00F90DF91CF9108950E949645DB
:101BB0001F920F920FB60F9211240BB60F922F9314
:101BC0003F934F935F936F937F938F939F93AF93C5
:101BD000BF93EF93FF93E0910E02F0910F021995DE
:101BE000FF91EF91BF91AF919F918F917F916F91F5
:101BF0005F914F913F912F910F900BBE0F900FBEB1
:101C00000F901F9018951F920F920FB60F921124EC
:101C10000BB60F922F933F934F935F936F937F93E6
:101C20008F939F93AF93BF93EF93FF93E0910C0239
:101C3000F0910D021995FF91EF91BF91AF919F9196
:101C40008F917F916F915F914F913F912F910F9065
:101C50000BBE0F900FBE0F901F9018951F920F9202
:101C60000FB60F9211240BB60F922F933F934F9301
:101C70005F936F937F938F939F93AF93BF93EF93F4
:101C8000FF93E0910202F09103021995FF91EF9109
:101C9000BF91AF919F918F917F916F915F914F9184
:101CA0003F912F910F900BBE0F900FBE0F901F9082
:101CB00018951F920F920FB60F9211240BB60F9228
:101CC0002F933F934F935F936F937F938F939F9344
:101CD000AF93BF93EF93FF93E0910002F091010265
:101CE0001995FF91EF91BF91AF919F918F917F9146
:101CF0006F915F914F913F912F910F900BBE0F907D
:101D00000FBE0F901F9018951F920F920FB60F9253
:101D100011240BB60F922F933F934F935F936F93C2
:101D20007F938F939F93AF93BF93EF93FF93E09134
:101D30000A02F0910B021995FF91EF91BF91AF91BB
:101D40009F918F917F916F915F914F913F912F91D3
:101D50000F900BBE0F900FBE0F901F9018951F9203
:101D60000F920FB60F9211240BB60F922F933F9341
:101D70004F935F936F937F938F939F93AF93BF9393
:101D8000EF93FF93E0910802F09109021995FF91FA
:101D9000EF91BF91AF919F918F917F916F915F91E3
:101DA0004F913F912F910F900BBE0F900FBE0F9050
:101DB0001F9018951F920F920FB60F9211240BB619
:101DC0000F922F933F934F935F936F937F938F93D4
:101DD0009F93AF93BF93EF93FF93E0910602F0912F
:101DE00007021995FF91EF91BF91AF919F918F914C
:101DF0007F916F915F914F913F912F910F900BBE0B
:101E00000F900FBE0F901F9018951F920F920FB654
:101E10000F9211240BB60F922F933F934F935F9322
:101E20006F937F938F939F93AF93BF93EF93FF93A2
:101E3000E0910402F09105021995FF91EF91BF9195
:101E4000AF919F918F917F916F915F914F913F9152
:101E50002F910F900BBE0F900FBE0F901F901895F3
:101E60006115710579F0FB0101900020E9F73197C8
:101E7000AF01461B570BDC01ED91FC910280F38111
:101E8000E02D199480E090E008950C94300F1F929B
:101E90000F920FB60F9211240BB60F922F933F9310
:101EA0004F935F936F937F938F939F93AF93BF9362
:101EB000EF93FF9381E69AE00E94540CFF91EF911B
:101EC000BF91AF919F918F917F916F915F914F9152
:101ED0003F912F910F900BBE0F900FBE0F901F9050
:101EE00018951F920F920FB60F9211240BB60F92F6
:101EF0002F938F939F93EF93FF93E091710AF0914B
:101F0000720A8081E091770AF091780A82FD12C00E
:101F1000908180917A0A8F5F8F7320917B0A82175C
:101F200051F0E0917A0AF0E0EF59F54F958F8093E8
:101F30007A0A01C08081FF91EF919F918F912F913B
:101F40000F900BBE0F900FBE0F901F9018951F9211
:101F50000F920FB60F9211240BB60F922F933F934F
:101F60004F935F936F937F938F939F93AF93BF93A1
:101F7000EF93FF938091B900887F803609F49CC06D
:101F800068F5883209F45BC090F4803109F454C0DC
:101F900038F4882309F4F6C0883009F44DC0F6C03F
:101FA000883109F44CC0803209F45DC0EFC0803440
:101FB00009F468C048F4803309F455C0883309F047
:101FC000E5C08093500CD8C0803509F44FC08835E7
:101FD00009F45DC0883409F0D9C0D6C0883909F445
:101FE000C7C0A8F4883709F467C038F4883609F404
:101FF00063C0803709F460C0C9C0883809F4B8C02C
:10200000803909F45FC0803809F0C0C05BC0803BF4
:1020100009F486C038F4803A09F466C0883A09F4B5
:102020007FC0B4C0803C09F4A7C0883C09F4A4C0B8
:10203000883B09F48AC0AAC080912D0C10C09091F1
:102040004F0C80914E0C981770F5E0914F0C81E089
:102050008E0F80934F0CF0E0E25DF34F8081809310
:10206000BB0085EC86C08093500C8EC0E0914F0C75
:1020700081E08E0F80934F0C8091BB00F0E0E25D19
:10208000F34F808390914F0C80914E0C6EC0E09185
:102090004F0C81E08E0F80934F0C8091BB00F0E0DD
:1020A000E25DF34F80838091510C81116DC081E01E
:1020B00080932C0C84EA61C083E08093520C1092D0
:1020C000600ACFCF8091600A803208F051C0E09161
:1020D000600A81E08E0F8093600A8091BB00F0E07F
:1020E000E05CF54F8083BDCF85EC8093BC001092FF
:1020F000520C8091600A803230F4E091600AF0E086
:10210000E05CF54F10826091600A70E0E091F605A6
:10211000F091F70580E49AE019951092600A36C0B4
:1021200084E08093520C10923F0A10923E0AE09194
:10213000F805F091F905199580913E0A811105C0C5
:1021400081E080933E0A10921E0AE0913F0A81E0EE
:102150008E0F80933F0AF0E0E25EF54F808180931E
:10216000BB0090913F0A80913E0A981708F479CFFE
:1021700085E88093BC000AC085EC8093BC00109277
:10218000520C04C01092500C0E941A0DFF91EF9156
:10219000BF91AF919F918F917F916F915F914F917F
:1021A0003F912F910F900BBE0F900FBE0F901F907D
:1021B00018952F923F924F925F926F927F928F92DB
:1021C0009F92AF92BF92CF92DF92EF92FF920F93C6
:1021D0001F93CF93DF93CDB7DEB72F970FB6F89449
:1021E000DEBF0FBECDBF9F878E870E944A1A6D83C8
:1021F0007E838F839887EE85FF8582A193A1A4A11A
:10220000B5A14D815E816F817885481B590B6A0BA2
:102210007B0B86A597A5A0A9B1A9481759076A07FE
:102220007B0708F40EC1048CF58DE02D808191812F
:10223000A281B38189839A83AB83BC83AE85BF853A
:102240009096ED91FC91919729813A814B815C8127
:1022500060817181828193810E9453434B015C01B3
:10226000EE85FF8522A533A544A555A569817A8110
:102270008B819C810E9453436B017C01AE85BF859D
:1022800050962D913D914D915C915397C501B401AC
:102290000E942445EE85FF8526A137A140A551A5C2
:1022A0000E9454432B013C01AE85BF8596966D93E9
:1022B0007D938D939C939997DB96BC91B987B111CF
:1022C00018C0EE85FF852485358546855785C7016D
:1022D000B6010E9424459B01AC01C301B2010E94DA
:1022E0005343AE85BF8596966D937D938D939C9356
:1022F0009997EE85FF8546A057A060A471A416A902
:1023000007A930AC21AC212F302F432D522DC30112
:10231000B2010E941F4518162CF4812F902FA32D77
:10232000B22D18C0AE85BF85D2968D919D910D902E
:10233000BC91A02D8A879B87AC87BD879C01AD018E
:10234000C301B2010E94C04387FF0AC08A859B85F2
:10235000AC85BD85EE85FF8586A397A3A0A7B1A711
:10236000F985FF2379F0AE85BF851C962D913D91AF
:102370004D915C911F97C501B4010E9424454B010A
:102380005C0103C0812C912C5401EE85FF852489CA
:10239000358946895789C701B6010E9424459B01AA
:1023A000AC01AE85BF8596966D917D918D919C9186
:1023B00099970E945343A50194010E9454436B01D5
:1023C0007C019B01AC01612F702F832D922D0E9407
:1023D000C04387FD14C0EE85FF8512A903A934A868
:1023E00025A8212F302F432D522DB601C7010E9461
:1023F000C04387FD04C01C2D0D2D3E2C2F2CAE8517
:10240000BF855E96ED91FC915F97812F902FA32D54
:10241000B22D80839183A283B38389819A81AB811A
:10242000BC81EE85FF8582A793A7A4A7B5A78D8160
:102430009E81AF81B88582A393A3A4A3B5A381E0B5
:1024400001C080E02F960FB6F894DEBF0FBECDBF5F
:10245000DF91CF911F910F91FF90EF90DF90CF9080
:10246000BF90AF909F908F907F906F905F904F90B4
:102470003F902F9008958F929F92AF92BF92CF92EC
:10248000DF92EF92FF92CF93DF93EC01EE8DFF8D01
:10249000C080D180E280F380CEA2DFA2E8A6F9A6B8
:1024A000EC8DFD8D80819181A281B3818AA79BA74C
:1024B000ACA7BDA78EA89FA8A8ACB9ACA5019401F4
:1024C000C701B6010E941F45181664F08AA89BA890
:1024D000ACA8BDA8A5019401C701B6010E94C043E4
:1024E00087FF04C08EA29FA2A8A6B9A6DF91CF91B4
:1024F000FF90EF90DF90CF90BF90AF909F908F9024
:1025000008950E944A1A60931A0A70931B0A8093D6
:102510001C0A90931D0A80E00895CF92DF92EF92FB
:10252000FF920F931F93611571058105910541F489
:102530001F910F91FF90EF90DF90CF900C9481123C
:102540006B017C010E944A1A00911A0A10911B0A21
:1025500020911C0A30911D0ADC01CB01801B910BDC
:10256000A20BB30B21E0C816D906EA06FB0608F059
:1025700020E0822F1F910F91FF90EF90DF90CF907E
:1025800008958F929F92AF92BF92EF92FF920F9316
:102590001F93CF93DF93C82FD0E08E01000F111F40
:1025A0000055164FF801208131812115310521F0A8
:1025B00021303105A1F16FC00E947219009719F006
:1025C0000197A1F16BC00E944A1A9E01220F331F8E
:1025D000220F331FA9014452574F7A01FA0180801C
:1025E0009180A280B380DC01CB0188199909AA09E6
:1025F000BB090697A105B10508F450C081E090E041
:10260000F80191838083C85DD94F88830E944A1A5C
:10261000F701608371838283938381E040C00E94CD
:102620007219009719F0019771F038C00E944A1A88
:10263000CC0FDD1FCC0FDD1FC452D74F68837983C9
:102640008A839B832BC00E944A1A9E01220F331F4C
:10265000220F331FA9014452574F7A01FA0180809B
:102660009180A280B380DC01CB0188199909AA0965
:10267000BB090697A105B10588F0F8011182108207
:10268000C85DD94F18820E944A1AF701608371838E
:102690008283938303C0F8011182108280E0DF916E
:1026A000CF911F910F91FF90EF90BF90AF909F90AF
:1026B0008F90089561E08AE09BE00E941A0B8BE303
:1026C0009FE10197F1F70895CF92DF92EF92FF9289
:1026D0000F931F93CF93DF93CDB7DEB728970FB635
:1026E000F894DEBF0FBECDBF8A01C0901802D09013
:1026F0001902E0901A02F0901B02CD82DE82EF8276
:10270000F886C0901C02D0901D02E0901E02F0904E
:102710001F02C982DA82EB82FC829091110B691749
:1027200010F06FEF690F4091120B262F30E0FE0181
:10273000E20FF31F403121F4943011F4618101C0A4
:102740006581680F60688AE09BE00E941A0BB801FF
:102750008AE09BE028960FB6F894DEBF0FBECDBF8F
:10276000DF91CF911F910F91FF90EF90DF90CF906D
:102770000C94450FAF92BF92CF92DF92EF920F93DE
:102780001F93CF935B016A01C22FAC0160E080E030
:102790000E946413A50160E088E00E946413A60112
:1027A00061E08C2F0E946413A80161E08E2DCF910F
:1027B0001F910F91EF90DF90CF90BF90AF900C944E
:1027C000641320E042E060E18AE09BE00E94220B7B
:1027D00062E08AE09BE00E941A0B8BE39FE1019785
:1027E000F1F70E945A1344EC55E060E080E00E944B
:1027F000641345ED55E061E080E00E94641310929F
:1028000074061092730610925E0610925D0662E0E6
:102810008AE20E94CA1962E08CE20E94CA1962E050
:102820008EE20E94CA1962E080E30E94CA1962E047
:1028300088E20E94CA190E948112EFE5F6E082E068
:10284000818384EF91E0968785878EE090E0908B7E
:10285000878782E090E0928B818B8EE084838EE18B
:10286000858387E0868389E182838AE083838EE1A2
:1028700090E09287818787E090E0948783878EEF4E
:10288000838B84E190E0908787830895CF93C82F4E
:102890000E944A1A24E0C29FF0011124E45EF94F1D
:1028A000608371838283938380E0CF9108950F9337
:1028B0001F93E4E7F7E080E090E040E050E0BA01E9
:1028C0000481158126813781400F511F621F731FBC
:1028D00041362AEE52076105710510F08F5F06C080
:1028E00001963C968E31910559F780E01F910F912A
:1028F00008958091A00B9091A10BA091A20BB09193
:10290000A30BBC01CD0160597140810991090E945E
:102910006F449B01AC010E9454432BED3FE049E41E
:1029200050E40E94244520E030E044E856E40E9450
:10293000C54320E030E040E752E40E94244523E60E
:102940003FEB4FE356E40E94244520E030E04AE7A5
:1029500054E40E94C543089580919906882309F4A0
:1029600089C08091D80B9091D90B892B11F01092CE
:10297000990660919D0670E080E090E00E946D44B1
:1029800060936A0B70936B0B80936C0B90936D0B41
:102990006091A6067091A70680E090E00E946D44C9
:1029A0006093720B7093730B8093740B9093750B01
:1029B00060919B0670E080E090E00E946D4420E012
:1029C00030E048EC52E40E94C5436093760B70936C
:1029D000770B8093780B9093790B60919C0670E055
:1029E00080E090E00E946D4420E030E048EC52E44A
:1029F0000E94C54360937A0B70937B0B80937C0B92
:102A000090937D0B6091A0067091A10680E090E00C
:102A10000E946D446093900B7093910B8093920B86
:102A20009093930B80919A0680937E0B6091AC06F5
:102A3000062E000C770B880B990B0E946F44209197
:102A400085063091860640918706509188060E943F
:102A500054439B01AC016091790670917A06809194
:102A60007B0690917C060E94C043881F8827881FA0
:102A700080937F0B08954F925F926F927F928F9217
:102A80009F92AF92BF92CF92DF92EF92FF9281E03E
:102A900090E09093D90B8093D80B20916A0B3091E2
:102AA0006B0B40916C0B50916D0B60E070E68AE609
:102AB00097E40E94C5434B015C014090760B509017
:102AC000770B6090780B7090790BA30192010E94B4
:102AD00024456B017C016093AC0B7093AD0B80932C
:102AE000AE0B9093AF0BA301920160E070E080E821
:102AF0009FE30E945343A50194010E9424456093E3
:102B0000B00B7093B10B8093B20B9093B30B80908A
:102B10007A0B90907B0BA0907C0BB0907D0BA50165
:102B2000940160E070E080E89FE30E945343A701B6
:102B300096010E9424456093B40B7093B50B80936B
:102B4000B60B9093B70BA5019401C701B6010E9483
:102B500024456093B80B7093B90B8093BA0B909394
:102B6000BB0B0E944A1A0E946D442091AC0B30911D
:102B7000AD0B4091AE0B5091AF0B0E9454430E949D
:102B80003E446093CC0B7093CD0B8093CE0B90930F
:102B9000CF0B0E944A1A0E946D442091B40B3091D1
:102BA000B50B4091B60B5091B70B0E9454430E9455
:102BB0003E446093C80B7093C90B8093CA0B9093EB
:102BC000CB0B20E030E04AE754E46091720B709147
:102BD000730B8091740B9091750B0E94244523E632
:102BE0003FEB4FE356E40E94C54320E030E040E76E
:102BF00052E40E94C54320E030E044E856E40E94DD
:102C000024452BED3FE049EC50E40E94C5436B01A5
:102C10007C0120E030E0A9010E941F4520E030E067
:102C200040E05FE387FD05C0C701B6010E94544341
:102C300004C0C701B6010E9453430E943744609309
:102C4000A40B7093A50B8093A60B9093A70BFF90FA
:102C5000EF90DF90CF90BF90AF909F908F907F903C
:102C60006F905F904F900895AF92BF92CF92DF9296
:102C7000EF92FF920F931F93CF93DF938C015C0130
:102C80008EE0A80EB11CC42ED12CC0E0D0E0E62E00
:102C9000F12CCC15DD0579F0B7010C2E02C075952D
:102CA00067950A94E2F76170F50181915F010E94D6
:102CB0009B192196EECF61E0F80185850E949B1952
:102CC00060E0F8018585DF91CF911F910F91FF9012
:102CD000EF90DF90CF90BF90AF900C949B1966EE71
:102CE00075E081E69AE00C94300FCF93DF93BC013E
:102CF00081E69AE00E94300FEC010E946F168C0F63
:102D00009D1FDF91CF9108958F929F92AF92BF92B6
:102D10000F931F93CF93DF93CDB7DEB7A1970FB675
:102D2000F894DEBF0FBECDBF19A2423008F44AE0CE
:102D30008E010F5D1F4F842E912CA12CB12CA5016B
:102D400094010E94F042E62FB901CA010150110915
:102D5000EA3014F4E05D01C0E95CD801EC93232B68
:102D6000242B252B61F7B80181E69AE00E94300FF1
:102D7000A1960FB6F894DEBF0FBECDBFDF91CF9105
:102D80001F910F91BF90AF909F908F900895CF9219
:102D9000DF92EF92FF92CF93DF936B017C016DE2A4
:102DA00081E69AE00E94760CEC0166277727CB013A
:102DB0006C197D098E099F094AE00E9484168C0FC8
:102DC0009D1FDF91CF91FF90EF90DF90CF900895FE
:102DD000BC01990F880B990B97FD0C94C7164AE01C
:102DE0000C948416CF92DF92EF92FF92CF93DF93F1
:102DF0006B017C0120E030E0A9010E94C04387FF05
:102E000006C0F7FAF094F7F8F09460E001C061E0D2
:102E100084E00E949B192CE53FE842E250E4C701A0
:102E2000B6010E94C54320E030E04FE753E40E9422
:102E300024450E9437446B017C01EB0161E085E091
:102E40000E94CA19209711F460E004C0CF3FD10559
:102E500051F461E085E0DF91CF91FF90EF90DF903A
:102E6000CF900C949B19E9E8F4E0E4918E2F90E068
:102E7000FC013197E231F10508F09DC08827E1554A
:102E8000FF4F8F4F0C94314384B5806884BDC7BC1D
:102E900097C084B5806284BDC8BC92C08091800018
:102EA000806880938000D0928900C092880088C09A
:102EB00080918000806280938000D0928B00C092CD
:102EC0008A007EC080918000886080938000D092CC
:102ED0008D00C0928C0074C08091B0008068809397
:102EE000B000C092B3006CC08091B000806280934B
:102EF000B000C092B40064C080919000806880935C
:102F00009000D0929900C09298005AC08091900091
:102F1000806280939000D0929B00C0929A0050C033
:102F200080919000886080939000D0929D00C09224
:102F30009C0046C08091A00080688093A000809192
:102F4000A0008F7B8093A000D092A900C092A8001F
:102F500037C08091A00080628093A000D092AB0027
:102F6000C092AA002DC08091A00088608093A0002C
:102F7000D092AD00C092AC0023C080912001806847
:102F800080932001D0922901C092280119C080911C
:102F90002001806280932001D0922B01C0922A01EF
:102FA0000FC080912001886080932001D0922D0174
:102FB000C0922C0105C0C038D1050CF04ACF44CFD7
:102FC000DF91CF91FF90EF90DF90CF90089590E048
:102FD000FC013197E231F10508F04EC08827EF532C
:102FE000FF4F8F4F0C943143809180008F7703C047
:102FF000809180008F7D8093800008958091800073
:10300000877FF9CF84B58F7702C084B58F7D84BD6B
:1030100008958091B0008F7703C08091B0008F7DBC
:103020008093B0000895809190008F7707C08091C1
:1030300090008F7D03C080919000877F80939000E7
:1030400008958091A0008F7707C08091A0008F7DA8
:1030500003C08091A000877F8093A0000895809195
:1030600020018F7707C0809120018F7D03C0809160
:103070002001877F8093200108958F929F92AF92C5
:10308000BF92CF92DF92EF92FF920F931F93CF9355
:10309000DF936B017C01142F9B01AC010E949145D1
:1030A000882319F069EE75E027C046015701E894BE
:1030B000B7F82FEF3FEF4FE75FE7C501B4010E947C
:1030C000914581110DC02FEF3FEF4FE75FE7C5013D
:1030D000B4010E94C04318161CF46DEE75E00CC0DC
:1030E0002FEF3FEF4FE75FE4C701B6010E941F4596
:1030F000181694F461EF75E081E69AE0DF91CF91C4
:103100001F910F91FF90EF90DF90CF90BF90AF9005
:103110009F908F900C94300F2FEF3FEF4FE75FECB5
:10312000C701B6010E94C04387FDE4CF20E030E034
:10313000A901C701B6010E94C04387FF0BC06DE221
:1031400081E69AE00E94760CEC01F7FAF094F7F829
:10315000F09402C0C0E0D0E000E060E070E080E009
:103160009FE3101741F020E030E040E251E40E947C
:10317000C5430F5FF6CFA70196010E9454436B0130
:103180007C010E943E444B015C014AE00E9484168F
:10319000C80FD91F1123B9F1C501B4010E946D44B4
:1031A0009B01AC01C701B6010E9453436B017C0136
:1031B0006EE281E69AE00E94760CC80FD91F20E0EB
:1031C00030E040E251E4C701B6010E9424454B01C2
:1031D0005C010E943E446B01E12CF12C4AE0C701E6
:1031E000B6010E948416C80FD91FC701B6010E94FC
:1031F0006D449B01AC01C501B4010E9453436B01B6
:103200007C011150E1F6CE01DF91CF911F910F911A
:10321000FF90EF90DF90CF90BF90AF909F908F90F6
:103220000895282F3091760C313208F04AC08091F1
:10323000520C8111FCCF9091750C42E04093520CDE
:103240002093510C2FEF2093500C10924F0C309381
:103250004E0CE5E5FCE0AEE2BCE020E0321721F0E8
:1032600041914D932F5FFACF10922D0C20912D0C90
:10327000990F922B90932D0C90912C0C913061F41E
:1032800010922C0C90912D0C9093BB009091BC004F
:1032900093FDF8CF95EC01C095EE9093BC00909112
:1032A000520C9230E1F39091500C9F3F79F0809155
:1032B000500C803241F08091500C803331F084E02A
:1032C00005C081E003C082E001C083E01092540C8D
:1032D0001092760C1092530C0895682F8EEF9AE09E
:1032E0000C94A70DCF93DF93282F30E0F901EC5712
:1032F000FB4F8491F901E653FB4FD491F901E65D50
:10330000FA4FC491CC2391F081110E94E717EC2F62
:10331000F0E0EE0FFF1FE05FFA4FA591B491EC9142
:10332000ED2381E090E021F480E002C080E090E0B5
:10333000DF91CF9108951F93CF93DF93282F30E033
:10334000F901EC57FB4F8491F901E653FB4FD491FF
:10335000F901E65DFA4FC491CC23C1F0162F81111B
:103360000E94E717EC2FF0E0EE0FFF1FE657FA4F31
:10337000A591B4919FB7F894111104C08C91D09588
:10338000D82302C0EC91DE2BDC939FBFDF91CF915D
:103390001F910895CF93DF9390E0FC01E653FB4F1C
:1033A0002491FC01E65DFA4F8491882361F190E05D
:1033B000880F991FFC01E059FA4FC591D491FC0187
:1033C000E657FA4FA591B491611109C09FB7F894DF
:1033D0008881209582238883EC912E230BC0623054
:1033E00061F49FB7F8948881322F309583238883C6
:1033F000EC912E2B2C939FBF06C08FB7F894E881D9
:103400002E2B28838FBFDF91CF910895863308F04C
:10341000865390917B00282F2870977F922B909352
:103420007B008770806480937C0080917A00806448
:1034300080937A0080917A0086FDFCCF809178009D
:103440002091790090E0922B08953FB7F8948091F5
:103450007C0C90917D0CA0917E0CB0917F0C26B5D8
:10346000A89B05C02F3F19F00196A11DB11D3FBFBC
:10347000BA2FA92F982F8827820F911DA11DB11D4A
:10348000BC01CD0142E0660F771F881F991F4A9546
:10349000D1F708952FB7F8946091780C7091790C5A
:1034A00080917A0C90917B0C2FBF08954F925F9280
:1034B0006F927F928F929F92AF92BF92CF92DF9244
:1034C000EF92FF920F931F93CF93DF93CDB7DEB7A9
:1034D0004C01DC015F965C934E935E975D967C9306
:1034E0006E935C9791963C932E939097DA961C92EC
:1034F000FC0112AA13AA14AA15AA80E090E0AFE773
:10350000B3E486AB97ABA0AFB1AF84E690E0A0E0A8
:10351000B0E086A797A7A0ABB1AB118E108E20E0CC
:1035200030E0A901C801B7010E94C04387FD56C021
:1035300020E030E0A901C601B5010E94C04387FD2B
:103540004DC020E030E0A9016C897D898E899F897A
:103550000E94C04387FD42C081E090E0D4015B96A9
:103560009C938E935A97DB968C93DB97F401E082C1
:10357000F182028313831496AD92BD92CD92DC92B8
:1035800017978C899D89AE89BF8980879187A2878B
:10359000B387D4011C96ED92FD920D931C931F9757
:1035A0002DEC3CEC4CEC5DE3C601B5010E942445DA
:1035B000F401608B718B828B938B2DEC3CEC4CEC8B
:1035C0005DE36C897D898E899F890E94C543D40102
:1035D00054966D937D938D939C9357970E944A1AAE
:1035E000F401C6A4D7A4E0A8F1A8DC01CB018C1992
:1035F0009D09AE09BF0982A393A3A4A3B5A3DF913C
:10360000CF911F910F91FF90EF90DF90CF90BF90DF
:10361000AF909F908F907F906F905F904F900895A4
:103620001F920F920FB60F9211242F933F938F93F7
:103630009F93AF93BF938091780C9091790CA09158
:103640007A0CB0917B0C3091770C23E0230F2D374F
:1036500020F40196A11DB11D05C026E8230F029696
:10366000A11DB11D2093770C8093780C9093790C59
:10367000A0937A0CB0937B0C80917C0C90917D0C84
:10368000A0917E0CB0917F0C0196A11DB11D80937D
:103690007C0C90937D0CA0937E0CB0937F0CBF911B
:1036A000AF919F918F913F912F910F900FBE0F90EF
:1036B0001F901895CF93DF93CDB7DEB7E2970FB683
:1036C000F894DEBF0FBECDBF789484B5826084BD10
:1036D00084B5816084BD85B5826085BD85B5816016
:1036E00085BD80916E00816080936E001092810094
:1036F000809181008260809381008091810081604F
:10370000809381008091800081608093800080910F
:10371000B10084608093B1008091B000816080939B
:10372000B00080919100826080939100809191001F
:1037300081608093910080919000816080939000DF
:103740008091A10082608093A1008091A10081609E
:103750008093A1008091A00081608093A00080915F
:1037600021018260809321018091210181608093F9
:1037700021018091200181608093200180917A0055
:10378000846080937A0080917A00826080937A00CE
:1037900080917A00816080937A0080917A008068BD
:1037A00080937A001092C1000E94E1131092B90632
:1037B0001092B8061092B4061092B5061092B60692
:1037C0001092B7061092B30610921E0710921D07B2
:1037D0001092FB051092FA051092540C1092760C80
:1037E0001092520C81E08093510C10922C0C61E0ED
:1037F00084E10E949B1961E085E10E949B19809100
:10380000B9008E7F8093B9008091B9008D7F80933D
:10381000B90088E48093B80085E48093BC008CE410
:103820009DE09093F9058093F8058DE49DE09093D9
:10383000F7058093F6051092350710923407109221
:103840006A0B10926B0B10926C0B10926D0B109216
:103850006E0B10926F0B1092700B1092710B1092F6
:10386000760B1092770B1092780B1092790B1092C6
:103870007A0B10927B0B10927C0B10927D0B1092A6
:103880007E0B1092800B1092810B1092820B109283
:10389000830B1092840B1092850B1092860B109262
:1038A000870B1092880B1092890B10928A0B109242
:1038B0008B0B10928C0B10928D0B10928E0B109222
:1038C0008F0B1092900B1092910B1092920B109202
:1038D000930B1092940B1092950B1092960B1092E2
:1038E000970B1092980B1092990B10929A0B1092C2
:1038F0009B0B10929C0B10929D0B10929E0B1092A2
:103900009F0B1092A00B1092A10B1092A20B109281
:10391000A30B1092A40B1092A50B1092A60B109261
:10392000A70B1092A80B1092A90B1092AA0B109241
:10393000AB0B1092AC0B1092AD0B1092AE0B109221
:10394000AF0B1092B00B1092B10B1092B20B109201
:10395000B30B1092B40B1092B50B1092B60B1092E1
:10396000B70B1092B80B1092B90B1092BA0B1092C1
:10397000BB0B1092BC0B1092BD0B1092BE0B1092A1
:10398000BF0B1092C00B1092C10B1092C20B109281
:10399000C30B1092C40B1092C50B1092C60B109261
:1039A000C70B1092C80B1092C90B1092CA0B109241
:1039B000CB0B1092CC0B1092CD0B1092CE0B109221
:1039C000CF0B1092D00B1092D10B1092D20B109201
:1039D000D30B1092D40B1092D50B1092D60B1092E1
:1039E000D70B1092D90B1092D80B1092DA0B1092C1
:1039F000DB0B80E090E0A0E0B0E48093DC0B9093E0
:103A0000DD0BA093DE0BB093DF0B1092E00B109256
:103A1000E10B1092E20B1092E30B80911E0C8111CE
:103A200004C084EE9BE00E943B1281E080931E0C58
:103A3000BEE0CB2EBFE4DB2EBFE1EB2EB0ECFB2EC5
:103A4000C092160CD092170CE092180CF092190C40
:103A50001EE0412E1FE4512E1FE1612E10E4712E55
:103A600040921A0C50921B0C60921C0C70921D0C10
:103A70000091020C1091030CF80180809180A280CB
:103A8000B380A3019201C501B4010E941F4518161D
:103A900034F4F80140825182628273820FC02EE0BA
:103AA0003FE44FE150ECC501B4010E94C04387FFE1
:103AB00005C0F801C082D182E282F38280900A0CB4
:103AC00090900B0CA0900C0CB0900D0CC0901A0CA8
:103AD000D0901B0CE0901C0CF0901D0CA7019601DF
:103AE000C501B4010E941F45181684F0C090160C41
:103AF000D090170CE090180CF090190CA7019601CB
:103B0000C501B4010E94C04387FF08C0C0920A0CDF
:103B1000D0920B0CE0920C0CF0920D0C6091120CF8
:103B20007091130C8091140C9091150C0E946D44AF
:103B30009B01AC0160E070E080E291E40E94C5432B
:103B40006B017C019B01AC016091F40B7091F50B52
:103B50008091F60B9091F70B0E9424456093F40B33
:103B60007093F50B8093F60B9093F70BA7019601DA
:103B70006091F80B7091F90B8091FA0B9091FB0B0F
:103B80000E94C5436093F80B7093F90B8093FA0B76
:103B90009093FB0B8AE090E0A0E0B0E08093120CE1
:103BA0009093130CA093140CB093150C8091670B99
:103BB000811104C08DE29BE00E943B1281E0809362
:103BC000670BC12CD12CF0EAEF2EF0E4FF2EC0924F
:103BD0005F0BD092600BE092610BF092620B412C74
:103BE000512CACE06A2EA2E47A2E4092630B5092E4
:103BF000640B6092650B7092660B00914B0B1091F9
:103C00004C0BF80180809180A280B380A3019201C7
:103C1000C501B4010E941F45181634F4F801408212
:103C20005182628273820FC020E030E040EA50E4AB
:103C3000C501B4010E94C04387FF05C0F801C082DE
:103C4000D182E282F3828090530B9090540BA0902B
:103C5000550BB090560BC090630BD090640BE09066
:103C6000650BF090660BA7019601C501B4010E9497
:103C70001F45181684F0C0905F0BD090600BE09049
:103C8000610BF090620BA7019601C501B4010E947F
:103C9000C04387FF08C0C092530BD092540BE092F0
:103CA000550BF092560B60915B0B70915C0B809101
:103CB0005D0B90915E0B0E946D449B01AC0160E036
:103CC00070E080E291E40E94C5436B017C019B019E
:103CD000AC0160913D0B70913E0B80913F0B909138
:103CE000400B0E94244560933D0B70933E0B8093E4
:103CF0003F0B9093400BA70196016091410B70918F
:103D0000420B8091430B9091440B0E94C5436093FA
:103D1000410B7093420B8093430B9093440B8AE0CA
:103D200090E0A0E0B0E080935B0B90935C0BA093DD
:103D30005D0BB0935E0B61E085E00E94CA1961E003
:103D400084E00E94CA1960E086E00E94CA19E091EE
:103D5000710AF091720A82E08083E0916D0AF0911D
:103D60006E0A1082E0916F0AF091700A80E1808300
:103D70001092790AE091750AF091760A86E08083C4
:103D8000E091730AF091740A808180618083E091F0
:103D9000730AF091740A808188608083E091730ACD
:103DA000F091740A808180688083E091730AF091B9
:103DB000740A80818F7D80831092B2061092AD06C6
:103DC00084E690E0A0E0B0E08093AE069093AF066A
:103DD000A093B006B093B10661E08DE00E94CA19CD
:103DE00052E0852E912CCC24C394D12C75E0A72EC3
:103DF000B12CEAE02E2E312C8091FB069091FC062E
:103E0000A091FD06B091FE068093790690937A0604
:103E1000A0937B06B0937C068091DA0B882381F116
:103E20001092DA0B8091FF0690910007A091010794
:103E3000B09102071092FF0610920007109201073E
:103E40001092020780937D0690937E06A0937F06D2
:103E5000B093800680910707882391F0109207079E
:103E60008091030790910407A0910507B091060780
:103E70008093810690938206A0938306B093840674
:103E80008091DB0B8823C1F01092DB0B8091070738
:103E9000882391F0109207078091030790910407FF
:103EA000A0910507B091060780938506909386063A
:103EB000A0938706B09388068091B8069091B906C2
:103EC0008130910581F1C0F0029709F024C1109270
:103ED000B9061092B8061092FB061092FC061092DA
:103EE000FD061092FE068AEB96E09FA78EA78C0136
:103EF00060E070E0CB0183C00E944A1A00911C066A
:103F000010911D0620911E0630911F06DC01CB0189
:103F1000801B910BA20BB30B0B97A105B10508F405
:103F2000FAC00C948C3E10917A0080917A00887FC0
:103F3000846080937A0086E30E94061A10937A00C8
:103F4000BC01990F880B990B0E946F4420E030E070
:103F500040E752E40E94244520E030EC4FE754E46F
:103F60000E94C54320E030E0A9010E94544320E0B4
:103F700030E040E85EE30E9424452091B406309191
:103F8000B5064091B6065091B7060E94544360931F
:103F9000B4067093B5068093B6069093B706209149
:103FA000B306233019F59092B9068092B806209195
:103FB000FA0630E02F5F3F4F2F7033272093FA0629
:103FC000220F331F220F331FF901E654F94F60838C
:103FD0007183828393831092B3061092B406109279
:103FE000B5061092B6061092B70695C01092B906A3
:103FF0001092B80681E0820F8093B3068CC0F8015E
:1040000021913191419151918F010E945443F6E0E9
:104010000A3F1F07A1F720E030E040E85DE30E947F
:1040200024452B013C016093FB067093FC068093B2
:10403000FD069093FE06E090FF06F09000070091C9
:10404000010710910207E091FA0624E0E29FF001D7
:104050001124E654F94F40814AA7818188AB9281AF
:1040600099AB23812AAB242F382F492F5AA9B701A6
:10407000C8010E941F45181624F0EAA4F8A809A94F
:104080001AA9C701D8018093FF0690930007A09357
:104090000107B0930207EEA5FFA56191719181918F
:1040A0009191FFA7EEA7A30192010E9453436AA733
:1040B0007BA78CA79DA720E030E0A9010E941F45A7
:1040C00018166CF420E030E040E850E46AA57BA5C7
:1040D0008CA59DA50E941F451816ECF00CC020E091
:1040E00030E040E850EC6AA57BA58CA59DA50E9418
:1040F000C04387FD10C08EA59FA58A5F964059F6E4
:1041000081E0809307074092030750920407609272
:1041100005077092060780911D0790911E07813058
:10412000910569F1A8F0029709F0B2C010921E073C
:1041300010921D07109218071092190710921A0773
:1041400010921B0708E017E0412C512C320180C06F
:104150000E944A1A00912006109121062091220601
:1041600030912306DC01CB01801B910BA20BB30B1A
:104170000B97A105B10508F48BC00C94953E909265
:104180001E0780921D0780911C0790E001968370A6
:10419000992780931C078091520C8111FCCF81E0FC
:1041A0008093520C8093510C9FEF9093500C10927F
:1041B0004F0C92E090934E0C80932D0C80912D0C1F
:1041C000806880932D0C80912C0C813061F41092CA
:1041D0002C0C80912D0C8093BB008091BC0083FD42
:1041E000F8CF85EC01C085EE8093BC008091520C25
:1041F0008130E1F380914F0C833018F410914F0C13
:1042000001C013E0EEE2FCE0ACEFB5E080E0811726
:1042100021F091919D938F5FFACF1092FB0510933F
:10422000FA05112321F08EEF9AE00E945E0D809135
:10423000FB05181721F08EEF9AE00E945E0D809129
:10424000FB05181729F18EEF9AE00E945E0D20C041
:10425000F80161917191819191918F0120E030E09D
:1042600040E85EE30E9424459B01AC01C301B2011A
:104270000E9454432B013C01F7E008311F0741F72E
:10428000609318077093190780931A0790931B0780
:1042900080913407909135078130910569F1A8F03C
:1042A000029709F08FC010923507109234071092D0
:1042B0002F071092300710923107109232070FE14A
:1042C00017E0412C512C32015CC00E944A1A009127
:1042D0002406109125062091260630912706DC0140
:1042E000CB01801B910BA20BB30B4597A105B10528
:1042F00008F468C00C94C63E90923507809234074B
:104300008091330790E0019683709927809333075B
:1043100010917A0080917A00887F846080937A007F
:1043200087E30E94061A10937A000091330724E075
:10433000029F80011124015E184FBC01990F880B68
:10434000990B0E946F4420E030E040E252E40E946A
:10435000244520E030EC4FE754E40E94C54320E0C0
:1043600030E040EA51E40E94534324EA30E74DE351
:104370005EE30E94C543F801608371838283938367
:1043800021C0F80161917191819191918F0120E09B
:1043900030E040E85EE30E9424459B01AC01C3018C
:1043A000B2010E9454432B013C018FE297E0801739
:1043B000910739F740922F075092300760923107EA
:1043C000709232070E94CD041982809173069091F9
:1043D00074068230910511F40C948D3930F40097F5
:1043E00091F0019759F10C94963C8430910511F4A9
:1043F0000C947C3C10F40C949A3C059711F40C94AA
:10440000853C0C94963C8EE20E94C112882311F4E4
:104410000C949A3C0E945A1348E552E060E080E018
:104420000E94641349E652E061E080E00E94641358
:10443000D0927406C09273060C947F391A8AE09168
:104440005D06F0915E06ED32F10510F00C947339C3
:104450008827EE58FF4F8F4F0C9431438AE20E9419
:10446000C112882361F04AE752E061E080E00E94D7
:10447000641390925E0680925D060C9477398CE20C
:104480000E94C112882361F04BE852E061E080E0B5
:104490000E946413D0925E06C0925D060C94773938
:1044A00080E30E94C112882369F082E08093600655
:1044B0008CE290E090935E0680935D060E948112EC
:1044C0000C94773964EF71E080E090E00E948D12E7
:1044D000882311F40C947739E3E0F0E0F0935E0662
:1044E000E0935D064CE952E061E080E00E946413D5
:1044F0000E9481120C9477398AE20E94C1128111C4
:10450000B2CF8CE20E94C1128111BECF80E30E9423
:10451000C1128111CACF6AEF70E080E090E00E9482
:104520008D12882311F40C94773949E652E061E04A
:1045300080E00E94641310925E0610925D060E9455
:1045400081120C9477398AE20E94C112882361F0AB
:1045500049E652E061E080E00E94641310925E063A
:1045600010925D060C9477398CE20E94C112811181
:104570007ACF80E30E94C112882399F04BE852E081
:1045800061E080E00E9464131092600696E0492E7C
:10459000512C50925E0640925D060E9481120C944E
:1045A000773964EF71E080E090E00E948D128823FB
:1045B00011F40C94773984E0682E712C70925E06A9
:1045C00060925D064CE952E061E080E00E94641375
:1045D0000E9481120C9477398AE20E94C1128111E3
:1045E000B7CF8CE20E94C11281113DCF80E30E94BF
:1045F000C1128111C3CF6AEF70E080E090E00E94A9
:104600008D12882311F40C947739D0925E06C092F3
:104610005D064BE852E061E080E00E9464130E9476
:1046200081120C9477398AE20E94C11281112CCF39
:104630008CE20E94C11281118BCF80E30E94C112D3
:10464000882399F04AE752E061E080E00E94641319
:1046500081E08093600686E090E090935E06809310
:104660005D060E9481120C94773964EF71E080E05E
:1046700090E00E948D12882311F40C947739B09247
:104680005E06A0925D064CE952E061E080E00E9487
:1046900064130E9481120C9477398AE20E94C1123D
:1046A0008111F2CE8CE20E94C112811151CF80E3C0
:1046B0000E94C1128111C6CF6AEF70E080E090E0E5
:1046C0000E948D12882311F40C94773990925E0623
:1046D00080925D064AE752E061E080E00E94641348
:1046E0000E9481120C94773964EF71E080E090E0D1
:1046F0000E948D12882311F40C9477398091600602
:10470000813039F50E945A134DEA52E060E080E0B2
:104710000E9464134AE0BE016E5E7F4F8091660680
:10472000909167060E946C406EEB72E0CE0142965B
:104730000E949B45AE014E5E5F4F61E080E00E94AB
:10474000641330925E0620925D060E9481120C94E2
:10475000773981110C9477390E945A1345EC52E055
:1047600060E080E00E9464134AE0BE016E5E7F4F0D
:1047700080916C0690916D060E946C4066ED72E02F
:10478000CE0142960E949B45AE014E5E5F4F61E0B6
:1047900080E00E946413E7E0F0E0F0935E06E093AF
:1047A0005D060E9481120C9477398AE20E94C11240
:1047B000882341F1809166069091670683329105C6
:1047C00010F4019602C083E290E090936706809314
:1047D00066064AE0BE016E5E7F4F8091660690914C
:1047E00067060E946C406EEB72E0CE0142960E941A
:1047F0009B45AE014E5E5F4F61E080E00E94641316
:104800000C9477398CE20E94C112882351F1809177
:104810006606909167068630910530F00197909377
:1048200067068093660604C0B0926706A09266068B
:104830004AE0BE016E5E7F4F8091660690916706EA
:104840000E946C406EEB72E0CE0142960E949B4546
:10485000AE014E5E5F4F61E080E00E9464130C94F5
:10486000773980E30E94C112882309F14AE0BE0132
:104870006E5E7F4F80916606909167060E946C4045
:104880006EEB72E0CE0142960E949B45AE014E5EF9
:104890005F4F61E080E00E9464138CE090E09093B1
:1048A0005E0680935D060E9481120C94773988E23F
:1048B0000E94C1128823B1F00E945A1348E552E0C9
:1048C00060E080E00E94641349E652E061E080E02D
:1048D0000E94641310925E0610925D060E9481127F
:1048E0000C94773964EF71E080E090E00E948D12C3
:1048F000882311F40C9477398BE090E090935E0656
:1049000080935D064CE952E061E080E00E94641310
:104910000E9481120C9477398AE20E94C112882386
:1049200041F180916606909167068332910510F4FB
:10493000019602C083E290E090936706809366063A
:104940004AE0BE016E5E7F4F8091660690916706D9
:104950000E946C406EEB72E0CE0142960E949B4535
:10496000AE014E5E5F4F61E080E00E9464130C94E4
:1049700077398CE20E94C112882351F1809166063A
:10498000909167068630910530F001979093670605
:104990008093660604C0B0926706A09266064AE05D
:1049A000BE016E5E7F4F80916606909167060E9401
:1049B0006C406EEB72E0CE0142960E949B45AE01C8
:1049C0004E5E5F4F61E080E00E9464130C94773983
:1049D00080E30E94C112882309F14AE0BE016E5EA5
:1049E0007F4F80916606909167060E946C406EEB47
:1049F00072E0CE0142960E949B45AE014E5E5F4F33
:104A000061E080E00E9464138CE090E090935E0689
:104A100080935D060E9481120C94773988E20E948F
:104A2000C112811149CF6AEF70E080E090E00E94EE
:104A30008D12882311F40C9477394AE0BE016E5E22
:104A40007F4F80916606909167060E946C406EEBE6
:104A500072E0CE0142960E949B45AE014E5E5F4FD2
:104A600061E080E00E94641330925E0620925D0651
:104A70000E9481120C94773964EF71E080E090E03D
:104A80000E948D12882311F40C9477390E945A13D6
:104A900049ED52E060E080E00E9464134AE0BE010C
:104AA0006E5E7F4F80916E0690916F060E946C4003
:104AB0006AEE72E0CE0142960E949B45AE014E5EC8
:104AC0005F4F61E080E00E9464138DE090E090937E
:104AD0005E0680935D060E9481120C9477398AE20B
:104AE0000E94C112882349F180916C0690916D0655
:104AF0008032F3E09F0710F4C29602C080E293E098
:104B000090936D0680936C064AE0BE016E5E7F4F07
:104B100080916C0690916D060E946C4066ED72E08B
:104B2000CE0142960E949B45AE014E5E5F4F61E012
:104B300080E00E9464130C9477398CE20E94C112C9
:104B4000882349F180916C0690916D068D3221E0A9
:104B5000920710F0C29702C08CE291E090936D062C
:104B600080936C064AE0BE016E5E7F4F80916C06BA
:104B700090916D060E946C4066ED72E0CE01429607
:104B80000E949B45AE014E5E5F4F61E080E00E9457
:104B900064130C94773980E30E94C112882309F1D1
:104BA0004AE0BE016E5E7F4F80916C0690916D066B
:104BB0000E946C4066ED72E0CE0142960E949B45D9
:104BC000AE014E5E5F4F61E080E00E94641389E0B9
:104BD00090E090935E0680935D060E9481120C9493
:104BE000773988E20E94C112811166CE64EF71E0CC
:104BF00080E090E00E948D12882311F40C947739A4
:104C000088E090E090935E0680935D064CE952E068
:104C100061E080E00E9464130E9481120C94773955
:104C20008AE20E94C112882349F180916C0690911A
:104C30006D06803243E0940710F4C29602C080E211
:104C400093E090936D0680936C064AE0BE016E5E21
:104C50007F4F80916C0690916D060E946C4066EDCE
:104C600072E0CE0142960E949B45AE014E5E5F4FC0
:104C700061E080E00E9464130C9477398CE20E941A
:104C8000C112882349F180916C0690916D068D3296
:104C9000E1E09E0710F0C29702C08CE291E0909391
:104CA0006D0680936C064AE0BE016E5E7F4F809178
:104CB0006C0690916D060E946C4066ED72E0CE012C
:104CC00042960E949B45AE014E5E5F4F61E080E0E0
:104CD0000E9464130C94773980E30E94C1128823E8
:104CE00009F14AE0BE016E5E7F4F80916C069091A3
:104CF0006D060E946C4066ED72E0CE0142960E9405
:104D00009B45AE014E5E5F4F61E080E00E94641300
:104D100089E090E090935E0680935D060E94811288
:104D20000C94773988E20E94C1128111C5CD6AEFD7
:104D300070E080E090E00E948D12882311F40C94C2
:104D400077394AE0BE016E5E7F4F80916C0690918C
:104D50006D060E946C4066ED72E0CE0142960E94A4
:104D60009B45AE014E5E5F4F61E080E00E946413A0
:104D700007E0402E512C50925E0640925D060E9444
:104D800081120C94773964EF71E080E090E00E942A
:104D90008D12882311F40C9477390E945A1349ED2F
:104DA00052E060E080E00E9464134AE0BE016E5E63
:104DB0007F4F80916E0690916F060E946C406AEE64
:104DC00072E0CE0142960E949B45AE014E5E5F4F5F
:104DD00061E080E00E9464138DE090E090935E06B5
:104DE00080935D060E9481120C9477398AE20E94BA
:104DF000C112882341F180916E0690916F06803137
:104E0000910510F4019602C080E190E090936F0646
:104E100080936E064AE0BE016E5E7F4F80916E0603
:104E200090916F060E946C406AEE72E0CE0142964D
:104E30000E949B45AE014E5E5F4F61E080E00E94A4
:104E400064130C9477398CE20E94C112882341F1DB
:104E500080916E0690916F068D30910510F001974C
:104E600002C08CE090E090936F0680936E064AE05B
:104E7000BE016E5E7F4F80916E0690916F060E941C
:104E80006C406AEE72E0CE0142960E949B45AE01F4
:104E90004E5E5F4F61E080E00E9464130C947739AE
:104EA00080E30E94C112882309F14AE0BE016E5ED0
:104EB0007F4F80916E0690916F060E946C406AEE63
:104EC00072E0CE0142960E949B45AE014E5E5F4F5E
:104ED00061E080E00E9464138FE090E090935E06B2
:104EE00080935D060E9481120C94773988E20E94BB
:104EF000C112882309F458C080916006813039F5C9
:104F00000E945A134DEA52E060E080E00E94641370
:104F10004AE0BE016E5E7F4F809166069091670603
:104F20000E946C406EEB72E0CE0142960E949B455F
:104F3000AE014E5E5F4F61E080E00E9464133092EC
:104F40005E0620925D060E9481120C9477398111D1
:104F50000C9477390E945A1345EC52E060E080E0EF
:104F60000E9464134AE0BE016E5E7F4F80916C0622
:104F700090916D060E946C4066ED72E0CE01429603
:104F80000E949B45AE014E5E5F4F61E080E00E9453
:104F9000641317E0612E712C70925E0660925D06BC
:104FA0000E9481120C94773964EF71E080E090E008
:104FB0000E948D12882311F40C9477398EE090E0D2
:104FC00090935E0680935D064CE952E061E080E0DC
:104FD0000E9464130E9481120C9477398AE20E9425
:104FE000C112882341F180916E0690916F06803145
:104FF000910510F4019602C080E190E090936F0655
:1050000080936E064AE0BE016E5E7F4F80916E0611
:1050100090916F060E946C406AEE72E0CE0142965B
:105020000E949B45AE014E5E5F4F61E080E00E94B2
:1050300064130C9477398CE20E94C112882341F1E9
:1050400080916E0690916F068D30910510F001975A
:1050500002C08CE090E090936F0680936E064AE069
:10506000BE016E5E7F4F80916E0690916F060E942A
:105070006C406AEE72E0CE0142960E949B45AE0102
:105080004E5E5F4F61E080E00E9464130C947739BC
:1050900080E30E94C112882309F14AE0BE016E5EDE
:1050A0007F4F80916E0690916F060E946C406AEE71
:1050B00072E0CE0142960E949B45AE014E5E5F4F6C
:1050C00061E080E00E9464138FE090E090935E06C0
:1050D00080935D060E9481120C94773988E20E94C9
:1050E000C112882309F457C080916006813039F5D8
:1050F0000E945A134DEA52E060E080E00E9464137F
:105100004AE0BE016E5E7F4F809166069091670611
:105110000E946C406EEB72E0CE0142960E949B456D
:10512000AE014E5E5F4F61E080E00E9464133092FA
:105130005E0620925D060E9481120C9477398111DF
:105140000C9477390E945A1345EC52E060E080E0FD
:105150000E9464134AE0BE016E5E7F4F80916C0630
:1051600090916D060E946C4066ED72E0CE01429611
:105170000E949B45AE014E5E5F4F61E080E00E9461
:10518000641387E090E090935E0680935D060E9432
:1051900081120C94773964EF71E080E090E00E9416
:1051A0008D12882311F40C9477394AE0BE016E5EAB
:1051B0007F4F80916E0690916F060E946C406AEE60
:1051C00072E0CE0142960E949B45AE014E5E5F4F5B
:1051D00061E080E00E9464138DE090E090935E06B1
:1051E00080935D060E9481120C94773964EF71E020
:1051F00080E090E00E948D12882311F40C9477399E
:105200000E945A134EEE52E060E080E00E94641368
:105210004AE0BE016E5E7F4F8091700690917106EC
:105220000E946C406AEE72E0CE0142960E949B455D
:10523000AE014E5E5F4F61E080E00E94641380E14A
:1052400090E090935E0680935D060E9481120C941C
:1052500077398AE20E94C112882351F18091700649
:10526000909171068530910530F401969093710606
:105270008093700604C0B0927106A09270064AE056
:10528000BE016E5E7F4F80917006909171060E9404
:105290006C406AEE72E0CE0142960E949B45AE01E0
:1052A0004E5E5F4F61E080E00E9464130C9477399A
:1052B0008CE20E94C112882351F180917006909176
:1052C00071068230910530F00197909371068093BA
:1052D000700604C0D0927106C09270064AE0BE010A
:1052E0006E5E7F4F80917006909171060E946C40B7
:1052F0006AEE72E0CE0142960E949B45AE014E5E80
:105300005F4F61E080E00E9464130C94773980E382
:105310000E94C112882309F14AE0BE016E5E7F4FF0
:1053200080917006909171060E946C406AEE72E066
:10533000CE0142960E949B45AE014E5E5F4F61E0FA
:1053400080E00E94641382E190E090935E06809377
:105350005D060E9481120C94773988E20E94C11286
:10536000882349F10E945A1349ED52E060E080E041
:105370000E9464134AE0BE016E5E7F4F80916E060C
:1053800090916F060E946C406AEE72E0CE014296E8
:105390000E949B45AE014E5E5F4F61E080E00E943F
:1053A00064138DE090E090935E0680935D060E940A
:1053B00081120C94773964EF71E080E090E00E94F4
:1053C0008D12882311F40C94773981E190E0909349
:1053D0005E0680935D064CE952E061E080E00E9449
:1053E00064130E9481120C9477398AE20E94C112E0
:1053F000882351F180917006909171068530910556
:1054000030F40196909371068093700604C0B092B8
:105410007106A09270064AE0BE016E5E7F4F8091D9
:105420007006909171060E946C406AEE72E0CE01A7
:1054300042960E949B45AE014E5E5F4F61E080E068
:105440000E9464130C9477398CE20E94C112882365
:1054500051F180917006909171068230910530F083
:105460000197909371068093700604C0D0927106E4
:10547000C09270064AE0BE016E5E7F4F809170065A
:10548000909171060E946C406AEE72E0CE014296E5
:105490000E949B45AE014E5E5F4F61E080E00E943E
:1054A00064130C94773980E30E94C112882309F1B8
:1054B0004AE0BE016E5E7F4F80917006909171064A
:1054C0000E946C406AEE72E0CE0142960E949B45BB
:1054D000AE014E5E5F4F61E080E00E94641382E1A6
:1054E00090E090935E0680935D060E9481120C947A
:1054F000773988E20E94C112882349F10E945A1329
:1055000049ED52E060E080E00E9464134AE0BE0191
:105510006E5E7F4F80916E0690916F060E946C4088
:105520006AEE72E0CE0142960E949B45AE014E5E4D
:105530005F4F61E080E00E9464138DE090E0909303
:105540005E0680935D060E9481120C94773964EFA9
:1055500071E080E090E00E948D12882311F40C9499
:1055600077394AE0BE016E5E7F4F80917006909160
:1055700071060E946C406AEE72E0CE0142960E9473
:105580009B45AE014E5E5F4F61E080E00E94641378
:1055900080E190E090935E0680935D060E94811208
:1055A0000C94773964EF71E080E090E00E948D12F6
:1055B000882311F40C9477390E945A134FEF52E06C
:1055C00060E080E00E946413809163064AE0BE01BF
:1055D0006E5E7F4F90E00E946C406BEA72E0CE01FD
:1055E00042960E949B45AE014E5E5F4F61E080E0B7
:1055F0000E94641383E190E090935E0680935D06C1
:105600000E9481120C9477398AE20E94C112882389
:1056100009F1809163068E3110F48F5F01C08EE135
:1056200080936306809163064AE0BE016E5E7F4F01
:1056300090E00E946C406BEA72E0CE0142960E94BC
:105640009B45AE014E5E5F4F61E080E00E946413B7
:105650000C9477398CE20E94C112882309F1809161
:105660006306863010F0815001C085E080936306A8
:10567000809163064AE0BE016E5E7F4F90E00E941B
:105680006C406BEA72E0CE0142960E949B45AE01EF
:105690004E5E5F4F61E080E00E9464130C947739A6
:1056A00080E30E94C112882301F1809163064AE0E1
:1056B000BE016E5E7F4F90E00E946C406BEA72E02C
:1056C000CE0142960E949B45AE014E5E5F4F61E067
:1056D00080E00E94641385E190E090935E068093E1
:1056E0005D060E9481120C94773988E20E94C112F3
:1056F000882349F10E945A134EEE52E060E080E0A8
:105700000E9464134AE0BE016E5E7F4F80916E0678
:1057100090916F060E946C406BEA72E0CE01429657
:105720000E949B45AE014E5E5F4F61E080E00E94AB
:10573000641380E190E090935E0680935D060E9482
:1057400081120C94773964EF71E080E090E00E9460
:105750008D12882311F40C94773984E190E09093B2
:105760005E0680935D064CE952E061E080E00E94B5
:1057700064130E9481120C9477398AE20E94C1124C
:10578000882309F1809163068E3110F48F5F01C088
:105790008EE180936306809163064AE0BE016E5EEF
:1057A0007F4F90E00E946C406BEA72E0CE0142961F
:1057B0000E949B45AE014E5E5F4F61E080E00E941B
:1057C00064130C9477398CE20E94C112882309F18A
:1057D00080916306863010F0815001C085E080938F
:1057E0006306809163064AE0BE016E5E7F4F90E0E3
:1057F0000E946C406BEA72E0CE0142960E949B458B
:10580000AE014E5E5F4F61E080E00E9464130C9435
:10581000773980E30E94C112882301F180916306E9
:105820004AE0BE016E5E7F4F90E00E946C406BEAE2
:1058300072E0CE0142960E949B45AE014E5E5F4FE4
:1058400061E080E00E94641385E190E090935E0641
:1058500080935D060E9481120C94773988E20E9441
:10586000C112882349F10E945A134EEE52E060E0C3
:1058700080E00E9464134AE0BE016E5E7F4F80911B
:105880006E0690916F060E946C406BEA72E0CE014A
:1058900042960E949B45AE014E5E5F4F61E080E004
:1058A0000E94641380E190E090935E0680935D0611
:1058B0000E9481120C94773964EF71E080E090E0EF
:1058C0000E948D12882311F40C947739809163061D
:1058D0004AE0BE016E5E7F4F90E00E946C406BEA32
:1058E00072E0CE0142960E949B45AE014E5E5F4F34
:1058F00061E080E00E94641383E190E090935E0693
:1059000080935D060E9481120C94773964EF71E0F8
:1059100080E090E00E948D12882311F40C94773976
:105920000E945A1340E153E060E080E00E9464135B
:10593000809164064AE0BE016E5E7F4F90E00E9457
:105940006C406BEA72E0CE0142960E949B45AE012C
:105950004E5E5F4F61E080E00E94641386E190E05C
:1059600090935E0680935D060E9481120C947739B5
:105970008AE20E94C112882309F180916406833271
:1059800010F48F5F01C083E2809364068091640607
:105990004AE0BE016E5E7F4F90E00E946C406BEA71
:1059A00072E0CE0142960E949B45AE014E5E5F4F73
:1059B00061E080E00E9464130C9477398CE20E94CD
:1059C000C112882309F1809164068A3110F0815058
:1059D00001C089E180936406809164064AE0BE01BB
:1059E0006E5E7F4F90E00E946C406BEA72E0CE01E9
:1059F00042960E949B45AE014E5E5F4F61E080E0A3
:105A00000E9464130C94773980E30E94C1128823AA
:105A100001F1809164064AE0BE016E5E7F4F90E026
:105A20000E946C406BEA72E0CE0142960E949B4558
:105A3000AE014E5E5F4F61E080E00E94641388E13A
:105A400090E090935E0680935D060E9481120C9414
:105A5000773988E20E94C112882341F10E945A13CB
:105A60004FEF52E060E080E00E9464138091630693
:105A70004AE0BE016E5E7F4F90E00E946C406BEA90
:105A800072E0CE0142960E949B45AE014E5E5F4F92
:105A900061E080E00E94641383E190E090935E06F1
:105AA00080935D060E9481120C94773964EF71E057
:105AB00080E090E00E948D12882311F40C947739D5
:105AC00087E190E090935E0680935D064CE952E09A
:105AD00061E080E00E9464130E9481120C94773987
