:100000000C94E9020C943C110C9411110C94E61020
:100010000C94BB100C9490100C9465100C943A1036
:100020000C940F100C941A030C941A030C941A03DA
:100030000C941A030C9467110C941A030C941A0371
:100040000C941A030C941A030C941A030C941A03BC
:100050000C941A030C941A030C941A030C940220A7
:100060000C941A030C9447120C941D120C941A034E
:100070000C941A030C941A030C941A030C941A038C
:100080000C941A030C941A030C941A030C941A037C
:100090000C941A030C941A030C941A030C947D12FA
:1000A0000C941A030C941A030C941A030C941A035C
:1000B0000C941A030C941A030C941A030C941A034C
:1000C0000C941A030C941A030C941A030C941A033C
:1000D0000C941A030C941A030C941A030C941A032C
:1000E0000C941A03F7261427963EBD3E9F3EA83E69
:1000F0009740AC404C27C1272F289A2708286B2807
:1001000092288B2A2C2BDC2BF328A829582A0F2C79
:10011000062D0E2E412E0B2FE62F1830D1309A319E
:10012000CC3184324C337E333634FE343035E835CE
:10013000B036E2369B376438973859392B3A5C3AF7
:100140001E3BF13B233CDD3CA93DFB3DCE3D3A440B
:100150008144EC442A4564459D45D0453507A707B1
:100160003A078F0713085C088908C608D317D61703
:10017000C517C917CF170D18DA17DE17E417E817D8
:10018000EC17F217F617FA170D18001804180818CC
:100190005F1F641F691F731F7D1FF61F871F8F1F3F
:1001A000971FA11FAB1FB51FC41FCE1FF61FD81F5F
:1001B000E21FEC1F0C94F3280C94691F0C945F1F32
:1001C0000C94B51F0C94731F0C94FE340C94530EB6
:1001D0000C9497400C948F1F0C944C330C94001883
:1001E0000C9489080C9459390C941A0E0C94D81F4D
:1001F0000C9492060C94F6170C945C3A0C94CE1F57
:100200000C94D1300C9418300C946B280C94E62F7D
:100210000C94A83E0C94C41F0C94A7070C945D0486
:100220000C94F61F0C94860F0C94B0360C94D617D1
:100230000C94DE170C94440E0C9408180C94F217CE
:100240000C949F3E0C94871F0C949A270C94590D84
:100250000C94DD3C0C94C6080C94D3170C94E21F4C
:100260000C942C2B0C947F460C9497380C94062DF0
:100270000C94F7260C94EC1F0C940F2C0C94E23683
:100280000C949B370C94750E0C948B2A0C9471046F
:100290000C94C5170C94B10F0C94DC2B0C94FB3D03
:1002A0000C9492280C9484320C94963E0C94582A08
:1002B0000C9464450C9404180C940D180C943A4456
:1002C0000C94412E0C94F13B0C942A450C94FA1793
:1002D0000C947E330C942F280C947D1F0C9457049F
:1002E0000C94EC440C9436340C940E2E0C94C127D0
:1002F0000C94A6060C948F070C94BD3E0C94A90F89
:100300000C941E3B0C94D0450C94641F0C94C9179C
:100310000C94971F0C94233C0C94840F0C94AB1FEB
:100320000C94190E0C94A93D0C94FA0E0C941427FD
:100330000C9470040C94C2060C94CE3D0C94AC400A
:100340000C94EC170C9430350C94DA170C940828A4
:100350000C9435070C9463040C94950F0C94CC31D9
:100360000C944C270C945C080C94E8350C940B2FDF
:100370000C94670E0C94830F0C94850F0C94E81763
:100380000C94DE0F0C94E4170C942B3A0C94130885
:100390000C949D450C94CF170C94A11F0C94AD0E9A
:1003A0000C9481440C9464380C943A070C94A8295A
:1003B0000C949A3100407A10F35A00A0724E18093A
:1003C0000010A5D4E80000E87648170000E40B54BC
:1003D000020000CA9A3B000000E1F505000080968B
:1003E0009800000040420F000000A08601000000BD
:1003F000102700000000E803000000006400000077
:1004000000000A00000000000100000000002C763F
:10041000D888DC674F0823DFC1DFAE59E1B1B7965A
:10042000E5E3E453C63AE651997696E8E6C28426B7
:10043000EB898C9B62ED407C6FFCEFBC9C9F40F293
:10044000BAA56FA5F490055A2AF75C936B6CF9670F
:100450006DC11BFCE0E40D47FEF520E6B500D0EDD4
:10046000902E0300943577050080841E080000203C
:100470004E0A000000C80C333333330F986E1283DA
:100480001141EF8D2114893BE65516CFFEE6DB18AE
:10049000D1844B381BF77C1D901DA4BBE424203273
:1004A00084725E228100C9F124ECA1E53D270000A1
:1004B0002100240027002A002D0030003300010114
:1004C0000000040107010A010000220025002800A5
:1004D0002B002E003100340002010000050108014C
:1004E0000B010200000A0B02090C0D0E08070304A1
:1004F00001000000000000000000000000000000FB
:1005000000000000000000000000000000000012D9
:1005100011100000000000000000000000000000BA
:100520000000000000000000000102102020080868
:100530001020401020408002010201080402010145
:10054000020408102040808040201008040201802E
:100550000402018040201008040201080402010185
:10056000020408102040800102040810204080008E
:100570000020002300260029002C002F003200005C
:10058000010000030106010901050505050705082D
:10059000080808020202020A0A0808040404040106
:1005A0000101010101010103030303030303030428
:1005B0000707070C0C0C0C0C0C0C0C0202020206B8
:1005C000060606060606060B0B0B0B0B0B0B0B00A9
:1005D0007F4611241FBECFEFD1E2DEBFCDBF00E0CA
:1005E0000CBF15E0A0E0B2E0E8EFFAE900E00BBFD5
:1005F00002C007900D92AC3EB107D9F72CE0ACEEEB
:10060000B5E001C01D92AA3FB207E1F712E0C9EEC2
:10061000D2E000E006C021970109802FFE010E9470
:10062000EA4AC83ED10780E00807A9F70E944C209B
:100630000C947A4D0C94000080916D0C90916E0C8E
:10064000A0916F0CB091700CBC01CD016C52714047
:10065000810991090E943C4C9B01AC010E94214BF5
:100660002BED3FE049E450E40E94F14C20E030E003
:1006700044E856E40E94924B20E030E04CE852E41B
:100680000E94F14C23E63FEB4FE356E40E94F14C0D
:1006900020E030E04AE754E40E94924B08958091B4
:1006A000E206882309F465C08091A50C9091A60C00
:1006B000892B11F01092E2066091E70670E080E06D
:1006C00090E00E943A4C6093360C7093370C809304
:1006D000380C9093390C6091F0067091F10680E02F
:1006E00090E00E943A4C60933E0C70933F0C8093D4
:1006F000400C9093410C6091E50670E080E090E042
:100700000E943A4C20E030E048EC52E40E94924BC8
:100710006093420C7093430C8093440C9093450C6F
:100720006091E60670E080E090E00E943A4C20E0A4
:1007300030E048EC52E40E94924B6093460C709378
:10074000470C8093480C9093490C6091EA06709195
:10075000EB0680E090E00E943A4C60935C0C709352
:100760005D0C80935E0C90935F0C8091E406809307
:100770004A0C0895DC01ED91FD918081ED91FD9190
:100780009081ED91FD916C9163708E2309F064600E
:100790009F2309F06860E7EDF3E0E60FF11D659532
:1007A00065956D936D917D918D919D91099423C077
:1007B0001AC012C016C010C01EC009C014C013C099
:1007C00006C019C009C00DC007C00DC014C06250DA
:1007D0007040804090400BC061507040804090401D
:1007E00006C06E5F01C06F5F7F4F8F4F9F4F9E931C
:1007F0008E937E936E9308958091F80C823030F43E
:10080000F8948DEE9CE00E94BA0301C0F8948091A8
:10081000F40C9091F50CA091F60CB091F70C789433
:100820008093690C90936A0CA0936B0CB0936C0C42
:10083000F8941092F40C1092F50C1092F60C1092A1
:10084000F70C789440916D0C50916E0C60916F0C88
:100850007091700C8091690C90916A0CA0916B0C56
:10086000B0916C0C840F951FA61FB71F80936D0C61
:1008700090936E0CA0936F0CB093700C08958091C0
:10088000F70B9091F80B0C94BA038091F50B9091B3
:10089000F60B0C94BA038091F30B9091F40B0C942B
:1008A000BA038091F10B9091F20B0C94BA038091F2
:1008B000EF0B9091F00B0C94BA038091ED0B90919B
:1008C000EE0B0C94BA03DC01ED91FC910684F785E4
:1008D000E02D41E0199581E090E008950895089594
:1008E000089580E090E00895CF92DF92EF92FF921A
:1008F0000F931F93CF93DF93EDECF7E060E070E090
:1009000080E090E0DC010481158126813781800F31
:10091000911FA21FB31F6F5F7F4F81362AEE920790
:10092000A105B10540F080E090E00E943A4C6B01D7
:100930007C01D1E008C03C966E31710521F7D0E012
:10094000C12CD12C7601C091E8066C2F70E080E0BC
:1009500090E00E943C4C9B01AC01C701B6010E9493
:10096000EC4C181674F4DD2361F06C2F70E080E01D
:1009700090E00E943A4C8B019C01B701A60185E0F2
:100980001DC0C091E9066C2F70E080E090E00E94ED
:100990003C4C9B01AC01C701B6010E948D4B87FF07
:1009A0000FC0DD2369F06C2F70E080E090E00E94C2
:1009B0003A4C8B019C01B701A60186E00E94DF162C
:1009C000C701B601DF91CF911F910F91FF90EF907A
:1009D000DF90CF9008954F925F926F927F928F92A7
:1009E0009F92AF92BF92CF92DF92EF92FF9281E0FF
:1009F00090E09093A60C8093A50C2091360C30913A
:100A0000370C4091380C5091390C60E070E68AE662
:100A100097E40E94924B4B015C014090420C509035
:100A2000430C6090440C7090450CA30192010E940D
:100A3000F14C6B017C016093790C70937A0C80937C
:100A40007B0C90937C0CA301920160E070E080E845
:100A50009FE30E94204BA50194010E94F14C6093FA
:100A60007D0C70937E0C80937F0C9093800C809013
:100A7000460C9090470CA090480CB090490CA501F2
:100A8000940160E070E080E89FE30E94204BA701A2
:100A900096010E94F14C6093810C7093820C8093BC
:100AA000830C9093840CA5019401C701B6010E94A8
:100AB000F14C6093850C7093860C8093870C909317
:100AC000880C0E94061E0E943A4C2091790C3091AD
:100AD0007A0C40917B0C50917C0C0E94214B0E941F
:100AE0000B4C6093990C70939A0C80939B0C909391
:100AF0009C0C0E94061E0E943A4C2091810C309161
:100B0000820C4091830C5091840C0E94214B0E94D6
:100B10000B4C6093950C7093960C8093970C90936C
:100B2000980C20E030E04AE754E460913E0C70916C
:100B30003F0C8091400C9091410C0E94F14C23E6B7
:100B40003FEB4FE356E40E94924B20E030E04CE84C
:100B500052E40E94924B20E030E044E856E40E94C8
:100B6000F14C2BED3FE049EC50E40E94924B6B01BD
:100B70007C0120E030E0A9010E94EC4C20E030E054
:100B800040E05FE387FD05C0C701B6010E94214B2D
:100B900004C0C701B6010E94204B0E94044C609320
:100BA000710C7093720C8093730C9093740CFF9083
:100BB000EF90DF90CF90BF90AF909F908F907F90FD
:100BC0006F905F904F900895CF93C1E08DE29BE0CE
:100BD0000E94750E892B09F4A3C08DE29BE00E9450
:100BE000530E853609F485C0B4F48D32D1F174F416
:100BF0008B3261F78091F8069091F906A091FA0680
:100C0000B091FB06C296A11DB11D3BC08C3401F111
:100C1000853521F1DBCF803709F445C09CF48C3653
:100C2000B9F08F3699F62DEC3CEC4CEC5DE360911D
:100C300011027091120280911302909114020E948D
:100C4000204B3FC0823709F445C0853739F0BECF0D
:100C50008091FC068C278093FC06B8CFC093F706E2
:100C6000B5CF8091F8069091F906A091FA06B0915F
:100C7000FB0683339105A105B10560F0C297A10978
:100C8000B1098093F8069093F906A093FA06B09301
:100C9000FB069CCF1092F8061092F9061092FA0605
:100CA0001092FB0693CF2DEC3CEC4CEC5DE3609195
:100CB00011027091120280911302909114020E940D
:100CC000214B609311027093120280931302909350
:100CD00014027CCF2DEC3CEC4CEC5DE360911502F2
:100CE0007091160280911702909118020E94214B78
:100CF0000EC02DEC3CEC4CEC5DE360911502709164
:100D0000160280911702909118020E94204B609366
:100D1000150270931602809317029093180256CF13
:100D2000CF910895FC0186898F3F79F02185328526
:100D3000662319F0232B31F403C02130310511F45F
:100D400061E001C060E00C94031A0895EF92FF92F5
:100D50001F93CF93DF93EC01162F7A0161E0812F6F
:100D60000E94321A1E8BFA86E986E881F981048492
:100D7000F585E02D60E0CE01DF91CF911F91FF90CE
:100D8000EF9019940F931F93CF93DF93EC01162FDD
:100D9000042F61E0413009F060E08B850E94031A66
:100DA0008C858F3F19F060E00E94031A023081F0B9
:100DB0008C8184FF02C048E00CC0612F70E084E0A9
:100DC000759567958A95E1F744E0CE010E94CC1EA7
:100DD00044E0612FCE01DF91CF911F910F910C94D0
:100DE000CC1E8F929F92AF92BF92CF92DF92EF92E2
:100DF000FF920F931F93CF93DF9386E00E94DA193F
:100E000021E0892B09F420E02093350C20E030E02C
:100E100040EA50E46091A90C7091AA0C8091AB0C4F
:100E20009091AC0C0E94EC4C87FD07C085E00E94BD
:100E3000D2161092CC071092CB078091E30688233C
:100E400031F01092CC071092CB071092E306E0919C
:100E5000CB07F091CC07E830F10508F029C28827CC
:100E6000E255FF4F8F4F0C94EA4A1092A60C109255
:100E7000A50C89C18091A50C9091A60C029709F54B
:100E800083E090E09093A60C8093A50C0E94061E30
:100E90000E943A4C20917D0C30917E0C40917F0C49
:100EA0005091800C0E94214B0E940B4C60939D0C32
:100EB00070939E0C80939F0C9093A00C81E0809384
:100EC000A70C8091350C81110DC080916D0C909113
:100ED0006E0CA0916F0CB091700C181619061A06C2
:100EE0001B062CF461EE7AE784E090EC37C160E0F9
:100EF00070E0CB010E940D1F8091A50C9091A60C73
:100F0000892B51F40E94FC0310926D0C10926E0C10
:100F100010926F0C1092700C83E090E0D3C180911E
:100F20006D0C90916E0CA0916F0CB091700C8C3286
:100F30009140A105B1052CF46FEC77EF83ED9FE3B1
:100F40000DC160E070E0CB010E940D1FB9C10E948D
:100F50004F038091A50C9091A60C9C012350310960
:100F60002230310508F03FC084E090E09093A60C59
:100F70008093A50C6091F606062E000C770B880B6B
:100F8000990B0E943C4C2091CE063091CF064091A7
:100F9000D0065091D1060E94214B9B01AC0160917B
:100FA000C2067091C3068091C4069091C5060E9446
:100FB0008D4B881F8827881F80934B0C0E94061E2C
:100FC00000919D0C10919E0C20919F0C3091A00CD3
:100FD000601771078207930708F079C180914B0C65
:100FE000811175C151C5892B09F04EC58091E2066A
:100FF000882309F449C50E944F031092E20684E059
:1010000090E09093A60C8093A50C80914A0C982FA9
:101010009D7F19F484E090E055C1813009F050C102
:1010200085E090E04FC18091A50C9091A60C0497AB
:1010300011F40E94EB048091710C9091720CA091BC
:10104000730CB091740C855D9E4FAF4FBF4F4091B4
:101050006D0C50916E0C60916F0C7091700C841738
:101060009507A607B7070CF407C30E94061E009158
:10107000950C1091960C2091970C3091980C60175C
:1010800071078207930708F0F7C26091EC06709130
:10109000ED0680E090E00E943A4C9B01AC0160912B
:1010A000C2067091C3068091C4069091C5060E9445
:1010B0008D4B87FD59C2E0C28091A50C9091A60C82
:1010C000049741F40E94EB0461EE7AE784E090E437
:1010D0000E940D1F0E94061E0091950C1091960C07
:1010E0002091970C3091980C601771078207930735
:1010F00008F015C380916D0C90916E0CA0916F0C4F
:10110000B091700C803A9F40A105B1050CF42DC33D
:1011100006C34091710C5091720C6091730C7091E8
:10112000740C8091750C9091760CA091770CB09115
:10113000780C840F951FA61FB71F40916D0C50911E
:101140006E0C60916F0C7091700C84179507A60758
:10115000B707A4F46FEC77EF83ED9FEB0E940D1FB0
:10116000DF91CF911F910F91FF90EF90DF90CF9083
:10117000BF90AF909F908F900C94FC0360E070E064
:10118000CB010E940D1F82E090E09CC08091A50CD5
:101190009091A60C019709F04CC0C090850CD0909E
:1011A000860CE090870CF090880C20E030E048EC52
:1011B00052E4C701B6010E94EC4C181634F4C12C5D
:1011C000D12C88ECE82E82E4F82E20E030E040E0DC
:1011D0005FE36091540C7091550C8091560C909186
:1011E000570C0E94204B4B015C0120E030E040E2B4
:1011F00051E4C701B6010E94924B9B01AC01C501AD
:10120000B4010E94924B6093580C7093590C8093D8
:101210005A0C90935B0C82E090E09093A60C809324
:10122000A50C1092750C1092760C1092770C1092FF
:10123000780C0E94061E0091990C10919A0C209136
:101240009B0C30919C0C601771078207930740F547
:101250000E94061E0091BF071091C0072091C10790
:101260003091C207DC01CB01801B910BA20BB30BA9
:101270000A97A105B10508F407C4C090540CD0909A
:10128000550CE090560CF090570C20E030E0A9018E
:10129000C701B6010E94EC4C18160CF497C3F4C3B6
:1012A00060E070E0CB010E940D1F86E090E00AC074
:1012B00067EA75E08DE29BE00E9406120E94071F1C
:1012C00081E090E09093CC078093CB07DDC381E071
:1012D0008093A80C2091C3073091C4074091C507A3
:1012E0005091C6076091AD0C7091AE0C8091AF0C1F
:1012F0009091B00C0E94204B6B017C0120E030E00B
:10130000A9010E94EC4C18165CF420E030E048E49F
:1013100052E4C701B6010E94EC4C18165CF013C0F1
:1013200020E030E048E452ECC701B6010E948D4B4A
:1013300087FF09C000E010E028E432E4B701A6010D
:1013400087E00E94DF160E94061E0091A10C1091FA
:10135000A20C2091A30C3091A40C6B017C01C01A4B
:10136000D10AE20AF30A8090C3079090C407A090C4
:10137000C507B090C6072091CE063091CF064091A8
:10138000D0065091D1066091C6067091C706809133
:10139000C8069091C9060E94204B9B01AC01C50173
:1013A000B4010E94924B6093C7077093C807809363
:1013B000C9079093CA07A9E2B9E0CDECD7E0AD0127
:1013C0004C5051092CE0FA0101900D922A95E1F759
:1013D000DA01C417D50799F7C092D107D092D20786
:1013E000E092D307F092D4078092CD079092CE0777
:1013F000A092CF07B092D0076093D5077093D6071D
:101400008093D7079093D8070E9474046093BE0618
:101410007093BF068093C0069093C1068091C30766
:101420009091C407A091C507B091C6078093D206DA
:101430009093D306A093D406B093D5060E9474046B
:101440000E940B4CC62E0DEC17E0E12CF12C60E055
:1014500070E0CB01D12CEC14FD0468F4F80120817C
:101460003181428153810E94214BFFEFEF1AFF0A25
:10147000045F1F4FF0CF00E010E09801CC80DD80CA
:10148000EE80FF800C0D1D1D2E1D3F1D01364AEE06
:1014900014072105310538F42C96E9E0C533DE0741
:1014A00069F7C0E001C0C1E020E030E04AE754E461
:1014B0000E94924B6B017C016091F2067091F306E1
:1014C00080E090E00E943A4C4B015C019B01AC0132
:1014D000C701B6010E94EC4C181644F4CC2331F03D
:1014E00095018401B701A60183E019C06091F4065B
:1014F0007091F50680E090E00E943A4C4B015C014F
:101500009B01AC01C701B6010E948D4B87FF09C04A
:10151000CC2339F095018401B701A60184E00E9433
:10152000DF16C092D606D092D706E092D806F09287
:10153000D9068091C7079091C807A091C907B091BB
:10154000CA078093DA069093DB06A093DC06B0937B
:10155000DD060E94061E6093A10C7093A20C80937E
:10156000A30C9093A40C51CD0E94E11D60938D0CAF
:1015700070938E0C80938F0C9093900C0091910C33
:101580001091920C2091930C3091940C6B017C0182
:10159000C01AD10AE20AF30AC092890CD0928A0CCE
:1015A000E0928B0CF0928C0C6093910C7093920CE7
:1015B0008093930C9093940C81EE9AE7A4E0B0E4AE
:1015C00080934C0C90934D0CA0934E0CB0934F0C09
:1015D0000E94FC036091690C70916A0C80916B0C05
:1015E00090916C0C0E943C4C9B01AC010E94214BE1
:1015F0002BED3FE049E450E40E94F14C4B015C01CB
:10160000A0E0B2E4A70196010E94F24A20E432E48D
:101610004FE050E00E94CB4ACA01B9010E943C4C05
:101620009B01AC01C501B4010E94924B6093500C28
:101630007093510C8093520C9093530C8091EB0C4F
:10164000882321F081EB9CE00E94AF136091540C41
:101650007091550C8091560C9091570CDF91CF9161
:101660001F910F91FF90EF90DF90CF90BF90AF90C0
:101670009F908F900C940D1FC090C206D090C3060F
:10168000E090C406F090C5066091EC067091ED06FE
:1016900080E090E00E943A4C4B015C019B01AC0160
:1016A000C701B6010E94EC4C181644F49501840160
:1016B000B701A60181E00E94DF161CC00E94061E31
:1016C0000091950C1091960C2091970C3091980CEC
:1016D000601771078207930768F480916D0C9091F1
:1016E0006E0CA0916F0CB091700C80399140A105E7
:1016F000B1059CF10E941C036093C3077093C4075B
:101700008093C5079093C6076093AD0C7093AE0CA1
:101710008093AF0C9093B00C87E090E0D3CD0E9403
:10172000061E0091950C1091960C2091970C30910B
:10173000980C601771078207930708F008C1809121
:101740006D0C90916E0CA0916F0CB091700C803963
:101750009140A105B1050CF0FAC084E00E94D216B8
:101760001092CC071092CB078FC18091C206909146
:10177000C306A091C406B091C5068093600C9093F7
:10178000610CA093620CB093630C8091330C88239E
:1017900021F089EF9BE00E94AF13C090640CD090C1
:1017A000650CE090660CF090670C20E030E040EAB9
:1017B00050E4C701B6010E94204B22EC35EF48EC03
:1017C0005FE30E94F14C20E030E040EF51E40E94E2
:1017D000924B20E030E040E05FE30E94214B4B0160
:1017E0005C0120915C0C30915D0C40915E0C50913D
:1017F0005F0CC701B6010E94204B20E030E0A90138
:101800000E94EC4CA501940187FD0BC06091540C23
:101810007091550C8091560C9091570C0E94214B61
:101820000AC06091540C7091550C8091560C9091A7
:10183000570C0E94204B6093540C7093550C80936E
:10184000560C9093570C8090540C9090550CA0908F
:10185000560CB090570C20E030E040E05FE3C5014B
:10186000B4010E948D4B87FF05C080E090E0A0E0AE
:10187000BFE30EC021EE3AE744E050E4C501B401F5
:101880000E94EC4C181664F481EE9AE7A4E0B0E4F0
:101890008093540C9093550CA093560CB093570C16
:1018A00042E0C701B6010E94561889E00E94511813
:1018B0006091600C7091610C8091620C9091630C4E
:1018C00042E00E94561889E00E94511860915C0C19
:1018D00070915D0C80915E0C90915F0C42E00E94D3
:1018E000561889E00E9451186091540C7091550C63
:1018F0008091560C9091570C42E00E9456180E941D
:10190000071F6091540C7091550C8091560C90916A
:10191000570C0E940D1F0E94FC036091EA06709113
:10192000EB0680E090E00E943A4C9B01AC01609194
:10193000C2067091C3068091C4069091C5060E94AC
:10194000EC4C87FDA1C081E08093680C9DC0809124
:10195000680C811116C06091EA067091EB0680E078
:1019600090E00E943A4C8B019C014091C606509138
:10197000C7066091C8067091C90682E00E94DF1612
:1019800002C01092680C0E941C036093C3077093FE
:10199000C4078093C5079093C6076093AD0C7093FE
:1019A000AE0C8093AF0C9093B00C6DEC7CEC8CEC97
:1019B0009EE30E940D1F82E090E09093CC078093FD
:1019C000CB079093A60C8093A50C5EC02091580C79
:1019D0003091590C40915A0C50915B0CC701B601E3
:1019E0000E94204B6B017C012DEC3CEC4CEC5EE347
:1019F0000E948D4B87FF3FC08DEC9CECACECBEE3AE
:101A00008093540C9093550CA093560CB093570CA4
:101A10000E94FC034091750C5091760C6091770CFC
:101A20007091780C8091690C90916A0CA0916B0C6C
:101A3000B0916C0C840F951FA61FB71F8093750C77
:101A40009093760CA093770CB093780C6091540C23
:101A50007091550C8091560C9091570C0E940D1F5F
:101A60000E94061E6093BF077093C0078093C10752
:101A70009093C20709C0C092540CD092550CE092CA
:101A8000560CF092570CC4CFDF91CF911F910F915C
:101A9000FF90EF90DF90CF90BF90AF909F908F908E
:101AA0000895DC01ED91FC910684F785E02D40E07E
:101AB00019948F929F92AF92BF92CF92DF92EF9242
:101AC000FF920F931F93CF93DF93EC01423018F0F6
:101AD0008C8188608C834F836887222329F0413072
:101AE00019F48C8184608C830E94E11D6B017C0160
:101AF00084E6882E912CA12CB12C0E94E11DDC01E2
:101B0000CB018C199D09AE09BF09883E9340A10500
:101B1000B10598F321E0821A9108A108B10888EE76
:101B2000C80E83E0D81EE11CF11C81149104A104AD
:101B3000B10419F76C8164FD31C0E881F981068434
:101B4000F785E02D42E063E0CE0119958BE496E441
:101B50000197F1F7E881F9810684F785E02D42E0ED
:101B600063E0CE01199503E512E0C8010197F1F792
:101B7000E881F9810684F785E02D42E063E0CE013B
:101B80001995C8010197F1F7E881F9810684F78575
:101B9000E02D42E062E0CE01199517C06062CE01EF
:101BA0000E94510D8BE496E40197F1F76C8160621D
:101BB000CE010E94510D03E512E0C8010197F1F733
:101BC0006C816062CE010E94510DC8010197F1F74E
:101BD0006C816062CE010E94510D8BEE90E0019706
:101BE000F1F784E08D836CE0CE010E94510D61E03D
:101BF000CE010E94510D8BE39FE10197F1F782E046
:101C00008E8366E0CE010E94510DE881F981048443
:101C1000F585E02D6FEFCE01DF91CF911F910F91F0
:101C2000FF90EF90DF90CF90BF90AF909F908F90FC
:101C300019940895CF92DF92EF92FF920F931F9322
:101C4000CF93DF936C017A018B01C0E0D0E0CE1519
:101C5000DF0581F0D8016D918D01D601ED91FC91E8
:101C60000190F081E02DC6011995892B11F0219684
:101C7000EECF7E01C701DF91CF911F910F91FF90B1
:101C8000EF90DF90CF900895FC01538D448D252F68
:101C900030E0842F90E0821B930B541710F0CF9606
:101CA000089501970895FC01918D828D981761F038
:101CB000828DDF01A80FB11D5D968C91928D9F5F83
:101CC0009F73928F90E008958FEF9FEF0895FC012E
:101CD000918D828D981731F0828DE80FF11D858DE1
:101CE00090E008958FEF9FEF0895FC01918D228D74
:101CF000892F90E0805C9F4F821B91098F739927F9
:101D000008958DE29BE00E94750E21E0892B09F475
:101D100020E0822F0895FC01848DDF01A80FB11D02
:101D2000A35ABF4F2C91848D90E001968F73992711
:101D3000848FA689B7892C93A089B1898C918370EF
:101D400080648C93938D848D981306C00288F389E8
:101D5000E02D80818F7D80830895EF92FF920F9315
:101D60001F93CF93DF93EC0181E0888F9B8D8C8D47
:101D7000981305C0E889F989808185FD26C0F62E73
:101D80000B8D10E00F5F1F4F0F731127E02E8C8D0E
:101D9000E8120CC00FB607FCFACFE889F9898081F8
:101DA00085FFF5CFCE010E948B0EF1CF8B8DFE010A
:101DB000E80FF11DE35AFF4FF0829FB7F8940B8FA5
:101DC000EA89FB89808180620AC09FB7F894EE8916
:101DD000FF896083E889F9898081837080648083CA
:101DE0009FBF81E090E0DF91CF911F910F91FF9015
:101DF000EF900895CF93DF93EC01888D8823C9F08D
:101E0000EA89FB89808185FD05C0A889B9898C9103
:101E100086FD0FC00FB607FCF5CF808185FFF2CF9E
:101E2000A889B9898C9185FFEDCFCE010E948B0ED8
:101E3000E7CFDF91CF9108950E94810E811125C0D7
:101E400080E090E0892B41F080E090E0892B21F048
:101E50000E94000081111CC080E090E0892B41F0BD
:101E600080E090E0892B21F00E940000811113C0D6
:101E700080E090E0892BA1F080E090E0892B81F058
:101E80000E94000081110AC008950E94E405D8CF85
:101E90000E940000E1CF0E940000EACF0C940000F5
:101EA000089585ED8093BC008091BC0084FDFCCF3B
:101EB0001092EF0A08954091970A262F30E0240FE0
:101EC000311D21323105DCF42091EF0A2430C9F4B0
:101ED000FC0180E090E0861758F43091970A219138
:101EE000DC01A958B54FA30FB11D2C930196F3CF78
:101EF0008091970A680F6093970A80E0089581E0C7
:101F0000089582E00895089508950895E091F105F7
:101F10008091F005E81730F4F0E0EE50FA4F808140
:101F200090E008958FEF9FEF08959091F1058091D3
:101F3000F005981750F4E92FF0E0EE50FA4F2081A9
:101F400030E09F5F9093F10502C02FEF3FEFC90192
:101F500008958091F00590E02091F105821B910990
:101F60000895CF92DF92EF92FF920F931F93CF933A
:101F7000DF937C01CB018A012091F00A222389F0B2
:101F8000EB016B01C40ED51ECC15DD0569F069911E
:101F9000D701ED91FC910190F081E02DC7011995D9
:101FA000F3CF642F0E945B0FC801DF91CF911F9187
:101FB0000F91FF90EF90DF90CF900895CF93DF9334
:101FC0001F92CDB7DEB769832091F00A2223D1F0AA
:101FD0002091130B203240F021E030E0FC013383EC
:101FE000228380E090E015C08091F10AE82FF0E0B4
:101FF000EE50F54F998190838F5F8093F10A809323
:10200000130B05C061E0CE0101960E945B0F81E0D9
:1020100090E00F90DF91CF9108950E94634D1F9241
:102020000F920FB60F9211240BB60F922F933F937E
:102030004F935F936F937F938F939F93AF93BF93D0
:10204000EF93FF93E0910F02F09110021995FF9129
:10205000EF91BF91AF919F918F917F916F915F9120
:102060004F913F912F910F900BBE0F900FBE0F908D
:102070001F9018951F920F920FB60F9211240BB656
:102080000F922F933F934F935F936F937F938F9311
:102090009F93AF93BF93EF93FF93E0910D02F09165
:1020A0000E021995FF91EF91BF91AF919F918F9182
:1020B0007F916F915F914F913F912F910F900BBE48
:1020C0000F900FBE0F901F9018951F920F920FB692
:1020D0000F9211240BB60F922F933F934F935F9360
:1020E0006F937F938F939F93AF93BF93EF93FF93E0
:1020F000E0910302F09104021995FF91EF91BF91D5
:10210000AF919F918F917F916F915F914F913F918F
:102110002F910F900BBE0F900FBE0F901F90189530
:102120001F920F920FB60F9211240BB60F922F939E
:102130003F934F935F936F937F938F939F93AF934F
:10214000BF93EF93FF93E0910102F0910202199582
:10215000FF91EF91BF91AF919F918F917F916F917F
:102160005F914F913F912F910F900BBE0F900FBE3B
:102170000F901F9018951F920F920FB60F92112477
:102180000BB60F922F933F934F935F936F937F9371
:102190008F939F93AF93BF93EF93FF93E0910B02C5
:1021A000F0910C021995FF91EF91BF91AF919F9122
:1021B0008F917F916F915F914F913F912F910F90F0
:1021C0000BBE0F900FBE0F901F9018951F920F928D
:1021D0000FB60F9211240BB60F922F933F934F938C
:1021E0005F936F937F938F939F93AF93BF93EF937F
:1021F000FF93E0910902F0910A021995FF91EF9186
:10220000BF91AF919F918F917F916F915F914F910E
:102210003F912F910F900BBE0F900FBE0F901F900C
:1022200018951F920F920FB60F9211240BB60F92B2
:102230002F933F934F935F936F937F938F939F93CE
:10224000AF93BF93EF93FF93E0910702F0910802E1
:102250001995FF91EF91BF91AF919F918F917F91D0
:102260006F915F914F913F912F910F900BBE0F9007
:102270000FBE0F901F9018951F920F920FB60F92DE
:1022800011240BB60F922F933F934F935F936F934D
:102290007F938F939F93AF93BF93EF93FF93E091BF
:1022A0000502F09106021995FF91EF91BF91AF9150
:1022B0009F918F917F916F915F914F913F912F915E
:1022C0000F900BBE0F900FBE0F901F9018951F928E
:1022D0000F920FB60F9211240BB60F922F933F93CC
:1022E0004F935F936F937F938F939F93AF93BF931E
:1022F000EF93FF938091C50A9091C60AA091C70AF7
:10230000B091C80A892B8A2B8B2B59F19091C20A64
:10231000E091C30AF091C40A80818927808380916B
:10232000C50A9091C60AA091C70AB091C80A1816AA
:1023300019061A061B060CF056C08091C50A90912A
:10234000C60AA091C70AB091C80A0197A109B109AC
:102350008093C50A9093C60AA093C70AB093C80A8F
:1023600042C080910002E2EEF4E0E4919FEF90938E
:102370000002E230C9F050F4EE2399F0E13081F52B
:1023800090916F009D7F90936F002AC0E43019F107
:10239000E0F0E53029F5909173009D7F90937300F4
:1023A0001FC010926E001CC0909170009D7F909392
:1023B000700091E09093B0009091B100987F94608C
:1023C0009093B1001092B3000BC0909171009D7F6B
:1023D0009093710005C0909172009D7F9093720060
:1023E00060E00E94031AFF91EF91BF91AF919F911E
:1023F0008F917F916F915F914F913F912F910F90AE
:102400000BBE0F900FBE0F901F90189561157105B0
:1024100079F0FB0101900020E9F73197AF01461BED
:10242000570BDC01ED91FC910280F381E02D1994B2
:1024300080E090E008950C9406121F920F920FB660
:102440000F9211240BB60F922F933F934F935F93EC
:102450006F937F938F939F93AF93BF93EF93FF936C
:102460008DE29BE00E948B0EFF91EF91BF91AF91A7
:102470009F918F917F916F915F914F913F912F919C
:102480000F900BBE0F900FBE0F901F9018951F92CC
:102490000F920FB60F9211240BB60F922F938F93BA
:1024A0009F93EF93FF93E0913D0BF0913E0B808162
:1024B000E091430BF091440B82FD12C0908180911A
:1024C000460B8F5F8F732091470B821751F0E0917D
:1024D000460BF0E0E35DF44F958F8093460B01C00F
:1024E0008081FF91EF919F918F912F910F900BBE63
:1024F0000F900FBE0F901F9018951F920F920FB65E
:102500000F9211240BB60F922F933F934F935F932B
:102510006F937F938F939F93AF93BF93EF93FF93AB
:102520008091B900887F803609F49CC068F58832B4
:1025300009F45BC090F4803109F454C038F4882366
:1025400009F4F6C0883009F44DC0F6C0883109F4AA
:102550004CC0803209F45DC0EFC0803409F468C01B
:1025600048F4803309F455C0883309F0E5C08093FE
:10257000ED0AD8C0803509F44FC0883509F45DC034
:10258000883409F0D9C0D6C0883909F4C7C0A8F486
:10259000883709F467C038F4883609F463C0803797
:1025A00009F460C0C9C0883809F4B8C0803909F49A
:1025B0005FC0803809F0C0C05BC0803B09F486C0B2
:1025C00038F4803A09F466C0883A09F47FC0B4C090
:1025D000803C09F4A7C0883C09F4A4C0883B09F4F6
:1025E0008AC0AAC08091CA0A10C09091EC0A80915A
:1025F000EB0A981770F5E091EC0A81E08E0F80935A
:10260000EC0AF0E0E553F54F80818093BB0085EC48
:1026100086C08093ED0A8EC0E091EC0A81E08E0FB7
:102620008093EC0A8091BB00F0E0E553F54F808386
:102630009091EC0A8091EB0A6EC0E091EC0A81E087
:102640008E0F8093EC0A8091BB00F0E0E553F54FCC
:1026500080838091EE0A81116DC081E08093C90A68
:1026600084EA61C083E08093EF0A1092B90ACFCF69
:102670008091B90A803208F051C0E091B90A81E036
:102680008E0F8093B90A8091BB00F0E0E756F54FBA
:102690008083BDCF85EC8093BC001092EF0A8091BF
:1026A000B90A803230F4E091B90AF0E0E756F54F0C
:1026B00010826091B90A70E0E091EC05F091ED05AF
:1026C00089E99AE019951092B90A36C084E080939E
:1026D000EF0A1092980A1092970AE091EE05F09195
:1026E000EF0519958091970A811105C081E08093CB
:1026F000970A1092770AE091980A81E08E0F8093F2
:10270000980AF0E0E958F54F80818093BB009091E2
:10271000980A8091970A981708F479CF85E88093F2
:10272000BC000AC085EC8093BC001092EF0A04C084
:102730001092ED0A0E94510FFF91EF91BF91AF915E
:102740009F918F917F916F915F914F913F912F91C9
:102750000F900BBE0F900FBE0F901F9018952F92E9
:102760003F924F925F926F927F928F929F92AF9221
:10277000BF92CF92DF92EF92FF920F931F93CF936E
:10278000DF93CDB7DEB72F970FB6F894DEBF0FBE3D
:10279000CDBF9F878E870E94061E6D837E838F83A9
:1027A0009887EE85FF8582A193A1A4A1B5A14D8153
:1027B0005E816F817885481B590B6A0B7B0B86A560
:1027C00097A5A0A9B1A9481759076A077B0708F47C
:1027D0000EC1048CF58DE02D80819181A281B381A1
:1027E00089839A83AB83BC83AE85BF859096ED9138
:1027F000FC91919729813A814B815C816081718143
:10280000828193810E94204B4B015C01EE85FF8504
:1028100022A533A544A555A569817A818B819C8128
:102820000E94204B6B017C01AE85BF8550962D9197
:102830003D914D915C915397C501B4010E94F14CBB
:10284000EE85FF8526A137A140A551A50E94214B09
:102850002B013C01AE85BF8596966D937D938D933C
:102860009C939997DB96BC91B987B11118C0EE85FE
:10287000FF852485358546855785C701B6010E94A9
:10288000F14C9B01AC01C301B2010E94204BAE850B
:10289000BF8596966D937D938D939C939997EE85C6
:1028A000FF8546A057A060A471A416A907A930AC63
:1028B00021AC212F302F432D522DC301B2010E9494
:1028C000EC4C18162CF4812F902FA32DB22D18C08C
:1028D000AE85BF85D2968D919D910D90BC91A02D16
:1028E0008A879B87AC87BD879C01AD01C301B2017C
:1028F0000E948D4B87FF0AC08A859B85AC85BD856C
:10290000EE85FF8586A397A3A0A7B1A7F985FF232E
:1029100079F0AE85BF851C962D913D914D915C91CE
:102920001F97C501B4010E94F14C4B015C0103C02B
:10293000812C912C5401EE85FF85248935894689A7
:102940005789C701B6010E94F14C9B01AC01AE85CD
:10295000BF8596966D917D918D919C9199970E94DE
:10296000204BA50194010E94214B6B017C019B012E
:10297000AC01612F702F832D922D0E948D4B87FD0E
:1029800014C0EE85FF8512A903A934A825A8212F1C
:10299000302F432D522DB601C7010E948D4B87FD6C
:1029A00004C01C2D0D2D3E2C2F2CAE85BF855E96B0
:1029B000ED91FC915F97812F902FA32DB22D8083F5
:1029C0009183A283B38389819A81AB81BC81EE8597
:1029D000FF8582A793A7A4A7B5A78D819E81AF810C
:1029E000B88582A393A3A4A3B5A381E001C080E02E
:1029F0002F960FB6F894DEBF0FBECDBFDF91CF91FB
:102A00001F910F91FF90EF90DF90CF90BF90AF900C
:102A10009F908F907F906F905F904F903F902F90FE
:102A200008958F929F92AF92BF92CF92DF92EF92D2
:102A3000FF92CF93DF93EC01EE8DFF8DC080D180AC
:102A4000E280F380CEA2DFA2E8A6F9A6EC8DFD8D90
:102A500080819181A281B3818AA79BA7ACA7BDA7E2
:102A60008EA89FA8A8ACB9ACA5019401C701B60176
:102A70000E94EC4C181664F08AA89BA8ACA8BDA8CC
:102A8000A5019401C701B6010E948D4B87FF04C0C8
:102A90008EA29FA2A8A6B9A6DF91CF91FF90EF903A
:102AA000DF90CF90BF90AF909F908F9008950E943D
:102AB000061E6093730A7093740A8093750A90934C
:102AC000760A80E00895CF92DF92EF92FF920F9303
:102AD0001F93611571058105910541F41F910F91B7
:102AE000FF90EF90DF90CF900C9457156B017C0115
:102AF0000E94061E0091730A1091740A2091750AB3
:102B00003091760ADC01CB01801B910BA20BB30B39
:102B100021E0C816D906EA06FB0608F020E0822F5D
:102B20001F910F91FF90EF90DF90CF9008958F92BB
:102B30009F92AF92BF92EF92FF920F931F93CF930A
:102B4000DF93C82FD0E08E01000F111F075F154FD4
:102B5000F801208131812115310521F02130310525
:102B6000A1F16FC00E94DA19009719F00197A1F145
:102B70006BC00E94061E9E01220F331F220F331FBF
:102B8000A9014B5C564F7A01FA0180809180A280A6
:102B9000B380DC01CB0188199909AA09BB09069702
:102BA000A105B10508F450C081E090E0F8019183DF
:102BB0008083C059D94F88830E94061EF701608325
:102BC00071838283938381E040C00E94DA19009769
:102BD00019F0019771F038C00E94061ECC0FDD1F5E
:102BE000CC0FDD1FCB5CD64F688379838A839B83B0
:102BF0002BC00E94061E9E01220F331F220F331F7F
:102C0000A9014B5C564F7A01FA0180809180A28025
:102C1000B380DC01CB0188199909AA09BB09069781
:102C2000A105B10588F0F80111821082C059D94F71
:102C300018820E94061EF70160837183828393834A
:102C400003C0F8011182108280E0DF91CF911F91C3
:102C50000F91FF90EF90BF90AF909F908F9008954D
:102C600061E086ED9BE00E94510D8BE39FE10197AF
:102C7000F1F70895CF92DF92EF92FF920F931F9397
:102C8000CF93DF93CDB7DEB728970FB6F894DEBFAA
:102C90000FBECDBF8A01C090F002D090F102E0904B
:102CA000F202F090F302CD82DE82EF82F886C090CD
:102CB000F402D090F502E090F602F090F702C9829B
:102CC000DA82EB82FC829091DD0B691710F06FEFD6
:102CD000690F4091DE0B262F30E0FE01E20FF31F5B
:102CE000403121F4943011F4618101C06581680F95
:102CF000606886ED9BE00E94510DB80186ED9BE077
:102D000028960FB6F894DEBF0FBECDBFDF91CF91EE
:102D10001F910F91FF90EF90DF90CF900C941B12BA
:102D2000EEE1F6E080E0928191118F5F399696E0B6
:102D3000E636F907C1F70895382F21E049E0932FCF
:102D4000920F892F8770489FF0011124E25EF94F9E
:102D50009281911103C02F5F293089F708958091E6
:102D6000680681110AC0E9E6F6E08191811107C089
:102D700096E0E037F907C9F70895109268060895BC
:102D800080911F0681110BC0EEE1F6E08281811176
:102D900008C0399696E0E636F907C1F70895109213
:102DA0001F06089590911E06992341F091E090939B
:102DB0006806E82FF0E0E759F94F908308958F9265
:102DC0009F92AF92BF92CF92DF92EF92FF920F93BA
:102DD0001F93CF93DF9390911E06992381F1680191
:102DE00079014A015B01C82FD1E0D0931F06682FFB
:102DF00070E080E090E04AE00E940E1889E00E94B6
:102E0000511842E0C501B4010E94561889E00E94A1
:102E1000511842E0C701B6010E9456180E94071FD0
:102E200089E0C89FF0011124E25EF94FD2838382CA
:102E30009482A582B682C782D086E186F286DF912F
:102E4000CF911F910F91FF90EF90DF90CF90BF90A7
:102E5000AF909F908F90089520E042E060E186ED72
:102E60009BE00E94590D62E086ED9BE00E94510DAF
:102E70008BE39FE10197F1F70E9430164AEB55E092
:102E800060E080E00E943A164BEC55E061E080E0A3
:102E90000E943A1661E08CE00E94321A61E087E0FD
:102EA0000E94321A10921E0644EF51E060E070E07A
:102EB00084EF91E00E946E1A1092BD061092BC063B
:102EC0001092A6061092A50662E08AE20E94321ACB
:102ED00062E08CE20E94321A62E08EE20E94321AB4
:102EE00062E080E30E94321A62E088E20E94321AB5
:102EF00062E086E20E94321A0E945715E7EAF6E085
:102F000082E0828384EF91E0978786878EE090E06D
:102F1000918B808B82E090E0938B828B8EE0858317
:102F20008EE1868387E0878389E183838AE08483D7
:102F30008EE190E0938782878AE090E0958784878E
:102F40008EEF848B84E190E0918780870895CF9302
:102F5000C82F0E94061E24E0C29FF0011124EE5EDD
:102F6000F94F608371838283938380E0CF910895CA
:102F700090E0FC013197E231F10508F04EC088275E
:102F8000EA54FF4F8F4F0C94EA4A809180008F776C
:102F900003C0809180008F7D809380000895809190
:102FA0008000877FF9CF84B58F7702C084B58F7D8D
:102FB00084BD08958091B0008F7703C08091B000E8
:102FC0008F7D8093B0000895809190008F7707C027
:102FD000809190008F7D03C080919000877F8093C7
:102FE000900008958091A0008F7707C08091A00085
:102FF0008F7D03C08091A000877F8093A0000895FB
:10300000809120018F7707C0809120018F7D03C0C0
:1030100080912001877F8093200108958F929F9255
:10302000AF92BF920F931F93CF93DF93CDB7DEB7CD
:10303000A1970FB6F894DEBF0FBECDBF19A24230E4
:1030400008F44AE08E010F5D1F4F842E912CA12CB5
:10305000B12CA50194010E94A94AE62FB901CA0129
:1030600001501109EA3014F4E05D01C0E95CD801B7
:10307000EC93232B242B252B61F7B8018DE29BE0E9
:103080000E940612A1960FB6F894DEBF0FBECDBF08
:10309000DF91CF911F910F91BF90AF909F908F9034
:1030A0000895682F8DE29BE00C94AD0E8F929F9255
:1030B000AF92BF92CF92DF92EF92FF920F931F9346
:1030C000CF93DF936B017C01142F9B01AC010E9415
:1030D0005E4D882319F06CED75E027C0460157015D
:1030E000E894B7F82FEF3FEF4FE75FE7C501B40172
:1030F0000E945E4D81110DC02FEF3FEF4FE75FE75C
:10310000C501B4010E948D4B18161CF460EE75E0E9
:103110000CC02FEF3FEF4FE75FE4C701B6010E94FD
:10312000EC4C181694F464EE75E08DE29BE0DF91B0
:10313000CF911F910F91FF90EF90DF90CF90BF90B4
:10314000AF909F908F900C9406122FEF3FEF4FE7B8
:103150005FECC701B6010E948D4B87FDE4CF20E0F4
:1031600030E0A901C701B6010E948D4B87FF09C05D
:103170008DE20E945118EC01F7FAF094F7F8F09400
:1031800002C0C0E0D0E000E060E070E080E09FE3DB
:10319000101741F020E030E040E251E40E94924BF1
:1031A0000F5FF6CFA70196010E94214B6B017C01B6
:1031B0000E940B4C4B015C014AE00E940E18C80FA4
:1031C000D91F1123A9F1C501B4010E943A4C9B01FA
:1031D000AC01C701B6010E94204B6B017C018EE25D
:1031E0000E945118C80FD91F20E030E040E251E49E
:1031F000C701B6010E94F14C4B015C010E940B4CCF
:103200006B01E12CF12C4AE0C701B6010E940E18B7
:10321000C80FD91FC701B6010E943A4C9B01AC01EF
:10322000C501B4010E94204B6B017C011150E1F6F5
:10323000CE01DF91CF911F910F91FF90EF90DF9022
:10324000CF90BF90AF909F908F900895282F30918E
:10325000130B313208F04AC08091EF0A8111FCCF84
:103260009091120B42E04093EF0A2093EE0A2FEF69
:103270002093ED0A1092EC0A3093EB0AE2EFFAE0A9
:10328000ABECBAE020E0321721F041914D932F5F73
:10329000FACF1092CA0A2091CA0A990F922B9093E2
:1032A000CA0A9091C90A913061F41092C90A9091AA
:1032B000CA0A9093BB009091BC0093FDF8CF95ECA7
:1032C00001C095EE9093BC009091EF0A9230E1F32B
:1032D0009091ED0A9F3F79F08091ED0A803241F0A4
:1032E0008091ED0A803331F084E005C081E003C0B5
:1032F00082E001C083E01092F10A1092130B109249
:10330000F00A0895682F8AEC9BE00C94DE0FCF92B0
:10331000DF92EF92FF92CF93DF936C01990FEE084B
:10332000FF08F7FE17C08DE20E945118EC016627D6
:103330007727CB016C197D098E099F094AE00E940D
:103340000E188C0F9D1FDF91CF91FF90EF90DF90B3
:10335000CF9008954AE0C701B601DF91CF91FF9069
:10336000EF90DF90CF900C940E18CF92DF92EF92F7
:10337000FF920F93CF93DF936B017A01E901AC01C8
:1033800060E080E00E943A16A60160E088E00E94BA
:103390003A16A70161E084E00E943A16AE0161E0AE
:1033A000802FDF91CF910F91FF90EF90DF90CF9022
:1033B0000C943A16CF93DF93282F30E0F901ED51AA
:1033C000FB4F8491F901E75DFA4FD491F901E7577A
:1033D000FA4FC491CC2391F081110E94B817EC2FC1
:1033E000F0E0EE0FFF1FE159FA4FA591B491EC9177
:1033F000ED2381E090E021F480E002C080E090E0E5
:10340000DF91CF9108951F93CF93DF93282F30E062
:10341000F901ED51FB4F8491F901E75DFA4FD49129
:10342000F901E757FA4FC491CC23C1F0162F81114F
:103430000E94B817EC2FF0E0EE0FFF1FE853FB4F90
:10344000A591B4919FB7F894111104C08C91D095B7
:10345000D82302C0EC91DE2BDC939FBFDF91CF918C
:103460001F910895CF93DF9390E0FC01E75DFA4F41
:103470002491FC01E757FA4F8491882361F190E091
:10348000880F991FFC01E255FB4FC591D491FC01B7
:10349000E853FB4FA591B491611109C09FB7F8940F
:1034A0008881209582238883EC912E230BC0623083
:1034B00061F49FB7F8948881322F309583238883F5
:1034C000EC912E2B2C939FBF06C08FB7F894E88108
:1034D0002E2B28838FBFDF91CF9108954F925F925B
:1034E0006F927F928F929F92AF92BF92CF92DF9214
:1034F000EF92FF920F931F93CF93DF9300D01F9211
:103500001F92CDB7DEB78C012A013B0180910002EA
:10351000873021F08F3F09F01FC305C0E2EEF4E0D1
:1035200024912D83D9C087E080930002E2EEF4E07D
:1035300084918D838F3F09F40FC3823009F468C0F2
:1035400028F5882309F44BC0813009F0C5C01092DA
:1035500080001092810080918100886080938100BA
:1035600080918100816080938100E0E9F5E0E49141
:10357000F0E0EE0FFF1FE853FB4F85919491E0E3DD
:10358000F5E0E491E093170B21E0A4C09D81943015
:1035900009F482C008F460C0953009F09DC0109213
:1035A00020011092210180912101886080932101E6
:1035B00080912101816080932101E0E9F5E0E491AF
:1035C000F0E0EE0FFF1FE853FB4F85919491E0E38D
:1035D000F5E0E491E093140B85E08D8307C114BC02
:1035E00015BC84B5826084BD85B5816085BDE0E988
:1035F000F5E0E491F0E0EE0FFF1FE853FB4F8591FB
:103600009491E0E3F5E0E491E093180B1D829FC2F2
:103610001092B0001092B1008091B000826080934F
:10362000B0008091B10081608093B100E0E9F5E0E5
:10363000E491F0E0EE0FFF1FE853FB4F859194916A
:103640009093C40A8093C30AE0E3F5E0E491E09329
:10365000C20A82E08D837BC210929000109291008A
:1036600080919100886080939100809191008160A9
:1036700080939100E0E9F5E0E491F0E0EE0FFF1FA8
:10368000E853FB4F85919491E0E3F5E0E491E093FA
:10369000160B93E09D83AAC01092A0001092A10087
:1036A0008091A10088608093A1008091A100816039
:1036B0008093A100E0E9F5E0E491F0E0EE0FFF1F58
:1036C000E853FB4F85919491E0E3F5E0E491E093BA
:1036D000150B24E02D838AC09D8197FD3DC261E0DA
:1036E00087E00E94321A8D818D7F09F083C04801E6
:1036F000A12CB12C60E072E18AE790E0A501940171
:103700000E94CB4A29833A834B835C8369017A0107
:1037100021E0C21AD108E108F1088FEFC816D104E0
:10372000E104F10409F008F44EC060E472E48FE0B3
:1037300090E0A50194010E94CB4A69017A0191E0D1
:10374000C91AD108E108F1082D81223009F58FEF5F
:10375000C816D104E104F10409F008F4BFC160E91E
:1037600070ED83E090E0A50194010E94CB4A6901CD
:103770007A0191E0C91AD108E108F1082FEFC216C9
:10378000D104E104F10411F008F036C183E027C050
:103790008FEFC816D104E104F104B9F0B0F068E489
:1037A00078EE81E090E0A50194010E94CB4A690186
:1037B0007A0191E0C91AD108E108F1082D8122238C
:1037C00009F490C158C181E001C082E09D8191114E
:1037D00006C095B5987F892B85BD7FC085E0909107
:1037E000B100987F892B8093B10077C061E087E0BA
:1037F0000E94321A4801A12CB12C60E072E18AE7E4
:1038000090E0A50194010E94CB4A69017A0181E010
:10381000C81AD108E108F108C114D10491E0E90601
:10382000F10488F068E478EE81E090E0A50194016D
:103830000E94CB4A69017A0181E0C81AD108E108E7
:10384000F10883E001C081E09D81913081F4909185
:103850008100987F892B8093810041145104610479
:10386000710409F03FC02FEF3FEFA9016DC02D811A
:10387000233079F490919100987F892B8093910067
:10388000411451046104710469F52FEF3FEFA90160
:103890007DC09D81943079F49091A100987F892B0F
:1038A0008093A1004114510461047104D9F42FEFF5
:1038B0003FEFA9017DC02D81253079F49091210140
:1038C000987F892B80932101411451046104710474
:1038D00049F42FEF3FEFA9017DC041145104610469
:1038E000710471F0D801AA0FBB1FA30192010E94BD
:1038F000F24A28EE33E040E050E00E94A94A03C0BB
:103900002FEF3FEFA9018D81823081F12CF48823C4
:1039100061F08130C9F020C19D81943009F448C024
:10392000ACF1953009F456C017C1C7BC2093290BE0
:1039300030932A0B40932B0B50932C0B80916E00ED
:10394000826080936E0008C1D0928900C092880086
:103950002093250B3093260B4093270B5093280B75
:1039600080916F00826080936F00F6C0C092B300B8
:103970002093C50A3093C60A4093C70A5093C80AD9
:1039800080917000826080937000E6C0D0929900B0
:10399000C09298002093210B3093220B4093230B6D
:1039A0005093240B80917100826080937100D4C089
:1039B000D092A900C092A80020931D0B30931E0B3B
:1039C00040931F0B5093200B809172008260809374
:1039D0007200C2C0D0922901C09228012093190B15
:1039E00030931A0B40931B0B50931C0B8091730068
:1039F000826080937300B0C068E478EE81E090E06C
:103A0000A50194010E94CB4A69017A0181E0C81A9C
:103A1000D108E108F1089FEFC916D104E104F104CF
:103A200041F138F164E274EF80E090E0A501940187
:103A30000E94CB4A69017A0181E0C81AD108E108E5
:103A4000F1089FEFC916D104E104F10409F008F46C
:103A5000C5CE62E17AE780E090E0A50194010E9482
:103A6000CB4A69017A0181E0C81AD108E108F1085E
:103A700018C084E0B4CE2FEFC216D104E104F104E3
:103A800079F170F162E17AE780E090E0A5019401BC
:103A90000E94CB4A69017A0191E0C91AD108E10874
:103AA000F1088FEFC816D104E104F104A9F0A0F0E9
:103AB00089819A81AB81BC812AE0B595A7959795BC
:103AC00087952A95D1F76C017D0121E0C21AD108B2
:103AD000E108F10887E083CE86E081CE82E07FCEE8
:103AE00084E074CE2FEFC216D104E104F10469F131
:103AF00060F162E17AE780E090E0A50194010E9424
:103B0000CB4A69017A0181E0C81AD108E108F108BD
:103B10009FEFC916D104E104F104A9F0A0F0898156
:103B20009A81AB81BC813AE0B595A7959795879529
:103B30003A95D1F76C017D0121E0C21AD108E10864
:103B4000F10885E046CE84E044CE83E042CE61E0D9
:103B500087E00E94321ACBCD0F900F900F900F90FC
:103B60000F90DF91CF911F910F91FF90EF90DF9019
:103B7000CF90BF90AF909F908F907F906F905F900D
:103B80004F900895863308F0865390917B00282F3C
:103B90002870977F922B90937B008770806480932E
:103BA0007C0080917A00806480937A0080917A0012
:103BB00086FDFCCF809178002091790090E0922BD7
:103BC00008953FB7F8948091BE0A9091BF0AA091E2
:103BD000C00AB091C10A26B5A89B05C02F3F19F0B5
:103BE0000196A11DB11D3FBFBA2FA92F982F88277D
:103BF000820F911DA11DB11DBC01CD0142E0660FD8
:103C0000771F881F991F4A95D1F708952FB7F89409
:103C10006091BA0A7091BB0A8091BC0A9091BD0A6A
:103C20002FBF08954F925F926F927F928F929F92D3
:103C3000AF92BF92CF92DF92EF92FF920F931F93BA
:103C4000CF93DF93CDB7DEB74C01DC015F965C9379
:103C50004E935E975D967C936E935C9791963C93A2
:103C60002E939097DA961C92FC0112AA13AA14AA1A
:103C700015AA80E090E0AFE7B3E486AB97ABA0AFC6
:103C8000B1AF84E690E0A0E0B0E086A797A7A0AB34
:103C9000B1AB118E108E20E030E0A901C801B70150
:103CA0000E948D4B87FD56C020E030E0A901C6017F
:103CB000B5010E948D4B87FD4DC020E030E0A90189
:103CC0006C897D898E899F890E948D4B87FD42C0BA
:103CD00081E090E0D4015B969C938E935A97DB969B
:103CE0008C93DB97F401E082F182028313831496B4
:103CF000AD92BD92CD92DC9217978C899D89AE8949
:103D0000BF8980879187A287B387D4011C96ED92E3
:103D1000FD920D931C931F972DEC3CEC4CEC5DE356
:103D2000C601B5010E94F14CF401608B718B828B4E
:103D3000938B2DEC3CEC4CEC5DE36C897D898E899A
:103D40009F890E94924BD40154966D937D938D93DD
:103D50009C9357970E94061EF401C6A4D7A4E0A81E
:103D6000F1A8DC01CB018C199D09AE09BF0982A322
:103D700093A3A4A3B5A3DF91CF911F910F91FF90BF
:103D8000EF90DF90CF90BF90AF909F908F907F90FB
:103D90006F905F904F900895AF92BF92CF92DF9255
:103DA000EF92FF920F931F93CF93DF938C015C01EF
:103DB0008EE0A80EB11CC42ED12CC0E0D0E0E62EBF
:103DC000F12CCC15DD0579F0B7010C2E02C07595EC
:103DD00067950A94E2F76170F50181915F010E9495
:103DE000031A2196EECF61E0F80185850E94031A3F
:103DF00060E0F8018585DF91CF911F910F91FF90D1
:103E0000EF90DF90CF90BF90AF900C94031A68EEC4
:103E100075E08DE29BE00C940612CF92DF92EF9258
:103E2000FF92CF93DF936B017C0120E030E0A9018A
:103E30000E948D4B87FF06C0F7FAF094F7F8F094D4
:103E400060E001C061E084E00E94031A21EE3AE7DD
:103E500044E050E4C701B6010E94924B20E030E0FC
:103E60004FE753E40E94F14C0E94044C6B017C012B
:103E7000EB0161E085E00E94321A209711F460E0C6
:103E800004C0CF3FD10551F461E085E0DF91CF91CF
:103E9000FF90EF90DF90CF900C94031AE8EEF4E0DF
:103EA000E4918E2F90E0FC013197E231F10508F0AA
:103EB0009DC08827E853FF4F8F4F0C94EA4A84B582
:103EC000806884BDC7BC97C084B5806284BDC8BC0F
:103ED00092C080918000806880938000D092890099
:103EE000C092880088C080918000806280938000AA
:103EF000D0928B00C0928A007EC080918000886042
:103F000080938000D0928D00C0928C0074C080910C
:103F1000B00080688093B000C092B3006CC0809104
:103F2000B00080628093B000C092B40064C0809101
:103F30009000806880939000D0929900C092980081
:103F40005AC080919000806280939000D0929B0034
:103F5000C0929A0050C08091900088608093900039
:103F6000D0929D00C0929C0046C08091A0008068C5
:103F70008093A0008091A0008F7B8093A000D092BE
:103F8000A900C092A80037C08091A00080628093F1
:103F9000A000D092AB00C092AA002DC08091A000DA
:103FA00088608093A000D092AD00C092AC0023C086
:103FB00080912001806880932001D0922901C092D5
:103FC000280119C080912001806280932001D09245
:103FD0002B01C0922A010FC080912001886080933C
:103FE0002001D0922D01C0922C0105C0C038D1050E
:103FF0000CF04ACF44CFDF91CF91FF90EF90DF904C
:10400000CF9008951F920F920FB60F9211242F9305
:104010003F938F939F93AF93BF938091BA0A9091F0
:10402000BB0AA091BC0AB091BD0A3091F90C23E003
:10403000230F2D3720F40196A11DB11D05C026E8E0
:10404000230F0296A11DB11D2093F90C8093BA0A8B
:104050009093BB0AA093BC0AB093BD0A8091BE0A9C
:104060009091BF0AA091C00AB091C10A0196A11D0A
:10407000B11D8093BE0A9093BF0AA093C00AB0936B
:10408000C10ABF91AF919F918F913F912F910F9056
:104090000FBE0F901F901895CF93DF93CDB7DEB76B
:1040A000ED970FB6F894DEBF0FBECDBF789484B500
:1040B000826084BD84B5816084BD85B5826085BD24
:1040C00085B5816085BD80916E00816080936E00B2
:1040D00010928100809181008260809381008091A4
:1040E0008100816080938100809180008160809355
:1040F00080008091B10084608093B1008091B00015
:1041000081608093B00080919100826080939100E3
:1041100080919100816080939100809190008160F6
:10412000809390008091A10082608093A100809193
:10413000A10081608093A1008091A00081608093A4
:10414000A000809121018260809321018091210152
:104150008160809321018091200181608093200102
:1041600080917A00846080937A0080917A008260E6
:1041700080937A0080917A00816080937A008091A8
:104180007A00806880937A001092C1000E942C17F8
:1041900010920307109202071092FE061092FF067B
:1041A00010920007109201071092FD061092680706
:1041B000109267071092F1051092F0051092F10A23
:1041C0001092130B1092EF0A81E08093EE0A109286
:1041D000C90A61E084E10E94031A61E085E10E945E
:1041E000031A8091B9008E7F8093B9008091B90045
:1041F0008D7F8093B90088E48093B80085E4809334
:10420000BC0083E89FE09093EF058093EE0584E87F
:104210009FE09093ED058093EC0510927F0710923C
:104220007E071092360C1092370C1092380C1092B8
:10423000390C10923A0C10923B0C10923C0C1092DC
:104240003D0C1092420C1092430C1092440C1092B0
:10425000450C1092460C1092470C1092480C10928C
:10426000490C10924A0C10924C0C10924D0C10926A
:104270004E0C10924F0C1092500C1092510C109248
:10428000520C1092530C1092540C1092550C109228
:10429000560C1092570C1092580C1092590C109208
:1042A0005A0C10925B0C10925C0C10925D0C1092E8
:1042B0005E0C10925F0C1092600C1092610C1092C8
:1042C000620C1092630C1092640C1092650C1092A8
:1042D000660C1092670C1092680C1092690C109288
:1042E0006A0C10926B0C10926C0C10926D0C109268
:1042F0006E0C10926F0C1092700C1092710C109248
:10430000720C1092730C1092740C1092750C109227
:10431000760C1092770C1092780C1092790C109207
:104320007A0C10927B0C10927C0C10927D0C1092E7
:104330007E0C10927F0C1092800C1092810C1092C7
:10434000820C1092830C1092840C1092850C1092A7
:10435000860C1092870C1092880C1092890C109287
:104360008A0C10928B0C10928C0C10928D0C109267
:104370008E0C10928F0C1092900C1092910C109247
:10438000920C1092930C1092940C1092950C109227
:10439000960C1092970C1092980C1092990C109207
:1043A0009A0C10929B0C10929C0C10929D0C1092E7
:1043B0009E0C10929F0C1092A00C1092A10C1092C7
:1043C000A20C1092A30C1092A40C1092A60C1092A6
:1043D000A50C1092A70C1092A80C80E090E0A0E031
:1043E000B0E48093A90C9093AA0CA093AB0CB0936B
:1043F000AC0C1092AD0C1092AE0C1092AF0C10924F
:10440000B00C8091EB0C811104C081EB9CE00E9408
:10441000111581E08093EB0CB5E9CB2EB4EDDB2ECA
:10442000EE24E394B0ECFB2EC092E30CD092E40CAB
:10443000E092E50CF092E60C15E9412E14ED512EB8
:104440006624639410E4712E4092E70C5092E80CBD
:104450006092E90C7092EA0C0091CF0C1091D00C94
:10446000F80180809180A280B380A3019201C501F0
:10447000B4010E94EC4C181634F4F80140825182C9
:10448000628273820FC025E934ED41E050ECC50132
:10449000B4010E948D4B87FF05C0F801C082D18214
:1044A000E282F3828090D70C9090D80CA090D90C27
:1044B000B090DA0CC090E70CD090E80CE090E90CDA
:1044C000F090EA0CA7019601C501B4010E94EC4CE2
:1044D000181684F0C090E30CD090E40CE090E50C4A
:1044E000F090E60CA7019601C501B4010E948D4B26
:1044F00087FF08C0C092D70CD092D80CE092D90C9C
:10450000F092DA0C6091DF0C7091E00C8091E10C7C
:104510009091E20C0E943A4C9B01AC0160E070E08B
:1045200080E090E40E94924B6B017C019B01AC0106
:104530006091C10C7091C20C8091C30C9091C40C1D
:104540000E94F14C6093C10C7093C20C8093C30C19
:104550009093C40CA70196016091C50C7091C60C94
:104560008091C70C9091C80C0E94924B6093C50C2F
:104570007093C60C8093C70C9093C80C82E090E0B7
:10458000A0E0B0E08093DF0C9093E00CA093E10CEE
:10459000B093E20C8091330C811104C089EF9BE051
:1045A0000E94111581E08093330CC12CD12CF0EACC
:1045B000EF2EF0E4FF2EC0922B0CD0922C0CE09248
:1045C0002D0CF0922E0C412C512CACE06A2EA2E462
:1045D0007A2E40922F0C5092300C6092310C7092D7
:1045E000320C0091170C1091180CF801808091800A
:1045F000A280B380A3019201C501B4010E94EC4CDA
:10460000181634F4F80140825182628273820FC01E
:1046100020E030E040EA50E4C501B4010E948D4B37
:1046200087FF05C0F801C082D182E282F3828090C8
:104630001F0C9090200CA090210CB090220CC090E8
:104640002F0CD090300CE090310CF090320CA70180
:104650009601C501B4010E94EC4C181684F0C0907C
:104660002B0CD0902C0CE0902D0CF0902E0CA70170
:104670009601C501B4010E948D4B87FF08C0C0920E
:104680001F0CD092200CE092210CF092220C609131
:10469000270C7091280C8091290C90912A0C0E9473
:1046A0003A4C9B01AC0160E070E080E090E40E9435
:1046B000924B6B017C019B01AC016091090C7091E4
:1046C0000A0C80910B0C90910C0C0E94F14C6093A1
:1046D000090C70930A0C80930B0C90930C0CA7019F
:1046E000960160910D0C70910E0C80910F0C9091C1
:1046F000100C0E94924B60930D0C70930E0C8093E3
:104700000F0C9093100C82E090E0A0E0B0E080935A
:10471000270C9093280CA093290CB0932A0C61E0ED
:1047200085E00E94321A61E084E00E94321A60E063
:1047300086E00E94321AE0913D0BF0913E0B82E040
:104740008083E091390BF0913A0B1082E0913B0BA2
:10475000F0913C0B80E180831092450BE091410B7E
:10476000F091420B86E08083E0913F0BF091400B8B
:10477000808180618083E0913F0BF091400B8081CC
:1047800088608083E0913F0BF091400B80818068CE
:104790008083E0913F0BF091400B80818F7D80837F
:1047A0001092FC061092F70684E690E0A0E0B0E0DC
:1047B0008093F8069093F906A093FA06B093FB064F
:1047C00061E08DE00E94321A1092BA071092B90788
:1047D0000E94061E6093BB077093BC078093BD07C1
:1047E0009093BE0752E0C52ED12CEE24E394F12C19
:1047F00079E0972EE7E0AE2EB12C8091450790919D
:104800004607A0914707B09148078093C20690934E
:10481000C306A093C406B093C5068091A70C882355
:10482000A1F11092A70C8091490790914A07A0919D
:104830004B07B0914C0720E030E040EF50EC209364
:10484000490730934A0740934B0750934C07809396
:10485000C6069093C706A093C806B093C906809178
:104860005107882391F01092510780914D07909144
:104870004E07A0914F07B09150078093CA069093BE
:10488000CB06A093CC06B093CD068091A80C8823CC
:10489000C1F01092A80C80915107882391F01092DA
:1048A000510780914D0790914E07A0914F07B0910D
:1048B00050078093CE069093CF06A093D006B09376
:1048C000D10680910207909103078130910581F113
:1048D000C0F0029709F023C110920307109202075B
:1048E000109245071092460710924707109248070A
:1048F00044E057E05BAF4AAF8A0160E070E0CB0173
:1049000084C00E94061E0091120610911306209189
:10491000140630911506DC01CB01801B910BA20B14
:10492000B30B0B97A105B10508F4F9C00C94B9427B
:1049300010917A0080917A00887F846080937A0059
:1049400086E30E94C21D10937A00BC01990F880B68
:10495000990B0E943C4C20E030E046E952E40E9472
:10496000F14C20E030EC4FE754E40E94924B20E001
:1049700030E040EF50E40E94204B20E030E040E87F
:104980005EE30E94F14C2091FE063091FF064091BB
:104990000007509101070E94214B6093FE0670931F
:1049A000FF0680930007909301072091FD062330B6
:1049B00019F5D0920307C09202072091440730E016
:1049C0002F5F3F4F2F70332720934407220F331F51
:1049D000220F331FF901EC5FF84F608371838283EC
:1049E00093831092FD061092FE061092FF0610921D
:1049F00000071092010793C010920307109202075C
:104A000081E0820F8093FD068AC0F80121913191E7
:104A1000419151918F010E94214BF7E004341F070F
:104A2000A1F720E030E040E85DE30E94F14C2B016B
:104A30003C01609345077093460780934707909326
:104A400048073090490780904A0700914B07109122
:104A50004C07E091440724E0E29FF0011124EC5F51
:104A6000F84F208031813EAB42814CAF53815DAF26
:104A7000222D632D782DC8010E94EC4C181624F0CD
:104A8000322C8EA80CAD1DAD832D982DD8018093AE
:104A9000490790934A07A0934B07B0934C07EAADA0
:104AA000FBAD6191719181919191FBAFEAAFA3014F
:104AB00092010E94204B6EAB7FAB88AF99AF20E094
:104AC00030E0A9010E94EC4C18166CF420E030E0B4
:104AD00040E850E46EA97FA988AD99AD0E94EC4CE6
:104AE0001816ECF00CC020E030E040E850EC6EA965
:104AF0007FA988AD99AD0E948D4B87FD10C02AAD6E
:104B00003BAD2454374059F681E0809351074092E1
:104B10004D0750924E0760924F0770925007809158
:104B20006707909168078130910569F1A8F00297B5
:104B300009F0B2C0109268071092670710926207DE
:104B400010926307109264071092650702E517E060
:104B5000412C512C320180C00E94061E0091160685
:104B6000109117062091180630911906DC01CB012F
:104B7000801B910BA20BB30B0B97A105B10508F499
:104B80008BC00C94C242D0926807C0926707809194
:104B9000660790E00196837099278093660780915D
:104BA000EF0A8111FCCF81E08093EF0A8093EE0A37
:104BB0009FEF9093ED0A1092EC0A92E09093EB0A2B
:104BC0008093CA0A8091CA0A80688093CA0A809139
:104BD000C90A813061F41092C90A8091CA0A80938F
:104BE000BB008091BC0083FDF8CF85EC01C085EE51
:104BF0008093BC008091EF0A8130E1F38091EC0A50
:104C0000833018F41091EC0A01C013E0ABECBAE069
:104C1000E2EFF5E080E0811721F09D9191938F5FA5
:104C2000FACF1092F1051093F005112321F08AECD0
:104C30009BE00E94950F8091F105181721F08AECF6
:104C40009BE00E94950F8091F105181729F18AECDD
:104C50009BE00E94950F20C0F801619171918191B4
:104C600091918F0120E030E040E85EE30E94F14C3A
:104C70009B01AC01C301B2010E94214B2B013C01FD
:104C8000F7E002361F0741F76093620770936307EE
:104C9000809364079093650780917E0790917F07CA
:104CA0008130910569F1A8F0029709F08EC0109249
:104CB0007F0710927E071092790710927A07109260
:104CC0007B0710927C0709E617E0412C512C32013A
:104CD0005CC00E94061E00911A0610911B062091CE
:104CE0001C0630911D06DC01CB01801B910BA20B31
:104CF000B30B4597A105B10508F467C00C94F342C6
:104D0000D0927F07C0927E0780917D0790E0019648
:104D10008370992780937D0710917A0080917A00A3
:104D2000887F846080937A0087E30E94C21D10937D
:104D30007A0000917D0724E0029F80011124075929
:104D4000184FBC01990F880B990B0E943C4C20E036
:104D500030E040E252E40E94F14C20E030EC4FE7BA
:104D600054E40E94924B20E030E040EA51E40E947B
:104D7000204B24EA30E74DE35EE30E94924BF801BA
:104D8000608371838283938320C0F8016191719164
:104D9000819191918F0120E030E040E85EE30E9434
:104DA000F14C9B01AC01C301B2010E94214B2B01CC
:104DB0003C01F7E009371F0741F7609379077093CB
:104DC0007A0780937B0790937C070E94F1061A8AEA
:104DD000E091BC06F091BD06E830F10510F00C94AE
:104DE000BD408827EE58FF4F8F4F0C94EA4A8EE261
:104DF0000E949715882311F40C94C1400E9430162C
:104E000040E353E060E080E00E943A1641E453E062
:104E100061E080E00E943A16F092BD06E092BC0686
:104E20000E9457150C94C1408091E206882341F0FE
:104E3000D092BD06C092BC060E9457150C94C1408A
:104E40008EE20E949715882351F085E090E09093C0
:104E5000BD068093BC060E9457150C94C14086E2A3
:104E60000E949715882341F0B092BD06A092BC061F
:104E70000E9457150C94C1401982E091A506F0914B
:104E8000A606ED32F10510F00C94913E8827E65805
:104E9000FF4F8F4F0C94EA4A8AE20E9497158823AD
:104EA00061F042E553E061E080E00E943A16D09262
:104EB000A606C092A5060C94C1408CE20E949715EC
:104EC000882361F043E653E061E080E00E943A16F7
:104ED000F092A606E092A5060C94C14080E30E94E1
:104EE0009715882369F082E08093A9068CE290E010
:104EF0009093A6068093A5060E9457150C94C14076
:104F000064EF71E080E090E00E946315882311F463
:104F10000C94C14083E090E09093A6068093A50690
:104F200044E753E061E080E00E943A160E94571582
:104F30000C94C1408AE20E9497158111B2CF8CE295
:104F40000E9497158111BECF80E30E9497158111B1
:104F5000CACF6AEF70E080E090E00E94631588237A
:104F600011F40C94C14041E453E061E080E00E9400
:104F70003A161092A6061092A5060E9457150C9498
:104F8000C1408AE20E949715882361F041E453E012
:104F900061E080E00E943A161092A6061092A506E3
:104FA0000C94C1408CE20E94971581117ACF80E366
:104FB0000E949715882391F043E653E061E080E07A
:104FC0000E943A161092A90686E090E09093A606F9
:104FD0008093A5060E9457150C94C14064EF71E0C0
:104FE00080E090E00E946315882311F40C94C14086
:104FF00084E090E09093A6068093A50644E753E0F2
:1050000061E080E00E943A160E9457150C94C1405E
:105010008AE20E9497158111B9CF8CE20E94971500
:1050200081113FCF80E30E9497158111C5CF6AEFB0
:1050300070E080E090E00E946315882311F40C94E6
:10504000C140F092A606E092A50643E653E061E077
:1050500080E00E943A160E9457150C94C1408AE2E3
:105060000E94971581112ECF8CE20E949715811115
:105070008DCF80E30E949715882399F042E553E095
:1050800061E080E00E943A1681E08093A90686E004
:1050900090E09093A6068093A5060E9457150C9465
:1050A000C14064EF71E080E090E00E9463158823C6
:1050B00011F40C94C14085E090E09093A606809393
:1050C000A50644E753E061E080E00E943A160E94A2
:1050D00057150C94C1408AE20E9497158111F2CEB7
:1050E0008CE20E949715811151CF80E30E949715A1
:1050F0008111C4CF6AEF70E080E090E00E946315F8
:10510000882311F40C94C140D092A606C092A50643
:1051100042E553E061E080E00E943A160E94571594
:105120000C94C14064EF71E080E090E00E94631550
:10513000882311F40C94C1408091A906813049F56F
:105140000E94301645E853E060E080E00E943A1685
:105150004AE0BE016F5F7F4F8091AF069091B0062D
:105160000E94114866E973E0CE0101960E94684DE5
:10517000AE014F5F5F4F61E080E00E943A168AE027
:1051800090E09093A6068093A5060E9457150C9474
:10519000C14081110C94C1400E9430164DE953E08A
:1051A00060E080E00E943A164AE0BE016F5F7F4FE8
:1051B0008091B5069091B6060E9411486EEA73E0A0
:1051C000CE0101960E94684DAE014F5F5F4F61E0D6
:1051D00080E00E943A16B092A606A092A5060E9410
:1051E00057150C94C1408AE20E949715882341F11B
:1051F0008091AF069091B0068332910510F401962C
:1052000002C083E290E09093B0068093AF064AE03C
:10521000BE016F5F7F4F8091AF069091B0060E94F4
:10522000114866E973E0CE0101960E94684DAE0117
:105230004F5F5F4F61E080E00E943A160C94C140DE
:105240008CE20E949715882341F18091AF069091DE
:10525000B0068630910510F0019702C085E090E01D
:105260009093B0068093AF064AE0BE016F5F7F4F18
:105270008091AF069091B0060E94114866E973E0F4
:10528000CE0101960E94684DAE014F5F5F4F61E015
:1052900080E00E943A160C94C14080E30E9497156A
:1052A000882309F14AE0BE016F5F7F4F8091AF060E
:1052B0009091B0060E94114866E973E0CE01019614
:1052C0000E94684DAE014F5F5F4F61E080E00E9439
:1052D0003A168CE090E09093A6068093A5060E9473
:1052E00057150C94C14088E20E9497158823B1F0AD
:1052F0000E94301640E353E060E080E00E943A16DE
:1053000041E453E061E080E00E943A161092A60664
:105310001092A5060E9457150C94C14064EF71E0ED
:1053200080E090E00E946315882311F40C94C14042
:105330008BE090E09093A6068093A50644E753E0A7
:1053400061E080E00E943A160E9457150C94C1401B
:105350008AE20E949715882341F18091AF069091CF
:10536000B0068332910510F4019602C083E290E00A
:105370009093B0068093AF064AE0BE016F5F7F4F07
:105380008091AF069091B0060E94114866E973E0E3
:10539000CE0101960E94684DAE014F5F5F4F61E004
:1053A00080E00E943A160C94C1408CE20E9497154E
:1053B000882341F18091AF069091B0068630910527
:1053C00010F0019702C085E090E09093B0068093C2
:1053D000AF064AE0BE016F5F7F4F8091AF069091AC
:1053E000B0060E94114866E973E0CE0101960E9462
:1053F000684DAE014F5F5F4F61E080E00E943A165A
:105400000C94C14080E30E949715882309F14AE07B
:10541000BE016F5F7F4F8091AF069091B0060E94F2
:10542000114866E973E0CE0101960E94684DAE0115
:105430004F5F5F4F61E080E00E943A168CE090E0A1
:105440009093A6068093A5060E9457150C94C14020
:1054500088E20E94971581114BCF6AEF70E080E0DF
:1054600090E00E946315882311F40C94C1404AE037
:10547000BE016F5F7F4F8091AF069091B0060E9492
:10548000114866E973E0CE0101960E94684DAE01B5
:105490004F5F5F4F61E080E00E943A168AE090E043
:1054A0009093A6068093A5060E9457150C94C140C0
:1054B00064EF71E080E090E00E946315882311F4AE
:1054C0000C94C1400E94301641EB53E060E080E054
:1054D0000E943A164AE0BE016F5F7F4F8091B70687
:1054E0009091B8060E94114862EC73E0CE010196DB
:1054F0000E94684DAE014F5F5F4F61E080E00E9407
:105500003A168DE090E09093A6068093A5060E943F
:1055100057150C94C1408AE20E949715882349F1DF
:105520008091B5069091B606803223E0920710F480
:10553000C29602C080E293E09093B6068093B506CF
:105540004AE0BE016F5F7F4F8091B5069091B6062D
:105550000E9411486EEA73E0CE0101960E94684DE8
:10556000AE014F5F5F4F61E080E00E943A160C94FD
:10557000C1408CE20E949715882349F18091B506BD
:105580009091B6068D3231E0930710F0C29702C0B9
:105590008CE291E09093B6068093B5064AE0BE0196
:1055A0006F5F7F4F8091B5069091B6060E941148BB
:1055B0006EEA73E0CE0101960E94684DAE014F5F26
:1055C0005F4F61E080E00E943A160C94C14080E396
:1055D0000E949715882309F14AE0BE016F5F7F4F53
:1055E0008091B5069091B6060E9411486EEA73E06C
:1055F000CE0101960E94684DAE014F5F5F4F61E0A2
:1056000080E00E943A1689E090E09093A60680938D
:10561000A5060E9457150C94C14088E20E94971578
:10562000811166CE64EF71E080E090E00E94631526
:10563000882311F40C94C14088E090E09093A60672
:105640008093A50644E753E061E080E00E943A16AB
:105650000E9457150C94C1408AE20E949715882336
:1056600049F18091B5069091B606803243E09407E7
:1056700010F4C29602C080E293E09093B606809345
:10568000B5064AE0BE016F5F7F4F8091B5069091ED
:10569000B6060E9411486EEA73E0CE0101960E94A0
:1056A000684DAE014F5F5F4F61E080E00E943A16A7
:1056B0000C94C1408CE20E949715882349F1809197
:1056C000B5069091B6068D3251E0950710F0C2975D
:1056D00002C08CE291E09093B6068093B5064AE052
:1056E000BE016F5F7F4F8091B5069091B6060E9414
:1056F00011486EEA73E0CE0101960E94684DAE013A
:105700004F5F5F4F61E080E00E943A160C94C14009
:1057100080E30E949715882309F14AE0BE016F5F7C
:105720007F4F8091B5069091B6060E9411486EEAAF
:1057300073E0CE0101960E94684DAE014F5F5F4F4E
:1057400061E080E00E943A1689E090E09093A6061E
:105750008093A5060E9457150C94C14088E20E94D0
:1057600097158111C5CD6AEF70E080E090E00E944E
:105770006315882311F40C94C1404AE0BE016F5FA9
:105780007F4F8091B5069091B6060E9411486EEA4F
:1057900073E0CE0101960E94684DAE014F5F5F4FEE
:1057A00061E080E00E943A16B092A606A092A5069B
:1057B0000E9457150C94C14064EF71E080E090E0C6
:1057C0000E946315882311F40C94C1400E94301686
:1057D00041EB53E060E080E00E943A164AE0BE01EF
:1057E0006F5F7F4F8091B7069091B8060E94114875
:1057F00062EC73E0CE0101960E94684DAE014F5FEE
:105800005F4F61E080E00E943A168DE090E0909357
:10581000A6068093A5060E9457150C94C1408AE203
:105820000E949715882341F18091B7069091B806A0
:105830008031910510F4019602C080E190E09093D0
:10584000B8068093B7064AE0BE016F5F7F4F809134
:10585000B7069091B8060E94114862EC73E0CE0141
:1058600001960E94684DAE014F5F5F4F61E080E09E
:105870000E943A160C94C1408CE20E94971588232E
:1058800041F18091B7069091B8068D30910510F0E6
:10589000019702C08CE090E09093B8068093B70621
:1058A0004AE0BE016F5F7F4F8091B7069091B806C6
:1058B0000E94114862EC73E0CE0101960E94684D8F
:1058C000AE014F5F5F4F61E080E00E943A160C949A
:1058D000C14080E30E949715882309F14AE0BE0188
:1058E0006F5F7F4F8091B7069091B8060E94114874
:1058F00062EC73E0CE0101960E94684DAE014F5FED
:105900005F4F61E080E00E943A168FE090E0909354
:10591000A6068093A5060E9457150C94C14088E204
:105920000E949715882309F457C08091A9068130F9
:1059300049F50E94301645E853E060E080E00E949F
:105940003A164AE0BE016F5F7F4F8091AF0690919B
:10595000B0060E94114866E973E0CE0101960E94EC
:10596000684DAE014F5F5F4F61E080E00E943A16E4
:105970008AE090E09093A6068093A5060E945715B2
:105980000C94C14081110C94C1400E9430164DE925
:1059900053E060E080E00E943A164AE0BE016F5F8B
:1059A0007F4F8091B5069091B6060E9411486EEA2D
:1059B00073E0CE0101960E94684DAE014F5F5F4FCC
:1059C00061E080E00E943A16B092A606A092A50679
:1059D0000E9457150C94C14064EF71E080E090E0A4
:1059E0000E946315882311F40C94C1408EE090E06E
:1059F0009093A6068093A50644E753E061E080E01B
:105A00000E943A160E9457150C94C1408AE20E94E7
:105A10009715882341F18091B7069091B80680319F
:105A2000910510F4019602C080E190E09093B806D1
:105A30008093B7064AE0BE016F5F7F4F8091B70643
:105A40009091B8060E94114862EC73E0CE01019675
:105A50000E94684DAE014F5F5F4F61E080E00E94A1
:105A60003A160C94C1408CE20E949715882341F1AC
:105A70008091B7069091B8068D30910510F001978E
:105A800002C08CE090E09093B8068093B7064AE09D
:105A9000BE016F5F7F4F8091B7069091B8060E945C
:105AA000114862EC73E0CE0101960E94684DAE0190
:105AB0004F5F5F4F61E080E00E943A160C94C14056
:105AC00080E30E949715882309F14AE0BE016F5FC9
:105AD0007F4F8091B7069091B8060E94114862EC02
