:100000000C941A020C94A5050C947A050C944F05D7
:100010000C9424050C94F9040C94CE040C94A304C1
:100020000C9478040C944B020C944B020C944B02ED
:100030000C944B020C94D0050C944B020C944B0284
:100040000C944B020C944B020C944B020C944B02FC
:100050000C944B020C944B020C944B020C949E1289
:100060000C944B020C94AE060C9484060C944B0238
:100070000C944B020C944B020C944B020C944B02CC
:100080000C944B020C944B020C944B020C944B02BC
:100090000C944B020C944B020C944B020C944B02AC
:1000A0000C944B020C944B020C944B020C944B029C
:1000B0000C944B020C944B020C944B020C944B028C
:1000C0000C944B020C944B020C944B020C944B027C
:1000D0000C944B020C944B020C944B020C944B026C
:1000E0000C944B02BB1BD81B691CDF1C3D1CB31CB2
:1000F000201D4C1D361FD71F8920AF1D501E031F0A
:10010000BC20B521BF22F222BE239B24CD2486250C
:100110004F268126392701283328E728AA29DB29F9
:100120009C2A6E2BA02B5A2C262D772D4B2D0D2E75
:1001300050308C2ED62E4D2F822FBA2FED2F2230FD
:10014000660F6B0F700F7A0F840FFD0F8E0F960FD7
:100150009E0FA80FB20FBC0FCB0FD50FFD0FDF0FF7
:10016000E90FF30F29102C101B101F10251063101E
:10017000301034103A103E10421048104C105010FD
:10018000631056105A105E100C946E2B0C9481263E
:100190000C9441330C9489200C94BE230C945E1073
:1001A0000C94CB0F0C9478020C940D2E0C94660FCB
:1001B0000C943A100C949C2A0C9430100C94B20FAE
:1001C0000C94C00B0C94680B0C94772D0C945A2C47
:1001D0000C944D2F0C94AF1D0C94E7280C944D02F9
:1001E0000C945A100C944C1D0C947A0F0C94BA2F4A
:1001F0000C9442100C9433280C94E90F0C948C2E20
:100200000C9422300C94361F0C94AA290C944C1098
:100210000C94A9020C941F100C94C6030C94201D7E
:100220000C949B020C94A02B0C94670B0C94BC2098
:100230000C944F260C94F30F0C94D50F0C94A80F2C
:100240000C94031F0C9434100C9429100C94B521B9
:100250000C94E1020C9463100C9439270C949B24A9
:100260000C94DF0F0C945A0B0C943E100C94BC0FA2
:100270000C9401280C94D81B0C94BB1B0C94CC033D
:100280000C94DB290C944B2D0C94060E0C94481006
:100290000C94CD240C94F2220C94F00B0C94BF22FD
:1002A0000C94700F0C9456100C94ED2F0C943D1C74
:1002B0000C94D40B0C9450300C9450100C942510CA
:1002C0000C949E0F0C94FD0F0C942C100C94840F26
:1002D0000C94691C0C946B0F0C9486250C94262DA1
:1002E0000C948E0F0C9487020C94D62E0C942E0333
:1002F0000C94D71F0C94822F0C94DF1C0C94960F37
:100300000C94B31C0C941B100C94501E0C944E02B5
:100310000200000A0B02090C0D0E0807030401007D
:1003200000000000000000000000000000000000CD
:10033000000000000000000000000000001211108A
:1003400000000000000000000000000000000000AD
:10035000000000000000000102102020080810200A
:100360004010204080020102010804020101020441
:100370000810204080804020100804020180040200
:100380000180402010080402010804020101020457
:100390000810204080010204081020408000002046
:1003A000002300260029002C002F0032000001004D
:1003B00000030106010901050505050705080808F0
:1003C00008020202020A0A080804040404010101E6
:1003D00001010101010303030303030303040707EE
:1003E000070C0C0C0C0C0C0C0C020202020606068C
:1003F00006060606060B0B0B0B0B0B0B0B00002166
:1004000000240027002A002D0030003300010100E5
:1004100000040107010A0100002200250028002B2A
:10042000002E003100340002010000050108010B1C
:100430000100413311241FBECFEFD1E2DEBFCDBF9B
:1004400000E00CBF15E0A0E0B2E0E0E7F3E700E079
:100450000BBF02C007900D92A630B107D9F729E073
:10046000A6E0B5E001C01D92AB3AB207E1F712E099
:10047000CAE1D2E000E006C021970109802FFE0109
:100480000E945A36C931D10780E00807A9F70E94B7
:10049000E8120C94B6390C9400000895CF92DF92C4
:1004A000EF92FF920F931F93CF93DF936C017A012A
:1004B0008B01C0E0D0E0CE15DF0581F0D8016D9151
:1004C0008D01D601ED91FC910190F081E02DC601E6
:1004D0001995892B11F02196EECF7E01C701DF918E
:1004E000CF911F910F91FF90EF90DF90CF900895E3
:1004F000FC01538D448D252F30E0842F90E0821B2A
:10050000930B541710F0CF96089501970895FC01AE
:10051000918D828D981761F0828DDF01A80FB11D3A
:100520005D968C91928D9F5F9F73928F90E008955E
:100530008FEF9FEF0895FC01918D828D981731F018
:10054000828DE80FF11D858D90E008958FEF9FEF6C
:100550000895FC01918D228D892F90E0805C9F4F42
:10056000821B91098F739927089580E098E00E947B
:10057000A90221E0892B09F420E0822F0895FC01D3
:10058000848DDF01A80FB11DA35ABF4F2C91848D1C
:1005900090E001968F739927848FA689B7892C9351
:1005A000A089B1898C91837080648C93938D848DA4
:1005B000981306C00288F389E02D80818F7D8083A7
:1005C0000895EF92FF920F931F93CF93DF93EC0167
:1005D00081E0888F9B8D8C8D981305C0E889F989FF
:1005E000808185FD26C0F62E0B8D10E00F5F1F4F1A
:1005F0000F731127E02E8C8DE8120CC00FB607FC8C
:10060000FACFE889F989808185FFF5CFCE010E9474
:10061000BF02F1CF8B8DFE01E80FF11DE35AFF4FB2
:10062000F0829FB7F8940B8FEA89FB898081806202
:100630000AC09FB7F894EE89FF896083E889F98939
:1006400080818370806480839FBF81E090E0DF9130
:10065000CF911F910F91FF90EF900895CF93DF936B
:10066000EC01888D8823C9F0EA89FB89808185FDAA
:1006700005C0A889B9898C9186FD0FC00FB607FC0B
:10068000F5CF808185FFF2CFA889B9898C9185FF4C
:10069000EDCFCE010E94BF02E7CFDF91CF91089549
:1006A0000E94B502811125C080E090E0892B41F0C5
:1006B00080E090E0892B21F00E94000081111CC095
:1006C00080E090E0892B41F080E090E0892B21F0E0
:1006D0000E940000811113C080E090E0892BA1F0FE
:1006E00080E090E0892B81F00E94000081110AC017
:1006F00008950E946B0BD8CF0E940000E1CF0E94AA
:100700000000EACF0C94000008950E9496390F93E0
:100710001F93CF93DF93EC0188819981009729F093
:100720002A813B812617370788F48B016F5F7F4F43
:100730000E94B138009761F0998388831B830A83F4
:100740002C813D81232B11F4FC01108281E001C03A
:1007500080E0DF91CF911F910F9108958091BE08A5
:100760009091BF080C941F0C8091BC089091BD081B
:100770000C941F0C8091BA089091BB080C941F0C2C
:100780008091B8089091B9080C941F0C8091B6081C
:100790009091B7080C941F0C8091B4089091B50803
:1007A0000C941F0CEF92FF920F931F93CF93DF9344
:1007B0006115710511F480E01CC041155105C1F0AF
:1007C0007B01EC018C819D818A01080F191FB80102
:1007D000CE010E948703882371F3288139818C819F
:1007E0009D81B701820F931F0E94AF391D830C8337
:1007F00081E0DF91CF911F910F91FF90EF900895CD
:10080000CF93DF93EC0188819981009711F00E94CA
:100810002838198218821D821C821B821A82DF915D
:10082000CF910895CF93DF93EC016115710561F0CD
:10083000FB0101900020E9F73197AF01461B570BF0
:100840000E94D203811103C0CE010E940004CE0198
:10085000DF91CF910895EF92FF920F931F93CF9363
:10086000DF93EC017B018A01BA010E9487038111A9
:1008700004C0CE010E94000407C01D830C83B70191
:10088000888199810E94AF39CE01DF91CF911F916C
:100890000F91FF90EF900895CF93DF93EC016115D6
:1008A000710559F0FB0101900020E9F73197AF0184
:1008B000461B570B0E942B0402C00E940004CE016D
:1008C000DF91CF910895FC01118210821382128270
:1008D000158214826115710551F0FB010190002011
:1008E000E9F73197AF01461B570B0C942B04089581
:1008F0001F920F920FB60F9211240BB60F922F93E7
:100900003F934F935F936F937F938F939F93AF9397
:10091000BF93EF93FF93E0910F02F09110021995AE
:10092000FF91EF91BF91AF919F918F917F916F91C7
:100930005F914F913F912F910F900BBE0F900FBE83
:100940000F901F9018951F920F920FB60F921124BF
:100950000BB60F922F933F934F935F936F937F93B9
:100960008F939F93AF93BF93EF93FF93E0910D020B
:10097000F0910E021995FF91EF91BF91AF919F9168
:100980008F917F916F915F914F913F912F910F9038
:100990000BBE0F900FBE0F901F9018951F920F92D5
:1009A0000FB60F9211240BB60F922F933F934F93D4
:1009B0005F936F937F938F939F93AF93BF93EF93C7
:1009C000FF93E0910302F09104021995FF91EF91DA
:1009D000BF91AF919F918F917F916F915F914F9157
:1009E0003F912F910F900BBE0F900FBE0F901F9055
:1009F00018951F920F920FB60F9211240BB60F92FB
:100A00002F933F934F935F936F937F938F939F9316
:100A1000AF93BF93EF93FF93E0910102F091020235
:100A20001995FF91EF91BF91AF919F918F917F9118
:100A30006F915F914F913F912F910F900BBE0F904F
:100A40000FBE0F901F9018951F920F920FB60F9226
:100A500011240BB60F922F933F934F935F936F9395
:100A60007F938F939F93AF93BF93EF93FF93E09107
:100A70000B02F0910C021995FF91EF91BF91AF918C
:100A80009F918F917F916F915F914F913F912F91A6
:100A90000F900BBE0F900FBE0F901F9018951F92D6
:100AA0000F920FB60F9211240BB60F922F933F9314
:100AB0004F935F936F937F938F939F93AF93BF9366
:100AC000EF93FF93E0910902F0910A021995FF91CB
:100AD000EF91BF91AF919F918F917F916F915F91B6
:100AE0004F913F912F910F900BBE0F900FBE0F9023
:100AF0001F9018951F920F920FB60F9211240BB6EC
:100B00000F922F933F934F935F936F937F938F93A6
:100B10009F93AF93BF93EF93FF93E0910702F09100
:100B200008021995FF91EF91BF91AF919F918F911D
:100B30007F916F915F914F913F912F910F900BBEDD
:100B40000F900FBE0F901F9018951F920F920FB627
:100B50000F9211240BB60F922F933F934F935F93F5
:100B60006F937F938F939F93AF93BF93EF93FF9375
:100B7000E0910502F09106021995FF91EF91BF9166
:100B8000AF919F918F917F916F915F914F913F9125
:100B90002F910F900BBE0F900FBE0F901F901895C6
:100BA0001F920F920FB60F9211240BB60F922F9334
:100BB0003F934F935F936F937F938F939F93AF93E5
:100BC000BF93EF93FF938091090590910A05A0913F
:100BD0000B05B0910C05892B8A2B8B2B59F1909129
:100BE0000605E0910705F09108058081892780833B
:100BF0008091090590910A05A0910B05B0910C0513
:100C0000181619061A061B060CF056C08091090525
:100C100090910A05A0910B05B0910C050197A109CF
:100C2000B1098093090590930A05A0930B05B09331
:100C30000C0542C080910002E0E1F3E0E4919FEFF7
:100C400090930002E230C9F050F4EE2399F0E130C5
:100C500081F590916F009D7F90936F002AC0E430E2
:100C600019F1E0F0E53029F5909173009D7F9093A4
:100C700073001FC010926E001CC0909170009D7F89
:100C80009093700091E09093B0009091B100987FA4
:100C900094609093B1001092B3000BC090917100DA
:100CA0009D7F9093710005C0909172009D7F9093FD
:100CB000720060E00E944811FF91EF91BF91AF91E7
:100CC0009F918F917F916F915F914F913F912F9164
:100CD0000F900BBE0F900FBE0F901F9018956115CF
:100CE000710579F0FB0101900020E9F73197AF0120
:100CF000461B570BDC01ED91FC910280F381E02D46
:100D0000199480E090E008951F920F920FB60F9211
:100D100011240BB60F922F933F934F935F936F93D2
:100D20007F938F939F93AF93BF93EF93FF9380E055
:100D300098E00E94BF02FF91EF91BF91AF919F9108
:100D40008F917F916F915F914F913F912F910F9074
:100D50000BBE0F900FBE0F901F9018951F920F9211
:100D60000FB60F9211240BB60F922F938F939F9370
:100D7000EF93FF93E0911008F09111088081E091CA
:100D80001608F091170882FD12C090818091190811
:100D90008F5F8F7320911A08821751F0E091190824
:100DA000F0E0E050F84F958F8093190801C08081E2
:100DB000FF91EF919F918F912F910F900BBE0F900C
:100DC0000FBE0F901F9018952F923F924F925F92F7
:100DD0006F927F928F929F92AF92BF92CF92DF924B
:100DE000EF92FF920F931F93CF93DF93CDB7DEB7B0
:100DF0002F970FB6F894DEBF0FBECDBF9F878E87AB
:100E00000E94D8116D837E838F839887EE85FF853E
:100E100082A193A1A4A1B5A14D815E816F81788546
:100E2000481B590B6A0B7B0B86A597A5A0A9B1A9F6
:100E3000481759076A077B0708F40EC1048CF58D23
:100E4000E02D80819181A281B38189839A83AB83D4
:100E5000BC83AE85BF859096ED91FC9191972981D9
:100E60003A814B815C8160817181828193810E9492
:100E700076364B015C01EE85FF8522A533A544A59E
:100E800055A569817A818B819C810E9476366B01A0
:100E90007C01AE85BF8550962D913D914D915C9121
:100EA0005397C501B4010E942D35EE85FF8526A11B
:100EB00037A140A551A50E9477362B013C01AE8594
:100EC000BF8596966D937D938D939C939997DB96B2
:100ED000BC91B987B11118C0EE85FF852485358591
:100EE00046855785C701B6010E942D359B01AC018F
:100EF000C301B2010E947636AE85BF8596966D938A
:100F00007D938D939C939997EE85FF8546A057A07E
:100F100060A471A416A907A930AC21AC212F302FF1
:100F2000432D522DC301B2010E948B3718162CF4A9
:100F3000812F902FA32DB22D18C0AE85BF85D296DC
:100F40008D919D910D90BC91A02D8A879B87AC8738
:100F5000BD879C01AD01C301B2010E94C73487FF68
:100F60000AC08A859B85AC85BD85EE85FF8586A3F5
:100F700097A3A0A7B1A7F985FF2379F0AE85BF8518
:100F80001C962D913D914D915C911F97C501B40127
:100F90000E942D354B015C0103C0812C912C540122
:100FA000EE85FF852489358946895789C701B601B1
:100FB0000E942D359B01AC01AE85BF8596966D9143
:100FC0007D918D919C9199970E947636A50194010F
:100FD0000E9477366B017C019B01AC01612F702F61
:100FE000832D922D0E94C73487FD14C0EE85FF85A6
:100FF00012A903A934A825A8212F302F432D522D43
:10100000B601C7010E94C73487FD04C01C2D0D2DF9
:101010003E2C2F2CAE85BF855E96ED91FC915F979F
:10102000812F902FA32DB22D80839183A283B38330
:1010300089819A81AB81BC81EE85FF8582A793A7C8
:10104000A4A7B5A78D819E81AF81B88582A393A304
:10105000A4A3B5A381E001C080E02F960FB6F89459
:10106000DEBF0FBECDBFDF91CF911F910F91FF90DB
:10107000EF90DF90CF90BF90AF909F908F907F9038
:101080006F905F904F903F902F9008958F929F9216
:10109000AF92BF92CF92DF92EF92FF92CF93DF9306
:1010A000EC01EE8DFF8DC080D180E280F380CEA276
:1010B000DFA2E8A6F9A6EC8DFD8D80819181A28149
:1010C000B3818AA79BA7ACA7BDA78EA89FA8A8ACF1
:1010D000B9ACA5019401C701B6010E948B3718165F
:1010E00064F08AA89BA8ACA8BDA8A5019401C7017B
:1010F000B6010E94C73487FF04C08EA29FA2A8A693
:10110000B9A6DF91CF91FF90EF90DF90CF90BF9085
:10111000AF909F908F9008950E94D8116093FC0724
:101120007093FD078093FE079093FF0780E008957A
:10113000CF92DF92EF92FF920F931F93611571058B
:101140008105910541F41F910F91FF90EF90DF9081
:10115000CF900C948C086B017C010E94D8110091F7
:10116000FC071091FD072091FE073091FF07DC017D
:10117000CB01801B910BA20BB30B21E0C816D90643
:10118000EA06FB0608F020E0822F1F910F91FF90E6
:10119000EF90DF90CF9008958F929F92AF92BF9281
:1011A000EF92FF920F931F93CF93DF93C82FD0E05E
:1011B0008E01000F111F0E56184FF801208131814A
:1011C0002115310521F021303105A1F16FC00E94B8
:1011D0001F11009719F00197A1F16BC00E94D8115F
:1011E0009E01220F331F220F331FA9014254594F72
:1011F0007A01FA0180809180A280B380DC01CB016A
:1012000088199909AA09BB090697A105B10508F42F
:1012100050C081E090E0F80191838083C350DA4FA1
:1012200088830E94D811F70160837183828393833E
:1012300081E040C00E941F11009719F0019771F0E2
:1012400038C00E94D811CC0FDD1FCC0FDD1FC25457
:10125000D94F688379838A839B832BC00E94D811DE
:101260009E01220F331F220F331FA9014254594FF1
:101270007A01FA0180809180A280B380DC01CB01E9
:1012800088199909AA09BB090697A105B10588F033
:10129000F80111821082C350DA4F18820E94D811CF
:1012A000F701608371838283938303C0F801118205
:1012B000108280E0DF91CF911F910F91FF90EF900E
:1012C000BF90AF909F908F90089561E08DE998E076
:1012D0000E94FE0D8BE39FE10197F1F70895CF92F5
:1012E000DF92EF92FF920F931F93CF93DF93CDB7CF
:1012F000DEB728970FB6F894DEBF0FBECDBF8A01C8
:10130000C0901702D0901802E0901902F0901A02D3
:10131000CD82DE82EF82F886C0901B02D0901C0244
:10132000E0901D02F0901E02C982DA82EB82FC82FC
:101330009091A408691710F06FEF690F4091A5080C
:10134000262F30E0FE01E20FF31F403121F49430EC
:1013500011F4618101C06581680F60688DE998E0D2
:101360000E94FE0DB8018DE998E028960FB6F8941A
:10137000DEBF0FBECDBFDF91CF911F910F91FF90C8
:10138000EF90DF90CF900C946F06AF92BF92CF9208
:10139000DF92EF920F931F93CF935B016A01C22FED
:1013A000AC0160E080E00E946F09A50160E088E088
:1013B0000E946F09A60161E08C2F0E946F09A801AD
:1013C00061E08E2DCF911F910F91EF90DF90CF9024
:1013D000BF90AF900C946F0920E042E060E18DE98E
:1013E00098E00E94060E62E08DE998E00E94FE0DF2
:1013F0008BE39FE10197F1F70E9465094EE253E00C
:1014000060E080E00E946F094FE353E061E080E01C
:101410000E946F0910925D0610925C0662E08BE2FA
:101420000E94771162E08DE20E94771162E08FE204
:101430000E94771162E081E30E94771162E083E30A
:101440000E9477110E948C08E7E4F6E082E0818335
:1014500084EF91E0968785878EE090E0908B878778
:1014600082E090E0928B818B8EE0848389E182839D
:101470008AE083838EE190E0928781878CEF838B73
:1014800084E190E09087878308950F931F934091A4
:101490001105509112056091130570911405EDE04E
:1014A000F5E080E090E040565A4E610971090481F0
:1014B000158126813781041715072607370730F075
:1014C000019638968E31910591F780E01F910F912A
:1014D00008958F929F92AF92BF92CF92DF92EF9238
:1014E000FF9281E090E090935309809352092091FC
:1014F000FD0830E040E050E060E67AEE80E090E009
:101500000E94EB35CA01B9010E94CE346B017C0107
:101510008090040990900509A0900609B0900709F1
:10152000A50194010E942D3560933209709333090F
:101530008093340990933509A501940160E070E02F
:1015400080E89FE30E947636A70196010E942D3520
:10155000609336097093370980933809909339095D
:101560000E94D8110E94CC34209132093091330965
:1015700040913409509135090E9477360E945C37BA
:1015800060934609709347098093480990934909ED
:1015900020910009309101094091020950910309FD
:1015A000A8EEB3E00E940A360E94CC3423E63FEB5B
:1015B0004FE356E40E94E33620E030E04CEF51E484
:1015C0000E94E33620E030E443E056E40E942D35EB
:1015D0002BED3FE049EC50E40E94E3366B017C01C7
:1015E00020E030E0A9010E948B3720E030E040E0AD
:1015F0005FE387FD05C0C701B6010E94773604C0CE
:10160000C701B6010E9476360E94553760932E09B5
:1016100070932F098093300990933109FF90EF90D8
:10162000DF90CF90BF90AF909F908F900895809162
:101630009D09823030F4F89482E999E00E941F0CF1
:1016400001C0F8948091990990919A09A0919B0901
:10165000B0919C0978948093260990932709A093D0
:101660002809B0932909F8941092990910929A09BF
:1016700010929B0910929C09789440912A095091EC
:101680002B0960912C0970912D0980912609909168
:101690002709A0912809B0912909840F951FA61F39
:1016A000B71F80932A0990932B09A0932C09B0931C
:1016B0002D090895DC01ED91FC910684F785E02D5C
:1016C00041E0199581E090E0089508950895089506
:1016D00080E090E00895CF93C1E080E098E00E9420
:1016E000A902892B09F44AC080E098E00E94870291
:1016F0008C3469F02CF48B3299F08D32E9F0EDCF17
:101700008C3629F0853749F0853539F706C0809148
:1017100063068C2780936306E0CFC0935E06DDCF1F
:1017200080915F0690916006A0916106B09162067B
:10173000C296A11DB11D10C080915F0690916006F8
:10174000A0916106B091620683339105A105B105B0
:1017500060F0C297A109B10980935F06909360067B
:10176000A0936106B0936206B8CF10925F06109204
:1017700060061092610610926206AFCFCF91089575
:10178000FC0186898F3F79F021853285662319F027
:10179000232B31F403C02130310511F461E001C085
:1017A00060E00C9448110895EF92FF921F93CF933D
:1017B000DF93EC01162F7A0161E0812F0E947711EF
:1017C0001E8BFA86E986E881F9810484F585E02D8F
:1017D00060E0CE01DF91CF911F91FF90EF901994BF
:1017E0000F931F93CF93DF93EC01162F042F61E02B
:1017F000413009F060E08B850E9448118C858F3F55
:1018000019F060E00E944811023081F08C8184FF61
:1018100002C048E00CC0612F70E084E075956795C8
:101820008A95E1F744E0CE010E94C60E44E0612FA4
:10183000CE01DF91CF911F910F910C94C60EDC0168
:10184000ED91FD918081ED91FD919081ED91FD9162
:101850006C9163708E2309F064609F2309F06860C7
:10186000ECE3FCE0E60FF11D659565956D936D91D8
:101870007D918D919D91099423C01AC012C016C00C
:1018800010C01EC009C014C013C006C019C009C0D2
:101890000DC007C00DC014C0625070408040904021
:1018A0000BC0615070408040904006C06E5F01C028
:1018B0006F5F7F4F8F4F9F4F9E938E937E936E935C
:1018C0000895CF93DF93CDB7DEB72C970FB6F8947A
:1018D000DEBF0FBECDBF80913306882331F081304B
:1018E00009F083C169EF74E002C06CEB74E080E042
:1018F00098E00E946F0660914606CE0107960E940E
:10190000B31065EC74E0CE0101960E946304BE0141
:10191000695F7F4FCE0101960E94E01063EC74E096
:101920000E9412040E946410CE0101960E940910C8
:10193000CE0107960E94091060913606CE010796E7
:101940000E94B31069EC74E0CE0101960E9463041A
:10195000BE01695F7F4FCE0101960E94E01063ECEB
:1019600074E00E9412040E946410CE0101960E944D
:101970000910CE0107960E94091060913706CE012A
:1019800007960E94B3106DEC74E0CE0101960E94A0
:101990006304BE01695F7F4FCE0101960E94E01093
:1019A00063EC74E00E9412040E946410CE01019660
:1019B0000E940910CE0107960E9409106091380616
:1019C000CE0107960E94B31062ED74E0CE0101963D
:1019D0000E946304BE01695F7F4FCE0101960E94A1
:1019E000E01063EC74E00E9412040E946410CE01C7
:1019F00001960E940910CE0107960E94091060917D
:101A0000390670913A06CE0107960E94871067ED5D
:101A100074E0CE0101960E946304BE01695F7F4FAE
:101A2000CE0101960E94E01063EC74E00E94120463
:101A30000E946410CE0101960E940910CE01079603
:101A40000E94091060913B0670913C06CE010796FA
:101A50000E9487106BED74E0CE0101960E94630432
:101A6000BE01695F7F4FCE0101960E94E01063ECDA
:101A700074E00E9412040E946410CE0101960E943C
:101A80000910CE0107960E94091060913D067091E1
:101A90003E06CE0107960E9487106FED74E0CE01DE
:101AA00001960E946304BE01695F7F4FCE010196DB
:101AB0000E94E01063EC74E00E9412040E94641023
:101AC000CE0101960E940910CE0107960E940910CE
:101AD00060913F0670914006CE0107960E94F31078
:101AE00063EE74E0CE0101960E946304BE01695F5B
:101AF0007F4FCE0101960E94E01063EC74E00E94DB
:101B000012040E946410CE0101960E940910CE01B9
:101B100007960E9409106091410670914206CE011D
:101B200007960E94F31067EE74E0CE0101960E94C2
:101B30006304BE01695F7F4FCE0101960E94E010F1
:101B400063EC74E00E9412040E946410CE010196BE
:101B50000E940910CE0107960E9409106091430669
:101B600070914406CE0107960E94F3106CEE74E06B
:101B7000CE0101960E946304BE01695F7F4FCE01D2
:101B800001960E94E01063EC74E00E9412040E942F
:101B90006410CE0101960E940910CE0107960E94A2
:101BA000091060914506062E000C770BCE010796B2
:101BB0000E94871061EF74E0CE0101960E946304D9
:101BC000BE01695F7F4FCE0101960E94E01066EF73
:101BD00074E00E9412040E946410CE0101960E94DB
:101BE0000910CE0107960E9409102C960FB6F894A2
:101BF000DEBF0FBECDBFDF91CF910895DC01ED9127
:101C0000FC910684F785E02D40E019948F929F9215
:101C1000AF92BF92CF92DF92EF92FF920F931F93FA
:101C2000CF93DF93EC01423018F08C8188608C8375
:101C30004F836887222329F0413019F48C81846016
:101C40008C830E94B3116B017C0184E6882E912C59
:101C5000A12CB12C0E94B311DC01CB018C199D0980
:101C6000AE09BF09883E9340A105B10598F321E074
:101C7000821A9108A108B10888EEC80E83E0D81E28
:101C8000E11CF11C81149104A104B10419F76C81C9
:101C900064FD31C0E881F9810684F785E02D42E0DA
:101CA00063E0CE0119958BE496E40197F1F7E881A2
:101CB000F9810684F785E02D42E063E0CE011995B5
:101CC00003E512E0C8010197F1F7E881F981068484
:101CD000F785E02D42E063E0CE011995C801019738
:101CE000F1F7E881F9810684F785E02D42E062E0B2
:101CF000CE01199517C06062CE010E94FE0D8BE4E3
:101D000096E40197F1F76C816062CE010E94FE0DAE
:101D100003E512E0C8010197F1F76C816062CE0122
:101D20000E94FE0DC8010197F1F76C816062CE013F
:101D30000E94FE0D8BEE90E00197F1F784E08D8319
:101D40006CE0CE010E94FE0D61E0CE010E94FE0D0E
:101D50008BE39FE10197F1F782E08E8366E0CE018D
:101D60000E94FE0DE881F9810484F585E02D6FEF76
:101D7000CE01DF91CF911F910F91FF90EF90DF90F7
:101D8000CF90BF90AF909F908F901994AF92BF92D9
:101D9000CF92DF92EF92FF920F931F93CF93DF9337
:101DA0008C015C018EE0A80EB11CC42ED12CC0E0C9
:101DB000D0E0E62EF12CCC15DD0579F0B7010C2E24
:101DC00002C0759567950A94E2F76170F5018191FB
:101DD0005F010E9448112196EECF61E0F8018585F0
:101DE0000E94481160E0F8018585DF91CF911F9135
:101DF0000F91FF90EF90DF90CF90BF90AF900C9439
:101E00004811CF93DF93BC0180E098E00E946F06F9
:101E1000EC0162E075E080E098E00E946F068C0FB4
:101E20009D1FDF91CF910895CF92DF92EF92FF92A5
:101E3000CF93DF936B017C0120E030E0A9010E9489
:101E4000C73487FF06C0F7FAF094F7F8F09460E023
:101E500001C061E084E00E94481128EA36EC4FE0BE
:101E600051E4C701B6010E94E33620E030E04FE7BD
:101E700053E40E942D350E9455376B017C01EB0124
:101E800061E085E00E947711209711F460E004C0C2
:101E9000CF3FD10551F461E085E0DF91CF91FF9014
:101EA000EF90DF90CF900C944811E6E1F3E0E491DD
:101EB0008E2F90E0FC013197E231F10508F09DC0D2
:101EC0008827E056FF4F8F4F0C945A3684B58068B0
:101ED00084BDC7BC97C084B5806284BDC8BC92C0B5
:101EE00080918000806880938000D0928900C092A9
:101EF000880088C080918000806280938000D092AA
:101F00008B00C0928A007EC08091800088608093A0
:101F10008000D0928D00C0928C0074C08091B0007F
:101F200080688093B000C092B3006CC08091B00014
:101F300080628093B000C092B40064C08091900031
:101F4000806880939000D0929900C09298005AC007
:101F500080919000806280939000D0929B00C0920C
:101F60009A0050C080919000886080939000D09239
:101F70009D00C0929C0046C08091A0008068809324
:101F8000A0008091A0008F7B8093A000D092A90038
:101F9000C092A80037C08091A00080628093A0000A
:101FA000D092AB00C092AA002DC08091A0008860A2
:101FB0008093A000D092AD00C092AC0023C080916D
:101FC0002001806880932001D0922901C0922801CD
:101FD00019C080912001806280932001D0922B0152
:101FE000C0922A010FC08091200188608093200157
:101FF000D0922D01C0922C0105C0C038D1050CF043
:102000004ACF44CFDF91CF91FF90EF90DF90CF90F8
:102010000895FC01808191810C94283890E0FC01A6
:102020003197E231F10508F04EC08827EE54FF4F9A
:102030008F4F0C945A36809180008F7703C0809127
:1020400080008F7D80938000089580918000877F3D
:10205000F9CF84B58F7702C084B58F7D84BD089594
:102060008091B0008F7703C08091B0008F7D809306
:10207000B0000895809190008F7707C08091900004
:102080008F7D03C080919000877F8093900008959A
:102090008091A0008F7707C08091A0008F7D03C042
:1020A0008091A000877F8093A000089580912001F7
:1020B0008F7707C0809120018F7D03C08091200120
:1020C000877F809320010895FC01448155816081C0
:1020D000718180E098E00C944E02FB01DC011196C6
:1020E0001C921E9213961C921E92129715961C9289
:1020F0001E9214978617970749F0608171816115C8
:10210000710521F0448155810C942B0408950F939F
:102110001F93CF93DF93CDB7DEB762970FB6F894D6
:10212000DEBF0FBECDBF8C01CB01F8011182108242
:1021300013821282158214824AE0BE016F5F7F4FC4
:102140000E949234BE016F5F7F4FC8010E944C0411
:1021500062960FB6F894DEBF0FBECDBFDF91CF9170
:102160001F910F9108950F931F93CF93DF93CDB7D6
:10217000DEB729970FB6F894DEBF0FBECDBF8C0136
:10218000862FF80111821082138212821582148226
:102190004AE0BE016F5F7F4F90E00E949D34BE0118
:1021A0006F5F7F4FC8010E944C0429960FB6F894C8
:1021B000DEBF0FBECDBFDF91CF911F910F9108956C
:1021C000CF93DF93EC01FB014481558160817181E4
:1021D0000E94D203811103C0CE010E940004CE01EF
:1021E000DF91CF9108950F931F93CF93DF93CDB7D6
:1021F000DEB761970FB6F894DEBF0FBECDBF8C017E
:10220000CB01F8011182108213821282158214828E
:102210004AE0BE016F5F7F4F0E949D34BE016F5F39
:102220007F4FC8010E944C0461960FB6F894DEBF40
:102230000FBECDBFDF91CF911F910F910895CF9326
:10224000DF93282F30E0F901EF5EFC4F8491F90114
:10225000E95AFC4FD491F901E954FC4FC491CC23C5
:1022600091F081110E940E10EC2FF0E0EE0FFF1F95
:10227000E356FC4FA591B491EC91ED2381E090E001
:1022800021F480E002C080E090E0DF91CF910895DA
:102290001F93CF93DF93282F30E0F901EF5EFC4FBF
:1022A0008491F901E95AFC4FD491F901E954FC4FAA
:1022B000C491CC23C1F0162F81110E940E10EC2F77
:1022C000F0E0EE0FFF1FE95EFB4FA591B4919FB7C1
:1022D000F894111104C08C91D095D82302C0EC91D0
:1022E000DE2BDC939FBFDF91CF911F910895CF9399
:1022F000DF9390E0FC01E95AFC4F2491FC01E95482
:10230000FC4F8491882361F190E0880F991FFC01B4
:10231000E350FC4FC591D491FC01E95EFB4FA591C0
:10232000B491611109C09FB7F894888120958223E8
:102330008883EC912E230BC0623061F49FB7F89430
:102340008881322F309583238883EC912E2B2C9318
:102350009FBF06C08FB7F894E8812E2B28838FBFCC
:10236000DF91CF9108953FB7F8948091A3099091A0
:10237000A409A091A509B091A60926B5A89B05C0FE
:102380002F3F19F00196A11DB11D3FBFBA2FA92FF4
:10239000982F8827820F911DA11DB11DBC01CD0171
:1023A00042E0660F771F881F991F4A95D1F708955D
:1023B0002FB7F89460919F097091A0098091A109AD
:1023C0009091A2092FBF08954F925F926F927F92D2
:1023D0008F929F92AF92BF92CF92DF92EF92FF9235
:1023E0000F931F93CF93DF93CDB7DEB74C01DC0182
:1023F0005F965C934E935E975D967C936E935C972D
:1024000091963C932E939097DA961C92FC0112AA17
:1024100013AA14AA15AA80E090E0AFE7B3E486AB54
:1024200097ABA0AFB1AF84E690E0A0E0B0E086A7A4
:1024300097A7A0ABB1AB118E108E20E030E0A901C0
:10244000C801B7010E94C73487FD56C020E030E0C4
:10245000A901C601B5010E94C73487FD4DC020E027
:1024600030E0A9016C897D898E899F890E94C734DB
:1024700087FD42C081E090E0D4015B969C938E93EF
:102480005A97DB968C93DB97F401E082F18202830A
:1024900013831496AD92BD92CD92DC9217978C89DE
:1024A0009D89AE89BF8980879187A287B387D40130
:1024B0001C96ED92FD920D931C931F972DEC3CEC16
:1024C0004CEC5DE3C601B5010E942D35F401608B33
:1024D000718B828B938B2DEC3CEC4CEC5DE36C8927
:1024E0007D898E899F890E94E336D40154966D932D
:1024F0007D938D939C9357970E94D811F401C6A4A5
:10250000D7A4E0A8F1A8DC01CB018C199D09AE0984
:10251000BF0982A393A3A4A3B5A3DF91CF911F9179
:102520000F91FF90EF90DF90CF90BF90AF909F9072
:102530008F907F906F905F904F9008951F920F92B1
:102540000FB60F9211242F933F938F939F93AF93C6
:10255000BF9380919F099091A009A091A109B0918A
:10256000A20930919E0923E0230F2D3720F4019614
:10257000A11DB11D05C026E8230F0296A11DB11DA6
:1025800020939E0980939F099093A009A093A1098D
:10259000B093A2098091A3099091A409A091A509E3
:1025A000B091A6090196A11DB11D8093A309909336
:1025B000A409A093A509B093A609BF91AF919F91DB
:1025C0008F913F912F910F900FBE0F901F901895F4
:1025D000CF93DF93CDB7DEB7A4970FB6F894DEBFE5
:1025E0000FBECDBF789484B5826084BD84B5816010
:1025F00084BD85B5826085BD85B5816085BD8091CE
:102600006E00816080936E00109281008091810045
:10261000826080938100809181008160809381003D
:10262000809180008160809380008091B1008460FF
:102630008093B1008091B00081608093B000809160
:1026400091008260809391008091910081608093DD
:102650009100809190008160809390008091A10012
:1026600082608093A1008091A10081608093A1008D
:102670008091A00081608093A00080912101826000
:1026800080932101809121018160809321018091BB
:10269000200181608093200180917A008460809382
:1026A0007A0080917A00826080937A0080917A002B
:1026B000816080937A0080917A00806880937A00AC
:1026C0001092C1000E94EC091092880610928706B1
:1026D0001092FD081092FF081092FE081092040953
:1026E0001092050910920609109207091092080924
:1026F0001092090910920A0910920B0910920C0904
:1027000010920E0910920F091092100910921109DF
:1027100010921209109213091092140910921509BF
:10272000109216091092170910921809109219099F
:1027300010921A0910921B0910921C0910921D097F
:1027400010921E0910921F0910922009109221095F
:10275000109222091092230910922409109225093F
:10276000109226091092270910922809109229091F
:1027700010922A0910922B0910922C0910922D09FF
:1027800010922E0910922F091092300910923109DF
:1027900010923209109233091092340910923509BF
:1027A000109236091092370910923809109239099F
:1027B00010923A0910923B0910923C0910923D097F
:1027C00010923E0910923F0910924009109241095F
:1027D000109242091092430910924409109245093F
:1027E000109246091092470910924809109249091F
:1027F00010924A0910924B0910924C0910924D09FF
:1028000010924E0910924F091092500910925109DE
:1028100010925309109252091092540910925509BE
:1028200080919009811104C086E599E00E944608D4
:1028300081E08093900956E8C52E56EED52E5CE0D7
:10284000E52E51ECF52EC0928809D0928909E092CC
:102850008A09F0928B0966E8462E66EE562E6CE0E9
:10286000662E61E4762E40928C0950928D0960921A
:102870008E0970928F090091740910917509F80101
:1028800080809180A280B380A3019201C501B40130
:102890000E948B37181634F4F8014082518262820C
:1028A00073820FC026E836EE4CE051ECC501B4014E
:1028B0000E94C73487FF05C0F801C082D182E2823E
:1028C000F38280907C0990907D09A0907E09B09061
:1028D0007F09C0908C09D0908D09E0908E09F0900E
:1028E0008F09A7019601C501B4010E948B37181604
:1028F00084F0C0908809D0908909E0908A09F0900E
:102900008B09A7019601C501B4010E94C73487FF56
:1029100008C0C0927C09D0927D09E0927E09F092B5
:102920007F09609184097091850980918609909151
:1029300087090E94CC349B01AC0160E070E088EC18
:1029400092E40E94E3366B017C019B01AC01609133
:1029500066097091670980916809909169090E94E0
:102960002D35609366097093670980936809909389
:102970006909A701960160916A0970916B098091BC
:102980006C0990916D090E94E33660936A09709317
:102990006B0980936C0990936D0984E690E0A0E048
:1029A000B0E08093840990938509A0938609B09341
:1029B00087098091FA08811104C080EC98E00E9498
:1029C000460881E08093FA08C12CD12C30EAE32E2E
:1029D00030E4F32EC092F208D092F308E092F408AB
:1029E000F092F508412C512C4CE0642E42E4742EF8
:1029F0004092F6085092F7086092F8087092F90831
:102A00000091DE081091DF08F80180809180A2809B
:102A1000B380A3019201C501B4010E948B3718163F
:102A200034F4F80140825182628273820FC020E048
:102A300030E040EA50E4C501B4010E94C73487FF8A
:102A400005C0F801C082D182E282F3828090E6085C
:102A50009090E708A090E808B090E908C090F608C8
:102A6000D090F708E090F808F090F908A7019601D7
:102A7000C501B4010E948B37181684F0C090F2088B
:102A8000D090F308E090F408F090F508A7019601C3
:102A9000C501B4010E94C73487FF08C0C092E60890
:102AA000D092E708E092E808F092E9086091EE0819
:102AB0007091EF088091F0089091F1080E94CC3459
:102AC0009B01AC0160E070E088EC92E40E94E33688
:102AD0006B017C019B01AC016091D0087091D10821
:102AE0008091D2089091D3080E942D356093D00830
:102AF0007093D1088093D2089093D308A7019601D0
:102B00006091D4087091D5088091D6089091D7082B
:102B10000E94E3366093D4087093D5088093D6085A
:102B20009093D70884E690E0A0E0B0E08093EE08B0
:102B30009093EF08A093F008B093F10861E085E06E
:102B40000E94771161E084E00E94771160E086E0E6
:102B50000E947711809100028B3021F08F3F09F0A5
:102B6000A0C104C0E0E1F3E01491E3C08BE08093E6
:102B70000002E0E1F3E0E491EF3F09F492C1E230BA
:102B800009F46CC040F5EE2309F44FC0E13009F0C0
:102B9000CFC01092800010928100809181008860E7
:102BA0008093810080918100816080938100E2ECBC
:102BB000F3E0E491F0E0EE0FFF1FE95EFB4F85913B
:102BC0009491E2E6F3E0E491E093670661E08BE044
:102BD0000E947711BDC0E43009F488C008F464C0D5
:102BE000E53009F0A5C010922001109221018091DA
:102BF000210188608093210180912101816080936F
:102C00002101E2ECF3E0E491F0E0EE0FFF1FE95E5A
:102C1000FB4F85919491E2E6F3E0E491E093640642
:102C200061E08BE00E947711C5C014BC15BC84B56F
:102C3000826084BD85B5816085BDE2ECF3E0E491FE
:102C4000F0E0EE0FFF1FE95EFB4F85919491E2E605
:102C5000F3E0E491E093680610E06DC01092B000DC
:102C60001092B1008091B00082608093B00080919A
:102C7000B10081608093B100E2ECF3E0E491F0E018
:102C8000EE0FFF1FE95EFB4F85919491909308052D
:102C900080930705E2E6F3E0E491E093060561E046
:102CA0008BE00E9477119BC01092900010929100CF
:102CB0008091910088608093910080919100816063
:102CC00080939100E2ECF3E0E491F0E0EE0FFF1F5F
:102CD000E95EFB4F85919491E2E6F3E0E491E093A5
:102CE000660661E08BE00E94771152C01092A0004E
:102CF0001092A1008091A10088608093A100809132
:102D0000A10081608093A100E2ECF3E0E491F0E0A7
:102D1000EE0FFF1FE95EFB4F85919491E2E6F3E031
:102D2000E491E093650661E08BE00E94771139C081
:102D30001E2F17FDB6C061E08BE00E9477111123B2
:102D400011F40C94A831123009F449C01130F1F497
:102D500080918100887F8160809381008FE79EE36E
:102D6000909389008093880084EF91E0A0E0B0E028
:102D70008093750690937606A0937706B0937806B5
:102D800080916F00826080936F008BC0133039F4A4
:102D900080919100887F8160809391003BC01430C6
:102DA00039F48091A100887F81608093A1004AC09E
:102DB000153039F480912101887F81608093210151
:102DC00059C0133039F12CF4123009F06AC08FE782
:102DD0000DC01430B9F1153009F44CC062C08091B7
:102DE000B100887F84608093B10089EF8093B30045
:102DF00084EF91E0A0E0B0E08093090590930A058C
:102E0000A0930B05B0930C058091700082608093B5
:102E1000700047C08FE79EE39093990080939800DD
:102E200084EF91E0A0E0B0E0809371069093720689
:102E3000A0937306B09374068091710082608093B2
:102E400071002FC08FE79EE39093A9008093A800A4
:102E500084EF91E0A0E0B0E080936D0690936E0661
:102E6000A0936F06B0937006809172008260809389
:102E7000720017C08FE79EE3909329018093280189
:102E800084EF91E0A0E0B0E08093690690936A0639
:102E9000A0936B06B0936C06809173008260809360
:102EA0007300E0911008F091110882E08083E091B6
:102EB0000C08F0910D081082E0910E08F0910F08B7
:102EC00080E1808310921808E0911408F0911508B1
:102ED00086E08083E0911208F09113088081806180
:102EE0008083E0911208F0911308808188608083CC
:102EF000E0911208F0911308808180688083E0914E
:102F00001208F091130880818F7D808310926306F0
:102F100010925E0684E690E0A0E0B0E080935F0649
:102F200090936006A0936106B093620661E08DE025
:102F30000E947711CC24C394D12CE3E08E2E912CE7
:102F4000F2E0AF2EB12CA5E06A2E712C86E00E9433
:102F50001F1121E0892B09F420E02093FC088091C7
:102F60008106909182068230910509F130F4009734
:102F700071F0019709F46AC005C38430910509F422
:102F8000D1C108F490C1059709F4DCC2FBC285E405
:102F900092E00E94010F1092530910925209B092D0
:102FA0008206A092810685E592E00E94010F809141
:102FB0005209909153090297F9F490925309809223
:102FC00052090E94D8110E94CC34209136093091C8
:102FD000370940913809509139090E9477360E948B
:102FE0005C3760934A0970934B0980934C09909326
:102FF0004D0981E0809354098091FC08882391F069
:1030000080912A0990912B09A0912C09B0912D094A
:10301000181619061A061B062CF467EA7AE086EEE3
:1030200090EC4CC260E070E0CB010E94140F109253
:103030002A0910922B0910922C0910922D09D09276
:103040008206C09281068BE692E09EC21091320603
:10305000112309F467C0809136068093FD088091A2
:103060003F0690914006A0E0B0E080930009909365
:103070000109A0930209B09303096091340670E03E
:1030800080E090E00E94CC3420E030E048EC52E454
:103090000E94E33660930409709305098093060942
:1030A000909307096091350670E080E090E00E94FF
:1030B000CC3420E030E048EC52E40E94E3366093E8
:1030C00008097093090980930A0990930B0960918C
:1030D000390670913A06072E000C880B990B0E9456
:1030E000CE3460931A0970931B0980931C09909346
:1030F0001D098091330680930C092091450680912B
:10310000AE069091AF06820F911D27FD9A9521E0A2
:103110004091A8065091A906481759070CF020E0E5
:1031200020930D0980915209909153099C012350DD
:1031300031092230310508F094C064E0262E312C8C
:1031400030925309209252090E94D81100914A09E5
:1031500010914B0920914C0930914D09601771076E
:103160008207930708F412C281E0809355090E94F8
:10317000D81100914E0910914F09209150093091BA
:103180005109AB01BC01401B510B620B730B20902A
:103190007D0630907E0640907F0650908006A5EF19
:1031A000B5E00DE015E0CD01089728E0FC010190A5
:1031B0000D922A95E1F7DC018D509540A1F74093DF
:1031C0001105509312056093130570931405209216
:1031D0000D0530920E0540920F05509210050E9489
:1031E000450A8093A706C201B1010E94553770932A
:1031F000B1066093B0060E94450A282FE12CF12CFD
:1032000060E070E0CB01422E512CE414F50468F428
:10321000F80120813181428153810E947736FFEF8E
:10322000EF1AFF0A085F1F4FF0CF0E9455377093C7
:10323000B3066093B2060E94D81160934E09709352
:103240004F09809350099093510980910C09982F50
:103250009D7FC1F4909282068092810687E792E07A
:1032600093C1892B09F092C1112309F48FC144E065
:10327000442E512C509253094092520980910C09CE
:10328000882341F3813051F454E0252E312C3092C3
:103290008206209281068DE892E076C1D092820665
:1032A000C092810673C1809152099091530904978D
:1032B00011F40E94690A40912A0950912B096091EA
:1032C0002C0970912D0980912E0990912F09A091C0
:1032D0003009B0913109481759076A077B0714F084
:1032E0000C94A7320E94D811009146091091470909
:1032F00020914809309149096017710782079307A7
:1033000010F00C94A7322091A8063091A906809164
:103310003B0690913C062817390714F40C94C131F0
:103320000C94A7328091520990915309049711F49B
:103330000E94690A0E94D81100914609109147091C
:103340002091480930914909601771078207930756
:1033500008F0B9C06091A8067091A906072E000C6C
:10336000880B990B0E94CE3460931E0970931F093D
:1033700080932009909321098091FA08882321F0F5
:1033800080EC98E00E94E406209122093091230904
:10339000409124095091250960911A0970911B09E7
:1033A00080911C0990911D090E9476361B012C0109
:1033B00020E030E0A9010E948B3718161CF4C201EE
:1033C000B10103C0C201B10190580E945537A5E078
:1033D000B0E09B01AC010E940A3623E230E040E0FD
:1033E00050E00E94EB35CA01B9016D5F7F4F8F4FEE
:1033F0009F4F0E94CE3469A37AA38BA39CA320E0A5
:1034000030E0A901C201B1010E948B3729A13AA184
:103410004BA15CA187FD0BC0609116097091170943
:1034200080911809909119090E9477360AC060911D
:1034300016097091170980911809909119090E9435
:103440007636609316097093170980931809909344
:1034500019092090160930901709409018095090CA
:10346000190920E030E040EA50E4C201B1010E94B5
:10347000C73487FF05C080E090E0A0EAB0E40EC04A
:1034800028EA36EC4FE051E4C201B1010E948B37CB
:10349000181664F488EA96ECAFE0B1E4809316095C
:1034A00090931709A0931809B09319096091160910
:1034B0007091170980911809909119090E94140FB1
:1034C0000E94170B63C080912A0990912B09A0914B
:1034D0002C09B0912D09BC01CD01660F771F881F03
:1034E000991F0E94CE342BED3FE049E450E40E9446
:1034F0002D3520E030E443E056E40E94E33620E03E
:1035000030E04CEF51E40E942D3523E63FEB4FE3D2
:1035100056E40E942D3520E030E04AE754E40E9452
:10352000E33660937D0670937E0680937F069093CA
:103530008006B0928206A0928106B0925309A092B2
:1035400052091DC00E94D8110091460910914709E7
:103550002091480930914909601771078207930744
:1035600050F460E070E0CB010E94140FB092530958
:10357000A09252090BC0B0928206A092810685E506
:1035800092E002C087ED92E00E94010F8091540901
:103590008823E1F0109254098091A0069091A10631
:1035A0001092A1061092A0069093AB068093AA06F3
:1035B0008091A206882351F01092A2068091A30662
:1035C0009091A4069093AD068093AC068091550926
:1035D000882381F0109255098091A206882351F02A
:1035E0001092A2068091A3069091A4069093AF0634
:1035F0008093AE0680918706909188068130910570
:1036000059F198F0029709F0A6C01092880610921E
:10361000870610929F0610929E06E9E8F6E02DE9D3
:1036200036E0DF0180E090E053C00E94D8110091A5
:103630008306109184062091850630918606DC0170
:10364000CB01801B910BA20BB30BC397A105B10556
:1036500008F481C00C942733B0928806A0928706A4
:1036600080917B00877F80937B0080E480937C0047
:1036700080917A00806480937A0080917A0086FD40
:10368000FCCF209178008091790030E0382BC9017F
:10369000A0E0B0E09C01AD012C5C31094109510969
:1036A000A8E5B2E00E940A3623E333E040E050E0B0
:1036B0000E94EB35E0919D06F0E0EE0FFF1FE7570B
:1036C000F94F318320833093A9062093A80643C085
:1036D0004D915D91840F951F2A173B07C9F76AE04A
:1036E00070E00E94463670939F0660939E0680911C
:1036F0009D0690E0DC01AA0FBB1FA757B94F0D90A4
:10370000BC91A02D4091A0065091A1064A175B07DD
:103710000CF4AD015093A1064093A0064191519144
:10372000461B570B57FF03C05195419551094B302C
:10373000510554F42E173F0789F721E02093A20684
:103740007093A4066093A30601966AE070E00E945D
:10375000463680939D061982E0915C06F0915D06E5
:10376000E732F10510F00C9461308827EE58FF4FD6
:103770008F4F0C945A368FE20E94CC08882311F4A4
:103780000C9465300E9465094AEE52E060E080E0EA
:103790000E946F094BEF52E061E080E00E946F09E8
:1037A000D0925D06C0925C060E948C080C94653035
:1037B0008BE20E94CC08882361F04CE053E061E08A
:1037C00080E00E946F0990925D0680925C060C94E6
:1037D00065308DE20E94CC08882361F04DE153E012
:1037E00061E080E00E946F09B0925D06A0925C06E5
:1037F0000C94653081E30E94CC08882369F082E054
:103800008093480684E290E090935D0680935C0686
:103810000E948C080C94653083E30E94CC088823B6
:1038200091F04EE253E060E080E00E946F094FE3C8
:1038300053E061E080E00E946F0910925D061092F3
:103840005C060C94653064EF71E080E090E00E94CB
:103850009808882311F40C94653024E030E030930C
:103860005D0620935C0640E553E061E080E00E9445
:103870006F090E948C080C9465308BE20E94CC0882
:1038800081119BCF8DE20E94CC088111A7CF81E3EB
:103890000E94CC088111B3CF83E30E94CC08811130
:1038A000C0CF6AEF70E080E090E00E949808882323
:1038B00011F40C9465304BEF52E061E080E00E941F
:1038C0006F09D0925D06C0925C060E948C080C9431
:1038D00065308BE20E94CC08882361F04BEF52E008
:1038E00061E080E00E946F09D0925D06C0925C06A4
:1038F0000C9465308DE20E94CC0881115ECF81E38B
:103900000E94CC08882391F04DE153E061E080E013
:103910000E946F091092480687E090E090935D0640
:1039200080935C060E948C080C94653083E30E94AF
:10393000CC08811176CF64EF71E080E090E00E94C6
:103940009808882311F40C94653070925D0660929B
:103950005C0640E553E061E080E00E946F090E9450
:103960008C080C9465308BE20E94CC088111B6CF94
:103970008DE20E94CC08811120CF81E30E94CC0807
:103980008111C2CF83E30E94CC0881114ACF6AEF34
:1039900070E080E090E00E949808882311F40C9475
:1039A0006530B0925D06A0925C064DE153E061E0A7
:1039B00080E00E946F090E948C080C9465308BE2B5
:1039C0000E94CC0881110ACF8DE20E94CC0881119F
:1039D00085CF81E30E94CC08882399F04CE053E026
:1039E00061E080E00E946F0981E08093480687E0F3
:1039F00090E090935D0680935C060E948C080C9486
:103A0000653083E30E94CC0881110BCF64EF71E035
:103A100080E090E00E949808882311F40C946530AF
:103A200086E090E090935D0680935C0640E553E06D
:103A300061E080E00E946F090E948C080C94653060
:103A40008BE20E94CC088111C9CE8DE20E94CC0885
:103A5000811144CF81E30E94CC088111BFCF83E361
:103A60000E94CC088111DDCE6AEF70E080E090E02A
:103A70000E949808882311F40C94653090925D069A
:103A800080925C064CE053E061E080E00E946F09A8
:103A90000E948C080C94653064EF71E080E090E047
:103AA0000E949808882311F40C9465308091480690
:103AB000813049F50E94650941E653E060E080E00D
:103AC0000E946F094AE0BE016F5F7F4F80914E06F2
:103AD00090914F060E94923462E773E0CE01019606
:103AE0000E94A439AE014F5F5F4F61E080E00E9409
:103AF0006F098BE090E090935D0680935C060E94D6
:103B00008C080C94653081110C9465300E94650915
:103B100049E753E060E080E00E946F094AE0BE019F
:103B20006F5F7F4F80915406909155060E949234AA
:103B30006AE873E0CE0101960E94A439AE014F5F9E
:103B40005F4F61E080E00E946F0988E090E0909311
:103B50005D0680935C060E948C080C9465308BE2B5
:103B60000E94CC08882341F180914E0690914F0627
:103B70008832910514F4019602C088E290E0909397
:103B80004F0680934E064AE0BE016F5F7F4F8091E3
:103B90004E0690914F060E94923462E773E0CE0188
:103BA00001960E94A439AE014F5F5F4F61E080E053
:103BB0000E946F090C9465308DE20E94CC08882326
:103BC00051F180914E0690914F068630910534F068
:103BD000019790934F0680934E0604C0D0924F06F3
:103BE000C0924E064AE0BE016F5F7F4F80914E0645
:103BF00090914F060E94923462E773E0CE010196E5
:103C00000E94A439AE014F5F5F4F61E080E00E94E7
:103C10006F090C94653081E30E94CC08882309F178
:103C20004AE0BE016F5F7F4F80914E0690914F0634
:103C30000E94923462E773E0CE0101960E94A4399B
:103C4000AE014F5F5F4F61E080E00E946F098DE041
:103C500090E090935D0680935C060E948C080C9423
:103C6000653083E30E94CC0881118CCD64EF71E054
:103C700080E090E00E949808882311F40C9465304D
:103C80008CE090E090935D0680935C0640E553E005
:103C900061E080E00E946F090E948C080C946530FE
:103CA0008BE20E94CC08882349F180914E069091C6
:103CB0004F06883291053CF4209154063091550608
:103CC0002F5F3F4F02C028E230E03093550620932B
:103CD00054064AE0BE016F5F7F4F0E94923462E754
:103CE00073E0CE0101960E94A439AE014F5F5F4F91
:103CF00061E080E00E946F090C9465308DE20E94C3
:103D0000CC08882351F18091540690915506863055
:103D1000910530F00197909355068093540604C0A6
:103D200070925506609254064AE0BE016F5F7F4F65
:103D300080914E0690914F060E94923462E773E0A4
:103D4000CE0101960E94A439AE014F5F5F4F61E042
:103D500080E00E946F090C94653081E30E94CC08DA
:103D6000882309F14AE0BE016F5F7F4F80914E06C4
:103D700090914F060E94923462E773E0CE01019663
:103D80000E94A439AE014F5F5F4F61E080E00E9466
:103D90006F098DE090E090935D0680935C060E9431
:103DA0008C080C94653083E30E94CC088111EACC26
:103DB0006AEF70E080E090E00E949808882311F498
:103DC0000C9465304AE0BE016F5F7F4F80914E06D4
:103DD00090914F060E94923462E773E0CE01019603
:103DE0000E94A439AE014F5F5F4F61E080E00E9406
:103DF0006F098BE090E090935D0680935C060E94D3
:103E00008C080C94653064EF71E080E090E00E94D3
:103E10009808882311F40C9465300E9465094DE8D8
:103E200053E060E080E00E946F094AE0BE016F5FEE
:103E30007F4F80915606909157060E9492346EE90A
:103E400073E0CE0101960E94A439AE014F5F5F4F2F
:103E500061E080E00E946F098EE090E090935D0643
:103E600080935C060E948C080C9465308BE20E9463
:103E7000CC08882349F180915406909155068032F0
:103E800033E0930710F4C29602C080E293E090936F
:103E90005506809354064AE0BE016F5F7F4F8091C4
:103EA0005406909155060E9492346AE873E0CE0160
:103EB00001960E94A439AE014F5F5F4F61E080E040
:103EC0000E946F090C9465308DE20E94CC08882313
:103ED00049F180915406909155068D3241E0940746
:103EE00010F0C29702C08CE291E090935506809347
:103EF00054064AE0BE016F5F7F4F80915406909157
:103F000055060E9492346AE873E0CE0101960E9441
:103F1000A439AE014F5F5F4F61E080E00E946F09FE
:103F20000C94653081E30E94CC08882309F14AE0B3
:103F3000BE016F5F7F4F80915406909155060E949D
:103F400092346AE873E0CE0101960E94A439AE0172
:103F50004F5F5F4F61E080E00E946F098AE090E070
:103F600090935D0680935C060E948C080C946530EB
:103F700083E30E94CC08811105CC64EF71E080E0FE
:103F800090E00E949808882311F40C94653089E031
:103F900090E090935D0680935C0640E553E061E01D
:103FA00080E00E946F090E948C080C9465308BE2BF
:103FB0000E94CC08882349F18091540690915506BF
:103FC000803253E0950710F4C29602C080E293E07D
:103FD00090935506809354064AE0BE016F5F7F4F71
:103FE00080915406909155060E9492346AE873E0DD
:103FF000CE0101960E94A439AE014F5F5F4F61E090
:1040000080E00E946F090C9465308DE20E94CC081C
:10401000882349F180915406909155068D32E1E054
:104020009E0710F0C29702C08CE291E09093550673
:10403000809354064AE0BE016F5F7F4F8091540623
:10404000909155060E9492346AE873E0CE01019681
:104050000E94A439AE014F5F5F4F61E080E00E9493
:104060006F090C94653081E30E94CC08882309F124
:104070004AE0BE016F5F7F4F8091540690915506D4
:104080000E9492346AE873E0CE0101960E94A4393E
:10409000AE014F5F5F4F61E080E00E946F098AE0F0
:1040A00090E090935D0680935C060E948C080C94CF
:1040B000653083E30E94CC08811164CB6AEF70E025
:1040C00080E090E00E949808882311F40C946530F9
:1040D0004AE0BE016F5F7F4F809154069091550674
:1040E0000E9492346AE873E0CE0101960E94A439DE
:1040F000AE014F5F5F4F61E080E00E946F0988E092
:1041000090E090935D0680935C060E948C080C946E
:10411000653064EF71E080E090E00E9498088823A9
:1041200011F40C9465300E9465094DE853E060E09D
:1041300080E00E946F094AE0BE016F5F7F4F80916F
:104140005606909157060E9492346EE973E0CE01B4
:1041500001960E94A439AE014F5F5F4F61E080E09D
:104160000E946F098EE090E090935D0680935C065C
:104170000E948C080C9465308BE20E94CC08882346
:1041800041F180915606909157068031910510F4C7
:10419000019602C080E190E0909357068093560606
:1041A0004AE0BE016F5F7F4F80915606909157069F
:1041B0000E9492346EE973E0CE0101960E94A43908
:1041C000AE014F5F5F4F61E080E00E946F090C9489
:1041D00065308DE20E94CC08882341F1809156061B
:1041E000909157068D30910510F0019702C08CE038
:1041F00090E090935706809356064AE0BE016F5FA9
:104200007F4F80915606909157060E9492346EE936
:1042100073E0CE0101960E94A439AE014F5F5F4F5B
:1042200061E080E00E946F090C94653081E30E9498
:10423000CC08882309F14AE0BE016F5F7F4F80916F
:104240005606909157060E9492346EE973E0CE01B3
:1042500001960E94A439AE014F5F5F4F61E080E09C
:104260000E946F0980E190E090935D0680935C0668
:104270000E948C080C94653083E30E94CC0888234C
:1042800009F459C080914806813049F50E946509BA
:1042900041E653E060E080E00E946F094AE0BE0121
:1042A0006F5F7F4F80914E0690914F060E9492342F
:1042B00062E773E0CE0101960E94A439AE014F5F20
:1042C0005F4F61E080E00E946F098BE090E0909387
:1042D0005D0680935C060E948C080C946530811109
:1042E0000C9465300E94650949E753E060E080E086
:1042F0000E946F094AE0BE016F5F7F4F80915406B4
:10430000909155060E9492346AE873E0CE010196BE
:104310000E94A439AE014F5F5F4F61E080E00E94D0
:104320006F0988E090E090935D0680935C060E94A0
:104330008C080C94653064EF71E080E090E00E949E
:104340009808882311F40C9465308FE090E09093E6
:104350005D0680935C0640E553E061E080E00E94EA
:104360006F090E948C080C9465308BE20E94CC0887
:10437000882341F18091560690915706803191052E
:1043800010F4019602C080E190E09093570680936C
:1043900056064AE0BE016F5F7F4F809156069091AE
:1043A00057060E9492346EE973E0CE0101960E9496
:1043B000A439AE014F5F5F4F61E080E00E946F095A
:1043C0000C9465308DE20E94CC08882341F18091E5
:1043D0005606909157068D30910510F0019702C056
:1043E0008CE090E090935706809356064AE0BE0119
:1043F0006F5F7F4F80915606909157060E949234CE
:104400006EE973E0CE0101960E94A439AE014F5FC0
:104410005F4F61E080E00E946F090C94653081E39A
:104420000E94CC08882309F14AE0BE016F5F7F4FEC
:1044300080915606909157060E9492346EE973E07F
:10444000CE0101960E94A439AE014F5F5F4F61E03B
:1044500080E00E946F0980E190E090935D06809378
:104460005C060E948C080C94653083E30E94CC08A3
:10447000882309F459C080914806813049F50E948B
:10448000650941E653E060E080E00E946F094AE080
:10449000BE016F5F7F4F80914E0690914F060E9444
:1044A000923462E773E0CE0101960E94A439AE0116
:1044B0004F5F5F4F61E080E00E946F098BE090E00A
:1044C00090935D0680935C060E948C080C94653086
:1044D00081110C9465300E94650949E753E060E062
:1044E00080E00E946F094AE0BE016F5F7F4F8091BC
:1044F0005406909155060E9492346AE873E0CE010A
:1045000001960E94A439AE014F5F5F4F61E080E0E9
:104510000E946F0988E090E090935D0680935C06AE
:104520000E948C080C94653064EF71E080E090E0AC
:104530000E949808882311F40C9465304AE0BE016B
:104540006F5F7F4F80915606909157060E9492347C
:104550006EE973E0CE0101960E94A439AE014F5F6F
:104560005F4F61E080E00E946F098EE090E09093E1
:104570005D0680935C060E948C080C94653064EFA5
:1045800071E080E090E00E949808882311F40C9478
:1045900065300E94650942EA53E060E080E00E94D5
:1045A0006F094AE0BE016F5F7F4F8091580690917E
:1045B00059060E9492346EE973E0CE0101960E9482
:1045C000A439AE014F5F5F4F61E080E00E946F0948
:1045D00081E190E090935D0680935C060E948C08D8
:1045E0000C9465308BE20E94CC08882351F18091B5
:1045F0005806909159068530910530F401969093B4
:1046000059068093580604C0709259066092580665
:104610004AE0BE016F5F7F4F809158069091590626
:104620000E9492346EE973E0CE0101960E94A43993
:10463000AE014F5F5F4F61E080E00E946F090C9414
:1046400065308DE20E94CC08882351F18091580694
:10465000909159068230910530F001979093590658
:104660008093580604C0D0925906C09258064AE07A
:10467000BE016F5F7F4F80915806909159060E944E
:1046800092346EE973E0CE0101960E94A439AE0126
:104690004F5F5F4F61E080E00E946F090C946530CE
:1046A00081E30E94CC08882309F14AE0BE016F5FD4
:1046B0007F4F80915806909159060E9492346EE97E
:1046C00073E0CE0101960E94A439AE014F5F5F4FA7
:1046D00061E080E00E946F0983E190E090935D06C5
:1046E00080935C060E948C080C94653083E30E94E2
:1046F000CC08882349F10E9465094DE853E060E049
:1047000080E00E946F094AE0BE016F5F7F4F809199
:104710005606909157060E9492346EE973E0CE01DE
:1047200001960E94A439AE014F5F5F4F61E080E0C7
:104730000E946F098EE090E090935D0680935C0686
:104740000E948C080C94653064EF71E080E090E08A
:104750000E949808882311F40C94653082E190E05F
:1047600090935D0680935C0640E553E061E080E055
:104770000E946F090E948C080C9465308BE20E94A5
:10478000CC08882351F180915806909159068530C4
:10479000910530F40196909359068093580604C011
:1047A00070925906609258064AE0BE016F5F7F4FD3
:1047B00080915806909159060E9492346EE973E0F8
:1047C000CE0101960E94A439AE014F5F5F4F61E0B8
:1047D00080E00E946F090C9465308DE20E94CC0845
:1047E000882351F1809158069091590682309105A5
:1047F00030F00197909359068093580604C0D092E8
:104800005906C09258064AE0BE016F5F7F4F809103
:104810005806909159060E9492346EE973E0CE01D9
:1048200001960E94A439AE014F5F5F4F61E080E0C6
:104830000E946F090C94653081E30E94CC088823A4
:1048400009F14AE0BE016F5F7F4F80915806909159
:1048500059060E9492346EE973E0CE0101960E94DF
:10486000A439AE014F5F5F4F61E080E00E946F09A5
:1048700083E190E090935D0680935C060E948C0833
:104880000C94653083E30E94CC08882349F10E9490
:1048900065094DE853E060E080E00E946F094AE05E
:1048A000BE016F5F7F4F80915606909157060E9420
:1048B00092346EE973E0CE0101960E94A439AE01F4
:1048C0004F5F5F4F61E080E00E946F098EE090E0F3
:1048D00090935D0680935C060E948C080C94653072
:1048E00064EF71E080E090E00E949808882311F462
:1048F0000C9465304AE0BE016F5F7F4F809158068F
:10490000909159060E9492346EE973E0CE010196AF
:104910000E94A439AE014F5F5F4F61E080E00E94CA
:104920006F0981E190E090935D0680935C060E94A0
:104930008C080C94653064EF71E080E090E00E9498
:104940009808882311F40C9465300E94650943EBA4
:1049500053E060E080E00E946F0980914B064AE0DE
:10496000BE016F5F7F4F90E00E9492346FE573E06D
:10497000CE0101960E94A439AE014F5F5F4F61E006
:1049800080E00E946F0984E190E090935D0680933F
:104990005C060E948C080C9465308BE20E94CC0867
:1049A000882309F180914B068E3110F48F5F01C08E
:1049B0008EE180934B0680914B064AE0BE016F5F0B
:1049C0007F4F90E00E9492346FE573E0CE01019634
:1049D0000E94A439AE014F5F5F4F61E080E00E940A
:1049E0006F090C9465308DE20E94CC08882309F190
:1049F00080914B06863010F0815001C085E0809395
:104A00004B0680914B064AE0BE016F5F7F4F90E0FE
:104A10000E9492346FE573E0CE0101960E94A439A2
:104A2000AE014F5F5F4F61E080E00E946F090C9420
:104A3000653081E30E94CC08882301F180914B0608
:104A40004AE0BE016F5F7F4F90E00E9492346FE5B5
:104A500073E0CE0101960E94A439AE014F5F5F4F13
:104A600061E080E00E946F0986E190E090935D062E
:104A700080935C060E948C080C94653083E30E944E
:104A8000CC08882349F10E94650942EA53E060E0BE
:104A900080E00E946F094AE0BE016F5F7F4F809106
:104AA0005606909157060E9492346FE573E0CE014E
:104AB00001960E94A439AE014F5F5F4F61E080E034
:104AC0000E946F0981E190E090935D0680935C06FF
:104AD0000E948C080C94653064EF71E080E090E0F7
:104AE0000E949808882311F40C94653085E190E0C9
:104AF00090935D0680935C0640E553E061E080E0C2
:104B00000E946F090E948C080C9465308BE20E9411
:104B1000CC08882309F180914B068E3110F48F5F09
:104B200001C08EE180934B0680914B064AE0BE01A6
:104B30006F5F7F4F90E00E9492346FE573E0CE018B
:104B400001960E94A439AE014F5F5F4F61E080E0A3
:104B50000E946F090C9465308DE20E94CC08882376
:104B600009F180914B06863010F0815001C085E03C
:104B700080934B0680914B064AE0BE016F5F7F4FEA
:104B800090E00E9492346FE573E0CE0101960E949E
:104B9000A439AE014F5F5F4F61E080E00E946F0972
:104BA0000C94653081E30E94CC08882301F1809148
:104BB0004B064AE0BE016F5F7F4F90E00E94923447
:104BC0006FE573E0CE0101960E94A439AE014F5FFC
:104BD0005F4F61E080E00E946F0986E190E0909372
:104BE0005D0680935C060E948C080C94653083E31C
:104BF0000E94CC08882349F10E94650942EA53E0EB
:104C000060E080E00E946F094AE0BE016F5F7F4F65
:104C100080915606909157060E9492346FE573E09A
:104C2000CE0101960E94A439AE014F5F5F4F61E053
:104C300080E00E946F0981E190E090935D0680938F
:104C40005C060E948C080C94653064EF71E080E093
:104C500090E00E949808882311F40C9465308091AC
:104C60004B064AE0BE016F5F7F4F90E00E94923496
:104C70006FE573E0CE0101960E94A439AE014F5F4B
:104C80005F4F61E080E00E946F0984E190E09093C3
:104C90005D0680935C060E948C080C94653064EF7E
:104CA00071E080E090E00E949808882311F40C9451
:104CB00065300E94650944EC53E060E080E00E94AA
:104CC0006F09809149064AE0BE016F5F7F4F90E017
:104CD0000E94923462EB74E0CE0101960E94A439E6
:104CE000AE014F5F5F4F61E080E00E946F0987E196
:104CF00090E090935D0680935C060E948C080C9473
:104D000065308BE20E94CC08882309F18091490626
:104D1000803510F48B5F01C080E580934906809157
:104D200049064AE0BE016F5F7F4F90E00E949234D7
:104D300062EB74E0CE0101960E94A439AE014F5F90
:104D40005F4F61E080E00E946F090C9465308DE256
:104D50000E94CC08882309F1809149068B3010F01D
:104D6000855001C08AE080934906809149064AE057
:104D7000BE016F5F7F4F90E00E94923462EB74E05F
:104D8000CE0101960E94A439AE014F5F5F4F61E0F2
:104D900080E00E946F090C94653081E30E94CC088A
:104DA000882301F1809149064AE0BE016F5F7F4F81
:104DB00090E00E94923462EB74E0CE0101960E9472
:104DC000A439AE014F5F5F4F61E080E00E946F0940
:104DD00089E190E090935D0680935C060E948C08C8
:104DE0000C94653083E30E94CC08882341F10E9433
:104DF000650943EB53E060E080E00E946F09809119
:104E00004B064AE0BE016F5F7F4F90E00E949234F4
:104E10006FE573E0CE0101960E94A439AE014F5FA9
:104E20005F4F61E080E00E946F0984E190E0909321
:104E30005D0680935C060E948C080C94653064EFDC
:104E400071E080E090E00E949808882311F40C94AF
:104E5000653088E190E090935D0680935C0640E5C4
:104E600053E061E080E00E946F090E948C080C947E
:104E700065308BE20E94CC08882309F180914906B5
:104E8000803510F48B5F01C080E5809349068091E6
:104E900049064AE0BE016F5F7F4F90E00E94923466
:104EA00062EB74E0CE0101960E94A439AE014F5F1F
:104EB0005F4F61E080E00E946F090C9465308DE2E5
:104EC0000E94CC08882309F1809149068B3010F0AC
:104ED000855001C08AE080934906809149064AE0E6
:104EE000BE016F5F7F4F90E00E94923462EB74E0EE
:104EF000CE0101960E94A439AE014F5F5F4F61E081
:104F000080E00E946F090C94653081E30E94CC0818
:104F1000882301F1809149064AE0BE016F5F7F4F0F
:104F200090E00E94923462EB74E0CE0101960E9400
:104F3000A439AE014F5F5F4F61E080E00E946F09CE
:104F400089E190E090935D0680935C060E948C0856
:104F50000C94653083E30E94CC08882341F10E94C1
:104F6000650943EB53E060E080E00E946F098091A7
:104F70004B064AE0BE016F5F7F4F90E00E94923483
:104F80006FE573E0CE0101960E94A439AE014F5F38
:104F90005F4F61E080E00E946F0984E190E09093B0
:104FA0005D0680935C060E948C080C94653064EF6B
:104FB00071E080E090E00E949808882311F40C943E
:104FC0006530809149064AE0BE016F5F7F4F90E0F7
:104FD0000E94923462EB74E0CE0101960E94A439E3
:104FE000AE014F5F5F4F61E080E00E946F0987E193
:104FF00090E090935D0680935C060E948C080C9470
:10500000653064EF71E080E090E00E9498088823AA
:1050100011F40C9465300E94650945ED53E060E0A1
:1050200080E00E946F0980914A064AE0BE016F5FEE
:105030007F4F90E00E94923462EB74E0CE010196C3
:105040000E94A439AE014F5F5F4F61E080E00E9493
:105050006F098AE190E090935D0680935C060E9460
:105060008C080C9465308BE20E94CC08882309F1EF
:1050700080914A068E3110F48B5F01C08EE18093DF
:105080004A0680914A064AE0BE016F5F7F4F90E07A
:105090000E94923462EB74E0CE0101960E94A43922
:1050A000AE014F5F5F4F61E080E00E946F090C949A
:1050B00065308DE20E94CC08882309F180914A0670
:1050C000882321F0855080934A0602C010924A0638
:1050D00080914A064AE0BE016F5F7F4F90E00E94D8
:1050E000923462EB74E0CE0101960E94A439AE01C5
:1050F0004F5F5F4F61E080E00E946F09E6C781E388
:105100000E94CC088823F9F080914A064AE0BE014B
:105110006F5F7F4F90E00E94923462EB74E0CE01AB
:1051200001960E94A439AE014F5F5F4F61E080E0BD
:105130000E946F098CE190E090935D0680935C067D
:105140000E948C08C2C783E30E94CC08882339F1EF
:105150000E94650944EC53E060E080E00E946F0922
:10516000809149064AE0BE016F5F7F4F90E00E9448
:10517000923462EB74E0CE0101960E94A439AE0134
:105180004F5F5F4F61E080E00E946F0987E190E030
:1051900090935D0680935C060E948C0896C764EF2E
:1051A00071E080E090E00E949808882309F48DC7A0
:1051B0008BE190E090935D0680935C0640E553E0C0
:1051C00061E080E00E946F090E948C087EC78BE23C
:1051D0000E94CC08882301F180914A068E3110F498
:1051E0008B5F01C08EE180934A0680914A064AE0B7
:1051F000BE016F5F7F4F90E00E94923462EB74E0DB
:10520000CE0101960E94A439AE014F5F5F4F61E06D
:1052100080E00E946F0959C78DE20E94CC08882364
:1052200009F180914A06882321F0855080934A062F
:1052300002C010924A0680914A064AE0BE016F5FA2
:105240007F4F90E00E94923462EB74E0CE010196B1
:105250000E94A439AE014F5F5F4F61E080E00E9481
:105260006F0933C781E30E94CC088823F9F080914D
:105270004A064AE0BE016F5F7F4F90E00E94923481
:1052800062EB74E0CE0101960E94A439AE014F5F3B
:105290005F4F61E080E00E946F098CE190E09093A5
:1052A0005D0680935C060E948C080FC783E30E9412
:1052B000CC08882339F10E94650944EC53E060E092
:1052C00080E00E946F09809149064AE0BE016F5F4D
:1052D0007F4F90E00E94923462EB74E0CE01019621
:1052E0000E94A439AE014F5F5F4F61E080E00E94F1
:1052F0006F0987E190E090935D0680935C060E94C1
:105300008C08E3C664EF71E080E090E00E949808AA
:10531000882309F4DAC680914A064AE0BE016F5F2D
:105320007F4F90E00E94923462EB74E0CE010196D0
:105330000E94A439AE014F5F5F4F61E080E00E94A0
:105340006F098AE190E090935D0680935C060E946D
:105350008C08BBC664EF71E080E090E00E94980882
:10536000882309F4B2C60E94650946EE53E060E066
:1053700080E00E946F094AE0BE016F5F7F4F80911D
:105380005006909151060E94923462E773E0CE017C
:1053900001960E94A439AE014F5F5F4F61E080E04B
:1053A0000E946F098DE190E090935D0680935C060A
:1053B0000E948C088AC68BE20E94CC08882339F1AF
:1053C00080915006909151068733910514F401960F
:1053D00002C087E390E090935106809350064AE024
:1053E000BE016F5F7F4F80915006909151060E94E1
:1053F000923462E773E0CE0101960E94A439AE01B7
:105400004F5F5F4F61E080E00E946F095EC68DE2F2
:105410000E94CC08882339F1809150069091510662
:105420008432910514F0019702C083E290E09093DA
:105430005106809350064AE0BE016F5F7F4F809116
:105440005006909151060E94923462E773E0CE01BB
:1054500001960E94A439AE014F5F5F4F61E080E08A
:105460000E946F0932C681E30E94CC08882301F1B3
:105470004AE0BE016F5F7F4F8091500690915106C8
:105480000E94923462E773E0CE0101960E94A43933
:10549000AE014F5F5F4F61E080E00E946F098FE1D6
:1054A00090E090935D0680935C060E948C080DC688
:1054B00083E30E94CC08882339F10E94650945EDF9
:1054C00053E060E080E00E946F0980914A064AE064
:1054D000BE016F5F7F4F90E00E94923462EB74E0F8
:1054E000CE0101960E94A439AE014F5F5F4F61E08B
:1054F00080E00E946F098AE190E090935D068093BE
:105500005C060E948C08E1C564EF71E080E090E0E9
:105510000E949808882309F4D8C58EE190E0909302
:105520005D0680935C0640E553E061E080E00E9408
:105530006F090E948C08C9C58BE20E94CC088823A1
:1055400039F180915006909151068733910514F4FA
:10555000019602C087E390E0909351068093500635
:105560004AE0BE016F5F7F4F8091500690915106D7
:105570000E94923462E773E0CE0101960E94A43942
:10558000AE014F5F5F4F61E080E00E946F099DC5F3
:105590008DE20E94CC08882339F1809150069091C9
:1055A00051068432910514F0019702C083E290E025
:1055B00090935106809350064AE0BE016F5F7F4F83
:1055C00080915006909151060E94923462E773E0F8
:1055D000CE0101960E94A439AE014F5F5F4F61E09A
:1055E00080E00E946F0971C581E30E94CC08882386
:1055F00001F14AE0BE016F5F7F4F809150069091AC
:1056000051060E94923462E773E0CE0101960E9437
:10561000A439AE014F5F5F4F61E080E00E946F09E7
:105620008FE190E090935D0680935C060E948C0869
:105630004CC583E30E94CC08882339F10E94650998
:1056400045ED53E060E080E00E946F0980914A06DA
:105650004AE0BE016F5F7F4F90E00E94923462EBA0
:1056600074E0CE0101960E94A439AE014F5F5F4FF6
:1056700061E080E00E946F098AE190E090935D060E
:1056800080935C060E948C0820C564EF71E080E086
:1056900090E00E949808882309F417C54AE0BE01EB
:1056A0006F5F7F4F80915006909151060E94923417
:1056B00062E773E0CE0101960E94A439AE014F5F0C
:1056C0005F4F61E080E00E946F098DE190E0909370
:1056D0005D0680935C060E948C08F7C464EF71E05D
:1056E00080E090E00E949808882309F4EEC40E94AC
:1056F000650947EF53E060E080E00E946F09809108
:105700005A064AE0BE016F5F7F4F082E000C990BCE
:105710000E9492346FE573E0CE0101960E94A43995
:10572000AE014F5F5F4F61E080E00E946F0980E251
:1057300090E090935D0680935C060E948C08C5C43F
:105740008BE20E94CC08882319F180915A0687FFCA
:1057500004C08F5F80935A0602C010925A0680914F
:105760005A064AE0BE016F5F7F4F082E000C990B6E
:105770000E9492346FE573E0CE0101960E94A43935
:10578000AE014F5F5F4F61E080E00E946F099DC4F2
:105790008DE20E94CC08882311F180915A06813F46
:1057A00014F0815001C080EF80935A0680915A0610
:1057B0004AE0BE016F5F7F4F082E000C990B0E94DC
:1057C00092346FE573E0CE0101960E94A439AE01D8
:1057D0004F5F5F4F61E080E00E946F0976C481E314
:1057E0000E94CC08882309F180915A064AE0BE0144
:1057F0006F5F7F4F082E000C990B0E9492346FE56B
:1058000073E0CE0101960E94A439AE014F5F5F4F55
:1058100061E080E00E946F0982E290E090935D0673
:1058200080935C060E948C0850C483E30E94CC08DD
:10583000882341F10E94650946EE53E060E080E074
:105840000E946F094AE0BE016F5F7F4F8091500652
:10585000909151060E94923462E773E0CE01019666
:105860000E94A439AE014F5F5F4F61E080E00E946B
:105870006F098DE190E090935D0680935C060E9435
:105880008C0823C464EF71E080E090E00E949808E7
:10589000882309F41AC481E290E090935D06809316
:1058A0005C0640E553E061E080E00E946F090E94E1
:1058B0008C080BC48BE20E94CC08882319F18091DC
:1058C0005A0687FF04C08F5F80935A0602C0109269
:1058D0005A0680915A064AE0BE016F5F7F4F082E3C
:1058E000000C990B0E9492346FE573E0CE01019693
:1058F0000E94A439AE014F5F5F4F61E080E00E94DB
:105900006F09E3C38DE20E94CC08882311F18091D6
:105910005A06813F14F0815001C080EF80935A06EF
:1059200080915A064AE0BE016F5F7F4F082E000C3F
:10593000990B0E9492346FE573E0CE0101960E94AC
:10594000A439AE014F5F5F4F61E080E00E946F09B4
:10595000BCC381E30E94CC08882309F180915A06D8
:105960004AE0BE016F5F7F4F082E000C990B0E942A
:1059700092346FE573E0CE0101960E94A439AE0126
:105980004F5F5F4F61E080E00E946F0982E290E02C
:1059900090935D0680935C060E948C0896C383E317
:1059A0000E94CC08882341F10E94650946EE53E02D
:1059B00060E080E00E946F094AE0BE016F5F7F4FA8
:1059C00080915006909151060E94923462E773E0F4
:1059D000CE0101960E94A439AE014F5F5F4F61E096
:1059E00080E00E946F098DE190E090935D068093C6
:1059F0005C060E948C0869C364EF71E080E090E06F
:105A00000E949808882309F460C380915A064AE0EE
:105A1000BE016F5F7F4F082E000C990B0E949234DD
:105A20006FE573E0CE0101960E94A439AE014F5F8D
:105A30005F4F61E080E00E946F0980E290E0909308
:105A40005D0680935C060E948C083FC364EF71E0A2
:105A500080E090E00E949808882309F436C30E94F1
:105A6000650948E054E060E080E00E946F0949E188
:105A700054E061E080E00E946F09AE014F5F5F4F2C
:105A800061E080E00E946F0983E290E090935D0600
:105A900080935C061AC364EF71E080E090E00E949E
:105AA0009808882309F411C30E9465098091330680
:105AB000813019F448E054E002C04AE254E060E06A
:105AC00080E00E946F0949E154E061E080E00E94BB
:105AD0006F09AE014F5F5F4F61E080E00E946F0988
