:100000000C94FB010C9427060C94FC050C94D10570
:100010000C94A6050C947B050C9450050C942505B6
:100020000C94FA040C942C020C942C020C942C02C8
:100030000C942C020C942C020C942C020C942C0288
:100040000C942C020C942C020C942C020C942C0278
:100050000C942C020C942C020C942C020C94E8109E
:100060000C942C020C9493060C9469060C942C02AC
:100070000C942C020C942C020C942C020C942C0248
:100080000C942C020C942C020C942C020C942C0238
:100090000C942C020C942C020C942C020C942C0228
:1000A0000C942C020C942C020C942C020C942C0218
:1000B0000C942C020C942C020C942C020C942C0208
:1000C0000C942C020C942C020C942C020C942C02F8
:1000D0000C942C020C942C020C942C020C942C02E8
:1000E0000C942C02A916C4165117C317261798177B
:1000F00002182F181B1ABE1A721B8E183319EA1910
:10010000A31B6D1C481D791D471E261F561F0A2064
:10011000CB200621DD21D1220023D023B524E524E4
:100120009D256726D6268926AC27BA27000D030D04
:10013000F20CF60CFC0C3A0D070D0B0D110D150D04
:10014000190D1F0D230D270D3A0D2D0D310D350DF8
:10015000D90FDE0FE30FED0FF70F7010011009102C
:1001600011101B1025102F103E1048107010521047
:100170005C1066100C94140A0C941F0D0C942F1034
:100180000C9425100C94B5240C949D250C9401100E
:100190000C9498170C94BB030C9425040C94D12256
:1001A0000C94561F0C94230D0C942E020C94F20CFC
:1001B0000C94D0230C94070D0C943A0D0C94511709
:1001C0000C942D0D0C94EA190C94DE0F0C94721BF8
:1001D0000C94FC0C0C94D90F0C9411040C94A916DB
:1001E0000C94481D0C94F60C0C94030D0C941110F7
:1001F0000C9468020C94C4160C9459020C94C2021C
:100200000C9406210C94CB200C947C020C942617A1
:100210000C94C3170C94261F0C94AC270C94350D2A
:100220000C94BA270C9452100C946D1C0C946726F5
:100230000C94F5030C94C8030C94110D0C94481005
:100240000C941B100C94CF0B0C94000D0C946610A6
:100250000C941B1A0C94ED0F0C94310D0C94BE1AD7
:100260000C94471E0C942F180C945C100C94190DD0
:100270000C94C9030C948E180C943B2A0C94F70F21
:100280000C9409100C940F030C94A31B0C940B0DED
:100290000C942F020C940A200C941A0A0C94E30F6D
:1002A0000C94150D0C943E100C948A020C94791D3C
:1002B0000C94270D0C94DD210C9400230C9402184F
:1002C0000C94E5240C9433190C9489260C94D626AE
:1002D0000C94701000002100240027002A002D003B
:1002E0003000330001010000040107010A01000091
:1002F0002200250028002B002E00310034000201CE
:100300000000050108010B0100000A0B02090C0D99
:100310000E080703040100000000000000000000B8
:1003200000000000000000000000000000000000CD
:10033000000000001211100000000000000000008A
:1003400000000000000000000000000000000102AA
:1003500010202008081020401020408002010201D7
:10036000080402010102040810204080804020108F
:1003700008040201800402018040201008040201E8
:100380000804020101020408102040800102040850
:1003900010204080000020002300260029002C00AF
:1003A0002F003200000100000301060109010505CC
:1003B0000505070508080808020202020A0A0808DB
:1003C0000404040401010101010101010303030309
:1003D00003030303040707070C0C0C0C0C0C0C0C98
:1003E0000202020206060606060606060B0B0B0BA9
:1003F0000B0B0B0B3B2A11241FBECFEFD1E2DEBF4C
:10040000CDBF00E00CBF15E0A0E0B2E0E4E6F1E60D
:1004100000E00BBF02C007900D92AA36B107D9F7D2
:1004200029E0AAE6B5E001C01D92AC39B207E1F7B8
:1004300011E0CBEFD1E000E006C021970109802F49
:10044000FE010E94542DCA3FD10780E00807A9F79A
:100450000E9432110C94B0300C9400000895CF9299
:10046000DF92EF92FF920F931F93CF93DF936C0174
:100470007A018B01C0E0D0E0CE15DF0581F0D80114
:100480006D918D01D601ED91FC910190F081E02DEF
:10049000C6011995892B11F02196EECF7E01C70177
:1004A000DF91CF911F910F91FF90EF90DF90CF9050
:1004B0000895FC01538D448D252F30E0842F90E06A
:1004C000821B930B541710F0CF960895019708954F
:1004D000FC01918D828D981761F0828DDF01A80F4C
:1004E000B11D5D968C91928D9F5F9F73928F90E06E
:1004F00008958FEF9FEF0895FC01918D828D9817DD
:1005000031F0828DE80FF11D858D90E008958FEF19
:100510009FEF0895FC01918D228D892F90E0805CE2
:100520009F4F821B91098F739927089581E098E06E
:100530000E948A0221E0892B09F420E0822F08958D
:10054000FC01848DDF01A80FB11DA35ABF4F2C9170
:10055000848D90E001968F739927848FA689B7893F
:100560002C93A089B1898C91837080648C93938D36
:10057000848D981306C00288F389E02D80818F7DD9
:1005800080830895EF92FF920F931F93CF93DF9391
:10059000EC0181E0888F9B8D8C8D981305C0E889D4
:1005A000F989808185FD26C0F62E0B8D10E00F5F46
:1005B0001F4F0F731127E02E8C8DE8120CC00FB661
:1005C00007FCFACFE889F989808185FFF5CFCE0154
:1005D0000E94A002F1CF8B8DFE01E80FF11DE35ABE
:1005E000FF4FF0829FB7F8940B8FEA89FB898081D7
:1005F00080620AC09FB7F894EE89FF896083E8891A
:10060000F98980818370806480839FBF81E090E05E
:10061000DF91CF911F910F91FF90EF900895CF93AD
:10062000DF93EC01888D8823C9F0EA89FB898081FA
:1006300085FD05C0A889B9898C9186FD0FC00FB6CC
:1006400007FCF5CF808185FFF2CFA889B9898C910D
:1006500085FFEDCFCE010E94A002E7CFDF91CF91C1
:100660000895CF93C1E081E098E00E948A02892B2F
:1006700009F44AC081E098E00E9468028C3469F075
:100680002CF48B3299F08D32E9F0EDCF8C3629F0D5
:10069000853749F0853539F706C08091C4058C2728
:1006A0008093C405E0CFC093BF05DDCF8091C00526
:1006B0009091C105A091C205B091C305C296A11D3C
:1006C000B11D10C08091C0059091C105A091C205D7
:1006D000B091C30583339105A105B10560F0C297C0
:1006E000A109B1098093C0059093C105A093C205EB
:1006F000B093C305B8CF1092C0051092C1051092F7
:10070000C2051092C305AFCFCF9108950E94960203
:10071000811125C080E090E0892B41F080E090E0DD
:10072000892B21F00E94000081111CC080E090E024
:10073000892B41F080E090E0892B21F00E9400009D
:10074000811113C080E090E0892BA1F080E090E05F
:10075000892B81F00E94000081110AC008950E9437
:100760003103D8CF0E940000E1CF0E940000EACF01
:100770000C9400000895DC01ED91FC910684F7854E
:10078000E02D41E0199581E090E0089508950895E5
:10079000089580E090E008950E9490300F931F9399
:1007A000CF93DF93EC0188819981009729F02A810A
:1007B0003B812617370788F48B016F5F7F4F0E94BC
:1007C000AB2F009761F0998388831B830A832C8168
:1007D0003D81232B11F4FC01108281E001C080E0F7
:1007E000DF91CF911F910F910895EF92FF921F9388
:1007F000CF93DF93EC01162F7A0161E0812F0E94E5
:100800004B0F1E8BFA86E986E881F9810484F58511
:10081000E02D60E0CE01DF91CF911F91FF90EF902E
:100820001994FC0186898F3F79F0218532856623F2
:1008300019F0232B31F403C02130310511F461E0AC
:1008400001C060E00C941C0F08950F931F93CF9389
:10085000DF93EC01162F042F61E0413009F060E0D6
:100860008B850E941C0F8C858F3F19F060E00E94E1
:100870001C0F023081F08C8184FF02C048E00CC064
:10088000612F70E084E0759567958A95E1F744E003
:10089000CE010E94AD1044E0612FCE01DF91CF91D7
:1008A0001F910F910C94AD10EF92FF920F931F9335
:1008B000CF93DF936115710511F480E01CC04115E1
:1008C0005105C1F07B01EC018C819D818A01080FEB
:1008D000191FB801CE010E94CE03882371F328812D
:1008E00039818C819D81B701820F931F0E94A930AD
:1008F0001D830C8381E0DF91CF911F910F91FF90B9
:10090000EF900895CF93DF93EC0188819981009750
:1009100011F00E94222F198218821D821C821B82D4
:100920001A82DF91CF910895CF93DF93EC01611587
:10093000710561F0FB0101900020E9F73197AF01EB
:10094000461B570B0E945404811103C0CE010E9424
:100950008204CE01DF91CF910895EF92FF920F9321
:100960001F93CF93DF93EC017B018A01BA010E94B0
:10097000CE03811104C0CE010E94820407C01D83F2
:100980000C83B701888199810E94A930CE01DF9143
:10099000CF911F910F91FF90EF900895CF93DF9328
:1009A000EC016115710559F0FB0101900020E9F798
:1009B0003197AF01461B570B0E94AD0402C00E9445
:1009C0008204CE01DF91CF910895FC011182108243
:1009D00013821282158214826115710551F0FB0198
:1009E00001900020E9F73197AF01461B570B0C949B
:1009F000AD0408951F920F920FB60F9211240BB6FB
:100A00000F922F933F934F935F936F937F938F93A7
:100A10009F93AF93BF93EF93FF93E0910E02F091FA
:100A20000F021995FF91EF91BF91AF919F918F9117
:100A30007F916F915F914F913F912F910F900BBEDE
:100A40000F900FBE0F901F9018951F920F920FB628
:100A50000F9211240BB60F922F933F934F935F93F6
:100A60006F937F938F939F93AF93BF93EF93FF9376
:100A7000E0910C02F0910D021995FF91EF91BF9159
:100A8000AF919F918F917F916F915F914F913F9126
:100A90002F910F900BBE0F900FBE0F901F901895C7
:100AA0001F920F920FB60F9211240BB60F922F9335
:100AB0003F934F935F936F937F938F939F93AF93E6
:100AC000BF93EF93FF93E0910202F0910302199517
:100AD000FF91EF91BF91AF919F918F917F916F9116
:100AE0005F914F913F912F910F900BBE0F900FBED2
:100AF0000F901F9018951F920F920FB60F9211240E
:100B00000BB60F922F933F934F935F936F937F9307
:100B10008F939F93AF93BF93EF93FF93E091000266
:100B2000F09101021995FF91EF91BF91AF919F91C3
:100B30008F917F916F915F914F913F912F910F9086
:100B40000BBE0F900FBE0F901F9018951F920F9223
:100B50000FB60F9211240BB60F922F933F934F9322
:100B60005F936F937F938F939F93AF93BF93EF9315
:100B7000FF93E0910A02F0910B021995FF91EF911A
:100B8000BF91AF919F918F917F916F915F914F91A5
:100B90003F912F910F900BBE0F900FBE0F901F90A3
:100BA00018951F920F920FB60F9211240BB60F9249
:100BB0002F933F934F935F936F937F938F939F9365
:100BC000AF93BF93EF93FF93E0910802F091090276
:100BD0001995FF91EF91BF91AF919F918F917F9167
:100BE0006F915F914F913F912F910F900BBE0F909E
:100BF0000FBE0F901F9018951F920F920FB60F9275
:100C000011240BB60F922F933F934F935F936F93E3
:100C10007F938F939F93AF93BF93EF93FF93E09155
:100C20000602F09107021995FF91EF91BF91AF91E4
:100C30009F918F917F916F915F914F913F912F91F4
:100C40000F900BBE0F900FBE0F901F9018951F9224
:100C50000F920FB60F9211240BB60F922F933F9362
:100C60004F935F936F937F938F939F93AF93BF93B4
:100C7000EF93FF93E0910402F09105021995FF9123
:100C8000EF91BF91AF919F918F917F916F915F9104
:100C90004F913F912F910F900BBE0F900FBE0F9071
:100CA0001F9018956115710579F0FB0101900020E6
:100CB000E9F73197AF01461B570BDC01ED91FC9131
:100CC0000280F381E02D199480E090E008950C9467
:100CD00052061F920F920FB60F9211240BB60F926D
:100CE0002F933F934F935F936F937F938F939F9334
:100CF000AF93BF93EF93FF9381E098E00E94A0022F
:100D0000FF91EF91BF91AF919F918F917F916F91E3
:100D10005F914F913F912F910F900BBE0F900FBE9F
:100D20000F901F9018951F920F920FB60F921124DB
:100D30000BB60F922F938F939F93EF93FF93E091B6
:100D40001108F09112088081E0911708F0911808BD
:100D500082FD12C0908180911A088F5F8F7320915D
:100D60001B08821751F0E0911A08F0E0EF5FF74F8F
:100D7000958F80931A0801C08081FF91EF919F9118
:100D80008F912F910F900BBE0F900FBE0F901F9061
:100D900018952F923F924F925F926F927F928F920F
:100DA0009F92AF92BF92CF92DF92EF92FF920F93FA
:100DB0001F93CF93DF93CDB7DEB72F970FB6F8947D
:100DC000DEBF0FBECDBF9F878E870E94A1106D83AF
:100DD0007E838F839887EE85FF8582A193A1A4A14E
:100DE000B5A14D815E816F817885481B590B6A0BD7
:100DF0007B0B86A597A5A0A9B1A9481759076A0733
:100E00007B0708F40EC1048CF58DE02D8081918163
:100E1000A281B38189839A83AB83BC83AE85BF856E
:100E20009096ED91FC91919729813A814B815C815B
:100E300060817181828193810E94702D4B015C01E0
:100E4000EE85FF8522A533A544A555A569817A8144
:100E50008B819C810E94702D6B017C01AE85BF85CA
:100E600050962D913D914D915C915397C501B401E0
:100E70000E94272CEE85FF8526A137A140A551A50C
:100E80000E94712D2B013C01AE85BF8596966D9316
:100E90007D938D939C939997DB96BC91B987B11103
:100EA00018C0EE85FF852485358546855785C701A1
:100EB000B6010E94272C9B01AC01C301B2010E9424
:100EC000702DAE85BF8596966D937D938D939C9383
:100ED0009997EE85FF8546A057A060A471A416A936
:100EE00007A930AC21AC212F302F432D522DC30147
:100EF000B2010E94852E18162CF4812F902FA32D5D
:100F0000B22D18C0AE85BF85D2968D919D910D9062
:100F1000BC91A02D8A879B87AC87BD879C01AD01C2
:100F2000C301B2010E94C12B87FF0AC08A859B853D
:100F3000AC85BD85EE85FF8586A397A3A0A7B1A745
:100F4000F985FF2379F0AE85BF851C962D913D91E3
:100F50004D915C911F97C501B4010E94272C4B0154
:100F60005C0103C0812C912C5401EE85FF852489FE
:100F7000358946895789C701B6010E94272C9B01F4
:100F8000AC01AE85BF8596966D917D918D919C91BA
:100F900099970E94702DA50194010E94712D6B01FB
:100FA0007C019B01AC01612F702F832D922D0E943B
:100FB000C12B87FD14C0EE85FF8512A903A934A8B3
:100FC00025A8212F302F432D522DB601C7010E9495
:100FD000C12B87FD04C01C2D0D2D3E2C2F2CAE8562
:100FE000BF855E96ED91FC915F97812F902FA32D89
:100FF000B22D80839183A283B38389819A81AB814F
:10100000BC81EE85FF8582A793A7A4A7B5A78D8194
:101010009E81AF81B88582A393A3A4A3B5A381E0E9
:1010200001C080E02F960FB6F894DEBF0FBECDBF93
:10103000DF91CF911F910F91FF90EF90DF90CF90B4
:10104000BF90AF909F908F907F906F905F904F90E8
:101050003F902F9008950E94A1106093F507709320
:10106000F6078093F7079093F80780E00895CF92F2
:10107000DF92EF92FF920F931F9361157105810527
:10108000910541F41F910F91FF90EF90DF90CF9069
:101090000C942B086B017C010E94A1100091F507B4
:1010A0001091F6072091F7073091F807DC01CB018A
:1010B000801B910BA20BB30B21E0C816D906EA06E0
:1010C000FB0608F020E0822F1F910F91FF90EF9018
:1010D000DF90CF9008958F929F92AF92BF92EF9240
:1010E000FF920F931F93CF93DF93C82FD0E08E0111
:1010F000000F111F0556184FF8012081318121156D
:10110000310521F021303105A1F16FC00E94F30EAD
:10111000009719F00197A1F16BC00E94A1109E01E8
:10112000220F331F220F331FA9014951594F7A0152
:10113000FA0180809180A280B380DC01CB01881904
:101140009909AA09BB090697A105B10508F450C081
:1011500081E090E0F80191838083C659DA4F88835B
:101160000E94A110F701608371838283938381E0E1
:1011700040C00E94F30E009719F0019771F038C03B
:101180000E94A110CC0FDD1FCC0FDD1FC951D94F1C
:10119000688379838A839B832BC00E94A1109E0160
:1011A000220F331F220F331FA9014951594F7A01D2
:1011B000FA0180809180A280B380DC01CB01881984
:1011C0009909AA09BB090697A105B10588F0F8019C
:1011D00011821082C659DA4F18820E94A110F701BD
:1011E000608371838283938303C0F801118210822C
:1011F00080E0DF91CF911F910F91FF90EF90BF9012
:10120000AF909F908F9008958F929F92AF92BF92D0
:10121000CF92DF92EF92FF9281E090E090934E099F
:1012200080934D096091FE0870E08CE390E00E948D
:10123000402D072E000C880B990B0E94C82B6B01C8
:101240007C018090030990900409A0900509B0905A
:101250000609A50194010E94272C60932D09709323
:101260002E0980932F0990933009A501940160E025
:1012700070E080E89FE30E94702DA70196010E9414
:10128000272C60933109709332098093330990932E
:1012900034090E94A1104B015C0120E030E04AE7D4
:1012A00054E460912D0970912E0980912F0990913D
:1012B00030090E94272C6B017C01C501B4010E94FA
:1012C000C62B9B01AC01C701B6010E94712D0E9483
:1012D000562E60934109709342098093430990937D
:1012E0004409609101097091020980E090E00E9438
:1012F000C62B23E63FEB4FE356E40E94DD2D20E0B2
:1013000030E04CEF51E40E94DD2D20E030E443E07A
:1013100056E40E94272C2BED3FE049EC50E40E945C
:10132000DD2D6B017C0120E030E0A9010E94852EBB
:1013300020E030E040E05FE387FD05C0C701B60173
:101340000E94712D04C0C701B6010E94702D0E9439
:101350004F2E6093290970932A0980932B0990934B
:101360002C09FF90EF90DF90CF90BF90AF909F90AF
:101370008F900895DC01ED91FD918081ED91FD91BB
:101380009081ED91FD916C9163708E2309F0646002
:101390009F2309F06860E7EDF9E0E60FF11D659520
:1013A00065956D936D917D918D919D91099423C06B
:1013B0001AC012C016C010C01EC009C014C013C08D
:1013C00006C019C009C00DC007C00DC014C06250CE
:1013D0007040804090400BC0615070408040904011
:1013E00006C06E5F01C06F5F7F4F8F4F9F4F9E9310
:1013F0008E937E936E9308958091BF089091C0085C
:101400000C94BA098091BD089091BE080C94BA0959
:101410008091BB089091BC080C94BA098091B908DE
:101420009091BA080C94BA098091B7089091B808C5
:101430000C94BA098091B5089091B6080C94BA0939
:10144000CF93DF93CDB7DEB72C970FB6F894DEBFFE
:101450000FBECDBF8091AB05882331F0813009F0FC
:1014600083C161E675E002C067E275E081E098E063
:101470000E9467066091AC05CE0107960E94EF0DB1
:1014800060E375E0CE0101960E94E504BE01695F4C
:101490007F4FCE0101960E94840D6EE275E00E949E
:1014A00094040E947B0DCE0101960E94760DCE0120
:1014B00007960E94760D6091AD05CE0107960E94B9
:1014C000EF0D64E375E0CE0101960E94E504BE01D4
:1014D000695F7F4FCE0101960E94840D6EE275E038
:1014E0000E9494040E947B0DCE0101960E94760D0D
:1014F000CE0107960E94760D6091AE05CE0107964B
:101500000E94EF0D68E375E0CE0101960E94E504AC
:10151000BE01695F7F4FCE0101960E94840D6EE28D
:1015200075E00E9494040E947B0DCE0101960E94FA
:10153000760DCE0107960E94760D6091AF05CE0123
:1015400007960E94EF0D6DE375E0CE0101960E94B3
:10155000E504BE01695F7F4FCE0101960E94840DB4
:101560006EE275E00E9494040E947B0DCE0101960C
:101570000E94760DCE0107960E94760D6091B0050F
:101580007091B105CE0107960E94970D62E475E057
:10159000CE0101960E94E504BE01695F7F4FCE0136
:1015A00001960E94840D6EE275E00E9494040E94F0
:1015B0007B0DCE0101960E94760DCE0107960E940A
:1015C000760D6091B2057091B305CE0107960E9429
:1015D000970D66E475E0CE0101960E94E504BE0118
:1015E000695F7F4FCE0101960E94840D6EE275E027
:1015F0000E9494040E947B0DCE0101960E94760DFC
:10160000CE0107960E94760D6091B4057091B505E4
:10161000CE0107960E94970D6AE475E0CE0101960F
:101620000E94E504BE01695F7F4FCE0101960E94D2
:10163000840D6EE275E00E9494040E947B0DCE0141
:1016400001960E94760DCE0107960E94760D60915C
:10165000B6057091B705CE0107960E94C30D6EE4E2
:1016600075E0CE0101960E94E504BE01695F7F4FDF
:10167000CE0101960E94840D6EE275E00E949404F2
:101680000E947B0DCE0101960E94760DCE01079639
:101690000E94760D6091B8057091B905CE0107964C
:1016A0000E94C30D62E575E0CE0101960E94E5043B
:1016B000BE01695F7F4FCE0101960E94840D6EE2EC
:1016C00075E00E9494040E947B0DCE0101960E9459
:1016D000760DCE0107960E94760D6091BA05709145
:1016E000BB05CE0107960E94C30D67E575E0CE01EC
:1016F00001960E94E504BE01695F7F4FCE0101960D
:101700000E94840D6EE275E00E9494040E947B0D9D
:10171000CE0101960E94760DCE0107960E94760DAD
:101720006091BC05062E000C770BCE0107960E9437
:10173000970D6CE575E0CE0101960E94E504BE01AF
:10174000695F7F4FCE0101960E94840D64E275E0CF
:101750000E9494040E947B0DCE0101960E94760D9A
:10176000CE0107960E94760D2C960FB6F894DEBF38
:101770000FBECDBFDF91CF910895DC01ED91FC91BB
:101780000684F785E02D40E0199461E08EE998E049
:101790000E94BD0B8BE39FE10197F1F708958F92B3
:1017A0009F92AF92BF92CF92DF92EF92FF920F93F0
:1017B0001F93CF93DF93EC01423018F08C81886047
:1017C0008C834F836887222329F0413019F48C8160
:1017D00084608C830E947C106B017C0184E6882EDF
:1017E000912CA12CB12C0E947C10DC01CB018C1916
:1017F0009D09AE09BF09883E9340A105B10598F344
:1018000021E0821A9108A108B10888EEC80E83E091
:10181000D81EE11CF11C81149104A104B10419F734
:101820006C8164FD31C0E881F9810684F785E02D83
:1018300042E063E0CE0119958BE496E40197F1F75D
:10184000E881F9810684F785E02D42E063E0CE016E
:10185000199503E512E0C8010197F1F7E881F981D4
:101860000684F785E02D42E063E0CE011995C801BA
:101870000197F1F7E881F9810684F785E02D42E0D0
:1018800062E0CE01199517C06062CE010E94BD0BC7
:101890008BE496E40197F1F76C816062CE010E94BF
:1018A000BD0B03E512E0C8010197F1F76C8160629E
:1018B000CE010E94BD0BC8010197F1F76C816062F7
:1018C000CE010E94BD0B8BEE90E00197F1F784E012
:1018D0008D836CE0CE010E94BD0B61E0CE010E94C1
:1018E000BD0B8BE39FE10197F1F782E08E8366E009
:1018F000CE010E94BD0BE881F9810484F585E02DBD
:101900006FEFCE01DF91CF911F910F91FF90EF907C
:10191000DF90CF90BF90AF909F908F9019940E94CE
:101920004E0D20E042E060E18EE998E00E94CF0B8E
:1019300062E08EE998E00E94BD0B8BE39FE1019786
:10194000F1F70E94C50B60E273E080E00E941C0E7C
:1019500061E373E081E00E941C0E1092BE051092BC
:10196000BD0562E086E00E944B0F62E083E00E94CA
:101970004B0F62E082E00E944B0F62E085E00E9424
:101980004B0F62E084E00E944B0F0E942B08E7E9B6
:10199000F5E082E0818324EF31E0358724872EE073
:1019A00030E03787268724E030E0318B208B9EE0C3
:1019B000938382838EE190E0918780878CEF828B86
:1019C00084E190E097838683089590E0FC0131974D
:1019D000E231F10508F04EC08827EA56FF4F8F4FDD
:1019E0000C94542D809180008F7703C080918000EB
:1019F0008F7D80938000089580918000877FF9CF4C
:101A000084B58F7702C084B58F7D84BD08958091A1
:101A1000B0008F7703C08091B0008F7D8093B000BD
:101A20000895809190008F7707C0809190008F7DFE
:101A300003C080919000877F8093900008958091EB
:101A4000A0008F7707C08091A0008F7D03C0809198
:101A5000A000877F8093A0000895809120018F7758
:101A600007C0809120018F7D03C080912001877F76
:101A7000809320010895CF93DF93BC0181E098E02B
:101A80000E945206EC016CE672E081E098E00E9450
:101A900052068C0F9D1FDF91CF910895E1E0F8E091
:101AA000A089B18982E08C93A485B5851C92A68516
:101AB000B7858FEC8C93108EA489B58986E08C93C2
:101AC000A289B3898C9180618C93A289B3898C910E
:101AD00088608C93A289B3898C9180688C930288EA
:101AE000F389E02D80818F7D80830895FC018081C2
:101AF00091810C94222FFC01448155816081718178
:101B000081E098E00C942F02CF93DF93EC01FB016E
:101B100044815581608171810E945404811103C008
:101B2000CE010E948204CE01DF91CF9108950F93E0
:101B30001F93CF93DF93CDB7DEB762970FB6F894BC
:101B4000DEBF0FBECDBF8C01CB01F8011182108228
:101B500013821282158214824AE0BE016F5F7F4FAA
:101B60000E948C2BBE016F5F7F4FC8010E94CE0484
:101B700062960FB6F894DEBF0FBECDBFDF91CF9156
:101B80001F910F9108950F931F93CF93DF93CDB7BC
:101B9000DEB761970FB6F894DEBF0FBECDBF8C01E4
:101BA000CB01F801118210821382128215821482F5
:101BB0004AE0BE016F5F7F4F0E94972BBE016F5FAF
:101BC0007F4FC8010E94CE0461960FB6F894DEBF25
:101BD0000FBECDBFDF91CF911F910F9108950F934D
:101BE0001F93CF93DF93CDB7DEB729970FB6F89445
:101BF000DEBF0FBECDBF8C01862FF801118210828F
:101C000013821282158214824AE0BE016F5F7F4FF9
:101C100090E00E94972BBE016F5F7F4FC8010E942A
:101C2000CE0429960FB6F894DEBF0FBECDBFDF916C
:101C3000CF911F910F9108950F931F93CF93DF932F
:101C4000CDB7DEB728970FB6F894DEBF0FBECDBF75
:101C50008B01409116025091170260911802709109
:101C600019024D835E836F83788740911A025091E9
:101C70001B0260911C0270911D0249835A836B8381
:101C80007C832091A508821710F08FEF820F30918E
:101C9000A60890E0FE01E80FF91F303121F424304E
:101CA00011F4618101C0658160688EE998E00E944D
:101CB000BD0BB8018EE998E028960FB6F894DEBF08
:101CC0000FBECDBFDF91CF911F910F910C9467068E
:101CD0008F929F92AF92BF920F931F93CF93DF93F8
:101CE000CDB7DEB7A1970FB6F894DEBF0FBECDBF5C
:101CF00019A2423008F44AE08E010F5D1F4F842E76
:101D0000912CA12CB12CA50194010E940F2DE62F3E
:101D1000B901CA0101501109EA3014F4E05D01C0B3
:101D2000E95CD801EC93232B242B252B61F7B80118
:101D300081E098E00E945206A1960FB6F894DEBFAB
:101D40000FBECDBFDF91CF911F910F91BF90AF908C
:101D50009F908F900895CF92DF92EF92FF92CF9352
:101D6000DF936C01990FEE08FF08F7FE13C06DE2D8
:101D700081E098E00E94C202EC0166277727CB0140
:101D80006C197D098E099F094AE00E94680EC80FF0
:101D9000D91F06C04AE0C701B6010E94680EEC01D7
:101DA0006CE672E081E098E00E9452068C0F9D1F65
:101DB000DF91CF91FF90EF90DF90CF900895CF9378
:101DC000DF93BC0180E090E04AE00E94680EEC01E5
:101DD0006CE672E081E098E00E9452068C0F9D1F35
:101DE000DF91CF910895CF93DF93282F30E0F90151
:101DF000E85FFC4F8491F901E25BFC4FD491F9015B
:101E0000E255FC4FC491CC2391F081110E94E50C66
:101E1000EC2FF0E0EE0FFF1FEC56FC4FA591B491B4
:101E2000EC91ED2381E090E021F480E002C080E0BD
:101E300090E0DF91CF9108951F93CF93DF93282FE8
:101E400030E0F901E85FFC4F8491F901E25BFC4F5F
:101E5000D491F901E255FC4FC491CC23C1F0162F67
:101E600081110E94E50CEC2FF0E0EE0FFF1FE25114
:101E7000FD4FA591B4919FB7F894111104C08C91B6
:101E8000D095D82302C0EC91DE2BDC939FBFDF916D
:101E9000CF911F910895CF93DF9390E0FC01E25B17
:101EA000FC4F2491FC01E255FC4F8491882361F1A1
:101EB00090E0880F991FFC01EC52FD4FC591D49121
:101EC000FC01E251FD4FA591B491611109C09FB78A
:101ED000F8948881209582238883EC912E230BC06F
:101EE000623061F49FB7F8948881322F3095832354
:101EF0008883EC912E2B2C939FBF06C08FB7F8944C
:101F0000E8812E2B28838FBFDF91CF910895CF9248
:101F1000DF92EF92FF92CF93DF936B017C0120E081
:101F200030E0A9010E94C12B87FF06C0F7FAF094A8
:101F3000F7F8F09460E001C061E084E00E941C0FBB
:101F400028EA36EC4FE051E4C701B6010E94DD2DCE
:101F500020E030E04FE753E40E94272C0E944F2EF0
:101F60006B017C01EB0161E085E00E944B0F209743
:101F700011F460E004C0CF3FD10551F461E085E089
:101F8000DF91CF91FF90EF90DF90CF900C941C0FDA
:101F9000EDE0F3E0E4918E2F90E0FC013197E23127
:101FA000F10508F09DC08827E855FF4F8F4F0C942E
:101FB000542D84B5806884BDC7BC97C084B5806249
:101FC00084BDC8BC92C080918000806880938000EE
:101FD000D0928900C092880088C080918000806281
:101FE00080938000D0928B00C0928A007EC0809146
:101FF0008000886080938000D0928D00C0928C0019
:1020000074C08091B00080688093B000C092B3002B
:102010006CC08091B00080628093B000C092B40028
:1020200064C080919000806880939000D092990065
:10203000C09298005AC08091900080628093900076
:10204000D0929B00C0929A0050C08091900088600E
:1020500080939000D0929D00C0929C0046C08091D9
:10206000A00080688093A0008091A0008F7B809367
:10207000A000D092A900C092A80037C08091A00013
:1020800080628093A000D092AB00C092AA002DC0C5
:102090008091A00088608093A000D092AD00C09293
:1020A000AC0023C080912001806880932001D092F1
:1020B0002901C092280119C080912001806280937B
:1020C0002001D0922B01C0922A010FC080912001E3
:1020D000886080932001D0922D01C0922C0105C010
:1020E000C038D1050CF04ACF44CFDF91CF91FF909B
:1020F000EF90DF90CF9008953FB7F8948091FD075F
:102100009091FE07A091FF07B091000826B5A89B0B
:1021100005C02F3F19F00196A11DB11D3FBFBA2F79
:10212000A92F982F8827820F911DA11DB11DBC01D9
:10213000CD0142E0660F771F881F991F4A95D1F79E
:1021400008952FB7F8946091F9077091FA0780917C
:10215000FB079091FC072FBF0895AF92BF92CF92DB
:10216000DF92EF92FF920F931F93CF93DF938C0137
:102170005C018EE0A80EB11CC42ED12CC0E0D0E0D2
:10218000E62EF12CCC15DD0579F0B7010C2E02C03E
:10219000759567950A94E2F76170F50181915F0189
:1021A0000E941C0F2196EECF61E0F80185850E9408
:1021B0001C0F60E0F8018585DF91CF911F910F9191
:1021C000FF90EF90DF90CF90BF90AF900C941C0FDA
:1021D0001F920F920FB60F9211242F933F938F935C
:1021E0009F93AF93BF938091F9079091FA07A091C5
:1021F000FB07B091FC073091970923E0230F2D379F
:1022000020F40196A11DB11D05C026E8230F0296FA
:10221000A11DB11D209397098093F9079093FA07A8
:10222000A093FB07B093FC078091FD079091FE07F8
:10223000A091FF07B09100080196A11DB11D8093E8
:10224000FD079093FE07A093FF07B0930008BF918E
:10225000AF919F918F913F912F910F900FBE0F9053
:102260001F901895CF93DF93CDB7DEB7C454D10933
:102270000FB6F894DEBF0FBECDBF789484B58260F0
:1022800084BD84B5816084BD85B5826085BD85B51A
:10229000816085BD80916E00816080936E00109298
:1022A0008100809181008260809381008091810013
:1022B00081608093810080918000816080938000A4
:1022C0008091B10084608093B1008091B000816002
:1022D0008093B00080919100826080939100809102
:1022E0009100816080939100809190008160809343
:1022F00090008091A10082608093A1008091A10054
:1023000081608093A1008091A00081608093A000F3
:10231000809121018260809321018091210181605F
:102320008093210180912001816080932001809120
:102330007A00846080937A0080917A008260809332
:102340007A0080917A00816080937A0080917A008F
:10235000806880937A001092C1000E948F0C1092C6
:10236000DC061092DB061092FE0810920009109213
:10237000FF081092030910920409109205091092A7
:102380000609109207091092090910920A09109281
:102390000B0910920C0910920D0910920E0910925F
:1023A0000F0910921009109211091092120910923F
:1023B000130910921409109215091092160910921F
:1023C0001709109218091092190910921A091092FF
:1023D0001B0910921C0910921D0910921E091092DF
:1023E0001F091092200910922109109222091092BF
:1023F000230910922409109225091092260910929F
:102400002709109228091092290910922A0910927E
:102410002B0910922C0910922D0910922E0910925E
:102420002F0910923009109231091092320910923E
:10243000330910923409109235091092360910921E
:102440003709109238091092390910923A091092FE
:102450003B0910923C0910923D0910923E091092DE
:102460003F091092400910924109109242091092BE
:10247000430910924409109245091092460910929E
:102480004709109248091092490910924A0910927E
:102490004B0910924C0910924E0910924D090E945E
:1024A0004E0D81E08093C4051092BF0584E690E054
:1024B000A0E0B0E08093C0059093C105A093C20551
:1024C000B093C30564E472E0CE0101960E94E50476
:1024D00068E472E0CE0141960E94E50467E672E08E
:1024E000CE0181960E94E50460E070E0CE018796FF
:1024F0000E94970D61E070E0CE018D960E94970DCD
:1025000064E572E0CE01C3960E94E5046DE572E0D9
:10251000CE01CF960E94E5041AAE19AE1CAE1BAEDA
:102520001EAE1DAE21966EAD7FAD21976115710572
:1025300041F025964EAD5FAD2597CE01C9960E941C
:10254000AD04BE016D5C7F4FCE01C9960E94840D23
:10255000BE01635D7F4F0E94840D6AE672E00E94B7
:102560009404BE01695D7F4F0E94840DBE016F5DC2
:102570007F4F0E94840DBE016F5E7F4F0E94840DCD
:10258000BE016F5F7F4F0E94840D0E947B0D6CE641
:1025900072E081E098E00E945206CE01C9960E9446
:1025A000760DCE01CF960E94760DCE01C3960E9485
:1025B000760DCE018D960E94760DCE0187960E94F3
:1025C000760DCE0181960E94760DCE0141960E9435
:1025D000760DCE0101960E94760D61E08DE00E949D
:1025E0004B0F01E010E0A2E0EA2EF12CB5E0CB2E7B
:1025F000D12C8AE0282E312CA090B906B090BA06D2
:1026000022E0A216B10419F148F4A114B10499F022
:1026100041E0A416B10409F480C0E5C254E0A51657
:10262000B10409F4F7C108F4F7C095E0A916B104A4
:1026300009F4BCC2D8C210924E0910924D09F09212
:10264000BA06E092B9068FE692E00E943B0D8FE752
:1026500092E00E943B0D80914D0990914E090297A6
:1026600071F5E3E0F0E0F0934E09E0934D090E942C
:10267000A1102B013C0120E030E04AE754E46091D6
:1026800031097091320980913309909134090E9487
:10269000272C4B015C01C301B2010E94C62B9B0198
:1026A000AC01C501B4010E94712D0E94562E6093A9
:1026B0004509709346098093470990934809809192
:1026C000FD08882369F08091250990912609A09141
:1026D0002709B0912809181619061A061B062CF4AA
:1026E00067EA7AE086EE90EC77C260E070E0CB01BA
:1026F0000E94870F80914D0990914E09892B41F4DA
:102700001092250910922609109227091092280983
:102710001093BA060093B90666C285E992E00E945A
:102720003B0D9090AA059920C1F18091AD05809351
:10273000FE088091B6059091B705909302098093A9
:1027400001096091AC0570E06F5F7F4FC5010E9489
:10275000402D072E000C880B990B0E94C82B60930C
:102760000309709304098093050990930609609109
:10277000B0057091B105072E000C880B990B0E94D3
:10278000C82B6093150970931609809317099093CD
:1027900018098091AB058093070980914D099091AC
:1027A0004E0983309105E9F424E030E030934E097E
:1027B00020934D090E94A1108090450990904609F0
:1027C000A0904709B0904809681579058A059B05CE
:1027D00010F00C9423298091080981110C9423296D
:1027E00002C2892B09F0FFC1992009F4FCC1809134
:1027F0000709811107C043E050E05093BA064093A7
:10280000B906F1C1813009F083CF84E090E0909364
:10281000BA068093B906E7C181EA92E00E943B0DB7
:1028200080914D0990914E09049711F40E9404097A
:102830004091250950912609609127097091280936
:102840008091290990912A09A0912B09B0912C0916
:10285000481759076A077B070CF0A2C00E94A11015
:102860006093390970933A0980933B0990933C092E
:1028700080903D0990903E09A0903F09B09040099A
:102880009B01AC01281939094A095B0949015A0120
:10289000209335093093360940933709509338090E
:1028A00060933D0970933E0980933F0990934009DE
:1028B00080919609823030F4F8948BE899E00E9478
:1028C000BA0901C0F8948091920990919309A0915E
:1028D0009409B091950978948093210990932209E5
:1028E000A0932309B0932409F894109292091092AE
:1028F0009309109294091092950978946091210996
:102900007091220980912309909124094090250912
:10291000509026096090270970902809460E571E8E
:10292000681E791E40922509509226096092270957
:10293000709228090E94C82B9B01AC010E94712D46
:102940002BED3FE049E450E40E94272C2B013C0191
:10295000A0EDB0E2A50194010E94042D28EE33E021
:1029600040E050E00E94E52CCA01B9010E94C82B4A
:102970009B01AC01C301B2010E94DD2D60930D09E2
:1029800070930E0980930F09909310098091890923
:10299000882309F4C9C08FE499E00E94C906C4C025
:1029A00060E070E0CB010E94870F8091290990912F
:1029B0002A09A0912B09B0912C09BC01CD01660F09
:1029C000771F881F991F0E94C82B2BED3FE049E419
:1029D00050E40E94272C20E030E443E056E40E94BB
:1029E000DD2D20E030E04CEF51E40E94272C23E65F
:1029F0003FEB4FE356E40E94272C6093B50670939B
:102A0000B6068093B7069093B806D092BA06C092E5
:102A1000B906C7C087EB92E00E943B0D80914D093B
:102A200090914E09049711F40E9404090E94A1108C
:102A30008090410990904209A0904309B0904409C8
:102A4000681579058A059B0508F077C01092190969
:102A500010921A0910921B0910921C098091FB0810
:102A6000882321F081EC98E00E94C90620911D097D
:102A700030911E0940911F0950912009609115095C
:102A80007091160980911709909118090E94702D74
:102A90004B015C0120E030E0A9010E94852E181650
:102AA0001CF4C501B40103C0C501B40190580E94D3
:102AB0004F2EE3E0660F771F881F991FEA95D1F725
:102AC00023E230E040E050E00E94E52CCA01B90169
:102AD0000E94C82B2B013C0120E030E0A901C50178
:102AE000B4010E94852EA301920187FD0BC0609165
:102AF00011097091120980911309909114090E9493
:102B0000712D0AC060911109709112098091130909
:102B1000909114090E94702D60931109709312090D
:102B2000809313099093140960911109709112090F
:102B300080911309909114094FC0809129099091B7
:102B40002A09A0912B09B0912C09BC01CD01660F77
:102B5000771F881F991F0E94C82B2BED3FE049E487
:102B600050E40E94272C20E030E443E056E40E9429
:102B7000DD2D20E030E04CEF51E40E94272C23E6CD
:102B80003FEB4FE356E40E94272C6093B506709309
:102B9000B6068093B7069093B806F092BA06E09214
:102BA000B906F0924E09E0924D091DC08FEC92E0FB
:102BB0000E943B0D0E94A110809041099090420913
:102BC000A0904309B0904409681579058A059B05D2
:102BD00030F460E070E0CB010E94870F04C0F092F7
:102BE000BA06E092B9068091DB069091DC0681304E
:102BF000910549F188F0029709F09AC01092DC061D
:102C00001092DB061092D5061092D406EFEBF6E098
:102C1000DF0180E090E04AC00E94A1108090BB06D6
:102C20009090BC06A090BD06B090BE06DC01CB0122
:102C300088199909AA09BB09C397A105B10508F428
:102C400077C00C946729F092DC06E092DB06809155
:102C50007B00877F80937B0080E480937C00809161
:102C60007A00806480937A0080917A0086FDFCCFA0
:102C7000209178008091790030E0382BA090D30625
:102C8000B12CC501880F991FAC014154594F5A010D
:102C9000A4E6B0E00E94312D2FEF33E040E050E099
:102CA0000E94E52CF5013183208342C02D913D9196
:102CB000820F931F26E0A33DB207C1F7B1010E9426
:102CC000402D7093D5066093D4068091D30690E092
:102CD000DC01AA0FBB1FA154B94F4D915C9120910B
:102CE000D6063091D706241735070CF49A01309395
:102CF000D7062093D60621913191261B370B37FF3B
:102D000003C03195219531092B3031055CF436E053
:102D1000E33DF30781F721E02093D8067093DA06AC
:102D20006093D9060196B1010E94402D8093D3068D
:102D3000198A1982E091BD05F091BE05E432F105D2
:102D400010F00C94CB278827EE58FF4F8F4F0C9430
:102D5000542D82E00E946B08882311F40C94CF2735
:102D60000E94C50B6CED72E080E00E941C0E6DEEBF
:102D700072E081E00E941C0E1093BE050093BD0519
:102D80000E942B080C94CF2786E00E946B088823B2
:102D900069F06EEF72E081E00E941C0E43E050E0AB
:102DA0005093BE054093BD050C94CF2783E00E944D
:102DB0006B08882359F06FE073E081E00E941C0EDD
:102DC000F092BE05E092BD050C94CF2785E00E94ED
:102DD0006B08882369F082E08093AB0581E290E084
:102DE0009093BE058093BD050E942B080C94CF27BD
:102DF00084E00E946B08882381F060E273E080E049
:102E00000E941C0E61E373E081E00E941C0E109290
:102E1000BE051092BD050C94CF2764EF71E080E0F1
:102E200090E00E943708882311F40C94CF2784E0A7
:102E300090E09093BE058093BD0565EC74E081E061
:102E40000E941C0E0E942B080C94CF2786E00E9443
:102E50006B0881119ECF83E00E946B088111ABCF7C
:102E600085E00E946B088111B6CF84E00E946B0858
:102E70008111C3CF6AEF70E080E090E00E943708D4
:102E8000882311F40C94CF276DEE72E081E00E944C
:102E90001C0E1093BE050093BD050E942B080C94D8
:102EA000CF2786E00E946B08882359F06DEE72E010
:102EB00081E00E941C0E1093BE050093BD050C948A
:102EC000CF2783E00E946B08811163CF85E00E94C9
:102ED0006B08882389F06FE073E081E00E941C0E8C
:102EE0001092AB0587E090E09093BE058093BD05FE
:102EF0000E942B080C94CF2784E00E946B0881115C
:102F00007CCF64EF71E080E090E00E943708882376
:102F100011F40C94CF27D092BE05C092BD0565EC8C
:102F200074E081E00E941C0E0E942B080C94CF27B5
:102F300086E00E946B088111B9CF83E00E946B0884
:102F4000811127CF85E00E946B088111C4CF84E0F6
:102F50000E946B08811151CF6AEF70E080E090E031
:102F60000E943708882311F40C94CF27F092BE05F5
:102F7000E092BD056FE073E081E00E941C0E0E94AC
:102F80002B080C94CF2786E00E946B08811113CF89
:102F900083E00E946B08811189CF85E00E946B0855
:102FA000882391F06EEF72E081E00E941C0E81E0B8
:102FB0008093AB0587E090E09093BE058093BD05BC
:102FC0000E942B080C94CF2784E00E946B0881118B
:102FD00014CF64EF71E080E090E00E94370888230E
:102FE00011F40C94CF2786E090E09093BE05809377
:102FF000BD0565EC74E081E00E941C0E0E942B0868
:103000000C94CF2786E00E946B088111D4CE83E018
:103010000E946B0881114ACF85E00E946B088111E4
:10302000C1CF84E00E946B088111E7CE6AEF70E0A7
:1030300080E090E00E943708882311F40C94CF2799
:10304000E3E0F0E0F093BE05E093BD056EEF72E0C3
:1030500081E00E941C0E0E942B080C94CF2764EF85
:1030600071E080E090E00E943708882311F40C940E
:10307000CF278091AB05813039F50E94C50B62E402
:1030800073E080E00E941C0E4AE0BE016F5E7F4F3D
:1030900080919D0590919E050E948C2B63E573E0C5
:1030A000CE0141960E949E30BE016F5E7F4F81E04F
:1030B0000E941C0E8BE090E09093BE058093BD05AE
:1030C0000E942B080C94CF2781110C94CF270E94CB
:1030D000C50B6AE573E080E00E941C0E4AE0BE0169
:1030E0006F5E7F4F8091A3059091A4050E948C2B69
:1030F0006BE673E0CE0141960E949E30BE016F5E8A
:103100007F4F81E00E941C0E88E090E09093BE0506
:103110008093BD050E942B080C94CF2786E00E9467
:103120006B08882339F180919D0590919E05883226
:10313000910514F4019602C088E290E090939E05F8
:1031400080939D054AE0BE016F5E7F4F80919D0593
:1031500090919E050E948C2B63E573E0CE01419611
:103160000E949E30BE016F5E7F4F81E00E941C0E68
:103170000C94CF2783E00E946B08882349F180914B
:103180009D0590919E058630910534F001979093AE
:103190009E0580939D0504C010939E0500939D0598
:1031A0004AE0BE016F5E7F4F80919D0590919E0524
:1031B0000E948C2B63E573E0CE0141960E949E3005
:1031C000BE016F5E7F4F81E00E941C0E0C94CF27E2
:1031D00085E00E946B08882341F14AE0BE016F5EE2
:1031E0007F4F80919D0590919E050E948C2B63E5F9
:1031F00073E0CE0141960E949E30BE016F5E7F4F0C
:1032000081E00E941C0E80919D0590919E059093F7
:10321000B1058093B0058DE090E09093BE0580935A
:10322000BD050E942B080C94CF2784E00E946B08F8
:10323000811196CD64EF71E080E090E00E94370844
:10324000882311F40C94CF278CE090E09093BE0576
:103250008093BD0565EC74E081E00E941C0E0E9425
:103260002B080C94CF2786E00E946B08882341F13D
:1032700080919D0590919E05883291053CF42091A6
:10328000A3053091A4052F5F3F4F02C028E230E034
:103290003093A4052093A3054AE0BE016F5E7F4FE3
:1032A0000E948C2B63E573E0CE0141960E949E3014
:1032B000BE016F5E7F4F81E00E941C0E0C94CF27F1
:1032C00083E00E946B08882349F18091A3059091C7
:1032D000A4058630910530F001979093A405809362
:1032E000A30504C0D092A405C092A3054AE0BE0184
:1032F0006F5E7F4F80919D0590919E050E948C2B63
:1033000063E573E0CE0141960E949E30BE016F5E80
:103310007F4F81E00E941C0E0C94CF2785E00E9415
:103320006B08882341F14AE0BE016F5E7F4F8091B8
:103330009D0590919E050E948C2B63E573E0CE0164
:1033400041960E949E30BE016F5E7F4F81E00E94D9
:103350001C0E80919D0590919E059093B1058093E0
:10336000B0058DE090E09093BE058093BD050E946E
:103370002B080C94CF2784E00E946B088111F0CCBD
:103380006AEF70E080E090E00E943708882311F433
:103390000C94CF274AE0BE016F5E7F4F80919D0560
:1033A00090919E050E948C2B63E573E0CE014196BF
:1033B0000E949E30BE016F5E7F4F81E00E941C0E16
:1033C0008BE090E09093BE058093BD050E942B0892
:1033D0000C94CF2764EF71E080E090E00E94370802
:1033E000882311F40C94CF270E94C50B6EE673E07E
:1033F00080E00E941C0E4AE0BE016F5E7F4F80910C
:10340000A5059091A6050E948C2B6FE773E0CE0175
:1034100041960E949E30BE016F5E7F4F81E00E9408
:103420001C0E8EE090E09093BE058093BD050E9437
:103430002B080C94CF2786E00E946B08882341F16B
:103440008091A3059091A4058032F3E09F0710F4CA
:10345000C29602C080E293E09093A4058093A305F6
:103460004AE0BE016F5E7F4F8091A3059091A40555
:103470000E948C2B6BE673E0CE0141960E949E3039
:10348000BE016F5E7F4F81E00E941C0E0C94CF271F
:1034900083E00E946B08882341F18091A3059091FD
:1034A000A4058D3221E0920710F0C29702C08CE291
:1034B00091E09093A4058093A3054AE0BE016F5E5E
:1034C0007F4F8091A3059091A4050E948C2B6BE601
:1034D00073E0CE0141960E949E30BE016F5E7F4F29
:1034E00081E00E941C0E0C94CF2785E00E946B089F
:1034F000882331F14AE0BE016F5E7F4F8091A305C2
:103500009091A4050E948C2B6BE673E0CE0141964E
:103510000E949E30BE016F5E7F4F81E00E941C0EB4
:103520008091A3059091A4059093B7058093B6056B
:103530003092BE052092BD050E942B080C94CF2727
:1035400084E00E946B0881110BCC64EF71E080E095
:1035500090E00E943708882311F40C94CF2789E06B
:1035600090E09093BE058093BD0565EC74E081E02A
:103570000E941C0E0E942B080C94CF2786E00E940C
:103580006B08882341F18091A3059091A4058032B6
:1035900033E0930710F4C29602C080E293E0909368
:1035A000A4058093A3054AE0BE016F5E7F4F809122
:1035B000A3059091A4050E948C2B6BE673E0CE01CD
:1035C00041960E949E30BE016F5E7F4F81E00E9457
:1035D0001C0E0C94CF2783E00E946B08882341F1D6
:1035E0008091A3059091A4058D3241E0940710F0DD
:1035F000C29702C08CE291E09093A4058093A3054A
:103600004AE0BE016F5E7F4F8091A3059091A405B3
:103610000E948C2B6BE673E0CE0141960E949E3097
:10362000BE016F5E7F4F81E00E941C0E0C94CF277D
:1036300085E00E946B08882331F14AE0BE016F5E8D
:103640007F4F8091A3059091A4050E948C2B6BE67F
:1036500073E0CE0141960E949E30BE016F5E7F4FA7
:1036600081E00E941C0E8091A3059091A405909387
:10367000B7058093B6053092BE052092BD050E9425
:103680002B080C94CF2784E00E946B08811168CB33
:103690006AEF70E080E090E00E943708882311F420
:1036A0000C94CF274AE0BE016F5E7F4F8091A30547
:1036B0009091A4050E948C2B6BE673E0CE0141969D
:1036C0000E949E30BE016F5E7F4F81E00E941C0E03
:1036D00088E090E09093BE058093BD050E942B0882
:1036E0000C94CF2764EF71E080E090E00E943708EF
:1036F000882311F40C94CF270E94C50B6EE673E06B
:1037000080E00E941C0E4AE0BE016F5E7F4F8091F8
:10371000A5059091A6050E948C2B6FE773E0CE0162
:1037200041960E949E30BE016F5E7F4F81E00E94F5
:103730001C0E8EE090E09093BE058093BD050E9424
:103740002B080C94CF2786E00E946B08882339F160
:103750008091A5059091A6058431910510F40196FC
:1037600002C084E190E09093A6058093A5054AE00D
:10377000BE016F5E7F4F8091A5059091A6050E94C6
:103780008C2B6FE773E0CE0141960E949E30BE0104
:103790006F5E7F4F81E00E941C0E0C94CF2783E068
:1037A0000E946B08882339F18091A5059091A605A8
:1037B0008D30910510F0019702C08CE090E090935D
:1037C000A6058093A5054AE0BE016F5E7F4F8091FC
:1037D000A5059091A6050E948C2B6FE773E0CE01A2
:1037E00041960E949E30BE016F5E7F4F81E00E9435
:1037F0001C0E0C94CF2785E00E946B08882341F1B2
:103800004AE0BE016F5E7F4F8091A5059091A605AD
:103810000E948C2B6FE773E0CE0141960E949E3090
:10382000BE016F5E7F4F81E00E941C0E8091A50556
:103830009091A6059093B9058093B80580E190E03A
:103840009093BE058093BD050E942B080C94CF2752
:1038500084E00E946B08882339F10E94C50B6AE559
:1038600073E080E00E941C0E4AE0BE016F5E7F4F55
:103870008091A3059091A4050E948C2B6BE673E0C8
:10388000CE0141960E949E30BE016F5E7F4F81E067
:103890000E941C0E88E090E09093BE058093BD05C9
:1038A0000E942B080C94CF2764EF71E080E090E039
:1038B0000E943708882311F40C94CF278FE090E002
:1038C0009093BE058093BD0565EC74E081E00E9495
:1038D0001C0E0E942B080C94CF2786E00E946B08D8
:1038E000882339F18091A5059091A6058431910531
:1038F00010F4019602C084E190E09093A6058093B5
:10390000A5054AE0BE016F5E7F4F8091A5059091AD
:10391000A6050E948C2B6FE773E0CE0141960E94B2
:103920009E30BE016F5E7F4F81E00E941C0E0C94A2
:10393000CF2783E00E946B08882339F18091A50589
:103940009091A6058D30910510F0019702C08CE092
:1039500090E09093A6058093A5054AE0BE016F5EB6
:103960007F4F8091A5059091A6050E948C2B6FE753
:1039700073E0CE0141960E949E30BE016F5E7F4F84
:1039800081E00E941C0E0C94CF2785E00E946B08FA
:10399000882341F14AE0BE016F5E7F4F8091A5050B
:1039A0009091A6050E948C2B6FE773E0CE014196A3
:1039B0000E949E30BE016F5E7F4F81E00E941C0E10
:1039C0008091A5059091A6059093B9058093B805BF
:1039D00080E190E09093BE058093BD050E942B0886
:1039E0000C94CF2784E00E946B08882339F10E9451
:1039F000C50B6AE573E080E00E941C0E4AE0BE0140
:103A00006F5E7F4F8091A3059091A4050E948C2B3F
:103A10006BE673E0CE0141960E949E30BE016F5E60
:103A20007F4F81E00E941C0E88E090E09093BE05DD
:103A30008093BD050E942B080C94CF2764EF71E0A2
:103A400080E090E00E943708882311F40C94CF277F
:103A50004AE0BE016F5E7F4F8091A5059091A6055B
:103A60000E948C2B6FE773E0CE0141960E949E303E
:103A7000BE016F5E7F4F81E00E941C0E8EE090E0E1
:103A80009093BE058093BD050E942B080C94CF2710
:103A900064EF71E080E090E00E943708882311F421
:103AA0000C94CF270E94C50B63E873E080E00E946E
:103AB0001C0E4AE0BE016F5E7F4F8091A50590917C
:103AC000A6050E948C2B6FE773E0CE0141960E9401
:103AD0009E30BE016F5E7F4F81E00E941C0E81E12F
:103AE00090E09093BE058093BD050E942B080C9436
:103AF000CF2786E00E946B08882349F18091A505B5
:103B00009091A6058530910530F401969093A60515
:103B10008093A50504C0D092A605C092A5054AE0F1
:103B2000BE016F5E7F4F8091A5059091A6050E9412
:103B30008C2B6FE773E0CE0141960E949E30BE0150
:103B40006F5E7F4F81E00E941C0E0C94CF2783E0B4
:103B50000E946B08882349F18091A5059091A605E4
:103B60008230910530F001979093A6058093A505CA
:103B700004C01093A6050093A5054AE0BE016F5E40
:103B80007F4F8091A5059091A6050E948C2B6FE731
:103B900073E0CE0141960E949E30BE016F5E7F4F62
:103BA00081E00E941C0E0C94CF2785E00E946B08D8
:103BB000882341F14AE0BE016F5E7F4F8091A505E9
:103BC0009091A6050E948C2B6FE773E0CE01419681
:103BD0000E949E30BE016F5E7F4F81E00E941C0EEE
:103BE0008091A5059091A6059093B9058093B8059D
:103BF00083E190E09093BE058093BD050E942B0861
:103C00000C94CF2784E00E946B08882339F10E942E
:103C1000C50B6EE673E080E00E941C0E4AE0BE0118
:103C20006F5E7F4F8091A5059091A6050E948C2B19
:103C30006FE773E0CE0141960E949E30BE016F5E39
:103C40007F4F81E00E941C0E8EE090E09093BE05B5
:103C50008093BD050E942B080C94CF2764EF71E080
:103C600080E090E00E943708882311F40C94CF275D
:103C700082E190E09093BE058093BD0565EC74E011
:103C800081E00E941C0E0E942B080C94CF2786E036
:103C90000E946B08882349F18091A5059091A605A3
:103CA0008530910530F401969093A6058093A50583
:103CB00004C0D092A605C092A5054AE0BE016F5E81
:103CC0007F4F8091A5059091A6050E948C2B6FE7F0
:103CD00073E0CE0141960E949E30BE016F5E7F4F21
:103CE00081E00E941C0E0C94CF2783E00E946B0899
:103CF000882349F18091A5059091A6058230910510
:103D000030F001979093A6058093A50504C0109309
:103D1000A6050093A5054AE0BE016F5E7F4F809126
:103D2000A5059091A6050E948C2B6FE773E0CE014C
:103D300041960E949E30BE016F5E7F4F81E00E94DF
:103D40001C0E0C94CF2785E00E946B08882341F15C
:103D50004AE0BE016F5E7F4F8091A5059091A60558
:103D60000E948C2B6FE773E0CE0141960E949E303B
:103D7000BE016F5E7F4F81E00E941C0E8091A50501
:103D80009091A6059093B9058093B80583E190E0E2
:103D90009093BE058093BD050E942B080C94CF27FD
:103DA00084E00E946B08882339F10E94C50B6EE6FF
:103DB00073E080E00E941C0E4AE0BE016F5E7F4F00
:103DC0008091A5059091A6050E948C2B6FE773E06A
:103DD000CE0141960E949E30BE016F5E7F4F81E012
:103DE0000E941C0E8EE090E09093BE058093BD056E
:103DF0000E942B080C94CF2764EF71E080E090E0E4
:103E00000E943708882311F40C94CF274AE0BE01A2
:103E10006F5E7F4F8091A5059091A6050E948C2B27
:103E20006FE773E0CE0141960E949E30BE016F5E47
:103E30007F4F81E00E941C0E81E190E09093BE05CF
:103E40008093BD050E942B080C94CF2764EF71E08E
:103E500080E090E00E943708882311F40C94CF276B
:103E60000E94C50B64E973E080E00E941C0E809103
:103E70009A054AE0BE016F5E7F4F90E00E948C2B56
:103E800064ED74E0CE0141960E949E30BE016F5EEB
:103E90007F4F81E00E941C0E84E190E09093BE056C
:103EA0008093BD050E942B080C94CF2786E00E94CA
:103EB0006B08882301F180919A058E3110F48F5F91
:103EC00001C08EE180939A0580919A054AE0BE0177
:103ED0006F5E7F4F90E00E948C2B64ED74E0CE010A
:103EE00041960E949E30BE016F5E7F4F81E00E942E
:103EF0001C0E0C94CF2783E00E946B08882301F1ED
:103F000080919A05863010F0815001C085E0809341
:103F10009A0580919A054AE0BE016F5E7F4F90E05E
:103F20000E948C2B64ED74E0CE0141960E949E307D
:103F3000BE016F5E7F4F81E00E941C0E0C94CF2764
:103F400085E00E946B08882319F180919A054AE068
:103F5000BE016F5E7F4F90E00E948C2B64ED74E099
:103F6000CE0141960E949E30BE016F5E7F4F81E080
:103F70000E941C0E80919A058093AD0586E190E029
:103F80009093BE058093BD050E942B080C94CF270B
:103F900084E00E946B08882331F10E94C50B63E81E
:103FA00073E080E00E941C0E4AE0BE016F5E7F4F0E
:103FB0008091A5059091A6050E948C2B64ED74E07C
:103FC000CE0141960E949E30BE016F5E7F4F81E020
:103FD0000E941C0E81E190E09093BE058093BD0588
:103FE0000E942B08DCC764EF71E080E090E00E9443
:103FF0003708882309F4D3C785E190E09093BE0584
:104000008093BD0565EC74E081E00E941C0E0E9467
:104010002B08C5C786E00E946B088823F9F08091C1
:104020009A058E3110F48F5F01C08EE180939A055E
:1040300080919A054AE0BE016F5E7F4F90E00E943A
:104040008C2B64ED74E0CE0141960E949E30BE013F
:104050006F5E7F4F81E00E941C0EA1C783E00E942B
:104060006B088823F9F080919A05863010F0815012
:1040700001C085E080939A0580919A054AE0BE01CF
:104080006F5E7F4F90E00E948C2B64ED74E0CE0158
:1040900041960E949E30BE016F5E7F4F81E00E947C
:1040A0001C0E7DC785E00E946B08882311F180916A
:1040B0009A054AE0BE016F5E7F4F90E00E948C2B14
:1040C00064ED74E0CE0141960E949E30BE016F5EA9
:1040D0007F4F81E00E941C0E80919A058093AD0570
:1040E00086E190E09093BE058093BD050E942B0869
:1040F00056C784E00E946B08882331F10E94C50BEB
:1041000063E873E080E00E941C0E4AE0BE016F5E2F
:104110007F4F8091A5059091A6050E948C2B64EDA0
:1041200074E0CE0141960E949E30BE016F5E7F4FCB
:1041300081E00E941C0E81E190E09093BE05809387
:10414000BD050E942B082BC764EF71E080E090E072
:104150000E943708882309F422C780919A054AE013
:10416000BE016F5E7F4F90E00E948C2B64ED74E087
:10417000CE0141960E949E30BE016F5E7F4F81E06E
:104180000E941C0E84E190E09093BE058093BD05D3
:104190000E942B0804C764EF71E080E090E00E9469
:1041A0003708882309F4FBC60E94C50B65EA73E053
:1041B00080E00E941C0E66EB73E0CE0141960E94E7
:1041C0009E30809199054AE0BE016F5F7F4F90E07D
:1041D0000E948C2BBE016F5F7F4FCE0141960E94E3
:1041E0009E3064ED74E0CE0141960E949E30BE0187
:1041F0006F5E7F4F81E00E941C0E87E190E09093FC
:10420000BE058093BD050E942B08C9C686E00E94AA
:104210006B08882361F180919905843010F48F5FD9
:1042200001C084E08093990566EB73E0CE0141966E
:104230000E949E30809199054AE0BE016F5F7F4FDA
:1042400090E00E948C2BBE016F5F7F4FCE014196A4
:104250000E949E3064ED74E0CE0141960E949E3033
:10426000BE016F5E7F4F81E00E941C0E98C683E006
:104270000E946B08882361F180919905823010F0CB
:10428000815001C081E08093990566EB73E0CE0117
:1042900041960E949E30809199054AE0BE016F5F71
:1042A0007F4F90E00E948C2BBE016F5F7F4FCE014D
:1042B00041960E949E3064ED74E0CE0141960E94CA
:1042C0009E30BE016F5E7F4F81E00E941C0E67C66C
:1042D00085E00E946B08882379F166EB73E0CE01DC
:1042E00041960E949E30809199054AE0BE016F5F21
:1042F0007F4F90E00E948C2BBE016F5F7F4FCE01FD
:1043000041960E949E3064ED74E0CE0141960E9479
:104310009E30BE016F5E7F4F81E00E941C0E809137
:1043200099058093AC0589E190E09093BE05809358
:10433000BD050E942B0833C684E00E946B088823C9
:1043400029F10E94C50B64E973E080E00E941C0E15
:1043500080919A054AE0BE016F5E7F4F90E00E9417
:104360008C2B64ED74E0CE0141960E949E30BE011C
:104370006F5E7F4F81E00E941C0E84E190E090937D
:10438000BE058093BD050E942B0809C664EF71E04D
:1043900080E090E00E943708882309F400C688E195
:1043A00090E09093BE058093BD0565EC74E081E0DC
:1043B0000E941C0E0E942B08F2C586E00E946B082A
:1043C000882361F180919905843010F48F5F01C0DA
:1043D00084E08093990566EB73E0CE0141960E94DC
:1043E0009E30809199054AE0BE016F5F7F4F90E05B
:1043F0000E948C2BBE016F5F7F4FCE0141960E94C1
:104400009E3064ED74E0CE0141960E949E30BE0164
:104410006F5E7F4F81E00E941C0EC1C583E00E9449
:104420006B08882361F180919905823010F08150EA
:1044300001C081E08093990566EB73E0CE0141965F
:104440000E949E30809199054AE0BE016F5F7F4FC8
:1044500090E00E948C2BBE016F5F7F4FCE01419692
:104460000E949E3064ED74E0CE0141960E949E3021
:10447000BE016F5E7F4F81E00E941C0E90C585E0FB
:104480000E946B08882379F166EB73E0CE014196B8
:104490000E949E30809199054AE0BE016F5F7F4F78
:1044A00090E00E948C2BBE016F5F7F4FCE01419642
:1044B0000E949E3064ED74E0CE0141960E949E30D1
:1044C000BE016F5E7F4F81E00E941C0E80919905B6
:1044D0008093AC0589E190E09093BE058093BD0583
:1044E0000E942B085CC584E00E946B08882329F198
:1044F0000E94C50B64E973E080E00E941C0E80916D
:104500009A054AE0BE016F5E7F4F90E00E948C2BBF
:1045100064ED74E0CE0141960E949E30BE016F5E54
:104520007F4F81E00E941C0E84E190E09093BE05D5
:104530008093BD050E942B0832C564EF71E080E0D6
:1045400090E00E943708882309F429C566EB73E0E0
:10455000CE0141960E949E30809199054AE0BE01AD
:104560006F5F7F4F90E00E948C2BBE016F5F7F4F8B
:10457000CE0141960E949E3064ED74E0CE014196DA
:104580000E949E30BE016F5E7F4F81E00E941C0E34
:1045900087E190E09093BE058093BD050E942B08B3
:1045A000FEC464EF71E080E090E00E943708882349
:1045B00009F4F5C40E94C50B69EB73E080E00E942A
:1045C0001C0E4AE0BE016F5E7F4F80919F05909167
:1045D000A0050E948C2B63E573E0CE0141960E94FA
:1045E0009E30BE016F5E7F4F81E00E941C0E8AE10B
:1045F00090E09093BE058093BD050E942B08CFC428
:1046000086E00E946B08882331F180919F0590918C
:10461000A0058733910514F4019602C087E390E06A
:104620009093A00580939F054AE0BE016F5E7F4F87
:1046300080919F059091A0050E948C2B63E573E00B
:10464000CE0141960E949E30BE016F5E7F4F81E099
:104650000E941C0EA4C483E00E946B08882331F1E1
:1046600080919F059091A0058432910514F00197E7
:1046700002C083E290E09093A00580939F054AE0FA
:10468000BE016F5E7F4F80919F059091A0050E94B3
:104690008C2B63E573E0CE0141960E949E30BE01F3
:1046A0006F5E7F4F81E00E941C0E79C485E00E94FE
:1046B0006B08882339F14AE0BE016F5E7F4F80911D
:1046C0009F059091A0050E948C2B63E573E0CE01BD
:1046D00041960E949E30BE016F5E7F4F81E00E9436
:1046E0001C0E80919F059091A0059093B305809337
:1046F000B2058CE190E09093BE058093BD050E94C9
:104700002B084DC484E00E946B08882391F10E941D
:10471000C50B65EA73E080E00E941C0E66EB73E057
:10472000CE0141960E949E30809199054AE0BE01DB
:104730006F5F7F4F90E00E948C2BBE016F5F7F4FB9
:10474000CE0141960E949E3064ED74E0CE01419608
:104750000E949E30BE016F5E7F4F81E00E941C0E62
:1047600087E190E09093BE058093BD050E942B08E1
:1047700016C464EF71E080E090E00E94370888235F
:1047800009F40DC48BE190E09093BE058093BD05C4
:1047900065EC74E081E00E941C0E0E942B08FFC3B0
:1047A00086E00E946B08882331F180919F059091EB
:1047B000A0058733910514F4019602C087E390E0C9
:1047C0009093A00580939F054AE0BE016F5E7F4FE6
:1047D00080919F059091A0050E948C2B63E573E06A
:1047E000CE0141960E949E30BE016F5E7F4F81E0F8
:1047F0000E941C0ED4C383E00E946B08882351F1F1
:1048000080919F059091A0058432910534F0019725
:104810009093A00580939F0506C0E3E2F0E0F0933B
:10482000A005E0939F054AE0BE016F5E7F4F809137
:104830009F059091A0050E948C2B63E573E0CE014B
:1048400041960E949E30BE016F5E7F4F81E00E94C4
:104850001C0EA5C385E00E946B08882339F14AE04D
:10486000BE016F5E7F4F80919F059091A0050E94D1
:104870008C2B63E573E0CE0141960E949E30BE0111
:104880006F5E7F4F81E00E941C0E80919F0590918A
:10489000A0059093B3058093B2058CE190E09093CE
:1048A000BE058093BD050E942B0879C384E00E9459
:1048B0006B08882391F10E94C50B65EA73E080E0E4
:1048C0000E941C0E66EB73E0CE0141960E949E3062
:1048D000809199054AE0BE016F5F7F4F90E00E9492
:1048E0008C2BBE016F5F7F4FCE0141960E949E30A0
:1048F00064ED74E0CE0141960E949E30BE016F5E71
:104900007F4F81E00E941C0E87E190E09093BE05EE
:104910008093BD050E942B0842C364EF71E080E0E4
:1049200090E00E943708882309F439C34AE0BE01A9
:104930006F5E7F4F80919F059091A0050E948C2B08
:1049400063E573E0CE0141960E949E30BE016F5E2A
:104950007F4F81E00E941C0E8AE190E09093BE059B
:104960008093BD050E942B081AC364EF71E080E0BC
:1049700090E00E943708882309F411C30E94C50BF8
:104980006AEC73E080E00E941C0E8091A9054AE069
:10499000BE016F5E7F4F082E000C990B0E948C2B7E
:1049A00064ED74E0CE0141960E949E30BE016F5EC0
:1049B0007F4F81E00E941C0E2DE130E03093BE0558
:1049C0002093BD050E942B08EAC286E00E946B0876
:1049D000882311F18091A90587FF04C08F5F809320
:1049E000A90502C01092A9058091A9054AE0BE015F
:1049F0006F5E7F4F082E000C990B0E948C2B64ED8C
:104A000074E0CE0141960E949E30BE016F5E7F4FE2
:104A100081E00E941C0EC3C283E00E946B088823C1
:104A200009F18091A905813F14F0815001C080EF08
:104A30008093A9058091A9054AE0BE016F5E7F4F72
:104A4000082E000C990B0E948C2B64ED74E0CE01B3
:104A500041960E949E30BE016F5E7F4F81E00E94B2
:104A60001C0E9DC285E00E946B08882321F1809175
:104A7000A9054AE0BE016F5E7F4F082E000C990B1E
:104A80000E948C2B64ED74E0CE0141960E949E3012
:104A9000BE016F5E7F4F81E00E941C0E8091A905D0
:104AA0008093BC058FE190E09093BE058093BD0597
:104AB0000E942B0874C284E00E946B08882331F1A5
:104AC0000E94C50B69EB73E080E00E941C0E4AE077
:104AD000BE016F5E7F4F80919F059091A0050E945F
:104AE0008C2B63E573E0CE0141960E949E30BE019F
:104AF0006F5E7F4F81E00E941C0E8AE190E09093F0
:104B0000BE058093BD050E942B0849C264EF71E089
:104B100080E090E00E943708882309F440C28EE1CB
:104B200090E09093BE058093BD0565EC74E081E054
:104B30000E941C0E0E942B0832C286E00E946B0865
:104B4000882311F18091A90587FF04C08F5F8093AE
:104B5000A90502C01092A9058091A9054AE0BE01ED
:104B60006F5E7F4F082E000C990B0E948C2B64ED1A
:104B700074E0CE0141960E949E30BE016F5E7F4F71
:104B800081E00E941C0E0BC283E00E946B08882308
:104B900009F18091A905813F14F0815001C080EF97
:104BA0008093A9058091A9054AE0BE016F5E7F4F01
:104BB000082E000C990B0E948C2B64ED74E0CE0142
:104BC00041960E949E30BE016F5E7F4F81E00E9441
:104BD0001C0EE5C185E00E946B08882321F18091BD
:104BE000A9054AE0BE016F5E7F4F082E000C990BAD
:104BF0000E948C2B64ED74E0CE0141960E949E30A1
:104C0000BE016F5E7F4F81E00E941C0E8091A9055E
:104C10008093BC058FE190E09093BE058093BD0525
:104C20000E942B08BCC184E00E946B08882331F1EC
:104C30000E94C50B69EB73E080E00E941C0E4AE005
:104C4000BE016F5E7F4F80919F059091A0050E94ED
:104C50008C2B63E573E0CE0141960E949E30BE012D
:104C60006F5E7F4F81E00E941C0E8AE190E090937E
:104C7000BE058093BD050E942B0891C164EF71E0D1
:104C800080E090E00E943708882309F488C1809171
:104C9000A9054AE0BE016F5E7F4F082E000C990BFC
:104CA0000E948C2B64ED74E0CE0141960E949E30F0
:104CB000BE016F5E7F4F81E00E941C0E4DE150E00F
:104CC0005093BE054093BD050E942B0868C164EF58
:104CD00071E080E090E00E943708882309F45FC10A
:104CE0000E94C50B6BED73E080E00E941C0E6CEE21
:104CF00073E081E00E941C0EBE016F5E7F4F81E079
:104D00000E941C0E80E290E09093BE058093BD054A
:104D100046C1809199058093AC0580919F05909143
:104D2000A0059093B3058093B20580919A05809376
:104D3000AD058091A3059091A4059093B70580934C
:104D4000B6058091A9058093BC058091A505909139
:104D5000A6059093B9058093B80564EF71E080E0F3
:104D600090E00E943708882309F419C10E94C50BFE
:104D70008091AB05813019F46BED73E002C06DEFEB
:104D800073E080E00E941C0E6CEE73E081E00E94F4
:104D90001C0EBE016F5E7F4F81E00E941C0E80E200
:104DA00090E09093BE058093BD05F9C085E00E9418
:104DB0006B08882309F4A3C081E08093AA0582E2EE
:104DC00090E09093BE058093BD050E94C50B6EE0F8
:104DD00074E080E00E941C0E65E174E081E00E94B6
:104DE0001C0E0E942B0865E274E081E098E00E94AE
:104DF00067068091AB05813049F028F0823029F5B3
:104E000085E794E014C08AE394E011C087E594E05C
:104E10000E943B0D6FE574E081E098E00E94670618
:104E20008091B0059091B1050E94AB0E0EC00E941A
:104E30003B0D62E474E081E098E00E946706809197
:104E4000B6059091B7050E94DF0E60E874E081E03E
:104E500098E00E9467068091B8059091B9050E947C
:104E6000DF0E66E974E081E098E00E9467068091B9
:104E7000B8059091B9050E94DF0E6CEA74E081E0FC
:104E800098E00E9467066091AD0570E080E090E0D8
:104E90004AE00E94680E6CE672E081E098E00E94B1
:104EA000520661EC74E081E098E00E946706609130
:104EB000AC0570E080E090E04AE00E94680E6CE68D
:104EC00072E081E098E00E94520666ED74E081E0B5
:104ED00098E00E9467068091B2059091B3050E9408
:104EE000AB0E6DEE74E081E098E00E946706809161
:104EF000BC05082E000C990B0E94AB0E50C084E03C
:104F00000E946B08882309F44AC00E94C50B6AEC12
:104F100073E080E00E941C0E8091A9054AE0BE016A
:104F20006F5E7F4F082E000C990B0E948C2B64ED56
:104F300074E0CE0141960E949E30BE016F5E7F4FAD
:104F400081E00E941C0EEDE1F0E0F093BE05E093DD
:104F5000BD050E942B0823C082E00E946B088823B5
:104F6000F1F023E230E03093BE052093BD050E94AE
:104F70002B0815C082E00E946B0880916C05882385
:104F800009F4B8C168E873E180E090E00E94370856
:104F90008111ADC104C01092BE051092BD05809173
:104FA000C405882309F40EC10E94A1108090DD067B
:104FB0009090DE06A090DF06B090E006DC01CB0109
:104FC00088199909AA09BB098090C0059090C1056C
:104FD000A090C205B090C30588169906AA06BB0624
:104FE00008F0F0C00E94A1106093DD067093DE0609
:104FF0008093DF069093E00660E0CE0101960E9468
:10500000EF0D62E075E0CE0141960E94E504BE011D
:105010006F5F7F4FCE0141960E94840D6EE275E076
:105020000E9494040E947B0DCE0141960E94760D51
:10503000CE0101960E94760D60E070E0CE010196EF
:105040000E94970D68E075E0CE0141960E94E5044C
:10505000BE016F5F7F4FCE0141960E94840D6EE2CC
:1050600075E00E9494040E947B0DCE0141960E943F
:10507000760DCE0101960E94760D60E070E0CE01C3
:1050800001960E94970D6CE075E0CE0141960E945A
:10509000E504BE016F5F7F4FCE0141960E94840DF3
:1050A0006EE275E00E9494040E947B0DCE01419651
:1050B0000E94760DCE0101960E94760D60E070E0B0
:1050C000CE0101960E94970D61E175E0CE014196F7
:1050D0000E94E504BE016F5F7F4FCE0141960E94A2
:1050E000840D6EE275E00E9494040E947B0DCE0157
:1050F00041960E94760DCE0101960E94760D60E0E9
:1051000070E0CE0101960E94970D66E175E0CE0138
:1051100041960E94E504BE016F5F7F4FCE0141962C
:105120000E94840D6EE275E00E9494040E947B0D43
:10513000CE0141960E94760DCE0101960E94760D19
:1051400060E070E0CE0101960E94C30D6BE175E056
:10515000CE0141960E94E504BE016F5F7F4FCE01F4
:1051600041960E94840D6EE275E00E9494040E94B4
:105170007B0DCE0141960E94760DCE0101960E94D4
:10518000760D60E070E0CE0101960E94C30D6FE1E4
:1051900075E0CE0141960E94E504BE016F5F7F4F2E
:1051A000CE0141960E94840D64E275E00E94940451
:1051B0000E947B0DCE0141960E94760DCE01019694
:1051C0000E94760D8091BF05882321F01092BF05C3
:1051D0000E94200A0E94A1108090E3069090E406AD
:1051E000A090E506B090E6069B01AC0128193909AC
:1051F0004A095B0949015A0134EF831631E09306ED
:10520000A104B104E0F06093E3067093E406809398
:10521000E5069093E6068091E1069091E206892BDF
:1052200029F41093E2060093E10604C01092E2060E
:105230001092E1066091E1068DE00E941C0F0E9431
:1052400086030C94FC120E94A110409049095090D2
:105250004A0960904B0970904C098090B506909077
:10526000B606A090B706B090B806ADEAB6E09D01CC
:105270002850310948E0F90101900D924A95E1F773
:10528000D90135E0A53CB30791F7DC01CB018419C6
:105290009509A609B7098093C9059093CA05A093FB
:1052A000CB05B093CC058092C5059092C605A0921F
:1052B000C705B092C8050E94A11060934909709378
:1052C0004A0980934B0990934C090C94F71310935F
:1052D000DC060093DB060E94A1106093BB0670936E
:1052E000BC068093BD069093BE060C9498160E944F
:1052F0008F0C55CE42E250E05093BE054093BD0561
:105300004ECE4F925F926F927F928F929F92AF920A
:10531000BF92CF92DF92EF92FF920F931F93CF93A2
:10532000DF93CDB7DEB74C01DC015F965C934E9303
:105330005E975D967C936E935C9791963C932E93CB
:105340009097DA961C92FC0112AA13AA14AA15AA25
:1053500080E090E0AFE7B3E486AB97ABA0AFB1AF2E
:1053600084E690E0A0E0B0E086A797A7A0ABB1AB41
:10537000118E108E20E030E0A901C801B7010E9413
:10538000C12B87FD56C020E030E0A901C601B50160
:105390000E94C12B87FD4DC020E030E0A9016C893F
:1053A0007D898E899F890E94C12B87FD42C081E043
:1053B00090E0D4015B969C938E935A97DB968C93E6
:1053C000DB97F401E082F182028313831496AD929D
:1053D000BD92CD92DC9217978C899D89AE89BF8949
:1053E00080879187A287B387D4011C96ED92FD92A6
:1053F0000D931C931F972DEC3CEC4CEC5DE3C60128
:10540000B5010E94272CF401608B718B828B938BEA
:105410002DEC3CEC4CEC5DE36C897D898E899F8999
:105420000E94DD2DD40154966D937D938D939C93B2
:1054300057970E94A110F401C6A4D7A4E0A8F1A830
:10544000DC01CB018C199D09AE09BF0982A393A38E
:10545000A4A3B5A3DF91CF911F910F91FF90EF907F
:10546000DF90CF90BF90AF909F908F907F906F9084
:105470005F904F900895AF92BF92CF92DF92EF92DC
:10548000FF920F931F93CF93DF9310920408109213
:10549000030888EE93E0A0E0B0E0809305089093C5
:1054A0000608A0930708B093080882E292E0909360
:1054B00002088093010885EC90E090930E08809399
:1054C0000D0884EC90E09093100880930F0880EC16
:1054D00090E0909312088093110881EC90E09093F3
:1054E00014088093130882EC90E090931608809340
:1054F000150886EC90E09093180880931708109296
:105500001A0810921B0810921C0810921D08109285
:10551000A1081092A00884E392E090939F088093E2
:105520009E088DE28093A9088FEF8093AA088CE2F1
:105530008093AB088BE28093AC088AE28093AD083D
:1055400089E28093AE0888E28093AF081092B00899
:105550001092B1081092B2081092B308CCEAD8E0C9
:1055600000EB18E061E089910E944B0F0C171D07BA
:10557000C9F761E08091A9080E944B0F8091AA08A9
:105580008F3F19F061E00E944B0F61E08091AB0802
:105590000E944B0F1092A20860E08091A9080E941F
:1055A0001C0F60E08091AB080E941C0F8091AA083C
:1055B0008F3F19F060E00E941C0F8FEF8093B408BA
:1055C0001092A8081092A70862E082E00E944B0F98
:1055D00062E083E00E944B0FE0EBF3E0E491F0E047
:1055E000EE0FFF1FEC56FC4FA591B491B0938C09C0
:1055F000A0938B09E0E5F3E0849180938F09E1EBC0
:10560000F3E0E491F0E0EE0FFF1FEC56FC4FC59184
:10561000D491D0938E09C0938D09E1E5F3E0949184
:105620009093900910929209109293091092940904
:1056300010929509EBE3FFE13197F1F7EC91E82344
:1056400081E009F480E0E881E92309F082602BE839
:1056500039E0809391093093B6082093B5088AE128
:105660009AE0909301028093000280916A008C7FFF
:10567000816080936A00EC9A81E080939609309370
:10568000B8082093B70884E19AE0909303028093CE
:10569000020280916A00837F846080936A00ED9AA1
:1056A00082E0809396091F921F921F921F92A12C55
:1056B000B12CC12C80E4D82E13E3E12EFE2C03EB99
:1056C0001EE329E039E041E159E06DE079E08FE443
:1056D00099E00E9481291F921F921F921F9225E13B
:1056E00039E04DE159E069E179E081EC98E00E9410
:1056F00081298DB79EB708960FB6F8949EBF0FBE4E
:105700008DBFDF91CF911F910F91FF90EF90DF90B0
:10571000CF90BF90AF900895BB274A3031F49923C2
:1057200022F4BDE2909581959F4F0C94982BBB2756
:10573000FB015527AA27880F991FAA1FA41710F04D
:10574000A41B83955051B9F7A05DAA3308F0A95D59
:10575000A193009779F7B111B1931192CB010C94F9
:10576000B12BDC01FC01672F71917723E1F73297B0
:1057700004C07C916D9370836291AE17BF07C8F32C
:1057800008950E94032C08F481E00895E89409C06C
:1057900097FB3EF490958095709561957F4F8F4F64
:1057A0009F4F9923A9F0F92F96E9BB279395F6957A
:1057B000879577956795B795F111F8CFFAF4BB0FF8
:1057C00011F460FF1BC06F5F7F4F8F4F9F4F16C05C
:1057D000882311F096E911C0772321F09EE8872FE6
:1057E000762F05C0662371F096E8862F70E060E0A2
:1057F0002AF09A95660F771F881FDAF7880F96951B
:10580000879597F90895990F0008550FAA0BE0E8BE
:10581000FEEF16161706E807F907C0F01216130672
:10582000E407F50798F0621B730B840B950B39F4B2
:105830000A2661F0232B242B252B21F408950A2618
:1058400009F4A140A6958FEF811D811D08950E9446
:105850003A2C0C94AB2C0E949D2C38F00E94A42C66
:1058600020F0952311F00C94942C0C949A2C112474
:105870000C94DF2C0E94BC2C70F3959FC1F3950F04
:1058800050E0551F629FF001729FBB27F00DB11DC4
:10589000639FAA27F00DB11DAA1F649F6627B00D54
:1058A000A11D661F829F2227B00DA11D621F739F3D
:1058B000B00DA11D621F839FA00D611D221F749F4B
:1058C0003327A00D611D231F849F600D211D822F92
:1058D000762F6A2F11249F5750409AF0F1F08823B9
:1058E0004AF0EE0FFF1FBB1F661F771F881F9150E6
:1058F0005040A9F79E3F510580F00C94942C0C94D5
:10590000DF2C5F3FE4F3983ED4F386957795679557
:10591000B795F795E7959F5FC1F7FE2B880F911D0F
:105920009695879597F9089597F99F6780E870E0B5
:1059300060E008959FEF80EC089500240A94161605
:10594000170618060906089500240A94121613066D
:10595000140605060895092E0394000C11F48823FB
:1059600052F0BB0F40F4BF2B11F460FF04C06F5F17
:105970007F4F8F4F9F4F089557FD9058440F551FED
:1059800059F05F3F71F04795880F97FB991F61F0C1
:105990009F3F79F087950895121613061406551F38
:1059A000F2CF4695F1DF08C0161617061806991FA4
:1059B000F1CF86957105610508940895E894BB2799
:1059C00066277727CB0197F90895052E97FB1EF4DC
:1059D00000940E94FC2C57FD07D00E940F2D07FC5D
:1059E00003D04EF40C94FC2C5095409530952195A5
:1059F0003F4F4F4F5F4F08959095809570956195FB
:105A00007F4F8F4F9F4F08950E94312DA59F900D7E
:105A1000B49F900DA49F800D911D11240895A1E2C3
:105A20001A2EAA1BBB1BFD010DC0AA1FBB1FEE1F18
:105A3000FF1FA217B307E407F50720F0A21BB30B63
:105A4000E40BF50B661F771F881F991F1A9469F7DF
:105A500060957095809590959B01AC01BD01CF013B
:105A60000895A29FB001B39FC001A39F700D811D37
:105A70001124911DB29F700D811D1124911D089557
:105A800097FB072E16F4009407D077FD09D00E94EB
:105A90005C2D07FC05D03EF4909581959F4F0895AD
:105AA000709561957F4F0895EE0FFF1F881F8BBF84
:105AB0000790F691E02D1994AA1BBB1B51E107C07A
:105AC000AA1FBB1FA617B70710F0A61BB70B881F8E
:105AD000991F5A95A9F780959095BC01CD0108951D
