:100000000C945C010C948D010C948D010C948D0169
:100010000C948D010C948D010C948D010C948D0128
:100020000C948D010C948D010C948D010C948D0118
:100030000C948D010C948D010C948D010C948D0108
:100040000C948D010C948D010C948D010C948D01F8
:100050000C948D010C948D010C948D010C9425054C
:100060000C948D010C948D010C948D010C948D01D8
:100070000C948D010C948D010C948D010C948D01C8
:100080000C948D010C948D010C948D010C948D01B8
:100090000C948D010C948D010C948D010C948D01A8
:1000A0000C948D010C948D010C948D010C948D0198
:1000B0000C948D010C948D010C948D010C948D0188
:1000C0000C948D010C948D010C948D010C948D0178
:1000D0000C948D010C948D010C948D010C948D0168
:1000E0000C948D01AA01AD019C01A001A601E401BF
:1000F000B101B501BB01BF01C301C901CD01D101EE
:10010000E401D701DB01DF0170068F06BD06D706CB
:100110009A06C806D7060C9489030C9470060C94B2
:1001200047040C940F030C94A6010C94CD010C947D
:10013000E5020C94E4010C94B5010C94BB010C9401
:10014000DB010C949C010C9423030C94D1010C94BE
:1001500042070C943F030C94BF010C94AD010C9426
:1001600046040C94C8060C94C9010C949A060C948D
:10017000D7060C94D7010C94C3010C94DF010C94A6
:10018000A0010C94B1010C946E030C94BD060C9468
:10019000AA010C948F0600002100240027002A00E9
:1001A0002D003000330001010000040107010A01A5
:1001B00000002200250028002B002E003100340012
:1001C00002010000050108010B01000020002300CE
:1001D000260029002C002F0032000001000003013E
:1001E00006010901050505050705080808080202BA
:1001F00002020A0A080804040404010101010101C1
:1002000001010303030303030303040707070C0CA3
:100210000C0C0C0C0C0C020202020606060606066A
:1002200006060B0B0B0B0B0B0B0B0102102020080F
:100230000810204010204080020102010804020141
:1002400001020408102040808040201008040201B0
:100250008004020180402010080402010804020109
:100260000102040810204080010204081020408090
:1002700000000A0B02090C0D0E0807030401000020
:10028000000000000000000000000000000000006E
:10029000000000000000000000000000121110002B
:1002A000000000000000000000000000000000004E
:1002B000000000000000420711241FBECFEFD1E272
:1002C000DEBFCDBF00E00CBF12E0A0E0B2E0E4E68C
:1002D000FFE000E00BBF02C007900D92A237B1070C
:1002E000D9F722E0A2E7B2E001C01D92A53DB20716
:1002F000E1F711E0CCE5D1E000E006C0219701096B
:10030000802FFE010E94A307CB35D10780E00807AC
:10031000A9F70E946F050C94B0070C94000090E0C0
:10032000FC013197E231F10508F04EC08827EE5804
:10033000FF4F8F4F0C94A307809180008F7703C0ED
:10034000809180008F7D809380000895809180004F
:10035000877FF9CF84B58F7702C084B58F7D84BD48
:1003600008958091B0008F7703C08091B0008F7D99
:100370008093B0000895809190008F7707C080919E
:1003800090008F7D03C080919000877F80939000C4
:1003900008958091A0008F7707C08091A0008F7D85
:1003A00003C08091A000877F8093A0000895809172
:1003B00020018F7707C0809120018F7D03C080913D
:1003C0002001877F809320010895CF93DF93282F0A
:1003D00030E0F901E059FD4F8491F901E65DFD4FF0
:1003E000D491F901EC51FE4FC491CC2391F08111CD
:1003F0000E948F01EC2FF0E0EE0FFF1FE653FE4F3F
:10040000A591B491EC91ED2381E090E021F480E09E
:1004100002C080E090E0DF91CF9108951F93CF93C9
:10042000DF93282F30E0F901E059FD4F8491F90165
:10043000E65DFD4FD491F901EC51FE4FC491CC2300
:10044000C1F0162F81110E948F01EC2FF0E0EE0F0A
:10045000FF1FE055FE4FA591B4919FB7F89411117D
:1004600004C08C91D095D82302C0EC91DE2BDC9394
:100470009FBFDF91CF911F910895AF92BF92CF920E
:10048000DF92EF92FF920F931F93CF93DF938C0134
:100490005C018EE0A80EB11CC42ED12CC0E0D0E0CF
:1004A000E62EF12CCC15DD0579F0B7010C2E02C03B
:1004B000759567950A94E2F76170F50181915F0186
:1004C0000E940E022196EECF61E0F80185850E9420
:1004D0000E0260E0F8018585DF91CF911F910F91A9
:1004E000FF90EF90DF90CF90BF90AF900C940E02F2
:1004F000CF93DF9390E0FC01E65DFD4F2491FC017A
:10050000EC51FE4F8491882361F190E0880F991F90
:10051000FC01EA56FE4FC591D491FC01E055FE4F17
:10052000A591B491611109C09FB7F8948881209575
:1005300082238883EC912E230BC0623061F49FB735
:10054000F8948881322F309583238883EC912E2B69
:100550002C939FBF06C08FB7F894E8812E2B288379
:100560008FBFDF91CF9108953FB7F8948091BA0281
:100570009091BB02A091BC02B091BD0226B5A89B90
:1005800005C02F3F19F00196A11DB11D3FBFBA2F25
:10059000A92F982F8827820F911DA11DB11DBC0185
:1005A000CD0142E0660F771F881F991F4A95D1F74A
:1005B00008952FB7F8946091B6027091B7028091B8
:1005C000B8029091B9022FBF0895CF92DF92EF92B7
:1005D000FF920F931F93CF93DF936C017A018B01EE
:1005E000C0E0D0E0CE15DF0581F0D8016D918D011E
:1005F000D601ED91FC910190F081E02DC601199595
:10060000892B11F02196EECF7E01C701DF91CF91AA
:100610001F910F91FF90EF90DF90CF900895FC0114
:1006200086898F3F79F021853285662319F0232B47
:1006300031F403C02130310511F461E001C060E004
:100640000C940E020895EF92FF921F93CF93DF93C5
:10065000EC01162F7A0161E0812F0E9478021E8B37
:10066000FA86E986E881F9810484F585E02D60E069
:10067000CE01DF91CF911F91FF90EF9019940F93CE
:100680001F93CF93DF93EC01162F042F61E04130CD
:1006900009F060E08B850E940E028C858F3F19F077
:1006A00060E00E940E02023081F08C8184FF02C063
:1006B00048E00CC0612F70E084E0759567958A95DD
:1006C000E1F744E0CE010E943D0244E0612FCE01FB
:1006D000DF91CF911F910F910C943D02DC01ED91C0
:1006E000FC910684F785E02D41E0199581E090E0CA
:1006F0000895DC01ED91FC910684F785E02D40E042
:10070000199461E00E9479038BE39FE10197F1F76F
:1007100008958F929F92AF92BF92CF92DF92EF9205
:10072000FF920F931F93CF93DF93EC01423018F0A9
:100730008C8188608C834F836887222329F0413025
:1007400019F48C8184608C830E94B4026B017C015B
:1007500084E6882E912CA12CB12C0E94B402DC01DD
:10076000CB018C199D09AE09BF09883E9340A105B4
:10077000B10598F321E0821A9108A108B10888EE2A
:10078000C80E83E0D81EE11CF11C81149104A10461
:10079000B10419F76C8164FD31C0E881F9810684E8
:1007A000F785E02D42E063E0CE0119958BE496E4F5
:1007B0000197F1F7E881F9810684F785E02D42E0A1
:1007C00063E0CE01199503E512E0C8010197F1F746
:1007D000E881F9810684F785E02D42E063E0CE01EF
:1007E0001995C8010197F1F7E881F9810684F78529
:1007F000E02D42E062E0CE01199517C06062CE01A3
:100800000E9479038BE496E40197F1F76C816062B2
:10081000CE010E94790303E512E0C8010197F1F7C8
:100820006C816062CE010E947903C8010197F1F7E3
:100830006C816062CE010E9479038BEE90E001979B
:10084000F1F784E08D836CE0CE010E947903CE0144
:100850000E94810382E08E8366E0CE010E947903CC
:10086000E881F9810484F585E02D6FEFCE01DF91F9
:10087000CF911F910F91FF90EF90DF90CF90BF909D
:10088000AF909F908F90199408950895089580E0F7
:1008900090E008950E94D9026093A9027093AA0281
:1008A0008093AB029093AC0280E00895CF92DF92E8
:1008B000EF92FF920F931F936115710581059105CA
:1008C00041F41F910F91FF90EF90DF90CF900C9427
:1008D0004A046B017C010E94D9020091A902109187
:1008E000AA022091AB023091AC02DC01CB01801B4B
:1008F000910BA20BB30B21E0C816D906EA06FB0642
:1009000008F020E0822F1F910F91FF90EF90DF9071
:10091000CF900895CF93DF93C82F8091A702909135
:10092000A802009719F00197F9F023C08C2F0E94BC
:10093000E501D0E0892B91F40E94D90270E0CE58F5
:10094000DD4F8881681B710963337105B4F081E064
:1009500090E09093A8028093A70210C00E94D90251
:10096000CE58DD4F688309C08C2F0E94E5010197A6
:1009700021F41092A8021092A70280E0DF91CF919B
:1009800008950F931F93CF93DF93CDB7DEB72897CA
:100990000FB6F894DEBF0FBECDBF8B0140910002B1
:1009A0005091010260910202709103024D835E83B7
:1009B0006F8378874091040250910502609106028E
:1009C0007091070249835A836B837C832091C5020F
:1009D000821710F08FEF820F3091C60290E0FE0177
:1009E000E80FF91F303121F4243011F4618101C086
:1009F000658160688EEB92E00E9479030115110514
:100A0000B9F0F80101900020E9F73197AF01401BE0
:100A1000510BB8018EEB92E028960FB6F894DEBF2A
:100A20000FBECDBFDF91CF911F910F910C94E502C6
:100A300028960FB6F894DEBF0FBECDBFDF91CF91E1
:100A40001F910F9108950E94AB071F920F920FB64E
:100A50000F9211242F933F938F939F93AF93BF9344
:100A60008091B6029091B702A091B802B091B902FC
:100A70003091B50223E0230F2D3720F40196A11DFC
:100A8000B11D05C026E8230F0296A11DB11D2093BC
:100A9000B5028093B6029093B702A093B802B093C8
:100AA000B9028091BA029091BB02A091BC02B091B0
:100AB000BD020196A11DB11D8093BA029093BB02A5
:100AC000A093BC02B093BD02BF91AF919F918F9153
:100AD0003F912F910F900FBE0F901F901895789413
:100AE00084B5826084BD84B5816084BD85B5826033
:100AF00085BD85B5816085BD80916E0081608093E4
:100B00006E0010928100809181008260809381004C
:100B1000809181008160809381008091800081605C
:100B2000809380008091B10084608093B1008091B7
:100B3000B00081608093B0008091910082608093CA
:100B4000910080919100816080939100809190004C
:100B50008160809390008091A10082608093A100C9
:100B60008091A10081608093A1008091A0008160AC
:100B70008093A00080912101826080932101809167
:100B80002101816080932101809120018160809307
:100B9000200180917A00846080937A0080917A00AD
:100BA000826080937A0080917A00816080937A00DD
:100BB00080917A00806880937A001092C10020E0D2
:100BC00042E060E18EEB92E00E94890362E08EEBEE
:100BD00092E00E9479038BE39FE10197F1F78EEB9E
:100BE00092E00E9481036CE172E080E00E94C10407
:100BF00066E272E081E00E94C1041092B402109299
:100C0000B30262E086E00E94780262E085E00E9422
:100C1000780262E084E00E94780262E083E00E9451
:100C2000780262E082E00E9478020E944A0461E059
:100C30008DE00E94780280E0682E80E0782EC1E08E
:100C4000D0E096E0E92EF12C02E010E025E0C22E83
:100C5000D12C34E0A32EB12C43E0842E912C0E94A1
:100C6000D9022091AF023091B0024091B10250916F
:100C7000B2021B012C01221A330A440A550AE4EF7E
:100C80002E16E1E03E0641045104E0F06093AF020D
:100C90007093B0028093B1029093B2028091AD0242
:100CA0009091AE02892B29F4D093AE02C093AD028D
:100CB00004C01092AE021092AD026091AD028DE0C0
:100CC0000E940E02E091B302F091B402E730F10508
:100CD00008F069C08827EC57FF4F8F4F0C94A3078B
:100CE00085E00E948A04882351F08EEB92E00E94F6
:100CF000810364E372E080E00E94C10432C086E0B8
:100D00000E948A04882309F452C06DE472E080E0F6
:100D10000E94C1049092B4028092B30248C083E062
:100D20000E948A0481114AC084E00E948A048111D1
:100D300045C053C083E00E948A0481113FC084E013
:100D40000E948A0481113AC082E00E948A048111C3
:100D50002EC06AEF70E080E090E00E945604882385
:100D600031F165E472E081E00E94C104D093B402E5
:100D7000C093B3020E944A041AC083E00E948A040E
:100D8000811154C084E00E948A0481114FC037C091
:100D900083E00E948A04811149C084E00E948A0491
:100DA000811144C052C0F092B402E092B3026114C7
:100DB000710409F454CF0E94000051CF68E572E03D
:100DC00081E00E94C10469E672E081E00E94C104F2
:100DD0001093B4020093B302EACF82E00E948A0427
:100DE0008111E5CF64EF71E080E090E00E9456044D
:100DF0008823E9F2B092B402A092B30211C082E05B
:100E00000E948A048111D3CF64EF71E080E090E00A
:100E10000E945604882359F2D092B402C092B302C1
:100E200068E572E081E00E94C104A4CF68E572E049
:100E300081E00E94C10465E472E081E00E94C10487
:100E4000D093B402C093B302B2CF82E00E948A046E
:100E50008111ADCF6AEF70E080E090E00E9456040F
:100E6000882309F4A4CF68E572E081E00E94C10400
:100E700069E672E081E00E94C1041093B40200931D
:100E8000B30278CFCF93DF931092C1021092C002C9
:100E90008CE092E09093BF028093BE028DE280933B
:100EA000C9028FEF8093CA028CE28093CB028BE25F
:100EB0008093CC028AE28093CD0289E28093CE02B5
:100EC00088E28093CF021092D0021092D102109249
:100ED000D2021092D302CCECD2E061E089910E9460
:100EE000780282E0C03DD807C1F761E08091C90275
:100EF0000E9478028091CA028F3F19F061E00E943F
:100F0000780261E08091CB020E9478021092C202C6
:100F100060E08091C9020E940E0260E08091CB02E5
:100F20000E940E028091CA028F3F19F060E00E9479
:100F30000E028FEF8093D4021092C8021092C70263
:100F4000DF91CF910895EE0FFF1F881F8BBF079091
:100F5000F691E02D199481E090E0F8940C94B0079C
:040F6000F894FFCF33
:100F64000040145400401050000000006E03E502DD
:100F740047044604890323030F033F035245535098
:100F840049524F4E450050726573696F6E65204D2E
:100F9400656E750053656C656363696F6E6172207D
:100FA4004D6F646F00566F6C756D656E004175749E
:100FB4006F6D617469636F00202020202020202041
:100FC40020202020202020200050726573696F6E3D
:020FD40000001B
:00000001FF
