:100000000C94C1010C94F2010C94F2010C94F201D5
:100010000C94F2010C94F2010C94F2010C94F20194
:100020000C94F2010C94F2010C94F2010C94F20184
:100030000C94F2010C94F2010C94F2010C94F20174
:100040000C94F2010C94F2010C94F2010C94F20164
:100050000C94F2010C94F2010C94F2010C94200C1B
:100060000C94F2010C9400050C94D6040C94F2014B
:100070000C94F2010C94F2010C94F2010C94F20134
:100080000C94F2010C94F2010C94F2010C94F20124
:100090000C94F2010C94F2010C94F2010C94F20114
:1000A0000C94F2010C94F2010C94F2010C94F20104
:1000B0000C94F2010C94F2010C94F2010C94F201F4
:1000C0000C94F2010C94F2010C94F2010C94F201E4
:1000D0000C94F2010C94F2010C94F2010C94F201D4
:1000E0000C94F2016F108A1015118911EA105E113B
:1000F000C811F311DD13821438155212F712AC1324
:10010000691533160E173F170B18E8181819CC1974
:100110008D1AC81A9F1B931CC01C941D771EA71E06
:100120005D1F2520942047206A2178215509580910
:1001300047094B0951098F095C09600966096A0979
:100140006E09740978097C098F09820986098A0970
:100150000C9486090C94941D0C9482090C94EA0367
:100160000C94AC130C94E8180C9489110C948F091E
:100170000C9438150C94D6030C9425200C94C811BB
:100180000C94CC190C9408230C9441020C94D402C6
:100190000C948E030C943F170C9452120C947821FB
:1001A0000C9478090C9474090C9451090C94181946
:1001B0000C947C090C9415110C9455090C94470966
:1001C0000C946A210C948A090C94F7120C94BA03CB
:1001D0000C940E170C9433160C9460090C948D0338
:1001E0000C942D020C948D1A0C94A71E0C94F401FF
:1001F0000C9447200C940B180C9469150C948A10DD
:100200000C94F3110C946A090C945C090C949420DE
:100210000C945D1F0C949F1B0C94DD130C94C01C5C
:100220000C9458090C9466090C9480030C946E0984
:100230000C94EA100C946F100C94931C0C945E11A7
:100240000C94C81A0C944F020C944B090C94821411
:100250000C941E020C94771E0C94FE070C948702DB
:1002600000002100240027002A002D003000330068
:1002700001010000040107010A010000220025001D
:1002800028002B002E00310034000201000005017F
:1002900008010B01000020002300260029002C008B
:1002A0002F003200000100000301060109010505CD
:1002B0000505070508080808020202020A0A0808DC
:1002C000040404040101010101010101030303030A
:1002D00003030303040707070C0C0C0C0C0C0C0C99
:1002E0000202020206060606060606060B0B0B0BAA
:1002F0000B0B0B0B010210202008081020401020CF
:1003000040800201020108040201010204081020D9
:1003100040808040201008040201800402018040D7
:100320002010080402010804020101020408102040
:100330004080010204081020408000000A0B0209DE
:100340000C0D0E080703040100000000000000006F
:10035000000000000000000000000000000000009D
:10036000000000000000121110000000000000005A
:10037000000000000000000000000000000000007D
:10038000082311241FBECFEFD1E2DEBFCDBF00E0B6
:100390000CBF14E0A0E0B2E0EEE1FDE400E00BBF32
:1003A00002C007900D92AE3EB107D9F727E0AEEE3E
:1003B000B4E001C01D92A936B207E1F711E0C1EC2B
:1003C000D1E000E006C021970109802FFE010E94C4
:1003D0004424C03CD10780E00807A9F70E946A0CBA
:1003E0000C948D260C940000CF92DF92EF92FF9236
:1003F0000F931F93CF93DF936C017A018B01C0E0C1
:10040000D0E0CE15DF0581F0D8016D918D01D601C8
:10041000ED91FC910190F081E02DC6011995892B99
:1004200011F02196EECF7E01C701DF91CF911F9190
:100430000F91FF90EF90DF90CF900895FC01538DC6
:10044000448D252F30E0842F90E0821B930B5417AE
:1004500010F0CF96089501970895FC01918D828D3B
:10046000981761F0828DDF01A80FB11D5D968C9108
:10047000928D9F5F9F73928F90E008958FEF9FEF13
:100480000895FC01918D828D981731F0828DE80FCF
:10049000F11D858D90E008958FEF9FEF0895FC0189
:1004A000918D228D892F90E0805C9F4F821B910956
:1004B0008F739927089588EA96E00E944F0221E001
:1004C000892B09F420E0822F0895FC01848DDF013F
:1004D000A80FB11DA35ABF4F2C91848D90E00196B7
:1004E0008F739927848FA689B7892C93A089B189A6
:1004F0008C91837080648C93938D848D981306C047
:100500000288F389E02D80818F7D80830895EF92AA
:10051000FF920F931F93CF93DF93EC0181E0888FBD
:100520009B8D8C8D981305C0E889F989808185FDA4
:1005300026C0F62E0B8D10E00F5F1F4F0F73112793
:10054000E02E8C8DE8120CC00FB607FCFACFE889BC
:10055000F989808185FFF5CFCE010E946502F1CF38
:100560008B8DFE01E80FF11DE35AFF4FF0829FB71C
:10057000F8940B8FEA89FB89808180620AC09FB75B
:10058000F894EE89FF896083E889F9898081837016
:10059000806480839FBF81E090E0DF91CF911F91C5
:1005A0000F91FF90EF900895CF93DF93EC01888D2A
:1005B0008823C9F0EA89FB89808185FD05C0A88967
:1005C000B9898C9186FD0FC00FB607FCF5CF8081ED
:1005D00085FFF2CFA889B9898C9185FFEDCFCE0137
:1005E0000E946502E7CFDF91CF910895CF93C1E0DC
:1005F00088EA96E00E944F02892B09F44AC088EAF3
:1006000096E00E942D028C3469F02CF48B3299F024
:100610008D32E9F0EDCF8C3629F0853749F08535FC
:1006200039F706C0809148058C2780934805E0CFB4
:10063000C0934305DDCF8091440590914505A0917D
:100640004605B0914705C296A11DB11D10C080910D
:10065000440590914505A0914605B0914705833327
:100660009105A105B10560F0C297A109B109809378
:10067000440590934505A0934605B0934705B8CF30
:1006800010924405109245051092460510924705B8
:10069000AFCFCF9108950E945B02811125C080E009
:1006A00090E0892B41F080E090E0892B21F00E94BE
:1006B000000081111CC080E090E0892B41F080E0B7
:1006C00090E0892B21F00E940000811113C080E08E
:1006D00090E0892BA1F080E090E0892B81F00E94CE
:1006E000000081110AC008950E94F602D8CF0E942E
:1006F0000000E1CF0E940000EACF0C9400000895B2
:10070000DC01ED91FC910684F785E02D41E019951F
:1007100081E090E0089508950895089580E090E0C4
:1007200008950E946D260F931F93CF93DF93EC01E2
:1007300088819981009729F02A813B812617370704
:1007400088F48B016F5F7F4F0E948825009761F0CE
:10075000998388831B830A832C813D81232B11F489
:10076000FC01108281E001C080E0DF91CF911F91F8
:100770000F910895EF92FF921F93CF93DF93EC01B7
:10078000162F7A0161E0812F0E94B30B1E8BFA862F
:10079000E986E881F9810484F585E02D60E0CE01E9
:1007A000DF91CF911F91FF90EF901994FC01868902
:1007B0008F3F79F021853285662319F0232B31F4A0
:1007C00003C02130310511F461E001C060E00C94F8
:1007D000490B08950F931F93CF93DF93EC01162FCE
:1007E000042F61E0413009F060E08B850E94490BE5
:1007F0008C858F3F19F060E00E94490B023081F038
:100800008C8184FF02C048E00CC0612F70E084E05E
:10081000759567958A95E1F744E0CE010E94780BC3
:1008200044E0612FCE01DF91CF911F910F910C9485
:10083000780BEF92FF920F931F93CF93DF93611585
:10084000710511F480E01CC041155105C1F07B0118
:10085000EC018C819D818A01080F191FB801CE011E
:100860000E949303882371F3288139818C819D81B3
:10087000B701820F931F0E9486261D830C8381E09F
:10088000DF91CF911F910F91FF90EF900895CF933B
:10089000DF93EC0188819981009711F00E94FF2479
:1008A000198218821D821C821B821A82DF91CF91CD
:1008B0000895CF93DF93EC016115710561F0FB01A1
:1008C00001900020E9F73197AF01461B570B0E94BA
:1008D0001904811103C0CE010E944704CE01DF91AB
:1008E000CF910895EF92FF920F931F93CF93DF93D1
:1008F000EC017B018A01BA010E949303811104C0BB
:10090000CE010E94470407C01D830C83B701888174
:1009100099810E948626CE01DF91CF911F910F9180
:10092000FF90EF900895CF93DF93EC01611571056F
:1009300059F0FB0101900020E9F73197AF01461B08
:10094000570B0E94720402C00E944704CE01DF913F
:10095000CF910895FC0111821082138212821582B8
:1009600014826115710551F0FB0101900020E9F737
:100970003197AF01461B570B0C9472040895611513
:10098000710579F0FB0101900020E9F73197AF0183
:10099000461B570BDC01ED91FC910280F381E02DA9
:1009A000199480E090E008950C94BF041F920F9278
:1009B0000FB60F9211240BB60F922F933F934F93C4
:1009C0005F936F937F938F939F93AF93BF93EF93B7
:1009D000FF9388EA96E00E946502FF91EF91BF9134
:1009E000AF919F918F917F916F915F914F913F91C7
:1009F0002F910F900BBE0F900FBE0F901F90189568
:100A00001F920F920FB60F9211240BB60F922F93D5
:100A10008F939F93EF93FF93E091B806F091B906FF
:100A20008081E091BE06F091BF0682FD12C09081E8
:100A30008091C1068F5F8F732091C206821751F09B
:100A4000E091C106F0E0E855F94F958F8093C1061B
:100A500001C08081FF91EF919F918F912F910F9015
:100A60000BBE0F900FBE0F901F9018950E94140C94
:100A70006093A4067093A5068093A6069093A7069C
:100A800080E00895CF92DF92EF92FF920F931F9331
:100A9000611571058105910541F41F910F91FF903A
:100AA000EF90DF90CF900C9436056B017C010E9493
:100AB000140C0091A4061091A5062091A606309171
:100AC000A706DC01CB01801B910BA20BB30B21E02D
:100AD000C816D906EA06FB0608F020E0822F1F910F
:100AE0000F91FF90EF90DF90CF9008958F929F929B
:100AF000AF92BF92EF92FF920F931F93CF93DF932A
:100B0000C82FD0E08E01000F111F065B194FF801AE
:100B1000208131812115310521F021303105A1F1EC
:100B20006FC00E94200B009719F00197A1F16BC0D4
:100B30000E94140C9E01220F331F220F331FA901A4
:100B40004A565A4F7A01FA0180809180A280B38080
:100B5000DC01CB0188199909AA09BB090697A105EF
:100B6000B10508F450C081E090E0F80191838083E2
:100B7000C251DB4F88830E94140CF701608371839C
:100B80008283938381E040C00E94200B009719F07C
:100B9000019771F038C00E94140CCC0FDD1FCC0FF0
:100BA000DD1FCA56DA4F688379838A839B832BC003
:100BB0000E94140C9E01220F331F220F331FA90124
:100BC0004A565A4F7A01FA0180809180A280B38000
:100BD000DC01CB0188199909AA09BB090697A1056F
:100BE000B10588F0F80111821082C251DB4F1882E2
:100BF0000E94140CF701608371838283938303C086
:100C0000F8011182108280E0DF91CF911F910F9146
:100C1000FF90EF90BF90AF909F908F900895CF93EB
:100C2000DF93CDB7DEB72C970FB6F894DEBF0FBEBB
:100C3000CDBF80912F05882331F0813009F083C129
:100C400064EE74E002C06AEA74E088EA96E00E940A
:100C5000D40460913005CE0107960E94090A63EB27
:100C600074E0CE0101960E94AA04BE01695F7F4F25
:100C7000CE0101960E949E0961EB74E00E94590426
:100C80000E949509CE0101960E949009CE01079617
:100C90000E94900960913105CE0107960E94090AD1
:100CA00067EB74E0CE0101960E94AA04BE01695F61
:100CB0007F4FCE0101960E949E0961EB74E00E9475
:100CC00059040E949509CE0101960E949009CE0117
:100CD00007960E94900960913205CE0107960E9406
:100CE000090A6BEB74E0CE0101960E94AA04BE01D2
:100CF000695F7F4FCE0101960E949E0961EB74E00F
:100D00000E9459040E949509CE0101960E94900903
:100D1000CE0107960E94900960913305CE01079697
:100D20000E94090A60EC74E0CE0101960E94AA04B8
:100D3000BE01695F7F4FCE0101960E949E0961EB63
:100D400074E00E9459040E949509CE0101960E9408
:100D50009009CE0107960E94900960913405709128
:100D60003505CE0107960E94B10965EC74E0CE010D
:100D700001960E94AA04BE01695F7F4FCE010196D1
:100D80000E949E0961EB74E00E9459040E9495093B
:100D9000CE0101960E949009CE0107960E9490090B
:100DA0006091360570913705CE0107960E94B10912
:100DB00069EC74E0CE0101960E94AA04BE01695F4D
:100DC0007F4FCE0101960E949E0961EB74E00E9464
:100DD00059040E949509CE0101960E949009CE0106
:100DE00007960E9490096091380570913905CE01EF
:100DF00007960E94B1096DEC74E0CE0101960E9445
:100E0000AA04BE01695F7F4FCE0101960E949E0930
:100E100061EB74E00E9459040E949509CE0101968D
:100E20000E949009CE0107960E94900960913A05B0
:100E300070913B05CE0107960E94DD0961ED74E0DB
:100E4000CE0101960E94AA04BE01695F7F4FCE01C8
:100E500001960E949E0961EB74E00E9459040E9471
:100E60009509CE0101960E949009CE0107960E9435
:100E7000900960913C0570913D05CE0107960E9456
:100E8000DD0965ED74E0CE0101960E94AA04BE0161
:100E9000695F7F4FCE0101960E949E0961EB74E06D
:100EA0000E9459040E949509CE0101960E94900962
:100EB000CE0107960E94900960913E0570913F0512
:100EC000CE0107960E94DD096AED74E0CE0101961D
:100ED0000E94AA04BE01695F7F4FCE0101960E9465
:100EE0009E0961EB74E00E9459040E949509CE01AD
:100EF00001960E949009CE0107960E949009609188
:100F00004005062E000C770BCE0107960E94B10912
:100F10006FED74E0CE0101960E94AA04BE01695FE4
:100F20007F4FCE0101960E949E0967EA74E00E94FD
:100F300059040E949509CE0101960E949009CE01A4
:100F400007960E9490092C960FB6F894DEBF0FBE4C
:100F5000CDBFDF91CF9108950E94140C609392054C
:100F600070939305809394059093950580E0089580
:100F7000CF92DF92EF92FF920F931F93611571054D
:100F80008105910541F41F910F91FF90EF90DF9043
:100F9000CF900C94AC076B017C010E94140C009163
:100FA0009205109193052091940530919505DC01EF
:100FB000CB01801B910BA20BB30B21E0C816D90605
:100FC000EA06FB0608F020E0822F1F910F91FF90A8
:100FD000EF90DF90CF900895DC01ED91FC910684B5
:100FE000F785E02D40E0199461E085E497E00E94E8
:100FF000EC078BE39FE10197F1F708958F929F92A1
:10100000AF92BF92CF92DF92EF92FF920F931F9316
:10101000CF93DF93EC01423018F08C8188608C8391
:101020004F836887222329F0413019F48C81846032
:101030008C830E94EF0B6B017C0184E6882E912C3F
:10104000A12CB12C0E94EF0BDC01CB018C199D0966
:10105000AE09BF09883E9340A105B10598F321E090
:10106000821A9108A108B10888EEC80E83E0D81E44
:10107000E11CF11C81149104A104B10419F76C81E5
:1010800064FD31C0E881F9810684F785E02D42E0F6
:1010900063E0CE0119958BE496E40197F1F7E881BE
:1010A000F9810684F785E02D42E063E0CE011995D1
:1010B00003E512E0C8010197F1F7E881F9810684A0
:1010C000F785E02D42E063E0CE011995C801019754
:1010D000F1F7E881F9810684F785E02D42E062E0CE
:1010E000CE01199517C06062CE010E94EC078BE417
:1010F00096E40197F1F76C816062CE010E94EC07E3
:1011000003E512E0C8010197F1F76C816062CE013E
:101110000E94EC07C8010197F1F76C816062CE0173
:101120000E94EC078BEE90E00197F1F784E08D834D
:101130006CE0CE010E94EC0761E0CE010E94EC075A
:101140008BE39FE10197F1F782E08E8366E0CE01A9
:101150000E94EC07E881F9810484F585E02D6FEFAA
:10116000CE01DF91CF911F910F91FF90EF90DF9013
:10117000CF90BF90AF909F908F901994CF93E8EA53
:10118000F6E0A089B189C2E0CC93A485B5851C9214
:10119000A685B7858FEC8C93108EA489B58986E0DF
:1011A0008C93A289B3898C9180618C93A289B38935
:1011B0008C9188608C93A289B3898C9180688C9380
:1011C0000288F389E02D80818F7D808320E042E0DA
:1011D00060E185E497E00E94FE0762E085E497E025
:1011E0000E94EC078BE39FE10197F1F70E94F4075F
:1011F00063EA72E080E00E94360A64EB72E081E00C
:101200000E94360A109242051092410562E086E083
:101210000E94B30B62E083E00E94B30B62E082E0C5
:101220000E94B30B62E085E00E94B30B62E084E0B1
:101230000E94B30B0E943605EBE1F5E0C18384EF19
:1012400091E0958784878EE090E09787868784E099
:1012500090E0918B808B8EE08383C2838EE190E05F
:10126000918780878CEF828B84E190E097838683DF
:10127000CF91089590E0FC013197E231F10508F03B
:101280004EC08827EA56FF4F8F4F0C94442480911C
:1012900080008F7703C0809180008F7D80938000D5
:1012A000089580918000877FF9CF84B58F7702C041
:1012B00084B58F7D84BD08958091B0008F7703C081
:1012C0008091B0008F7D8093B00008958091900050
:1012D0008F7707C0809190008F7D03C08091900030
:1012E000877F8093900008958091A0008F7707C03A
:1012F0008091A0008F7D03C08091A000877F8093A4
:10130000A0000895809120018F7707C0809120016F
:101310008F7D03C080912001877F809320010895F5
:10132000FC01808191810C94FF24FC014481558152
:101330006081718188EA96E00C94F401CF93DF9389
:10134000EC01FB0144815581608171810E94190487
:10135000811103C0CE010E944704CE01DF91CF91DD
:1013600008950F931F93CF93DF93CDB7DEB76297A6
:101370000FB6F894DEBF0FBECDBF8C01CB01F801D4
:101380001182108213821282158214824AE0BE01F9
:101390006F5F7F4F0E94AB23BE016F5F7F4FC8011D
:1013A0000E94930462960FB6F894DEBF0FBECDBFC5
:1013B000DF91CF911F910F9108950F931F93CF93BA
:1013C000DF93CDB7DEB761970FB6F894DEBF0FBEDF
:1013D000CDBF8C01CB01F8011182108213821282E1
:1013E000158214824AE0BE016F5F7F4F0E94B623D0
:1013F000BE016F5F7F4FC8010E94930461960FB6D4
:10140000F894DEBF0FBECDBFDF91CF911F910F913A
:1014100008950F931F93CF93DF93CDB7DEB729972E
:101420000FB6F894DEBF0FBECDBF8C01862FF8013A
:101430001182108213821282158214824AE0BE0148
:101440006F5F7F4F90E00E94B623BE016F5F7F4FBA
:10145000C8010E94930429960FB6F894DEBF0FBE10
:10146000CDBFDF91CF911F910F9108950F931F93DF
:10147000CF93DF93CDB7DEB728970FB6F894DEBFD2
:101480000FBECDBF8B0140910602509107026091C3
:101490000802709109024D835E836F8378874091C3
:1014A0000A0250910B0260910C0270910D02498367
:1014B0005A836B837C8320914C07821710F08FEF47
:1014C000820F30914D0790E0FE01E80FF91F303197
:1014D00021F4243011F4618101C06581606885E4E4
:1014E00097E00E94EC07B80185E497E028960FB6D4
:1014F000F894DEBF0FBECDBFDF91CF911F910F914A
:101500000C94D4048F929F92AF92BF920F931F932B
:10151000CF93DF93CDB7DEB7A1970FB6F894DEBFB8
:101520000FBECDBF19A2423008F44AE08E010F5D14
:101530001F4F842E912CA12CB12CA50194010E9447
:10154000FF23E62FB901CA0101501109EA3014F452
:10155000E05D01C0E95CD801EC93232B242B252B03
:1015600061F7B80188EA96E00E94BF04A1960FB621
:10157000F894DEBF0FBECDBFDF91CF911F910F91C9
:10158000BF90AF909F908F900895CF92DF92EF928F
:10159000FF92CF93DF936C01990FEE08FF08F7FEDF
:1015A00013C06DE288EA96E00E948702EC0166278C
:1015B0007727CB016C197D098E099F094AE00E94AB
:1015C000820AC80FD91F06C04AE0C701B6010E94AF
:1015D000820AEC016CE572E088EA96E00E94BF04A2
:1015E0008C0F9D1FDF91CF91FF90EF90DF90CF90F8
:1015F0000895CF93DF93BC0180E090E04AE00E9421
:10160000820AEC016CE572E088EA96E00E94BF0471
:101610008C0F9D1FDF91CF910895CF93DF93BC0175
:1016200088EA96E00E94BF04EC016CE572E088EA6B
:1016300096E00E94BF048C0F9D1FDF91CF9108950B
:10164000CF93DF93282F30E0F901E65CFC4F8491C3
:10165000F901EC50FD4FD491F901E255FD4FC491D1
:10166000CC2391F081110E943A09EC2FF0E0EE0FAB
:10167000FF1FEC56FD4FA591B491EC91ED2381E055
:1016800090E021F480E002C080E090E0DF91CF9113
:1016900008951F93CF93DF93282F30E0F901E65C84
:1016A000FC4F8491F901EC50FD4FD491F901E255C2
:1016B000FD4FC491CC23C1F0162F81110E943A092D
:1016C000EC2FF0E0EE0FFF1FE658FD4FA591B4910F
:1016D0009FB7F894111104C08C91D095D82302C003
:1016E000EC91DE2BDC939FBFDF91CF911F9108958A
:1016F000AF92BF92CF92DF92EF92FF920F931F9320
:10170000CF93DF938C015C018EE0A80EB11CC42E38
:10171000D12CC0E0D0E0E62EF12CCC15DD0579F01F
:10172000B7010C2E02C0759567950A94E2F76170B7
:10173000F50181915F010E94490B2196EECF61E096
:10174000F80185850E94490B60E0F8018585DF91ED
:10175000CF911F910F91FF90EF90DF90CF90BF90AE
:10176000AF900C94490BCF93DF9390E0FC01EC50C9
:10177000FD4F2491FC01E255FD4F8491882361F1D6
:1017800090E0880F991FFC01E05AFD4FC591D4915C
:10179000FC01E658FD4FA591B491611109C09FB7B6
:1017A000F8948881209582238883EC912E230BC0A6
:1017B000623061F49FB7F8948881322F309583238B
:1017C0008883EC912E2B2C939FBF06C08FB7F89483
:1017D000E8812E2B28838FBFDF91CF9108953FB7EB
:1017E000F8948091610790916207A0916307B0918E
:1017F000640726B5A89B05C02F3F19F00196A11DCF
:10180000B11D3FBFBA2FA92F982F8827820F911D96
:10181000A11DB11DBC01CD0142E0660F771F881FDD
:10182000991F4A95D1F708952FB7F89460915D07F5
:1018300070915E0780915F07909160072FBF0895B8
:101840001F920F920FB60F9211242F933F938F93F5
:101850009F93AF93BF9380915D0790915E07A09196
:101860005F07B091600730915C0723E0230F2D37AD
:1018700020F40196A11DB11D05C026E8230F029694
:10188000A11DB11D20935C0780935D0790935E07B7
:10189000A0935F07B0936007809161079091620702
:1018A000A0916307B09164070196A11DB11D8093BB
:1018B000610790936207A0936307B0936407BF9199
:1018C000AF919F918F913F912F910F900FBE0F90ED
:1018D0001F901895CF93DF93CDB7DEB7C554D109CC
:1018E0000FB6F894DEBF0FBECDBF789484B582608A
:1018F00084BD84B5816084BD85B5826085BD85B5B4
:10190000816085BD80916E00816080936E00109231
:1019100081008091810082608093810080918100AC
:10192000816080938100809180008160809380003D
:101930008091B10084608093B1008091B00081609B
:101940008093B0008091910082608093910080919B
:1019500091008160809391008091900081608093DC
:1019600090008091A10082608093A1008091A100ED
:1019700081608093A1008091A00081608093A0008D
:1019800080912101826080932101809121018160F9
:1019900080932101809120018160809320018091BA
:1019A0007A00846080937A0080917A0082608093CC
:1019B0007A0080917A00816080937A0080917A0029
:1019C000806880937A001092C1000E94BE08109235
:1019D000500510924F0510926C0510926E051092F2
:1019E000700510926F0582E090E090937A058093E5
:1019F000790510927605109275051092780510926F
:101A00007705E091B806F091B9068083E091B406BD
:101A1000F091B5061082E091B606F091B70680E12C
:101A200080831092C006E091BC06F091BD0686E06E
:101A30008083E091BA06F091BB068081806180834B
:101A4000E091BA06F091BB06808188608083E091C6
:101A5000BA06F091BB06808180688083E091BA0667
:101A6000F091BB0680818F7D808381E08093480563
:101A70001092430584E690E0A0E0B0E08093440536
:101A800090934505A0934605B093470564E372E043
:101A9000CE0101960E94AA0468E372E0CE0141964D
:101AA0000E94AA0467E572E0CE0181960E94AA0412
:101AB00060E070E0CE0187960E94B10961E070E0BD
:101AC000CE018D960E94B10964E472E0CE01C39606
:101AD0000E94AA046DE472E0CE01CF960E94AA048F
:101AE0001AAE19AE1CAE1BAE1EAE1DAE21966EAD6B
:101AF0007FAD21976115710541F025964EAD5FAD23
:101B00002597CE01C9960E947204BE016D5C7F4F7D
:101B1000CE01C9960E949E09BE01635D7F4F0E945F
:101B20009E096AE572E00E945904BE01695D7F4F1B
:101B30000E949E09BE016F5D7F4F0E949E09BE01FB
:101B40006F5E7F4F0E949E09BE016F5F7F4F0E94B4
:101B50009E090E9495096CE572E088EA96E00E9471
:101B6000BF04CE01C9960E949009CE01CF960E9473
:101B70009009CE01C3960E949009CE018D960E94D5
:101B80009009CE0187960E949009CE0181960E940D
:101B90009009CE0141960E949009CE0101960E94C3
:101BA000900961E08DE00E94B30B53E0E52EF12C2B
:101BB00062E0C62ED12C01E010E070E6472E7AEEEE
:101BC000572E612C712CEAE12E2E312C8091490583
:101BD00090914A058130910561F030F08230910595
:101BE00041F0039731F009C0F0924A05E0924905AF
:101BF00004C010924A051092490580914F059091BA
:101C000050058130910519F158F0029709F079C01B
:101C10001092500510924F05E5E5F5E09F0154C084
:101C20000E94140C80904B0590904C05A0904D059F
:101C3000B0904E05DC01CB0188199909AA09BB09AE
:101C4000C397A105B10508F45CC00C94EE22D092B4
:101C50005005C0924F0590906B05A92CB12C809136
:101C60007B00877F80937B0080E480937C00809161
:101C70007A00806480937A0080917A0086FDFCCFA0
:101C8000A091780080917900B0E0B82BC501880F51
:101C9000991F9C012B5A3A4F590124E630E00E94CB
:101CA0004C242FEF33E040E050E00E94E023D501C8
:101CB0002D933C93892D90E001966AE070E00E949C
:101CC000302480936B051DC0D9018D919D919D019C
:101CD0006AE070E00E943024B5E029363B07A1F7A6
:101CE00070936A056093690581919191861B970BAA
:101CF0000B973CF425E0E936F207B1F781E08093D9
:101D00006C052091790530917A052130310509F46F
:101D1000EDC080F02230310509F0D0C180912E0550
:101D2000882309F4CBC110922E0580912F058111D3
:101D300009C0E6C080912E05882361F010922E051F
:101D400080912F05813009F0B9C110937A05009375
:101D50007905B0C180917505909176058230910525
:101D600009F44BC050F4009781F0019709F0CCC002
:101D7000D0927605C09275057DC08330910509F437
:101D800073C0049709F479C0BFC080916D058823A2
:101D900009F494C1109376050093750530913005D0
:101DA00026963FAF269720913105832F90E001962C
:101DB000289F4001299F900C1124092C000CAA088F
:101DC000BB08C301B201A50194010E94E023309336
:101DD00054052093530526964FAD2697242F30E0C7
:101DE000A0E6BAEE0E942124A50194010E94E023FE
:101DF000309352052093510561C1E0916B05F0E0ED
:101E0000EE0FFF1FEB5AFA4FA080B180B0927D0514
:101E1000A0927C0580916C05882331F010926C05AE
:101E2000B0928105A092800580913605909137058A
:101E3000A816B9062CF4F0927605E09275053EC11D
:101E4000609153057091540580E090E00E94B807BE
:101E5000882309F433C1F0927605E0927505B092BB
:101E60007F05A0927E05DAC084E090E0909376052D
:101E7000809375050E94AC0721C1E0916B05F0E0ED
:101E8000EE0FFF1FEB5AFA4F8081918190937D05F1
:101E900080937C0520916C05222331F010926C0513
:101EA000909383058093820520916D05222309F488
:101EB00005C120914005022E000C330B82179307B9
:101EC0002CF41093760500937505F8C060915105C8
:101ED0007091520580E090E00E94B807882309F4D1
:101EE000EDC01093760500937505DFC080912E0537
:101EF000882379F010922E0580912F058111DEC084
:101F000010927A0510927905109276051092750557
:101F1000D5C080917705909178058230910509F4BC
:101F20004BC050F4009781F0019709F0C3C0D092E4
:101F30007805C09277059ECF8330910509F478C06B
:101F4000049709F47CC0B6C080916D05882309F41C
:101F5000B5C030937805209377059091300526968B
:101F60009FAF269720913105892F90E00196289FF9
:101F70004001299F900C1124092C000CAA08BB08D1
:101F8000C301B201A50194010E94E02330937405BE
:101F9000209373052696AFAD26972A2F30E0A0E652
:101FA000BAEE0E942124A50194010E94E0233093FF
:101FB00072052093710582C0E0916B05F0E0EE0F91
:101FC000FF1FEB5AFA4F8081918190937D0580939A
:101FD0007C0520916C05222331F010926C059093C2
:101FE0008105809380052091360530913705821751
:101FF00093072CF4F0927805E09277055FC060912A
:1020000073057091740580E090E00E94B807882302
:1020100009F454C0F0927805E092770580916F053D
:10202000909170059927909387058093860546C007
:10203000E4E0F0E0F0937805E09377051BCFE091C2
:102040006B05F0E0EE0FFF1FEB5AFA4F8081918194
:1020500090937D0580937C0520916C05222331F0BF
:1020600010926C05909383058093820520916D05F5
:10207000222321F120914005022E000C330B821700
:1020800093072CF4109378050093770517C060919F
:1020900071057091720580E090E00E94B807882376
:1020A00069F0109378050093770580916E05809311
:1020B0007B0504C01092780510927705198A198261
:1020C000E0914105F0914205E432F10510F00C94E5
:1020D00089218827EE58FF4F8F4F0C94442482E0CB
:1020E0000E947605882311F40C948D210E94F40738
:1020F0006FE572E080E00E94360A60E772E081E0FE
:102100000E94360A10934205009341050E9436054D
:102110000C948D2186E00E947605882359F061E8B1
:1021200072E081E00E94360AF0924205E092410599
:102130000C948D2183E00E947605882359F062E992
:1021400072E081E00E94360AD0924205C0924105B9
:102150000C948D2185E00E947605882369F082E049
:1021600080932F0581E290E0909342058093410592
:102170000E9436050C948D2184E00E947605882308
:1021800081F063EA72E080E00E94360A64EB72E05C
:1021900081E00E94360A10924205109241050C948B
:1021A0008D2164EF71E080E090E00E944205882379
:1021B00011F40C948D2124E030E0309342052093FB
:1021C000410568E474E081E00E94360A0E94360509
:1021D0000C948D2186E00E9476058111A0CF83E0CA
:1021E0000E9476058111ABCF85E00E9476058111B2
:1021F000B6CF84E00E9476058111C3CF6AEF70E00C
:1022000080E090E00E944205882311F40C948D2117
:1022100060E772E081E00E94360A10934205009365
:1022200041050E9436050C948D2186E00E947605BA
:10223000882359F060E772E081E00E94360A10932B
:102240004205009341050C948D2183E00E947605A0
:10225000811165CF85E00E947605882389F062E9C7
:1022600072E081E00E94360A10922F0587E090E02C
:1022700090934205809341050E9436050C948D2170
:1022800084E00E94760581117CCF64EF71E080E0EC
:1022900090E00E944205882311F40C948D2185E082
:1022A00090E0909342058093410568E474E081E0FA
:1022B0000E94360A0E9436050C948D2186E00E9409
:1022C00076058111B7CF83E00E947605811127CF73
:1022D00085E00E9476058111C2CF84E00E947605D8
:1022E00081114FCF6AEF70E080E090E00E944205DC
:1022F000882311F40C948D21D0924205C09241059F
:1023000062E972E081E00E94360A0E9436050C9470
:102310008D2186E00E947605811111CF83E00E9415
:102320007605811187CF85E00E947605882391F09C
:1023300061E872E081E00E94360A81E080932F0517
:1023400087E090E090934205809341050E94360516
:102350000C948D2184E00E947605811112CF64EFE8
:1023600071E080E090E00E944205882311F40C9413
:102370008D2186E090E0909342058093410568E4CA
:1023800074E081E00E94360A0E9436050C948D218B
:1023900086E00E9476058111D2CE83E00E94760508
:1023A000811148CF85E00E9476058111C1CF84E07C
:1023B0000E9476058111E5CE6AEF70E080E090E042
:1023C0000E944205882311F40C948D21F09242055D
:1023D000E092410561E872E081E00E94360A0E94C5
:1023E00036050C948D2164EF71E080E090E00E944E
:1023F0004205882311F40C948D2180912F058130A2
:1024000039F50E94F40765EC72E080E00E94360A1C
:102410004AE0BE016F5E7F4F8091210590912205B9
:102420000E94AB2366ED72E0CE0141960E947B26AE
:10243000BE016F5E7F4F81E00E94360A8BE090E024
:1024400090934205809341050E9436050C948D219E
:1024500081110C948D210E94F4076DED72E080E0F3
:102460000E94360A4AE0BE016F5E7F4F80912705C9
:10247000909128050E94AB236EEE72E0CE0141964A
:102480000E947B26BE016F5E7F4F81E00E94360A6C
:1024900088E090E090934205809341050E943605C4
:1024A0000C948D2186E00E947605882339F1809175
:1024B0002105909122058832910514F4019602C0FD
:1024C00088E290E090932205809321054AE0BE01C6
:1024D0006F5E7F4F80912105909122050E94AB2372
:1024E00066ED72E0CE0141960E947B26BE016F5ED2
:1024F0007F4F81E00E94360A0C948D2183E00E9478
:102500007605882349F18091210590912205863036
:10251000910534F00197909322058093210504C022
:1025200010932205009321054AE0BE016F5E7F4FA4
:1025300080912105909122050E94AB2366ED72E007
:10254000CE0141960E947B26BE016F5E7F4F81E0E7
:102550000E94360A0C948D2185E00E94760588231E
:1025600041F14AE0BE016F5E7F4F8091210590915D
:1025700022050E94AB2366ED72E0CE0141960E94D7
:102580007B26BE016F5E7F4F81E00E94360A8091FC
:1025900021059091220590933505809334058DE0B7
:1025A00090E090934205809341050E9436050C947B
:1025B0008D2184E00E947605811198CD64EF71E051
:1025C00080E090E00E944205882311F40C948D2154
:1025D0008CE090E0909342058093410568E474E0BC
:1025E00081E00E94360A0E9436050C948D2186E017
:1025F0000E947605882341F1809121059091220562
:10260000883291053CF420912705309128052F5FF1
:102610003F4F02C028E230E0309328052093270581
:102620004AE0BE016F5E7F4F0E94AB2366ED72E011
:10263000CE0141960E947B26BE016F5E7F4F81E0F6
:102640000E94360A0C948D2183E00E94760588232F
:1026500039F180912705909128058630910510F079
:10266000019702C085E090E09093280580932705AC
:102670004AE0BE016F5E7F4F809121059091220557
:102680000E94AB2366ED72E0CE0141960E947B264C
:10269000BE016F5E7F4F81E00E94360A0C948D214F
:1026A00085E00E947605882341F14AE0BE016F5E15
:1026B0007F4F80912105909122050E94AB2366ED0A
:1026C00072E0CE0141960E947B26BE016F5E7F4F75
:1026D00081E00E94360A8091210590912205909315
:1026E0003505809334058DE090E09093420580930A
:1026F00041050E9436050C948D2184E00E947605E8
:102700008111F4CC6AEF70E080E090E00E94420515
:10271000882311F40C948D214AE0BE016F5E7F4F37
:1027200080912105909122050E94AB2366ED72E015
:10273000CE0141960E947B26BE016F5E7F4F81E0F5
:102740000E94360A8BE090E0909342058093410509
:102750000E9436050C948D2164EF71E080E090E0DA
:102760000E944205882311F40C948D210E94F407E5
:1027700061EF72E080E00E94360A4AE0BE016F5EBF
:102780007F4F8091290590912A050E94AB2362E03A
:1027900073E0CE0141960E947B26BE016F5E7F4FA3
:1027A00081E00E94360A8EE090E09093420580938B
:1027B00041050E9436050C948D2186E00E94760525
:1027C000882341F18091270590912805803233E0DC
:1027D000930710F4C29602C080E293E0909328051C
:1027E000809327054AE0BE016F5E7F4F80912705E9
:1027F000909128050E94AB236EEE72E0CE014196C7
:102800000E947B26BE016F5E7F4F81E00E94360AE8
:102810000C948D2183E00E947605882341F18091FC
:102820002705909128058D3241E0940710F0C2975A
:1028300002C08CE291E090932805809327054AE03E
:10284000BE016F5E7F4F80912705909128050E9401
:10285000AB236EEE72E0CE0141960E947B26BE0154
:102860006F5E7F4F81E00E94360A0C948D2185E0D7
:102870000E947605882341F14AE0BE016F5E7F4FDA
:1028800080912705909128050E94AB236EEE72E09F
:10289000CE0141960E947B26BE016F5E7F4F81E094
:1028A0000E94360A809127059091280590933B0558
:1028B00080933A058AE090E0909342058093410529
:1028C0000E9436050C948D2184E00E9476058111CA
:1028D0000DCC64EF71E080E090E00E944205882317
:1028E00011F40C948D2189E090E09093420580933F
:1028F000410568E474E081E00E94360A0E943605D2
:102900000C948D2186E00E947605882341F1809108
:102910002705909128058032A3E09A0710F4C2960B
:1029200002C080E293E090932805809327054AE057
:10293000BE016F5E7F4F80912705909128050E9410
:10294000AB236EEE72E0CE0141960E947B26BE0163
:102950006F5E7F4F81E00E94360A0C948D2183E0E8
:102960000E947605882341F18091270590912805E2
:102970008D32B1E09B0710F0C29702C08CE291E06B
:1029800090932805809327054AE0BE016F5E7F4F34
:1029900080912705909128050E94AB236EEE72E08E
:1029A000CE0141960E947B26BE016F5E7F4F81E083
:1029B0000E94360A0C948D2185E00E9476058823BA
:1029C00041F14AE0BE016F5E7F4F809127059091F3
:1029D00028050E94AB236EEE72E0CE0141960E9464
:1029E0007B26BE016F5E7F4F81E00E94360A809198
:1029F00027059091280590933B0580933A05EAE0DE
:102A0000F0E0F0934205E09341050E9436050C94F6
:102A10008D2184E00E947605811168CB6AEF70E019
:102A200080E090E00E944205882311F40C948D21EF
:102A30004AE0BE016F5E7F4F809127059091280587
:102A40000E94AB236EEE72E0CE0141960E947B267F
:102A5000BE016F5E7F4F81E00E94360A88E090E001
:102A600090934205809341050E9436050C948D2178
:102A700064EF71E080E090E00E944205882311F449
:102A80000C948D210E94F40761EF72E080E00E94B7
:102A9000360A4AE0BE016F5E7F4F80912905909112
:102AA0002A050E94AB2362E073E0CE0141960E94AA
:102AB0007B26BE016F5E7F4F81E00E94360A8EE06A
:102AC00090E090934205809341050E9436050C9456
:102AD0008D2186E00E947605882339F180912905B1
:102AE00090912A058431910510F4019602C084E189
:102AF00090E090932A05809329054AE0BE016F5E1D
:102B00007F4F8091290590912A050E94AB2362E0B6
:102B100073E0CE0141960E947B26BE016F5E7F4F1F
:102B200081E00E94360A0C948D2183E00E94760594
:102B3000882339F18091290590912A058D309105DE
:102B400010F0019702C08CE090E090932A058093EA
:102B500029054AE0BE016F5E7F4F80912905909163
:102B60002A050E94AB2362E073E0CE0141960E94E9
:102B70007B26BE016F5E7F4F81E00E94360A0C9477
:102B80008D2185E00E947605882341F14AE0BE014F
:102B90006F5E7F4F8091290590912A050E94AB239B
:102BA00062E073E0CE0141960E947B26BE016F5E1B
:102BB0007F4F81E00E94360A8091290590912A0575
:102BC00090933D0580933C0580E190E09093420511
:102BD000809341050E9436050C948D2184E00E946B
:102BE0007605882339F10E94F4076DED72E080E0EC
:102BF0000E94360A4AE0BE016F5E7F4F8091270532
:102C0000909128050E94AB236EEE72E0CE014196B2
:102C10000E947B26BE016F5E7F4F81E00E94360AD4
:102C200088E090E090934205809341050E9436052C
:102C30000C948D2164EF71E080E090E00E944205E9
:102C4000882311F40C948D218FE090E0909342053D
:102C50008093410568E474E081E00E94360A0E9496
:102C600036050C948D2186E00E947605882339F183
:102C70008091290590912A058431910510F40196DF
:102C800002C084E190E090932A05809329054AE0F0
:102C9000BE016F5E7F4F8091290590912A050E94A9
:102CA000AB2362E073E0CE0141960E947B26BE0119
:102CB0006F5E7F4F81E00E94360A0C948D2183E085
:102CC0000E947605882339F18091290590912A0583
:102CD0008D30910510F0019702C08CE090E0909348
:102CE0002A05809329054AE0BE016F5E7F4F8091DF
:102CF000290590912A050E94AB2362E073E0CE0182
:102D000041960E947B26BE016F5E7F4F81E00E944C
:102D1000360A0C948D2185E00E947605882341F1C6
:102D20004AE0BE016F5E7F4F8091290590912A0590
:102D30000E94AB2362E073E0CE0141960E947B26A5
:102D4000BE016F5E7F4F81E00E94360A80912905A7
:102D500090912A0590933D0580933C0580E190E099
:102D600090934205809341050E9436050C948D2175
:102D700084E00E947605882339F10E94F4076DED06
:102D800072E080E00E94360A4AE0BE016F5E7F4F2B
:102D900080912705909128050E94AB236EEE72E08A
:102DA000CE0141960E947B26BE016F5E7F4F81E07F
:102DB0000E94360A88E090E0909342058093410596
:102DC0000E9436050C948D2164EF71E080E090E064
:102DD0000E944205882311F40C948D214AE0BE0123
:102DE0006F5E7F4F8091290590912A050E94AB2349
:102DF00062E073E0CE0141960E947B26BE016F5EC9
:102E00007F4F81E00E94360A8EE090E09093420569
:102E1000809341050E9436050C948D2164EF71E08A
:102E200080E090E00E944205882311F40C948D21EB
:102E30000E94F40766E073E080E00E94360A4AE0F0
:102E4000BE016F5E7F4F8091290590912A050E94F7
:102E5000AB2362E073E0CE0141960E947B26BE0167
:102E60006F5E7F4F81E00E94360A81E190E090938F
:102E70004205809341050E9436050C948D2186E021
:102E80000E947605882339F18091290590912A05C1
:102E90008530910510F4019602C085E090E0909392
:102EA0002A05809329054AE0BE016F5E7F4F80911D
:102EB000290590912A050E94AB2362E073E0CE01C0
:102EC00041960E947B26BE016F5E7F4F81E00E948B
:102ED000360A0C948D2183E00E947605882349F1FF
:102EE0008091290590912A058230910530F0019753
:102EF00090932A058093290504C010932A05009316
:102F000029054AE0BE016F5E7F4F809129059091AF
:102F10002A050E94AB2362E073E0CE0141960E9435
:102F20007B26BE016F5E7F4F81E00E94360A0C94C3
:102F30008D2185E00E947605882341F14AE0BE019B
:102F40006F5E7F4F8091290590912A050E94AB23E7
:102F500062E073E0CE0141960E947B26BE016F5E67
:102F60007F4F81E00E94360A8091290590912A05C1
:102F700090933D0580933C0583E190E0909342055A
:102F8000809341050E9436050C948D2184E00E94B7
:102F90007605882339F10E94F40761EF72E080E042
:102FA0000E94360A4AE0BE016F5E7F4F809129057C
:102FB00090912A050E94AB2362E073E0CE01419616
:102FC0000E947B26BE016F5E7F4F81E00E94360A21
:102FD0008EE090E090934205809341050E94360573
:102FE0000C948D2164EF71E080E090E00E94420536
:102FF000882311F40C948D2182E190E09093420596
:103000008093410568E474E081E00E94360A0E94E2
:1030100036050C948D2186E00E947605882339F1CF
:103020008091290590912A058530910510F401962B
:1030300002C085E090E090932A05809329054AE03C
:10304000BE016F5E7F4F8091290590912A050E94F5
:10305000AB2362E073E0CE0141960E947B26BE0165
:103060006F5E7F4F81E00E94360A0C948D2183E0D1
:103070000E947605882349F18091290590912A05BF
:103080008230910530F0019790932A0580932905AD
:1030900004C010932A05009329054AE0BE016F5E23
:1030A0007F4F8091290590912A050E94AB2362E011
:1030B00073E0CE0141960E947B26BE016F5E7F4F7A
:1030C00081E00E94360A0C948D2185E00E947605ED
:1030D000882341F14AE0BE016F5E7F4F8091290550
:1030E00090912A050E94AB2362E073E0CE014196E5
:1030F0000E947B26BE016F5E7F4F81E00E94360AF0
:103100008091290590912A0590933D0580933C0577
:1031100083E190E090934205809341050E9436053B
:103120000C948D2184E00E947605882339F10E9459
:10313000F40761EF72E080E00E94360A4AE0BE01C7
:103140006F5E7F4F8091290590912A050E94AB23E5
:1031500062E073E0CE0141960E947B26BE016F5E65
:103160007F4F81E00E94360A8EE090E09093420506
:10317000809341050E9436050C948D2164EF71E027
:1031800080E090E00E944205882311F40C948D2188
:103190004AE0BE016F5E7F4F8091290590912A051C
:1031A0000E94AB2362E073E0CE0141960E947B2631
:1031B000BE016F5E7F4F81E00E94360A81E190E0A0
:1031C00090934205809341050E9436050C948D2111
:1031D00064EF71E080E090E00E944205882311F4E2
:1031E0000C948D210E94F40767E173E080E00E9457
:1031F000360A80911E054AE0BE016F5E7F4F90E067
:103200000E94AB2367E574E0CE0141960E947B26C5
:10321000BE016F5E7F4F81E00E94360A84E190E03C
:1032200090934205809341050E9436050C948D21B0
:1032300086E00E947605882301F180911E058E317B
:1032400010F48F5F01C08EE180931E0580911E05F2
:103250004AE0BE016F5E7F4F90E00E94AB2367E5BE
:1032600074E0CE0141960E947B26BE016F5E7F4FC7
:1032700081E00E94360A0C948D2183E00E9476053D
:10328000882301F180911E05863010F0815001C025
:1032900085E080931E0580911E054AE0BE016F5EA9
:1032A0007F4F90E00E94AB2367E574E0CE0141962A
:1032B0000E947B26BE016F5E7F4F81E00E94360A2E
:1032C0000C948D2185E00E947605882319F1809168
:1032D0001E054AE0BE016F5E7F4F90E00E94AB2367
:1032E00067E574E0CE0141960E947B26BE016F5EC9
:1032F0007F4F81E00E94360A80911E058093310540
:1033000086E190E090934205809341050E94360546
:103310000C948D2184E00E947605882331F10E946F
:10332000F40766E073E080E00E94360A4AE0BE01DE
:103330006F5E7F4F8091290590912A050E94AB23F3
:1033400067E574E0CE0141960E947B26BE016F5E68
:103350007F4F81E00E94360A81E190E09093420520
:10336000809341050E943605D8C764EF71E080E084
:1033700090E00E944205882309F4CFC785E190E0E0
:10338000909342058093410568E474E081E00E94D7
:10339000360A0E943605C1C786E00E94760588235A
:1033A000F9F080911E058E3110F48F5F01C08EE11F
:1033B00080931E0580911E054AE0BE016F5E7F4F1F
:1033C00090E00E94AB2367E574E0CE0141960E9435
:1033D0007B26BE016F5E7F4F81E00E94360A9DC74B
:1033E00083E00E9476058823F9F080911E058630DF
:1033F00010F0815001C085E080931E0580911E056C
:103400004AE0BE016F5E7F4F90E00E94AB2367E50C
:1034100074E0CE0141960E947B26BE016F5E7F4F15
:1034200081E00E94360A79C785E00E9476058823EC
:1034300011F180911E054AE0BE016F5E7F4F90E062
:103440000E94AB2367E574E0CE0141960E947B2683
:10345000BE016F5E7F4F81E00E94360A80911E059B
:103460008093310586E190E0909342058093410579
:103470000E94360552C784E00E947605882331F108
:103480000E94F40766E073E080E00E94360A4AE09A
:10349000BE016F5E7F4F8091290590912A050E94A1
:1034A000AB2367E574E0CE0141960E947B26BE0106
:1034B0006F5E7F4F81E00E94360A81E190E0909339
:1034C0004205809341050E94360527C764EF71E0ED
:1034D00080E090E00E944205882309F41EC7809195
:1034E0001E054AE0BE016F5E7F4F90E00E94AB2355
:1034F00067E574E0CE0141960E947B26BE016F5EB7
:103500007F4F81E00E94360A84E190E0909342056B
:10351000809341050E94360500C764EF71E080E0AA
:1035200090E00E944205882309F4F7C60E94F40740
:1035300068E273E080E00E94360A69E373E0CE013E
:1035400041960E947B2680911D054AE0BE016F5F77
:103550007F4F90E00E94AB23BE016F5F7F4FCE0193
:1035600041960E947B2667E574E0CE0141960E9459
:103570007B26BE016F5E7F4F81E00E94360A87E1A5
:1035800090E090934205809341050E943605C5C6A0
:1035900086E00E947605882361F180911D058430C4
:1035A00010F48F5F01C084E080931D0569E373E030
:1035B000CE0141960E947B2680911D054AE0BE0106
:1035C0006F5F7F4F90E00E94AB23BE016F5F7F4F24
:1035D000CE0141960E947B2667E574E0CE014196BC
:1035E0000E947B26BE016F5E7F4F81E00E94360AFB
:1035F00094C683E00E947605882361F180911D05C1
:10360000823010F0815001C081E080931D0569E394
:1036100073E0CE0141960E947B2680911D054AE011
:10362000BE016F5F7F4F90E00E94AB23BE016F5FD2
:103630007F4FCE0141960E947B2667E574E0CE0164
:1036400041960E947B26BE016F5E7F4F81E00E9403
:10365000360A63C685E00E947605882379F169E31E
:1036600073E0CE0141960E947B2680911D054AE0C1
:10367000BE016F5F7F4F90E00E94AB23BE016F5F82
:103680007F4FCE0141960E947B2667E574E0CE0114
:1036900041960E947B26BE016F5E7F4F81E00E94B3
:1036A000360A80911D058093300589E190E0909362
:1036B0004205809341050E9436052FC684E00E9492
:1036C0007605882329F10E94F40767E173E080E022
:1036D0000E94360A80911E054AE0BE016F5E7F4F50
:1036E00090E00E94AB2367E574E0CE0141960E9412
:1036F0007B26BE016F5E7F4F81E00E94360A84E127
:1037000090E090934205809341050E94360505C6DE
:1037100064EF71E080E090E00E944205882309F4A4
:10372000FCC588E190E0909342058093410568E4F0
:1037300074E081E00E94360A0E943605EEC586E0FC
:103740000E947605882361F180911D05843010F474
:103750008F5F01C084E080931D0569E373E0CE01B3
:1037600041960E947B2680911D054AE0BE016F5F55
:103770007F4F90E00E94AB23BE016F5F7F4FCE0171
:1037800041960E947B2667E574E0CE0141960E9437
:103790007B26BE016F5E7F4F81E00E94360ABDC569
:1037A00083E00E947605882361F180911D058230B7
:1037B00010F0815001C081E080931D0569E373E042
:1037C000CE0141960E947B2680911D054AE0BE01F4
:1037D0006F5F7F4F90E00E94AB23BE016F5F7F4F12
:1037E000CE0141960E947B2667E574E0CE014196AA
:1037F0000E947B26BE016F5E7F4F81E00E94360AE9
:103800008CC585E00E947605882379F169E373E031
:10381000CE0141960E947B2680911D054AE0BE01A3
:103820006F5F7F4F90E00E94AB23BE016F5F7F4FC1
:10383000CE0141960E947B2667E574E0CE01419659
:103840000E947B26BE016F5E7F4F81E00E94360A98
:1038500080911D058093300589E190E090934205A9
:10386000809341050E94360558C584E00E94760584
:10387000882329F10E94F40767E173E080E00E9449
:10388000360A80911E054AE0BE016F5E7F4F90E0D0
:103890000E94AB2367E574E0CE0141960E947B262F
:1038A000BE016F5E7F4F81E00E94360A84E190E0A6
:1038B00090934205809341050E9436052EC564EF22
:1038C00071E080E090E00E944205882309F425C55C
:1038D00069E373E0CE0141960E947B2680911D052D
:1038E0004AE0BE016F5F7F4F90E00E94AB23BE01B4
:1038F0006F5F7F4FCE0141960E947B2667E574E0A3
:10390000CE0141960E947B26BE016F5E7F4F81E013
:103910000E94360A87E190E090934205809341052A
:103920000E943605FAC464EF71E080E090E00E94E6
:103930004205882309F4F1C40E94F4076CE373E0A4
:1039400080E00E94360A4AE0BE016F5E7F4F8091A0
:103950002305909124050E94AB2366ED72E0CE0111
:1039600041960E947B26BE016F5E7F4F81E00E94E0
:10397000360A30924205209241050E943605CDC498
:1039800086E00E947605882331F18091230590918D
:1039900024058733910514F4019602C087E390E073
:1039A00090932405809323054AE0BE016F5E7F4F0C
:1039B00080912305909124050E94AB2366ED72E06F
:1039C000CE0141960E947B26BE016F5E7F4F81E053
:1039D0000E94360AA2C483E00E947605882351F132
:1039E00080912305909124058432910534F001974C
:1039F000909324058093230506C023E230E03093A2
:103A00002405209323054AE0BE016F5E7F4F80911D
:103A10002305909124050E94AB2366ED72E0CE0150
:103A200041960E947B26BE016F5E7F4F81E00E941F
:103A3000360A73C485E00E947605882339F14AE08E
:103A4000BE016F5E7F4F80912305909124050E94F7
:103A5000AB2366ED72E0CE0141960E947B26BE014B
:103A60006F5E7F4F81E00E94360A8091230590911E
:103A7000240590933705809336058CE190E0909370
:103A80004205809341050E94360547C484E00E94A8
:103A90007605882391F10E94F40768E273E080E0E4
:103AA0000E94360A69E373E0CE0141960E947B26AC
:103AB00080911D054AE0BE016F5F7F4F90E00E943C
:103AC000AB23BE016F5F7F4FCE0141960E947B26E4
:103AD00067E574E0CE0141960E947B26BE016F5ED1
:103AE0007F4F81E00E94360A87E190E09093420583
:103AF000809341050E94360510C464EF71E080E0B8
:103B000090E00E944205882309F407C48BE190E00D
:103B1000909342058093410568E474E081E00E943F
:103B2000360A0E943605F9C386E00E94760588238E
:103B300031F180912305909124058733910514F488
:103B4000019602C087E390E09093240580932305BB
:103B50004AE0BE016F5E7F4F80912305909124055E
:103B60000E94AB2366ED72E0CE0141960E947B2657
:103B7000BE016F5E7F4F81E00E94360ACEC383E0B4
:103B80000E947605882351F18091230590912405A8
:103B90008432910534F00197909324058093230596
:103BA00006C043E250E050932405409323054AE0C9
:103BB000BE016F5E7F4F80912305909124050E9486
:103BC000AB2366ED72E0CE0141960E947B26BE01DA
:103BD0006F5E7F4F81E00E94360A9FC385E00E949E
:103BE0007605882339F14AE0BE016F5E7F4F8091F0
:103BF0002305909124050E94AB2366ED72E0CE016F
:103C000041960E947B26BE016F5E7F4F81E00E943D
:103C1000360A80912305909124059093370580936F
:103C200036058CE190E090934205809341050E9417
:103C3000360573C384E00E947605882391F10E94C3
:103C4000F40768E273E080E00E94360A69E373E0FB
:103C5000CE0141960E947B2680911D054AE0BE015F
:103C60006F5F7F4F90E00E94AB23BE016F5F7F4F7D
:103C7000CE0141960E947B2667E574E0CE01419615
:103C80000E947B26BE016F5E7F4F81E00E94360A54
:103C900087E190E090934205809341050E943605AC
:103CA0003CC364EF71E080E090E00E94420588230D
:103CB00009F433C34AE0BE016F5E7F4F8091230554
:103CC000909124050E94AB2366ED72E0CE014196EF
:103CD0000E947B26BE016F5E7F4F81E00E94360A04
:103CE00030924205209241050E94360516C364EFCA
:103CF00071E080E090E00E944205882309F40DC342
:103D00000E94F4076DE473E080E00E94360A80911F
:103D10002D054AE0BE016F5E7F4F082E000C990B07
:103D20000E94AB2367E574E0CE0141960E947B269A
:103D3000BE016F5E7F4F81E00E94360A8DE190E008
:103D400090934205809341050E943605E6C286E0C5
:103D50000E947605882311F180912D0587FF04C00C
:103D60008F5F80932D0502C010922D0580912D0547
:103D70004AE0BE016F5E7F4F082E000C990B0E9437
:103D8000AB2367E574E0CE0141960E947B26BE011D
:103D90006F5E7F4F81E00E94360ABFC283E00E94BF
:103DA0007605882309F180912D05813F14F081501B
:103DB00001C080EF80932D0580912D054AE0BE0162
:103DC0006F5E7F4F082E000C990B0E94AB2367E5B6
:103DD00074E0CE0141960E947B26BE016F5E7F4F4C
:103DE00081E00E94360A99C285E00E947605882308
:103DF00021F180912D054AE0BE016F5E7F4F082EB4
:103E0000000C990B0E94AB2367E574E0CE0141964C
:103E10000E947B26BE016F5E7F4F81E00E94360AC2
:103E200080912D05809340058FE190E090934205AD
:103E3000809341050E94360570C284E00E94760599
:103E4000882321F10E94F4076CE373E080E00E9474
:103E5000360A4AE0BE016F5E7F4F80912305909144
:103E600024050E94AB2366ED72E0CE0141960E94CC
:103E70007B26BE016F5E7F4F81E00E94360A309242
:103E80004205209241050E94360547C264EF71E069
:103E900080E090E00E944205882309F43EC28EE152
:103EA00090E0909342058093410568E474E081E0DE
:103EB0000E94360A0E94360530C286E00E947605CE
:103EC000882311F180912D0587FF04C08F5F8093B7
:103ED0002D0502C010922D0580912D054AE0BE01EE
:103EE0006F5E7F4F082E000C990B0E94AB2367E595
:103EF00074E0CE0141960E947B26BE016F5E7F4F2B
:103F000081E00E94360A09C283E00E947605882378
:103F100009F180912D05813F14F0815001C080EF9F
:103F200080932D0580912D054AE0BE016F5E7F4F85
:103F3000082E000C990B0E94AB2367E574E0CE01BC
:103F400041960E947B26BE016F5E7F4F81E00E94FA
:103F5000360AE3C185E00E947605882321F180912D
:103F60002D054AE0BE016F5E7F4F082E000C990BB5
:103F70000E94AB2367E574E0CE0141960E947B2648
:103F8000BE016F5E7F4F81E00E94360A80912D0551
:103F9000809340058FE190E0909342058093410526
:103FA0000E943605BAC184E00E947605882321F17B
:103FB0000E94F4076CE373E080E00E94360A4AE056
:103FC000BE016F5E7F4F80912305909124050E9472
:103FD000AB2366ED72E0CE0141960E947B26BE01C6
:103FE0006F5E7F4F81E00E94360A30924205209238
:103FF00041050E94360591C164EF71E080E090E0D8
:104000000E944205882309F488C180912D054AE069
:10401000BE016F5E7F4F082E000C990B0E94AB23F0
:1040200067E574E0CE0141960E947B26BE016F5E7B
:104030007F4F81E00E94360AADE1B0E0B0934205C7
:10404000A09341050E94360568C164EF71E080E0ED
:1040500090E00E944205882309F45FC10E94F407A2
:104060006EE573E080E00E94360A6FE673E081E05F
:104070000E94360ABE016F5E7F4F81E00E94360AC1
:10408000E0E2F0E0F0934205E093410546C1809103
:104090001D05809330058091230590912405909310
:1040A00037058093360580911E05809331058091F8
:1040B00027059091280590933B0580933A058091C0
:1040C0002D05809340058091290590912A059093B4
:1040D0003D0580933C0564EF71E080E090E00E9434
:1040E0004205882309F419C10E94F40780912F0525
:1040F000813019F46EE573E002C060E873E080E09F
:104100000E94360A6FE673E081E00E94360ABE0123
:104110006F5E7F4F81E00E94360A20E230E03093EC
:10412000420520934105F9C085E00E947605882369
:1041300009F4A3C081E080932E0542E250E0509341
:104140004205409341050E94F40761E973E080E075
:104150000E94360A68E973E081E00E94360A0E94F4
:10416000360568EA73E088EA96E00E94D4048091FC
:104170002F05813049F028F0823029F588EF93E04F
:1041800014C08DEB93E011C08AED93E00E940D0BFB
:1041900062EE73E088EA96E00E94D40480913405D0
:1041A000909135050E94C50A0EC00E940D0B65EC6A
:1041B00073E088EA96E00E94D40480913A059091D9
:1041C0003B050E94F90A63E074E088EA96E00E94E9
:1041D000D40480913C0590913D050E94F90A69E163
:1041E00074E088EA96E00E94D40480913C059091A6
:1041F0003D050E94F90A6FE274E088EA96E00E94A9
:10420000D4046091310570E080E090E04AE00E94C3
:10421000820A6CE572E088EA96E00E94BF0464E4DA
:1042200074E088EA96E00E94D4046091300570E062
:1042300080E090E04AE00E94820A6CE572E088EA41
:1042400096E00E94BF0469E574E088EA96E00E9467
:10425000D40480913605909137050E94C50A60E725
:1042600074E088EA96E00E94D40480914005082E0C
:10427000000C990B0E94C50A50C084E00E9476058C
:10428000882309F44AC00E94F4076DE473E080E0DB
:104290000E94360A80912D054AE0BE016F5E7F4F75
:1042A000082E000C990B0E94AB2367E574E0CE0149
:1042B00041960E947B26BE016F5E7F4F81E00E9487
:1042C000360A8DE190E090934205809341050E946B
:1042D000360523C082E00E9476058823F1F0A3E230
:1042E000B0E0B0934205A09341050E94360515C089
:1042F00082E00E9476058091F004882309F481C150
:1043000068E873E180E090E00E944205811176C187
:1043100004C01092420510924105809148058823FF
:1043200009F41BC10E94140C8090880590908905A7
:10433000A0908A05B0908B05DC01CB018819990902
:10434000AA09BB098090440590904505A0904605B8
:10435000B090470588169906AA06BB0608F0FDC06E
:104360000E94140C609388057093890580938A05D8
:1043700090938B0560917B05CE0101960E94090AFE
:1043800065E874E0CE0141960E94AA04BE016F5F09
:104390007F4FCE0141960E949E0961EB74E00E941E
:1043A00059040E949509CE0141960E949009CE01C0
:1043B00001960E94900960917C0570917D05CE0167
:1043C00001960E94B1096BE874E0CE0141960E940B
:1043D000AA04BE016F5F7F4FCE0141960E949E09E5
:1043E00061EB74E00E9459040E949509CE01419648
:1043F0000E949009CE0101960E94900960917E056D
:1044000070917F05CE0101960E94B1096FE874E0BA
:10441000CE0141960E94AA04BE016F5F7F4FCE017C
:1044200041960E949E0961EB74E00E9459040E942B
:104430009509CE0141960E949009CE0101960E94F5
:1044400090096091800570918105CE0101960E94CE
:10445000B10964E974E0CE0141960E94AA04BE014C
:104460006F5F7F4FCE0141960E949E0961EB74E021
:104470000E9459040E949509CE0141960E9490091C
:10448000CE0101960E94900960918205709183058A
:10449000CE0101960E94B10969E974E0CE0141960E
:1044A0000E94AA04BE016F5F7F4FCE0141960E9419
:1044B0009E0961EB74E00E9459040E949509CE01A7
:1044C00041960E949009CE0101960E949009609148
:1044D000840570918505CE0101960E94DD096EE983
:1044E00074E0CE0141960E94AA04BE016F5F7F4F27
:1044F000CE0141960E949E0961EB74E00E9459042E
:104500000E949509CE0141960E949009CE01019624
:104510000E9490096091860570918705CE010196F1
:104520000E94DD0962EA74E0CE0141960E94AA046D
:10453000BE016F5F7F4FCE0141960E949E0967EAE0
:1045400074E00E9459040E949509CE0141960E9490
:104550009009CE0101960E9490098091430588231D
:1045600021F0109243050E940F060E94140C8090C7
:104570008E0590908F05A0909005B09091059B01BD
:10458000AC01281939094A095B0949015A0134EF7C
:10459000831631E09306A104B104E0F060938E0528
:1045A00070938F05809390059093910580918C0571
:1045B00090918D05892B29F410938D0500938C051E
:1045C00004C010928D0510928C0560918C058DE0D1
:1045D0000E94490B0E944B030C94E60D109350056A
:1045E00000934F050E94140C60934B0570934C058B
:1045F00080934D0590934E050C94810E0E94BE0849
:104600008CCE42E250E0509342054093410585CE66
:10461000CF93DF931092AB061092AA0688EE93E038
:10462000A0E0B0E08093AC069093AD06A093AE06F8
:10463000B093AF0682E192E09093A9068093A8061A
:1046400085EC90E09093B5068093B40684EC90E0FE
:104650009093B7068093B60680EC90E09093B906ED
:104660008093B80681EC90E09093BB068093BA06E5
:1046700082EC90E09093BD068093BC0686EC90E0BF
:104680009093BF068093BE061092C1061092C20698
:104690001092C3061092C406109248071092470762
:1046A00084E292E090934607809345078DE28093E1
:1046B00050078FEF809351078CE2809352078BE273
:1046C000809353078AE28093540789E280935507C9
:1046D00088E280935607109257071092580710925D
:1046E000590710925A07C3E5D7E061E089910E940B
:1046F000B30B87E0C735D807C1F761E08091500759
:104700000E94B30B809151078F3F19F061E00E9426
:10471000B30B61E0809152070E94B30B10924907DE
:1047200060E0809150070E94490B60E08091520741
:104730000E94490B809151078F3F19F060E00E9461
:10474000490B8FEF80935B0710924F0710924E0733
:10475000DF91CF910895BB274A3031F4992322F499
:10476000BDE2909581959F4F0C94B723BB27FB0129
:104770005527AA27880F991FAA1FA41710F0A41B5A
:1047800083955051B9F7A05DAA3308F0A95DA193B4
:10479000009779F7B111B1931192CB010C94D0230A
:1047A000DC01FC01672F71917723E1F7329704C098
:1047B0007C916D9370836291AE17BF07C8F3089523
:1047C000052E97FB1EF400940E94F72357FD07D097
:1047D0000E94FF2307FC03D04EF40C94F72350955E
:1047E0004095309521953F4F4F4F5F4F08959095DD
:1047F0008095709561957F4F8F4F9F4F0895A1E2EF
:104800001A2EAA1BBB1BFD010DC0AA1FBB1FEE1F4A
:10481000FF1FA217B307E407F50720F0A21BB30B95
:10482000E40BF50B661F771F881F991F1A9469F711
:1048300060957095809590959B01AC01BD01CF016D
:104840000895A29FB001B39FC001A39F700D811D69
:104850001124911DB29F700D811D1124911D089589
:1048600097FB072E16F4009407D077FD09D00E941D
:10487000532407FC05D03EF4909581959F4F0895F1
:10488000709561957F4F0895EE0FFF1F881F8BBFB6
:104890000790F691E02D19940E942124B7FF089506
:1048A000821B930B0895AA1BBB1B51E107C0AA1FD3
:1048B000BB1FA617B70710F0A61BB70B881F991FC1
:1048C0005A95A9F780959095BC01CD0108950F9355
:1048D0001F93CF93DF938230910510F482E090E034
:1048E000E0916707F091680720E030E0A0E0B0E0D9
:1048F000309719F14081518102811381481759077E
:10490000C8F08417950769F4109731F012960C934C
:10491000129713961C9327C000936707109368079C
:1049200022C02115310519F04217530718F49A01D6
:10493000BD01EF01DF01F801DBCF21153105F9F0F1
:10494000281B390B2430310580F48A819B81611545
:10495000710521F0FB019383828304C09093680763
:1049600080936707FE01329644C0FE01E20FF31FF9
:104970008193919322503109398328833AC0209141
:10498000650730916607232B41F420910202309194
:10499000030230936607209365072091000230914F
:1049A00001022115310541F42DB73EB740910402B3
:1049B00050910502241B350BE0916507F0916607C5
:1049C000E217F307A0F42E1B3F0B2817390778F0E6
:1049D000AC014E5F5F4F2417350748F04E0F5F1F45
:1049E00050936607409365078193919302C0E0E07E
:1049F000F0E0CF01DF91CF911F910F910895CF93F8
:104A0000DF93009709F481C0FC0132971382128270
:104A1000A0916707B0916807109781F420813181D8
:104A2000820F931F20916507309166072817390779
:104A300051F5F0936607E093650767C0ED0120E04C
:104A400030E0CE17DF0740F44A815B819E014115BB
:104A50005105F1F0EA01F5CFD383C2834081518142
:104A6000840F951FC817D90759F488819981840F3D
:104A7000951F0296918380838A819B819383828391
:104A80002115310529F4F0936807E09367073DC0CD
:104A9000E901FB83EA8349915991C40FD51FEC17B3
:104AA000FD0761F480819181840F951F0296E901D1
:104AB00099838883828193819B838A83E0E0F0E0FD
:104AC00012968D919C911397009719F0FD01DC01CE
:104AD000F7CF8D919C9111979D012E5F3F4F820FD3
:104AE000931F20916507309166072817390769F4ED
:104AF000309729F4109268071092670702C013825A
:104B00001282B0936607A0936507DF91CF91089555
:104B10006F927F928F929F92AF92BF92CF92DF92CD
:104B2000EF92FF920F931F93CF93DF93009789F437
:104B3000CB01DF91CF911F910F91FF90EF90DF900C
:104B4000CF90BF90AF909F908F907F906F900C947C
:104B50006724FC01E60FF71F9C0122503109E21780
:104B6000F30708F4A9C0EC01D9010D911C9111972C
:104B700006171707B0F00530110508F49BC0C801EF
:104B800004978617970708F495C002501109061B71
:104B9000170B019311936D937C93CF010E94FF2417
:104BA00089C05B01A01AB10A4C01800E911EA09130
:104BB0006707B0916807612C712CE12CF12C1097DC
:104BC00009F446C08D919C911197A815B905B1F5CE
:104BD0006C0142E0C40ED11CCA14DB0478F14C0114
:104BE0008A189B08640142E0C40ED11C1296BC9046
:104BF00012971396AC91B5E0CB16D10440F0B28277
:104C0000A38391828082D9016D937C9309C00E5F4A
:104C10001F4F800F911FF90191838083EB2DFA2F95
:104C2000E114F10431F0D7011396FC93EE9312973F
:104C300041C0F0936807E09367073CC068167906A7
:104C400008F43C017D0112960D90BC91A02DB7CFC8
:104C5000809165079091660788169906E1F46616BB
:104C60007706C8F48091000290910102009741F408
:104C70008DB79EB74091040250910502841B950B9D
:104C8000E817F907C8F4F0936607E0936507F901A0
:104C9000718360830FC0CB010E9467247C01009761
:104CA00059F0A801BE010E947226CE010E94FF2485
:104CB000C70104C0CE0102C080E090E0DF91CF9137
:104CC0001F910F91FF90EF90DF90CF90BF90AF902A
:104CD0009F908F907F906F90089581E090E0F8947E
:104CE0000C948D26FB01DC0102C001900D92415015
:104CF0005040D8F70895FB01DC010D900020E9F742
:104D0000119701900D920020E1F70895FB01DC015D
:0E4D100001900D920020E1F70895F894FFCF76
:104D1E0000006907200000401454004010500000AD
:104D2E0000008702F4011E02D4024F022D0241023E
:104D3E00000000008003F4018E038D03FE07BA030A
:104D4E00D603EA033E0A0A00417072203137203240
:104D5E003032300056657273696F6E20003C5265BA
:104D6E00737069726F6E652C20002E000D0A005351
:104D7E00656C656363696F6E6172204D6F646F0061
:104D8E004175746F6D617469636F2020202020203F
:104D9E000050726573696F6E202020202020202025
:104DAE002000566F6C756D656E202020202020200F
:104DBE002020005245535049524F4E45202020206E
:104DCE002020200050726573696F6E65204D656EF0
:104DDE00752020200050412020202020202020203F
:104DEE00202020202000636D2E48324F00564F4C5D
:104DFE0020544944202020202020202020006D6CAB
:104E0E0000564D4D20202020202020202020202024
:104E1E0020004C2F6D00564D6D202020202020208C
:104E2E002020202020200052504D20202020202005
:104E3E002020202020202000493A4520202020201C
:104E4E00202020202020202000313A00504D617873
:104E5E0020202020202020202020202000547250AE
:104E6E002020202020202020202020202000436FE2
:104E7E006E6669726D617220202020202020005302
:104E8E00493A456E7465722C4E4F3A4261636B001F
:104E9E00436F6E6669726D6172204175746F20206A
:104EAE0000544F20444F3A0053484F572050415220
:104EBE00414D4554455253004D4F444F3A2020200A
:104ECE0020202020202020202020202000564F4C63
:104EDE00554D454E00566F6C756D656E2054696468
:104EEE00616C3A2020202020200050524553494F1B
:104EFE004E005072657369C3B36E20416A75737448
:104F0E006164613A202020004155544F4D4154496F
:104F1E00434F00566F6C756D656E206D696E7574BE
:104F2E006F204DC3A1783A2000566F6C756D656E7B
:104F3E00206D696E75746F206DC3AD6E3A20005290
:104F4E00504D3A20202020202020202020202020DC
:104F5E0020202000493A453A2020202020202020E1
:104F6E002020202020202020005072657369C3B3BA
:104F7E006E204DC3A1783A20202020202020200032
:104F8E005472503A20202020202020202020202043
:104F9E0020202020003C42704D3D0050723D0050BC
:104FAE00706B3D0050706C3D005070653D00567248
:104FBE003D0056704D3D003E0A003C4D533D566C33
:104FCE006D2C0049453D00424D3D00424D4D3D008A
:104FDE00424D6D3D0050413D00504D3D00506D3DE8
:104FEE000056543D00564D4D3D00564D6D3D0054FE
:0E4FFE0072503D003C4D533D5072732C00002C
:00000001FF
