:100000000C9419020C9473070C9448070C941D0768
:100010000C94F2060C94C7060C949C060C94710682
:100020000C9446060C944A020C944A020C944A0220
:100030000C944A020C944A020C944A020C944A0210
:100040000C944A020C944A020C944A020C944A0200
:100050000C944A020C944A020C944A020C94D90F54
:100060000C944A020C94DF070C94B5070C944A02D6
:100070000C944A020C944A020C944A020C944A02D0
:100080000C944A020C944A020C944A020C944A02C0
:100090000C944A020C944A020C944A020C944A02B0
:1000A0000C944A020C944A020C944A020C944A02A0
:1000B0000C944A020C944A020C944A020C944A0290
:1000C0000C944A020C944A020C944A020C944A0280
:1000D0000C944A020C944A020C944A020C944A0270
:1000E0000C944A0210172D17C017381894170C18C3
:1000F0007A18A918951A371BE91B0C19AD19621A41
:100100001C1C151D201E531E221FFD1F2F20E82022
:10011000B121E3219B22632395234D241025412502
:100120000226D4260627C0278C28DD28B128F429EA
:100130002F2C732ABC2A2F2B632B982BCC2B012C12
:10014000D50CDA0CDF0CE90CF30C6C0DFD0C050D75
:100150000D0D170D210D2B0D3A0D440D6C0D4E0D8F
:10016000580D620D980D9B0D8A0D8E0D940DD20DBC
:100170009F0DA30DA90DAD0DB10DB70DBB0DBF0D9D
:10018000D20DC50DC90DCD0D0C944C020C946323FA
:100190000C94221F0C94C0170C94E3210C9477024A
:1001A0000C942D030C940C190C941E2E0C94C50D5C
:1001B0000C94F30C0C940D0D0C9433040C949523B7
:1001C0000C94DF0C0C94A90D0C94B1040C942D1715
:1001D0000C944D240C9454040C942F2B0C94FD1F60
:1001E0000C942F2C0C94A9180C94440D0C94AD0D68
:1001F0000C94E0040C94B10D0C94F4290C94C90DEA
:100200000C94BC2A0C9402260C94982B0C947A180B
:100210000C94E91B0C94951A0C94371B0C949417AE
:100220000C94D4260C94580D0C948E0D0C944125EE
:100230000C94170D0C9438180C941C1C0C9410176B
:100240000C944E0D0C944D020C943A0D0C94BF0D71
:100250000C94BB0D0C9486020C94A8020C94632B96
:100260000C94012C0C94732A0C9410250C945504B6
:100270000C9481040C948C280C94FD0C0C94151D8A
:100280000C949F0D0C94621A0C94201E0C94E82080
:100290000C94C0270C94E0020C94A30D0C94CC2B6E
:1002A0000C942F200C94AD190C9439040C949B0DD4
:1002B0000C94CD0D0C94B1280C949B220C943F040B
:1002C0000C94B70D0C9406270C940C180C94531E28
:1002D0000C94D50C0C946C0D0C949A020C94DD28A3
:1002E0000C949D040C94D20D0C94620D0C94B121CD
:1002F0000C948A0D0C94E90C0C94050D0C94940D3F
:100300000C94980D0C94DA0C0C942B0D0C94210D7C
:1003100000000A0B02090C0D0E080703040100007F
:1003200000000000000000000000000000000000CD
:10033000000000000000000000000000121110008A
:1003400000000000000000000000000000000000AD
:1003500000000000000001021020200808102040CA
:100360001020408002010201080402010102040879
:100370001020408080402010080402018004020107
:100380008040201008040201080402010102040850
:10039000102040800102040810204080000020004E
:1003A0002300260029002C002F003200000100004D
:1003B00003010601090105050505070508080808E8
:1003C000020202020A0A08080404040401010101ED
:1003D00001010101030303030303030304070707E8
:1003E0000C0C0C0C0C0C0C0C02020202060606068D
:1003F000060606060B0B0B0B0B0B0B0B000021006C
:10040000240027002A002D003000330001010000E5
:10041000040107010A0100002200250028002B002A
:100420002E003100340002010000050108010B011B
:100430001E2E11241FBECFEFD1E2DEBFCDBF00E0E4
:100440000CBF15E0A0E0B2E0EEE9FAE600E00BBF79
:1004500002C007900D92A83EB107D9F72AE0A8EE96
:10046000B5E001C01D92A036B207E1F712E0C9E184
:10047000D2E000E006C021970109802FFE010E9412
:10048000F131C831D10780E00807A9F70E94231095
:100490000C944D350C9400000895CF92DF92EF92AA
:1004A000FF920F931F93CF93DF936C017A018B011F
:1004B000C0E0D0E0CE15DF0581F0D8016D918D014F
:1004C000D601ED91FC910190F081E02DC6011995C6
:1004D000892B11F02196EECF7E01C701DF91CF91DC
:1004E0001F910F91FF90EF90DF90CF900895FC0146
:1004F000538D448D252F30E0842F90E0821B930B89
:10050000541710F0CF96089501970895FC01918D2E
:10051000828D981761F0828DDF01A80FB11D5D9665
:100520008C91928D9F5F9F73928F90E008958FEFD3
:100530009FEF0895FC01918D828D981731F0828D87
:10054000E80FF11D858D90E008958FEF9FEF0895DE
:10055000FC01918D228D892F90E0805C9F4F821B42
:1005600091098F739927089585EB98E00E94A8025E
:1005700021E0892B09F420E0822F0895FC01848D6D
:10058000DF01A80FB11DA35ABF4F2C91848D90E0BD
:1005900001968F739927848FA689B7892C93A08998
:1005A000B1898C91837080648C93938D848D981322
:1005B00006C00288F389E02D80818F7D80830895B5
:1005C000EF92FF920F931F93CF93DF93EC0181E0A3
:1005D000888F9B8D8C8D981305C0E889F98980815F
:1005E00085FD26C0F62E0B8D10E00F5F1F4F0F7399
:1005F0001127E02E8C8DE8120CC00FB607FCFACF45
:10060000E889F989808185FFF5CFCE010E94BE027D
:10061000F1CF8B8DFE01E80FF11DE35AFF4FF08201
:100620009FB7F8940B8FEA89FB89808180620AC0AA
:100630009FB7F894EE89FF896083E889F989808102
:100640008370806480839FBF81E090E0DF91CF91D1
:100650001F910F91FF90EF900895CF93DF93EC01DE
:10066000888D8823C9F0EA89FB89808185FD05C0D2
:10067000A889B9898C9186FD0FC00FB607FCF5CF0C
:10068000808185FFF2CFA889B9898C9185FFEDCF54
:10069000CE010E94BE02E7CFDF91CF910895CF93A4
:1006A000C1E085EB98E00E94A802892B09F44AC0BA
:1006B00085EB98E00E9486028C3469F02CF48B3232
:1006C00099F08D32E9F0EDCF8C3629F0853749F07D
:1006D000853539F706C080914E068C2780934E06EB
:1006E000E0CFC0934906DDCF80914A0690914B063A
:1006F000A0914C06B0914D06C296A11DB11D10C02F
:1007000080914A0690914B06A0914C06B0914D06FF
:1007100083339105A105B10560F0C297A109B10924
:1007200080934A0690934B06A0934C06B0934D06D7
:10073000B8CF10924A0610924B0610924C061092B7
:100740004D06AFCFCF9108950E94B402811125C00C
:1007500080E090E0892B41F080E090E0892B21F04F
:100760000E94000081111CC080E090E0892B41F0C4
:1007700080E090E0892B21F00E940000811113C0DD
:1007800080E090E0892BA1F080E090E0892B81F05F
:100790000E94000081110AC008950E944F03D8CF23
:1007A0000E940000E1CF0E940000EACF0C940000FC
:1007B0000895DC01ED91FD918081ED91FD91908195
:1007C000ED91FD916C9163708E2309F064609F231D
:1007D00009F06860E6EFF3E0E60FF11D65956595B9
:1007E0006D936D917D918D919D91099423C01AC057
:1007F00012C016C010C01EC009C014C013C006C06D
:1008000019C009C00DC007C00DC014C062507040AF
:10081000804090400BC0615070408040904006C0C6
:100820006E5F01C06F5F7F4F8F4F9F4F9E938E9380
:100830007E936E93089580917309909174090C943E
:10084000D90380917109909172090C94D903809118
:100850006F09909170090C94D90380916D09909162
:100860006E090C94D90380916B0990916C090C94DA
:10087000D9038091690990916A090C94D903DC012C
:10088000ED91FC910684F785E02D41E0199581E01A
:1008900090E00895DC01ED91FC910684F785E02D50
:1008A00040E0199408950895089580E090E0089537
:1008B0000E942D350F931F93CF93DF93EC01888116
:1008C0009981009729F02A813B812617370788F400
:1008D0008B016F5F7F4F0E944834009761F09983CE
:1008E00088831B830A832C813D81232B11F4FC0117
:1008F000108281E001C080E0DF91CF911F910F91C4
:100900000895EF92FF921F93CF93DF93EC01162F80
:100910007A0161E0812F0E946C0F1E8BFA86E986B6
:10092000E881F9810484F585E02D60E0CE01DF9156
:10093000CF911F91FF90EF901994FC0186898F3F12
:1009400079F021853285662319F0232B31F403C019
:100950002130310511F461E001C060E00C943D0FDD
:1009600008950F931F93CF93DF93EC01162F042F5D
:1009700061E0413009F060E08B850E943D0F8C857D
:100980008F3F19F060E00E943D0F023081F08C81B2
:1009900084FF02C048E00CC0612F70E084E07595D0
:1009A00067958A95E1F744E0CE010E94350C44E05A
:1009B000612FCE01DF91CF911F910F910C94350CD7
:1009C0008F929F92AF92BF92CF92DF92EF92FF925F
:1009D0000F931F93CF93DF93EC01423018F08C817B
:1009E00088608C834F836887222329F0413019F473
:1009F0008C8184608C830E94A80F6B017C0184E64B
:100A0000882E912CA12CB12C0E94A80FDC01CB01C7
:100A10008C199D09AE09BF09883E9340A105B10517
:100A200098F321E0821A9108A108B10888EEC80E57
:100A300083E0D81EE11CF11C81149104A104B104CF
:100A400019F76C8164FD31C0E881F9810684F7856E
:100A5000E02D42E063E0CE0119958BE496E4019726
:100A6000F1F7E881F9810684F785E02D42E063E043
:100A7000CE01199503E512E0C8010197F1F7E8816D
:100A8000F9810684F785E02D42E063E0CE011995F7
:100A9000C8010197F1F7E881F9810684F785E02D17
:100AA00042E062E0CE01199517C06062CE010E945B
:100AB0004A048BE496E40197F1F76C816062CE0101
:100AC0000E944A0403E512E0C8010197F1F76C8126
:100AD0006062CE010E944A04C8010197F1F76C815F
:100AE0006062CE010E944A048BEE90E00197F1F71C
:100AF00084E08D836CE0CE010E944A0461E0CE0167
:100B00000E944A048BE39FE10197F1F782E08E8314
:100B100066E0CE010E944A04E881F9810484F585EB
:100B2000E02D6FEFCE01DF91CF911F910F91FF90DC
:100B3000EF90DF90CF90BF90AF909F908F901994DF
:100B4000EF92FF920F931F93CF93DF93611571057F
:100B500011F480E01CC041155105C1F07B01EC018E
:100B60008C819D818A01080F191FB801CE010E9456
:100B70005A04882371F3288139818C819D81B701C2
:100B8000820F931F0E9446351D830C8381E0DF9105
:100B9000CF911F910F91FF90EF900895CF93DF9326
:100BA000EC0188819981009711F00E94BF3319826E
:100BB00018821D821C821B821A82DF91CF910895B8
:100BC000CF93DF93EC016115710561F0FB0101909A
:100BD0000020E9F73197AF01461B570B0E94A00593
:100BE000811103C0CE010E94CE05CE01DF91CF91CD
:100BF0000895EF92FF920F931F93CF93DF93EC0131
:100C00007B018A01BA010E945A04811104C0CE01FD
:100C10000E94CE0507C01D830C83B701888199818E
:100C20000E944635CE01DF91CF911F910F91FF9029
:100C3000EF900895CF93DF93EC016115710559F0A2
:100C4000FB0101900020E9F73197AF01461B570BDC
:100C50000E94F90502C00E94CE05CE01DF91CF911E
:100C60000895FC011182108213821282158214826F
:100C70006115710551F0FB0101900020E9F73197F2
:100C8000AF01461B570B0C94F90508951F920F9264
:100C90000FB60F9211240BB60F922F933F934F93E1
:100CA0005F936F937F938F939F93AF93BF93EF93D4
:100CB000FF93E0910E02F0910F021995FF91EF91D1
:100CC000BF91AF919F918F917F916F915F914F9164
:100CD0003F912F910F900BBE0F900FBE0F901F9062
:100CE00018951F920F920FB60F9211240BB60F9208
:100CF0002F933F934F935F936F937F938F939F9324
:100D0000AF93BF93EF93FF93E0910C02F0910D022C
:100D10001995FF91EF91BF91AF919F918F917F9125
:100D20006F915F914F913F912F910F900BBE0F905C
:100D30000FBE0F901F9018951F920F920FB60F9233
:100D400011240BB60F922F933F934F935F936F93A2
:100D50007F938F939F93AF93BF93EF93FF93E09114
:100D60000202F09103021995FF91EF91BF91AF91AB
:100D70009F918F917F916F915F914F913F912F91B3
:100D80000F900BBE0F900FBE0F901F9018951F92E3
:100D90000F920FB60F9211240BB60F922F933F9321
:100DA0004F935F936F937F938F939F93AF93BF9373
:100DB000EF93FF93E0910002F09101021995FF91EA
:100DC000EF91BF91AF919F918F917F916F915F91C3
:100DD0004F913F912F910F900BBE0F900FBE0F9030
:100DE0001F9018951F920F920FB60F9211240BB6F9
:100DF0000F922F933F934F935F936F937F938F93B4
:100E00009F93AF93BF93EF93FF93E0910A02F0910A
:100E10000B021995FF91EF91BF91AF919F918F9127
:100E20007F916F915F914F913F912F910F900BBEEA
:100E30000F900FBE0F901F9018951F920F920FB634
:100E40000F9211240BB60F922F933F934F935F9302
:100E50006F937F938F939F93AF93BF93EF93FF9382
:100E6000E0910802F09109021995FF91EF91BF916D
:100E7000AF919F918F917F916F915F914F913F9132
:100E80002F910F900BBE0F900FBE0F901F901895D3
:100E90001F920F920FB60F9211240BB60F922F9341
:100EA0003F934F935F936F937F938F939F93AF93F2
:100EB000BF93EF93FF93E0910602F091070219951B
:100EC000FF91EF91BF91AF919F918F917F916F9122
:100ED0005F914F913F912F910F900BBE0F900FBEDE
:100EE0000F901F9018951F920F920FB60F9211241A
:100EF0000BB60F922F933F934F935F936F937F9314
:100F00008F939F93AF93BF93EF93FF93E09104026E
:100F1000F09105021995FF91EF91BF91AF919F91CB
:100F20008F917F916F915F914F913F912F910F9092
:100F30000BBE0F900FBE0F901F9018956115710595
:100F400079F0FB0101900020E9F73197AF01461BD2
:100F5000570BDC01ED91FC910280F381E02D199497
:100F600080E090E008950C949E071F920F920FB6B8
:100F70000F9211240BB60F922F933F934F935F93D1
:100F80006F937F938F939F93AF93BF93EF93FF9351
:100F900085EB98E00E94BE02FF91EF91BF91AF9167
:100FA0009F918F917F916F915F914F913F912F9181
:100FB0000F900BBE0F900FBE0F901F9018951F92B1
:100FC0000F920FB60F9211240BB60F922F938F939F
:100FD0009F93EF93FF93E091C508F091C60880813D
:100FE000E091CB08F091CC0882FD12C090818091F5
:100FF000CE088F5F8F732091CF08821751F0E09158
:10100000CE08F0E0EB54F74F958F8093CE0801C0E7
:101010008081FF91EF919F918F912F910F900BBE47
:101020000F900FBE0F901F9018950E94CD0F6093E8
:10103000B1087093B2088093B3089093B40880E02D
:101040000895CF92DF92EF92FF920F931F93611555
:1010500071058105910541F41F910F91FF90EF906B
:10106000DF90CF900C9415086B017C010E94CD0F8E
:101070000091B1081091B2082091B3083091B408E2
:10108000DC01CB01801B910BA20BB30B21E0C81636
:10109000D906EA06FB0608F020E0822F1F910F9187
:1010A000FF90EF90DF90CF9008958F929F92AF9234
:1010B000BF92EF92FF920F931F93CF93DF93C82FAE
:1010C000D0E08E01000F111F095B174FF80120813E
:1010D00031812115310521F021303105A1F16FC099
:1010E0000E94140F009719F00197A1F16BC00E94A4
:1010F000CD0F9E01220F331F220F331FA9014D5820
:10110000584F7A01FA0180809180A280B380DC017F
:10111000CB0188199909AA09BB090697A105B10550
:1011200008F450C081E090E0F80191838083C851B9
:10113000DA4F88830E94CD0FF70160837183828329
:10114000938381E040C00E94140F009719F001972B
:1011500071F038C00E94CD0FCC0FDD1FCC0FDD1F0A
:10116000CD58D84F688379838A839B832BC00E9494
:10117000CD0F9E01220F331F220F331FA9014D589F
:10118000584F7A01FA0180809180A280B380DC01FF
:10119000CB0188199909AA09BB090697A105B105D0
:1011A00088F0F80111821082C851DA4F18820E942B
:1011B000CD0FF701608371838283938303C0F801AD
:1011C0001182108280E0DF91CF911F910F91FF90EB
:1011D000EF90BF90AF909F908F90089561E082E56F
:1011E00099E00E944A048BE39FE10197F1F708958B
:1011F000CF92DF92EF92FF920F931F93CF93DF93E3
:10120000CDB7DEB728970FB6F894DEBF0FBECDBFBF
:101210008A01C0901602D0901702E0901802F09058
:101220001902CD82DE82EF82F886C0901A02D09039
:101230001B02E0901C02F0901D02C982DA82EB8250
:10124000FC8290915909691710F06FEF690F409176
:101250005A09262F30E0FE01E20FF31F403121F43E
:10126000943011F4618101C06581680F606882E586
:1012700099E00E944A04B80182E599E028960FB6E9
:10128000F894DEBF0FBECDBFDF91CF911F910F91BC
:10129000FF90EF90DF90CF900C94B30720E042E0F6
:1012A00060E182E599E00E94E00462E082E599E075
:1012B0000E944A048BE39FE10197F1F70E94EE0838
:1012C00040E153E060E080E00E94F80841E253E032
:1012D00061E080E00E94F8081092480610924706EC
:1012E00062E08BE20E946C0F62E08DE20E946C0F64
:1012F00062E08FE20E946C0F62E081E30E946C0F5B
:1013000062E083E30E946C0F0E941508E2E3F6E0BE
:1013100082E0818384EF91E0968785878EE090E07C
:10132000908B878782E090E0928B818B8EE0848324
:1013300089E182838AE083838EE190E092878187CE
:101340008CEF838B84E190E09087878308958F9260
:101350009F92AF92BF92CF92DF92EF92FF9281E085
:1013600090E09093080A8093070A6091B20970E0B8
:1013700080E090E00E9465309B01AC0160E070E687
:101380008AE697E40E947A326B017C018090B90969
:101390009090BA09A090BB09B090BC09A501940136
:1013A0000E94C4306093E7097093E8098093E909CB
:1013B0009093EA09A501940160E070E080E89FE362
:1013C0000E940D32A70196010E94C4306093EB0980
:1013D0007093EC098093ED099093EE090E94CD0F74
:1013E0000E9463302091E7093091E8094091E909B2
:1013F0005091EA090E940E320E94F3326093FB0979
:101400007093FC098093FD099093FE092091B50922
:101410003091B6094091B7095091B809A8EEB3E0F0
:101420000E94A1310E94633023E63FEB4FE356E474
:101430000E947A3220E030E04CEF51E40E947A3290
:1014400020E030E443E056E40E94C4302BED3FE05E
:1014500049EC50E40E947A326B017C0120E030E0DC
:10146000A9010E94223320E030E040E05FE387FDE5
:1014700005C0C701B6010E940E3204C0C701B60103
:101480000E940D320E94EC326093E3097093E409EC
:101490008093E5099093E609FF90EF90DF90CF905D
:1014A000BF90AF909F908F9008958091160A8230E0
:1014B00030F4F8948BE09AE00E94D90301C0F894CC
:1014C0008091120A9091130AA091140AB091150A02
:1014D00078948093DB099093DC09A093DD09B093A5
:1014E000DE09F8941092120A1092130A1092140A4C
:1014F0001092150A78944091DF095091E0096091AB
:10150000E1097091E2098091DB099091DC09A091D9
:10151000DD09B091DE09840F951FA61FB71F8093C8
:10152000DF099093E009A093E109B093E2090895DF
:10153000CF93DF93CDB7DEB72C970FB6F894DEBF0D
:101540000FBECDBF80911E06882331F0813009F097
:1015500083C16EED75E002C064EA75E085EB98E04A
:101560000E94B30760913106CE0107960E948A0E51
:101570006DEA75E0CE0101960E943106BE01695FF9
:101580007F4FCE0101960E941F0E6BEA75E00E940C
:10159000E0050E94160ECE0101960E94780DCE0144
:1015A00007960E94780D60912106CE0107960E9451
:1015B0008A0E61EB75E0CE0101960E943106BE01F4
:1015C000695F7F4FCE0101960E941F0E6BEA75E0A6
:1015D0000E94E0050E94160ECE0101960E94780D31
:1015E000CE0107960E94780D60912206CE010796E3
:1015F0000E948A0E65EB75E0CE0101960E943106CD
:10160000BE01695F7F4FCE0101960E941F0E6BEAFB
:1016100075E00E94E0050E94160ECE0101960E9420
:10162000780DCE0107960E94780D60912306CE01B9
:1016300007960E948A0E6AEB75E0CE0101960E9421
:101640003106BE01695F7F4FCE0101960E941F0ED9
:101650006BEA75E00E94E0050E94160ECE0101962D
:101660000E94780DCE0107960E94780D60912406A5
:1016700070912506CE0107960E94320E6FEB75E041
:10168000CE0101960E943106BE01695F7F4FCE01F7
:1016900001960E941F0E6BEA75E00E94E0050E9411
:1016A000160ECE0101960E94780DCE0107960E947B
:1016B000780D6091260670912706CE0107960E944C
:1016C000320E63EC75E0CE0101960E943106BE0138
:1016D000695F7F4FCE0101960E941F0E6BEA75E095
:1016E0000E94E0050E94160ECE0101960E94780D20
:1016F000CE0107960E94780D609128067091290608
:10170000CE0107960E94320E67EC75E0CE0101967D
:101710000E943106BE01695F7F4FCE0101960E9493
:101720001F0E6BEA75E00E94E0050E94160ECE01C6
:1017300001960E94780DCE0107960E94780D609167
:101740002A0670912B06CE0107960E945E0E6BEC66
:1017500075E0CE0101960E943106BE01695F7F4FA0
:10176000CE0101960E941F0E6BEA75E00E94E00513
:101770000E94160ECE0101960E94780DCE010796AA
:101780000E94780D60912C0670912D06CE0107966F
:101790000E945E0E6FEC75E0CE0101960E9431064C
:1017A000BE01695F7F4FCE0101960E941F0E6BEA5A
:1017B00075E00E94E0050E94160ECE0101960E947F
:1017C000780DCE0107960E94780D60912E067091DB
:1017D0002F06CE0107960E945E0E64ED75E0CE01E5
:1017E00001960E943106BE01695F7F4FCE010196CE
:1017F0000E941F0E6BEA75E00E94E0050E94160E23
:10180000CE0101960E94780DCE0107960E94780DB8
:1018100060913006062E000C770BCE0107960E94D1
:10182000320E69ED75E0CE0101960E943106BE01CF
:10183000695F7F4FCE0101960E941F0E61EA75E03D
:101840000E94E0050E94160ECE0101960E94780DBE
:10185000CE0107960E94780D2C960FB6F894DEBF45
:101860000FBECDBFDF91CF910895AF92BF92CF92BF
:10187000DF92EF92FF920F931F93CF93DF938C0130
:101880005C018EE0A80EB11CC42ED12CC0E0D0E0CB
:10189000E62EF12CCC15DD0579F0B7010C2E02C037
:1018A000759567950A94E2F76170F50181915F0182
:1018B0000E943D0F2196EECF61E0F80185850E94E0
:1018C0003D0F60E0F8018585DF91CF911F910F9169
:1018D000FF90EF90DF90CF90BF90AF900C943D0FB2
:1018E000CF93DF93BC0185EB98E00E949E07EC014B
:1018F0006CE672E085EB98E00E949E078C0F9D1FBE
:10190000DF91CF910895CF92DF92EF92FF92CF9324
:10191000DF936B017C0120E030E0A9010E945E3082
:1019200087FF06C0F7FAF094F7F8F09460E001C082
:1019300061E084E00E943D0F28EA36EC4FE051E47C
:10194000C701B6010E947A3220E030E04FE753E44D
:101950000E94C4300E94EC326B017C01EB0161E01B
:1019600085E00E946C0F209711F460E004C0CF3F27
:10197000D10551F461E085E0DF91CF91FF90EF90C8
:10198000DF90CF900C943D0FE5E1F3E0E4918E2FD2
:1019900090E0FC013197E231F10508F09DC0882705
:1019A000E056FF4F8F4F0C94F13184B5806884BDB1
:1019B000C7BC97C084B5806284BDC8BC92C080910A
:1019C0008000806880938000D0928900C092880057
:1019D00088C080918000806280938000D0928B00CC
:1019E000C0928A007EC080918000886080938000D1
:1019F000D0928D00C0928C0074C08091B00080683D
:101A00008093B000C092B3006CC08091B00080623F
:101A10008093B000C092B40064C080919000806850
:101A200080939000D0929900C09298005AC0809103
:101A30009000806280939000D0929B00C0929A00A8
:101A400050C080919000886080939000D0929D005B
:101A5000C0929C0046C08091A00080688093A00046
:101A60008091A0008F7B8093A000D092A900C092AB
:101A7000A80037C08091A00080628093A000D0921F
:101A8000AB00C092AA002DC08091A0008860809316
:101A9000A000D092AD00C092AC0023C08091200184
:101AA000806880932001D0922901C092280119C03A
:101AB00080912001806280932001D0922B01C092FE
:101AC0002A010FC080912001886080932001D0926C
:101AD0002D01C0922C0105C0C038D1050CF04ACFB1
:101AE00044CFDF91CF91FF90EF90DF90CF9008959A
:101AF000FC01808191810C94BF3390E0FC0131970F
:101B0000E231F10508F04EC08827EE54FF4F8F4FA9
:101B10000C94F131809180008F7703C08091800018
:101B20008F7D80938000089580918000877FF9CF1A
:101B300084B58F7702C084B58F7D84BD0895809170
:101B4000B0008F7703C08091B0008F7D8093B0008C
:101B50000895809190008F7707C0809190008F7DCD
:101B600003C080919000877F8093900008958091BA
:101B7000A0008F7707C08091A0008F7D03C0809167
:101B8000A000877F8093A0000895809120018F7727
:101B900007C0809120018F7D03C080912001877F45
:101BA0008093200108958F929F92AF92BF920F93DE
:101BB0001F93CF93DF93CDB7DEB7A1970FB6F894FD
:101BC000DEBF0FBECDBF19A2423008F44AE08E013D
:101BD0000F5D1F4F842E912CA12CB12CA5019401D7
:101BE0000E94AC31E62FB901CA0101501109EA3057
:101BF00014F4E05D01C0E95CD801EC93232B242BA5
:101C0000252B61F7B80185EB98E00E949E07A1960D
:101C10000FB6F894DEBF0FBECDBFDF91CF911F91FD
:101C20000F91BF90AF909F908F900895FC014481D9
:101C300055816081718185EB98E00C944D02CF93C2
:101C4000DF93EC01FB0144815581608171810E9429
:101C5000A005811103C0CE010E94CE05CE01DF9107
:101C6000CF9108950F931F93CF93DF93CDB7DEB736
:101C700062970FB6F894DEBF0FBECDBF8C01CB01CB
:101C8000F8011182108213821282158214824AE0B6
:101C9000BE016F5F7F4F0E942930BE016F5F7F4F93
:101CA000C8010E941A0662960FB6F894DEBF0FBEF6
:101CB000CDBFDF91CF911F910F9108950F931F9387
:101CC000CF93DF93CDB7DEB761970FB6F894DEBF41
:101CD0000FBECDBF8C01CB01F8011182108213829F
:101CE0001282158214824AE0BE016F5F7F4F0E940C
:101CF0003430BE016F5F7F4FC8010E941A066196A3
:101D00000FB6F894DEBF0FBECDBFDF91CF911F910C
:101D10000F9108950F931F93CF93DF93CDB7DEB745
:101D200029970FB6F894DEBF0FBECDBF8C01862F6A
:101D3000F8011182108213821282158214824AE005
:101D4000BE016F5F7F4F90E00E943430BE016F5F35
:101D50007F4FC8010E941A0629960FB6F894DEBF7D
:101D60000FBECDBFDF91CF911F910F910895CF92FC
:101D7000DF92EF92FF92CF93DF936C01990FEE0801
:101D8000FF08F7FE13C06DE285EB98E00E94E002C9
:101D9000EC0166277727CB016C197D098E099F0915
:101DA0004AE00E94D30DC80FD91F06C04AE0C70100
:101DB000B6010E94D30DEC016CE672E085EB98E071
:101DC0000E949E078C0F9D1FDF91CF91FF90EF9097
:101DD000DF90CF900895CF93DF93682F70E080E07D
:101DE00090E04AE00E94D30DEC016CE672E085EBD6
:101DF00098E00E949E078C0F9D1FDF91CF91089560
:101E0000CF93DF93BC0180E090E04AE00E94D30DC5
:101E1000EC016CE672E085EB98E00E949E078C0F67
:101E20009D1FDF91CF910895CF93DF93282F30E04E
:101E3000F901E05FFC4F8491F901EA5AFC4FD4911B
:101E4000F901EA54FC4FC491CC2391F081110E9416
:101E50007D0DEC2FF0E0EE0FFF1FE456FC4FA59137
:101E6000B491EC91ED2381E090E021F480E002C098
:101E700080E090E0DF91CF9108951F93CF93DF939F
:101E8000282F30E0F901E05FFC4F8491F901EA5A14
:101E9000FC4FD491F901EA54FC4FC491CC23C1F01A
:101EA000162F81110E947D0DEC2FF0E0EE0FFF1F29
:101EB000EA5EFB4FA591B4919FB7F894111104C04D
:101EC0008C91D095D82302C0EC91DE2BDC939FBF80
:101ED000DF91CF911F910895CF93DF9390E0FC01A4
:101EE000EA5AFC4F2491FC01EA54FC4F8491882368
:101EF00061F190E0880F991FFC01E450FC4FC591FF
:101F0000D491FC01EA5EFB4FA591B491611109C027
:101F10009FB7F8948881209582238883EC912E23A3
:101F20000BC0623061F49FB7F8948881322F3095EE
:101F300083238883EC912E2B2C939FBF06C08FB7F1
:101F4000F894E8812E2B28838FBFDF91CF910895DD
:101F50003FB7F8948091580A9091590AA0915A0A73
:101F6000B0915B0A26B5A89B05C02F3F19F00196DA
:101F7000A11DB11D3FBFBA2FA92F982F8827820F0F
:101F8000911DA11DB11DBC01CD0142E0660F771F5F
:101F9000881F991F4A95D1F708952FB7F89460913B
:101FA000540A7091550A8091560A9091570A2FBF92
:101FB00008951F920F920FB60F9211242F933F9303
:101FC0008F939F93AF93BF938091540A9091550A3A
:101FD000A091560AB091570A3091530A23E0230F7B
:101FE0002D3720F40196A11DB11D05C026E8230F51
:101FF0000296A11DB11D2093530A8093540A909319
:10200000550AA093560AB093570A8091580A9091A6
:10201000590AA0915A0AB0915B0A0196A11DB11DFF
:102020008093580A9093590AA0935A0AB0935B0A76
:10203000BF91AF919F918F913F912F910F900FBEC4
:102040000F901F901895CF93DF93CDB7DEB7CF5485
:10205000D1090FB6F894DEBF0FBECDBF789484B51A
:10206000826084BD84B5816084BD85B5826085BD94
:1020700085B5816085BD80916E00816080936E0022
:102080001092810080918100826080938100809114
:1020900081008160809381008091800081608093C5
:1020A00080008091B10084608093B1008091B00085
:1020B00081608093B0008091910082608093910054
:1020C0008091910081608093910080919000816067
:1020D000809390008091A10082608093A100809104
:1020E000A10081608093A1008091A0008160809315
:1020F000A0008091210182608093210180912101C3
:102100008160809321018091200181608093200172
:1021100080917A00846080937A0080917A00826056
:1021200080937A0080917A00816080937A00809118
:102130007A00806880937A001092C1000E944E0954
:1021400010926607109265071092B2091092B409B6
:102150001092B3091092B9091092BA091092BB09F2
:102160001092BC091092BD091092BE091092BF09CD
:102170001092C0091092C1091092C3091092C409AB
:102180001092C5091092C6091092C7091092C80989
:102190001092C9091092CA091092CB091092CC0969
:1021A0001092CD091092CE091092CF091092D00949
:1021B0001092D1091092D2091092D3091092D40929
:1021C0001092D5091092D6091092D7091092D80909
:1021D0001092D9091092DA091092DB091092DC09E9
:1021E0001092DD091092DE091092DF091092E009C9
:1021F0001092E1091092E2091092E3091092E409A9
:102200001092E5091092E6091092E7091092E80988
:102210001092E9091092EA091092EB091092EC0968
:102220001092ED091092EE091092EF091092F00948
:102230001092F1091092F2091092F3091092F40928
:102240001092F5091092F6091092F7091092F80908
:102250001092F9091092FA091092FB091092FC09E8
:102260001092FD091092FE091092FF091092000AC7
:102270001092010A1092020A1092030A1092040AA4
:102280001092050A1092060A1092080A1092070A84
:102290001092090A10920A0AE091C508F091C60846
:1022A00082E08083E091C108F091C2081082E09141
:1022B000C308F091C40880E180831092CD08E091BA
:1022C000C908F091CA0886E08083E091C708F091C0
:1022D000C808808180618083E091C708F091C808B8
:1022E000808188608083E091C708F091C808808170
:1022F00080688083E091C708F091C80880818F7D55
:10230000808310924E061092490684E690E0A0E089
:10231000B0E080934A0690934B06A0934C06B0938E
:102320004D0664E472E0CE0101960E94310668E435
:1023300072E0CE0141960E94310667E672E0CE015E
:1023400049960E94310660E070E0CE0181960E94BD
:10235000320E61E070E0CE0187960E94320E64E595
:1023600072E0CE018D960E9431066DE572E0CE01DD
:10237000C9960E9431061CAA1BAA1EAA1DAA18AE45
:102380001FAA69AD7AAD6115710531F04DAD5EAD35
:10239000CE01C3960E94F905BE01635D7F4FCE0159
:1023A000C3960E941F0EBE01695D7F4F0E941F0EE3
:1023B0006AE672E00E94E005BE016F5D7F4F0E94F9
:1023C0001F0EBE01675E7F4F0E941F0EBE016F5E33
:1023D0007F4F0E941F0EBE016F5F7F4F0E941F0E36
:1023E0000E94160E6CE672E085EB98E00E949E0754
:1023F000CE01C3960E94780DCE01C9960E94780D39
:10240000CE018D960E94780DCE0187960E94780DA0
:10241000CE0181960E94780DCE0149960E94780DDA
:10242000CE0141960E94780DCE0101960E94780D52
:1024300061E08DE00E946C0F66246394712C02E0D1
:10244000402E512C80914307909144078230910592
:10245000E9F030F4009771F0019709F46BC023C4E0
:102460008430910509F4D8C108F40CC1059709F42A
:10247000F9C319C41092080A1092070A509244072F
:10248000409243078FE692E00E94700C8091070A09
:102490009091080A029711F5B3E0CB2ED12CD0927F
:1024A000080AC092070A0E94CD0F0E946330209153
:1024B000EB093091EC094091ED095091EE090E9431
:1024C0000E320E94F3326093FF097093000A8093EA
:1024D000010A9093020A81E08093090A8091DF0942
:1024E0009091E009A091E109B091E209181619064E
:1024F0001A061B062CF467EA7AE086EE90EC74C3A9
:1025000060E070E0CB010E94830C8091070A9091FB
:10251000080A892B41F41092DF091092E009109209
:10252000E1091092E209709244076092430785E83E
:1025300092E0B7C310911D06112309F452C0809197
:1025400021068093B20980912A0690912B06A0E083
:10255000B0E08093B5099093B609A093B709B09302
:10256000B80960911F0670E080E090E00E9463303F
:1025700020E030E048EC52E40E947A326093B909DE
:102580007093BA098093BB099093BC0960912006AF
:1025900070E080E090E00E94633020E030E048ECA2
:1025A00052E40E947A326093BD097093BE09809311
:1025B000BF099093C0096091240670912506072EEB
:1025C000000C880B990B0E9465306093CF097093C3
:1025D000D0098093D1099093D20980911E068093EF
:1025E000C1098091070A9091080A9C012350310982
:1025F00022303105F0F4A4E0EA2EF12CF092080A22
:10260000E092070A0E94CD0F0091FF091091000A85
:102610002091010A3091020A60177107820793071F
:1026200010F00C94962D8091C20981110C94962D76
:102630003AC3892B09F037C3112309F434C3E4E00A
:10264000F0E0F093080AE093070A8091C109811134
:1026500009C083E090E0909344078093430781E9A9
:1026600092E01FC3813049F4A4E0B0E0B093440786
:10267000A093430787EA92E014C3709244076092E4
:10268000430711C38091070A9091080A049711F437
:102690000E94A7096091E3097091E4098091E5091E
:1026A0009091E6090091DF091091E0092091E1097C
:1026B0003091E20906171707280739070CF069C09F
:1026C0000E9465309B01AC010E940E322BED3FE071
:1026D00049E450E40E94C43020E030E443E056E492
:1026E0000E947A326B017C012091BD093091BE09B4
:1026F0004091BF095091C00960E070E080E89FE31D
:102700000E940D322091E7093091E8094091E909D2
:102710005091EA090E94C4309B01AC01C701B60187
:102720000E947A326B017C0126E636E646E25FE3E0
:102730000E945E3087FF05C086E696E6A6E2BFE30C
:102740000EC028EA36EC4FE051E4C701B6010E9402
:10275000223318166CF488EA96ECAFE0B1E480936B
:10276000C3099093C409A093C509B093C60908C0D2
:10277000C092C309D092C409E092C509F092C6097B
:102780006091C3097091C4098091C5099091C609EF
:102790002BC260E070E0CB010E94830C8091E309C2
:1027A0009091E409A091E509B091E609BC01CD0141
:1027B000660F771F881F991F0E9465302BED3FE041
:1027C00049E450E40E94C43020E030E443E056E4A1
:1027D0000E947A3220E030E04CEF51E40E94C43095
:1027E00023E63FEB4FE356E40E94C43060933F077B
:1027F000709340078093410790934207F5E0CF2EF6
:10280000D12CD0924407C09243075092080A4092BC
:10281000070A8FEB92E045C28091070A9091080A5F
:10282000049711F40E94A7090E94CD0F0091FB09A3
:102830001091FC092091FD093091FE096017710784
:102840008207930708F0D5C11092D3091092D409DA
:102850001092D5091092D6098091AF09882309F406
:102860005DC10E94CD0F27966CAF7DAF8EAF9FAF3D
:1028700027978091970990919809A0919909B09113
:102880009A0927964CAD5DAD6EAD7FAD2797481B7D
:10289000590B6A0B7B0B8091A3099091A409A0911D
:1028A000A509B091A609481759076A077B0708F4DC
:1028B00035C1E0919109F0919209C080D180E28008
:1028C000F3802396CCAEDDAEEEAEFFAE2397E09163
:1028D0009509F0919609A701960160817181828125
:1028E00093810E940D326B017C0120919F093091F0
:1028F000A0094091A1095091A20923966CAD7DAD2C
:102900008EAD9FAD23970E940D322B966CAF7DAF9D
:102910008EAF9FAF2B97209185093091860940910A
:10292000870950918809C701B6010E94C4302091DF
:102930009B0930919C0940919D0950919E090E94EC
:102940000E324B015C0160939B0970939C0980934C
:102950009D0990939E092091B0092C962FAF2C973A
:1029600021111EC020918109309182094091830973
:10297000509184092B966CAD7DAD8EAD9FAD2B979C
:102980000E94C4309B01AC01C501B4010E940D320C
:1029900060939B0970939C0980939D0990939E0975
:1029A00080919B0990919C09A0919D09B0919E09ED
:1029B00060968CAF9DAFAEAFBFAF60972090AB0974
:1029C0003090AC090091AD091091AE099101A801B8
:1029D000BC01CD010E94223318165CF4C101D8015C
:1029E00080939B0990939C09A0939D09B0939E09A5
:1029F0001CC08090A7099090A809A090A909B09048
:102A0000AA09A501940160966CAD7DAD8EAD9FAD18
:102A100060970E945E3087FF08C080929B09909269
:102A20009C09A0929D09B0929E092C969FAD2C976F
:102A3000992379F02091810930918209409183098D
:102A400050918409C701B6010E94C4306B017C011A
:102A500003C0C12CD12C76012091890930918A09BB
:102A600040918B0950918C092B966CAD7DAD8EAD4C
:102A70009FAD2B970E94C4309B01AC0160919B09D4
:102A800070919C0980919D0990919E090E940D3240
:102A9000A70196010E940E326B017C019B01AC01E3
:102AA000B101C8010E945E3087FD12C02090A709C5
:102AB0003090A8090091A9091091AA099101A801D3
:102AC000B601C7010E945E3087FD02C01601870172
:102AD000E0919309F0919409C101D8018083918319
:102AE000A283B3832396CCACDDACEEACFFAC2397D2
:102AF000C0929F09D092A009E092A109F092A20988
:102B00002796CCACDDACEEACFFAC2797C092970912
:102B1000D0929809E0929909F0929A092091D709E8
:102B20003091D8094091D9095091DA096091CF09C3
:102B30007091D0098091D1099091D2090E940D32F3
:102B40006B017C0120E030E0A9010E9422331816BD
:102B50001CF4C701B60103C0C701B60190580E941A
:102B6000EC3253E0660F771F881F991F5A95D1F7F3
:102B700023E230E040E050E00E948231CA01B90116
:102B80000E9465304B015C0120E030E0A901C701E3
:102B9000B6010E942233A501940187FD0BC060910C
:102BA000CB097091CC098091CD099091CE090E94FA
:102BB0000E320AC06091CB097091CC098091CD0989
:102BC0009091CE090E940D326093CB097093CC098D
:102BD0008093CD099093CE096091CB097091CC0977
:102BE0008091CD099091CE090E94830C0E94550AD4
:102BF0005AC08091E3099091E409A091E509B09150
:102C0000E609BC01CD01660F771F881F991F0E943E
:102C100065302BED3FE049E450E40E94C43020E0F1
:102C200030E443E056E40E947A3220E030E04CEF9A
:102C300051E40E94C43023E63FEB4FE356E40E9488
:102C4000C43060933F07709340078093410790938F
:102C5000420750924407409243075092080A40921C
:102C6000070A1DC00E94CD0F0091FB091091FC09BD
:102C70002091FD093091FE096017710782079307C3
:102C800050F460E070E0CB010E94830C5092080A7F
:102C90004092070A08C050924407409243078FE6CB
:102CA00092E00E94700C80916507909166078130D8
:102CB000910549F188F0029709F0A2C010926607C9
:102CC0001092650710925F0710925E07E9E4F7E043
:102CD000DF0180E090E050C00E94CD0F00914507D9
:102CE000109146072091470730914807DC01CB013E
:102CF000801B910BA20BB30BC397A105B10508F480
:102D00007FC00C94DD2D509266074092650780913C
:102D10007B00877F80937B0080E480937C008091A0
:102D20007A00806480937A0080917A0086FDFCCFDF
:102D3000209178008091790000915D0710E0000FEC
:102D4000111F075B184F30E0382BC901A0E0B0E03D
:102D50009C01AD012C5C310941095109A8E5B2E0A3
:102D60000E94A13123E333E040E050E00E94823131
:102D7000D8012D933C9344C02D913D91820F931F18
:102D800027E0AD35B207C1F76AE070E00E94DD319F
:102D900070935F0760935E0780915D0790E0DC01B0
:102DA000AA0FBB1FA75BB84F4D915C9120916007A4
:102DB00030916107241735070CF49A0130936107AD
:102DC0002093600721913191261B370B37FF03C0F9
:102DD0003195219531092B3031055CF447E0ED3513
:102DE000F40781F721E020936207709364076093F2
:102DF000630701966AE070E00E94DD3180935D0711
:102E00001982E0914706F0914806E732F10510F08B
:102E10000C94402C8827EE58FF4F8F4F0C94F131C3
:102E20008FE20E945508882311F40C94442C0E94D0
:102E3000EE084CEC52E060E080E00E94F8084DEDB6
:102E400052E061E080E00E94F808709248066092CB
:102E500047060E9415080C94442C8BE20E945508EA
:102E6000882371F04EEE52E061E080E00E94F808A5
:102E700083E090E090934806809347060C94442C9E
:102E80008DE20E945508882361F04FEF52E061E027
:102E900080E00E94F80850924806409247060C9441
:102EA000442C81E30E945508882369F082E08093D6
:102EB000330684E290E090934806809347060E9490
:102EC00015080C94442C83E30E945508882391F044
:102ED00040E153E060E080E00E94F80841E253E006
:102EE00061E080E00E94F8081092480610924706C0
:102EF0000C94442C64EF71E080E090E00E94210883
:102F0000882311F40C94442CA4E0B0E0B09348065C
:102F1000A09347064CEA54E061E080E00E94F80884
:102F20000E9415080C94442C8BE20E9455088111D4
:102F300099CF8DE20E9455088111A7CF81E30E94AD
:102F400055088111B3CF83E30E9455088111C0CF8A
:102F50006AEF70E080E090E00E942108882311F47D
:102F60000C94442C4DED52E061E080E00E94F808A2
:102F700070924806609247060E9415080C94442CF3
:102F80008BE20E945508882361F04DED52E061E02C
:102F900080E00E94F80870924806609247060C9400
:102FA000442C8DE20E94550881115CCF81E30E9480
:102FB0005508882391F04FEF52E061E080E00E94D5
:102FC000F8081092330687E090E0909348068093CB
:102FD00047060E9415080C94442C83E30E94550870
:102FE000811176CF64EF71E080E090E00E942108CB
:102FF000882311F40C94442CE5E0F0E0F0934806AB
:10300000E09347064CEA54E061E080E00E94F80853
:103010000E9415080C94442C8BE20E9455088111E3
:10302000B4CF8DE20E94550881111CCF81E30E942C
:1030300055088111C0CF83E30E945508811148CF04
:103040006AEF70E080E090E00E942108882311F48C
:103050000C94442C50924806409247064FEF52E0A1
:1030600061E080E00E94F8080E9415080C94442C4E
:103070008BE20E945508811108CF8DE20E9455080D
:10308000811183CF81E30E945508882399F04EEE89
:1030900052E061E080E00E94F80881E0809333060E
:1030A00087E090E090934806809347060E941508B9
:1030B0000C94442C83E30E945508811109CF64EFDE
:1030C00071E080E090E00E942108882311F40C94C4
:1030D000442C86E0C82ED12CD0924806C0924706D8
:1030E0004CEA54E061E080E00E94F8080E94150874
:1030F0000C94442C8BE20E9455088111C6CE8DE2BF
:103100000E945508811141CF81E30E945508811129
:10311000BECF83E30E9455088111DACE6AEF70E0DA
:1031200080E090E00E942108882311F40C94442C44
:1031300003E0E02EF12CF0924806E09247064EEEB6
:1031400052E061E080E00E94F8080E9415080C94AB
:10315000442C64EF71E080E090E00E942108882315
:1031600011F40C94442C80913306813049F50E946F
:10317000EE0842E353E060E080E00E94F8084AE095
:10318000BE016F5F7F4F8091390690913A060E9491
:10319000293063E473E0CE0101960E943B35AE0115
:1031A0004F5F5F4F61E080E00E94F8088BE090E0A5
:1031B00090934806809347060E9415080C94442C6F
:1031C00081110C94442C0E94EE084AE453E060E024
:1031D00080E00E94F8084AE0BE016F5F7F4F809157
:1031E0003F06909140060E9429306BE573E0CE01C6
:1031F00001960E943B35AE014F5F5F4F61E080E07A
:103200000E94F80888E090E0909348068093470673
:103210000E9415080C94442C8BE20E9455088823C8
:1032200041F18091390690913A068832910514F463
:10323000019602C088E290E090933A0680933906A6
:103240004AE0BE016F5F7F4F8091390690913A0648
:103250000E94293063E473E0CE0101960E943B3561
:10326000AE014F5F5F4F61E080E00E94F8080C9470
:10327000442C8DE20E945508882351F18091390633
:1032800090913A068630910534F0019790933A0672
:103290008093390604C070923A06609239064AE07B
:1032A000BE016F5F7F4F8091390690913A060E9470
:1032B000293063E473E0CE0101960E943B35AE01F4
:1032C0004F5F5F4F61E080E00E94F8080C94442C4F
:1032D00081E30E945508882309F14AE0BE016F5F2F
:1032E0007F4F8091390690913A060E94293063E41D
:1032F00073E0CE0101960E943B35AE014F5F5F4FF8
:1033000061E080E00E94F8088DE090E0909348062C
:10331000809347060E9415080C94442C83E30E9476
:103320005508811184CD64EF71E080E090E00E9447
:103330002108882311F40C94442C8CE090E09093A5
:103340004806809347064CEA54E061E080E00E9422
:10335000F8080E9415080C94442C8BE20E94550832
:10336000882349F18091390690913A068832910577
:103370003CF420913F06309140062F5F3F4F02C042
:1033800028E230E03093400620933F064AE0BE0139
:103390006F5F7F4F0E94293063E473E0CE01019696
:1033A0000E943B35AE014F5F5F4F61E080E00E94BD
:1033B000F8080C94442C8DE20E945508882361F192
:1033C00080913F06909140068630910530F001973C
:1033D0009093400680933F0606C0A5E0B0E0B0930E
:1033E0004006A0933F064AE0BE016F5F7F4F809189
:1033F000390690913A060E94293063E473E0CE01C9
:1034000001960E943B35AE014F5F5F4F61E080E067
:103410000E94F8080C94442C81E30E9455088823EC
:1034200009F14AE0BE016F5F7F4F809139069091AC
:103430003A060E94293063E473E0CE0101960E94AF
:103440003B35AE014F5F5F4F61E080E00E94F808BE
:103450008DE090E090934806809347060E941508FF
:103460000C94442C83E30E9455088111E0CC6AEF50
:1034700070E080E090E00E942108882311F40C9411
:10348000442C4AE0BE016F5F7F4F809139069091D6
:103490003A060E94293063E473E0CE0101960E944F
:1034A0003B35AE014F5F5F4F61E080E00E94F8085E
:1034B0008BE090E090934806809347060E941508A1
:1034C0000C94442C64EF71E080E090E00E942108AD
:1034D000882311F40C94442C0E94EE084EE553E02E
:1034E00060E080E00E94F8084AE0BE016F5F7F4F15
:1034F00080914106909142060E9429306FE673E068
:10350000CE0101960E943B35AE014F5F5F4F61E0F7
:1035100080E00E94F8088EE090E090934806809347
:1035200047060E9415080C94442C8BE20E94550813
:10353000882349F180913F06909140068032B3E0A4
:103540009B0710F4C29602C080E293E0909340067D
:1035500080933F064AE0BE016F5F7F4F80913F0638
:10356000909140060E9429306BE573E0CE010196F0
:103570000E943B35AE014F5F5F4F61E080E00E94EB
:10358000F8080C94442C8DE20E945508882349F1D8
:1035900080913F06909140068D32E1E09E0710F049
:1035A000C29702C08CE291E09093400680933F0660
:1035B0004AE0BE016F5F7F4F80913F0690914006C9
:1035C0000E9429306BE573E0CE0101960E943B35E5
:1035D000AE014F5F5F4F61E080E00E94F8080C94FD
:1035E000442C81E30E945508882311F14AE0BE0172
:1035F0006F5F7F4F80913F06909140060E94293077
:103600006BE573E0CE0101960E943B35AE014F5F42
:103610005F4F61E080E00E94F8081AE0C12ED12CD3
:10362000D0924806C09247060E9415080C94442C7C
:1036300083E30E9455088111FACB64EF71E080E0CA
:1036400090E00E942108882311F40C94442C89E016
:1036500090E090934806809347064CEA54E061E07E
:1036600080E00E94F8080E9415080C94442C8BE21C
:103670000E945508882349F180913F0690914006A9
:10368000803223E0920710F4C29602C080E293E0F9
:103690009093400680933F064AE0BE016F5F7F4FE4
:1036A00080913F06909140060E9429306BE573E0BF
:1036B000CE0101960E943B35AE014F5F5F4F61E046
:1036C00080E00E94F8080C94442C8DE20E9455087A
:1036D000882349F180913F06909140068D3241E068
:1036E000940710F0C29702C08CE291E090934006DC
:1036F00080933F064AE0BE016F5F7F4F80913F0697
:10370000909140060E9429306BE573E0CE0101964E
:103710000E943B35AE014F5F5F4F61E080E00E9449
:10372000F8080C94442C81E30E945508882309F181
:103730004AE0BE016F5F7F4F80913F069091400647
:103740000E9429306BE573E0CE0101960E943B3563
:10375000AE014F5F5F4F61E080E00E94F8088AE0B1
:1037600090E090934806809347060E9415080C94B9
:10377000442C83E30E945508811159CB6AEF70E015
:1037800080E090E00E942108882311F40C94442CDE
:103790004AE0BE016F5F7F4F80913F0690914006E7
:1037A0000E9429306BE573E0CE0101960E943B3503
:1037B000AE014F5F5F4F61E080E00E94F808A8E033
:1037C000B0E0B0934806A09347060E9415080C94F9
:1037D000442C64EF71E080E090E00E94210888238F
:1037E00011F40C94442C0E94EE084EE553E060E086
:1037F00080E00E94F8084AE0BE016F5F7F4F809131
:103800004106909142060E9429306FE673E0CE0196
:1038100001960E943B35AE014F5F5F4F61E080E053
:103820000E94F8088EE090E0909348068093470647
:103830000E9415080C94442C8BE20E9455088823A2
:1038400041F180914106909142068031910510F43A
:10385000019602C080E190E0909342068093410679
:103860004AE0BE016F5F7F4F809141069091420612
:103870000E9429306FE673E0CE0101960E943B352D
:10388000AE014F5F5F4F61E080E00E94F8080C944A
:10389000442C8DE20E945508882341F18091410615
:1038A000909142068D30910510F0019702C08CE096
:1038B00090E090934206809341064AE0BE016F5F1C
:1038C0007F4F80914106909142060E9429306FE619
:1038D00073E0CE0101960E943B35AE014F5F5F4F12
:1038E00061E080E00E94F8080C94442C81E30E947F
:1038F0005508882309F14AE0BE016F5F7F4F809130
:103900004106909142060E9429306FE673E0CE0195
:1039100001960E943B35AE014F5F5F4F61E080E052
:103920000E94F80880E190E0909348068093470653
:103930000E9415080C94442C83E30E9455088823A8
:1039400009F459C080913306813049F50E94EE0890
:1039500042E353E060E080E00E94F8084AE0BE01E4
:103960006F5F7F4F8091390690913A060E9429300F
:1039700063E473E0CE0101960E943B35AE014F5FD8
:103980005F4F61E080E00E94F8088BE090E0909348
:103990004806809347060E9415080C94442C811118
:1039A0000C94442C0E94EE084AE453E060E080E06E
:1039B0000E94F8084AE0BE016F5F7F4F80913F068A
:1039C000909140060E9429306BE573E0CE0101968C
:1039D0000E943B35AE014F5F5F4F61E080E00E9487
:1039E000F808E8E0F0E0F0934806E09347060E940C
:1039F00015080C94442C64EF71E080E090E00E9484
:103A00002108882311F40C94442C8FE090E09093CB
:103A10004806809347064CEA54E061E080E00E944B
:103A2000F8080E9415080C94442C8BE20E9455085B
:103A3000882341F1809141069091420680319105A1
:103A400010F4019602C080E190E0909342068093CA
:103A500041064AE0BE016F5F7F4F80914106909121
:103A600042060E9429306FE673E0CE0101960E9463
:103A70003B35AE014F5F5F4F61E080E00E94F80888
:103A80000C94442C8DE20E945508882341F18091CA
:103A90004106909142068D30910510F0019702C0C9
:103AA0008CE090E090934206809341064AE0BE018C
:103AB0006F5F7F4F80914106909142060E942930AE
:103AC0006FE673E0CE0101960E943B35AE014F5F79
:103AD0005F4F61E080E00E94F8080C94442C81E381
:103AE0000E945508882309F14AE0BE016F5F7F4FAD
:103AF00080914106909142060E9429306FE673E062
:103B0000CE0101960E943B35AE014F5F5F4F61E0F1
:103B100080E00E94F80880E190E09093480680934E
:103B200047060E9415080C94442C83E30E94550814
:103B3000882309F45AC080913306813049F50E94E8
:103B4000EE0842E353E060E080E00E94F8084AE0BB
:103B5000BE016F5F7F4F8091390690913A060E94B7
:103B6000293063E473E0CE0101960E943B35AE013B
:103B70004F5F5F4F61E080E00E94F8088BE090E0CB
:103B800090934806809347060E9415080C94442C95
:103B900081110C94442C0E94EE084AE453E060E04A
:103BA00080E00E94F8084AE0BE016F5F7F4F80917D
:103BB0003F06909140060E9429306BE573E0CE01EC
:103BC00001960E943B35AE014F5F5F4F61E080E0A0
:103BD0000E94F808B8E0CB2ED12CD0924806C092B3
:103BE00047060E9415080C94442C64EF71E080E0B5
:103BF00090E00E942108882311F40C94442C4AE0A0
:103C0000BE016F5F7F4F80914106909142060E94F6
:103C100029306FE673E0CE0101960E943B35AE017C
:103C20004F5F5F4F61E080E00E94F8088EE090E017
:103C300090934806809347060E9415080C94442CE4
:103C400064EF71E080E090E00E942108882311F485
:103C50000C94442C0E94EE0843E753E060E080E0BF
:103C60000E94F8084AE0BE016F5F7F4F80914306D3
:103C7000909144060E9429306FE673E0CE010196D0
:103C80000E943B35AE014F5F5F4F61E080E00E94D4
:103C9000F80881E190E090934806809347060E94DF
:103CA00015080C94442C8BE20E945508882369F176
:103CB00080914306909144068530910530F4019639
:103CC000909344068093430607C0A5E0EA2EF12CAA
:103CD000F0924406E09243064AE0BE016F5F7F4FD8
:103CE00080914306909144060E9429306FE673E06C
:103CF000CE0101960E943B35AE014F5F5F4F61E000
:103D000080E00E94F8080C94442C8DE20E94550833
:103D1000882351F1809143069091440682309105A9
:103D200030F00197909344068093430604C070924C
:103D30004406609243064AE0BE016F5F7F4F809168
:103D40004306909144060E9429306FE673E0CE014D
:103D500001960E943B35AE014F5F5F4F61E080E00E
:103D60000E94F8080C94442C81E30E945508882393
:103D700009F14AE0BE016F5F7F4F80914306909149
:103D800044060E9429306FE673E0CE0101960E943E
:103D90003B35AE014F5F5F4F61E080E00E94F80865
:103DA00083E190E090934806809347060E941508AF
:103DB0000C94442C83E30E945508882349F10E9407
:103DC000EE084EE553E060E080E00E94F8084AE02B
:103DD000BE016F5F7F4F80914106909142060E9425
:103DE00029306FE673E0CE0101960E943B35AE01AB
:103DF0004F5F5F4F61E080E00E94F8088EE090E046
:103E000090934806809347060E9415080C94442C12
:103E100064EF71E080E090E00E942108882311F4B3
:103E20000C94442C82E190E09093480680934706DE
:103E30004CEA54E061E080E00E94F8080E94150816
:103E40000C94442C8BE20E945508882341F1809108
:103E50004306909144068530910510F4019602C006
:103E600085E090E090934406809343064AE0BE01CB
:103E70006F5F7F4F80914306909144060E942930E6
:103E80006FE673E0CE0101960E943B35AE014F5FB5
:103E90005F4F61E080E00E94F8080C94442C8DE2B2
:103EA0000E945508882351F1809143069091440661
:103EB0008230910530F00197909344068093430639
:103EC00004C070924406609243064AE0BE016F5FF0
:103ED0007F4F80914306909144060E9429306FE6FF
:103EE00073E0CE0101960E943B35AE014F5F5F4FFC
:103EF00061E080E00E94F8080C94442C81E30E9469
:103F00005508882309F14AE0BE016F5F7F4F809119
:103F10004306909144060E9429306FE673E0CE017B
:103F200001960E943B35AE014F5F5F4F61E080E03C
:103F30000E94F80883E190E090934806809347063A
:103F40000E9415080C94442C83E30E945508882392
:103F500049F10E94EE084EE553E060E080E00E94E7
:103F6000F8084AE0BE016F5F7F4F80914106909153
:103F700042060E9429306FE673E0CE0101960E944E
:103F80003B35AE014F5F5F4F61E080E00E94F80873
:103F90008EE090E090934806809347060E941508B3
:103FA0000C94442C64EF71E080E090E00E942108C2
:103FB000882311F40C94442C4AE0BE016F5F7F4FBC
:103FC00080914306909144060E9429306FE673E089
:103FD000CE0101960E943B35AE014F5F5F4F61E01D
:103FE00080E00E94F80881E190E090934806809379
:103FF00047060E9415080C94442C64EF71E080E0A1
:1040000090E00E942108882311F40C94442C0E9413
:10401000EE0844E853E060E080E00E94F8088091F8
:1040200036064AE0BE016F5F7F4F90E00E94293064
:104030006BEB74E0CE0101960E943B35AE014F5F01
:104040005F4F61E080E00E94F80884E190E0909387
:104050004806809347060E9415080C94442C8BE276
:104060000E945508882309F1809136068E3110F49C
:104070008F5F01C08EE180933606809136064AE05C
:10408000BE016F5F7F4F90E00E9429306BEB74E0C0
:10409000CE0101960E943B35AE014F5F5F4F61E05C
:1040A00080E00E94F8080C94442C8DE20E94550890
:1040B000882309F180913606863010F0815001C0C6
:1040C00085E080933606809136064AE0BE016F5F38
:1040D0007F4F90E00E9429306BEB74E0CE01019697
:1040E0000E943B35AE014F5F5F4F61E080E00E9470
:1040F000F8080C94442C81E30E945508882301F1B0
:10410000809136064AE0BE016F5F7F4F90E00E94CB
:1041100029306BEB74E0CE0101960E943B35AE0175
:104120004F5F5F4F61E080E00E94F80886E190E019
:1041300090934806809347060E9415080C94442CDF
:1041400083E30E945508882349F10E94EE0843E763
:1041500053E060E080E00E94F8084AE0BE016F5F33
:104160007F4F80914106909142060E9429306BEB6F
:1041700074E0CE0101960E943B35AE014F5F5F4F68
:1041800061E080E00E94F80881E190E090934806A9
:10419000809347060E9415080C94442C64EF71E04C
:1041A00080E090E00E942108882311F40C94442CB4
:1041B00085E190E090934806809347064CEA54E0EE
:1041C00061E080E00E94F8080E9415080C94442CDD
:1041D0008BE20E945508882309F1809136068E31C2
:1041E00010F48F5F01C08EE1809336068091360611
:1041F0004AE0BE016F5F7F4F90E00E9429306BEB79
:1042000074E0CE0101960E943B35AE014F5F5F4FD7
:1042100061E080E00E94F8080C94442C8DE20E943A
:104220005508882309F180913606863010F08150B8
:1042300001C085E080933606809136064AE0BE01D3
:104240006F5F7F4F90E00E9429306BEB74E0CE01EE
:1042500001960E943B35AE014F5F5F4F61E080E009
:104260000E94F8080C94442C81E30E94550888238E
:1042700001F1809136064AE0BE016F5F7F4F90E00A
:104280000E9429306BEB74E0CE0101960E943B3511
:10429000AE014F5F5F4F61E080E00E94F80886E169
:1042A00090E090934806809347060E9415080C946E
:1042B000442C83E30E945508882349F10E94EE08AC
:1042C00043E753E060E080E00E94F8084AE0BE0166
:1042D0006F5F7F4F80914106909142060E94293086
:1042E0006BEB74E0CE0101960E943B35AE014F5F4F
:1042F0005F4F61E080E00E94F80881E190E09093D8
:104300004806809347060E9415080C94442C64EFDD
:1043100071E080E090E00E942108882311F40C9461
:10432000442C809136064AE0BE016F5F7F4F90E0DB
:104330000E9429306BEB74E0CE0101960E943B3560
:10434000AE014F5F5F4F61E080E00E94F80884E1BA
:1043500090E090934806809347060E9415080C94BD
:10436000442C64EF71E080E090E00E9421088823F3
:1043700011F40C94442C0E94EE0845E953E060E0EF
:1043800080E00E94F808809134064AE0BE016F5F29
:104390007F4F90E00E94293065E775E0CE010196DD
:1043A0000E943B35AE014F5F5F4F61E080E00E94AD
:1043B000F80887E190E090934806809347060E94B2
:1043C00015080C94442C8BE20E945508882309F1AF
:1043D00080913406803510F48B5F01C080E58093B6
:1043E0003406809134064AE0BE016F5F7F4F90E053
:1043F0000E94293065E775E0CE0101960E943B35A9
:10440000AE014F5F5F4F61E080E00E94F8080C94BE
:10441000442C8DE20E945508882309F180913406CE
:104420008B3010F0855001C08AE080933406809173
:1044300034064AE0BE016F5F7F4F90E00E94293052
:1044400065E775E0CE0101960E943B35AE014F5FF6
:104450005F4F61E080E00E94F8080C94442C81E3F7
:104460000E945508882301F1809134064AE0BE017C
:104470006F5F7F4F90E00E94293065E775E0CE01C5
:1044800001960E943B35AE014F5F5F4F61E080E0D7
:104490000E94F80889E190E09093480680934706CF
:1044A0000E9415080C94442C83E30E94550888232D
:1044B00041F10E94EE0844E853E060E080E00E9491
:1044C000F808809136064AE0BE016F5F7F4F90E0AA
:1044D0000E9429306BEB74E0CE0101960E943B35BF
:1044E000AE014F5F5F4F61E080E00E94F80884E119
:1044F00090E090934806809347060E9415080C941C
:10450000442C64EF71E080E090E00E942108882351
:1045100011F40C94442C88E190E090934806809329
:1045200047064CEA54E061E080E00E94F8080E94EF
:1045300015080C94442C8BE20E945508882309F13D
:1045400080913406803510F48B5F01C080E5809344
:104550003406809134064AE0BE016F5F7F4F90E0E1
:104560000E94293065E775E0CE0101960E943B3537
:10457000AE014F5F5F4F61E080E00E94F8080C944D
:10458000442C8DE20E945508882309F1809134065D
:104590008B3010F0855001C08AE080933406809102
:1045A00034064AE0BE016F5F7F4F90E00E942930E1
:1045B00065E775E0CE0101960E943B35AE014F5F85
:1045C0005F4F61E080E00E94F8080C94442C81E386
:1045D0000E945508882301F1809134064AE0BE010B
:1045E0006F5F7F4F90E00E94293065E775E0CE0154
:1045F00001960E943B35AE014F5F5F4F61E080E066
:104600000E94F80889E190E090934806809347065D
:104610000E9415080C94442C83E30E9455088823BB
:1046200041F10E94EE0844E853E060E080E00E941F
:10463000F808809136064AE0BE016F5F7F4F90E038
:104640000E9429306BEB74E0CE0101960E943B354D
:10465000AE014F5F5F4F61E080E00E94F80884E1A7
:1046600090E090934806809347060E9415080C94AA
:10467000442C64EF71E080E090E00E9421088823E0
:1046800011F40C94442C809134064AE0BE016F5F13
:104690007F4F90E00E94293065E775E0CE010196DA
:1046A0000E943B35AE014F5F5F4F61E080E00E94AA
:1046B000F80887E190E090934806809347060E94AF
:1046C00015080C94442C64EF71E080E090E00E94A7
:1046D0002108882311F40C94442C0E94EE0846EA29
:1046E00053E060E080E00E94F808809135064AE0DF
:1046F000BE016F5F7F4F90E00E94293065E775E053
:10470000CE0101960E943B35AE014F5F5F4F61E0E5
:1047100080E00E94F8088AE190E090934806809338
:1047200047060E9415080C94442C8BE20E94550801
:10473000882309F1809135068E3110F48B5F01C01A
:104740008EE180933506809135064AE0BE016F5FA9
:104750007F4F90E00E94293065E775E0CE01019619
:104760000E943B35AE014F5F5F4F61E080E00E94E9
:10477000F8080C94442C8DE20E945508882311F10E
:1047800080913506882321F085508093350602C03C
:1047900010923506809135064AE0BE016F5F7F4F6B
:1047A00090E00E94293065E775E0CE0101960E94F5
:1047B0003B35AE014F5F5F4F61E080E00E94F8083B
:1047C0000C94442C81E30E945508882301F18091C8
:1047D00035064AE0BE016F5F7F4F90E00E942930AE
:1047E00065E775E0CE0101960E943B35AE014F5F53
:1047F0005F4F61E080E00E94F8088CE190E09093C8
:104800004806809347060E9415080C94442C83E3C5
:104810000E945508882341F10E94EE0845E953E0C3
:1048200060E080E00E94F808809134064AE0BE0112
:104830006F5F7F4F90E00E94293065E775E0CE0101
:1048400001960E943B35AE014F5F5F4F61E080E013
:104850000E94F80887E190E090934806809347060D
:104860000E9415080C94442C64EF71E080E090E005
:104870000E942108882311F40C94442C8BE190E0D1
:1048800090934806809347064CEA54E061E080E04C
:104890000E94F8080E941508F7C78BE20E9455088D
:1048A000882301F1809135068E3110F48B5F01C0B1
:1048B0008EE180933506809135064AE0BE016F5F38
:1048C0007F4F90E00E94293065E775E0CE010196A8
:1048D0000E943B35AE014F5F5F4F61E080E00E9478
:1048E000F808D2C78DE20E945508882309F180910B
:1048F0003506882321F085508093350602C010923A
:104900003506809135064AE0BE016F5F7F4F90E02B
:104910000E94293065E775E0CE0101960E943B3583
:10492000AE014F5F5F4F61E080E00E94F808ACC7C6
:1049300081E30E9455088823F9F0809135064AE00A
:10494000BE016F5F7F4F90E00E94293065E775E000
:10495000CE0101960E943B35AE014F5F5F4F61E093
:1049600080E00E94F8088CE190E0909348068093E4
:1049700047060E94150888C783E30E9455088823CC
:1049800039F10E94EE0845E953E060E080E00E94C2
:10499000F808809134064AE0BE016F5F7F4F90E0D7
:1049A0000E94293065E775E0CE0101960E943B35F3
:1049B000AE014F5F5F4F61E080E00E94F80887E141
:1049C00090E090934806809347060E9415085CC7C4
:1049D00064EF71E080E090E00E942108882309F4F0
:1049E00053C7809135064AE0BE016F5F7F4F90E06C
:1049F0000E94293065E775E0CE0101960E943B35A3
:104A0000AE014F5F5F4F61E080E00E94F8088AE1ED
:104A100090E090934806809347060E94150834C79B
:104A200064EF71E080E090E00E942108882309F49F
:104A30002BC70E94EE0847EB53E060E080E00E9445
:104A4000F8084AE0BE016F5F7F4F80913B0690916E
:104A50003C060E94293063E473E0CE0101960E9477
:104A60003B35AE014F5F5F4F61E080E00E94F80888
:104A70008DE190E090934806809347060E941508C8
:104A800003C78BE20E945508882339F180913B06C9
:104A900090913C068733910514F4019602C087E398
:104AA00090E090933C0680933B064AE0BE016F5F26
:104AB0007F4F80913B0690913C060E94293063E431
:104AC00073E0CE0101960E943B35AE014F5F5F4F10
:104AD00061E080E00E94F808D7C68DE20E94550888
:104AE000882339F180913B0690913C0684329105F0
:104AF00014F0019702C083E290E090933C0680930B
:104B00003B064AE0BE016F5F7F4F80913B0690916C
:104B10003C060E94293063E473E0CE0101960E94B6
:104B20003B35AE014F5F5F4F61E080E00E94F808C7
:104B3000ABC681E30E945508882301F14AE0BE011B
:104B40006F5F7F4F80913B0690913C060E94293019
:104B500063E473E0CE0101960E943B35AE014F5FE6
:104B60005F4F61E080E00E94F8088FE190E0909351
:104B70004806809347060E94150886C683E30E9474
:104B80005508882339F10E94EE0846EA53E060E0B8
:104B900080E00E94F808809135064AE0BE016F5F10
:104BA0007F4F90E00E94293065E775E0CE010196C5
:104BB0000E943B35AE014F5F5F4F61E080E00E9495
:104BC000F8088AE190E090934806809347060E9497
:104BD00015085AC664EF71E080E090E00E94210859
:104BE000882309F451C68EE190E0909348068093A3
:104BF00047064CEA54E061E080E00E94F8080E9419
:104C0000150842C68BE20E945508882339F180912D
:104C10003B0690913C068733910514F4019602C03F
:104C200087E390E090933C0680933B064AE0BE0108
:104C30006F5F7F4F80913B0690913C060E94293028
:104C400063E473E0CE0101960E943B35AE014F5FF5
:104C50005F4F61E080E00E94F80816C68DE20E9476
:104C60005508882339F180913B0690913C068432A7
:104C7000910514F0019702C083E290E090933C0606
:104C800080933B064AE0BE016F5F7F4F80913B06F9
:104C900090913C060E94293063E473E0CE010196B6
:104CA0000E943B35AE014F5F5F4F61E080E00E94A4
:104CB000F808EAC581E30E945508882301F14AE01B
:104CC000BE016F5F7F4F80913B0690913C060E9432
:104CD000293063E473E0CE0101960E943B35AE01BA
:104CE0004F5F5F4F61E080E00E94F8088FE190E045
:104CF00090934806809347060E941508C5C583E334
:104D00000E945508882339F10E94EE0846EA53E0D4
:104D100060E080E00E94F808809135064AE0BE011C
:104D20006F5F7F4F90E00E94293065E775E0CE010C
:104D300001960E943B35AE014F5F5F4F61E080E01E
:104D40000E94F8088AE190E0909348068093470615
:104D50000E94150899C564EF71E080E090E00E9420
:104D60002108882309F490C54AE0BE016F5F7F4F98
:104D700080913B0690913C060E94293063E473E0E9
:104D8000CE0101960E943B35AE014F5F5F4F61E05F
:104D900080E00E94F8088DE190E0909348068093AF
:104DA00047060E94150870C564EF71E080E090E04E
:104DB0000E942108882309F467C50E94EE0848EC88
:104DC00053E060E080E00E94F808809145064AE0E8
:104DD000BE016F5F7F4F082E000C990B0E94293097
:104DE0006BEB74E0CE0101960E943B35AE014F5F44
:104DF0005F4F61E080E00E94F80880E290E09093CD
:104E00004806809347060E9415083EC58BE20E9423
:104E10005508882319F18091450687FF04C08F5FEC
:104E20008093450602C010924506809145064AE0EF
:104E3000BE016F5F7F4F082E000C990B0E94293036
:104E40006BEB74E0CE0101960E943B35AE014F5FE3
:104E50005F4F61E080E00E94F80816C58DE20E9475
:104E60005508882311F180914506813F14F0815047
:104E700001C080EF80934506809145064AE0BE015F
:104E80006F5F7F4F082E000C990B0E9429306BEB4F
:104E900074E0CE0101960E943B35AE014F5F5F4F3B
:104EA00061E080E00E94F808EFC481E30E945508A9
:104EB000882309F1809145064AE0BE016F5F7F4F6C
:104EC000082E000C990B0E9429306BEB74E0CE0188
:104ED00001960E943B35AE014F5F5F4F61E080E07D
:104EE0000E94F80882E290E090934806809347067B
:104EF0000E941508C9C483E30E945508882341F124
:104F00000E94EE0847EB53E060E080E00E94F80862
:104F10004AE0BE016F5F7F4F80913B0690913C0657
:104F20000E94293063E473E0CE0101960E943B3574
:104F3000AE014F5F5F4F61E080E00E94F8088DE1B5
:104F400090E090934806809347060E9415089CC401
:104F500064EF71E080E090E00E942108882309F46A
:104F600093C481E290E090934806809347064CEA10
:104F700054E061E080E00E94F8080E94150884C4B3
:104F80008BE20E945508882319F18091450687FF1E
:104F900004C08F5F8093450602C010924506809141
:104FA00045064AE0BE016F5F7F4F082E000C990B4B
:104FB0000E9429306BEB74E0CE0101960E943B35D4
:104FC000AE014F5F5F4F61E080E00E94F8085CC473
:104FD0008DE20E945508882311F180914506813F9A
:104FE00014F0815001C080EF809345068091450602
:104FF0004AE0BE016F5F7F4F082E000C990B0E94A4
:1050000029306BEB74E0CE0101960E943B35AE0176
:105010004F5F5F4F61E080E00E94F80835C481E394
:105020000E945508882309F1809145064AE0BE0197
:105030006F5F7F4F082E000C990B0E9429306BEB9D
:1050400074E0CE0101960E943B35AE014F5F5F4F89
:1050500061E080E00E94F80882E290E090934806C8
:10506000809347060E9415080FC483E30E945508E9
:10507000882341F10E94EE0847EB53E060E080E0B6
:105080000E94F8084AE0BE016F5F7F4F80913B06A7
:1050900090913C060E94293063E473E0CE010196B2
:1050A0000E943B35AE014F5F5F4F61E080E00E94A0
:1050B000F8088DE190E090934806809347060E949F
:1050C0001508E2C364EF71E080E090E00E942108DF
:1050D000882309F4D9C3809145064AE0BE016F5F79
:1050E0007F4F082E000C990B0E9429306BEB74E067
:1050F000CE0101960E943B35AE014F5F5F4F61E0EC
:1051000080E00E94F80880E290E090934806809347
:1051100047060E941508B8C364EF71E080E090E094
:105120000E942108882309F4AFC30E94EE0849EDCC
:1051300053E060E080E00E94F8084AEE53E061E04E
:1051400080E00E94F808AE014F5F5F4F61E080E0B1
:105150000E94F80883E290E0909348068093470607
:1051600093C364EF71E080E090E00E9421088823FF
:1051700009F48AC30E94EE0880911E06813019F45A
:1051800049ED53E002C04BEF53E060E080E00E9445
:10519000F8084AEE53E061E080E00E94F808AE01B2
:1051A0004F5F5F4F61E080E00E94F80883E290E08B
:1051B000909348068093470667C381E30E94550891
:1051C000882309F4D9C08091330680931E0680910C
:1051D000340680931F0680913506809320068091C7
:1051E0003B0690913C06909327068093260680917B
:1051F0003D0690913E069093290680932806809163
:1052000036068093210680913F0690914006909348
:105210002B0680932A068091450680933006809164
:1052200041069091420690932D0680932C06809122
:1052300043069091440690932F0680932E0680910A
:10524000390690913A0690932506809324068EE1C4
:105250008093220685E08093230681E080931D06DB
:10526000A5E2B0E0B0934806A09347060E94EE087E
:105270000E9415086CE074E085EB98E00E94B3078B
:1052800080911E06813049F028F0823029F58CE5A6
:1052900094E014C081E294E011C08EE394E00E9497
:1052A000700C66E474E085EB98E00E94B30780918F
:1052B0002406909125060E94B70E0EC00E94700C25
:1052C00069E274E085EB98E00E94B30780912A06BA
:1052D00090912B060E94000F67E674E085EB98E042
:1052E0000E94B30780912C0690912D060E94000F1A
:1052F0006DE774E085EB98E00E94B30780912E067D
:1053000090912F060E94000F63E974E085EB98E00E
:105310000E94B307809121060E94EB0E68EA74E0B8
:1053200085EB98E00E94B30780911F060E94EB0E68
:105330006DEB74E085EB98E00E94B3078091200646
:105340000E94EB0E62ED74E085EB98E00E94B307DB
:1053500080912606909127060E94B70E69EE74E0B0
:1053600085EB98E00E94B30780913006082E000C70
:10537000990B0E94B70E88C283E30E9455088823C8
:1053800009F482C280911E06823049F10E94EE0823
:1053900048EC53E060E080E00E94F8088091450608
:1053A0004AE0BE016F5F7F4F082E000C990B0E94F0
:1053B00029306BEB74E0CE0101960E943B35AE01C3
:1053C0004F5F5F4F61E080E00E94F80880E290E06C
:1053D00090934806809347060E94150855C20E9484
:1053E0004E090E94150850C28FE20E94550888237A
:1053F00049F086E290E090934806809347060E9429
:10540000150842C283E30E945508882309F45BC053
:1054100080913306813041F50E94EE0842E353E06B
:1054200060E080E00E94F8084AE0BE016F5F7F4FB5
:105430008091390690913A060E94293063E473E026
:10544000CE0101960E943B35AE014F5F5F4F61E098
:1054500080E00E94F8088BE090E0909348068093EB
:1054600047060E94150810C2811128C00E94EE084C
:105470004AE453E060E080E00E94F8084AE0BE01A0
:105480006F5F7F4F80913F06909140060E942930C8
:105490006BE573E0CE0101960E943B35AE014F5F94
:1054A0005F4F61E080E00E94F808E8E0F0E0F093F0
:1054B0004806E09347060E941508E6C1823009F0CD
:1054C000E3C10C941717198E198AE0916707F091C0
:1054D0006807E730F10508F0BDC18827E756FF4FA0
:1054E0008F4F0C94F13180911E06982F9D7F19F4F7
:1054F0006EEF74E004C0813031F462E075E0CE01FB
:1055000049960E943B354AE0BE016F5E7F4F80E0C6
:1055100090E00E94293066E075E0CE0141960E943D
:105520003B35FBE0EF2E8E010F5E1F4F24E0AE01F6
:10553000475E5F4F6AE075E083E195E00E94F72DDA
:105540008BE20E945508882351F00E94EE08E6E0A5
:10555000CE2ED12CD0926807C092670795C18DE2FC
:105560000E945508882309F48FC10E94EE087092AA
:1055700068076092670788C180911E06982F9D7FFB
:1055800061F54AE0BE01675E7F4F80912A069091E7
:105590002B060E94293066E075E0CE0149960E94F4
:1055A0003B354AE0BE016F5E7F4F80E090E00E9495
:1055B00029306AE175E0CE0141960E943B357BE0DF
:1055C000E72E8E010F5E1F4F23E0AE01475E5F4F57
:1055D0006FE175E088E295E027C0813039F54AE057
:1055E000BE01675E7F4F80912406909125060E9440
:1055F00029304AE0BE016F5E7F4F80E090E00E945C
:1056000029306AE175E0CE0141960E943B356BE09E
:10561000E62E8E010F5E1F4F24E0AE01475E5F4F06
:105620006FE175E08FE295E00E94F72D8BE20E941A
:105630005508882339F00E94EE08109268071092EE
:10564000670722C18DE20E945508882309F41CC116
:105650000E94EE08509268074092670715C14AE021
:10566000BE01675E7F4F80E090E00E9429304AE0F3
:10567000BE016F5E7F4F80E090E00E9429305DE0C8
:10568000E52E8E010F5E1F4F25E0AE01475E5F4F96
:1056900066E375E08EE395E00E94F72D8BE20E94B1
:1056A0005508811162CF8DE20E945508882309F4C4
:1056B000EBC00E94EE0843E0E42EF12CF092680764
:1056C000E0926707E1C04AE0BE01675E7F4F8091CC
:1056D0002606909127060E9429304AE0BE016F5E9F
:1056E0007F4F80E090E00E9429303DE0E32E8E0164
:1056F0000F5E1F4F24E0AE01475E5F4F66E475E02A
:105700008FE495E00E94F72D8BE20E9455088111ED
:105710009FCF8DE20E945508882309F4B5C00E94EE
:10572000EE0884E090E09093680780936707ACC030
:10573000809122064AE0BE01675E7F4F90E00E94A2
:1057400029304AE0BE016F5E7F4F80E090E00E940A
:1057500029302DE0E22E8E010F5E1F4F24E0AE01B6
:10576000475E5F4F66E575E08FE595E00E94F72D97
:105770008BE20E94550881119CCF8DE20E94550852
:10578000882309F481C00E94EE08A5E0B0E0B09340
:105790006807A093670778C080911F064AE0BE01A2
:1057A000675E7F4F90E00E942930809120064AE09A
:1057B000BE016F5E7F4F90E00E9429309CE0E92E91
:1057C0008E010F5E1F4F24E0AE01475E5F4F67E61C
:1057D00075E08FE695E00E94F72D8BE20E94550858
:1057E00081119DCF8DE20E945508882309F44CC099
:1057F0000E94EE08E6E0F0E0F0936807E0936707A8
:1058000043C0809130064AE0BE01675E7F4F082E9C
:10581000000C990B0E9429308DE0E82E0BEB14E070
:1058200024E0AE01475E5F4FB80187E795E00E9434
:10583000F72D8BE20E9455088111A5CF8DE20E94C1
:105840005508882309F10E94EE081092680710920B
:1058500067071AC0109268071092670715C08FE299
:105860000E94550880911706882309F4B9C168E899
:1058700073E180E090E00E9421088111AEC104C074
:10588000109248061092470680914E06882309F42C
:105890000EC10E94CD0F0091690710916A072091F7
:1058A0006B0730916C07DC01CB01801B910BA20BC5
:1058B000B30B00914A0610914B0620914C06309193
:1058C0004D06081719072A073B0708F0F0C00E9489
:1058D000CD0F6093690770936A0780936B0790936D
:1058E0006C0760E0CE0101960E948A0E6FE775E0BA
:1058F000CE0141960E943106BE016F5F7F4FCE01FF
:1059000041960E941F0E6BEA75E00E94E0050E941E
:10591000160ECE0141960E94780DCE0101960E948E
:10592000780D60E070E0CE0101960E94320E65E8CD
:1059300075E0CE0141960E943106BE016F5F7F4F38
:10594000CE0141960E941F0E6BEA75E00E94E005B1
:105950000E94160ECE0141960E94780DCE0101964E
:105960000E94780D60E070E0CE0101960E94320E38
:1059700069E875E0CE0141960E943106BE016F5F75
:105980007F4FCE0141960E941F0E6BEA75E00E9488
:10599000E0050E94160ECE0141960E94780DCE01C0
:1059A00001960E94780D60E070E0CE0101960E94A1
:1059B000320E6EE875E0CE0141960E943106BE01BE
:1059C0006F5F7F4FCE0141960E941F0E6BEA75E01C
:1059D0000E94E0050E94160ECE0141960E94780DAD
:1059E000CE0101960E94780D60E070E0CE01019634
:1059F0000E94320E63E975E0CE0141960E943106A5
:105A0000BE016F5F7F4FCE0141960E941F0E6BEA71
:105A100075E00E94E0050E94160ECE0141960E949C
:105A2000780DCE0101960E94780D60E070E0CE0105
:105A300001960E945E0E68E975E0CE0141960E94D3
:105A40003106BE016F5F7F4FCE0141960E941F0E4F
:105A50006BEA75E00E94E0050E94160ECE014196A9
:105A60000E94780DCE0101960E94780D60E070E0F2
:105A7000CE0101960E945E0E6CE975E0CE01419662
:105A80000E943106BE016F5F7F4FCE0141960E949A
:105A90001F0E61EA75E00E94E0050E94160ECE011D
:105AA00041960E94780DCE0101960E94780D80915A
:105AB0004906882321F0109249060E94980A0E9404
:105AC000CD0F00916F0710917007209171073091F1
:105AD00072076B017C01C01AD10AE20AF30A44EF93
