:100000000C94D1020C9405110C94DA100C94AF10DE
:100010000C9484100C9459100C942E100C94031012
:100020000C94D80F0C9402030C9402030C9402035A
:100030000C9402030C9430110C9402030C940203F0
:100040000C9402030C9402030C9402030C9402031C
:100050000C9402030C9402030C9402030C94971F5B
:100060000C9402030C9410120C94E6110C940203ED
:100070000C9402030C9402030C9402030C940203EC
:100080000C9402030C9402030C9402030C940203DC
:100090000C9402030C9402030C9402030C94461279
:1000A0000C9402030C9402030C9402030C940203BC
:1000B0000C9402030C9402030C9402030C940203AC
:1000C0000C9402030C9402030C9402030C9402039C
:1000D0000C9402030C9402030C9402030C9402038C
:1000E0000C940203D1264627B2271F278B27EA2725
:1000F0001128102AB12A632B74282B29DD29962B6D
:100100008F2C992DCC2D982E752FA72F603029314B
:100110005B311332DB320D33C5338D34BF34773569
:100120003C366C361F37E2371338D438A639D73906
:100130009B3A703BA23B5C3C283D7A3D4D3D8C4355
:10014000CE4340447D44B644EC441F457407E60763
:100150007907CE0752089B08C20803098D1790172C
:100160007F1783178917C717941798179E17A21719
:10017000A617AC17B017B417C717BA17BE17C21710
:10018000F41EF91EFE1E081F121F8B1F1C1F241FAA
:100190002C1F361F401F4A1F591F631F8B1F6D1FC7
:1001A000771F811F0C940D0E0C9459040C94C208F7
:1001B0000C94EC440C943E0E0C94E2370C943C36B8
:1001C0000C94361F0C945E0F0C9413320C94DD29A2
:1001D0000C94AC170C948D340C944E0F0C94760E3A
:1001E0000C9403090C944C0F0C9445040C94462772
:1001F0000C941F450C94C7170C94B0170C9452081C
:100200000C94283D0C94631F0C944F0F0C941C1FEE
:100210000C94B12A0C947A060C949B080C94703BB5
:100220000C942B290C9413380C940D330C94B22796
:100230000C94DB320C94D1260C94FE1E0C947A3D67
:100240000C946D1F0C949E170C94E30D0C94BE1728
:100250000C944D0F0C948E060C94D4380C947D4461
:100260000C94220D0C94CC2D0C94752F0C948D179E
:100270000C94081F0C94EA270C94401F0C94CE4356
:100280000C94B4170C944B040C94C5330C947F1746
:100290000C94F41E0C9490170C948C430C94591FDE
:1002A0000C94C30E0C9440440C9460300C94632B5B
:1002B0000C941F370C947A0F0C949B3A0C94982E44
:1002C0000C948F2C0C94BF340C94BD450C942C1FB3
:1002D0000C9489170C94720F0C94F91E0C948B1FBC
:1002E0000C94811F0C94A6390C94A2170C94102A1C
:1002F0000C941F270C943F040C94AA060C94B6444B
:100300000C94BA170C9474280C94A72F0C9498177B
:100310000C9474070C9483170C94992D0C94A23BA5
:100320000C94300E0C9429310C9479070C945B31A9
:100330000C9494170C944A1F0C941C0E0C94E20D10
:100340000C94771F0C94CE070C9411280C945C3CF1
:100350000C9477350C94A6170C94A70F0C94C21725
:100360000C94962B0C94D7390C946C360C948B27E8
:100370000C94E6070C94241F0C944D3D0C945804E7
:100380000C94121F00407A10F35A00A0724E180904
:100390000010A5D4E80000E87648170000E40B54EC
:1003A000020000CA9A3B000000E1F50500008096BB
:1003B0009800000040420F000000A08601000000ED
:1003C000102700000000E8030000000064000000A7
:1003D00000000A00000000000100000000002C7670
:1003E000D888DC674F0823DFC1DFAE59E1B1B7968B
:1003F000E5E3E453C63AE651997696E8E6C28426E8
:10040000EB898C9B62ED407C6FFCEFBC9C9F40F2C3
:10041000BAA56FA5F490055A2AF75C936B6CF9673F
:100420006DC11BFCE0E40D47FEF520E6B500D0ED04
:10043000902E0300943577050080841E080000206C
:100440004E0A000000C80C333333330F986E12830A
:100450001141EF8D2114893BE65516CFFEE6DB18DE
:10046000D1844B381BF77C1D901DA4BBE4242032A3
:1004700084725E228100C9F124ECA1E53D270000D1
:100480002100240027002A002D0030003300010144
:100490000000040107010A010000220025002800D5
:1004A0002B002E003100340002010000050108017C
:1004B0000B010200000A0B02090C0D0E08070304D1
:1004C000010000000000000000000000000000002B
:1004D000000000000000000000000000000000120A
:1004E00011100000000000000000000000000000EB
:1004F0000000000000000000000102102020080899
:100500001020401020408002010201080402010175
:10051000020408102040808040201008040201805E
:1005200004020180402010080402010804020101B5
:1005300002040810204080010204081020408000BE
:100540000020002300260029002C002F003200008C
:10055000010000030106010901050505050705085D
:10056000080808020202020A0A0808040404040136
:100570000101010101010103030303030303030458
:100580000707070C0C0C0C0C0C0C0C0202020206E8
:10059000060606060606060B0B0B0B0B0B0B0B00D9
:1005A000BD4511241FBECFEFD1E2DEBFCDBF00E0BD
:1005B0000CBF16E0A0E0B2E0E6E7F9E900E00BBF0F
:1005C00002C007900D92A632B107D9F72DE0A6E23E
:1005D000B6E001C01D92A830B207E1F712E0C1ED0C
:1005E000D2E000E006C021970109802FFE010E94A1
:1005F000294AC03DD10780E00807A9F70E94E11F02
:100600000C94B94C0C94000080917B0C90917C0C64
:10061000A0917D0CB0917E0CBC01CD016C5271405B
:10062000810991090E947B4B9B01AC010E94604AA9
:100630002BED3FE049E450E40E94304C20E030E0F4
:1006400044E856E40E94D14A20E030E04CE852E40D
:100650000E94304C23E63FEB4FE356E40E94304CBF
:1006600020E030E04AE754E40E94D14A08958091A6
:100670001C07882309F465C08091B30C9091B40CD9
:10068000892B11F010921C076091210770E080E027
:1006900090E00E94794B6093440C7093450C8093DA
:1006A000460C9093470C60912A0770912B0780E0CD
:1006B00090E00E94794B60934C0C70934D0C8093AA
:1006C0004E0C90934F0C60911F0770E080E090E01B
:1006D0000E94794B20E030E048EC52E40E94D14A7D
:1006E0006093500C7093510C8093520C9093530C68
:1006F0006091200770E080E090E00E94794B20E05C
:1007000030E048EC52E40E94D14A6093540C70935C
:10071000550C8093560C9093570C60912407709160
:10072000250780E090E00E94794B60936A0C7093FB
:100730006B0C80936C0C90936D0C80911E078093D2
:10074000580C0895DC01ED91FD918081ED91FD91B2
:100750009081ED91FD916C9163708E2309F064603E
:100760009F2309F06860EFEBF3E0E60FF11D65955C
:1007700065956D936D917D918D919D91099423C0A7
:100780001AC012C016C010C01EC009C014C013C0C9
:1007900006C019C009C00DC007C00DC014C062500A
:1007A0007040804090400BC061507040804090404D
:1007B00006C06E5F01C06F5F7F4F8F4F9F4F9E934C
:1007C0008E937E936E9308958091060D823030F45F
:1007D000F8948BEF9CE00E94A20301C0F8948091F2
:1007E000020D9091030DA091040DB091050D789428
:1007F0008093770C9093780CA093790CB0937A0C3B
:10080000F8941092020D1092030D1092040D1092A4
:10081000050D789440917B0C50917C0C60917D0C7F
:1008200070917E0C8091770C9091780CA091790C4E
:10083000B0917A0C840F951FA61FB71F80937B0C75
:1008400090937C0CA0937D0CB0937E0C08958091C6
:10085000010C9091020C0C94A2038091FF0B9091DB
:10086000000C0C94A2038091FD0B9091FE0B0C9454
:10087000A2038091FB0B9091FC0B0C94A20380913E
:10088000F90B9091FA0B0C94A2038091F70B9091C5
:10089000F80B0C94A203DC01ED91FC910684F78522
:1008A000E02D41E0199581E090E0089508950895C4
:1008B000089580E090E00895CF92DF92EF92FF924A
:1008C0000F931F93CF93DF93E7EDF7E060E070E0C5
:1008D00080E090E0DC010481158126813781800F62
:1008E000911FA21FB31F6F5F7F4F81362AEE9207C1
:1008F000A105B10540F080E090E00E94794B6B01CA
:100900007C01D1E008C03C966E31710521F7D0E042
:10091000C12CD12C7601C09122076C2F70E080E0B1
:1009200090E00E947B4B9B01AC01C701B6010E9485
:100930002B4C181674F4DD2361F06C2F70E080E00E
:1009400090E00E94794B8B019C01B701A60185E0E4
:100950001DC0C09123076C2F70E080E090E00E94E2
:100960007B4B9B01AC01C701B6010E94CC4A87FFBB
:100970000FC0DD2369F06C2F70E080E090E00E94F2
:10098000794B8B019C01B701A60186E00E94CF162E
:10099000C701B601DF91CF911F910F91FF90EF90AA
:1009A000DF90CF9008954F925F926F927F928F92D7
:1009B0009F92AF92BF92CF92DF92EF92FF9281E02F
:1009C00090E09093B40C8093B30C2091440C309140
:1009D000450C4091460C5091470C60E070E68AE669
:1009E00097E40E94D14A4B015C014090500C50901A
:1009F000510C6090520C7090530CA30192010E9414
:100A0000304C6B017C016093870C7093880C809351
:100A1000890C90938A0CA301920160E070E080E859
:100A20009FE30E945F4AA50194010E94304C6093AD
:100A30008B0C70938C0C80938D0C90938E0C80900B
:100A4000540C9090550CA090560CB090570CA501EA
:100A5000940160E070E080E89FE30E945F4AA70194
:100A600096010E94304C60938F0C7093900C809391
:100A7000910C9093920CA5019401C701B6010E94BC
:100A8000304C6093930C7093940C8093950C9093DE
:100A9000960C0E949B1D0E94794B2091870C3091EF
:100AA000880C4091890C50918A0C0E94604A0E94E7
:100AB0004A4B6093A70C7093A80C8093A90C909359
:100AC000AA0C0E949B1D0E94794B20918F0C3091A3
:100AD000900C4091910C5091920C0E94604A0E949F
:100AE0004A4B6093A30C7093A40C8093A50C909335
:100AF000A60C20E030E04AE754E460914C0C709181
:100B00004D0C80914E0C90914F0C0E94304C23E67E
:100B10003FEB4FE356E40E94D14A20E030E04CE83E
:100B200052E40E94D14A20E030E044E856E40E94BA
:100B3000304C2BED3FE049EC50E40E94D14A6B0170
:100B40007C0120E030E0A9010E942B4C20E030E045
:100B500040E05FE387FD05C0C701B6010E94604A1F
:100B600004C0C701B6010E945F4A0E94434B6093D4
:100B70007F0C7093800C8093810C9093820CFF907B
:100B8000EF90DF90CF90BF90AF909F908F907F902D
:100B90006F905F904F900895CF93C1E087E39BE003
:100BA0000E943E0E892B09F4A3C087E39BE00E94BC
:100BB0001C0E853609F485C0B4F48D32D1F174F47D
:100BC0008B3261F78091320790913307A0913407FF
:100BD000B0913507C296A11DB11D3BC08C3401F107
:100BE000853521F1DBCF803709F445C09CF48C3684
:100BF000B9F08F3699F620E030E040E05FE3609195
:100C000011027091120280911302909114020E94BD
:100C10005F4A3FC0823709F445C0853739F0BECFFF
:100C2000809136078C2780933607B8CFC093310761
:100C3000B5CF8091320790913307A0913407B091DE
:100C4000350783339105A105B10560F0C297A1096D
:100C5000B1098093320790933307A0933407B09380
:100C600035079CCF10923207109233071092340749
:100C70001092350793CF20E030E040E05FE36091D1
:100C800011027091120280911302909114020E943D
:100C9000604A609311027093120280931302909342
:100CA00014027CCF20E030E040E05FE360913F0C35
:100CB0007091400C8091410C9091420C0E94604ACE
:100CC0000EC020E030E040E05FE360913F0C7091A7
:100CD000400C8091410C9091420C0E945F4A6093BD
:100CE0003F0C7093400C8093410C9093420C56CF74
:100CF000CF910895FC0186898F3F79F02185328557
:100D0000662319F0232B31F403C02130310511F48F
:100D100061E001C060E00C9498190895EF92FF9291
:100D20001F93CF93DF93EC01162F7A0161E0812F9F
:100D30000E94C7191E8BFA86E986E881F98104842E
:100D4000F585E02D60E0CE01DF91CF911F91FF90FE
:100D5000EF9019940F931F93CF93DF93EC01162F0D
:100D6000042F61E0413009F060E08B850E94981902
:100D70008C858F3F19F060E00E949819023081F055
:100D80008C8184FF02C048E00CC0612F70E084E0D9
:100D9000759567958A95E1F744E0CE010E94611E42
:100DA00044E0612FCE01DF91CF911F910F910C9400
:100DB000611E4F925F926F927F928F929F92AF923D
:100DC000BF92CF92DF92EF92FF920F931F93CF9338
:100DD000DF9386E00E946F1921E0892B09F420E05F
:100DE0002093430C20E030E040EA50E46091B70CDF
:100DF0007091B80C8091B90C9091BA0C0E942B4C58
:100E000087FD07C085E00E94C2161092D607109297
:100E1000D5076091720C7091730C8091740C909155
:100E2000750C42E00E94101889E00E940B18609136
:100E3000FC067091FD068091FE069091FF0642E04F
:100E40000E94101889E00E940B1860916A0C709142
:100E50006B0C80916C0C90916D0C42E00E9410180C
:100E600089E00E940B186091620C7091630C809174
:100E7000640C9091650C42E00E94101889E00E9479
:100E80000B186091110270911202809113029091DF
:100E9000140242E00E94101889E00E940B18609131
:100EA0003F0C7091400C8091410C9091420C42E0BB
:100EB0000E9410180E949C1E80911D07882331F00B
:100EC0001092D6071092D50710921D07E091D50712
:100ED000F091D607E830F10508F027C28827EA55D7
:100EE000FF4F8F4F0C94294A1092B40C1092B30C00
:100EF00087C18091B30C9091B40C029709F583E0FF
:100F000090E09093B40C8093B30C0E949B1D0E94C0
:100F1000794B20918B0C30918C0C40918D0C509121
:100F20008E0C0E94604A0E944A4B6093AB0C7093F7
:100F3000AC0C8093AD0C9093AE0C81E08093B50C1B
:100F40008091430C81110DC080917B0C90917C0CA1
:100F5000A0917D0CB0917E0C181619061A061B067E
:100F60002CF461EE7AE784E090EC31C160E070E04F
:100F7000CB010E94A21E8091B30C9091B40C892BDE
:100F800051F40E94E40310927B0C10927C0C10929E
:100F90007D0C10927E0C83E090E0D1C180917B0C9F
:100FA00090917C0CA0917D0CB0917E0C8C32914084
:100FB000A105B1052CF46FEC77EF83ED9FE307C13A
:100FC00060E070E0CB010E94A21EB7C10E9437030F
:100FD0008091B30C9091B40C9C01235031092230C4
:100FE000310508F03FC084E090E09093B40C80930A
:100FF000B30C60913007062E000C770B880B990B11
:101000000E947B4B209108073091090740910A0705
:1010100050910B070E94604A9B01AC016091FC0655
:101020007091FD068091FE069091FF060E94CC4AC9
:10103000881F8827881F8093590C0E949B1D009150
:10104000AB0C1091AC0C2091AD0C3091AE0C601734
:1010500071078207930708F077C18091590C8111BD
:1010600073C1D7C4892B09F0D4C480911C0788238D
:1010700009F4CFC40E94370310921C0784E090E06B
:101080009093B40C8093B30C8091580C982F9D7F53
:1010900019F484E090E053C1813009F04EC185E03D
:1010A00090E04DC18091B30C9091B40C049711F471
:1010B0000E94D30480917F0C9091800CA091810CB0
:1010C000B091820C855D9E4FAF4FBF4F40917B0C1E
:1010D00050917C0C60917D0C70917E0C841795076B
:1010E000A607B7070CF4F4C20E949B1D0091A30C45
:1010F0001091A40C2091A50C3091A60C60177107DB
:101100008207930708F0E4C26091260770912707D1
:1011100080E090E00E94794B9B01AC016091FC065D
:101120007091FD068091FE069091FF060E94CC4AC8
:1011300087FD42C2CDC28091B30C9091B40C04974C
:1011400011F40E94D3040E949B1D0091A30C1091E6
:10115000A40C2091A50C3091A60C60177107820792
:10116000930708F008C380917B0C90917C0CA091B0
:101170007D0CB0917E0C82329B40A105B1050CF430
:1011800020C3F9C240917F0C5091800C6091810C7A
:101190007091820C8091830C9091840CA091850CAD
:1011A000B091860C840F951FA61FB71F40917B0C32
:1011B00050917C0C60917D0C70917E0C841795078A
:1011C000A607B707C4F46FEC77EF83ED9FEB0E949F
:1011D000A21EDF91CF911F910F91FF90EF90DF90B2
:1011E000CF90BF90AF909F908F907F906F905F90C7
:1011F0004F900C94E40360E070E0CB010E94A21ECB
:1012000082E090E09CC08091B30C9091B40C019767
:1012100009F04CC0C090930CD090940CE090950CC9
:10122000F090960C20E030E048EC52E4C701B601A3
:101230000E942B4C181634F4C12CD12C88ECE82ECB
:1012400082E4F82E20E030E040E05FE36091620C41
:101250007091630C8091640C9091650C0E945F4AC0
:101260004B015C0120E030E040E251E4C701B601EF
:101270000E94D14A9B01AC01C501B4010E94D14A30
:101280006093660C7093670C8093680C9093690C64
:1012900082E090E09093B40C8093B30C1092830C96
:1012A0001092840C1092850C1092860C0E949B1D4B
:1012B0000091A70C1091A80C2091A90C3091AA0CB8
:1012C000601771078207930740F50E949B1D0091EC
:1012D000C9071091CA072091CB073091CC07DC01D8
:1012E000CB01801B910BA20BB30B0A97A105B10593
:1012F00008F48FC3C090620CD090630CE090640C33
:10130000F090650C20E030E0A901C701B6010E9411
:101310002B4C18160CF41FC37CC360E070E0CB01AB
:101320000E94A21E86E090E00AC061EE75E087E3AD
:101330009BE00E94CF110E949C1E81E090E0909360
:10134000D6078093D50765C381E08093B60CC09023
:10135000CD07D090CE07E090CF07F090D007A7013F
:1013600096016091BB0C7091BC0C8091BD0C90916A
:10137000BE0C0E945F4A4B015C0120E030E0A901F5
:101380000E942B4C18165CF420E030E048E452E454
:10139000C501B4010E942B4C18165CF013C020E06C
:1013A00030E048E452ECC501B4010E94CC4A87FF0A
:1013B00009C000E010E028E432E4B501A40187E0B0
:1013C0000E94CF160E949B1D0091AF0C1091B00C93
:1013D0002091B10C3091B20C2B013C01401A510A02
:1013E000620A730A209108073091090740910A07A1
:1013F00050910B07609100077091010780910207DF
:10140000909103070E945F4A9B01AC01C701B6019E
:101410000E94D14A4B015C016093D1077093D207BF
:101420008093D3079093D407A3E3B9E0C7EDD7E047
:10143000CD010C972CE0FC0101900D922A95E1F76B
:10144000DC01C817D907A1F74092DB075092DC07EF
:101450006092DD077092DE07C092D707D092D8075E
:10146000E092D907F092DA078092DF079092E007C6
:10147000A092E107B092E2070E945C046093F80634
:101480007093F9068093FA069093FB06C0920C07BE
:10149000D0920D07E0920E07F0920F070E945C04B5
:1014A0000E944A4BC62E07ED17E0E12CF12C60E0BC
:1014B00070E0CB01D12CEC14FD0468F4F80120811C
:1014C0003181428153810E94604AFFEFEF1AFF0A87
:1014D000045F1F4FF0CF00E010E09801CC80DD806A
:1014E000EE80FF800C0D1D1D2E1D3F1D01364AEEA6
:1014F00014072105310538F42C96E9E0CF33DE07D7
:1015000069F7C0E001C0C1E020E030E04AE754E400
:101510000E94D14A6B017C0160912C0770912D07CC
:1015200080E090E00E94794B2B013C019B01AC01D3
:10153000C701B6010E942B4C181644F4CC2331F09D
:1015400093018201B701A60183E019C060912E07C3
:1015500070912F0780E090E00E94794B2B013C01B5
:101560009B01AC01C701B6010E94CC4A87FF09C0AC
:10157000CC2339F093018201B701A60184E00E94D7
:10158000CF16C0921007D0921107E0921207F09286
:1015900013078092140790921507A0921607B09235
:1015A00017070E949B1D6093AF0C7093B00C809343
:1015B000B10C9093B20C68CD0E94761D60939B0C89
:1015C00070939C0C80939D0C90939E0C00919F0CAB
:1015D0001091A00C2091A10C3091A20C6B017C0108
:1015E000C01AD10AE20AF30AC092970CD092980C62
:1015F000E092990CF0929A0C60939F0C7093A00C5F
:101600008093A10C9093A20C81EE9AE7A4E0B0E441
:1016100080935A0C90935B0CA0935C0CB0935D0C80
:101620000E94E4036091770C7091780C8091790CA2
:1016300090917A0C0E947B4B9B01AC010E94604A06
:101640002BED3FE049E450E40E94304C4B015C013B
:10165000A0E0B2E4A70196010E94314A20E432E4FE
:101660004FE050E00E940A4ACA01B9010E947B4B38
:101670009B01AC01C501B4010E94D14A60935E0C8C
:1016800070935F0C8093600C9093610C8091F90CC7
:10169000882321F08FEB9CE00E9478136091620C0C
:1016A0007091630C8091640C9091650CDF91CF91E7
:1016B0001F910F91FF90EF90DF90CF90BF90AF9070
:1016C0009F908F907F906F905F904F900C94A21E90
:1016D000C090FC06D090FD06E090FE06F090FF065C
:1016E000609126077091270780E090E00E94794B77
:1016F0004B015C019B01AC01C701B6010E942B4C60
:10170000181644F495018401B701A60181E00E94F6
:10171000CF161CC00E949B1D0091A30C1091A40C1D
:101720002091A50C3091A60C6017710782079307D2
:1017300068F480917B0C90917C0CA0917D0CB09111
:101740007E0C80399140A105B1059CF10E940403F3
:101750006093CD077093CE078093CF079093D00707
:101760006093BB0C7093BC0C8093BD0C9093BE0C2B
:1017700087E090E0E4CD0E949B1D0091A30C1091A6
:10178000A40C2091A50C3091A60C6017710782075C
:10179000930708F0A1C080917B0C90917C0CA091E4
:1017A0007D0CB0917E0C80399140A105B1050CF003
:1017B00093C084E00E94C2161092D6071092D507FB
:1017C00028C18091FC069091FD06A091FE06B09183
:1017D000FF0680936E0C90936F0CA093700CB093E7
:1017E000710C80913D0C882321F083E09CE00E94E5
:1017F000781320E030E040EA50E46091720C709180
:10180000730C8091740C9091750C0E945F4A2FECC0
:1018100037EF43ED5FE30E94304C20E030E040EFD3
:1018200051E40E94D14A20E030E0A9010E94604AC0
:101830006B017C0120E030E040E85EE30E94CC4A8E
:1018400087FF05C080E090E0A0E8BEE317C021EE6E
:101850003AE744E050E4C701B6010E942B4C181649
:101860004CF0C092620CD092630CE092640CF09247
:10187000650C0CC081EE9AE7A4E0B0E48093620CA2
:101880009093630CA093640CB093650C6091620C10
:101890007091630C8091640C9091650C0E94A21E63
:1018A0000E94E403609124077091250780E090E096
:1018B0000E94794B9B01AC016091FC067091FD0682
:1018C0008091FE069091FF060E942B4C87FDA1C0DF
:1018D00081E08093760C9DC08091760C811116C0BA
:1018E000609124077091250780E090E00E94794B79
:1018F0008B019C0140910007509101076091020704
:101900007091030782E00E94CF1602C01092760CFD
:101910000E9404036093CD077093CE078093CF0796
:101920009093D0076093BB0C7093BC0C8093BD0C5C
:101930009093BE0C6DEC7CEC8CEC9EE30E94A21E9E
:1019400082E090E09093D6078093D5079093B40CF3
:101950008093B30C5EC02091660C3091670C40916F
:10196000680C5091690CC701B6010E945F4A6B0177
:101970007C012DEC3CEC4CEC5EE30E94CC4A87FFF2
:101980003FC08DEC9CECACECBEE38093620C90937A
:10199000630CA093640CB093650C0E94E403409127
:1019A000830C5091840C6091850C7091860C809111
:1019B000770C9091780CA091790CB0917A0C840FEF
:1019C000951FA61FB71F8093830C9093840CA09340
:1019D000850CB093860C6091620C7091630C8091C1
:1019E000640C9091650C0E94A21E0E949B1D609346
:1019F000C9077093CA078093CB079093CC0709C09F
:101A0000C092620CD092630CE092640CF092650C70
:101A1000C4CFDF91CF911F910F91FF90EF90DF9096
:101A2000CF90BF90AF909F908F907F906F905F907E
:101A30004F900895DC01ED91FC910684F785E02D2F
:101A400040E019948F929F92AF92BF92CF92DF9213
:101A5000EF92FF920F931F93CF93DF93EC014230ED
:101A600018F08C8188608C834F836887222329F04B
:101A7000413019F48C8184608C830E94761D6B0147
:101A80007C0184E6882E912CA12CB12C0E94761D1D
:101A9000DC01CB018C199D09AE09BF09883E93403A
:101AA000A105B10598F321E0821A9108A108B108B7
:101AB00088EEC80E83E0D81EE11CF11C811491044D
:101AC000A104B10419F76C8164FD31C0E881F9818A
:101AD0000684F785E02D42E063E0CE0119958BE4A2
:101AE00096E40197F1F7E881F9810684F785E02D06
:101AF00042E063E0CE01199503E512E0C8010197C9
:101B0000F1F7E881F9810684F785E02D42E063E092
:101B1000CE011995C8010197F1F7E881F981068492
:101B2000F785E02D42E062E0CE01199517C06062B2
:101B3000CE010E941A0D8BE496E40197F1F76C81B7
:101B40006062CE010E941A0D03E512E0C801019700
:101B5000F1F76C816062CE010E941A0DC8010197F5
:101B6000F1F76C816062CE010E941A0D8BEE90E05D
:101B70000197F1F784E08D836CE0CE010E941A0D8D
:101B800061E0CE010E941A0D8BE39FE10197F1F70E
:101B900082E08E8366E0CE010E941A0DE881F98111
:101BA0000484F585E02D6FEFCE01DF91CF911F9179
:101BB0000F91FF90EF90DF90CF90BF90AF909F90EC
:101BC0008F9019940895CF92DF92EF92FF920F9326
:101BD0001F93CF93DF936C017A018B01C0E0D0E0BB
:101BE000CE15DF0581F0D8016D918D01D601ED9103
:101BF000FC910190F081E02DC6011995892B11F01F
:101C00002196EECF7E01C701DF91CF911F910F91F9
:101C1000FF90EF90DF90CF900895FC01538D448D9D
:101C2000252F30E0842F90E0821B930B541710F087
:101C3000CF96089501970895FC01918D828D981794
:101C400061F0828DDF01A80FB11D5D968C91928DA0
:101C50009F5F9F73928F90E008958FEF9FEF08959D
:101C6000FC01918D828D981731F0828DE80FF11D66
:101C7000858D90E008958FEF9FEF0895FC01918D81
:101C8000228D892F90E0805C9F4F821B91098F737A
:101C90009927089587E39BE00E943E0E21E0892B5F
:101CA00009F420E0822F0895FC01848DDF01A80F44
:101CB000B11DA35ABF4F2C91848D90E001968F7374
:101CC0009927848FA689B7892C93A089B1898C9193
:101CD000837080648C93938D848D981306C00288E2
:101CE000F389E02D80818F7D80830895EF92FF92AC
:101CF0000F931F93CF93DF93EC0181E0888F9B8D2F
:101D00008C8D981305C0E889F989808185FD26C0EE
:101D1000F62E0B8D10E00F5F1F4F0F731127E02E73
:101D20008C8DE8120CC00FB607FCFACFE889F98950
:101D3000808185FFF5CFCE010E94540EF1CF8B8DAF
:101D4000FE01E80FF11DE35AFF4FF0829FB7F894B0
:101D50000B8FEA89FB89808180620AC09FB7F89463
:101D6000EE89FF896083E889F989808183708064C6
:101D700080839FBF81E090E0DF91CF911F910F9111
:101D8000FF90EF900895CF93DF93EC01888D882327
:101D9000C9F0EA89FB89808185FD05C0A889B989D8
:101DA0008C9186FD0FC00FB607FCF5CF808185FFB3
:101DB000F2CFA889B9898C9185FFEDCFCE010E9421
:101DC000540EE7CFDF91CF9108950E944A0E811102
:101DD00025C080E090E0892B41F080E090E0892BE5
:101DE00021F00E94000081111CC080E090E0892B4E
:101DF00041F080E090E0892B21F00E9400008111E9
:101E000013C080E090E0892BA1F080E090E0892B66
:101E100081F00E94000081110AC008950E94CC0543
:101E2000D8CF0E940000E1CF0E940000EACF0C94BE
:101E30000000089585ED8093BC008091BC0084FD76
:101E4000FCCF1092F90A08954091A10A262F30E0A4
:101E5000240F311D21323105DCF42091F90A2430A0
:101E6000C9F4FC0180E090E0861758F43091A10A93
:101E70002191DC01AF57B54FA30FB11D2C930196F3
:101E8000F3CF8091A10A680F6093A10A80E00895C2
:101E900081E0089582E00895089508950895E091FD
:101EA0002B0680912A06E81730F4F0E0E45DF94F44
:101EB000808190E008958FEF9FEF089590912B0619
:101EC00080912A06981750F4E92FF0E0E45DF94F6D
:101ED000208130E09F5F90932B0602C02FEF3FEFF1
:101EE000C901089580912A0690E020912B06821B5B
:101EF00091090895CF92DF92EF92FF920F931F9373
:101F0000CF93DF937C01CB018A012091FA0A22232F
:101F100089F0EB016B01C40ED51ECC15DD0569F00F
:101F20006991D701ED91FC910190F081E02DC701FD
:101F30001995F3CF642F0E94240FC801DF91CF9130
:101F40001F910F91FF90EF90DF90CF900895CF9366
:101F5000DF931F92CDB7DEB769832091FA0A22235F
:101F6000D1F020911D0B203240F021E030E0FC0147
:101F70003383228380E090E015C08091FB0AE82F34
:101F8000F0E0E450F54F998190838F5F8093FB0AD6
:101F900080931D0B05C061E0CE0101960E94240FC5
:101FA00081E090E00F90DF91CF9108950E94A24CC4
:101FB0001F920F920FB60F9211240BB60F922F9310
:101FC0003F934F935F936F937F938F939F93AF93C1
:101FD000BF93EF93FF93E0910F02F09110021995D8
:101FE000FF91EF91BF91AF919F918F917F916F91F1
:101FF0005F914F913F912F910F900BBE0F900FBEAD
:102000000F901F9018951F920F920FB60F921124E8
:102010000BB60F922F933F934F935F936F937F93E2
:102020008F939F93AF93BF93EF93FF93E0910D0234
:10203000F0910E021995FF91EF91BF91AF919F9191
:102040008F917F916F915F914F913F912F910F9061
:102050000BBE0F900FBE0F901F9018951F920F92FE
:102060000FB60F9211240BB60F922F933F934F93FD
:102070005F936F937F938F939F93AF93BF93EF93F0
:10208000FF93E0910302F09104021995FF91EF9103
:10209000BF91AF919F918F917F916F915F914F9180
:1020A0003F912F910F900BBE0F900FBE0F901F907E
:1020B00018951F920F920FB60F9211240BB60F9224
:1020C0002F933F934F935F936F937F938F939F9340
:1020D000AF93BF93EF93FF93E0910102F09102025F
:1020E0001995FF91EF91BF91AF919F918F917F9142
:1020F0006F915F914F913F912F910F900BBE0F9079
:102100000FBE0F901F9018951F920F920FB60F924F
:1021100011240BB60F922F933F934F935F936F93BE
:102120007F938F939F93AF93BF93EF93FF93E09130
:102130000B02F0910C021995FF91EF91BF91AF91B5
:102140009F918F917F916F915F914F913F912F91CF
:102150000F900BBE0F900FBE0F901F9018951F92FF
:102160000F920FB60F9211240BB60F922F933F933D
:102170004F935F936F937F938F939F93AF93BF938F
:10218000EF93FF93E0910902F0910A021995FF91F4
:10219000EF91BF91AF919F918F917F916F915F91DF
:1021A0004F913F912F910F900BBE0F900FBE0F904C
:1021B0001F9018951F920F920FB60F9211240BB615
:1021C0000F922F933F934F935F936F937F938F93D0
:1021D0009F93AF93BF93EF93FF93E0910702F0912A
:1021E00008021995FF91EF91BF91AF919F918F9147
:1021F0007F916F915F914F913F912F910F900BBE07
:102200000F900FBE0F901F9018951F920F920FB650
:102210000F9211240BB60F922F933F934F935F931E
:102220006F937F938F939F93AF93BF93EF93FF939E
:10223000E0910502F09106021995FF91EF91BF918F
:10224000AF919F918F917F916F915F914F913F914E
:102250002F910F900BBE0F900FBE0F901F901895EF
:102260001F920F920FB60F9211240BB60F922F935D
:102270003F934F935F936F937F938F939F93AF930E
:10228000BF93EF93FF938091CF0A9091D00AA091D2
:10229000D10AB091D20A892B8A2B8B2B59F19091BC
:1022A000CC0AE091CD0AF091CE0A80818927808303
:1022B0008091CF0A9091D00AA091D10AB091D20A10
:1022C000181619061A061B060CF056C08091CF0A84
:1022D0009091D00AA091D10AB091D20A0197A10998
:1022E000B1098093CF0A9093D00AA093D10AB093FA
:1022F000D20A42C080910002E2EBF4E0E4919FEF49
:1023000090930002E230C9F050F4EE2399F0E130EE
:1023100081F590916F009D7F90936F002AC0E4300B
:1023200019F1E0F0E53029F5909173009D7F9093CD
:1023300073001FC010926E001CC0909170009D7FB2
:102340009093700091E09093B0009091B100987FCD
:1023500094609093B1001092B3000BC09091710003
:102360009D7F9093710005C0909172009D7F909326
:10237000720060E00E949819FF91EF91BF91AF91B8
:102380009F918F917F916F915F914F913F912F918D
:102390000F900BBE0F900FBE0F901F9018956115F8
:1023A000710579F0FB0101900020E9F73197AF0149
:1023B000461B570BDC01ED91FC910280F381E02D6F
:1023C000199480E090E008950C94CF111F920F9221
:1023D0000FB60F9211240BB60F922F933F934F938A
:1023E0005F936F937F938F939F93AF93BF93EF937D
:1023F000FF9387E39BE00E94540EFF91EF91BF9102
:10240000AF919F918F917F916F915F914F913F918C
:102410002F910F900BBE0F900FBE0F901F9018952D
:102420001F920F920FB60F9211240BB60F922F939B
:102430008F939F93EF93FF93E091470BF091480B9D
:102440008081E0914D0BF0914E0B82FD12C0908186
:102450008091500B8F5F8F732091510B821751F039
:10246000E091500BF0E0E95CF44F958F8093500BB6
:1024700001C08081FF91EF919F918F912F910F90DB
:102480000BBE0F900FBE0F901F9018951F920F92CA
:102490000FB60F9211240BB60F922F933F934F93C9
:1024A0005F936F937F938F939F93AF93BF93EF93BC
:1024B000FF938091B900887F803609F49CC068F54D
:1024C000883209F45BC090F4803109F454C038F4C8
:1024D000882309F4F6C0883009F44DC0F6C088316D
:1024E00009F44CC0803209F45DC0EFC0803409F4B7
:1024F00068C048F4803309F455C0883309F0E5C05A
:102500008093F70AD8C0803509F44FC0883509F4A4
:102510005DC0883409F0D9C0D6C0883909F4C7C075
:10252000A8F4883709F467C038F4883609F463C022
:10253000803709F460C0C9C0883809F4B8C0803950
:1025400009F45FC0803809F0C0C05BC0803B09F46B
:1025500086C038F4803A09F466C0883A09F47FC02E
:10256000B4C0803C09F4A7C0883C09F4A4C0883BEF
:1025700009F48AC0AAC08091D40A10C09091F60ACA
:102580008091F50A981770F5E091F60A81E08E0FB8
:102590008093F60AF0E0EB52F54F80818093BB0008
:1025A00085EC86C08093F70A8EC0E091F60A81E040
:1025B0008E0F8093F60A8091BB00F0E0EB52F54F4E
:1025C00080839091F60A8091F50A6EC0E091F60A38
:1025D00081E08E0F8093F60A8091BB00F0E0EB5211
:1025E000F54F80838091F80A81116DC081E080935E
:1025F000D30A84EA61C083E08093F90A1092C30A87
:10260000CFCF8091C30A803208F051C0E091C30A55
:1026100081E08E0F8093C30A8091BB00F0E0ED55FE
:10262000F54F8083BDCF85EC8093BC001092F90AF2
:102630008091C30A803230F4E091C30AF0E0ED5596
:10264000F54F10826091C30A70E0E0912606F09188
:10265000270683EA9AE019951092C30A36C084E0EF
:102660008093F90A1092A20A1092A10AE09128061A
:10267000F091290619958091A10A811105C081E088
:102680008093A10A1092810AE091A20A81E08E0F44
:102690008093A20AF0E0EF57F54F80818093BB0052
:1026A0009091A20A8091A10A981708F479CF85E841
:1026B0008093BC000AC085EC8093BC001092F90A9C
:1026C00004C01092F70A0E941A0FFF91EF91BF9178
:1026D000AF919F918F917F916F915F914F913F91BA
:1026E0002F910F900BBE0F900FBE0F901F9018955B
:1026F0002F923F924F925F926F927F928F929F9212
:10270000AF92BF92CF92DF92EF92FF920F931F93FF
:10271000CF93DF93CDB7DEB72F970FB6F894DEBF18
:102720000FBECDBF9F878E870E949B1D6D837E83CA
:102730008F839887EE85FF8582A193A1A4A1B5A17F
:102740004D815E816F817885481B590B6A0B7B0B2D
:1027500086A597A5A0A9B1A9481759076A077B07BD
:1027600008F40EC1048CF58DE02D80819181A28149
:10277000B38189839A83AB83BC83AE85BF859096F2
:10278000ED91FC91919729813A814B815C81608127
:102790007181828193810E945F4A4B015C01EE85C9
:1027A000FF8522A533A544A555A569817A818B8132
:1027B0009C810E945F4A6B017C01AE85BF8550966B
:1027C0002D913D914D915C915397C501B4010E94AB
:1027D000304CEE85FF8526A137A140A551A50E946A
:1027E000604A2B013C01AE85BF8596966D937D9323
:1027F0008D939C939997DB96BC91B987B11118C0C2
:10280000EE85FF852485358546855785C701B60148
:102810000E94304C9B01AC01C301B2010E945F4A8F
:10282000AE85BF8596966D937D938D939C93999776
:10283000EE85FF8546A057A060A471A416A907A93C
:1028400030AC21AC212F302F432D522DC301B201CA
:102850000E942B4C18162CF4812F902FA32DB22DF3
:1028600018C0AE85BF85D2968D919D910D90BC917B
:10287000A02D8A879B87AC87BD879C01AD01C301D2
:10288000B2010E94CC4A87FF0AC08A859B85AC852D
:10289000BD85EE85FF8586A397A3A0A7B1A7F9857F
:1028A000FF2379F0AE85BF851C962D913D914D910A
:1028B0005C911F97C501B4010E94304C4B015C0133
:1028C00003C0812C912C5401EE85FF852489358924
:1028D00046895789C701B6010E94304C9B01AC0163
:1028E000AE85BF8596966D917D918D919C919997BE
:1028F0000E945F4AA50194010E94604A6B017C011D
:102900009B01AC01612F702F832D922D0E94CC4A28
:1029100087FD14C0EE85FF8512A903A934A825A858
:10292000212F302F432D522DB601C7010E94CC4AD2
:1029300087FD04C01C2D0D2D3E2C2F2CAE85BF8590
:102940005E96ED91FC915F97812F902FA32DB22D74
:1029500080839183A283B38389819A81AB81BC8177
:10296000EE85FF8582A793A7A4A7B5A78D819E8139
:10297000AF81B88582A393A3A4A3B5A381E001C0CE
:1029800080E02F960FB6F894DEBF0FBECDBFDF916B
:10299000CF911F910F91FF90EF90DF90CF90BF905C
:1029A000AF909F908F907F906F905F904F903F90EF
:1029B0002F9008958F929F92AF92BF92CF92DF9205
:1029C000EF92FF92CF93DF93EC01EE8DFF8DC080ED
:1029D000D180E280F380CEA2DFA2E8A6F9A6EC8D3A
:1029E000FD8D80819181A281B3818AA79BA7ACA72D
:1029F000BDA78EA89FA8A8ACB9ACA5019401C7013A
:102A0000B6010E942B4C181664F08AA89BA8ACA8AB
:102A1000BDA8A5019401C701B6010E94CC4A87FF59
:102A200004C08EA29FA2A8A6B9A6DF91CF91FF9065
:102A3000EF90DF90CF90BF90AF909F908F900895D0
:102A40000E949B1D60937D0A70937E0A80937F0A8B
:102A50009093800A80E00895CF92DF92EF92FF92E8
:102A60000F931F93611571058105910541F41F9125
:102A70000F91FF90EF90DF90CF900C9420156B0199
:102A80007C010E949B1D00917D0A10917E0A20917D
:102A90007F0A3091800ADC01CB01801B910BA20BD5
:102AA000B30B21E0C816D906EA06FB0608F020E0C1
:102AB000822F1F910F91FF90EF90DF90CF9008959C
:102AC0008F929F92AF92BF92EF92FF920F931F93BC
:102AD000CF93DF93C82FD0E08E01000F111F0D5E42
:102AE000154FF801208131812115310521F0213068
:102AF0003105A1F16FC00E946F19009719F001977D
:102B0000A1F16BC00E949B1D9E01220F331F220F5B
:102B1000331FA901415C564F7A01FA0180809180F0
:102B2000A280B380DC01CB0188199909AA09BB09ED
:102B30000697A105B10508F450C081E090E0F801C6
:102B400091838083C655D94F88830E949B1DF701CE
:102B5000608371838283938381E040C00E946F19F8
:102B6000009719F0019771F038C00E949B1DCC0F9F
:102B7000DD1FCC0FDD1FC15CD64F688379838A834C
:102B80009B832BC00E949B1D9E01220F331F220F8F
:102B9000331FA901415C564F7A01FA018080918070
:102BA000A280B380DC01CB0188199909AA09BB096D
:102BB0000697A105B10588F0F80111821082C6556B
:102BC000D94F18820E949B1DF70160837183828315
:102BD000938303C0F8011182108280E0DF91CF91CE
:102BE0001F910F91FF90EF90BF90AF909F908F90AB
:102BF000089561E080EE9BE00E941A0D8BE39FE157
:102C00000197F1F70895CF92DF92EF92FF920F9321
:102C10001F93CF93DF93CDB7DEB728970FB6F89405
:102C2000DEBF0FBECDBF8A01C090EC02D090ED0296
:102C3000E090EE02F090EF02CD82DE82EF82F88625
:102C4000C090F002D090F102E090F202F090F30216
:102C5000C982DA82EB82FC829091E70B691710F04F
:102C60006FEF690F4091E80B262F30E0FE01E20F75
:102C7000F31F403121F4943011F4618101C065816A
:102C8000680F606880EE9BE00E941A0DB80180EE2C
:102C90009BE028960FB6F894DEBF0FBECDBFDF9144
:102CA000CF911F910F91FF90EF90DF90CF900C94F8
:102CB000E411AF92BF92CF92DF92EF920F931F93E6
:102CC000CF935B016A01C22FAC0160E080E00E94FB
:102CD0000316A50160E088E00E940316A60161E0EA
:102CE0008C2F0E940316A80161E08E2DCF911F91B9
:102CF0000F91EF90DF90CF90BF90AF900C940316A0
:102D0000E8E5F6E080E0928191118F5F399696E0D8
:102D1000E03AF907C1F70895382F21E049E0932FF1
:102D2000920F892F8770489FF0011124E85AF94FBC
:102D30009281911103C02F5F293089F70895809106
:102D4000A20681110AC0E3EAF6E08191811107C071
:102D500096E0EA3AF907C9F708951092A206089595
:102D60008091590681110BC0E8E5F6E0828181115E
:102D700008C0399696E0E03AF907C1F70895109235
:102D80005906089590915806992341F091E0909347
:102D9000A206E82FF0E0ED55F94F908308950F93C8
:102DA0001F9390915806992391F091E090935906C2
:102DB000A9E08A9FF0011124E85AF94F92834383D6
:102DC00054836583768307831087218732871F9119
:102DD0000F91089520E042E060E180EE9BE00E94C8
:102DE000220D62E080EE9BE00E941A0D8BE39FE1D2
:102DF0000197F1F70E94F91544EF55E060E080E09B
:102E00000E94031645E056E061E080E00E94031650
:102E100061E08CE00E94C71961E087E00E94C71959
:102E20001092580644EF51E060E070E084EF91E0CA
:102E30000E94031A1092F7061092F6061092E0060E
:102E40001092DF0662E08AE20E94C71962E08CE21B
:102E50000E94C71962E08EE20E94C71962E080E317
:102E60000E94C71962E088E20E94C7190E942015DB
:102E7000E1EEF6E082E0828384EF91E09787868737
:102E80008EE090E0918B808B82E090E0938B828B40
:102E90008EE085838EE1868387E0878389E1838363
:102EA0008AE084838EE190E09387828787E090E0D8
:102EB000958784878EEF848B84E190E0918780876B
:102EC0000895CF93C82F0E949B1D24E0C29FF0015C
:102ED0001124E45BF94F608371838283938380E0E4
:102EE000CF91089590E0FC013197E231F10508F0AF
:102EF0004EC08827E255FF4F8F4F0C94294A80918E
:102F000080008F7703C0809180008F7D8093800048
:102F1000089580918000877FF9CF84B58F7702C0B4
:102F200084B58F7D84BD08958091B0008F7703C0F4
:102F30008091B0008F7D8093B000089580919000C3
:102F40008F7707C0809190008F7D03C080919000A3
:102F5000877F8093900008958091A0008F7707C0AD
:102F60008091A0008F7D03C08091A000877F809317
:102F7000A0000895809120018F7707C080912001E3
:102F80008F7D03C080912001877F80932001089569
:102F90008F929F92AF92BF920F931F93CF93DF9325
:102FA000CDB7DEB7A1970FB6F894DEBF0FBECDBF89
:102FB00019A2423008F44AE08E010F5D1F4F842EA3
:102FC000912CA12CB12CA50194010E94E849E62F77
:102FD000B901CA0101501109EA3014F4E05D01C0E1
:102FE000E95CD801EC93232B242B252B61F7B80146
:102FF00087E39BE00E94CF11A1960FB6F894DEBF45
:103000000FBECDBFDF91CF911F910F91BF90AF90B9
:103010009F908F900895682F87E39BE00C94760E25
:103020008F929F92AF92BF92CF92DF92EF92FF92D8
:103030000F931F93CF93DF936B017C01142F9B01A0
:10304000AC010E949D4C882319F066E176E027C010
:1030500046015701E894B7F82FEF3FEF4FE75FE7DE
:10306000C501B4010E949D4C81110DC02FEF3FEFAF
:103070004FE75FE7C501B4010E94CC4A18161CF463
:103080006AE176E00CC02FEF3FEF4FE75FE4C70146
:10309000B6010E942B4C181694F46EE176E087E39B
:1030A0009BE0DF91CF911F910F91FF90EF90DF9008
:1030B000CF90BF90AF909F908F900C94CF112FEF37
:1030C0003FEF4FE75FECC701B6010E94CC4A87FD96
:1030D000E4CF20E030E0A901C701B6010E94CC4A4C
:1030E00087FF09C08DE20E940B18EC01F7FAF094FB
:1030F000F7F8F09402C0C0E0D0E000E060E070E0DB
:1031000080E09FE3101741F020E030E040E251E41E
:103110000E94D14A0F5FF6CFA70196010E94604A34
:103120006B017C010E944A4B4B015C014AE00E940A
:10313000C817C80FD91F1123A9F1C501B4010E94F6
:10314000794B9B01AC01C701B6010E945F4A6B013C
:103150007C018EE20E940B18C80FD91F20E030E0DE
:1031600040E251E4C701B6010E94304C4B015C01C2
:103170000E944A4B6B01E12CF12C4AE0C701B601D9
:103180000E94C817C80FD91FC701B6010E94794B0A
:103190009B01AC01C501B4010E945F4A6B017C0137
:1031A0001150E1F6CE01DF91CF911F910F91FF9069
:1031B000EF90DF90CF90BF90AF909F908F90089549
:1031C000282F30911D0B313208F04AC08091F90A46
:1031D0008111FCCF90911C0B42E04093F90A20939F
:1031E000F80A2FEF2093F70A1092F60A3093F50AA7
:1031F000ECEFFAE0A5EDBAE020E0321721F04191C2
:103200004D932F5FFACF1092D40A2091D40A990FD0
:10321000922B9093D40A9091D30A913061F410923A
:10322000D30A9091D40A9093BB009091BC0093FD77
:10323000F8CF95EC01C095EE9093BC009091F90AFF
:103240009230E1F39091F70A9F3F79F08091F70A6D
:10325000803241F08091F70A803331F084E005C07C
:1032600081E003C082E001C083E01092FB0A10926B
:103270001D0B1092FA0A0895682F84ED9BE00C94C0
:10328000A70FCF92DF92EF92FF92CF93DF936C0163
:10329000990FEE08FF08F7FE17C08DE20E940B1889
:1032A000EC0166277727CB016C197D098E099F09F0
:1032B0004AE00E94C8178C0F9D1FDF91CF91FF90AD
:1032C000EF90DF90CF9008954AE0C701B601DF91FB
:1032D000CF91FF90EF90DF90CF900C94C817CF93D1
:1032E000DF93282F30E0F901ED54FB4F8491F90171
:1032F000E750FB4FD491F901E75AFA4FC491CC2320
:1033000091F081110E947217EC2FF0E0EE0FFF1F79
:10331000E15CFA4FA591B491EC91ED2381E090E04E
:1033200021F480E002C080E090E0DF91CF91089529
:103330001F93CF93DF93282F30E0F901ED54FB4F1B
:103340008491F901E750FB4FD491F901E75AFA4F04
:10335000C491CC23C1F0162F81110E947217EC2F5B
:10336000F0E0EE0FFF1FE856FB4FA591B4919FB719
:10337000F894111104C08C91D095D82302C0EC911F
:10338000DE2BDC939FBFDF91CF911F910895CF93E8
:10339000DF9390E0FC01E750FB4F2491FC01E75ADA
:1033A000FA4F8491882361F190E0880F991FFC0106
:1033B000E258FB4FC591D491FC01E856FB4FA59113
:1033C000B491611109C09FB7F89488812095822338
:1033D0008883EC912E230BC0623061F49FB7F89480
:1033E0008881322F309583238883EC912E2B2C9368
:1033F0009FBF06C08FB7F894E8812E2B28838FBF1C
:10340000DF91CF9108954F925F926F927F928F924A
:103410009F92AF92BF92CF92DF92EF92FF920F9363
:103420001F93CF93DF9300D01F921F92CDB7DEB7CB
:103430008C012A013B0180910002873021F08F3FEF
:1034400009F01FC305C0E2EBF4E024912D83D9C03D
:1034500087E080930002E2EBF4E084918D838F3F5C
:1034600009F40FC3823009F468C028F5882309F4F1
:103470004BC0813009F0C5C01092800010928100CD
:1034800080918100886080938100809181008160BB
:1034900080938100E0E6F5E0E491F0E0EE0FFF1F9D
:1034A000E856FB4F85919491E0E0F5E0E491E093DC
:1034B000210B21E0A4C09D81943009F482C008F45E
:1034C00060C0953009F09DC010922001109221013A
:1034D0008091210188608093210180912101816088
:1034E00080932101E0E6F5E0E491F0E0EE0FFF1FAC
:1034F000E856FB4F85919491E0E0F5E0E491E0938C
:103500001E0B85E08D8307C114BC15BC84B5826099
:1035100084BD85B5816085BDE0E6F5E0E491F0E02D
:10352000EE0FFF1FE856FB4F85919491E0E0F5E028
:10353000E491E093220B1D829FC21092B000109282
:10354000B1008091B00082608093B0008091B100A2
:1035500081608093B100E0E6F5E0E491F0E0EE0FE9
:10356000FF1FE856FB4F859194919093CE0A80936C
:10357000CD0AE0E0F5E0E491E093CC0A82E08D83AF
:103580007BC210929000109291008091910088600F
:103590008093910080919100816080939100E0E69A
:1035A000F5E0E491F0E0EE0FFF1FE856FB4F859148
:1035B0009491E0E0F5E0E491E093200B93E09D83AB
:1035C000AAC01092A0001092A1008091A100886072
:1035D0008093A1008091A10081608093A100E0E62A
:1035E000F5E0E491F0E0EE0FFF1FE856FB4F859108
:1035F0009491E0E0F5E0E491E0931F0B24E02D834B
:103600008AC09D8197FD3DC261E087E00E94C71995
:103610008D818D7F09F083C04801A12CB12C60E021
:1036200072E18AE790E0A50194010E940A4A298389
:103630003A834B835C8369017A0121E0C21AD10885
:10364000E108F1088FEFC816D104E104F10409F094
:1036500008F44EC060E472E48FE090E0A5019401AC
:103660000E940A4A69017A0191E0C91AD108E10869
:10367000F1082D81223009F58FEFC816D104E1043D
:10368000F10409F008F4BFC160E970ED83E090E057
:10369000A50194010E940A4A69017A0191E0C91AC0
:1036A000D108E108F1082FEFC216D104E104F104BA
:1036B00011F008F036C183E027C08FEFC816D1049F
:1036C000E104F104B9F0B0F068E478EE81E090E054
:1036D000A50194010E940A4A69017A0191E0C91A80
:1036E000D108E108F1082D81222309F490C158C1C5
:1036F00081E001C082E09D81911106C095B5987F5F
:10370000892B85BD7FC085E09091B100987F892B82
:103710008093B10077C061E087E00E94C71948013B
:10372000A12CB12C60E072E18AE790E0A501940140
:103730000E940A4A69017A0181E0C81AD108E108A9
:10374000F108C114D10491E0E906F10488F068E4BD
:1037500078EE81E090E0A50194010E940A4A690197
:103760007A0181E0C81AD108E108F10883E001C0BC
:1037700081E09D81913081F490918100987F892B27
:1037800080938100411451046104710409F03FC029
:103790002FEF3FEFA9016DC02D81233079F4909177
:1037A0009100987F892B809391004114510461040A
:1037B000710469F52FEF3FEFA9017DC09D81943021
:1037C00079F49091A100987F892B8093A1004114F6
:1037D000510461047104D9F42FEF3FEFA9017DC0BA
:1037E0002D81253079F490912101987F892B809348
:1037F0002101411451046104710449F42FEF3FEF9A
:10380000A9017DC0411451046104710471F0D80113
:10381000AA0FBB1FA30192010E94314A28EE33E098
:1038200040E050E00E94E84903C02FEF3FEFA901BC
:103830008D81823081F12CF4882361F08130C9F0D0
:1038400020C19D81943009F448C0ACF1953009F451
:1038500056C017C1C7BC2093330B3093340B409331
:10386000350B5093360B80916E00826080936E0012
:1038700008C1D0928900C092880020932F0B30930A
:10388000300B4093310B5093320B80916F0082606C
:1038900080936F00F6C0C092B3002093CF0A30939C
:1038A000D00A4093D10A5093D20A8091700082606E
:1038B00080937000E6C0D0929900C0929800209347
:1038C0002B0B30932C0B40932D0B50932E0B809190
:1038D0007100826080937100D4C0D092A900C09220
:1038E000A8002093270B3093280B4093290B50936B
:1038F0002A0B80917200826080937200C2C0D092C5
:103900002901C09228012093230B3093240B40936C
:10391000250B5093260B8091730082608093730077
:10392000B0C068E478EE81E090E0A50194010E94C7
:103930000A4A69017A0181E0C81AD108E108F10850
:103940009FEFC916D104E104F10441F138F164E2BA
:1039500074EF80E090E0A50194010E940A4A690199
:103960007A0181E0C81AD108E108F1089FEFC91671
:10397000D104E104F10409F008F4C5CE62E17AE76C
:1039800080E090E0A50194010E940A4A69017A0151
:1039900081E0C81AD108E108F10818C084E0B4CE6B
:1039A0002FEFC216D104E104F10479F170F162E164
:1039B0007AE780E090E0A50194010E940A4A69013B
:1039C0007A0191E0C91AD108E108F1088FEFC81611
:1039D000D104E104F104A9F0A0F089819A81AB81BE
:1039E000BC812AE0B595A795979587952A95D1F73B
:1039F0006C017D0121E0C21AD108E108F10887E0DD
:103A000083CE86E081CE82E07FCE84E074CE2FEF3D
:103A1000C216D104E104F10469F160F162E17AE7D0
:103A200080E090E0A50194010E940A4A69017A01B0
:103A300081E0C81AD108E108F1089FEFC916D10446
:103A4000E104F104A9F0A0F089819A81AB81BC81E5
:103A50003AE0B595A795979587953A95D1F76C017A
:103A60007D0121E0C21AD108E108F10885E046CEC7
:103A700084E044CE83E042CE61E087E00E94C71933
:103A8000CBCD0F900F900F900F900F90DF91CF91B3
:103A90001F910F91FF90EF90DF90CF90BF90AF906C
:103AA0009F908F907F906F905F904F900895863396
:103AB00008F0865390917B00282F2870977F922BD7
:103AC00090937B008770806480937C0080917A0063
:103AD000806480937A0080917A0086FDFCCF80918B
:103AE00078002091790090E0922B08953FB7F894E8
:103AF0008091C80A9091C90AA091CA0AB091CB0AD4
:103B000026B5A89B05C02F3F19F00196A11DB11D38
:103B10003FBFBA2FA92F982F8827820F911DA11D73
:103B2000B11DBC01CD0142E0660F771F881F991FB0
:103B30004A95D1F708952FB7F8946091C40A70910F
:103B4000C50A8091C60A9091C70A2FBF08954F9267
:103B50005F926F927F928F929F92AF92BF92CF921D
:103B6000DF92EF92FF920F931F93CF93DF93CDB726
:103B7000DEB74C01DC015F965C934E935E975D96D9
:103B80007C936E935C9791963C932E939097DA96E4
:103B90001C92FC0112AA13AA14AA15AA80E090E0B4
:103BA000AFE7B3E486AB97ABA0AFB1AF84E690E0EC
:103BB000A0E0B0E086A797A7A0ABB1AB118E108EA6
:103BC00020E030E0A901C801B7010E94CC4A87FD7E
:103BD00056C020E030E0A901C601B5010E94CC4AE0
:103BE00087FD4DC020E030E0A9016C897D898E8978
:103BF0009F890E94CC4A87FD42C081E090E0D401B9
:103C00005B969C938E935A97DB968C93DB97F4018B
:103C1000E082F182028313831496AD92BD92CD921D
:103C2000DC9217978C899D89AE89BF89808791879F
:103C3000A287B387D4011C96ED92FD920D931C933D
:103C40001F972DEC3CEC4CEC5DE3C601B5010E94E6
:103C5000304CF401608B718B828B938B2DEC3CECA0
:103C60004CEC5DE36C897D898E899F890E94D14AE5
:103C7000D40154966D937D938D939C9357970E9496
:103C80009B1DF401C6A4D7A4E0A8F1A8DC01CB01D8
:103C90008C199D09AE09BF0982A393A3A4A3B5A360
:103CA000DF91CF911F910F91FF90EF90DF90CF9018
:103CB000BF90AF909F908F907F906F905F904F904C
:103CC0000895AF92BF92CF92DF92EF92FF920F933F
:103CD0001F93CF93DF938C015C018EE0A80EB11C83
:103CE000C42ED12CC0E0D0E0E62EF12CCC15DD05A1
:103CF00079F0B7010C2E02C0759567950A94E2F72A
:103D00006170F50181915F010E9498192196EECFB3
:103D100061E0F80185850E94981960E0F8018585C9
:103D2000DF91CF911F910F91FF90EF90DF90CF9097
:103D3000BF90AF900C94981962E276E087E39BE025
:103D40000C94CF11CF92DF92EF92FF92CF93DF933B
:103D50006B017C0120E030E0A9010E94CC4A87FF82
:103D600006C0F7FAF094F7F8F09460E001C061E063
:103D700084E00E94981921EE3AE744E050E4C7013C
:103D8000B6010E94D14A20E030E04FE753E40E94A0
:103D9000304C0E94434B6B017C01EB0161E085E0FC
:103DA0000E94C719209711F460E004C0CF3FD105ED
:103DB00051F461E085E0DF91CF91FF90EF90DF90CB
:103DC000CF900C949819E8EBF4E0E4918E2F90E0FA
:103DD000FC013197E231F10508F09DC08827E054DD
:103DE000FF4F8F4F0C94294A84B5806884BDC7BCAF
:103DF00097C084B5806284BDC8BC92C080918000A9
:103E0000806880938000D0928900C092880088C02A
:103E100080918000806280938000D0928B00C0925D
:103E20008A007EC080918000886080938000D0925C
:103E30008D00C0928C0074C08091B0008068809327
:103E4000B000C092B3006CC08091B00080628093DB
:103E5000B000C092B40064C08091900080688093EC
:103E60009000D0929900C09298005AC08091900022
:103E7000806280939000D0929B00C0929A0050C0C4
:103E800080919000886080939000D0929D00C092B5
:103E90009C0046C08091A00080688093A000809123
:103EA000A0008F7B8093A000D092A900C092A800B0
:103EB00037C08091A00080628093A000D092AB00B8
:103EC000C092AA002DC08091A00088608093A000BD
:103ED000D092AD00C092AC0023C0809120018068D8
:103EE00080932001D0922901C092280119C08091AD
:103EF0002001806280932001D0922B01C0922A0180
:103F00000FC080912001886080932001D0922D0104
:103F1000C0922C0105C0C038D1050CF04ACF44CF67
:103F2000DF91CF91FF90EF90DF90CF9008951F9297
:103F30000F920FB60F9211242F933F938F939F935D
:103F4000AF93BF938091C40A9091C50AA091C60A0D
:103F5000B091C70A3091070D23E0230F2D3720F4CD
:103F60000196A11DB11D05C026E8230F0296A11DD3
:103F7000B11D2093070D8093C40A9093C50AA093A6
:103F8000C60AB093C70A8091C80A9091C90AA09145
:103F9000CA0AB091CB0A0196A11DB11D8093C80A2F
:103FA0009093C90AA093CA0AB093CB0ABF91AF916C
:103FB0009F918F913F912F910F900FBE0F901F9067
:103FC0001895CF93DF93CDB7DEB7EE970FB6F89481
:103FD000DEBF0FBECDBF789484B5826084BD84B54A
:103FE000816084BD85B5826085BD85B5816085BDF4
:103FF00080916E00816080936E00109281008091AC
:104000008100826080938100809181008160809333
:104010008100809180008160809380008091B10058
:1040200084608093B1008091B00081608093B00083
:1040300080919100826080939100809191008160D5
:104040008093910080919000816080939000809196
:10405000A10082608093A1008091A1008160809383
:10406000A1008091A00081608093A0008091210137
:1040700082608093210180912101816080932101E0
:104080008091200181608093200180917A0084607A
:1040900080937A0080917A00826080937A00809188
:1040A0007A00816080937A0080917A0080688093A2
:1040B0007A001092C1000E94EA1610923D071092F9
:1040C0003C07109238071092390710923A07109265
:1040D0003B071092370710927207109271071092E7
:1040E0002B0610922A061092FB0A10921D0B1092BA
:1040F000F90A81E08093F80A1092D30A61E084E122
:104100000E94981961E085E10E9498198091B90098
:104110008E7F8093B9008091B9008D7F8093B90024
:1041200088E48093B80085E48093BC008CE49FE031
:1041300090932906809328068DE49FE090932706AC
:104140008093260610928907109288071092440CDB
:104150001092450C1092460C1092470C1092480C8D
:104160001092490C10924A0C10924B0C1092500C69
:104170001092510C1092520C1092530C1092540C3D
:104180001092550C1092560C1092570C1092580C1D
:1041900010925A0C10925B0C10925C0C10925D0CF9
:1041A00010925E0C10925F0C1092600C1092610CD9
:1041B0001092620C1092630C1092640C1092650CB9
:1041C0001092660C1092670C1092680C1092690C99
:1041D00010926A0C10926B0C10926C0C10926D0C79
:1041E00010926E0C10926F0C1092700C1092710C59
:1041F0001092720C1092730C1092740C1092750C39
:104200001092760C1092770C1092780C1092790C18
:1042100010927A0C10927B0C10927C0C10927D0CF8
:1042200010927E0C10927F0C1092800C1092810CD8
:104230001092820C1092830C1092840C1092850CB8
:104240001092860C1092870C1092880C1092890C98
:1042500010928A0C10928B0C10928C0C10928D0C78
:1042600010928E0C10928F0C1092900C1092910C58
:104270001092920C1092930C1092940C1092950C38
:104280001092960C1092970C1092980C1092990C18
:1042900010929A0C10929B0C10929C0C10929D0CF8
:1042A00010929E0C10929F0C1092A00C1092A10CD8
:1042B0001092A20C1092A30C1092A40C1092A50CB8
:1042C0001092A60C1092A70C1092A80C1092A90C98
:1042D0001092AA0C1092AB0C1092AC0C1092AD0C78
:1042E0001092AE0C1092AF0C1092B00C1092B10C58
:1042F0001092B20C1092B40C1092B30C1092B50C38
:104300001092B60C80E090E0A0E0B0E48093B70C8F
:104310009093B80CA093B90CB093BA0C1092BB0C4C
:104320001092BC0C1092BD0C1092BE0C8091F90C36
:10433000811104C08FEB9CE00E94DA1481E080932D
:10434000F90C95E9C92E94EDD92EEE24E39490EC66
:10435000F92EC092F10CD092F20CE092F30CF09294
:10436000F40C25E9422E24ED522E6624639420E4B9
:10437000722E4092F50C5092F60C6092F70C7092EF
:10438000F80C0091DD0C1091DE0CF801808091801A
:10439000A280B380A3019201C501B4010E942B4CFD
:1043A000181634F4F80140825182628273820FC081
:1043B00025E934ED41E050ECC501B4010E94CC4A3E
:1043C00087FF05C0F801C082D182E282F38280902B
:1043D000E50C9090E60CA090E70CB090E80CC09033
:1043E000F50CD090F60CE090F70CF090F80CA701CB
:1043F0009601C501B4010E942B4C181684F0C090A0
:10440000F10CD090F20CE090F30CF090F40CA701BA
:104410009601C501B4010E94CC4A87FF08C0C09232
:10442000E50CD092E60CE092E70CF092E80C60917B
:10443000ED0C7091EE0C8091EF0C9091F00C0E94BD
:10444000794B9B01AC0160E070E080E090E40E9459
:10445000D14A6B017C019B01AC016091CF0C709142
:10446000D00C8091D10C9091D20C0E94304C609372
:10447000CF0C7093D00C8093D10C9093D20CA701E9
:1044800096016091D30C7091D40C8091D50C9091D1
:10449000D60C0E94D14A6093D30C7093D40C8093B5
:1044A000D50C9093D60C82E090E0A0E0B0E0809331
:1044B000ED0C9093EE0CA093EF0CB093F00C809168
:1044C0003D0C811104C083E09CE00E94DA1481E07D
:1044D00080933D0CC12CD12C00EAE02E00E4F02E9C
:1044E000C092350CD092360CE092370CF092380C1A
:1044F000412C512C8CE0682E82E4782E4092390CAD
:1045000050923A0C60923B0C70923C0C0091210C42
:104510001091220CF80180809180A280B380A301C9
:104520009201C501B4010E942B4C181634F4F80115
:1045300040825182628273820FC020E030E040EA04
:1045400050E4C501B4010E94CC4A87FF05C0F801C0
:10455000C082D182E282F3828090290C90902A0C52
:10456000A0902B0CB0902C0CC090390CD0903A0C31
:10457000E0903B0CF0903C0CA7019601C501B40102
:104580000E942B4C181684F0C090350CD090360C3D
:10459000E090370CF090380CA7019601C501B401EA
:1045A0000E94CC4A87FF08C0C092290CD0922A0CE6
:1045B000E0922B0CF0922C0C6091310C7091320C2B
:1045C0008091330C9091340C0E94794B9B01AC018B
:1045D00060E070E080E090E40E94D14A6B017C01D1
:1045E0009B01AC016091130C7091140C8091150C1F
:1045F0009091160C0E94304C6093130C7093140C25
:104600008093150C9093160CA70196016091170CDE
:104610007091180C8091190C90911A0C0E94D14A3B
:104620006093170C7093180C8093190C90931A0CCC
:1046300082E090E0A0E0B0E08093310C9093320CE7
:10464000A093330CB093340C61E085E00E94C7194D
:1046500061E084E00E94C71960E086E00E94C7190B
:10466000E091470BF091480B82E08083E091430B8F
:10467000F091440B1082E091450BF091460B80E1E4
:10468000808310924F0BE0914B0BF0914C0B86E026
:104690008083E091490BF0914A0B80818061808397
:1046A000E091490BF0914A0B808188608083E09112
:1046B000490BF0914A0B808180688083E091490B1F
:1046C000F0914A0B80818F7D808310923607109283
:1046D000310784E690E0A0E0B0E080933207909349
:1046E0003307A0933407B093350761E08DE00E9453
:1046F000C7191092C4071092C3070E949B1D6093B4
:10470000C5077093C6078093C7079093C8076CE2EC
:1047100073E087E39BE00E94CF110E949C1EF2E0B1
:10472000AF2EB12CCC24C394D12CB6E02B2E312C3F
:1047300015E0812E912C80914F0790915007A09108
:104740005107B09152078093FC069093FD06A09309
:10475000FE06B093FF068091B50C8823A1F110925C
:10476000B50C8091530790915407A0915507B091D3
:10477000560720E030E040EF50EC20935307309391
:104780005407409355075093560780930007909322
:104790000107A0930207B093030780915B0788236A
:1047A00091F010925B078091570790915807A09164
:1047B0005907B0915A078093040790930507A09377
:1047C0000607B09307078091B60C8823C1F01092BA
:1047D000B60C80915B07882391F010925B07809163
:1047E000570790915807A0915907B0915A078093A5
:1047F000080790930907A0930A07B0930B078091CD
:104800003C0790913D078130910581F1C0F00297FE
:1048100009F025C110923D0710923C0710924F07F6
:104820001092500710925107109252074EE357E032
:104830005BAF4AAF8A0160E070E0CB0184C00E94A8
:104840009B1D00914C0610914D0620914E06309113
:104850004F06DC01CB01801B910BA20BB30B06971B
:10486000A105B10508F4FBC00C942B4210917A000D
:1048700080917A00887F846080937A0086E30E942A
:10488000571D10937A00BC01990F880B990B0E9459
:104890007B4B20E030E046E952E40E94304C20E0BF
:1048A00030EC4FE754E40E94D14A20E030E040EF82
:1048B00050E40E945F4A20E030E040E85EE30E945E
:1048C000304C209138073091390740913A07509188
:1048D0003B070E94604A60933807709339078093C2
:1048E0003A0790933B0720913707233019F5B09290
:1048F0003D07A0923C0720914E0730E02F5F3F4FCD
:104900002370332720934E07220F331F220F331FAC
:10491000F901E25CF84F6083718382839383109284
:104920003707109238071092390710923A07109201
:104930003B0795C010923D0710923C0781E0820F23
:10494000809337078CC0F8012191319141915191A9
:104950008F010E94604AF7E00E341F07A1F720E0A4
:1049600030E040E85EE30E94304C2B013C01609354
:104970004F07709350078093510790935207E09030
:104980005307F09054070091550710915607E09196
:104990004E0724E0E29FF0011124E25CF84F3081E1
:1049A0003EAB41814CAF52815DAF83818EAF232FEF
:1049B000342F452F582FB701C8010E942B4C1816D1
:1049C00024F0EEA8FCAC0DAD1EADC701D80180935C
:1049D000530790935407A0935507B0935607EAAD39
:1049E000FBAD6191719181919191FBAFEAAFA30110
:1049F00092010E945F4A6EAB7FAB88AF99AF20E017
:104A000030E0A9010E942B4C18166CF420E030E035
:104A100040E850E46EA97FA988AD99AD0E942B4C67
:104A20001816ECF00CC020E030E040E850EC6EA925
:104A30007FA988AD99AD0E94CC4A87FD10C02AADF0
:104A40003BAD2E54374059F681E080935B0740928E
:104A50005707509258076092590770925A078091F1
:104A60007107909172078130910569F1A8F0029762
:104A700009F0B2C0109272071092710710926C0781
:104A800010926D0710926E0710926F070CE517E0F9
:104A9000412C512C320180C00E949B1D0091500678
:104AA000109151062091520630915306DC01CB0142
:104AB000801B910BA20BB30B0B97A105B10508F45A
:104AC0008BC00C943442B0927207A092710780910F
:104AD000700790E00196837099278093700780910A
:104AE000F90A8111FCCF81E08093F90A8093F80ADA
:104AF0009FEF9093F70A1092F60A92E09093F50ACE
:104B00008093D40A8091D40A80688093D40A8091DB
:104B1000D30A813061F41092D30A8091D40A809331
:104B2000BB008091BC0083FDF8CF85EC01C085EE11
:104B30008093BC008091F90A8130E1F38091F60AFC
:104B4000833018F41091F60A01C013E0E5EDFAE0A5
:104B5000ACE2B6E080E0811721F091919D938F5FE8
:104B6000FACF10922B0610932A06112321F084ED20
:104B70009BE00E945E0F80912B06181721F084EDB8
:104B80009BE00E945E0F80912B06181729F184ED9F
:104B90009BE00E945E0F20C0F801619171918191AC
:104BA00091918F0120E030E040E85EE30E94304CBC
:104BB0009B01AC01C301B2010E94604A2B013C0180
:104BC000F7E00C361F0741F760936C0770936D0791
:104BD00080936E0790936F07809188079091890763
:104BE0008130910569F1A8F0029709F08EC010920A
:104BF00089071092880710928307109284071092F9
:104C000085071092860703E717E0412C512C3201EB
:104C10005CC00E949B1D0091540610915506209186
:104C2000560630915706DC01CB01801B910BA20B7D
:104C3000B30B4597A105B10508F467C00C94654214
:104C4000B0928907A09288078091870790E001962B
:104C5000837099278093870710917A0080917A005A
:104C6000887F846080937A0087E30E94571D1093A9
:104C70007A000091870724E0029F800111240D58DB
:104C8000184FBC01990F880B990B0E947B4B20E0B9
:104C900030E040E252E40E94304C20E030EC4FE73C
:104CA00054E40E94D14A20E030E040EA51E40E94FE
:104CB0005F4A24EA30E74DE35EE30E94D14AF801FF
:104CC000608371838283938320C0F8016191719125
:104CD000819191918F0120E030E040E85EE30E94F5
:104CE000304C9B01AC01C301B2010E94604A2B0110
:104CF0003C01F7E003381F0741F760938307709387
:104D0000840780938507909386070E94D9061A8AA4
:104D10008091F6069091F7068230910511F40C947B
:104D2000293E30F4009791F0019759F10C942F40EF
:104D30008430910511F40C94323E10F40C94503EE2
:104D4000059711F40C943B3E0C942F408EE20E9488
:104D50006015882311F40C9433400E94F91542E742
:104D600053E060E080E00E94031643E853E061E016
:104D700080E00E940316D092F706C092F6060C94CB
:104D80001B3E1982E091DF06F091E006ED32F1055D
:104D900010F00C940F3E8827EE58FF4F8F4F0C9465
:104DA000294A8AE20E946015882361F044E953E0B1
:104DB00061E080E00E940316B092E006A092DF0658
:104DC0000C94133E8CE20E946015882361F045EA42
:104DD00053E061E080E00E940316D092E006C092AA
:104DE000DF060C94133E80E30E946015882369F06F
:104DF00082E08093E3068CE290E09093E00680935B
:104E0000DF060E9420150C94133E64EF71E080E0F1
:104E100090E00E942C15882311F40C94133E23E09B
:104E200030E03093E0062093DF0646EB53E061E08C
:104E300080E00E9403160E9420150C94133E8AE223
:104E40000E9460158111B2CF8CE20E946015811121
:104E5000BECF80E30E9460158111CACF6AEF70E077
:104E600080E090E00E942C15882311F40C94133EEE
:104E700043E853E061E080E00E9403161092E006F0
:104E80001092DF060E9420150C94133E8AE20E94C5
:104E90006015882361F043E853E061E080E00E9400
:104EA00003161092E0061092DF060C94133E8CE27B
:104EB0000E94601581117ACF80E30E9460158823DB
:104EC00081F045EA53E061E080E00E940316109211
:104ED000E3063092E0062092DF060E9420150C9433
:104EE000133E64EF71E080E090E00E942C1588236F
:104EF00011F40C94133E44E050E05093E0064093CC
:104F0000DF0646EB53E061E080E00E9403160E945A
:104F100020150C94133E8AE20E9460158111BBCFCC
:104F20008CE20E946015811141CF80E30E946015E0
:104F30008111C7CF6AEF70E080E090E00E942C15ED
:104F4000882311F40C94133ED092E006C092DF0641
:104F500045EA53E061E080E00E9403160E942015BC
:104F60000C94133E8AE20E946015811130CF8CE2CE
:104F70000E94601581118FCF80E30E946015882305
:104F800089F044E953E061E080E00E94031681E08B
:104F90008093E3063092E0062092DF060E942015FF
:104FA0000C94133E64EF71E080E090E00E942C15B9
:104FB000882311F40C94133E9092E0068092DF0651
:104FC00046EB53E061E080E00E9403160E9420154A
:104FD0000C94133E8AE20E9460158111F8CE8CE297
:104FE0000E946015811157CF80E30E9460158111E6
:104FF000C8CF6AEF70E080E090E00E942C15882313
:1050000011F40C94133EB092E006A092DF0644E93E
:1050100053E061E080E00E9403160E9420150C948A
:10502000133E64EF71E080E090E00E942C1588232D
:1050300011F40C94133E8091E306813049F50E94EF
:10504000F91547EC53E060E080E00E9403164AE067
:10505000BE016F5F7F4F8091E9069091EA060E9442
:10506000504768ED73E0CE0101960E94A74CAE0157
:105070004F5F5F4F61E080E00E9403168AE090E09E
:105080009093E0068093DF060E9420150C94133E57
:1050900081110C94133E0E94F9154FED53E060E02E
:1050A00080E00E9403164AE0BE016F5F7F4F80914F
:1050B000EF069091F0060E94504760EF73E0CE013A
:1050C00001960E94A74CAE014F5F5F4F61E080E008
:1050D0000E94031687E090E09093E0068093DF063D
:1050E0000E9420150C94133E8AE20E9460158823CA
:1050F00041F18091E9069091EA068332910510F41E
:10510000019602C083E290E09093EA068093E9065C
:105110004AE0BE016F5F7F4F8091E9069091EA06F9
:105120000E94504768ED73E0CE0101960E94A74CA3
:10513000AE014F5F5F4F61E080E00E9403160C9468
:10514000133E8CE20E946015882351F18091E9069C
:105150009091EA068630910530F001979093EA0627
:105160008093E90604C09092EA068092E9064AE03C
:10517000BE016F5F7F4F8091E9069091EA060E9421
:10518000504768ED73E0CE0101960E94A74CAE0136
:105190004F5F5F4F61E080E00E9403160C94133E66
:1051A00080E30E946015882309F14AE0BE016F5F29
:1051B0007F4F8091E9069091EA060E94504768ED82
:1051C00073E0CE0101960E94A74CAE014F5F5F4F86
:1051D00061E080E00E9403168CE090E09093E0068E
:1051E0008093DF060E9420150C94133E88E20E94F3
:1051F00060158823B1F00E94F91542E753E060E0A2
:1052000080E00E94031643E853E061E080E00E94E2
:1052100003161092E0061092DF060E9420150C94EF
:10522000133E64EF71E080E090E00E942C1588232B
:1052300011F40C94133E8BE090E09093E006809381
:10524000DF0646EB53E061E080E00E9403160E9417
:1052500020150C94133E8AE20E946015882341F1C8
:105260008091E9069091EA068332910510F4019647
:1052700002C083E290E09093EA068093E9064AE058
:10528000BE016F5F7F4F8091E9069091EA060E9410
:10529000504768ED73E0CE0101960E94A74CAE0125
:1052A0004F5F5F4F61E080E00E9403160C94133E55
:1052B0008CE20E946015882351F18091E90690915B
:1052C000EA068630910530F001979093EA068093C4
:1052D000E90604C09092EA068092E9064AE0BE011F
:1052E0006F5F7F4F8091E9069091EA060E945047D8
:1052F00068ED73E0CE0101960E94A74CAE014F5FAE
:105300005F4F61E080E00E9403160C94133E80E33F
:105310000E946015882309F14AE0BE016F5F7F4F4C
:105320008091E9069091EA060E94504768ED73E08B
:10533000CE0101960E94A74CAE014F5F5F4F61E026
:1053400080E00E9403168CE090E09093E00680934A
:10535000DF060E9420150C94133E88E20E9460151F
:10536000811149CF6AEF70E080E090E00E942C1537
:10537000882311F40C94133E4AE0BE016F5F7F4F07
:105380008091E9069091EA060E94504768ED73E02B
:10539000CE0101960E94A74CAE014F5F5F4F61E0C6
:1053A00080E00E9403168AE090E09093E0068093EC
:1053B000DF060E9420150C94133E64EF71E080E03C
:1053C00090E00E942C15882311F40C94133E0E9447
:1053D000F91543EF53E060E080E00E9403164AE0D5
:1053E000BE016F5F7F4F8091F1069091F2060E949F
:1053F000504764E074E0CE0101960E94A74CAE01D4
:105400004F5F5F4F61E080E00E9403168DE090E007
:105410009093E0068093DF060E9420150C94133EC3
:105420008AE20E946015882349F18091EF069091ED
:10543000F006803253E0950710F4C29602C080E275
:1054400093E09093F0068093EF064AE0BE016F5F11
:105450007F4F8091EF069091F0060E94504760EFD9
:1054600073E0CE0101960E94A74CAE014F5F5F4FE3
:1054700061E080E00E9403160C94133E8CE20E94CF
:105480006015882349F18091EF069091F0068D32E6
:10549000E1E09E0710F0C29702C08CE291E0909389
:1054A000F0068093EF064AE0BE016F5F7F4F809168
:1054B000EF069091F0060E94504760EF73E0CE0136
:1054C00001960E94A74CAE014F5F5F4F61E080E004
:1054D0000E9403160C94133E80E30E9460158823FB
:1054E00009F14AE0BE016F5F7F4F8091EF06909116
:1054F000F0060E94504760EF73E0CE0101960E94D3
:10550000A74CAE014F5F5F4F61E080E00E94031641
:1055100089E090E09093E0068093DF060E942015DA
:105520000C94133E88E20E946015811164CE64EFF2
:1055300071E080E090E00E942C15882311F40C9417
:10554000133E88E090E09093E0068093DF0646EB00
:1055500053E061E080E00E9403160E9420150C9445
:10556000133E8AE20E946015882349F18091EF067C
:105570009091F0068032F3E09F0710F4C29602C0CB
:1055800080E293E09093F0068093EF064AE0BE013C
:105590006F5F7F4F8091EF069091F0060E94504719
:1055A00060EF73E0CE0101960E94A74CAE014F5F01
:1055B0005F4F61E080E00E9403160C94133E8CE282
:1055C0000E946015882349F18091EF069091F006C2
:1055D0008D3221E0920710F0C29702C08CE291E078
:1055E0009093F0068093EF064AE0BE016F5F7F4F15
:1055F0008091EF069091F0060E94504760EF73E0B3
:10560000CE0101960E94A74CAE014F5F5F4F61E053
:1056100080E00E9403160C94133E80E30E94601504
:10562000882309F14AE0BE016F5F7F4F8091EF064A
:105630009091F0060E94504760EF73E0CE01019612
:105640000E94A74CAE014F5F5F4F61E080E00E9477
:10565000031689E090E09093E0068093DF060E94B5
:1056600020150C94133E88E20E9460158111C3CD71
:105670006AEF70E080E090E00E942C15882311F41E
:105680000C94133E4AE0BE016F5F7F4F8091EF069E
:105690009091F0060E94504760EF73E0CE010196B2
:1056A0000E94A74CAE014F5F5F4F61E080E00E9417
:1056B000031687E090E09093E0068093DF060E9457
:1056C00020150C94133E64EF71E080E090E00E949E
:1056D0002C15882311F40C94133E0E94F91543EF06
:1056E00053E060E080E00E9403164AE0BE016F5F75
:1056F0007F4F8091F1069091F2060E94504764E03E
:1057000074E0CE0101960E94A74CAE014F5F5F4F3F
:1057100061E080E00E9403168DE090E09093E00647
:105720008093DF060E9420150C94133E8AE20E94AB
:105730006015882341F18091F1069091F206803145
:10574000910510F4019602C080E190E09093F2067A
:105750008093F1064AE0BE016F5F7F4F8091F106B2
:105760009091F2060E94504764E074E0CE010196E9
:105770000E94A74CAE014F5F5F4F61E080E00E9446
:1057800003160C94133E8CE20E946015882341F1AD
:105790008091F1069091F2068D30910510F00197FD
:1057A00002C08CE090E09093F2068093F1064AE00C
:1057B000BE016F5F7F4F8091F1069091F2060E94CB
:1057C000504764E074E0CE0101960E94A74CAE0100
:1057D0004F5F5F4F61E080E00E9403160C94133E20
:1057E00080E30E946015882309F14AE0BE016F5FE3
:1057F0007F4F8091F1069091F2060E94504764E03D
:1058000074E0CE0101960E94A74CAE014F5F5F4F3E
:1058100061E080E00E9403168FE090E09093E00644
:105820008093DF060E9420150C94133E88E20E94AC
:105830006015882309F459C08091E306813049F549
:105840000E94F91547EC53E060E080E00E940316E7
:105850004AE0BE016F5F7F4F8091E9069091EA06B2
:105860000E94504768ED73E0CE0101960E94A74C5C
:10587000AE014F5F5F4F61E080E00E9403168AE057
:1058800090E09093E0068093DF060E9420150C9430
:10589000133E81110C94133E0E94F9154FED53E015
:1058A00060E080E00E9403164AE0BE016F5F7F4F18
:1058B0008091EF069091F0060E94504760EF73E0F0
:1058C000CE0101960E94A74CAE014F5F5F4F61E091
:1058D00080E00E94031687E090E09093E0068093BA
:1058E000DF060E9420150C94133E64EF71E080E007
:1058F00090E00E942C15882311F40C94133E8EE046
:1059000090E09093E0068093DF0646EB53E061E081
:1059100080E00E9403160E9420150C94133E8AE238
:105920000E946015882341F18091F1069091F20662
:105930008031910510F4019602C080E190E09093CF
:10594000F2068093F1064AE0BE016F5F7F4F8091BF
:10595000F1069091F2060E94504764E074E0CE0197
:1059600001960E94A74CAE014F5F5F4F61E080E05F
:105970000E9403160C94133E8CE20E94601588234B
:1059800041F18091F1069091F2068D30910510F071
:10599000019702C08CE090E09093F2068093F106AC
:1059A0004AE0BE016F5F7F4F8091F1069091F20651
:1059B0000E94504764E074E0CE0101960E94A74C1B
:1059C000AE014F5F5F4F61E080E00E9403160C94D0
:1059D000133E80E30E946015882309F14AE0BE016E
:1059E0006F5F7F4F8091F1069091F2060E945047C1
:1059F00064E074E0CE0101960E94A74CAE014F5FB7
:105A00005F4F61E080E00E9403168FE090E090938A
:105A1000E0068093DF060E9420150C94133E88E276
:105A20000E946015882309F459C08091E3068130F3
:105A300049F50E94F91547EC53E060E080E00E94D0
:105A400003164AE0BE016F5F7F4F8091E906909197
:105A5000EA060E94504768ED73E0CE0101960E946D
:105A6000A74CAE014F5F5F4F61E080E00E940316DC
:105A70008AE090E09093E0068093DF060E94201574
:105A80000C94133E81110C94133E0E94F9154FEDB6
:105A900053E060E080E00E9403164AE0BE016F5FC1
:105AA0007F4F8091EF069091F0060E94504760EF83
:105AB00073E0CE0101960E94A74CAE014F5F5F4F8D
:105AC00061E080E00E94031687E090E09093E0069A
:105AD0008093DF060E9420150C94133E64EF71E062
