:100000000C9497020C9422060C94F7050C94CC05E2
:100010000C94A1050C9476050C944B050C942005CA
:100020000C94F5040C94C8020C94C8020C94C802F9
:100030000C94C8020C944D060C94C8020C94C8028F
:100040000C94C8020C94C8020C94C8020C94C80208
:100050000C94C8020C94C8020C94C8020C944E1460
:100060000C94C8020C942D070C9403070C94C8023E
:100070000C94C8020C94C8020C94C8020C94C802D8
:100080000C94C8020C94C8020C94C8020C94C802C8
:100090000C94C8020C94C8020C94C8020C94C802B8
:1000A0000C94C8020C94C8020C94C8020C94C802A8
:1000B0000C94C8020C94C8020C94C8020C94C80298
:1000C0000C94C8020C94C8020C94C8020C94C80288
:1000D0000C94C8020C94C8020C94C8020C94C80278
:1000E0000C94C802401E5D1EF21E6D1FC61E3E1FF0
:1000F000AF1FDE1FCA216B221D234120E220972162
:1001000050234924532586255426342766271F2843
:10011000E8281A29D2299A2ACC2A822B452C762C17
:10012000372D092E3B2EF52EC12F1230E62FA93088
:100130002B3328317A3104324B328A32C832FD32C5
:100140005B0F5E0F4D0F510F570F950F620F660F2C
:100150006C0F700F740F7A0F7E0F820F950F880F40
:100160008C0F900F85128A128F129912A3121C13F2
:10017000AD12B512BD12C712D112DB12EA12F4127F
:100180001C13FE12081312130C94F52E0C948F12EC
:100190000C94CC2A0C94E8280C948C0F0C944D0FE2
:1001A0000C9428310C9486250C947A310C94092EE9
:1001B0000C9466270C9404320C9412130C94851240
:1001C0000C943B2E0C94740F0C945E030C944E0C08
:1001D0000C94D40B0C94950F0C94762C0C94510F1A
:1001E0000C94401E0C94C12F0C94AF1F0C946B22E6
:1001F0000C94822B0C9453250C941A290C944304D0
:100200000C942B330C9404030C94CA210C94C71245
:100210000C94BD120C9497370C94DB120C94412073
:100220000C94C8320C9408130C946A0C0C9426039A
:100230000C949A2A0C94F4120C9412300C94F5023B
:100240000C941C130C94B5120C94372D0C947A0F4B
:100250000C94620F0C946D1F0C944B320C94700F25
:100260000C9434270C94FD320C943A0C0C945426C4
:100270000C94A9300C94E20B0C941F280C94972139
:100280000C948A120C945B0F0C947E0F0C94D22960
:100290000C94F21E0C943E1F0C94D1120C949912E3
:1002A0000C94452C0C94E2200C94E62F0C94C61E62
:1002B0000C9449040C941D230C9418030C94800E88
:1002C0000C945E0F0C94AD120C94DE1F0C94A312D0
:1002D0000C945D1E0C94EA120C94900F0C946C0F0D
:1002E0000C948A320C94660F0C94E10B0C94AB03C3
:1002F0000C94FE120C9450230C94CA020C94570FC9
:100300000C9449240C94820F0C94CB020C94880F0B
:1003100000407A10F35A00A0724E18090010A5D4BC
:10032000E80000E87648170000E40B54020000CA19
:100330009A3B000000E1F50500008096980000005F
:1003400040420F000000A0860100000010270000BE
:100350000000E803000000006400000000000A0044
:10036000000000000100000000002C76D888DC6747
:100370004F0823DFC1DFAE59E1B1B796E5E3E4539F
:10038000C63AE651997696E8E6C28426EB898C9BBC
:1003900062ED407C6FFCEFBC9C9F40F2BAA56FA55C
:1003A000F490055A2AF75C936B6CF9676DC11BFCDE
:1003B000E0E40D47FEF520E6B500D0ED902E0300F9
:1003C000943577050080841E080000204E0A000046
:1003D00000C80C333333330F986E12831141EF8D05
:1003E0002114893BE65516CFFEE6DB18D1844B3845
:1003F0001BF77C1D901DA4BBE424203284725E2276
:100400008100C9F124ECA1E53D2702000021002470
:100410000027002A002D00300033000101000004F5
:100420000107010A0100002200250028002B002EF0
:10043000003100340002010000050108010B010039
:10044000000A0B02090C0D0E08070304010000004E
:10045000000000000000000000000000000000009C
:100460000000000000000000000000121110000059
:10047000000000000000000000000000000000007C
:100480000000000000010210202008081020401089
:100490002040800201020108040201010204081048
:1004A0002040808040201008040201800402018066
:1004B000402010080402010804020101020408108F
:1004C000204080010204081020408000002000230A
:1004D00000260029002C002F00320000010000033C
:1004E00001060109010505050507050808080802B8
:1004F0000202020A0A0808040404040101010101BD
:100500000101010303030303030303040707070CAB
:100510000C0C0C0C0C0C0C02020202060606060661
:100520000606060B0B0B0B0B0B0B0B00973711245E
:100530001FBECFEFD1E2DEBFCDBF00E00CBF14E0A5
:10054000A0E0B2E0E4ECF0E800E00BBF02C00790EE
:100550000D92A83EB107D9F72AE0A8EEB4E001C099
:100560001D92A036B207E1F712E0C7E9D2E000E041
:1005700006C021970109802FFE010E94133DC63954
:10058000D10780E00807A9F70E9498140C946040F6
:100590000C9400000895CF92DF92EF92FF920F9398
:1005A0001F93CF93DF936C017A018B01C0E0D0E001
:1005B000CE15DF0581F0D8016D918D01D601ED9149
:1005C000FC910190F081E02DC6011995892B11F065
:1005D0002196EECF7E01C701DF91CF911F910F9140
:1005E000FF90EF90DF90CF900895FC01538D448DE4
:1005F000252F30E0842F90E0821B930B541710F0CE
:10060000CF96089501970895FC01918D828D9817DA
:1006100061F0828DDF01A80FB11D5D968C91928DE6
:100620009F5F9F73928F90E008958FEF9FEF0895E3
:10063000FC01918D828D981731F0828DE80FF11DAC
:10064000858D90E008958FEF9FEF0895FC01918DC7
:10065000228D892F90E0805C9F4F821B91098F73C0
:100660009927089580EB98E00E94260321E0892BCA
:1006700009F420E0822F0895FC01848DDF01A80F8A
:10068000B11DA35ABF4F2C91848D90E001968F73BA
:100690009927848FA689B7892C93A089B1898C91D9
:1006A000837080648C93938D848D981306C0028828
:1006B000F389E02D80818F7D80830895EF92FF92F2
:1006C0000F931F93CF93DF93EC0181E0888F9B8D75
:1006D0008C8D981305C0E889F989808185FD26C035
:1006E000F62E0B8D10E00F5F1F4F0F731127E02EBA
:1006F0008C8DE8120CC00FB607FCFACFE889F98997
:10070000808185FFF5CFCE010E943C03F1CF8B8D18
:10071000FE01E80FF11DE35AFF4FF0829FB7F894F6
:100720000B8FEA89FB89808180620AC09FB7F894A9
:10073000EE89FF896083E889F9898081837080640C
:1007400080839FBF81E090E0DF91CF911F910F9157
:10075000FF90EF900895CF93DF93EC01888D88236D
:10076000C9F0EA89FB89808185FD05C0A889B9891E
:100770008C9186FD0FC00FB607FCF5CF808185FFF9
:10078000F2CFA889B9898C9185FFEDCFCE010E9467
:100790003C03E7CFDF91CF9108950E94320381118E
:1007A00025C080E090E0892B41F080E090E0892B2B
:1007B00021F00E94000081111CC080E090E0892B94
:1007C00041F080E090E0892B21F00E94000081112F
:1007D00013C080E090E0892BA1F080E090E0892BAD
:1007E00081F00E94000081110AC008950E94E50B6B
:1007F000D8CF0E940000E1CF0E940000EACF0C9405
:10080000000008950E9440400F931F93CF93DF9301
:10081000EC0188819981009729F02A813B81261774
:10082000370788F48B016F5F7F4F0E945B3F009713
:1008300061F0998388831B830A832C813D81232B5C
:1008400011F4FC01108281E001C080E0DF91CF91C2
:100850001F910F91089580916E0990916F090C94EA
:10086000990C80916C0990916D090C94990C809170
:100870006A0990916B090C94990C80916809909188
:1008800069090C94990C80916609909167090C9400
:10089000990C80916409909165090C94990CEF92E0
:1008A000FF920F931F93CF93DF936115710511F49E
:1008B00080E01CC041155105C1F07B01EC018C8129
:1008C0009D818A01080F191FB801CE010E940404FE
:1008D000882371F3288139818C819D81B701820F32
:1008E000931F0E9459401D830C8381E0DF91CF91BB
:1008F0001F910F91FF90EF900895CF93DF93EC013C
:1009000088819981009711F00E94D23E1982188245
:100910001D821C821B821A82DF91CF910895CF9392
:10092000DF93EC016115710561F0FB01019000207E
:10093000E9F73197AF01461B570B0E944F04811115
:1009400003C0CE010E947D04CE01DF91CF910895B6
:10095000EF92FF920F931F93CF93DF93EC017B01F4
:100960008A01BA010E940404811104C0CE010E94D0
:100970007D0407C01D830C83B701888199810E9483
:100980005940CE01DF91CF911F910F91FF90EF90D1
:100990000895CF93DF93EC016115710559F0FB01C8
:1009A00001900020E9F73197AF01461B570B0E94D9
:1009B000A80402C00E947D04CE01DF91CF9108956A
:1009C000FC01118210821382128215821482611539
:1009D000710551F0FB0101900020E9F73197AF015B
:1009E000461B570B0C94A80408951F920F920FB644
:1009F0000F9211240BB60F922F933F934F935F9357
:100A00006F937F938F939F93AF93BF93EF93FF93D6
:100A1000E0910F02F09110021995FF91EF91BF91B3
:100A2000AF919F918F917F916F915F914F913F9186
:100A30002F910F900BBE0F900FBE0F901F90189527
:100A40001F920F920FB60F9211240BB60F922F9395
:100A50003F934F935F936F937F938F939F93AF9346
:100A6000BF93EF93FF93E0910D02F0910E02199561
:100A7000FF91EF91BF91AF919F918F917F916F9176
:100A80005F914F913F912F910F900BBE0F900FBE32
:100A90000F901F9018951F920F920FB60F9211246E
:100AA0000BB60F922F933F934F935F936F937F9368
:100AB0008F939F93AF93BF93EF93FF93E0910302C4
:100AC000F09104021995FF91EF91BF91AF919F9121
:100AD0008F917F916F915F914F913F912F910F90E7
:100AE0000BBE0F900FBE0F901F9018951F920F9284
:100AF0000FB60F9211240BB60F922F933F934F9383
:100B00005F936F937F938F939F93AF93BF93EF9375
:100B1000FF93E0910102F09102021995FF91EF918C
:100B2000BF91AF919F918F917F916F915F914F9105
:100B30003F912F910F900BBE0F900FBE0F901F9003
:100B400018951F920F920FB60F9211240BB60F92A9
:100B50002F933F934F935F936F937F938F939F93C5
:100B6000AF93BF93EF93FF93E0910B02F0910C02D0
:100B70001995FF91EF91BF91AF919F918F917F91C7
:100B80006F915F914F913F912F910F900BBE0F90FE
:100B90000FBE0F901F9018951F920F920FB60F92D5
:100BA00011240BB60F922F933F934F935F936F9344
:100BB0007F938F939F93AF93BF93EF93FF93E091B6
:100BC0000902F0910A021995FF91EF91BF91AF913F
:100BD0009F918F917F916F915F914F913F912F9155
:100BE0000F900BBE0F900FBE0F901F9018951F9285
:100BF0000F920FB60F9211240BB60F922F933F93C3
:100C00004F935F936F937F938F939F93AF93BF9314
:100C1000EF93FF93E0910702F09108021995FF917D
:100C2000EF91BF91AF919F918F917F916F915F9164
:100C30004F913F912F910F900BBE0F900FBE0F90D1
:100C40001F9018951F920F920FB60F9211240BB69A
:100C50000F922F933F934F935F936F937F938F9355
:100C60009F93AF93BF93EF93FF93E0910502F091B1
:100C700006021995FF91EF91BF91AF919F918F91CE
:100C80007F916F915F914F913F912F910F900BBE8C
:100C90000F900FBE0F901F9018951F920F920FB6D6
:100CA0000F9211240BB60F922F933F934F935F93A4
:100CB0006F937F938F939F93AF93BF93EF93FF9324
:100CC0008091EB049091EC04A091ED04B091EE04BE
:100CD000892B8A2B8B2B59F19091E804E091E90440
:100CE000F091EA048081892780838091EB049091C0
:100CF000EC04A091ED04B091EE04181619061A0642
:100D00001B060CF056C08091EB049091EC04A0916E
:100D1000ED04B091EE040197A109B1098093EB04B1
:100D20009093EC04A093ED04B093EE0442C0809144
:100D30000002EAE0F4E0E4919FEF90930002E230D9
:100D4000C9F050F4EE2399F0E13081F590916F00F5
:100D50009D7F90936F002AC0E43019F1E0F0E530F8
:100D600029F5909173009D7F909373001FC010929E
:100D70006E001CC0909170009D7F9093700091E078
:100D80009093B0009091B100987F94609093B100DF
:100D90001092B3000BC0909171009D7F90937100F1
:100DA00005C0909172009D7F9093720060E00E9458
:100DB000C811FF91EF91BF91AF919F918F917F915A
:100DC0006F915F914F913F912F910F900BBE0F90BC
:100DD0000FBE0F901F9018956115710579F0FB01FA
:100DE00001900020E9F73197AF01461B570BDC015A
:100DF000ED91FC910280F381E02D199480E090E068
:100E000008950C94EC061F920F920FB60F921124C6
:100E10000BB60F922F933F934F935F936F937F93F4
:100E20008F939F93AF93BF93EF93FF9380EB98E0E3
:100E30000E943C03FF91EF91BF91AF919F918F91E1
:100E40007F916F915F914F913F912F910F900BBECA
:100E50000F900FBE0F901F9018951F920F920FB614
:100E60000F9211240BB60F922F938F939F93EF93B2
:100E7000FF93E091C008F091C1088081E091C6081D
:100E8000F091C70882FD12C090818091C9088F5FE0
:100E90008F732091CA08821751F0E091C908F0E0E1
:100EA000E055F74F958F8093C90801C08081FF916D
:100EB000EF919F918F912F910F900BBE0F900FBECE
:100EC0000F901F9018952F923F924F925F926F92C2
:100ED0007F928F929F92AF92BF92CF92DF92EF92CA
:100EE000FF920F931F93CF93DF93CDB7DEB72F976A
:100EF0000FB6F894DEBF0FBECDBF9F878E870E94CE
:100F00004D136D837E838F839887EE85FF8582A145
:100F100093A1A4A1B5A14D815E816F817885481B05
:100F2000590B6A0B7B0B86A597A5A0A9B1A94817F9
:100F300059076A077B0708F40EC1048CF58DE02D74
:100F400080819181A281B38189839A83AB83BC83A1
:100F5000AE85BF859096ED91FC91919729813A815C
:100F60004B815C8160817181828193810E941B3DF4
:100F70004B015C01EE85FF8522A533A544A555A54F
:100F800069817A818B819C810E941B3D6B017C0170
:100F9000AE85BF8550962D913D914D915C915397B3
:100FA000C501B4010E94F23BEE85FF8526A137A161
:100FB00040A551A50E941C3D2B013C01AE85BF857B
:100FC00096966D937D938D939C939997DB96BC91A8
:100FD000B987B11118C0EE85FF8524853585468512
:100FE0005785C701B6010E94F23B9B01AC01C301CA
:100FF000B2010E941B3DAE85BF8596966D937D9391
:101000008D939C939997EE85FF8546A057A060A489
:1010100071A416A907A930AC21AC212F302F432D84
:10102000522DC301B2010E94303E18162CF4812FBC
:10103000902FA32DB22D18C0AE85BF85D2968D916D
:101040009D910D90BC91A02D8A879B87AC87BD8711
:101050009C01AD01C301B2010E948C3B87FF0AC015
:101060008A859B85AC85BD85EE85FF8586A397A384
:10107000A0A7B1A7F985FF2379F0AE85BF851C969F
:101080002D913D914D915C911F97C501B4010E9436
:10109000F23B4B015C0103C0812C912C5401EE8585
:1010A000FF852489358946895789C701B6010E9481
:1010B000F23B9B01AC01AE85BF8596966D917D910B
:1010C0008D919C9199970E941B3DA50194010E94CE
:1010D0001C3D6B017C019B01AC01612F702F832DA6
:1010E000922D0E948C3B87FD14C0EE85FF8512A9CE
:1010F00003A934A825A8212F302F432D522DB60146
:10110000C7010E948C3B87FD04C01C2D0D2D3E2C79
:101110002F2CAE85BF855E96ED91FC915F97812F58
:10112000902FA32DB22D80839183A283B3838981D5
:101130009A81AB81BC81EE85FF8582A793A7A4A786
:10114000B5A78D819E81AF81B88582A393A3A4A307
:10115000B5A381E001C080E02F960FB6F894DEBF02
:101160000FBECDBFDF91CF911F910F91FF90EF90F8
:10117000DF90CF90BF90AF909F908F907F906F90B7
:101180005F904F903F902F9008958F929F92AF92D3
:10119000BF92CF92DF92EF92FF92CF93DF93EC0159
:1011A000EE8DFF8DC080D180E280F380CEA2DFA2E1
:1011B000E8A6F9A6EC8DFD8D80819181A281B38195
:1011C0008AA79BA7ACA7BDA78EA89FA8A8ACB9ACBF
:1011D000A5019401C701B6010E94303E181664F0C3
:1011E0008AA89BA8ACA8BDA8A5019401C701B60117
:1011F0000E948C3B87FF04C08EA29FA2A8A6B9A61E
:10120000DF91CF91FF90EF90DF90CF90BF90AF90A4
:101210009F908F9008950E944D136093A40870933F
:10122000A5088093A6089093A70880E00895CF9220
:10123000DF92EF92FF920F931F9361157105810565
:10124000910541F41F910F91FF90EF90DF90CF90A7
:101250000C940B096B017C010E944D130091A408B2
:101260001091A5082091A6083091A708DC01CB01B8
:10127000801B910BA20BB30B21E0C816D906EA061E
:10128000FB0608F020E0822F1F910F91FF90EF9056
:10129000DF90CF9008958F929F92AF92BF92EF927E
:1012A000FF920F931F93CF93DF93C82FD0E08E014F
:1012B000000F111F065C174FF801208131812115A5
:1012C000310521F021303105A1F16FC00E949F113D
:1012D000009719F00197A1F16BC00E944D139E0178
:1012E000220F331F220F331FA9014A59584F7A0189
:1012F000FA0180809180A280B380DC01CB01881943
:101300009909AA09BB090697A105B10508F450C0BF
:1013100081E090E0F80191838083C95AD94F888396
:101320000E944D13F701608371838283938381E070
:1013300040C00E949F11009719F0019771F038C0CA
:101340000E944D13CC0FDD1FCC0FDD1FCA59D84FA3
:10135000688379838A839B832BC00E944D139E01EF
:10136000220F331F220F331FA9014A59584F7A0108
:10137000FA0180809180A280B380DC01CB018819C2
:101380009909AA09BB090697A105B10588F0F801DA
:1013900011821082C95AD94F18820E944D13F70149
:1013A000608371838283938303C0F801118210826A
:1013B00080E0DF91CF911F910F91FF90EF90BF9050
:1013C000AF909F908F90089561E08DE499E00E9426
:1013D000780E8BE39FE10197F1F70895CF92DF92AA
:1013E000EF92FF920F931F93CF93DF93CDB7DEB7AA
:1013F00028970FB6F894DEBF0FBECDBF8A01C0900C
:101400001702D0901802E0901902F0901A02CD82D3
:10141000DE82EF82F886C0901B02D0901C02E09022
:101420001D02F0901E02C982DA82EB82FC8290914A
:101430005409691710F06FEF690F40915509262F75
:1014400030E0FE01E20FF31F403121F4943011F43B
:10145000618101C06581680F60688DE499E00E9438
:10146000780EB8018DE499E028960FB6F894DEBFA7
:101470000FBECDBFDF91CF911F910F91FF90EF90E5
:10148000DF90CF900C940107AF92BF92CF92DF9282
:10149000EF920F931F93CF935B016A01C22FAC01B0
:1014A00060E080E00E94EE09A50160E088E00E9413
:1014B000EE09A60161E08C2F0E94EE09A80161E00F
:1014C0008E2DCF911F910F91EF90DF90CF90BF9015
:1014D000AF900C94EE0920E042E060E18DE499E0E9
:1014E0000E94800E62E08DE499E00E94780E8BE30A
:1014F0009FE10197F1F70E94E40947E053E060E0C3
:1015000080E00E94EE0948E153E061E080E00E9443
:10151000EE091092B7061092B60662E08BE20E94C6
:10152000F71162E08DE20E94F71162E08FE20E9403
:10153000F71162E081E30E94F71162E083E30E9409
:10154000F7110E940B09E1EAF6E082E0818384EF63
:1015500091E0968785878EE090E0908B878782E088
:1015600090E0928B818B8EE0848389E182838AE094
:1015700083838EE190E0928781878CEF838B84E177
:1015800090E09087878308950F931F93EFEEF4E028
:1015900080E090E040E050E0BA01048115812681AE
:1015A0003781400F511F621F731F41362AEE5207C9
:1015B0006105710530F401963C968E31910569F70D
:1015C00080E01F910F9108958F929F92AF92BF92EA
:1015D000CF92DF92EF92FF9281E090E09093080A21
:1015E0008093070A2091AD093091AE094091AF096F
:1015F0005091B00960E070E68AE697E40E94883D69
:101600006B017C018090B9099090BA09A090BB0948
:10161000B090BC09A50194010E94F23B6093E709D8
:101620007093E8098093E9099093EA09A501940170
:1016300060E070E080E89FE30E941B3DA7019601F7
:101640000E94F23B6093EB097093EC098093ED09E3
:101650009093EE090E944D130E94913B2091E7095F
:101660003091E8094091E9095091EA090E941C3D36
:101670000E94013E6093FB097093FC098093FD0971
:101680009093FE0920E030E04AE754E46091B50908
:101690007091B6098091B7099091B8090E94F23B08
:1016A00023E63FEB4FE356E40E94883D20E030E024
:1016B00040E05DE30E94F23B20E030E044E856E485
:1016C0000E94F23B2BED3FE049EC50E40E94883D44
:1016D0006B017C0120E030E0A9010E94303E20E057
:1016E00030E040E05FE387FD05C0C701B6010E941E
:1016F0001C3D04C0C701B6010E941B3D0E94FA3D7B
:101700006093E3097093E4098093E5099093E609F7
:10171000FF90EF90DF90CF90BF90AF909F908F9011
:10172000089580915A0A823030F4F8948FE49AE058
:101730000E94990C01C0F8948091560A9091570A22
:10174000A091580AB091590A78948093DB0990933C
:10175000DC09A093DD09B093DE09F8941092560AD3
:101760001092570A1092580A1092590A7894409190
:10177000DF095091E0096091E1097091E2098091DF
:10178000DB099091DC09A091DD09B091DE09840F9D
:10179000951FA61FB71F8093DF099093E009A093C0
:1017A000E109B093E2090895DC01ED91FC91068412
:1017B000F785E02D41E0199581E090E008950895C6
:1017C0000895089580E090E00895CF93C1E080EB04
:1017D00098E00E942603892B09F44AC080EB98E028
:1017E0000E9404038C3469F02CF48B3299F08D3212
:1017F000E9F0EDCF8C3629F0853749F0853539F79A
:1018000006C08091BD068C278093BD06E0CFC093B3
:10181000B806DDCF8091B9069091BA06A091BB06BB
:10182000B091BC06C296A11DB11D10C08091B90631
:101830009091BA06A091BB06B091BC068333910586
:10184000A105B10560F0C297A109B1098093B9065D
:101850009093BA06A093BB06B093BC06B8CF109283
:10186000B9061092BA061092BB061092BC06AFCF12
:10187000CF910895FC0186898F3F79F021853285CB
:10188000662319F0232B31F403C02130310511F404
:1018900061E001C060E00C94C8110895EF92FF92DE
:1018A0001F93CF93DF93EC01162F7A0161E0812F14
:1018B0000E94F7111E8BFA86E986E881F98104847B
:1018C000F585E02D60E0CE01DF91CF911F91FF9073
:1018D000EF9019940F931F93CF93DF93EC01162F82
:1018E000042F61E0413009F060E08B850E94C8114F
:1018F0008C858F3F19F060E00E94C811023081F0A2
:101900008C8184FF02C048E00CC0612F70E084E04D
:10191000759567958A95E1F744E0CE010E9413140E
:1019200044E0612FCE01DF91CF911F910F910C9474
:101930001314DC01ED91FD918081ED91FD91908179
:10194000ED91FD916C9163708E2309F064609F238B
:1019500009F06860E6EBFCE0E60FF11D6595659522
:101960006D936D917D918D919D91099423C01AC0C5
:1019700012C016C010C01EC009C014C013C006C0DB
:1019800019C009C00DC007C00DC014C0625070401E
:10199000804090400BC0615070408040904006C035
:1019A0006E5F01C06F5F7F4F8F4F9F4F9E938E93EF
:1019B0007E936E930895CF93DF93CDB7DEB72C97C8
:1019C0000FB6F894DEBF0FBECDBF80918D06882381
:1019D00031F0813009F083C162ED74E002C065E945
:1019E00074E080EB98E00E9401076091A006CE01B0
:1019F00007960E9472116EE974E0CE0101960E9472
:101A0000E004BE01695F7F4FCE0101960E9407117D
:101A10006CE974E00E948F040E94B410CE0101961C
:101A20000E94AF10CE0107960E94AF106091900601
:101A3000CE0107960E94721162EA74E0CE0101960F
:101A40000E94E004BE01695F7F4FCE0101960E94B3
:101A500007116CE974E00E948F040E94B410CE015B
:101A600001960E94AF10CE0107960E94AF106091C0
:101A70009106CE0107960E94721166EA74E0CE01CB
:101A800001960E94E004BE01695F7F4FCE0101967E
:101A90000E9407116CE974E00E948F040E94B41048
:101AA000CE0101960E94AF10CE0107960E94AF10A2
:101AB00060919206CE0107960E9472116BEA74E063
:101AC000CE0101960E94E004BE01695F7F4FCE0106
:101AD00001960E9407116CE974E00E948F040E9435
:101AE000B410CE0101960E94AF10CE0107960E945D
:101AF000AF106091930670919406CE0107960E94F4
:101B00001A1160EB74E0CE0101960E94E004BE0160
:101B1000695F7F4FCE0101960E9407116CE974E066
:101B20000E948F040E94B410CE0101960E94AF1053
:101B3000CE0107960E94AF106091950670919606AF
:101B4000CE0107960E941A1164EB74E0CE01019653
:101B50000E94E004BE01695F7F4FCE0101960E94A2
:101B600007116CE974E00E948F040E94B410CE014A
:101B700001960E94AF10CE0107960E94AF106091AF
:101B8000970670919806CE0107960E941A1168EB8D
:101B900074E0CE0101960E94E004BE01695F7F4FB0
:101BA000CE0101960E9407116CE974E00E948F0437
:101BB0000E94B410CE0101960E94AF10CE0107968C
:101BC0000E94AF106091990670919A06CE01079617
:101BD0000E9446116CEB74E0CE0101960E94E00475
:101BE000BE01695F7F4FCE0101960E9407116CE92B
:101BF00074E00E948F040E94B410CE0101960E94EE
:101C0000AF10CE0107960E94AF1060919B067091B5
:101C10009C06CE0107960E94461160EC74E0CE014E
:101C200001960E94E004BE01695F7F4FCE010196DC
:101C30000E9407116CE974E00E948F040E94B410A6
:101C4000CE0101960E94AF10CE0107960E94AF1000
:101C500060919D0670919E06CE0107960E944611E6
:101C600065EC74E0CE0101960E94E004BE01695F5C
:101C70007F4FCE0101960E9407116CE974E00E942B
:101C80008F040E94B410CE0101960E94AF10CE01C5
:101C900007960E94AF1060919F06062E000C770BEE
:101CA000CE0107960E941A116AEC74E0CE010196EB
:101CB0000E94E004BE01695F7F4FCE0101960E9441
:101CC00007116FEC74E00E948F040E94B410CE01E3
:101CD00001960E94AF10CE0107960E94AF102C967D
:101CE0000FB6F894DEBF0FBECDBFDF91CF91089540
:101CF000DC01ED91FC910684F785E02D40E019941C
:101D00008F929F92AF92BF92CF92DF92EF92FF920B
:101D10000F931F93CF93DF93EC01423018F08C8127
:101D200088608C834F836887222329F0413019F41F
:101D30008C8184608C830E9428136B017C0184E673
:101D4000882E912CA12CB12C0E942813DC01CB01F0
:101D50008C199D09AE09BF09883E9340A105B105C4
:101D600098F321E0821A9108A108B10888EEC80E04
:101D700083E0D81EE11CF11C81149104A104B1047C
:101D800019F76C8164FD31C0E881F9810684F7851B
:101D9000E02D42E063E0CE0119958BE496E40197D3
:101DA000F1F7E881F9810684F785E02D42E063E0F0
:101DB000CE01199503E512E0C8010197F1F7E8811A
:101DC000F9810684F785E02D42E063E0CE011995A4
:101DD000C8010197F1F7E881F9810684F785E02DC4
:101DE00042E062E0CE01199517C06062CE010E9408
:101DF000780E8BE496E40197F1F76C816062CE0176
:101E00000E94780E03E512E0C8010197F1F76C819A
:101E10006062CE010E94780EC8010197F1F76C81D3
:101E20006062CE010E94780E8BEE90E00197F1F790
:101E300084E08D836CE0CE010E94780E61E0CE01DB
:101E40000E94780E8BE39FE10197F1F782E08E8389
:101E500066E0CE010E94780EE881F9810484F58560
:101E6000E02D6FEFCE01DF91CF911F910F91FF9089
:101E7000EF90DF90CF90BF90AF909F908F9019948C
:101E800090E0FC013197E231F10508F04EC088275F
:101E9000E056FF4F8F4F0C94133D809180008F7759
:101EA00003C0809180008F7D809380000895809191
:101EB0008000877FF9CF84B58F7702C084B58F7D8E
:101EC00084BD08958091B0008F7703C08091B000E9
:101ED0008F7D8093B0000895809190008F7707C028
:101EE000809190008F7D03C080919000877F8093C8
:101EF000900008958091A0008F7707C08091A00086
:101F00008F7D03C08091A000877F8093A0000895FB
:101F1000809120018F7707C0809120018F7D03C0C1
:101F200080912001877F8093200108952F923F9216
:101F30004F925F926F927F928F929F92AF92BF92D9
:101F4000CF92DF92EF92FF920F931F93CF93DF9385
:101F5000CDB7DEB7A4970FB6F894DEBF0FBECDBFE6
:101F60004B015C019B01AC010E94353E882319F0B6
:101F70006BED74E01AC075016401E894F7F82FEF77
:101F80003FEF4FE75FE7C701B6010E94353E811181
:101F900012C02FEF3FEF4FE75FE7C701B6010E9486
:101FA0008C3B181644F46FED74E080EB98E00E94CF
:101FB000EC068C01B3C02FEF3FEF4FE75FE4C501A4
:101FC000B4010E94303E18161CF463EE74E0EDCFAD
:101FD0002FEF3FEF4FE75FECC501B4010E948C3B50
:101FE00087FDF3CF20E030E0A901C501B4010E94D4
:101FF0008C3B87FF0BC06DE280EB98E00E945E0394
:102000006C01B7FAB094B7F8B09402C0C12CD12CCF
:102010002AE037ED43EA5BE3C501B4010E941C3DB1
:102020004B015C010E94013E2B013C010E94913B4F
:102030009B01AC01C501B4010E941B3D4B015C0139
:1020400019A27E0181E2E80EF11CEAA2FBA2C30103
:10205000B2012AE030E040E050E00E94E23C290179
:102060003A01605DF70162937F01232B242B252B1E
:1020700071F7BF0180EB98E00E94EC068C016EE2E4
:1020800080EB98E00E945E03800F911F8C010C0D85
:102090001D1D83E0F82E9AE0292E312C412C512C65
:1020A000FA94FF20D9F120E030E040E251E4C5018C
:1020B000B4010E94F23B4B015C010E94013E9B0176
:1020C00040E050E019A26AA07BA06CA3C32ED42EDE
:1020D000E52ECA01B901A20191010E94E23C605DB6
:1020E000F30162933F01211531054105510589F73F
:1020F000BF0180EB98E00E94EC06080F191F6CA14D
:102100007C2D8D2D9E2D0E94913B9B01AC01C50124
:10211000B4010E941B3D4B015C01C2CF60EC72E038
:1021200080EB98E00E94EC06800F911FA4960FB6FA
:10213000F894DEBF0FBECDBFDF91CF911F910F91FD
:10214000FF90EF90DF90CF90BF90AF909F908F90D7
:102150007F906F905F904F903F902F900895FC017B
:10216000808191810C94D23EFC0144815581608133
:10217000718180EB98E00C94CB02FB01DC0111969D
:102180001C921E9213961C921E92129715961C92E8
:102190001E9214978617970749F060817181611527
:1021A000710521F0448155810C94A8040895EF92A3
:1021B000FF920F931F93CF93DF93CDB7DEB7A19715
:1021C0000FB6F894DEBF0FBECDBF7C01CB01BA01C4
:1021D000F7011182108213821282158214828E01FD
:1021E0000F5F1F4F22E044E00E94E838BC01C701A6
:1021F0000E94C904A1960FB6F894DEBF0FBECDBFF2
:10220000DF91CF911F910F91FF90EF900895CF93A1
:10221000DF93EC01FB0144815581608171810E9453
:102220004F04811103C0CE010E947D04CE01DF91D5
:10223000CF9108950F931F93CF93DF93CDB7DEB760
:1022400062970FB6F894DEBF0FBECDBF8C01CB01F5
:10225000F8011182108213821282158214824AE0E0
:10226000BE016F5F7F4F0E940839BE016F5F7F4FD5
:10227000C8010E94C90462960FB6F894DEBF0FBE73
:10228000CDBFDF91CF911F910F9108950F931F93B1
:10229000CF93DF93CDB7DEB761970FB6F894DEBF6B
:1022A0000FBECDBF8C01CB01F801118210821382C9
:1022B0001282158214824AE0BE016F5F7F4F0E9436
:1022C0001339BE016F5F7F4FC8010E94C904619638
:1022D0000FB6F894DEBF0FBECDBFDF91CF911F9137
:1022E0000F9108950F931F93CF93DF93CDB7DEB770
:1022F00029970FB6F894DEBF0FBECDBF8C01862F95
:10230000F8011182108213821282158214824AE02F
:10231000BE016F5F7F4F90E00E941339BE016F5F77
:102320007F4FC8010E94C90429960FB6F894DEBFFA
:102330000FBECDBFDF91CF911F910F910895CF9325
:10234000DF93282F30E0F901E15CFB4F8491F90124
:10235000EB57FB4FD491F901EB51FB4FC491CC23C8
:1023600091F081110E94400FEC2FF0E0EE0FFF1F63
:10237000E553FB4FA591B491EC91ED2381E090E002
:1023800021F480E002C080E090E0DF91CF910895D9
:102390001F93CF93DF93282F30E0F901E15CFB4FCF
:1023A0008491F901EB57FB4FD491F901EB51FB4FAD
:1023B000C491CC23C1F0162F81110E94400FEC2F45
:1023C000F0E0EE0FFF1FEB5DFB4FA591B4919FB7BF
:1023D000F894111104C08C91D095D82302C0EC91CF
:1023E000DE2BDC939FBFDF91CF911F910895CF9398
:1023F000DF9390E0FC01EB57FB4F2491FC01EB5184
:10240000FB4F8491882361F190E0880F991FFC01B4
:10241000E55FFB4FC591D491FC01EB5DFB4FA591AE
:10242000B491611109C09FB7F894888120958223E7
:102430008883EC912E230BC0623061F49FB7F8942F
:102440008881322F309583238883EC912E2B2C9317
:102450009FBF06C08FB7F894E8812E2B28838FBFCB
:10246000DF91CF910895CF92DF92EF92FF92CF93B9
:10247000DF936B017C0120E030E0A9010E948C3BDE
:1024800087FF06C0F7FAF094F7F8F09460E001C017
:1024900061E084E00E94C81124E13EEA47EA5FE37C
:1024A000C701B6010E94883D20E030E04FE753E4C9
:1024B0000E94F23B0E94FA3D6B017C01EB0161E05E
:1024C00085E00E94F711209711F460E004C0CF3F2F
:1024D000D10551F461E085E0DF91CF91FF90EF905D
:1024E000DF90CF900C94C811E4E4F4E0E4918E2FD7
:1024F00090E0FC013197E231F10508F09DC088279A
:10250000EE54FF4F8F4F0C94133D84B5806884BD0B
:10251000C7BC97C084B5806284BDC8BC92C080919E
:102520008000806880938000D0928900C0928800EB
:1025300088C080918000806280938000D0928B0060
:10254000C0928A007EC08091800088608093800065
:10255000D0928D00C0928C0074C08091B0008068D1
:102560008093B000C092B3006CC08091B0008062D4
:102570008093B000C092B40064C0809190008068E5
:1025800080939000D0929900C09298005AC0809198
:102590009000806280939000D0929B00C0929A003D
:1025A00050C080919000886080939000D0929D00F0
:1025B000C0929C0046C08091A00080688093A000DB
:1025C0008091A0008F7B8093A000D092A900C09240
:1025D000A80037C08091A00080628093A000D092B4
:1025E000AB00C092AA002DC08091A00088608093AB
:1025F000A000D092AD00C092AC0023C08091200119
:10260000806880932001D0922901C092280119C0CE
:1026100080912001806280932001D0922B01C09292
:102620002A010FC080912001886080932001D09200
:102630002D01C0922C0105C0C038D1050CF04ACF45
:1026400044CFDF91CF91FF90EF90DF90CF9008952E
:102650003FB7F8948091AC089091AD08A091AE0876
:10266000B091AF0826B5A89B05C02F3F19F0019681
:10267000A11DB11D3FBFBA2FA92F982F8827820F08
:10268000911DA11DB11DBC01CD0142E0660F771F58
:10269000881F991F4A95D1F708952FB7F894609134
:1026A000A8087091A9088091AA089091AB082FBF43
:1026B00008954F925F926F927F928F929F92AF9206
:1026C000BF92CF92DF92EF92FF920F931F93CF931F
:1026D000DF93CDB7DEB74C01DC015F965C934E9380
:1026E0005E975D967C936E935C9791963C932E9348
:1026F0009097DA961C92FC0112AA13AA14AA15AAA2
:1027000080E090E0AFE7B3E486AB97ABA0AFB1AFAA
:1027100084E690E0A0E0B0E086A797A7A0ABB1ABBD
:10272000118E108E20E030E0A901C801B7010E948F
:102730008C3B87FD56C020E030E0A901C601B50101
:102740000E948C3B87FD4DC020E030E0A9016C89E0
:102750007D898E899F890E948C3B87FD42C081E0E4
:1027600090E0D4015B969C938E935A97DB968C9362
:10277000DB97F401E082F182028313831496AD9219
:10278000BD92CD92DC9217978C899D89AE89BF89C5
:1027900080879187A287B387D4011C96ED92FD9222
:1027A0000D931C931F972DEC3CEC4CEC5DE3C601A4
:1027B000B5010E94F23BF401608B718B828B938B8D
:1027C0002DEC3CEC4CEC5DE36C897D898E899F8916
:1027D0000E94883DD40154966D937D938D939C9374
:1027E00057970E944D13F401C6A4D7A4E0A8F1A8FE
:1027F000DC01CB018C199D09AE09BF0982A393A30B
:10280000A4A3B5A3DF91CF911F910F91FF90EF90FB
:10281000DF90CF90BF90AF909F908F907F906F9000
:102820005F904F900895AF92BF92CF92DF92EF9258
:10283000FF920F931F93CF93DF938C015C018EE087
:10284000A80EB11CC42ED12CC0E0D0E0E62EF12C95
:10285000CC15DD0579F0B7010C2E02C07595679592
:102860000A94E2F76170F50181915F010E94C8113D
:102870002196EECF61E0F80185850E94C81160E0E5
:10288000F8018585DF91CF911F910F91FF90EF9017
:10289000DF90CF90BF90AF900C94C8111F920F9211
:1028A0000FB60F9211242F933F938F939F93AF9363
:1028B000BF938091A8089091A908A091AA08B0910F
:1028C000AB0830915B0A23E0230F2D3720F40196EB
:1028D000A11DB11D05C026E8230F0296A11DB11D43
:1028E00020935B0A8093A8089093A908A093AA0854
:1028F000B093AB088091AC089091AD08A091AE0860
:10290000B091AF080196A11DB11D8093AC089093C2
:10291000AD08A093AE08B093AF08BF91AF919F915F
:102920008F913F912F910F900FBE0F901F90189590
:10293000CF93DF93CDB7DEB7A4970FB6F894DEBF81
:102940000FBECDBF789484B5826084BD84B58160AC
:1029500084BD85B5826085BD85B5816085BD80916A
:102960006E00816080936E001092810080918100E2
:1029700082608093810080918100816080938100DA
:10298000809180008160809380008091B10084609C
:102990008093B1008091B00081608093B0008091FD
:1029A000910082608093910080919100816080937A
:1029B0009100809190008160809390008091A100AF
:1029C00082608093A1008091A10081608093A1002A
:1029D0008091A00081608093A0008091210182609D
:1029E0008093210180912101816080932101809158
:1029F000200181608093200180917A00846080931F
:102A00007A0080917A00826080937A0080917A00C7
:102A1000816080937A0080917A00806880937A0048
:102A20001092C1000E946B0A1092E1061092E0061B
:102A30001092DC061092DD061092DE061092DF0680
:102A40001092DB061092AD091092AE091092AF09F8
:102A50001092B0091092B1091092B2091092B30904
:102A60001092B4091092B9091092BA091092BB09D8
:102A70001092BC091092BD091092BE091092BF09B4
:102A80001092C0091092C1091092C3091092C40992
:102A90001092C5091092C6091092C7091092C80970
:102AA0001092C9091092CA091092CB091092CC0950
:102AB0001092CD091092CE091092CF091092D00930
:102AC0001092D1091092D2091092D3091092D40910
:102AD0001092D5091092D6091092D7091092D809F0
:102AE0001092D9091092DA091092DB091092DC09D0
:102AF0001092DD091092DE091092DF091092E009B0
:102B00001092E1091092E2091092E3091092E4098F
:102B10001092E5091092E6091092E7091092E8096F
:102B20001092E9091092EA091092EB091092EC094F
:102B30001092ED091092EE091092EF091092F0092F
:102B40001092F1091092F2091092F3091092F4090F
:102B50001092F5091092F6091092F7091092F809EF
:102B60001092F9091092FA091092FB091092FC09CF
:102B70001092FD091092FE091092FF091092000AAE
:102B80001092010A1092020A1092030A1092040A8B
:102B90001092050A1092060A1092080A1092070A6B
:102BA0001092090A10920A0A80E090E0A0E0B0E4D6
:102BB00080930B0A90930C0AA0930D0AB0930E0A0F
:102BC00010920F0A1092100A1092110A1092120A13
:102BD00080914D0A811104C083E19AE00E94C508EA
:102BE00081E080934D0A4FE8C42E43E5D42E44EA99
:102BF000E42E4FEBF42EC092450AD092460AE092A2
:102C0000470AF092480A5FE8452E53E5552E54EAEC
:102C1000652E5FE3752E4092490A50924A0A6092EF
:102C20004B0A70924C0A0091310A1091320AD80175
:102C30008D909D90AD90BC90A3019201C501B4010F
:102C40000E94303E181634F4F801408251826282AC
:102C5000738210C02FE833E544EA5FEBC501B4018D
:102C60000E948C3B87FF06C0D801CD92DD92ED9289
:102C7000FC9213978090390A90903A0AA0903B0AF0
:102C8000B0903C0AC090490AD0904A0AE0904B0AA2
:102C9000F0904C0AA7019601C501B4010E94303E94
:102CA000181684F0C090450AD090460AE090470A72
:102CB000F090480AA7019601C501B4010E948C3B1F
:102CC00087FF08C0C092390AD0923A0AE0923B0AC4
:102CD000F0923C0A6091410A7091420A8091430A45
:102CE0009091440A0E94913B9B01AC0160E070E02E
:102CF00088E492E40E94883D6B017C019B01AC0159
:102D00006091230A7091240A8091250A9091260AE5
:102D10000E94F23B6093230A7093240A8093250A51
:102D20009093260AA70196016091270A7091280ABC
:102D30008091290A90912A0A0E94883D6093270A6F
:102D40007093280A8093290A90932A0A82E390E0DC
:102D5000A0E0B0E08093410A9093420AA093430A16
:102D6000B093440A8091AA09811104C080E799E0D8
:102D70000E94C50881E08093AA09C12CD12C20EAC9
:102D8000E22E20E4F22EC092A209D092A309E09292
:102D9000A409F092A509412C512C3CE0632E32E4A9
:102DA000732E4092A6095092A7096092A8097092CA
:102DB000A90900918E0910918F09F80180809180F6
:102DC000A280B380A3019201C501B4010E94303EEC
:102DD00018163CF4D8014D925D926D927C92139737
:102DE0000FC020E030E040EA50E4C501B4010E9489
:102DF0008C3B87FF05C0F801C082D182E282F3825A
:102E00008090960990909709A0909809B0909909A0
:102E1000C090A609D090A709E090A809F090A90950
:102E2000A7019601C501B4010E94303E181684F036
:102E3000C090A209D090A309E090A409F090A50940
:102E4000A7019601C501B4010E948C3B87FF08C011
:102E5000C0929609D0929709E0929809F092990948
:102E600060919E0970919F098091A0099091A1099C
:102E70000E94913B9B01AC0160E070E088E492E429
:102E80000E94883D6B017C019B01AC01609180092F
:102E90007091810980918209909183090E94F23B8F
:102EA00060938009709381098093820990938309CC
:102EB000A701960160918409709185098091860926
:102EC000909187090E94883D6093840970938509D9
:102ED000809386099093870982E390E0A0E0B0E0B8
:102EE00080939E0990939F09A093A009B093A10994
:102EF00061E085E00E94F71161E084E00E94F71133
:102F000060E086E00E94F711809100028B3021F092
:102F10008F3F09F0A0C104C0EAE0F4E01491E3C0DF
:102F20008BE080930002EAE0F4E0E491EF3F09F4E3
:102F300092C1E23009F46CC040F5EE2309F44FC0B1
:102F4000E13009F0CFC01092800010928100809192
:102F500081008860809381008091810081608093EE
:102F60008100E0EFF4E0E491F0E0EE0FFF1FEB5D95
:102F7000FB4F85919491E0E9F4E0E491E093C10680
:102F800061E08BE00E94F711BDC0E43009F488C015
:102F900008F464C0E53009F0A5C010922001109239
:102FA000210180912101886080932101809121017C
:102FB000816080932101E0EFF4E0E491F0E0EE0F16
:102FC000FF1FEB5DFB4F85919491E0E9F4E0E49104
:102FD000E093BE0661E08BE00E94F711C5C014BC0F
:102FE00015BC84B5826084BD85B5816085BDE0EF88
:102FF000F4E0E491F0E0EE0FFF1FEB5DFB4F8591F5
:103000009491E0E9F4E0E491E093C20610E06DC031
:103010001092B0001092B1008091B0008260809355
:10302000B0008091B10081608093B100E0EFF4E0E6
:10303000E491F0E0EE0FFF1FEB5DFB4F8591949163
:103040009093EA048093E904E0E9F4E0E491E093EA
:10305000E80461E08BE00E94F7119BC010929000A1
:1030600010929100809191008860809391008091EE
:103070009100816080939100E0EFF4E0E491F0E052
:10308000EE0FFF1FEB5DFB4F85919491E0E9F4E0BB
:10309000E491E093C00661E08BE00E94F71152C01A
:1030A0001092A0001092A1008091A10088608093EE
:1030B000A1008091A10081608093A100E0EFF4E085
:1030C000E491F0E0EE0FFF1FEB5DFB4F85919491D3
:1030D000E0E9F4E0E491E093BF0661E08BE00E9458
:1030E000F71139C01E2F17FDB6C061E08BE00E94BA
:1030F000F711112311F40C94A134123009F449C0D2
:103100001130F1F480918100887F8160809381008B
:103110008FE79EE3909389008093880084EF91E08D
:10312000A0E0B0E08093CF069093D006A093D106A4
:10313000B093D20680916F00826080936F008BC045
:10314000133039F480919100887F816080939100E1
:103150003BC0143039F48091A100887F8160809356
:10316000A1004AC0153039F480912101887F816027
:103170008093210159C0133039F12CF4123009F039
:103180006AC08FE70DC01430B9F1153009F44CC096
:1031900062C08091B100887F84608093B10089EF24
:1031A0008093B30084EF91E0A0E0B0E08093EB0463
:1031B0009093EC04A093ED04B093EE048091700022
:1031C00082608093700047C08FE79EE390939900E0
:1031D0008093980084EF91E0A0E0B0E08093CB066C
:1031E0009093CC06A093CD06B093CE06809171004B
:1031F0008260809371002FC08FE79EE39093A900B7
:103200008093A80084EF91E0A0E0B0E08093C7062F
:103210009093C806A093C906B093CA068091720025
:1032200082608093720017C08FE79EE3909329011C
:103230008093280184EF91E0A0E0B0E08093C30682
:103240009093C406A093C506B093C6068091730000
:10325000826080937300E091C008F091C10882E021
:103260008083E091BC08F091BD081082E091BE0817
:10327000F091BF0880E180831092C808E091C408F3
:10328000F091C50886E08083E091C208F091C30800
:10329000808180618083E091C208F091C3088081C1
:1032A00088608083E091C208F091C30880818068C3
:1032B0008083E091C208F091C30880818F7D808374
:1032C0001092BD061092B80684E690E0A0E0B0E04F
:1032D0008093B9069093BA06A093BB06B093BC0640
:1032E00061E08DE00E94F71122242394312C10918B
:1032F000220724E0129FF0011124EE51F94F608063
:10330000718082809380B301C4010E94FA3D072E30
:10331000000C880B990B0E94933B609340077093BD
:10332000410780934207909343078091090A8823BD
:1033300009F440C01092090A60912707709128078C
:103340008091290790912A070E94FA3D1092270741
:10335000109228071092290710922A07072E000CB6
:10336000880B990B0E94933B609344077093450729
:10337000809346079093470780912B078823D1F0CD
:1033800010922B0760912C0770912D0780912E07CA
:1033900090912F070E94FA3D072E000C880B990B85
:1033A0000E94933B609348077093490780934A07B4
:1033B00090934B0780910A0A882301F110920A0A20
:1033C00080912B078823D1F010922B0760912C0756
:1033D00070912D0780912E0790912F070E94FA3D42
:1033E000072E000C880B990B0E94933B60934C07AF
:1033F00070934D0780934E0790934F078091E0069E
:103400009091E1068130910589F1C0F0029709F0B1
:1034100021C11092E1061092E0061092230710924B
:103420002407109225071092260762EE462E66E0CA
:10343000562E820160E070E0CB0199C00E944D13CE
:103440000091D7061091D8062091D9063091DA065E
:10345000DC01CB01801B910BA20BB30B893E934087
:10346000A105B10508F4F6C00C94BA3490917A0025
:1034700080917A00887F846080937A0080917B00BD
:10348000877F80937B0080E480937C0080917A002A
:10349000806480937A0080917A0086FDFCCF6091F1
:1034A00078008091790090937A0070E0782B072E55
:1034B000000C880B990B0E94933B20E030E040E722
:1034C00052E40E94F23B20E030EC4FE754E40E94CB
:1034D000883D20E030E0A9010E941C3D20E030E062
:1034E00040E85EE30E94F23B2091DC063091DD066D
:1034F0004091DE065091DF060E941C3D6093DC0681
:103500007093DD068093DE069093DF062091DB0644
:10351000233021F5A2E0B0E0B093E106A093E006ED
:10352000212F30E02F5F3F4F2F703327209322074A
:10353000220F331F220F331FF901EE51F94F608321
:103540007183828393831092DB061092DC061092C3
:10355000DD061092DE061092DF067CC01092E106B6
:103560001092E00681E0820F8093DB0673C0F801C1
:1035700021913191419151918F010E941C3D52E264
:10358000C52E57E0D52EC016D10689F720E030E0D1
:1035900040E85DE30E94F23B6B017C0160932307EE
:1035A000709324078093250790932607A090270700
:1035B000B09028070091290710912A079301A401D0
:1035C000B501C8010E94303E181614F05301840161
:1035D000C501D8018093270790932807A093290756
:1035E000B0932A07D2016D917D918D919D912D010E
:1035F000A70196010E941B3D4B015C0120E030E0D9
:10360000A9010E94303E18165CF420E030E040E84A
:1036100050E4C501B4010E94303E1816DCF00AC027
:1036200020E030E040E850ECC501B4010E948C3B42
:1036300087FD10C0E2E2F7E0E415F50599F681E0B8
:1036400080932B07C0922C07D0922D07E0922E0773
:10365000F0922F0786E00E949F1121E0892B09F448
:1036600020E02093AC0920E030E040EA50E4609193
:103670000B0A70910C0A80910D0A90910E0A0E941B
:10368000303E87FD04C010923907109238078091B0
:1036900038079091390782309105E1F030F40097B6
:1036A00071F0019709F472C0CBC28430910509F41E
:1036B000B0C108F462C1059709F49EC2C1C210925C
:1036C000080A1092070A42E0C42ED12CD092390782
:1036D000C09238078091070A9091080A029719F55D
:1036E00033E0E32EF12CF092080AE092070A0E94E0
:1036F0004D130E94913B2091EB093091EC094091D0
:10370000ED095091EE090E941C3D0E94013E60931C
:10371000FF097093000A8093010A9093020AFF2424
:10372000F394F092090A8091AC09882331F08091DA
:10373000070A9091080A892B69F08091DF0990911E
:10374000E009A091E109B091E209181619061A06DC
:103750001B062CF46DED74E286E89FEB48C260E036
:1037600070E0CB010E9433128091070A9091080A01
:10377000892B09F071C20E94910B1092DF091092FF
:10378000E0091092E1091092E20966C210918C06DC
:10379000112309F483C06091900670E080E090E00E
:1037A0000E94913B6093AD097093AE098093AF097D
:1037B0009093B0096091990670919A0680E090E02C
:1037C0000E94913B6093B5097093B6098093B70945
:1037D0009093B80960918E0670E080E090E00E94BE
:1037E000913B20E030E048EC52E40E94883D609339
:1037F000B9097093BA098093BB099093BC09609191
:103800008F0670E080E090E00E94913B20E030E085
:1038100048EC52E40E94883D6093BD097093BE0954
:103820008093BF099093C0096091930670919406AC
:10383000072E000C880B990B0E94933B6093CF09D5
:103840007093D0098093D1099093D20980918D060D
:103850008093C10960919F06062E000C770B880BA0
:10386000990B0E94933B20914C0730914D0740915A
:103870004E0750914F070E941C3D9B01AC01609187
:1038800040077091410780914207909143070E9441
:103890008C3B881F8827881F8093C2098091070A64
:1038A0009091080A9C012350310922303105E8F437
:1038B00024E030E03093080A2093070A0E944D1359
:1038C0000091FF091091000A2091010A3091020A2B
:1038D000601771078207930710F00C94CA34809127
:1038E000C20981110C94CA34BBC1892B09F0B8C13B
:1038F000112309F4B5C194E0E92EF12CF092080AE5
:10390000E092070A8091C10981112CC0E3E0F0E048
:10391000F0933907E0933807A3C120E030E04AE78D
:1039200054E40E94883D6093540770935507809338
:10393000560790935707C0925807D0925907E092C4
:103940005A07F0925B070E944D136093030A70932D
:10395000040A8093050A9093060A8091C109982F62
:103960009D7FA1F2813009F077C124E0C22ED12CD5
:10397000D0923907C092380773C18091070A90919D
:10398000080A049711F40E94E40A4091DF0950915B
:10399000E0096091E1097091E2098091E309909159
:1039A000E409A091E509B091E609481759076A07AB
:1039B0007B0714F00C947A360E944D130091FB099A
:1039C0001091FC092091FD093091FE0960177107E3
:1039D0008207930710F00C947A36609195067091E7
:1039E0009606072E000C880B990B0E94933B9B01B7
:1039F000AC0160914007709141078091420790911E
:103A000043070E948C3B87FF02C00C946A350C94DC
:103A10007A368091070A9091080A049711F40E945F
:103A2000E40A0E944D130091FB091091FC092091BA
:103A3000FD093091FE09601771078207930710F0A6
:103A40000C94FF368091DF099091E009A091E10983
:103A5000B091E209813A9641A105B10514F00C94A8
:103A6000FF368091400790914107A0914207B091A5
:103A700043078093D3099093D409A093D509B093B9
:103A8000D6098091AA09882321F080E799E00E9455
:103A900063072091D7093091D8094091D9095091F5
:103AA000DA096091CF097091D0098091D109909184
:103AB000D2090E941B3D6B017C0120E030E0A9018E
:103AC0000E94303E181614F00C942137C701B6013D
:103AD0000E94FA3DAEEFBFEF9B01AC010E94DD3CBE
:103AE00023E230E040E050E00E94B03CCA01B9015E
:103AF0006D5F7F4F8F4F9F4F0E94933B4B015C0147
:103B000069E772E080EB98E00E9401076091D709B5
:103B10007091D8098091D9099091DA090E94960F85
:103B20006AE872E080EB98E00E9401076091D30997
:103B30007091D4098091D5099091D6090E94960F71
:103B40006BE972E080EB98E00E9401076091CF0979
:103B50007091D0098091D1099091D2090E94960F5D
:103B600020E030E0A901C701B6010E94303EA50166
:103B7000940187FF02C00C9426376091CB097091A5
:103B8000CC098091CD099091CE090E941C3D609393
:103B9000CB097093CC098093CD099093CE09C09046
:103BA000CB09D090CC09E090CD09F090CE092DEC56
:103BB0003CEC4CE45EE3C701B6010E948C3B87FD00
:103BC00002C00C9432378DEC9CECACE4BEE38093E5
:103BD000CB099093CC09A093CD09B093CE09609105
:103BE000CB097091CC098091CD099091CE090E94AA
:103BF00033120E94910B34C00E944D130091FB09B7
:103C00001091FC092091FD093091FE0960177107A0
:103C10008207930768F460E070E0CB010E943312E2
:103C200082E0C82ED12CD092080AC092070A18C090
:103C300002E0E02EF12CF0923907E092380710C034
:103C40006DEA72E080EB98E00E94EC0660EC72E0B6
:103C500080EB98E00E94EC063092390720923807FA
:103C60001982E091B606F091B706E732F10510F03F
:103C70000C943C338827EE58FF4F8F4F0C94133D24
:103C80008FE20E944B09882311F40C9440330E9468
:103C9000E40943EC52E060E080E00E94EE0944ED6C
:103CA00052E061E080E00E94EE093092B706209277
:103CB000B6060E940B090C9440338BE20E944B091C
:103CC000882371F045EE52E061E080E00E94EE0949
:103CD00023E030E03093B7062093B6060C944033CF
:103CE0008DE20E944B09882371F046EF52E061E0BB
:103CF00080E00E94EE0982E090E09093B706809306
:103D0000B6060C94403381E30E944B09882369F086
:103D100082E08093A20684E290E09093B7068093BD
:103D2000B6060E940B090C94403383E30E944B09B2
:103D3000882391F047E053E060E080E00E94EE09C4
:103D400048E153E061E080E00E94EE091092B7067E
:103D50001092B6060C94403364EF71E080E090E07E
:103D60000E941709882311F40C944033A4E0B0E0BA
:103D7000B093B706A093B60649E253E061E080E055
:103D80000E94EE090E940B090C9440338BE20E94C2
:103D90004B09811197CF8DE20E944B098111A5CF6C
:103DA00081E30E944B098111B3CF83E30E944B0949
:103DB0008111C0CF6AEF70E080E090E00E941709A7
:103DC000882311F40C94403344ED52E061E080E02C
:103DD0000E94EE093092B7062092B6060E940B09A7
:103DE0000C9440338BE20E944B09882361F044ED30
:103DF00052E061E080E00E94EE093092B706209226
:103E0000B6060C9440338DE20E944B0981115ACFC3
:103E100081E30E944B09882391F046EF52E061E074
:103E200080E00E94EE091092A20687E090E0909355
:103E3000B7068093B6060E940B090C94403383E3C7
:103E40000E944B09811176CF64EF71E080E090E031
:103E50000E941709882311F40C944033E5E0F0E048
:103E6000F093B706E093B60649E253E061E080E0E4
:103E70000E94EE090E940B090C9440338BE20E94D1
:103E80004B098111B4CF8DE20E944B0981111ACFE9
:103E900081E30E944B098111C0CF83E30E944B094B
:103EA000811148CF6AEF70E080E090E00E9417092E
:103EB000882311F40C94403312E0C12ED12CD092FF
:103EC000B706C092B60646EF52E061E080E00E947D
:103ED000EE090E940B090C9440338BE20E944B09BF
:103EE000811103CF8DE20E944B09811180CF81E3C4
:103EF0000E944B098823A1F045EE52E061E080E08A
:103F00000E94EE09DD24D394D092A20687E090E0CF
:103F10009093B7068093B6060E940B090C94403329
:103F200083E30E944B09811105CF64EF71E080E0CB
:103F300090E00E941709882311F40C94403386E026
:103F400090E09093B7068093B60649E253E061E0B3
:103F500080E00E94EE090E940B090C9440338BE232
:103F60000E944B098111C1CE8DE20E944B09811143
:103F70003ECF81E30E944B098111BECF83E30E94B3
:103F80004B098111D7CE6AEF70E080E090E00E948B
:103F90001709882311F40C944033B3E0EB2EF12C75
:103FA000F092B706E092B60645EE52E061E080E09E
:103FB0000E94EE090E940B090C94403364EF71E0FB
:103FC00080E090E00E941709882311F40C9440339C
:103FD0008091A206813049F50E94E4094AE353E04A
:103FE00060E080E00E94EE094AE0BE016F5F7F4F13
:103FF0008091A8069091A9060E9408396BE473E0AD
:10400000CE0101960E944E40AE014F5F5F4F61E0CE
:1040100080E00E94EE098BE090E09093B7068093D9
:10402000B6060E940B090C94403381110C94403366
:104030000E94E40942E553E060E080E00E94EE095E
:104040004AE0BE016F5F7F4F8091AE069091AF0650
:104050000E94083963E673E0CE0101960E944E404B
:10406000AE014F5F5F4F61E080E00E94EE0988E0A3
:1040700090E09093B7068093B6060E940B090C94CB
:1040800040338BE20E944B09882341F18091A806BE
:104090009091A9068832910514F4019602C088E235
:1040A00090E09093A9068093A8064AE0BE016F5F56
:1040B0007F4F8091A8069091A9060E9408396BE471
:1040C00073E0CE0101960E944E40AE014F5F5F4FFC
:1040D00061E080E00E94EE090C9440338DE20E9482
:1040E0004B09882351F18091A8069091A90686304A
:1040F000910534F001979093A9068093A80604C017
:104100003092A9062092A8064AE0BE016F5F7F4F59
:104110008091A8069091A9060E9408396BE473E08B
:10412000CE0101960E944E40AE014F5F5F4F61E0AD
:1041300080E00E94EE090C94403381E30E944B0919
:10414000882309F14AE0BE016F5F7F4F8091A80686
:104150009091A9060E9408396BE473E0CE010196A4
:104160000E944E40AE014F5F5F4F61E080E00E94D1
:10417000EE098DE090E09093B7068093B6060E941A
:104180000B090C94403383E30E944B0981117FCDCE
:1041900064EF71E080E090E00E941709882311F439
:1041A0000C9440338CE090E09093B7068093B60671
:1041B00049E253E061E080E00E94EE090E940B09B1
:1041C0000C9440338BE20E944B09882349F1809183
:1041D000A8069091A906883291053CF42091AE067C
:1041E0003091AF062F5F3F4F02C028E230E030939E
:1041F000AF062093AE064AE0BE016F5F7F4F0E947C
:1042000008396BE473E0CE0101960E944E40AE0186
:104210004F5F5F4F61E080E00E94EE090C944033F5
:104220008DE20E944B09882361F18091AE06909146
:10423000AF068630910530F001979093AF068093DA
:10424000AE0606C025E030E03093AF062093AE0600
:104250004AE0BE016F5F7F4F8091A8069091A9064A
:104260000E9408396BE473E0CE0101960E944E4033
:10427000AE014F5F5F4F61E080E00E94EE090C9459
:10428000403381E30E944B09882309F14AE0BE01D3
:104290006F5F7F4F8091A8069091A9060E94083910
:1042A0006BE473E0CE0101960E944E40AE014F5F79
:1042B0005F4F61E080E00E94EE098DE090E0909316
:1042C000B7068093B6060E940B090C94403383E333
:1042D0000E944B098111DBCC6AEF70E080E090E036
:1042E0000E941709882311F40C9440334AE0BE0160
:1042F0006F5F7F4F8091A8069091A9060E940839B0
:104300006BE473E0CE0101960E944E40AE014F5F18
:104310005F4F61E080E00E94EE098BE090E09093B7
:10432000B7068093B6060E940B090C94403364EFE5
:1043300071E080E090E00E941709882311F40C944A
:1043400040330E94E40946E653E060E080E00E94CA
:10435000EE094AE0BE016F5F7F4F8091B0069091F9
:10436000B1060E94083967E773E0CE0101960E940A
:104370004E40AE014F5F5F4F61E080E00E94EE096A
:104380008EE090E09093B7068093B6060E940B09EA
:104390000C9440338BE20E944B09882349F18091B1
:1043A000AE069091AF06803233E0930710F4C296C8
:1043B00002C080E293E09093AF068093AE064AE09D
:1043C000BE016F5F7F4F8091AE069091AF060E9455
:1043D000083963E673E0CE0101960E944E40AE01BB
:1043E0004F5F5F4F61E080E00E94EE090C94403324
:1043F0008DE20E944B09882349F18091AE0690918D
:10440000AF068D3241E0940710F0C29702C08CE2F3
:1044100091E09093AF068093AE064AE0BE016F5FD5
:104420007F4F8091AE069091AF060E94083963E6F7
:1044300073E0CE0101960E944E40AE014F5F5F4F88
:1044400061E080E00E94EE090C94403381E30E9419
:104450004B09882309F14AE0BE016F5F7F4F8091CD
:10446000AE069091AF060E94083963E673E0CE0174
:1044700001960E944E40AE014F5F5F4F61E080E0C9
:104480000E94EE098AE090E09093B7068093B6060A
:104490000E940B090C94403383E30E944B09811165
:1044A000F6CB64EF71E080E090E00E94170988236A
:1044B00011F40C94403389E090E09093B706809318
:1044C000B60649E253E061E080E00E94EE090E94F6
:1044D0000B090C9440338BE20E944B09882349F16D
:1044E0008091AE069091AF068032A3E09A0710F457
:1044F000C29602C080E293E09093AF068093AE062E
:104500004AE0BE016F5F7F4F8091AE069091AF068B
:104510000E94083963E673E0CE0101960E944E4086
:10452000AE014F5F5F4F61E080E00E94EE090C94A6
:1045300040338DE20E944B09882349F18091AE06F9
:104540009091AF068D32B1E09B0710F0C29702C088
:104550008CE291E09093AF068093AE064AE0BE01F4
:104560006F5F7F4F8091AE069091AF060E94083931
:1045700063E673E0CE0101960E944E40AE014F5FAC
:104580005F4F61E080E00E94EE090C94403381E3CC
:104590000E944B09882309F14AE0BE016F5F7F4FFB
:1045A0008091AE069091AF060E94083963E673E0F1
:1045B000CE0101960E944E40AE014F5F5F4F61E019
:1045C00080E00E94EE098AE090E09093B706809325
:1045D000B6060E940B090C94403383E30E944B09FA
:1045E000811155CB6AEF70E080E090E00E941709DE
:1045F000882311F40C9440334AE0BE016F5F7F4F73
:104600008091AE069091AF060E94083963E673E090
:10461000CE0101960E944E40AE014F5F5F4F61E0B8
:1046200080E00E94EE0988E090E09093B7068093C6
:10463000B6060E940B090C94403364EF71E080E0F1
:1046400090E00E941709882311F40C9440330E94D3
:10465000E40946E653E060E080E00E94EE094AE0AB
:10466000BE016F5F7F4F8091B0069091B1060E94AE
:10467000083967E773E0CE0101960E944E40AE0113
:104680004F5F5F4F61E080E00E94EE098EE090E0B6
:104690009093B7068093B6060E940B090C944033A2
:1046A0008BE20E944B09882341F18091B0069091E2
:1046B000B1068031910510F4019602C080E190E0CE
:1046C0009093B1068093B0064AE0BE016F5F7F4FC2
:1046D0008091B0069091B1060E94083967E773E0B7
:1046E000CE0101960E944E40AE014F5F5F4F61E0E8
:1046F00080E00E94EE090C9440338DE20E944B0949
:10470000882341F18091B0069091B1068D309105DA
:1047100010F0019702C08CE090E09093B106809376
:10472000B0064AE0BE016F5F7F4F8091B006909166
:10473000B1060E94083967E773E0CE0101960E9436
:104740004E40AE014F5F5F4F61E080E00E94EE0996
:104750000C94403381E30E944B09882309F14AE01D
:10476000BE016F5F7F4F8091B0069091B1060E94AD
:10477000083967E773E0CE0101960E944E40AE0112
:104780004F5F5F4F61E080E00E94EE0980E190E0C2
:104790009093B7068093B6060E940B090C944033A1
:1047A00083E30E944B09882309F459C08091A20633
:1047B000813049F50E94E4094AE353E060E080E07B
:1047C0000E94EE094AE0BE016F5F7F4F8091A8060C
:1047D0009091A9060E9408396BE473E0CE0101961E
:1047E0000E944E40AE014F5F5F4F61E080E00E944B
:1047F000EE098BE090E09093B7068093B6060E9496
:104800000B090C94403381110C9440330E94E4094D
:1048100042E553E060E080E00E94EE094AE0BE011C
:104820006F5F7F4F8091AE069091AF060E9408396E
:1048300063E673E0CE0101960E944E40AE014F5FE9
:104840005F4F61E080E00E94EE0988E090E0909385
:10485000B7068093B6060E940B090C94403364EFB0
:1048600071E080E090E00E941709882311F40C9415
:1048700040338FE090E09093B7068093B60649E20C
:1048800053E061E080E00E94EE090E940B090C9465
:1048900040338BE20E944B09882341F18091B0069E
:1048A0009091B1068031910510F4019602C080E12B
:1048B00090E09093B1068093B0064AE0BE016F5F2E
:1048C0007F4F8091B0069091B1060E94083967E74A
:1048D00073E0CE0101960E944E40AE014F5F5F4FE4
:1048E00061E080E00E94EE090C9440338DE20E946A
:1048F0004B09882341F18091B0069091B1068D302B
:10490000910510F0019702C08CE090E09093B10601
:104910008093B0064AE0BE016F5F7F4F8091B00682
:104920009091B1060E94083967E773E0CE010196C5
:104930000E944E40AE014F5F5F4F61E080E00E94F9
:10494000EE090C94403381E30E944B09882309F15E
:104950004AE0BE016F5F7F4F8091B0069091B10633
:104960000E94083967E773E0CE0101960E944E402D
:10497000AE014F5F5F4F61E080E00E94EE0980E191
:1049800090E09093B7068093B6060E940B090C94B2
:10499000403383E30E944B09882309F459C0809176
:1049A000A206813049F50E94E4094AE353E060E041
:1049B00080E00E94EE094AE0BE016F5F7F4F809168
:1049C000A8069091A9060E9408396BE473E0CE0115
:1049D00001960E944E40AE014F5F5F4F61E080E064
:1049E0000E94EE098BE090E09093B7068093B606A4
:1049F0000E940B090C94403381110C9440330E94A7
:104A0000E40942E553E060E080E00E94EE094AE0FC
:104A1000BE016F5F7F4F8091AE069091AF060E94FE
:104A2000083963E673E0CE0101960E944E40AE0164
:104A30004F5F5F4F61E080E00E94EE0988E090E008
:104A40009093B7068093B6060E940B090C944033EE
:104A500064EF71E080E090E00E941709882311F470
:104A60000C9440334AE0BE016F5F7F4F8091B006E7
:104A70009091B1060E94083967E773E0CE01019674
:104A80000E944E40AE014F5F5F4F61E080E00E94A8
:104A9000EE098EE090E09093B7068093B6060E94F0
:104AA0000B090C94403364EF71E080E090E00E94C9
:104AB0001709882311F40C9440330E94E4094BE752
:104AC00053E060E080E00E94EE094AE0BE016F5FC3
:104AD0007F4F8091B2069091B3060E94083967E734
:104AE00073E0CE0101960E944E40AE014F5F5F4FD2
:104AF00061E080E00E94EE0981E190E09093B706CA
:104B00008093B6060E940B090C9440338BE20E94FE
:104B10004B09882361F18091B2069091B3068530EC
:104B2000910530F401969093B3068093B20606C0C7
:104B3000E5E0F0E0F093B306E093B2064AE0BE0190
:104B40006F5F7F4F8091B2069091B3060E94083943
:104B500067E773E0CE0101960E944E40AE014F5FC1
:104B60005F4F61E080E00E94EE090C9440338DE2DB
:104B70000E944B09882351F18091B2069091B306AF
:104B80008230910530F001979093B3068093B2067E
:104B900004C03092B3062092B2064AE0BE016F5FB5
:104BA0007F4F8091B2069091B3060E94083967E763
:104BB00073E0CE0101960E944E40AE014F5F5F4F01
:104BC00061E080E00E94EE090C94403381E30E9492
:104BD0004B09882309F14AE0BE016F5F7F4F809146
:104BE000B2069091B3060E94083967E773E0CE01E0
:104BF00001960E944E40AE014F5F5F4F61E080E042
:104C00000E94EE0983E190E09093B7068093B60688
:104C10000E940B090C94403383E30E944B098823C4
:104C200049F10E94E40946E653E060E080E00E941A
:104C3000EE094AE0BE016F5F7F4F8091B006909110
:104C4000B1060E94083967E773E0CE0101960E9421
:104C50004E40AE014F5F5F4F61E080E00E94EE0981
:104C60008EE090E09093B7068093B6060E940B0901
:104C70000C94403364EF71E080E090E00E941709EB
:104C8000882311F40C94403382E190E09093B706AE
:104C90008093B60649E253E061E080E00E94EE09AD
:104CA0000E940B090C9440338BE20E944B0988232D
:104CB00069F18091B2069091B3068530910530F488
:104CC00001969093B3068093B20607C0A5E0CA2E62
:104CD000D12CD092B306C092B2064AE0BE016F5FFB
:104CE0007F4F8091B2069091B3060E94083967E722
:104CF00073E0CE0101960E944E40AE014F5F5F4FC0
:104D000061E080E00E94EE090C9440338DE20E9445
:104D10004B09882351F18091B2069091B3068230FD
:104D2000910530F001979093B3068093B20604C0CA
:104D30003092B3062092B2064AE0BE016F5F7F4F09
:104D40008091B2069091B3060E94083967E773E03C
:104D5000CE0101960E944E40AE014F5F5F4F61E071
:104D600080E00E94EE090C94403381E30E944B09DD
:104D7000882309F14AE0BE016F5F7F4F8091B20640
:104D80009091B3060E94083967E773E0CE0101965F
:104D90000E944E40AE014F5F5F4F61E080E00E9495
:104DA000EE0983E190E09093B7068093B6060E94E7
:104DB0000B090C94403383E30E944B09882349F18B
:104DC0000E94E40946E653E060E080E00E94EE09BC
:104DD0004AE0BE016F5F7F4F8091B0069091B106AF
:104DE0000E94083967E773E0CE0101960E944E40A9
:104DF000AE014F5F5F4F61E080E00E94EE098EE000
:104E000090E09093B7068093B6060E940B090C942D
:104E1000403364EF71E080E090E00E94170988233E
:104E200011F40C9440334AE0BE016F5F7F4F8091D4
:104E3000B2069091B3060E94083967E773E0CE018D
:104E400001960E944E40AE014F5F5F4F61E080E0EF
:104E50000E94EE0981E190E09093B7068093B60638
:104E60000E940B090C94403364EF71E080E090E005
:104E70000E941709882311F40C9440330E94E4091E
:104E80004CE853E060E080E00E94EE098091A506C6
:104E90004AE0BE016F5F7F4F90E00E94083968E3EF
:104EA00073E0CE0101960E944E40AE014F5F5F4F0E
:104EB00061E080E00E94EE0984E190E09093B70603
:104EC0008093B6060E940B090C9440338BE20E943B
:104ED0004B09882309F18091A5068E3110F48F5F6C
:104EE00001C08EE18093A5068091A5064AE0BE012F
:104EF0006F5F7F4F90E00E94083968E373E0CE0156
:104F000001960E944E40AE014F5F5F4F61E080E02E
:104F10000E94EE090C9440338DE20E944B098823D5
:104F200009F18091A506863010F0815001C085E01E
:104F30008093A5068091A5064AE0BE016F5F7F4F72
:104F400090E00E94083968E373E0CE0101960E9468
:104F50004E40AE014F5F5F4F61E080E00E94EE097E
:104F60000C94403381E30E944B09882301F1809126
:104F7000A5064AE0BE016F5F7F4F90E00E940839AE
:104F800068E373E0CE0101960E944E40AE014F5F90
:104F90005F4F61E080E00E94EE0986E190E090932F
:104FA000B7068093B6060E940B090C94403383E346
:104FB0000E944B09882349F10E94E4094BE753E022
:104FC00060E080E00E94EE094AE0BE016F5F7F4F23
:104FD0008091B0069091B1060E94083968E373E0B1
:104FE000CE0101960E944E40AE014F5F5F4F61E0DF
:104FF00080E00E94EE0981E190E09093B7068093F3
:10500000B6060E940B090C94403364EF71E080E017
:1050100090E00E941709882311F40C94403385E135
:1050200090E09093B7068093B60649E253E061E0C2
:1050300080E00E94EE090E940B090C9440338BE241
:105040000E944B09882309F18091A5068E3110F446
:105050008F5F01C08EE18093A5068091A5064AE08E
:10506000BE016F5F7F4F90E00E94083968E373E0F4
:10507000CE0101960E944E40AE014F5F5F4F61E04E
:1050800080E00E94EE090C9440338DE20E944B09AF
:10509000882309F18091A506863010F0815001C067
:1050A00085E08093A5068091A5064AE0BE016F5F6A
:1050B0007F4F90E00E94083968E373E0CE010196CB
:1050C0000E944E40AE014F5F5F4F61E080E00E9462
:1050D000EE090C94403381E30E944B09882301F1CF
:1050E0008091A5064AE0BE016F5F7F4F90E00E946D
:1050F000083968E373E0CE0101960E944E40AE018C
:105100004F5F5F4F61E080E00E94EE0986E190E032
:105110009093B7068093B6060E940B090C94403317
:1051200083E30E944B09882349F10E94E4094BE77D
:1051300053E060E080E00E94EE094AE0BE016F5F4C
:105140007F4F8091B0069091B1060E94083968E3C4
:1051500073E0CE0101960E944E40AE014F5F5F4F5B
:1051600061E080E00E94EE0981E190E09093B70653
:105170008093B6060E940B090C94403364EF71E0F3
:1051800080E090E00E941709882311F40C944033CA
:105190008091A5064AE0BE016F5F7F4F90E00E94BC
:1051A000083968E373E0CE0101960E944E40AE01DB
:1051B0004F5F5F4F61E080E00E94EE0984E190E084
:1051C0009093B7068093B6060E940B090C94403367
:1051D00064EF71E080E090E00E941709882311F4E9
:1051E0000C9440330E94E4094DE953E060E080E014
:1051F0000E94EE098091A3064AE0BE016F5F7F4FD7
:1052000090E00E9408396BE874E0CE0101960E949C
:105210004E40AE014F5F5F4F61E080E00E94EE09BB
:1052200087E190E09093B7068093B6060E940B0941
:105230000C9440338BE20E944B09882309F1809142
:10524000A306803510F48B5F01C080E58093A30630
:105250008091A3064AE0BE016F5F7F4F90E00E94FD
:1052600008396BE874E0CE0101960E944E40AE0111
:105270004F5F5F4F61E080E00E94EE090C94403385
:105280008DE20E944B09882309F18091A3068B309F
:1052900010F0855001C08AE08093A3068091A30698
:1052A0004AE0BE016F5F7F4F90E00E9408396BE8D3
:1052B00074E0CE0101960E944E40AE014F5F5F4FF9
:1052C00061E080E00E94EE090C94403381E30E948B
:1052D0004B09882301F18091A3064AE0BE016F5F6C
:1052E0007F4F90E00E9408396BE874E0CE01019690
:1052F0000E944E40AE014F5F5F4F61E080E00E9430
:10530000EE0989E190E09093B7068093B6060E947B
:105310000B090C94403383E30E944B09882341F12D
:105320000E94E4094CE853E060E080E00E94EE094E
:105330008091A5064AE0BE016F5F7F4F90E00E941A
:10534000083968E373E0CE0101960E944E40AE0139
:105350004F5F5F4F61E080E00E94EE0984E190E0E2
:105360009093B7068093B6060E940B090C944033C5
:1053700064EF71E080E090E00E941709882311F447
:105380000C94403388E190E09093B7068093B60682
:1053900049E253E061E080E00E94EE090E940B09BF
:1053A0000C9440338BE20E944B09882309F18091D1
:1053B000A306803510F48B5F01C080E58093A306BF
:1053C0008091A3064AE0BE016F5F7F4F90E00E948C
:1053D00008396BE874E0CE0101960E944E40AE01A0
:1053E0004F5F5F4F61E080E00E94EE090C94403314
:1053F0008DE20E944B09882309F18091A3068B302E
:1054000010F0855001C08AE08093A3068091A30626
:105410004AE0BE016F5F7F4F90E00E9408396BE861
:1054200074E0CE0101960E944E40AE014F5F5F4F87
:1054300061E080E00E94EE090C94403381E30E9419
:105440004B09882301F18091A3064AE0BE016F5FFA
:105450007F4F90E00E9408396BE874E0CE0101961E
:105460000E944E40AE014F5F5F4F61E080E00E94BE
:10547000EE0989E190E09093B7068093B6060E940A
:105480000B090C94403383E30E944B09882341F1BC
:105490000E94E4094CE853E060E080E00E94EE09DD
:1054A0008091A5064AE0BE016F5F7F4F90E00E94A9
:1054B000083968E373E0CE0101960E944E40AE01C8
:1054C0004F5F5F4F61E080E00E94EE0984E190E071
:1054D0009093B7068093B6060E940B090C94403354
:1054E00064EF71E080E090E00E941709882311F4D6
:1054F0000C9440338091A3064AE0BE016F5F7F4F5A
:1055000090E00E9408396BE874E0CE0101960E9499
:105510004E40AE014F5F5F4F61E080E00E94EE09B8
:1055200087E190E09093B7068093B6060E940B093E
:105530000C94403364EF71E080E090E00E94170922
:10554000882311F40C9440330E94E4094EEA53E09E
:1055500060E080E00E94EE098091A4064AE0BE016E
:105560006F5F7F4F90E00E9408396BE874E0CE01D6
:1055700001960E944E40AE014F5F5F4F61E080E0B8
:105580000E94EE098AE190E09093B7068093B606F8
:105590000E940B090C9440338BE20E944B09882334
:1055A00009F18091A4068E3110F48B5F01C08EE169
:1055B0008093A4068091A4064AE0BE016F5F7F4FEE
:1055C00090E00E9408396BE874E0CE0101960E94D9
:1055D0004E40AE014F5F5F4F61E080E00E94EE09F8
:1055E0000C9440338DE20E944B09882311F1809185
:1055F000A406882321F085508093A40602C010924F
:10560000A4068091A4064AE0BE016F5F7F4F90E040
:105610000E9408396BE874E0CE0101960E944E406A
:10562000AE014F5F5F4F61E080E00E94EE090C9495
:10563000403381E30E944B09882301F18091A40645
:105640004AE0BE016F5F7F4F90E00E9408396BE82F
:1056500074E0CE0101960E944E40AE014F5F5F4F55
:1056600061E080E00E94EE098CE190E09093B70643
:105670008093B6060E940B090C94403383E30E948A
:105680004B09882339F10E94E4094DE953E060E0B9
:1056900080E00E94EE098091A3064AE0BE016F5FA0
:1056A0007F4F90E00E9408396BE874E0CE010196CC
:1056B0000E944E40AE014F5F5F4F61E080E00E946C
:1056C000EE0987E190E09093B7068093B6060E94BA
:1056D0000B09D6C764EF71E080E090E00E941709E3
:1056E000882309F4CDC78BE190E09093B7068093AF
:1056F000B60649E253E061E080E00E94EE090E94B4
:105700000B09BEC78BE20E944B09882301F18091EF
:10571000A4068E3110F48B5F01C08EE18093A40645
:105720008091A4064AE0BE016F5F7F4F90E00E9427
:1057300008396BE874E0CE0101960E944E40AE013C
:105740004F5F5F4F61E080E00E94EE0999C78DE2F4
:105750000E944B09882309F18091A406882321F037
:1057600085508093A40602C01092A4068091A406DE
:105770004AE0BE016F5F7F4F90E00E9408396BE8FE
:1057800074E0CE0101960E944E40AE014F5F5F4F24
:1057900061E080E00E94EE0973C781E30E944B093B
:1057A0008823F9F08091A4064AE0BE016F5F7F4F25
:1057B00090E00E9408396BE874E0CE0101960E94E7
:1057C0004E40AE014F5F5F4F61E080E00E94EE0906
:1057D0008CE190E09093B7068093B6060E940B0987
:1057E0004FC783E30E944B09882339F10E94E409E3
:1057F0004DE953E060E080E00E94EE098091A3064D
:105800004AE0BE016F5F7F4F90E00E9408396BE86D
:1058100074E0CE0101960E944E40AE014F5F5F4F93
:1058200061E080E00E94EE0987E190E09093B70686
:105830008093B6060E940B0923C764EF71E080E0F5
:1058400090E00E941709882309F41AC78091A406E2
:105850004AE0BE016F5F7F4F90E00E9408396BE81D
:1058600074E0CE0101960E944E40AE014F5F5F4F43
:1058700061E080E00E94EE098AE190E09093B70633
:105880008093B6060E940B09FBC664EF71E080E0CE
:1058900090E00E941709882309F4F2C60E94E409E7
:1058A0004FEB53E060E080E00E94EE094AE0BE0169
:1058B0006F5F7F4F8091AA069091AB060E940839D6
:1058C0006BE473E0CE0101960E944E40AE014F5F43
:1058D0005F4F61E080E00E94EE098DE190E09093DF
:1058E000B7068093B6060E940B09CAC68BE20E94D7
:1058F0004B09882339F18091AA069091AB06873332
:10590000910514F4019602C087E390E09093AB06F2
:105910008093AA064AE0BE016F5F7F4F8091AA067E
:105920009091AB060E9408396BE473E0CE010196BA
:105930000E944E40AE014F5F5F4F61E080E00E94E9
:10594000EE099EC68DE20E944B09882339F18091B1
:10595000AA069091AB068432910514F0019702C01B
:1059600083E290E09093AB068093AA064AE0BE01E2
:105970006F5F7F4F8091AA069091AB060E94083915
:105980006BE473E0CE0101960E944E40AE014F5F82
:105990005F4F61E080E00E94EE0972C681E30E94E1
:1059A0004B09882301F14AE0BE016F5F7F4F809170
:1059B000AA069091AB060E9408396BE473E0CE0111
:1059C00001960E944E40AE014F5F5F4F61E080E064
:1059D0000E94EE098FE190E09093B7068093B6069F
:1059E0000E940B094DC683E30E944B09882339F1BD
:1059F0000E94E4094EEA53E060E080E00E94EE0974
:105A00008091A4064AE0BE016F5F7F4F90E00E9444
:105A100008396BE874E0CE0101960E944E40AE0159
:105A20004F5F5F4F61E080E00E94EE098AE190E005
:105A30009093B7068093B6060E940B0921C664EFC7
:105A400071E080E090E00E941709882309F418C6ED
:105A50008EE190E09093B7068093B60649E253E05A
:105A600061E080E00E94EE090E940B0909C68BE20A
:105A70000E944B09882339F18091AA069091AB06C8
:105A80008733910514F4019602C087E390E0909368
:105A9000AB068093AA064AE0BE016F5F7F4F8091FC
:105AA000AA069091AB060E9408396BE473E0CE0120
:105AB00001960E944E40AE014F5F5F4F61E080E073
:105AC0000E94EE09DDC58DE20E944B09882339F161
:105AD0008091AA069091AB068432910514F001974B
