:100000000C941A020C94A5050C947A050C944F05D7
:100010000C9424050C94F9040C94CE040C94A304C1
:100020000C9478040C944B020C944B020C944B02ED
:100030000C944B020C94D0050C944B020C944B0284
:100040000C944B020C944B020C944B020C944B02FC
:100050000C944B020C944B020C944B020C9407131F
:100060000C944B020C94AE060C9484060C944B0238
:100070000C944B020C944B020C944B020C944B02CC
:100080000C944B020C944B020C944B020C944B02BC
:100090000C944B020C944B020C944B020C944B02AC
:1000A0000C944B020C944B020C944B020C944B029C
:1000B0000C944B020C944B020C944B020C944B028C
:1000C0000C944B020C944B020C944B020C944B027C
:1000D0000C944B020C944B020C944B020C944B026C
:1000E0000C944B02B51BD21B651CDB1C391CAF1CCE
:1000F0001C1D4A1D341FD51F8720AD1D4E1E011F1C
:10010000BA20B321BD22F022BC239924CB2484251C
:100110004D267F263727FF273128E528A829D9290A
:100120009A2A6C2B9E2B582C242D752D492D0B2E85
:100130004F308A2ED42E4B2F822FB92FEC2F213007
:10014000DD0EE00ECF0ED30ED90E170FE40EE80E23
:10015000EE0EF20EF60EFC0E000F040F170F0A0F34
:100160000E0F120F3E114311481152115C11D5119F
:1001700066116E11761180118A119411A311AD11BF
:10018000D511B711C111CB110C94CF0E0C949E2B2D
:100190000C94011F0C94D9290C94000F0C94822FFD
:1001A0000C946E110C94D21B0C94E00E0C949A2AB1
:1001B0000C94BC0B0C9499240C94242D0C942E03B9
:1001C0000C94CB240C94B7110C9487020C949B02D2
:1001D0000C94D42E0C94FC0E0C94E1020C94661139
:1001E0000C94582C0C94E40E0C94C6030C945C11E3
:1001F0000C94A9020C94CC030C944E020C94020EA5
:100200000C94D00B0C94F0220C9401340C947611C5
:100210000C948A2E0C944B2F0C94040F0C944A1DB2
:100220000C94FF270C94A8290C94D51F0C9448110A
:100230000C94A3110C94E80E0C94170F0C94EC0B77
:100240000C94AF1C0C94CB110C9437270C94120F08
:100250000C9480110C9487200C946C2B0C947F26AA
:100260000C9494110C9484250C9431280C94D51181
:100270000C94391C0C943E110C94630B0C94752D4A
:100280000C94651C0C9421300C94B3210C94D30E67
:100290000C94BD220C94492D0C94BC230C94560B49
:1002A0000C941C1D0C944E1E0C94EE0E0C94341FDA
:1002B0000C94D90E0C94B51B0C948A110C940A0F53
:1002C0000C940B2E0C9443110C94AD110C944D26F0
:1002D0000C944D020C944F300C94DB1C0C94BA20FF
:1002E0000C94AD1D0C94F20E0C940E0F0C94F60EA3
:1002F0000C94640B0C94EC2F0C94DD0E0C9478028F
:100300000C94E5280C94C1110C9452110C94B92F43
:100310000200002100240027002A002D00300033B5
:100320000001010000040107010A0100002200256C
:100330000028002B002E00310034000201000005CF
:100340000108010B0100000A0B02090C0D0E080741
:100350000304010000000000000000000000000095
:10036000000000000000000000000000000000008D
:10037000001211100000000000000000000000004A
:10038000000000000000000000000001021020201A
:1003900008081020401020408002010201080402D9
:1003A000010102040810204080804020100804024F
:1003B00001800402018040201008040201080402A8
:1003C00001010204081020408001020408102040AE
:1003D00080000020002300260029002C002F00327E
:1003E00000000100000301060109010505050507DC
:1003F0000508080808020202020A0A0808040404A0
:1004000004010101010101010103030303030303CB
:1004100003040707070C0C0C0C0C0C0C0C0202025A
:100420000206060606060606060B0B0B0B0B0B0B4D
:100430000B00013411241FBECFEFD1E2DEBFCDBFD0
:1004400000E00CBF14E0A0E0B2E0E0EFF4E700E071
:100450000BBF02C007900D92AA39B107D9F729E066
:10046000AAE9B4E001C01D92AF3BB207E1F712E088
:10047000CAE1D2E000E006C021970109802FFE0109
:100480000E941A37C931D10780E00807A9F70E94F6
:1004900051130C94763A0C9400000895CF92DF9299
:1004A000EF92FF920F931F93CF93DF936C017A012A
:1004B0008B01C0E0D0E0CE15DF0581F0D8016D9151
:1004C0008D01D601ED91FC910190F081E02DC601E6
:1004D0001995892B11F02196EECF7E01C701DF918E
:1004E000CF911F910F91FF90EF90DF90CF900895E3
:1004F000FC01538D448D252F30E0842F90E0821B2A
:10050000930B541710F0CF96089501970895FC01AE
:10051000918D828D981761F0828DDF01A80FB11D3A
:100520005D968C91928D9F5F9F73928F90E008955E
:100530008FEF9FEF0895FC01918D828D981731F018
:10054000828DE80FF11D858D90E008958FEF9FEF6C
:100550000895FC01918D228D892F90E0805C9F4F42
:10056000821B91098F73992708958CE198E00E946E
:10057000A90221E0892B09F420E0822F0895FC01D3
:10058000848DDF01A80FB11DA35ABF4F2C91848D1C
:1005900090E001968F739927848FA689B7892C9351
:1005A000A089B1898C91837080648C93938D848DA4
:1005B000981306C00288F389E02D80818F7D8083A7
:1005C0000895EF92FF920F931F93CF93DF93EC0167
:1005D00081E0888F9B8D8C8D981305C0E889F989FF
:1005E000808185FD26C0F62E0B8D10E00F5F1F4F1A
:1005F0000F731127E02E8C8DE8120CC00FB607FC8C
:10060000FACFE889F989808185FFF5CFCE010E9474
:10061000BF02F1CF8B8DFE01E80FF11DE35AFF4FB2
:10062000F0829FB7F8940B8FEA89FB898081806202
:100630000AC09FB7F894EE89FF896083E889F98939
:1006400080818370806480839FBF81E090E0DF9130
:10065000CF911F910F91FF90EF900895CF93DF936B
:10066000EC01888D8823C9F0EA89FB89808185FDAA
:1006700005C0A889B9898C9186FD0FC00FB607FC0B
:10068000F5CF808185FFF2CFA889B9898C9185FF4C
:10069000EDCFCE010E94BF02E7CFDF91CF91089549
:1006A0000E94B502811125C080E090E0892B41F0C5
:1006B00080E090E0892B21F00E94000081111CC095
:1006C00080E090E0892B41F080E090E0892B21F0E0
:1006D0000E940000811113C080E090E0892BA1F0FE
:1006E00080E090E0892B81F00E94000081110AC017
:1006F00008950E94670BD8CF0E940000E1CF0E94AE
:100700000000EACF0C94000008950E94563A0F931F
:100710001F93CF93DF93EC0188819981009729F093
:100720002A813B812617370788F48B016F5F7F4F43
:100730000E947139009761F0998388831B830A8333
:100740002C813D81232B11F4FC01108281E001C03A
:1007500080E0DF91CF911F910F9108958091DA0889
:100760009091DB080C941B0C8091D8089091D908CB
:100770000C941B0C8091D6089091D7080C941B0CFC
:100780008091D4089091D5080C941B0C8091D208CC
:100790009091D3080C941B0C8091D0089091D108B3
:1007A0000C941B0CEF92FF920F931F93CF93DF9348
:1007B0006115710511F480E01CC041155105C1F0AF
:1007C0007B01EC018C819D818A01080F191FB80102
:1007D000CE010E948703882371F3288139818C819F
:1007E0009D81B701820F931F0E946F3A1D830C8376
:1007F00081E0DF91CF911F910F91FF90EF900895CD
:10080000CF93DF93EC0188819981009711F00E94CA
:10081000E838198218821D821C821B821A82DF919D
:10082000CF910895CF93DF93EC016115710561F0CD
:10083000FB0101900020E9F73197AF01461B570BF0
:100840000E94D203811103C0CE010E940004CE0198
:10085000DF91CF910895EF92FF920F931F93CF9363
:10086000DF93EC017B018A01BA010E9487038111A9
:1008700004C0CE010E94000407C01D830C83B70191
:10088000888199810E946F3ACE01DF91CF911F91AB
:100890000F91FF90EF900895CF93DF93EC016115D6
:1008A000710559F0FB0101900020E9F73197AF0184
:1008B000461B570B0E942B0402C00E940004CE016D
:1008C000DF91CF910895FC01118210821382128270
:1008D000158214826115710551F0FB010190002011
:1008E000E9F73197AF01461B570B0C942B04089581
:1008F0001F920F920FB60F9211240BB60F922F93E7
:100900003F934F935F936F937F938F939F93AF9397
:10091000BF93EF93FF93E0910F02F09110021995AE
:10092000FF91EF91BF91AF919F918F917F916F91C7
:100930005F914F913F912F910F900BBE0F900FBE83
:100940000F901F9018951F920F920FB60F921124BF
:100950000BB60F922F933F934F935F936F937F93B9
:100960008F939F93AF93BF93EF93FF93E0910D020B
:10097000F0910E021995FF91EF91BF91AF919F9168
:100980008F917F916F915F914F913F912F910F9038
:100990000BBE0F900FBE0F901F9018951F920F92D5
:1009A0000FB60F9211240BB60F922F933F934F93D4
:1009B0005F936F937F938F939F93AF93BF93EF93C7
:1009C000FF93E0910302F09104021995FF91EF91DA
:1009D000BF91AF919F918F917F916F915F914F9157
:1009E0003F912F910F900BBE0F900FBE0F901F9055
:1009F00018951F920F920FB60F9211240BB60F92FB
:100A00002F933F934F935F936F937F938F939F9316
:100A1000AF93BF93EF93FF93E0910102F091020235
:100A20001995FF91EF91BF91AF919F918F917F9118
:100A30006F915F914F913F912F910F900BBE0F904F
:100A40000FBE0F901F9018951F920F920FB60F9226
:100A500011240BB60F922F933F934F935F936F9395
:100A60007F938F939F93AF93BF93EF93FF93E09107
:100A70000B02F0910C021995FF91EF91BF91AF918C
:100A80009F918F917F916F915F914F913F912F91A6
:100A90000F900BBE0F900FBE0F901F9018951F92D6
:100AA0000F920FB60F9211240BB60F922F933F9314
:100AB0004F935F936F937F938F939F93AF93BF9366
:100AC000EF93FF93E0910902F0910A021995FF91CB
:100AD000EF91BF91AF919F918F917F916F915F91B6
:100AE0004F913F912F910F900BBE0F900FBE0F9023
:100AF0001F9018951F920F920FB60F9211240BB6EC
:100B00000F922F933F934F935F936F937F938F93A6
:100B10009F93AF93BF93EF93FF93E0910702F09100
:100B200008021995FF91EF91BF91AF919F918F911D
:100B30007F916F915F914F913F912F910F900BBEDD
:100B40000F900FBE0F901F9018951F920F920FB627
:100B50000F9211240BB60F922F933F934F935F93F5
:100B60006F937F938F939F93AF93BF93EF93FF9375
:100B7000E0910502F09106021995FF91EF91BF9166
:100B8000AF919F918F917F916F915F914F913F9125
:100B90002F910F900BBE0F900FBE0F901F901895C6
:100BA0001F920F920FB60F9211240BB60F922F9334
:100BB0003F934F935F936F937F938F939F93AF93E5
:100BC000BF93EF93FF9380919D0490919E04A09119
:100BD0009F04B091A004892B8A2B8B2B59F1909103
:100BE0009A04E0919B04F0919C0480818927808382
:100BF00080919D0490919E04A0919F04B091A004C7
:100C0000181619061A061B060CF056C080919D0492
:100C100090919E04A0919F04B091A0040197A10916
:100C2000B10980939D0490939E04A0939F04B09378
:100C3000A00442C080910002E0E1F3E0E4919FEF64
:100C400090930002E230C9F050F4EE2399F0E130C5
:100C500081F590916F009D7F90936F002AC0E430E2
:100C600019F1E0F0E53029F5909173009D7F9093A4
:100C700073001FC010926E001CC0909170009D7F89
:100C80009093700091E09093B0009091B100987FA4
:100C900094609093B1001092B3000BC090917100DA
:100CA0009D7F9093710005C0909172009D7F9093FD
:100CB000720060E00E948110FF91EF91BF91AF91AF
:100CC0009F918F917F916F915F914F913F912F9164
:100CD0000F900BBE0F900FBE0F901F9018956115CF
:100CE000710579F0FB0101900020E9F73197AF0120
:100CF000461B570BDC01ED91FC910280F381E02D46
:100D0000199480E090E008951F920F920FB60F9211
:100D100011240BB60F922F933F934F935F936F93D2
:100D20007F938F939F93AF93BF93EF93FF938CE148
:100D300098E00E94BF02FF91EF91BF91AF919F9108
:100D40008F917F916F915F914F913F912F910F9074
:100D50000BBE0F900FBE0F901F9018951F920F9211
:100D60000FB60F9211240BB60F922F938F939F9370
:100D7000EF93FF93E0912C08F0912D088081E09192
:100D80003208F091330882FD12C0908180913508BD
:100D90008F5F8F7320913608821751F0E0913508EC
:100DA000F0E0E45EF74F958F8093350801C08081B5
:100DB000FF91EF919F918F912F910F900BBE0F900C
:100DC0000FBE0F901F9018952F923F924F925F92F7
:100DD0006F927F928F929F92AF92BF92CF92DF924B
:100DE000EF92FF920F931F93CF93DF93CDB7DEB7B0
:100DF0002F970FB6F894DEBF0FBECDBF9F878E87AB
:100E00000E9406126D837E838F839887EE85FF850F
:100E100082A193A1A4A1B5A14D815E816F81788546
:100E2000481B590B6A0B7B0B86A597A5A0A9B1A9F6
:100E3000481759076A077B0708F40EC1048CF58D23
:100E4000E02D80819181A281B38189839A83AB83D4
:100E5000BC83AE85BF859096ED91FC9191972981D9
:100E60003A814B815C8160817181828193810E9492
:100E700036374B015C01EE85FF8522A533A544A5DD
:100E800055A569817A818B819C810E9436376B01DF
:100E90007C01AE85BF8550962D913D914D915C9121
:100EA0005397C501B4010E94ED35EE85FF8526A15B
:100EB00037A140A551A50E9437372B013C01AE85D3
:100EC000BF8596966D937D938D939C939997DB96B2
:100ED000BC91B987B11118C0EE85FF852485358591
:100EE00046855785C701B6010E94ED359B01AC01CF
:100EF000C301B2010E943637AE85BF8596966D93C9
:100F00007D938D939C939997EE85FF8546A057A07E
:100F100060A471A416A907A930AC21AC212F302FF1
:100F2000432D522DC301B2010E944B3818162CF4E8
:100F3000812F902FA32DB22D18C0AE85BF85D296DC
:100F40008D919D910D90BC91A02D8A879B87AC8738
:100F5000BD879C01AD01C301B2010E94873587FFA7
:100F60000AC08A859B85AC85BD85EE85FF8586A3F5
:100F700097A3A0A7B1A7F985FF2379F0AE85BF8518
:100F80001C962D913D914D915C911F97C501B40127
:100F90000E94ED354B015C0103C0812C912C540162
:100FA000EE85FF852489358946895789C701B601B1
:100FB0000E94ED359B01AC01AE85BF8596966D9183
:100FC0007D918D919C9199970E943637A50194014E
:100FD0000E9437376B017C019B01AC01612F702FA0
:100FE000832D922D0E94873587FD14C0EE85FF85E5
:100FF00012A903A934A825A8212F302F432D522D43
:10100000B601C7010E94873587FD04C01C2D0D2D38
:101010003E2C2F2CAE85BF855E96ED91FC915F979F
:10102000812F902FA32DB22D80839183A283B38330
:1010300089819A81AB81BC81EE85FF8582A793A7C8
:10104000A4A7B5A78D819E81AF81B88582A393A304
:10105000A4A3B5A381E001C080E02F960FB6F89459
:10106000DEBF0FBECDBFDF91CF911F910F91FF90DB
:10107000EF90DF90CF90BF90AF909F908F907F9038
:101080006F905F904F903F902F9008958F929F9216
:10109000AF92BF92CF92DF92EF92FF92CF93DF9306
:1010A000EC01EE8DFF8DC080D180E280F380CEA276
:1010B000DFA2E8A6F9A6EC8DFD8D80819181A28149
:1010C000B3818AA79BA7ACA7BDA78EA89FA8A8ACF1
:1010D000B9ACA5019401C701B6010E944B3818169E
:1010E00064F08AA89BA8ACA8BDA8A5019401C7017B
:1010F000B6010E94873587FF04C08EA29FA2A8A6D2
:10110000B9A6DF91CF91FF90EF90DF90CF90BF9085
:10111000AF909F908F9008950E94061260931008E0
:1011200070931108809312089093130880E008953B
:10113000CF92DF92EF92FF920F931F93611571058B
:101140008105910541F41F910F91FF90EF90DF9081
:10115000CF900C948C086B017C010E9406120091C8
:101160001008109111082091120830911308DC0129
:10117000CB01801B910BA20BB30B21E0C816D90643
:10118000EA06FB0608F020E0822F1F910F91FF90E6
:10119000EF90DF90CF9008958F929F92AF92BF9281
:1011A000EF92FF920F931F93CF93DF93C82FD0E05E
:1011B0008E01000F111F0A55184FF801208131814F
:1011C0002115310521F021303105A1F16FC00E94B8
:1011D0005810009719F00197A1F16BC00E940612F8
:1011E0009E01220F331F220F331FA9014E52594F68
:1011F0007A01FA0180809180A280B380DC01CB016A
:1012000088199909AA09BB090697A105B10508F42F
:1012100050C081E090E0F80191838083C75FD94F8F
:1012200088830E940612F70160837183828393830F
:1012300081E040C00E945810009719F0019771F0AA
:1012400038C00E940612CC0FDD1FCC0FDD1FCE521E
:10125000D94F688379838A839B832BC00E940612AF
:101260009E01220F331F220F331FA9014E52594FE7
:101270007A01FA0180809180A280B380DC01CB01E9
:1012800088199909AA09BB090697A105B10588F033
:10129000F80111821082C75FD94F18820E9406128E
:1012A000F701608371838283938303C0F801118205
:1012B000108280E0DF91CF911F910F91FF90EF900E
:1012C000BF90AF909F908F90089561E089EB98E078
:1012D0000E94FA0D8BE39FE10197F1F70895CF92F9
:1012E000DF92EF92FF920F931F93CF93DF93CDB7CF
:1012F000DEB728970FB6F894DEBF0FBECDBF8A01C8
:10130000C0901702D0901802E0901902F0901A02D3
:10131000CD82DE82EF82F886C0901B02D0901C0244
:10132000E0901D02F0901E02C982DA82EB82FC82FC
:101330009091C008691710F06FEF690F4091C108D4
:10134000262F30E0FE01E20FF31F403121F49430EC
:1013500011F4618101C06581680F606889EB98E0D4
:101360000E94FA0DB80189EB98E028960FB6F89420
:10137000DEBF0FBECDBFDF91CF911F910F91FF90C8
:10138000EF90DF90CF900C946F06AF92BF92CF9208
:10139000DF92EF920F931F93CF935B016A01C22FED
:1013A000AC0160E080E00E946F09A50160E088E088
:1013B0000E946F09A60161E08C2F0E946F09A801AD
:1013C00061E08E2DCF911F910F91EF90DF90CF9024
:1013D000BF90AF900C946F0920E042E060E189EB90
:1013E00098E00E94020E62E089EB98E00E94FA0DFC
:1013F0008BE39FE10197F1F70E94650946EC52E00B
:1014000060E080E00E946F0947ED52E061E080E01B
:101410000E946F09109269061092680662E08BE2E2
:101420000E94B01062E08DE20E94B01062E08FE294
:101430000E94B01062E081E30E94B01062E083E39A
:101440000E94B0100E948C08E3E5F6E082E0818300
:1014500084EF91E0968785878EE090E0908B878778
:1014600082E090E0928B818B8EE0848389E182839D
:101470008AE083838EE190E0928781878CEF838B73
:1014800084E190E09087878308950F931F93E1EAAA
:10149000F4E080E090E040E050E0BA010481158182
:1014A00026813781400F511F621F731F41362AEE7C
:1014B00052076105710530F401963C968E31910515
:1014C00069F780E01F910F9108958F929F92AF92DC
:1014D000BF92CF92DF92EF92FF9281E090E09093E3
:1014E0006F0980936E092091190930E040E050E0C7
:1014F00060E67AEE80E090E00E94AB36CA01B90166
:101500000E948E356B017C0180902009909021090A
:10151000A0902209B0902309A50194010E94ED3505
:1015200060934E0970934F0980935009909351092D
:10153000A501940160E070E080E89FE30E943637E7
:10154000A70196010E94ED356093520970935309EB
:1015500080935409909355090E9406120E948C357D
:1015600020914E0930914F094091500950915109F5
:101570000E9437370E941C38609362097093630998
:10158000809364099093650920911C0930911D098D
:1015900040911E0950911F09A8EEB3E00E94CA367F
:1015A0000E948C3523E63FEB4FE356E40E94A337BD
:1015B00020E030E040E05DE30E94ED3520E030E4E3
:1015C00043E056E40E94ED352BED3FE049EC50E45A
:1015D0000E94A3376B017C0120E030E0A9010E944A
:1015E0004B3820E030E040E05FE387FD05C0C701F5
:1015F000B6010E94373704C0C701B6010E943637D2
:101600000E94153860934A0970934B0980934C09E6
:1016100090934D09FF90EF90DF90CF90BF90AF90E7
:101620009F908F9008958091B909823030F4F8949A
:101630008EEA99E00E941B0C01C0F8948091B509D4
:101640009091B609A091B709B091B80978948093A8
:10165000420990934309A0934409B0934509F89433
:101660001092B5091092B6091092B7091092B809F4
:1016700078944091460950914709609148097091CA
:1016800049098091420990914309A0914409B09180
:101690004509840F951FA61FB71F80934609909395
:1016A0004709A0934809B09349090895DC01ED91D9
:1016B000FC910684F785E02D41E0199581E090E0EA
:1016C000089508950895089580E090E00895CF93D7
:1016D000C1E08CE198E00E94A902892B09F44AC07C
:1016E0008CE198E00E9487028C3469F02CF48B32F4
:1016F00099F08D32E9F0EDCF8C3629F0853749F03D
:10170000853539F706C080916F068C2780936F0668
:10171000E0CFC0936A06DDCF80916B0690916C0696
:10172000A0916D06B0916E06C296A11DB11D10C0AC
:1017300080916B0690916C06A0916D06B0916E063B
:1017400083339105A105B10560F0C297A109B109E4
:1017500080936B0690936C06A0936D06B0936E0613
:10176000B8CF10926B0610926C0610926D06109214
:101770006E06AFCFCF910895FC0186898F3F79F037
:1017800021853285662319F0232B31F403C02130E3
:10179000310511F461E001C060E00C9481100895FE
:1017A000EF92FF921F93CF93DF93EC01162F7A01F4
:1017B00061E0812F0E94B0101E8BFA86E986E881D5
:1017C000F9810484F585E02D60E0CE01DF91CF91B1
:1017D0001F91FF90EF9019940F931F93CF93DF9376
:1017E000EC01162F042F61E0413009F060E08B8599
:1017F0000E9481108C858F3F19F060E00E9481105B
:10180000023081F08C8184FF02C048E00CC0612F5F
:1018100070E084E0759567958A95E1F744E0CE0124
:101820000E94CC1244E0612FCE01DF91CF911F9135
:101830000F910C94CC12DC01ED91FD918081ED9122
:10184000FD919081ED91FD916C9163708E2309F073
:1018500064609F2309F06860E8E3FCE0E60FF11D97
:10186000659565956D936D917D918D919D9109948F
:1018700023C01AC012C016C010C01EC009C014C0B8
:1018800013C006C019C009C00DC007C00DC014C0E8
:1018900062507040804090400BC06150704080406A
:1018A000904006C06E5F01C06F5F7F4F8F4F9F4FAC
:1018B0009E938E937E936E930895CF93DF93CDB7CF
:1018C000DEB72C970FB6F894DEBF0FBECDBF809168
:1018D0003F06882331F0813009F083C161E974E06B
:1018E00002C064E574E08CE198E00E946F066091AC
:1018F0005206CE0107960E94EC0F6DE574E0CE0112
:1019000001960E946304BE01695F7F4FCE0101967C
:101910000E9419106BE574E00E9412040E949D0F52
:10192000CE0101960E94980FCE0107960E94980F53
:1019300060914206CE0107960E94EC0F61E674E0CA
:10194000CE0101960E946304BE01695F7F4FCE0104
:1019500001960E9419106BE574E00E9412040E9427
:101960009D0FCE0101960E94980FCE0107960E940E
:10197000980F60914306CE0107960E94EC0F65E632
:1019800074E0CE0101960E946304BE01695F7F4F3F
:10199000CE0101960E9419106BE574E00E941204BA
:1019A0000E949D0FCE0101960E94980FCE010796CE
:1019B0000E94980F60914406CE0107960E94EC0F9A
:1019C0006AE674E0CE0101960E946304BE01695F7D
:1019D0007F4FCE0101960E9419106BE574E00E94C2
:1019E00012040E949D0FCE0101960E94980FCE0115
:1019F00007960E94980F6091450670914606CE01A9
:101A000007960E94C00F6FE674E0CE0101960E9417
:101A10006304BE01695F7F4FCE0101960E941910D9
:101A20006BE574E00E9412040E949D0FCE010196A6
:101A30000E94980FCE0107960E94980F609147066A
:101A400070914806CE0107960E94C00F63E774E0CC
:101A5000CE0101960E946304BE01695F7F4FCE01F3
:101A600001960E9419106BE574E00E9412040E9416
:101A70009D0FCE0101960E94980FCE0107960E94FD
:101A8000980F6091490670914A06CE0107960E9410
:101A9000C00F67E774E0CE0101960E946304BE01A7
:101AA000695F7F4FCE0101960E9419106BE574E0CB
:101AB0000E9412040E949D0FCE0101960E94980F71
:101AC000CE0107960E94980F60914B0670914C06CC
:101AD000CE0107960E942C106BE774E0CE010196B0
:101AE0000E946304BE01695F7F4FCE0101960E9490
:101AF00019106BE574E00E9412040E949D0FCE0144
:101B000001960E94980FCE0107960E94980F60914F
:101B10004D0670914E06CE0107960E942C106FE77D
:101B200074E0CE0101960E946304BE01695F7F4F9D
:101B3000CE0101960E9419106BE574E00E94120418
:101B40000E949D0FCE0101960E94980FCE0107962C
:101B50000E94980F60914F0670915006CE01079633
:101B60000E942C1064E874E0CE0101960E94630488
:101B7000BE01695F7F4FCE0101960E9419106BE58F
:101B800074E00E9412040E949D0FCE0101960E94F3
:101B9000980FCE0107960E94980F60915106062E6D
:101BA000000C770BCE0107960E94C00F69E874E025
:101BB000CE0101960E946304BE01695F7F4FCE0192
:101BC00001960E9419106EE874E00E9412040E94AF
:101BD0009D0FCE0101960E94980FCE0107960E949C
:101BE000980F2C960FB6F894DEBF0FBECDBFDF91D5
:101BF000CF910895DC01ED91FC910684F785E02DED
:101C000040E019948F929F92AF92BF92CF92DF9251
:101C1000EF92FF920F931F93CF93DF93EC0142302B
:101C200018F08C8188608C834F836887222329F089
:101C3000413019F48C8184608C830E94E1116B0126
:101C40007C0184E6882E912CA12CB12C0E94E111FC
:101C5000DC01CB018C199D09AE09BF09883E934078
:101C6000A105B10598F321E0821A9108A108B108F5
:101C700088EEC80E83E0D81EE11CF11C811491048B
:101C8000A104B10419F76C8164FD31C0E881F981C8
:101C90000684F785E02D42E063E0CE0119958BE4E0
:101CA00096E40197F1F7E881F9810684F785E02D44
:101CB00042E063E0CE01199503E512E0C801019707
:101CC000F1F7E881F9810684F785E02D42E063E0D1
:101CD000CE011995C8010197F1F7E881F9810684D1
:101CE000F785E02D42E062E0CE01199517C06062F1
:101CF000CE010E94FA0D8BE496E40197F1F76C8116
:101D00006062CE010E94FA0D03E512E0C80101975E
:101D1000F1F76C816062CE010E94FA0DC801019753
:101D2000F1F76C816062CE010E94FA0D8BEE90E0BB
:101D30000197F1F784E08D836CE0CE010E94FA0DEB
:101D400061E0CE010E94FA0D8BE39FE10197F1F76C
:101D500082E08E8366E0CE010E94FA0DE881F9816F
:101D60000484F585E02D6FEFCE01DF91CF911F91B7
:101D70000F91FF90EF90DF90CF90BF90AF909F902A
:101D80008F90199490E0FC013197E231F10508F051
:101D90004EC08827E056FF4F8F4F0C941A37809122
:101DA00080008F7703C0809180008F7D80938000BA
:101DB000089580918000877FF9CF84B58F7702C026
:101DC00084B58F7D84BD08958091B0008F7703C066
:101DD0008091B0008F7D8093B00008958091900035
:101DE0008F7707C0809190008F7D03C08091900015
:101DF000877F8093900008958091A0008F7707C01F
:101E00008091A0008F7D03C08091A000877F809388
:101E1000A0000895809120018F7707C08091200154
:101E20008F7D03C080912001877F809320010895DA
:101E30008F929F92AF92BF92CF92DF92EF92FF92DA
:101E40000F931F93CF93DF93CDB7DEB7A1970FB654
:101E5000F894DEBF0FBECDBF6B017C0197FF2DC094
:101E60006DE28CE198E00E94E1028C012227332789
:101E7000A9012C193D094E095F0919A2CE018196CD
:101E80007C019AE0892E912CA12CB12CCA01B901B8
:101E9000A50194010E94D536605DF70162937F0130
:101EA000211531054105510589F7BF018CE198E005
:101EB0000E946F06080F191F20C09B01AC0119A2D8
:101EC0008E010F5D1F4F8AE0C82ED12CE12CF12C22
:101ED000CA01B901A70196010E94D536605DF801DB
:101EE00062938F01211531054105510589F7BF0125
:101EF0008CE198E00E946F068C016FE772E08CE144
:101F000098E00E946F06800F911FA1960FB6F8947B
:101F1000DEBF0FBECDBFDF91CF911F910F91FF901C
:101F2000EF90DF90CF90BF90AF909F908F900895EB
:101F3000FC01808191810C94E838FC014481558139
:101F4000608171818CE198E00C944E02FB01DC0110
:101F500011961C921E9213961C921E921297159621
:101F60001C921E9214978617970749F06081718121
:101F70006115710521F0448155810C942B0408955D
:101F80000F931F93CF93DF93CDB7DEB762970FB652
:101F9000F894DEBF0FBECDBF8C01CB01F8011182DA
:101FA000108213821282158214824AE0BE016F5F92
:101FB0007F4F0E945235BE016F5F7F4FC8010E9464
:101FC0004C0462960FB6F894DEBF0FBECDBFDF9112
:101FD000CF911F910F9108950F931F93CF93DF938C
:101FE000CDB7DEB729970FB6F894DEBF0FBECDBFD1
:101FF0008C01862FF80111821082138212821582C1
:1020000014824AE0BE016F5F7F4F90E00E945D3511
:10201000BE016F5F7F4FC8010E944C0429960FB626
:10202000F894DEBF0FBECDBFDF91CF911F910F910E
:102030000895CF93DF93EC01FB01448155816081CA
:1020400071810E94D203811103C0CE010E9400045D
:10205000CE01DF91CF9108950F931F93CF93DF931C
:10206000CDB7DEB761970FB6F894DEBF0FBECDBF18
:102070008C01CB01F8011182108213821282158229
:1020800014824AE0BE016F5F7F4F0E945D35BE0142
:102090006F5F7F4FC8010E944C0461960FB6F894A1
:1020A000DEBF0FBECDBFDF91CF911F910F9108957D
:1020B000CF93DF93282F30E0F901EB5BFC4F849145
:1020C000F901E557FC4FD491F901E551FC4FC4915A
:1020D000CC2391F081110E94C20EEC2FF0E0EE0FA4
:1020E000FF1FEF52FC4FA591B491EC91ED2381E0DD
:1020F00090E021F480E002C080E090E0DF91CF9199
:1021000008951F93CF93DF93282F30E0F901EB5B05
:10211000FC4F8491F901E557FC4FD491F901E55149
:10212000FC4FC491CC23C1F0162F81110E94C20E26
:10213000EC2FF0E0EE0FFF1FE55DFC4FA591B49191
:102140009FB7F894111104C08C91D095D82302C088
:10215000EC91DE2BDC939FBFDF91CF911F9108950F
:10216000CF93DF9390E0FC01E557FC4F2491FC01F5
:10217000E551FC4F8491882361F190E0880F991F0D
:10218000FC01EF5EFC4FC591D491FC01E55DFC4F75
:10219000A591B491611109C09FB7F89488812095E9
:1021A00082238883EC912E230BC0623061F49FB7A9
:1021B000F8948881322F309583238883EC912E2BDD
:1021C0002C939FBF06C08FB7F894E8812E2B2883ED
:1021D0008FBFDF91CF910895CF92DF92EF92FF9260
:1021E000CF93DF936B017C0120E030E0A9010E94D6
:1021F000873587FF06C0F7FAF094F7F8F09460E0AF
:1022000001C061E084E00E94811028EA36EC4FE0D2
:1022100051E4C701B6010E94A33720E030E04FE748
:1022200053E40E94ED350E9415386B017C01EB01EF
:1022300061E085E00E94B010209711F460E004C0D6
:10224000CF3FD10551F461E085E0DF91CF91FF9060
:10225000EF90DF90CF900C948110EAE4F3E0E491EA
:102260008E2F90E0FC013197E231F10508F09DC01E
:102270008827EE54FF4F8F4F0C941A3784B580682F
:1022800084BDC7BC97C084B5806284BDC8BC92C001
:1022900080918000806880938000D0928900C092F5
:1022A000880088C080918000806280938000D092F6
:1022B0008B00C0928A007EC08091800088608093ED
:1022C0008000D0928D00C0928C0074C08091B000CC
:1022D00080688093B000C092B3006CC08091B00061
:1022E00080628093B000C092B40064C0809190007E
:1022F000806880939000D0929900C09298005AC054
:1023000080919000806280939000D0929B00C09258
:102310009A0050C080919000886080939000D09285
:102320009D00C0929C0046C08091A0008068809370
:10233000A0008091A0008F7B8093A000D092A90084
:10234000C092A80037C08091A00080628093A00056
:10235000D092AB00C092AA002DC08091A0008860EE
:102360008093A000D092AD00C092AC0023C08091B9
:102370002001806880932001D0922901C092280119
:1023800019C080912001806280932001D0922B019E
:10239000C0922A010FC080912001886080932001A3
:1023A000D0922D01C0922C0105C0C038D1050CF08F
:1023B0004ACF44CFDF91CF91FF90EF90DF90CF9045
:1023C00008953FB7F8948091180890911908A0914A
:1023D0001A08B0911B0826B5A89B05C02F3F19F01D
:1023E0000196A11DB11D3FBFBA2FA92F982F882795
:1023F000820F911DA11DB11DBC01CD0142E0660FF0
:10240000771F881F991F4A95D1F708952FB7F89421
:102410006091140870911508809116089091170822
:102420002FBF08954F925F926F927F928F929F92EB
:10243000AF92BF92CF92DF92EF92FF920F931F93D2
:10244000CF93DF93CDB7DEB74C01DC015F965C9391
:102450004E935E975D967C936E935C9791963C93BA
:102460002E939097DA961C92FC0112AA13AA14AA32
:1024700015AA80E090E0AFE7B3E486AB97ABA0AFDE
:10248000B1AF84E690E0A0E0B0E086A797A7A0AB4C
:10249000B1AB118E108E20E030E0A901C801B70168
:1024A0000E94873587FD56C020E030E0A901C601B3
:1024B000B5010E94873587FD4DC020E030E0A901BD
:1024C0006C897D898E899F890E94873587FD42C0EE
:1024D00081E090E0D4015B969C938E935A97DB96B3
:1024E0008C93DB97F401E082F182028313831496CC
:1024F000AD92BD92CD92DC9217978C899D89AE8961
:10250000BF8980879187A287B387D4011C96ED92FB
:10251000FD920D931C931F972DEC3CEC4CEC5DE36E
:10252000C601B5010E94ED35F401608B718B828B81
:10253000938B2DEC3CEC4CEC5DE36C897D898E89B2
:102540009F890E94A337D40154966D937D938D93F8
:102550009C9357970E940612F401C6A4D7A4E0A842
:10256000F1A8DC01CB018C199D09AE09BF0982A33A
:1025700093A3A4A3B5A3DF91CF911F910F91FF90D7
:10258000EF90DF90CF90BF90AF909F908F907F9013
:102590006F905F904F900895AF92BF92CF92DF926D
:1025A000EF92FF920F931F93CF93DF938C015C0107
:1025B0008EE0A80EB11CC42ED12CC0E0D0E0E62ED7
:1025C000F12CCC15DD0579F0B7010C2E02C0759504
:1025D00067950A94E2F76170F50181915F010E94AD
:1025E00081102196EECF61E0F80185850E9481106F
:1025F00060E0F8018585DF91CF911F910F91FF90E9
:10260000EF90DF90CF90BF90AF900C9481101F920D
:102610000F920FB60F9211242F933F938F939F9396
:10262000AF93BF938091140890911508A09116085C
:10263000B09117083091BA0923E0230F2D3720F409
:102640000196A11DB11D05C026E8230F0296A11D0C
:10265000B11D2093BA098093140890931508A09394
:102660001608B09317088091180890911908A09146
:102670001A08B0911B080196A11DB11D809318087E
:1026800090931908A0931A08B0931B08BF91AF91BB
:102690009F918F913F912F910F900FBE0F901F90A0
:1026A0001895CF93DF93CDB7DEB7A8970FB6F89400
:1026B000DEBF0FBECDBF789484B5826084BD84B583
:1026C000816084BD85B5826085BD85B5816085BD2D
:1026D00080916E00816080936E00109281008091E5
:1026E000810082608093810080918100816080936D
:1026F0008100809180008160809380008091B10092
:1027000084608093B1008091B00081608093B000BC
:10271000809191008260809391008091910081600E
:1027200080939100809190008160809390008091CF
:10273000A10082608093A1008091A10081608093BC
:10274000A1008091A00081608093A0008091210170
:102750008260809321018091210181608093210119
:102760008091200181608093200180917A008460B3
:1027700080937A0080917A00826080937A008091C1
:102780007A00816080937A0080917A0080688093DB
:102790007A001092C1000E94EC09109298061092E3
:1027A00097061092190910921B0910921A0910929B
:1027B00020091092210910922209109223091092E7
:1027C00024091092250910922609109227091092C7
:1027D000280910922A0910922B0910922C091092A4
:1027E0002D0910922E0910922F0910923009109283
:1027F0003109109232091092330910923409109263
:102800003509109236091092370910923809109242
:10281000390910923A0910923B0910923C09109222
:102820003D0910923E0910923F0910924009109202
:1028300041091092420910924309109244091092E2
:1028400045091092460910924709109248091092C2
:10285000490910924A0910924B0910924C091092A2
:102860004D0910924E0910924F0910925009109282
:102870005109109252091092530910925409109262
:102880005509109256091092570910925809109242
:10289000590910925A0910925B0910925C09109222
:1028A0005D0910925E0910925F0910926009109202
:1028B00061091092620910926309109264091092E2
:1028C00065091092660910926709109268091092C2
:1028D000690910926A0910926B0910926C091092A2
:1028E0006D0910926F0910926E0910927009109282
:1028F00071098091AC09811104C082E799E00E94BE
:10290000460881E08093AC0936E8C32E36EED32E1C
:102910003CE0E32E31ECF32EC092A409D092A5093D
:10292000E092A609F092A70946E8442E46EE542EFE
:102930004CE0642E41E4742E4092A8095092A909FB
:102940006092AA097092AB090091900910919109C7
:10295000D8018D909D90AD90BC90A3019201C501CE
:10296000B4010E944B38181634F4F80140825182A9
:102970006282738210C026E836EE4CE051ECC5014D
:10298000B4010E94873587FF06C0D801CD92DD9241
:10299000ED92FC9213978090980990909909A090DD
:1029A0009A09B0909B09C090A809D090A909E0901D
:1029B000AA09F090AB09A7019601C501B4010E94D4
:1029C0004B38181684F0C090A409D090A509E09067
:1029D000A609F090A709A7019601C501B4010E94BC
:1029E000873587FF08C0C0929809D0929909E09274
:1029F0009A09F0929B096091A0097091A1098091B8
:102A0000A2099091A3090E948C359B01AC0160E062
:102A100070E088EC92E40E94A3376B017C019B017B
:102A2000AC01609182097091830980918409909131
:102A300085090E94ED356093820970938309809324
:102A4000840990938509A701960160918609709188
:102A5000870980918809909189090E94A337609322
:102A6000860970938709809388099093890984E681
:102A700090E0A0E0B0E08093A0099093A109A0931A
:102A8000A209B093A30980911609811104C08CEDAD
:102A900098E00E94460881E080931609C12CD12C51
:102AA00090EAE92E90E4F92EC0920E09D0920F0917
:102AB000E0921009F0921109412C512C2CE0622E69
:102AC00022E4722E40921209509213096092140966
:102AD000709215090091FA081091FB08F8018080A6
:102AE0009180A280B380A3019201C501B4010E942C
:102AF0004B3818163CF4D8014D925D926D927C9241
:102B000013970FC020E030E040EA50E4C501B40163
:102B10000E94873587FF05C0F801C082D182E2821A
:102B2000F3828090020990900309A0900409B0906C
:102B30000509C0901209D0901309E0901409F09093
:102B40001509A7019601C501B4010E944B3818165A
:102B500084F0C0900E09D0900F09E0901009F09019
:102B60001109A7019601C501B4010E94873587FFAD
:102B700008C0C0920209D0920309E0920409F092C1
:102B8000050960910A0970910B0980910C099091D7
:102B90000D090E948C359B01AC0160E070E088EC6F
:102BA00092E40E94A3376B017C019B01AC01609110
:102BB000EC087091ED088091EE089091EF080E946A
:102BC000ED356093EC087093ED088093EE089093D8
:102BD000EF08A70196016091F0087091F1088091CB
:102BE000F2089091F3080E94A3376093F008709365
:102BF000F1088093F2089093F30884E690E0A0E057
:102C0000B0E080930A0990930B09A0930C09B0934C
:102C10000D0961E085E00E94B01061E084E00E944F
:102C2000B01060E086E00E94B010809100028B300E
:102C300021F08F3F09F0A0C104C0E0E1F3E014915E
:102C4000E3C08BE080930002E0E1F3E0E491EF3F2A
:102C500009F492C1E23009F46CC040F5EE2309F4A6
:102C60004FC0E13009F0CFC0109280001092810077
:102C700080918100886080938100809181008160D3
:102C800080938100E6EFF3E0E491F0E0EE0FFF1FA8
:102C9000E55DFC4F85919491E6E9F3E0E491E093E2
:102CA000730661E08BE00E94B010BDC0E43009F40F
:102CB00088C008F464C0E53009F0A5C01092200176
:102CC00010922101809121018860809321018091DF
:102CD0002101816080932101E6EFF3E0E491F0E0CF
:102CE000EE0FFF1FE55DFC4F85919491E6E9F3E05F
:102CF000E491E093700661E08BE00E94B010C5C0E3
:102D000014BC15BC84B5826084BD85B5816085BD69
:102D1000E6EFF3E0E491F0E0EE0FFF1FE55DFC4F1E
:102D200085919491E6E9F3E0E491E093740610E074
:102D30006DC01092B0001092B1008091B00082601E
:102D40008093B0008091B10081608093B100E6EF84
:102D5000F3E0E491F0E0EE0FFF1FE55DFC4F85919D
:102D6000949190939C0480939B04E6E9F3E0E491B2
:102D7000E0939A0461E08BE00E94B0109BC0109237
:102D80009000109291008091910088608093910052
:102D900080919100816080939100E6EFF3E0E491EF
:102DA000F0E0EE0FFF1FE55DFC4F85919491E6E9A1
:102DB000F3E0E491E093720661E08BE00E94B010D2
:102DC00052C01092A0001092A1008091A1008860D2
:102DD0008093A1008091A10081608093A100E6EF23
:102DE000F3E0E491F0E0EE0FFF1FE55DFC4F85910D
:102DF0009491E6E9F3E0E491E093710661E08BE001
:102E00000E94B01039C01E2F17FDB6C061E08BE0E4
:102E10000E94B010112311F40C94A731123009F460
:102E200049C01130F1F480918100887F81608093E6
:102E300081008FE79EE3909389008093880084EF60
:102E400091E0A0E0B0E08093810690938206A09389
:102E50008306B093840680916F00826080936F0038
:102E60008BC0133039F480919100887F816080930A
:102E700091003BC0143039F48091A100887F8160BB
:102E80008093A1004AC0153039F480912101887FD8
:102E900081608093210159C0133039F12CF4123034
:102EA00009F06AC08FE70DC01430B9F1153009F48C
:102EB0004CC062C08091B100887F84608093B10073
:102EC00089EF8093B30084EF91E0A0E0B0E08093BD
:102ED0009D0490939E04A0939F04B093A0048091BE
:102EE000700082608093700047C08FE79EE39093EC
:102EF00099008093980084EF91E0A0E0B0E0809387
:102F00007D0690937E06A0937F06B0938006809105
:102F100071008260809371002FC08FE79EE39093D1
:102F2000A9008093A80084EF91E0A0E0B0E0809336
:102F3000790690937A06A0937B06B0937C068091E5
:102F4000720082608093720017C08FE79EE39093B7
:102F500029018093280184EF91E0A0E0B0E0809304
:102F6000750690937606A0937706B09378068091C5
:102F70007300826080937300E0912C08F0912D081B
:102F800082E08083E0912808F09129081082E09186
:102F90002A08F0912B0880E1808310923408E09198
:102FA0003008F091310886E08083E0912E08F0919E
:102FB0002F08808180618083E0912E08F0912F0896
:102FC000808188608083E0912E08F0912F088081B5
:102FD00080688083E0912E08F0912F0880818F7D9A
:102FE000808310926F0610926A0684E690E0A0E05B
:102FF000B0E080936B0690936C06A0936D06B0933F
:103000006E0661E08DE00E94B01066246394712C1E
:1030100052E0252E312C65E0462E512C86E00E9490
:10302000581021E0892B09F420E0209318090E9410
:10303000130B60914609709147098091480990915E
:1030400049090E94180F8091910690919206823052
:103050009105C9F030F4009771F0019709F481C02F
:1030600083C28430910509F49FC108F44EC10597CD
:1030700009F45FC279C210926F0910926E09309202
:1030800092062092910680916E0990916F090297A5
:1030900011F533E0C32ED12CD0926F09C0926E0986
:1030A0000E9406120E948C352091520930915309DA
:1030B00040915409509155090E9437370E941C389D
:1030C0006093660970936709809368099093690912
:1030D00081E08093700980911809882331F08091F4
:1030E0006E0990916F09892B69F080914609909142
:1030F0004709A0914809B0914909181619061A06FE
:103100001B062CF467EA7AE086EE90EC0DC265E4CB
:1031100072E08CE198E00E946F0660914609709120
:10312000470980914809909149090E94180F60E071
:1031300070E0CB010E94EC1080916E0990916F09B4
:10314000892B51F40E94130B1092460910924709E3
:103150001092480910924909709292066092910665
:103160000FC210913E06112309F467C080914206F8
:103170008093190980914B0690914C06A0E0B0E035
:1031800080931C0990931D09A0931E09B0931F09F9
:103190006091400670E080E090E00E948C3520E075
:1031A00030E048EC52E40E94A3376093200970930A
:1031B000210980932209909323096091410670E0D0
:1031C00080E090E00E948C3520E030E048EC52E452
:1031D0000E94A337609324097093250980932609E0
:1031E000909327096091450670914606072E000CC2
:1031F000880B990B0E948E356093360970933709BE
:10320000809338099093390980913F06809328096B
:10321000209151068091BE069091BF06820F911DAC
:1032200027FD9A9521E04091B8065091B9064817BC
:1032300059070CF020E02093290980916E099091A4
:103240006F099C012350310922303105F0F424E04C
:10325000E22EF12CF0926F09E0926E090E940612A4
:1032600000916609109167092091680930916909F8
:10327000601771078207930710F00C94C03180919A
:10328000290981110C94C0317BC1892B09F078C1C7
:10329000112309F475C184E0E82EF12CF0926F0936
:1032A000E0926E0980912809811124C0E3E0F0E0EA
:1032B000F0939206E093910663C10E9415387093D3
:1032C000C3066093C206C092C406D092C506E092BF
:1032D000C606F092C7060E94061260936A097093B0
:1032E0006B0980936C0990936D0980912809982F40
:1032F0009D7FE1F2813009F02FCF94E0C92ED12CCF
:10330000D0929206C09291063BC180916E09909135
:103310006F09049791F40E94650A67E572E08CE1F9
:1033200098E00E946F0660914A0970914B09809164
:103330004C0990914D090E94180F409146095091F7
:103340004709609148097091490980914A09909113
:103350004B09A0914C09B0914D09481759076A07CC
:103360007B0714F00C9438330E9406120091620916
:103370001091630920916409309165096017710704
:103380008207930710F00C9438332091B8063091DF
:10339000B90680914706909148062817390714F41A
:1033A0000C9458320C94383380916E0990916F09C7
:1033B000049711F40E94650A0E94061200916209A6
:1033C00010916309209164093091650960177107B4
:1033D0008207930710F00C948633809146099091F0
:1033E0004709A0914809B091490980349B40A10543
:1033F000B10514F00C9486336091B8067091B9064B
:10340000072E000C880B990B0E948E3560933A09A9
:1034100070933B0980933C0990933D098091160974
:10342000882321F08CED98E00E94E40620913E096B
:1034300030913F094091400950914109609136090E
:103440007091370980913809909139090E94363777
:103450006B017C0120E030E0A9010E944B38181676
:1034600014F00C94C433C701B6010E941538A5E0CE
:10347000B0E09B01AC010E94CA3623E230E040E09C
:1034800050E00E94AB36CA01B9016D5F7F4F8F4F8C
:103490009F4F0E948E354B015C0120E030E0A90176
:1034A000C701B6010E944B38A501940187FF02C0F5
:1034B0000C94C933609132097091330980913409B9
:1034C000909135090E943737609332097093330920
:1034D0008093340990933509C0903209D090330914
:1034E000E0903409F090350920E030E040EA50E403
:1034F000C701B6010E94873587FD02C00C94D53301
:1035000080E090E0A0EAB0E4809332099093330920
:10351000A0933409B0933509609132097091330951
:1035200080913409909135090E94EC100E94130B90
:1035300027C00E9406120091620910916309209130
:10354000640930916509601771078207930738F4A1
:1035500060E070E0CB010E94EC100C94BE3330921E
:103560009206209291060CC06CE672E08CE198E025
:103570000E946F066FE772E08CE198E00E946F0690
:10358000809170098823E1F0109270098091B00653
:103590009091B1061092B1061092B0069093BB06BE
:1035A0008093BA068091B206882351F01092B20639
:1035B0008091B3069091B4069093BD068093BC06AB
:1035C00080917109882381F0109271098091B2066F
:1035D000882351F01092B2068091B3069091B40600
:1035E0009093BF068093BE068091970690919806AF
:1035F0008130910559F198F0029709F0A6C0109218
:103600009806109297061092AF061092AE06E9E95E
:10361000F6E02DEA36E0DF0180E090E053C00E9442
:103620000612009193061091940620919506309110
:103630009606DC01CB01801B910BA20BB30BC39749
:10364000A105B10508F481C00C94E73330929806C7
:103650002092970680917B00877F80937B0080E497
:1036600080937C0080917A00806480937A008091BE
:103670007A0086FDFCCF209178008091790030E0BF
:10368000382BC901A0E0B0E09C01AD012C5C3109F0
:1036900041095109A8E5B2E00E94CA3623E333E0AC
:1036A00040E050E00E94AB36E091AD06F0E0EE0F56
:1036B000FF1FE756F94F318320833093B9062093DB
:1036C000B80643C04D915D91840F951F2A173B07A3
:1036D000C9F76AE070E00E9406377093AF06609306
:1036E000AE068091AD0690E0DC01AA0FBB1FA75685
:1036F000B94F0D90BC91A02D4091B0065091B106EC
:103700004A175B070CF4AD015093B1064093B00625
:1037100041915191461B570B57FF03C0519541955D
:1037200051094B30510554F42E173F0789F721E01A
:103730002093B2067093B4066093B30601966AE0D4
:1037400070E00E9406378093AD061982E09168060A
:10375000F0916906E732F10510F00C94603088278B
:10376000EE58FF4F8F4F0C941A378FE20E94CC080F
:10377000882311F40C9464300E94650942E852E0F9
:1037800060E080E00E946F0943E952E061E080E080
:103790000E946F0970926906609268060E948C0808
:1037A0000C9464308BE20E94CC08882371F044EAC8
:1037B00052E061E080E00E946F0943E050E05093E6
:1037C0006906409368060C9464308DE20E94CC0830
:1037D000882361F045EB52E061E080E00E946F09D0
:1037E00030926906209268060C94643081E30E944E
:1037F000CC08882369F082E08093540684E290E04C
:1038000090936906809368060E948C080C9464303B
:1038100083E30E94CC08882391F046EC52E060E0FC
:1038200080E00E946F0947ED52E061E080E00E9475
:103830006F0910926906109268060C94643064EF68
:1038400071E080E090E00E949808882311F40C94C5
:10385000643084E090E0909369068093680648EEB7
:1038600052E061E080E00E946F090E948C080C9495
:1038700064308BE20E94CC08811199CF8DE20E94C6
:10388000CC088111A7CF81E30E94CC088111B3CF6E
:1038900083E30E94CC088111C0CF6AEF70E080E022
:1038A00090E00E949808882311F40C94643043E956
:1038B00052E061E080E00E946F09709269066092B8
:1038C00068060E948C080C9464308BE20E94CC083D
:1038D000882361F043E952E061E080E00E946F09D3
:1038E00070926906609268060C9464308DE20E94C2
:1038F000CC0881115CCF81E30E94CC08882391F031
:1039000045EB52E061E080E00E946F09109254069E
:1039100087E090E090936906809368060E948C0887
:103920000C94643083E30E94CC08811176CF64EF5D
:1039300071E080E090E00E949808882311F40C94D4
:103940006430509269064092680648EE52E061E0A9
:1039500080E00E946F090E948C080C9464308BE216
:103960000E94CC088111B6CF8DE20E94CC08811153
:103970001ECF81E30E94CC088111C2CF83E30E9455
:10398000CC0881114ACF6AEF70E080E090E00E949D
:103990009808882311F40C946430309269062092C0
:1039A000680645EB52E061E080E00E946F090E94EA
:1039B0008C080C9464308BE20E94CC0881110ACFF1
:1039C0008DE20E94CC08811185CF81E30E94CC0852
:1039D000882399F044EA52E061E080E00E946F0998
:1039E00081E08093540687E090E09093690680938D
:1039F00068060E948C080C94643083E30E94CC0813
:103A000081110BCF64EF71E080E090E00E94980894
:103A1000882311F40C94643086E090E0909369065A
:103A20008093680648EE52E061E080E00E946F09F2
:103A30000E948C080C9464308BE20E94CC088111A7
:103A4000C9CE8DE20E94CC08811144CF81E30E944F
:103A5000CC088111BFCF83E30E94CC088111DDCE59
:103A60006AEF70E080E090E00E949808882311F4EB
:103A70000C946430A3E0B0E0B0936906A0936806AC
:103A800044EA52E061E080E00E946F090E948C08E5
:103A90000C94643064EF71E080E090E00E9498083C
:103AA000882311F40C94643080915406813049F5D8
:103AB0000E94650949EF52E060E080E00E946F09D2
:103AC0004AE0BE016F5F7F4F80915A0690915B067E
:103AD0000E9452356AE073E0CE0101960E94643A7A
:103AE000AE014F5F5F4F61E080E00E946F098BE0A5
:103AF00090E090936906809368060E948C080C946D
:103B0000643081110C9464300E94650941E153E0F6
:103B100060E080E00E946F094AE0BE016F5F7F4F66
:103B200080916006909161060E94523562E273E0D6
:103B3000CE0101960E94643AAE014F5F5F4F61E093
:103B400080E00E946F0988E090E09093690680937E
:103B500068060E948C080C9464308BE20E94CC08AA
:103B6000882341F180915A0690915B068832910535
:103B700014F4019602C088E290E090935B06809373
:103B80005A064AE0BE016F5F7F4F80915A069091BE
:103B90005B060E9452356AE073E0CE0101960E94F6
:103BA000643AAE014F5F5F4F61E080E00E946F09B1
:103BB0000C9464308DE20E94CC08882351F18091EE
:103BC0005A0690915B068630910534F001979093E8
:103BD0005B0680935A0604C070925B0660925A0698
:103BE0004AE0BE016F5F7F4F80915A0690915B065D
:103BF0000E9452356AE073E0CE0101960E94643A59
:103C0000AE014F5F5F4F61E080E00E946F090C944E
:103C1000643081E30E94CC08882309F14AE0BE01A8
:103C20006F5F7F4F80915A0690915B060E945235DC
:103C30006AE073E0CE0101960E94643AAE014F5FE4
:103C40005F4F61E080E00E946F098DE090E090930B
:103C50006906809368060E948C080C94643083E3A4
:103C60000E94CC08811188CD64EF71E080E090E083
:103C70000E949808882311F40C9464308CE090E042
:103C8000909369068093680648EE52E061E080E018
:103C90000E946F090E948C080C9464308BE20E9491
:103CA000CC08882349F180915A0690915B068832AE
:103CB00091053CF420916006309161062F5F3F4FE3
:103CC00002C028E230E030936106209360064AE0AB
:103CD000BE016F5F7F4F0E9452356AE073E0CE01F4
:103CE00001960E94643AAE014F5F5F4F61E080E051
:103CF0000E946F090C9464308DE20E94CC088823E6
:103D000051F180916006909161068630910530F006
:103D10000197909361068093600604C050926106FB
:103D2000409260064AE0BE016F5F7F4F80915A0665
:103D300090915B060E9452356AE073E0CE010196D5
:103D40000E94643AAE014F5F5F4F61E080E00E94E5
:103D50006F090C94643081E30E94CC08882309F138
:103D60004AE0BE016F5F7F4F80915A0690915B06DB
:103D70000E9452356AE073E0CE0101960E94643AD7
:103D8000AE014F5F5F4F61E080E00E946F098DE000
:103D900090E090936906809368060E948C080C94CA
:103DA000643083E30E94CC088111E6CC6AEF70E0B6
:103DB00080E090E00E949808882311F40C9464300D
:103DC0004AE0BE016F5F7F4F80915A0690915B067B
:103DD0000E9452356AE073E0CE0101960E94643A77
:103DE000AE014F5F5F4F61E080E00E946F098BE0A2
:103DF00090E090936906809368060E948C080C946A
:103E0000643064EF71E080E090E00E9498088823BD
:103E100011F40C9464300E94650945E253E060E0BF
:103E200080E00E946F094AE0BE016F5F7F4F809182
:103E30006206909163060E94523566E373E0CE01FC
:103E400001960E94643AAE014F5F5F4F61E080E0EF
:103E50000E946F098EE090E0909369068093680657
:103E60000E948C080C9464308BE20E94CC0888235A
:103E700049F180916006909161068032B3E09B0722
:103E800010F4C29602C080E293E0909361068093A2
:103E900060064AE0BE016F5F7F4F8091600690919F
:103EA00061060E94523562E273E0CE0101960E94E3
:103EB000643AAE014F5F5F4F61E080E00E946F099E
:103EC0000C9464308DE20E94CC08882349F18091E3
:103ED0006006909161068D32E1E09E0710F0C29776
:103EE00002C08CE291E090936106809360064AE004
:103EF000BE016F5F7F4F80916006909161060E94C6
:103F0000523562E273E0CE0101960E94643AAE013E
:103F10004F5F5F4F61E080E00E946F090C94643056
:103F200081E30E94CC08882309F14AE0BE016F5F5B
:103F30007F4F80916006909161060E94523562E247
:103F400073E0CE0101960E94643AAE014F5F5F4F6D
:103F500061E080E00E946F098AE090E0909369063A
:103F6000809368060E948C080C94643083E30E945E
:103F7000CC08811101CC64EF71E080E090E00E94F8
:103F80009808882311F40C94643089E090E09093B1
:103F900069068093680648EE52E061E080E00E9486
:103FA0006F090E948C080C9464308BE20E94CC084C
:103FB000882349F180916006909161068032F3E098
:103FC0009F0710F4C29602C080E293E090936106CE
:103FD000809360064AE0BE016F5F7F4F809160066C
:103FE000909161060E94523562E273E0CE01019623
:103FF0000E94643AAE014F5F5F4F61E080E00E9433
:104000006F090C9464308DE20E94CC08882349F13A
:1040100080916006909161068D3221E0920710F048
:10402000C29702C08CE291E0909361068093600693
:104030004AE0BE016F5F7F4F8091600690916106FC
:104040000E94523562E273E0CE0101960E94643A0A
:10405000AE014F5F5F4F61E080E00E946F090C94FA
:10406000643081E30E94CC08882309F14AE0BE0154
:104070006F5F7F4F80916006909161060E9452357C
:1040800062E273E0CE0101960E94643AAE014F5F96
:104090005F4F61E080E00E946F098AE090E09093BA
:1040A0006906809368060E948C080C94643083E350
:1040B0000E94CC08811160CB6AEF70E080E090E054
:1040C0000E949808882311F40C9464304AE0BE01E1
:1040D0006F5F7F4F80916006909161060E9452351C
:1040E00062E273E0CE0101960E94643AAE014F5F36
:1040F0005F4F61E080E00E946F0988E090E090935C
:104100006906809368060E948C080C94643064EF02
:1041100071E080E090E00E949808882311F40C94EC
:1041200064300E94650945E253E060E080E00E944F
:104130006F094AE0BE016F5F7F4F809162069091E8
:1041400063060E94523566E373E0CE0101960E9439
:10415000643AAE014F5F5F4F61E080E00E946F09FB
:104160008EE090E090936906809368060E948C0828
:104170000C9464308BE20E94CC08882341F180913A
:104180006206909163068031910510F4019602C099
:1041900080E190E090936306809362064AE0BE015E
:1041A0006F5F7F4F80916206909163060E94523547
:1041B00066E373E0CE0101960E94643AAE014F5F60
:1041C0005F4F61E080E00E946F090C9464308DE2E3
:1041D0000E94CC08882341F1809162069091630689
:1041E0008D30910510F0019702C08CE090E0909323
:1041F0006306809362064AE0BE016F5F7F4F809145
:104200006206909163060E94523566E373E0CE0128
:1042100001960E94643AAE014F5F5F4F61E080E01B
:104220000E946F090C94643081E30E94CC088823BB
:1042300009F14AE0BE016F5F7F4F80916206909165
:1042400063060E94523566E373E0CE0101960E9438
:10425000643AAE014F5F5F4F61E080E00E946F09FA
:1042600080E190E090936906809368060E948C0834
:104270000C94643083E30E94CC08882309F459C06D
:1042800080915406813049F50E94650949EF52E05A
:1042900060E080E00E946F094AE0BE016F5F7F4FDF
:1042A00080915A0690915B060E9452356AE073E055
:1042B000CE0101960E94643AAE014F5F5F4F61E00C
:1042C00080E00E946F098BE090E0909369068093F4
:1042D00068060E948C080C94643081110C94643040
:1042E0000E94650941E153E060E080E00E946F09AF
:1042F0004AE0BE016F5F7F4F80916006909161063A
:104300000E94523562E273E0CE0101960E94643A47
:10431000AE014F5F5F4F61E080E00E946F0988E06F
:1043200090E090936906809368060E948C080C9434
:10433000643064EF71E080E090E00E949808882388
:1043400011F40C9464308FE090E0909369068093B0
:10435000680648EE52E061E080E00E946F090E942A
:104360008C080C9464308BE20E94CC08882341F1C5
:1043700080916206909163068031910510F4019658
:1043800002C080E190E090936306809362064AE069
:10439000BE016F5F7F4F80916206909163060E941D
:1043A000523566E373E0CE0101960E94643AAE0195
:1043B0004F5F5F4F61E080E00E946F090C946430B2
:1043C0008DE20E94CC08882341F180916206909191
:1043D00063068D30910510F0019702C08CE090E0EB
:1043E00090936306809362064AE0BE016F5F7F4F41
:1043F00080916206909163060E94523566E373E0F5
:10440000CE0101960E94643AAE014F5F5F4F61E0BA
:1044100080E00E946F090C94643081E30E94CC0814
:10442000882309F14AE0BE016F5F7F4F80916206E9
:10443000909163060E94523566E373E0CE010196C7
:104440000E94643AAE014F5F5F4F61E080E00E94DE
:104450006F0980E190E090936906809368060E945E
:104460008C080C94643083E30E94CC08882309F400
:1044700059C080915406813049F50E94650949EF81
:1044800052E060E080E00E946F094AE0BE016F5F89
:104490007F4F80915A0690915B060E9452356AE0E8
:1044A00073E0CE0101960E94643AAE014F5F5F4F08
:1044B00061E080E00E946F098BE090E090936906D4
:1044C000809368060E948C080C94643081110C94CF
:1044D00064300E94650941E153E060E080E00E94A1
:1044E0006F094AE0BE016F5F7F4F80916006909137
:1044F00061060E94523562E273E0CE0101960E948D
:10450000643AAE014F5F5F4F61E080E00E946F0947
:1045100088E090E090936906809368060E948C087A
:104520000C94643064EF71E080E090E00E949808A1
:10453000882311F40C9464304AE0BE016F5F7F4F12
:1045400080916206909163060E94523566E373E0A3
:10455000CE0101960E94643AAE014F5F5F4F61E069
:1045600080E00E946F098EE090E09093690680934E
:1045700068060E948C080C94643064EF71E080E05F
:1045800090E00E949808882311F40C9464300E94F3
:1045900065094AE353E060E080E00E946F094AE069
:1045A000BE016F5F7F4F80916406909165060E9407
:1045B000523566E373E0CE0101960E94643AAE0183
:1045C0004F5F5F4F61E080E00E946F0981E190E002
:1045D00090936906809368060E948C080C9464305E
:1045E0008BE20E94CC08882351F18091640690915F
:1045F00065068530910530F40196909365068093A9
:10460000640604C050926506409264064AE0BE010A
:104610006F5F7F4F80916406909165060E945235CE
:1046200066E373E0CE0101960E94643AAE014F5FEB
:104630005F4F61E080E00E946F090C9464308DE26E
:104640000E94CC08882351F1809164069091650600
:104650008230910530F0019790936506809364064F
:1046600004C070926506609264064AE0BE016F5F06
:104670007F4F80916406909165060E94523566E3F3
:1046800073E0CE0101960E94643AAE014F5F5F4F26
:1046900061E080E00E946F090C94643081E30E9425
:1046A000CC08882309F14AE0BE016F5F7F4F8091FB
:1046B0006406909165060E94523566E373E0CE0170
:1046C00001960E94643AAE014F5F5F4F61E080E067
:1046D0000E946F0983E190E09093690680936806D9
:1046E0000E948C080C94643083E30E94CC088823D9
:1046F00049F10E94650945E253E060E080E00E94D4
:104700006F094AE0BE016F5F7F4F80916206909112
:1047100063060E94523566E373E0CE0101960E9463
:10472000643AAE014F5F5F4F61E080E00E946F0925
:104730008EE090E090936906809368060E948C0852
:104740000C94643064EF71E080E090E00E9498087F
:10475000882311F40C94643082E190E09093690610
:104760008093680648EE52E061E080E00E946F09A5
:104770000E948C080C9464308BE20E94CC08882341
:1047800051F180916406909165068530910530F471
:104790000196909365068093640604C05092650666
:1047A000409264064AE0BE016F5F7F4F80916406CD
:1047B000909165060E94523566E373E0CE01019642
:1047C0000E94643AAE014F5F5F4F61E080E00E945B
:1047D0006F090C9464308DE20E94CC08882351F15B
:1047E00080916406909165068230910530F00197C2
:1047F000909365068093640604C07092650660928B
:1048000064064AE0BE016F5F7F4F8091640690911D
:1048100065060E94523566E373E0CE0101960E9460
:10482000643AAE014F5F5F4F61E080E00E946F0924
:104830000C94643081E30E94CC08882309F14AE09B
:10484000BE016F5F7F4F80916406909165060E9464
:10485000523566E373E0CE0101960E94643AAE01E0
:104860004F5F5F4F61E080E00E946F0983E190E05D
:1048700090936906809368060E948C080C946430BB
:1048800083E30E94CC08882349F10E94650945E230
:1048900053E060E080E00E946F094AE0BE016F5F74
:1048A0007F4F80916206909163060E94523566E3C5
:1048B00073E0CE0101960E94643AAE014F5F5F4FF4
:1048C00061E080E00E946F098EE090E090936906BD
:1048D000809368060E948C080C94643064EF71E049
:1048E00080E090E00E949808882311F40C946430D2
:1048F0004AE0BE016F5F7F4F80916406909165062C
:104900000E94523566E373E0CE0101960E94643A3C
:10491000AE014F5F5F4F61E080E00E946F0981E16F
:1049200090E090936906809368060E948C080C942E
:10493000643064EF71E080E090E00E949808882382
:1049400011F40C9464300E9465094BE453E060E07C
:1049500080E00E946F09809157064AE0BE016F5FB8
:104960007F4F90E00E94523567EF72E0CE010196D2
:104970000E94643AAE014F5F5F4F61E080E00E94A9
:104980006F0984E190E090936906809368060E9425
:104990008C080C9464308BE20E94CC08882309F1C7
:1049A000809157068E3110F48F5F01C08EE18093A5
:1049B0005706809157064AE0BE016F5F7F4F90E037
:1049C0000E94523567EF72E0CE0101960E94643A70
:1049D000AE014F5F5F4F61E080E00E946F090C9471
:1049E00064308DE20E94CC08882309F1809157063B
:1049F000863010F0815001C085E080935706809189
:104A000057064AE0BE016F5F7F4F90E00E9452352B
:104A100067EF72E0CE0101960E94643AAE014F5FEB
:104A20005F4F61E080E00E946F090C94643081E385
:104A30000E94CC08882301F1809157064AE0BE010C
:104A40006F5F7F4F90E00E94523567EF72E0CE01BA
:104A500001960E94643AAE014F5F5F4F61E080E0D3
:104A60000E946F0986E190E0909369068093680642
:104A70000E948C080C94643083E30E94CC08882345
:104A800049F10E9465094AE353E060E080E00E943A
:104A90006F094AE0BE016F5F7F4F8091620690917F
:104AA00063060E94523567EF72E0CE0101960E94C4
:104AB000643AAE014F5F5F4F61E080E00E946F0992
:104AC00081E190E090936906809368060E948C08CB
:104AD0000C94643064EF71E080E090E00E949808EC
:104AE000882311F40C94643085E190E0909369067A
:104AF0008093680648EE52E061E080E00E946F0912
:104B00000E948C080C9464308BE20E94CC088823AD
:104B100009F1809157068E3110F48F5F01C08EE14C
:104B200080935706809157064AE0BE016F5F7F4F22
:104B300090E00E94523567EF72E0CE0101960E942C
:104B4000643AAE014F5F5F4F61E080E00E946F0901
:104B50000C9464308DE20E94CC08882309F1809186
:104B60005706863010F0815001C085E080935706CB
:104B7000809157064AE0BE016F5F7F4F90E00E9430
:104B8000523567EF72E0CE0101960E94643AAE01A1
:104B90004F5F5F4F61E080E00E946F090C946430CA
:104BA00081E30E94CC08882301F1809157064AE0F6
:104BB000BE016F5F7F4F90E00E94523567EF72E059
:104BC000CE0101960E94643AAE014F5F5F4F61E0F3
:104BD00080E00E946F0986E190E0909369068093DF
:104BE00068060E948C080C94643083E30E94CC0811
:104BF000882349F10E9465094AE353E060E080E0C0
:104C00000E946F094AE0BE016F5F7F4F809162068C
:104C1000909163060E94523567EF72E0CE010196D3
:104C20000E94643AAE014F5F5F4F61E080E00E94F6
:104C30006F0981E190E090936906809368060E9475
:104C40008C080C94643064EF71E080E090E00E9486
:104C50009808882311F40C946430809157064AE038
:104C6000BE016F5F7F4F90E00E94523567EF72E0A8
:104C7000CE0101960E94643AAE014F5F5F4F61E042
:104C800080E00E946F0984E190E090936906809330
:104C900068060E948C080C94643064EF71E080E038
:104CA00090E00E949808882311F40C9464300E94CC
:104CB00065094CE553E060E080E00E946F09809157
:104CC00055064AE0BE016F5F7F4F90E00E9452356B
:104CD0006AE474E0CE0101960E94643AAE014F5F2F
:104CE0005F4F61E080E00E946F0987E190E0909360
:104CF0006906809368060E948C080C9464308BE2ED
:104D00000E94CC08882309F180915506803510F463
:104D10008B5F01C080E580935506809155064AE07F
:104D2000BE016F5F7F4F90E00E9452356AE474E0ED
:104D3000CE0101960E94643AAE014F5F5F4F61E081
:104D400080E00E946F090C9464308DE20E94CC08D0
:104D5000882309F1809155068B3010F0855001C0F1
:104D60008AE080935506809155064AE0BE016F5F48
:104D70007F4F90E00E9452356AE474E0CE010196C4
:104D80000E94643AAE014F5F5F4F61E080E00E9495
:104D90006F090C94643081E30E94CC08882301F1F0
:104DA000809155064AE0BE016F5F7F4F90E00E9400
:104DB00052356AE474E0CE0101960E94643AAE0175
:104DC0004F5F5F4F61E080E00E946F0989E190E0F2
:104DD00090936906809368060E948C080C94643056
:104DE00083E30E94CC08882341F10E9465094BE4CB
:104DF00053E060E080E00E946F09809157064AE02E
:104E0000BE016F5F7F4F90E00E94523567EF72E006
:104E1000CE0101960E94643AAE014F5F5F4F61E0A0
:104E200080E00E946F0984E190E09093690680938E
:104E300068060E948C080C94643064EF71E080E096
:104E400090E00E949808882311F40C94643088E163
:104E500090E0909369068093680648EE52E061E026
:104E600080E00E946F090E948C080C9464308BE2F1
:104E70000E94CC08882309F180915506803510F4F2
:104E80008B5F01C080E580935506809155064AE00E
:104E9000BE016F5F7F4F90E00E9452356AE474E07C
:104EA000CE0101960E94643AAE014F5F5F4F61E010
:104EB00080E00E946F090C9464308DE20E94CC085F
:104EC000882309F1809155068B3010F0855001C080
:104ED0008AE080935506809155064AE0BE016F5FD7
:104EE0007F4F90E00E9452356AE474E0CE01019653
:104EF0000E94643AAE014F5F5F4F61E080E00E9424
:104F00006F090C94643081E30E94CC08882301F17E
:104F1000809155064AE0BE016F5F7F4F90E00E948E
:104F200052356AE474E0CE0101960E94643AAE0103
:104F30004F5F5F4F61E080E00E946F0989E190E080
:104F400090936906809368060E948C080C946430E4
:104F500083E30E94CC08882341F10E9465094BE459
:104F600053E060E080E00E946F09809157064AE0BC
:104F7000BE016F5F7F4F90E00E94523567EF72E095
:104F8000CE0101960E94643AAE014F5F5F4F61E02F
:104F900080E00E946F0984E190E09093690680931D
:104FA00068060E948C080C94643064EF71E080E025
:104FB00090E00E949808882311F40C94643080914A
:104FC00055064AE0BE016F5F7F4F90E00E94523568
:104FD0006AE474E0CE0101960E94643AAE014F5F2C
:104FE0005F4F61E080E00E946F0987E190E090935D
:104FF0006906809368060E948C080C94643064EF04
:1050000071E080E090E00E949808882311F40C94ED
:1050100064300E9465094DE653E060E080E00E9444
:105020006F09809156064AE0BE016F5F7F4F90E0A6
:105030000E9452356AE474E0CE0101960E94643AFF
:10504000AE014F5F5F4F61E080E00E946F098AE12F
:1050500090E090936906809368060E948C080C94F7
:1050600064308BE20E94CC08882309F180915606B7
:105070008E3110F48B5F01C08EE1809356068091D3
:1050800056064AE0BE016F5F7F4F90E00E945235A6
:105090006AE474E0CE0101960E94643AAE014F5F6B
:1050A0005F4F61E080E00E946F090C9464308DE2F4
:1050B0000E94CC08882309F180915606882321F0AC
:1050C00085508093560602C010925606809156066F
:1050D0004AE0BE016F5F7F4F90E00E9452356AE464
:1050E00074E0CE0101960E94643AAE014F5F5F4FBB
:1050F00061E080E00E946F09E7C781E30E94CC086D
:105100008823F9F0809156064AE0BE016F5F7F4F19
:1051100090E00E9452356AE474E0CE0101960E944C
:10512000643AAE014F5F5F4F61E080E00E946F091B
:105130008CE190E090936906809368060E948C0849
:10514000C3C783E30E94CC08882339F10E94650914
:105150004CE553E060E080E00E946F0980915506C5
:105160004AE0BE016F5F7F4F90E00E9452356AE4D3
:1051700074E0CE0101960E94643AAE014F5F5F4F2A
:1051800061E080E00E946F0987E190E090936906FA
:10519000809368060E948C0897C764EF71E080E0F6
:1051A00090E00E949808882309F48EC78BE190E074
:1051B000909369068093680648EE52E061E080E0D3
:1051C0000E946F090E948C087FC78BE20E94CC0866
:1051D000882301F1809156068E3110F48B5F01C057
:1051E0008EE180935606809156064AE0BE016F5FBD
:1051F0007F4F90E00E9452356AE474E0CE01019640
:105200000E94643AAE014F5F5F4F61E080E00E9410
:105210006F095AC78DE20E94CC08882309F180915A
:105220005606882321F085508093560602C01092BE
:105230005606809156064AE0BE016F5F7F4F90E0B0
:105240000E9452356AE474E0CE0101960E94643AED
:10525000AE014F5F5F4F61E080E00E946F0934C78D
:1052600081E30E94CC088823F9F0809156064AE039
:10527000BE016F5F7F4F90E00E9452356AE474E098
:10528000CE0101960E94643AAE014F5F5F4F61E02C
:1052900080E00E946F098CE190E090936906809312
:1052A00068060E948C0810C783E30E94CC088823FC
:1052B00039F10E9465094CE553E060E080E00E940E
:1052C0006F09809155064AE0BE016F5F7F4F90E005
:1052D0000E9452356AE474E0CE0101960E94643A5D
:1052E000AE014F5F5F4F61E080E00E946F0987E190
:1052F00090E090936906809368060E948C08E4C64B
:1053000064EF71E080E090E00E949808882309F43F
:10531000DBC6809156064AE0BE016F5F7F4F90E08A
:105320000E9452356AE474E0CE0101960E94643A0C
:10533000AE014F5F5F4F61E080E00E946F098AE13C
:1053400090E090936906809368060E948C08BCC622
:1053500064EF71E080E090E00E949808882309F4EF
:10536000B3C60E9465094EE753E060E080E00E940A
:105370006F094AE0BE016F5F7F4F80915C0690919C
:105380005D060E9452356AE073E0CE0101960E94EC
:10539000643AAE014F5F5F4F61E080E00E946F09A9
:1053A0008DE190E090936906809368060E948C08D6
:1053B0008BC68BE20E94CC08882339F180915C0671
:1053C00090915D068733910514F4019602C087E33E
:1053D00090E090935D0680935C064AE0BE016F5FAB
:1053E0007F4F80915C0690915D060E9452356AE085
:1053F00073E0CE0101960E94643AAE014F5F5F4FA9
:1054000061E080E00E946F095FC68DE20E94CC08D7
:10541000882339F180915C0690915D068432910574
:1054200014F0019702C083E290E090935D068093B0
:105430005C064AE0BE016F5F7F4F80915C069091F1
:105440005D060E9452356AE073E0CE0101960E942B
:10545000643AAE014F5F5F4F61E080E00E946F09E8
:1054600033C681E30E94CC08882301F14AE0BE01E3
:105470006F5F7F4F80915C0690915D060E94523570
:105480006AE073E0CE0101960E94643AAE014F5F7C
:105490005F4F61E080E00E946F098FE190E09093A0
:1054A0006906809368060E948C080EC683E30E94FA
:1054B000CC08882339F10E9465094DE653E060E08D
:1054C00080E00E946F09809156064AE0BE016F5F3E
:1054D0007F4F90E00E9452356AE474E0CE0101965D
:1054E0000E94643AAE014F5F5F4F61E080E00E942E
:1054F0006F098AE190E090936906809368060E94A4
:105500008C08E2C564EF71E080E090E00E949808AA
:10551000882309F4D9C58EE190E0909369068093C1
:10552000680648EE52E061E080E00E946F090E9448
:105530008C08CAC58BE20E94CC08882339F180917F
:105540005C0690915D068733910514F4019602C0C4
:1055500087E390E090935D0680935C064AE0BE018D
:105560006F5F7F4F80915C0690915D060E9452357F
:105570006AE073E0CE0101960E94643AAE014F5F8B
:105580005F4F61E080E00E946F099EC58DE20E943E
:10559000CC08882339F180915C0690915D068432B5
:1055A000910514F0019702C083E290E090935D06AC
:1055B00080935C064AE0BE016F5F7F4F80915C067E
:1055C00090915D060E9452356AE073E0CE0101962B
:1055D0000E94643AAE014F5F5F4F61E080E00E943D
:1055E0006F0972C581E30E94CC08882301F14AE06B
:1055F000BE016F5F7F4F80915C0690915D060E94B7
:1056000052356AE073E0CE0101960E94643AAE0121
:105610004F5F5F4F61E080E00E946F098FE190E093
:1056200090936906809368060E948C084DC583E3B9
:105630000E94CC08882339F10E9465094DE653E0A9
:1056400060E080E00E946F09809156064AE0BE014A
:105650006F5F7F4F90E00E9452356AE474E0CE01A4
:1056600001960E94643AAE014F5F5F4F61E080E0B7
:105670000E946F098AE190E0909369068093680622
:105680000E948C0821C564EF71E080E090E00E94E8
:105690009808882309F418C54AE0BE016F5F7F4F60
:1056A00080915C0690915D060E9452356AE073E03D
:1056B000CE0101960E94643AAE014F5F5F4F61E0F8
:1056C00080E00E946F098DE190E0909369068093DD
:1056D00068060E948C08F8C464EF71E080E090E0F6
:1056E0000E949808882309F4EFC40E9465094FE8D6
:1056F00053E060E080E00E946F09809166064AE016
:10570000BE016F5F7F4F082E000C990B0E9452352F
:1057100067EF72E0CE0101960E94643AAE014F5FDE
:105720005F4F61E080E00E946F0980E290E090931B
:105730006906809368060E948C08C6C48BE20E94AA
:10574000CC08882319F18091660687FF04C08F5F1B
:105750008093660602C010926606809166064AE053
:10576000BE016F5F7F4F082E000C990B0E945235CF
:1057700067EF72E0CE0101960E94643AAE014F5F7E
:105780005F4F61E080E00E946F099EC48DE20E943D
:10579000CC08882311F180916606813F14F0815076
:1057A00001C080EF80936606809166064AE0BE01E4
:1057B0006F5F7F4F082E000C990B0E94523567EFE8
:1057C00072E0CE0101960E94643AAE014F5F5F4FD6
:1057D00061E080E00E946F0977C481E30E94CC08F9
:1057E000882309F1809166064AE0BE016F5F7F4F12
:1057F000082E000C990B0E94523567EF72E0CE0123
:1058000001960E94643AAE014F5F5F4F61E080E015
:105810000E946F0982E290E0909369068093680687
:105820000E948C0851C483E30E94CC08882341F174
:105830000E9465094EE753E060E080E00E946F0936
:105840004AE0BE016F5F7F4F80915C0690915D06DC
:105850000E9452356AE073E0CE0101960E94643ADC
:10586000AE014F5F5F4F61E080E00E946F098DE104
:1058700090E090936906809368060E948C0824C487
:1058800064EF71E080E090E00E949808882309F4BA
:105890001BC481E290E0909369068093680648EE0D
:1058A00052E061E080E00E946F090E948C080CC405
:1058B0008BE20E94CC08882319F18091660687FF4D
:1058C00004C08F5F8093660602C0109266068091C6
:1058D00066064AE0BE016F5F7F4F082E000C990BF1
:1058E0000E94523567EF72E0CE0101960E94643A41
:1058F000AE014F5F5F4F61E080E00E946F09E4C33B
:105900008DE20E94CC08882311F180916606813FC8
:1059100014F0815001C080EF809366068091660686
:105920004AE0BE016F5F7F4F082E000C990B0E946A
:10593000523567EF72E0CE0101960E94643AAE01E3
:105940004F5F5F4F61E080E00E946F09BDC381E35C
:105950000E94CC08882309F1809166064AE0BE01C6
:105960006F5F7F4F082E000C990B0E94523567EF36
:1059700072E0CE0101960E94643AAE014F5F5F4F24
:1059800061E080E00E946F0982E290E090936906F6
:10599000809368060E948C0897C383E30E94CC081A
:1059A000882341F10E9465094EE753E060E080E002
:1059B0000E946F094AE0BE016F5F7F4F80915C06D5
:1059C00090915D060E9452356AE073E0CE01019627
:1059D0000E94643AAE014F5F5F4F61E080E00E9439
:1059E0006F098DE190E090936906809368060E94AC
:1059F0008C086AC364EF71E080E090E00E94980830
:105A0000882309F461C3809166064AE0BE016F5F96
:105A10007F4F082E000C990B0E94523567EF72E001
:105A2000CE0101960E94643AAE014F5F5F4F61E084
:105A300080E00E946F0980E290E090936906809375
:105A400068060E948C0840C364EF71E080E090E03B
:105A50000E949808882309F437C30E94650940EA28
:105A600053E060E080E00E946F0941EB53E061E0A9
:105A700080E00E946F09AE014F5F5F4F61E080E000
:105A80000E946F0983E290E0909369068093680614
:105A90001BC364EF71E080E090E00E9498088823C7
:105AA00009F412C30E94650980913F06813019F400
:105AB00040EA53E002C042EC53E060E080E00E9424
:105AC0006F0941EB53E061E080E00E946F09AE0195
:105AD0004F5F5F4F61E080E00E946F0983E290E0DA
