:100000000C94D0020C9472080C9447080C941C08B1
:100010000C94F1070C94C6070C949B070C94700782
:100020000C9445070C9401030C9401030C940103F8
:100030000C9401030C9401030C9401030C94010330
:100040000C9401030C9401030C9401030C94010320
:100050000C9401030C9401030C9401030C944712BB
:100060000C9401030C94DE080C94B4080C94010366
:100070000C9401030C9401030C9401030C940103F0
:100080000C9401030C9401030C9401030C940103E0
:100090000C9401030C9401030C9401030C941409B7
:1000A0000C9401030C9401030C9401030C940103C0
:1000B0000C9401030C9401030C9401030C940103B0
:1000C0000C9401030C9401030C9401030C940103A0
:1000D0000C9401030C9401030C9401030C94010390
:1000E0000C940103A2183B19B51818199219DD19BF
:1000F0002B1B581BFA1B721CE01C4B1CB91C1D1D32
:10010000471D4B1FEC1F9E20AA1D631E181FD120E8
:10011000CC21D6220923D723B624E824A1256A2698
:100120009C2654271C284E280629CE29002AB82AA6
:100130007F2BAF2B622C252D562D172EE92E1A2F33
:10014000E62FBD30EF30A9317532C7329A3296347E
:10015000E13455359235CC3505363A36DC0EE10EB4
:10016000E60EF00EFA0E730F040F0C0F140F1E0F95
:10017000280F320F410F4B0F730F550F5F0F690F91
:100180009A0F9D0F8C0F900F960FD40FA10FA50FF4
:10019000AB0FAF0FB30FB90FBD0FC10FD40FC70F08
:1001A000CB0FCF0F0C9451030C9454270C94252D96
:1001B0000C9421060C94B82A0C9409230C941D0568
:1001C0000C94730F0C94471D0C94AA1D0C94E62FED
:1001D0000C941B050C94BD0F0C94AF2B0C94181FA2
:1001E0000C94140F0C94E10E0C94AB0F0C94D723C9
:1001F0000C9455350C94A2180C944B1F0C94721C43
:100200000C94E60E0C94CE290C94FA0E0C947532D4
:100210000C94172E0C948C0F0C94410F0C94280FF7
:100220000C941C280C94900F0C94EF300C949A3280
:100230000C9441050C94A50F0C942B1B0C94921953
:100240000C9485060C943D030C94E92E0C949A0FA3
:100250000C941C050C945F030C94E1340C941D1D4C
:100260000C9403030C944B0F0C94002A0C9420065E
:100270000C944B1C0C94C70F0C94690F0C94B90F81
:100280000C94B91C0C94B5180C94DC0E0C943A36F2
:100290000C9406290C949E200C94960F0C94E82440
:1002A0000C94B30F0C941E050C9476050C949703D4
:1002B0000C94A10F0C94E01C0C94DD190C94D1202B
:1002C0000C94320F0C94FA1B0C94F00E0C94631ED9
:1002D0000C94581B0C94B6240C940B060C945606E4
:1002E0000C94562D0C946A260C94E4030C94CF0FB6
:1002F0000C94C10F0C9492350C94A1250C94D40F3E
:100300000C947F2B0C943B190C94FF050C949C26A9
:100310000C94622C0C94EC1F0C942E030C94181962
:100320000C94AF0F0C944E280C940C0F0C941A2FB5
:100330000C94CC210C9404030C9405360C94D62216
:100340000C94040F0C94A9310C945F0F0C94963408
:100350000C941C3C0C94CB0F0C9442060C94CC35A2
:100360000C94C7320C941E0F0C949D0F0C9426060F
:100370000C9449050C94BD300C94550F0C942D052C
:100380000C94050600407A10F35A00A0724E18092A
:100390000010A5D4E80000E87648170000E40B54EC
:1003A000020000CA9A3B000000E1F50500008096BB
:1003B0009800000040420F000000A08601000000ED
:1003C000102700000000E8030000000064000000A7
:1003D00000000A00000000000100000000002C7670
:1003E000D888DC674F0823DFC1DFAE59E1B1B7968B
:1003F000E5E3E453C63AE651997696E8E6C28426E8
:10040000EB898C9B62ED407C6FFCEFBC9C9F40F2C3
:10041000BAA56FA5F490055A2AF75C936B6CF9673F
:100420006DC11BFCE0E40D47FEF520E6B500D0ED04
:10043000902E0300943577050080841E080000206C
:100440004E0A000000C80C333333330F986E12830A
:100450001141EF8D2114893BE65516CFFEE6DB18DE
:10046000D1844B381BF77C1D901DA4BBE4242032A3
:1004700084725E228100C9F124ECA1E53D270000D1
:100480000A0B02090C0D0E0807030401000000000E
:10049000000000000000000000000000000000005C
:1004A0000000000000000000000012111000000019
:1004B000000000000000000000000000000000003C
:1004C0000000000001021020200808102040102029
:1004D0004080020102010804020101020408102008
:1004E0004080804020100804020180040201804006
:1004F000201008040201080402010102040810206F
:1005000040800102040810204080000020002300E9
:10051000260029002C002F003200000100000301FA
:100520000601090105050505070508080808020276
:1005300002020A0A0808040404040101010101017D
:1005400001010303030303030303040707070C0C60
:100550000C0C0C0C0C0C0202020206060606060627
:1005600006060B0B0B0B0B0B0B0B000021002400E2
:1005700027002A002D003000330001010000040193
:1005800007010A0100002200250028002B002E0090
:100590003100340002010000050108010B011C3C80
:1005A00011241FBECFEFD1E2DEBFCDBF00E00CBFF4
:1005B00015E0A0E0B2E0E8E6F5E800E00BBF02C01D
:1005C00007900D92AE38B107D9F72CE0AEE8B5E050
:1005D00001C01D92A031B207E1F712E0C0EDD2E0F8
:1005E00000E006C021970109802FFE010E945740BC
:1005F000CF3CD10780E00807A9F70E9491120C9424
:10060000B2420C9400000895CF92DF92EF92FF92D5
:100610000F931F93CF93DF936C017A018B01C0E09E
:10062000D0E0CE15DF0581F0D8016D918D01D601A6
:10063000ED91FC910190F081E02DC6011995892B77
:1006400011F02196EECF7E01C701DF91CF911F916E
:100650000F91FF90EF90DF90CF900895FC01538DA4
:10066000448D252F30E0842F90E0821B930B54178C
:1006700010F0CF96089501970895FC01918D828D19
:10068000981761F0828DDF01A80FB11D5D968C91E6
:10069000928D9F5F9F73928F90E008958FEF9FEFF1
:1006A0000895FC01918D828D981731F0828DE80FAD
:1006B000F11D858D90E008958FEF9FEF0895FC0167
:1006C000918D228D892F90E0805C9F4F821B910934
:1006D0008F739927089585EF99E00E945F0321E0C9
:1006E000892B09F420E0822F0895FC01848DDF011D
:1006F000A80FB11DA35ABF4F2C91848D90E0019695
:100700008F739927848FA689B7892C93A089B18983
:100710008C91837080648C93938D848D981306C024
:100720000288F389E02D80818F7D80830895EF9288
:10073000FF920F931F93CF93DF93EC0181E0888F9B
:100740009B8D8C8D981305C0E889F989808185FD82
:1007500026C0F62E0B8D10E00F5F1F4F0F73112771
:10076000E02E8C8DE8120CC00FB607FCFACFE8899A
:10077000F989808185FFF5CFCE010E947503F1CF05
:100780008B8DFE01E80FF11DE35AFF4FF0829FB7FA
:10079000F8940B8FEA89FB89808180620AC09FB739
:1007A000F894EE89FF896083E889F98980818370F4
:1007B000806480839FBF81E090E0DF91CF911F91A3
:1007C0000F91FF90EF900895CF93DF93EC01888D08
:1007D0008823C9F0EA89FB89808185FD05C0A88945
:1007E000B9898C9186FD0FC00FB607FCF5CF8081CB
:1007F00085FFF2CFA889B9898C9185FFEDCFCE0115
:100800000E947503E7CFDF91CF910895CF93C1E0A8
:1008100085EF99E00E945F03892B09F4A3C085EF5F
:1008200099E00E943D03853609F485C0B4F48D3209
:10083000D1F174F48B3261F78091AE079091AF07DC
:10084000A091B007B091B107C296A11DB11D3BC0E8
:100850008C3401F1853521F1DBCF803709F445C0B7
:100860009CF48C36B9F08F3699F62DEC3CEC4CECC0
:100870005DE36091100270911102809112029091DB
:1008800013020E945F403FC0823709F445C085379C
:1008900039F0BECF8091B2078C278093B207B8CFD2
:1008A000C093AD07B5CF8091AE079091AF07A091EF
:1008B000B007B091B10783339105A105B10560F090
:1008C000C297A109B1098093AE079093AF07A09397
:1008D000B007B093B1079CCF1092AE071092AF074C
:1008E0001092B0071092B10793CF2DEC3CEC4CEC7A
:1008F0005DE360911002709111028091120290915B
:1009000013020E9460406093100270931102809362
:100910001202909313027CCF2DEC3CEC4CEC5DE387
:100920006091140270911502809116029091170245
:100930000E9460400EC02DEC3CEC4CEC5DE36091FD
:1009400014027091150280911602909117020E9474
:100950005F40609314027093150280931602909387
:10096000170256CFCF9108950E946B03811125C0C5
:1009700080E090E0892B41F080E090E0892B21F02D
:100980000E94000081111CC080E090E0892B41F0A2
:1009900080E090E0892B21F00E940000811113C0BB
:1009A00080E090E0892BA1F080E090E0892B81F03D
:1009B0000E94000081110AC008950E940604D8CF49
:1009C0000E940000E1CF0E940000EACF0C940000DA
:1009D000089585ED8093BC008091BC0084FDFCCF20
:1009E0001092E20B08954091D209262F30E0240F97
:1009F000311D21323105DCF42091E20B2430C9F4A1
:100A0000FC0180E090E0861758F43091D2092191E2
:100A1000DC01AE54B64FA30FB11D2C930196F3CF5A
:100A20008091D209680F6093D20980E0089581E037
:100A3000089582E00895089508950895E09193053A
:100A400080919205E81730F4F0E0EC56FA4F80817F
:100A500090E008958FEF9FEF089590919305809116
:100A60009205981750F4E92FF0E0EC56FA4F2081E8
:100A700030E09F5F9093930502C02FEF3FEFC901D5
:100A800008958091920590E020919305821B910931
:100A90000895CF92DF92EF92FF920F931F93CF931F
:100AA000DF937C01CB018A012091E30B222389F0A3
:100AB000EB016B01C40ED51ECC15DD0569F0699103
:100AC000D701ED91FC910190F081E02DC7011995BE
:100AD000F3CF642F0E94F304C801DF91CF911F91DF
:100AE0000F91FF90EF90DF90CF900895CF93DF9319
:100AF0001F92CDB7DEB769832091E30B2223D1F09B
:100B00002091060C203240F021E030E0FC013383DC
:100B1000228380E090E015C08091E40BE82FF0E0A4
:100B2000EB51F44F998190838F5F8093E40B809316
:100B3000060C05C061E0CE0101960E94F30481E03D
:100B400090E00F90DF91CF910895DC01ED91FD9140
:100B50008081ED91FD919081ED91FD916C9163709B
:100B60008E2309F064609F2309F06860E2ECF5E0F1
:100B7000E60FF11D659565956D936D917D918D9154
:100B80009D91099423C01AC012C016C010C01EC087
:100B900009C014C013C006C019C009C00DC007C0E9
:100BA0000DC014C062507040804090400BC0615036
:100BB00070408040904006C06E5F01C06F5F7F4F05
:100BC0008F4F9F4F9E938E937E936E930895809147
:100BD000BF0A9091C00A0C94A5058091BD0A90911E
:100BE000BE0A0C94A5058091BB0A9091BC0A0C9496
:100BF000A5058091B90A9091BA0A0C94A505809137
:100C0000B70A9091B80A0C94A5058091B50A909105
:100C1000B60A0C94A505DC01ED91FC910684F785DC
:100C2000E02D41E0199581E090E00895DC01ED911F
:100C3000FC910684F785E02D40E01994089508950D
:100C4000089580E090E008950E94A242EF92FF9202
:100C50001F93CF93DF93EC01162F7A0161E0812F70
:100C60000E9401111E8BFA86E986E881F9810484CD
:100C7000F585E02D60E0CE01DF91CF911F91FF90CF
:100C8000EF901994FC0186898F3F79F02185328598
:100C9000662319F0232B31F403C02130310511F400
:100CA00061E001C060E00C94D21008950F931F938F
:100CB000CF93DF93EC01162F042F61E0413009F050
:100CC00060E08B850E94D2108C858F3F19F060E028
:100CD0000E94D210023081F08C8184FF02C048E073
:100CE0000CC0612F70E084E0759567958A95E1F7F7
:100CF00044E0CE010E943C0E44E0612FCE01DF9122
:100D0000CF911F910F910C943C0E8F929F92AF92B6
:100D1000BF92CF92DF92EF92FF920F931F93CF93E8
:100D2000DF93EC01423018F08C8188608C834F8314
:100D30006887222329F0413019F48C8184608C83E8
:100D40000E945C116B017C0184E6882E912CA12C01
:100D5000B12C0E945C11DC01CB018C199D09AE09FC
:100D6000BF09883E9340A105B10598F321E0821A9E
:100D70009108A108B10888EEC80E83E0D81EE11CD6
:100D8000F11C81149104A104B10419F76C8164FD74
:100D900031C0E881F9810684F785E02D42E063E007
:100DA000CE0119958BE496E40197F1F7E881F9817A
:100DB0000684F785E02D42E063E0CE01199503E556
:100DC00012E0C8010197F1F7E881F9810684F785FF
:100DD000E02D42E063E0CE011995C8010197F1F7DB
:100DE000E881F9810684F785E02D42E062E0CE01DA
:100DF000199517C06062CE010E9416068BE496E436
:100E00000197F1F76C816062CE010E94160603E53E
:100E100012E0C8010197F1F76C816062CE010E9477
:100E20001606C8010197F1F76C816062CE010E943D
:100E300016068BEE90E00197F1F784E08D836CE06D
:100E4000CE010E94160661E0CE010E9416068BE3D9
:100E50009FE10197F1F782E08E8366E0CE010E9468
:100E60001606E881F9810484F585E02D6FEFCE0147
:100E7000DF91CF911F910F91FF90EF90DF90CF9076
:100E8000BF90AF909F908F9019941F920F920FB6C2
:100E90000F9211240BB60F922F933F934F935F93B2
:100EA0006F937F938F939F93AF93BF93EF93FF9332
:100EB000E0910E02F0910F021995FF91EF91BF9111
:100EC000AF919F918F917F916F915F914F913F91E2
:100ED0002F910F900BBE0F900FBE0F901F90189583
:100EE0001F920F920FB60F9211240BB60F922F93F1
:100EF0003F934F935F936F937F938F939F93AF93A2
:100F0000BF93EF93FF93E0910C02F0910D021995BE
:100F1000FF91EF91BF91AF919F918F917F916F91D1
:100F20005F914F913F912F910F900BBE0F900FBE8D
:100F30000F901F9018951F920F920FB60F921124C9
:100F40000BB60F922F933F934F935F936F937F93C3
:100F50008F939F93AF93BF93EF93FF93E091020220
:100F6000F09103021995FF91EF91BF91AF919F917D
:100F70008F917F916F915F914F913F912F910F9042
:100F80000BBE0F900FBE0F901F9018951F920F92DF
:100F90000FB60F9211240BB60F922F933F934F93DE
:100FA0005F936F937F938F939F93AF93BF93EF93D1
:100FB000FF93E0910002F09101021995FF91EF91EA
:100FC000BF91AF919F918F917F916F915F914F9161
:100FD0003F912F910F900BBE0F900FBE0F901F905F
:100FE00018951F920F920FB60F9211240BB60F9205
:100FF0002F933F934F935F936F937F938F939F9321
:10100000AF93BF93EF93FF93E0910A02F0910B022D
:101010001995FF91EF91BF91AF919F918F917F9122
:101020006F915F914F913F912F910F900BBE0F9059
:101030000FBE0F901F9018951F920F920FB60F9230
:1010400011240BB60F922F933F934F935F936F939F
:101050007F938F939F93AF93BF93EF93FF93E09111
:101060000802F09109021995FF91EF91BF91AF919C
:101070009F918F917F916F915F914F913F912F91B0
:101080000F900BBE0F900FBE0F901F9018951F92E0
:101090000F920FB60F9211240BB60F922F933F931E
:1010A0004F935F936F937F938F939F93AF93BF9370
:1010B000EF93FF93E0910602F09107021995FF91DB
:1010C000EF91BF91AF919F918F917F916F915F91C0
:1010D0004F913F912F910F900BBE0F900FBE0F902D
:1010E0001F9018951F920F920FB60F9211240BB6F6
:1010F0000F922F933F934F935F936F937F938F93B1
:101100009F93AF93BF93EF93FF93E0910402F0910D
:1011100005021995FF91EF91BF91AF919F918F912A
:101120007F916F915F914F913F912F910F900BBEE7
:101130000F900FBE0F901F9018956115710579F0F3
:10114000FB0101900020E9F73197AF01461B570BD7
:10115000DC01ED91FC910280F381E02D199480E097
:1011600090E008950C949D081F920F920FB60F9275
:1011700011240BB60F922F933F934F935F936F936E
:101180007F938F939F93AF93BF93EF93FF9385EFDD
:1011900099E00E947503FF91EF91BF91AF919F91EC
:1011A0008F917F916F915F914F913F912F910F9010
:1011B0000BBE0F900FBE0F901F9018951F920F92AD
:1011C0000FB60F9211240BB60F922F938F939F930C
:1011D000EF93FF93E091050AF091060A8081E09178
:1011E0000B0AF0910C0A82FD12C0908180910E0AC8
:1011F0008F5F8F7320910F0A821751F0E0910E0AD2
:10120000F0E0EB50F64F958F80930E0A01C080817D
:10121000FF91EF919F918F912F910F900BBE0F90A7
:101220000FBE0F901F9018951F920F920FB60F923E
:1012300011240BB60F922F933F934F935F936F93AD
:101240007F938F939F93AF93BF93EF93FF9380917F
:10125000B900887F803609F49CC068F5883209F4AB
:101260005BC090F4803109F454C038F4882309F449
:10127000F6C0883009F44DC0F6C0883109F44CC07E
:10128000803209F45DC0EFC0803409F468C048F4CE
:10129000803309F455C0883309F0E5C08093E00B32
:1012A000D8C0803509F44FC0883509F45DC0883452
:1012B00009F0D9C0D6C0883909F4C7C0A8F4883766
:1012C00009F467C038F4883609F463C0803709F43C
:1012D00060C0C9C0883809F4B8C0803909F45FC05B
:1012E000803809F0C0C05BC0803B09F486C038F488
:1012F000803A09F466C0883A09F47FC0B4C0803CE3
:1013000009F4A7C0883C09F4A4C0883B09F48AC04A
:10131000AAC08091BD0B10C09091DF0B8091DE0BB5
:10132000981770F5E091DF0B81E08E0F8093DF0B53
:10133000F0E0E254F44F80818093BB0085EC86C0DE
:101340008093E00B8EC0E091DF0B81E08E0F8093E5
:10135000DF0B8091BB00F0E0E254F44F808390916A
:10136000DF0B8091DE0B6EC0E091DF0B81E08E0F12
:101370008093DF0B8091BB00F0E0E254F44F808358
:101380008091E10B81116DC081E08093BC0B84EAF8
:1013900061C083E08093E20B1092F409CFCF80917B
:1013A000F409803208F051C0E091F40981E08E0F19
:1013B0008093F4098091BB00F0E0EC52F64F8083FB
:1013C000BDCF85EC8093BC001092E20B8091F409B4
:1013D000803230F4E091F409F0E0EC52F64F1082E4
:1013E0006091F40970E0E0918E05F0918F0584ED35
:1013F00099E019951092F40936C084E08093E20BCD
:101400001092D3091092D209E0919005F0919105C4
:1014100019958091D209811105C081E08093D2098C
:101420001092B209E091D30981E08E0F8093D30925
:10143000F0E0EE54F64F80818093BB009091D30989
:101440008091D209981708F479CF85E88093BC0081
:101450000AC085EC8093BC001092E20B04C010928D
:10146000E00B0E94E904FF91EF91BF91AF919F9132
:101470008F917F916F915F914F913F912F910F903D
:101480000BBE0F900FBE0F901F9018950E948111F8
:101490006093AE097093AF098093B0099093B1093E
:1014A00080E00895CF92DF92EF92FF920F931F9307
:1014B000611571058105910541F41F910F91FF9010
:1014C000EF90DF90CF900C94460A6B017C010E9454
:1014D00081110091AE091091AF092091B0093091AE
:1014E000B109DC01CB01801B910BA20BB30B21E0F6
:1014F000C816D906EA06FB0608F020E0822F1F91E5
:101500000F91FF90EF90DF90CF9008958F929F9270
:10151000AF92BF92EF92FF920F931F93CF93DF93FF
:10152000C82FD0E08E01000F111F0C5B164FF80181
:10153000208131812115310521F021303105A1F1C2
:101540006FC00E94A910009719F00197A1F16BC01C
:101550000E9481119E01220F331F220F331FA90108
:101560004059574F7A01FA0180809180A280B38060
:10157000DC01CB0188199909AA09BB090697A105C5
:10158000B10508F450C081E090E0F80191838083B8
:10159000C85DD84F88830E948111F70160837183F1
:1015A0008283938381E040C00E94A910009719F0C4
:1015B000019771F038C00E948111CC0FDD1FCC0F54
:1015C000DD1FC059D74F688379838A839B832BC0E3
:1015D0000E9481119E01220F331F220F331FA90188
:1015E0004059574F7A01FA0180809180A280B380E0
:1015F000DC01CB0188199909AA09BB090697A10545
:10160000B10588F0F80111821082C85DD84F1882A8
:101610000E948111F701608371838283938303C0E9
:10162000F8011182108280E0DF91CF911F910F911C
:10163000FF90EF90BF90AF909F908F90089561E0E2
:101640008EE99AE00E9416068BE39FE10197F1F77D
:101650000895CF92DF92EF92FF920F931F93CF9353
:10166000DF93CDB7DEB728970FB6F894DEBF0FBE75
:10167000CDBF8A01C0901802D0901902E0901A02E2
:10168000F0901B02CD82DE82EF82F886C0901C02B1
:10169000D0901D02E0901E02F0901F02C982DA82F3
:1016A000EB82FC829091A50A691710F06FEF690F29
:1016B0004091A60A262F30E0FE01E20FF31F4031D1
:1016C00021F4943011F4618101C06581680F606874
:1016D0008EE99AE00E941606B8018EE99AE02896F3
:1016E0000FB6F894DEBF0FBECDBFDF91CF911F9133
:1016F0000F91FF90EF90DF90CF900C94B208AF92D3
:10170000BF92CF92DF92EF920F931F93CF935B0123
:101710006A01C22FAC0160E080E00E94290BA501A4
:1017200060E088E00E94290BA60161E08C2F0E94F6
:10173000290BA80161E08E2DCF911F910F91EF90A1
:10174000DF90CF90BF90AF900C94290B20E042E047
:1017500060E18EE99AE00E94850662E08EE99AE0F7
:101760000E9416068BE39FE10197F1F70E941F0B81
:101770004CE655E060E080E00E94290B4DE755E023
:1017800061E080E00E94290B1092740710927307A9
:1017900010925E0710925D0762E08AE20E940111DA
:1017A00062E08CE20E94011162E08EE20E9401116F
:1017B00062E080E30E94011162E088E20E94011170
:1017C0000E94460AEFE5F7E082E0818384EF91E032
:1017D000968785878EE090E0908B878782E090E007
:1017E000928B818B8EE084838EE1858387E0868374
:1017F00089E182838AE083838EE190E0928781870A
:1018000087E090E0948783878EEF838B84E190E07C
:10181000908787830895CF93C82F0E94811124E079
:10182000C29FF0011124EC54FA4F608371838283CC
:10183000938380E0CF9108950F931F93E0ECF5E040
:1018400080E090E040E050E0BA01048115812681FB
:101850003781400F511F621F731F41362AEE520716
:101860006105710510F08F5F06C001963C968E31C0
:10187000910559F780E01F910F9108958091340BE5
:101880009091350BA091360BB091370BBC01CD0177
:1018900060597140810991090E947B419B01AC0113
:1018A0000E9460402BED3FE049E450E40E9430424A
:1018B00020E030E044E856E40E94D14020E030E0EF
:1018C00040E752E40E94304223E63FEB4FE356E408
:1018D0000E94304220E030E04AE754E40E94D140C8
:1018E000089580919907882309F489C08091680B35
:1018F0009091690B892B11F01092990760919D07C7
:1019000070E080E090E00E9479416093FE0A70935D
:10191000FF0A8093000B9093010B6091A6077091D2
:10192000A70780E090E00E9479416093060B7093D6
:10193000070B8093080B9093090B60919B0770E055
:1019400080E090E00E94794120E030E048EC52E4F1
:101950000E94D14060930A0B70930B0B80930C0B89
:1019600090930D0B60919C0770E080E090E00E94E6
:10197000794120E030E048EC52E40E94D14060938D
:101980000E0B70930F0B8093100B9093110B6091C3
:10199000A0077091A10780E090E00E9479416093D8
:1019A000240B7093250B8093260B9093270B80912B
:1019B0009A078093120B6091AC07062E000C770BF0
:1019C000880B990B0E947B412091850730918607F7
:1019D00040918707509188070E9460409B01AC01AD
:1019E0006091790770917A0780917B0790917C07CD
:1019F0000E94CC40881F8827881F8093130B08956E
:101A00004F925F926F927F928F929F92AF92BF920E
:101A1000CF92DF92EF92FF9281E090E09093690B7A
:101A20008093680B2091FE0A3091FF0A4091000BD1
:101A30005091010B60E070E68AE697E40E94D14085
:101A40004B015C0140900A0B50900B0B60900C0B0B
:101A500070900D0BA30192010E9430426B017C013A
:101A600060933C0B70933D0B80933E0B90933F0B28
:101A7000A301920160E070E080E89FE30E945F4074
:101A8000A50194010E9430426093400B7093410B7A
:101A90008093420B9093430B80900E0B90900F0B12
:101AA000A090100BB090110BA501940160E070E0C4
:101AB00080E89FE30E945F40A70196010E943042A8
:101AC0006093440B7093450B8093460B9093470BA8
:101AD000A5019401C701B6010E9430426093480BF2
:101AE0007093490B80934A0B90934B0B0E9481118A
:101AF0000E94794120913C0B30913D0B40913E0B6F
:101B000050913F0B0E9460400E944A4160935C0BE1
:101B100070935D0B80935E0B90935F0B0E9481111D
:101B20000E9479412091440B3091450B4091460B26
:101B30005091470B0E9460400E944A416093580BAD
:101B40007093590B80935A0B90935B0B20E030E01D
:101B50004AE754E46091060B7091070B8091080BE3
:101B60009091090B0E94304223E63FEB4FE356E48D
:101B70000E94D14020E030E040E752E40E94D14092
:101B800020E030E044E856E40E9430422BED3FE094
:101B900049EC50E40E94D1406B017C0120E030E030
:101BA000A9010E942B4220E030E040E05FE387FD86
:101BB00005C0C701B6010E94604004C0C701B6015C
:101BC0000E945F400E9443416093380B7093390B31
:101BD00080933A0B90933B0BFF90EF90DF90CF9068
:101BE000BF90AF909F908F907F906F905F904F903D
:101BF000089580917F0B823030F4F89484E79BE065
:101C00000E94A50501C0F89480917B0B90917C0BFC
:101C1000A0917D0BB0917E0B78948093300B9093C4
:101C2000310BA093320BB093330BF89410927B0BD3
:101C300010927C0B10927D0B10927E0B7894409149
:101C4000340B5091350B6091360B7091370B8091AE
:101C5000300B9091310BA091320BB091330B840F6C
:101C6000951FA61FB71F8093340B9093350BA0933D
:101C7000360BB093370B0895AF92BF92CF92DF929D
:101C8000EF92FF920F931F93CF93DF938C015C0130
:101C90008EE0A80EB11CC42ED12CC0E0D0E0E62E00
:101CA000F12CCC15DD0579F0B7010C2E02C075952D
:101CB00067950A94E2F76170F50181915F010E94D6
:101CC000D2102196EECF61E0F80185850E94D210F6
:101CD00060E0F8018585DF91CF911F910F91FF9012
:101CE000EF90DF90CF90BF90AF900C94D210CF9335
:101CF000DF93BC0185EF99E00E949D08EC0162E250
:101D000075E085EF99E00E949D088C0F9D1FDF9183
:101D1000CF910895CF92DF92EF92FF92CF93DF930E
:101D20006B017C0120E030E0A9010E94CC4087FFDC
:101D300006C0F7FAF094F7F8F09460E001C061E0B3
:101D400084E00E94D2102CE53FE842E250E4C70153
:101D5000B6010E94D14020E030E04FE753E40E94FA
:101D600030420E9443416B017C01EB0161E085E060
:101D70000E940111209711F460E004C0CF3FD1050B
:101D800051F461E085E0DF91CF91FF90EF90DF901B
:101D9000CF900C94D210E3E8F4E0E4918E2F90E021
:101DA000FC013197E231F10508F09DC08827E2552A
:101DB000FF4F8F4F0C94574084B5806884BDC7BCDB
:101DC00097C084B5806284BDC8BC92C080918000F9
:101DD000806880938000D0928900C092880088C07B
:101DE00080918000806280938000D0928B00C092AE
:101DF0008A007EC080918000886080938000D092AD
:101E00008D00C0928C0074C08091B0008068809377
:101E1000B000C092B3006CC08091B000806280932B
:101E2000B000C092B40064C080919000806880933C
:101E30009000D0929900C09298005AC08091900072
:101E4000806280939000D0929B00C0929A0050C014
:101E500080919000886080939000D0929D00C09205
:101E60009C0046C08091A00080688093A000809173
:101E7000A0008F7B8093A000D092A900C092A80000
:101E800037C08091A00080628093A000D092AB0008
:101E9000C092AA002DC08091A00088608093A0000D
:101EA000D092AD00C092AC0023C080912001806828
:101EB00080932001D0922901C092280119C08091FD
:101EC0002001806280932001D0922B01C0922A01D0
:101ED0000FC080912001886080932001D0922D0155
:101EE000C0922C0105C0C038D1050CF04ACF44CFB8
:101EF000DF91CF91FF90EF90DF90CF90089590E029
:101F0000FC013197E231F10508F04EC08827E0541A
:101F1000FF4F8F4F0C945740809180008F7703C004
:101F2000809180008F7D8093800008958091800053
:101F3000877FF9CF84B58F7702C084B58F7D84BD4C
:101F400008958091B0008F7703C08091B0008F7D9D
:101F50008093B0000895809190008F7707C08091A2
:101F600090008F7D03C080919000877F80939000C8
:101F700008958091A0008F7707C08091A0008F7D89
:101F800003C08091A000877F8093A0000895809176
:101F900020018F7707C0809120018F7D03C0809141
:101FA0002001877F8093200108958F929F92AF92A6
:101FB000BF920F931F93CF93DF93CDB7DEB7A19757
:101FC0000FB6F894DEBF0FBECDBF19A2423008F4A1
:101FD0004AE08E010F5D1F4F842E912CA12CB12C55
:101FE000A50194010E943540E62FB901CA010150B4
:101FF0001109EA3014F4E05D01C0E95CD801EC930A
:10200000232B242B252B61F7B80185EF99E00E9443
:102010009D08A1960FB6F894DEBF0FBECDBFDF912D
:10202000CF911F910F91BF90AF909F908F90089587
:10203000282F3091060C313208F04AC08091E20B13
:102040008111FCCF9091050C42E04093E20B20936C
:10205000E10B2FEF2093E00B1092DF0B3093DE0BA0
:10206000E5EEFBE0AEEBBBE020E0321721F0419162
:102070004D932F5FFACF1092BD0B2091BD0B990F9E
:10208000922B9093BD0B9091BC0B913061F4109208
:10209000BC0B9091BD0B9093BB009091BC0093FD45
:1020A000F8CF95EC01C095EE9093BC009091E20BB7
:1020B0009230E1F39091E00B9F3F79F08091E00B3B
:1020C000803241F08091E00B803331F084E005C034
:1020D00081E003C082E001C083E01092E40B109223
:1020E000060C1092E30B0895682F82E99AE00C9495
:1020F0007605CF92DF92EF92FF92CF93DF936C0140
:10210000990FEE08FF08F7FE19C06DE285EF99E020
:102110000E949703EC0166277727CB016C197D0994
:102120008E099F094AE00E94D50F8C0F9D1FDF91F9
:10213000CF91FF90EF90DF90CF9008954AE0C701D4
:10214000B601DF91CF91FF90EF90DF90CF900C948C
:10215000D50FCF93DF93282F30E0F901E258FB4FE2
:102160008491F901EC53FB4FD491F901EC5DFA4FE6
:10217000C491CC2391F081110E947F0FEC2FF0E0ED
:10218000EE0FFF1FE65FFA4FA591B491EC91ED239E
:1021900081E090E021F480E002C080E090E0DF91F7
:1021A000CF9108951F93CF93DF93282F30E0F9014B
:1021B000E258FB4F8491F901EC53FB4FD491F901A4
:1021C000EC5DFA4FC491CC23C1F0162F81110E940F
:1021D0007F0FEC2FF0E0EE0FFF1FEC57FA4FA591A9
:1021E000B4919FB7F894111104C08C91D095D82365
:1021F00002C0EC91DE2BDC939FBFDF91CF911F914A
:102200000895CF93DF9390E0FC01EC53FB4F2491B2
:10221000FC01EC5DFA4F8491882361F190E0880F16
:10222000991FFC01E659FA4FC591D491FC01EC5776
:10223000FA4FA591B491611109C09FB7F8948881B4
:10224000209582238883EC912E230BC0623061F4A9
:102250009FB7F8948881322F309583238883EC913F
:102260002E2B2C939FBF06C08FB7F894E8812E2B9E
:1022700028838FBFDF91CF910895863308F086536E
:1022800090917B00282F2870977F922B90937B0052
:102290008770806480937C0080917A008064809352
:1022A0007A0080917A0086FDFCCF809178002091A1
:1022B000790090E0922B08953FB7F89480910C0C30
:1022C00090910D0CA0910E0CB0910F0C26B5A89B0F
:1022D00005C02F3F19F00196A11DB11D3FBFBA2FB8
:1022E000A92F982F8827820F911DA11DB11DBC0118
:1022F000CD0142E0660F771F881F991F4A95D1F7DD
:1023000008952FB7F8946091080C7091090C809192
:102310000A0C90910B0C2FBF08954F925F926F9211
:102320007F928F929F92AF92BF92CF92DF92EF9265
:10233000FF920F931F93CF93DF93CDB7DEB74C017E
:10234000DC015F965C934E935E975D967C936E93F3
:102350005C9791963C932E939097DA961C92FC0191
:1023600012AA13AA14AA15AA80E090E0AFE7B3E47A
:1023700086AB97ABA0AFB1AF84E690E0A0E0B0E051
:1023800086A797A7A0ABB1AB118E108E20E030E0EE
:10239000A901C801B7010E94CC4087FD56C020E0CA
:1023A00030E0A901C601B5010E94CC4087FD4DC0B7
:1023B00020E030E0A9016C897D898E899F890E9487
:1023C000CC4087FD42C081E090E0D4015B969C93B5
:1023D0008E935A97DB968C93DB97F401E082F1821F
:1023E000028313831496AD92BD92CD92DC9217971F
:1023F0008C899D89AE89BF8980879187A287B387A1
:10240000D4011C96ED92FD920D931C931F972DEC19
:102410003CEC4CEC5DE3C601B5010E943042F40196
:10242000608B718B828B938B2DEC3CEC4CEC5DE3E1
:102430006C897D898E899F890E94D140D4015496F0
:102440006D937D938D939C9357970E948111F40116
:10245000C6A4D7A4E0A8F1A8DC01CB018C199D0982
:10246000AE09BF0982A393A3A4A3B5A3DF91CF9123
:102470001F910F91FF90EF90DF90CF90BF90AF90A2
:102480009F908F907F906F905F904F9008951F92D4
:102490000F920FB60F9211242F933F938F939F9318
:1024A000AF93BF938091080C9091090CA0910A0CF6
:1024B000B0910B0C3091070C23E0230F2D3720F443
:1024C0000196A11DB11D05C026E8230F0296A11D8E
:1024D000B11D2093070C8093080C9093090CA093D6
:1024E0000A0CB0930B0C80910C0C90910D0CA091E8
:1024F0000E0CB0910F0C0196A11DB11D80930C0C18
:1025000090930D0CA0930E0CB0930F0CBF91AF9154
:102510009F918F913F912F910F900FBE0F901F9021
:102520001895CF93DF93CDB7DEB7EB970FB6F8943E
:10253000DEBF0FBECDBF789484B5826084BD84B504
:10254000816084BD85B5826085BD85B5816085BDAE
:1025500080916E00816080936E0010928100809166
:1025600081008260809381008091810081608093EE
:102570008100809180008160809380008091B10013
:1025800084608093B1008091B00081608093B0003E
:102590008091910082608093910080919100816090
:1025A0008093910080919000816080939000809151
:1025B000A10082608093A1008091A100816080933E
:1025C000A1008091A00081608093A00080912101F2
:1025D000826080932101809121018160809321019B
:1025E0008091200181608093200180917A00846035
:1025F00080937A0080917A00826080937A00809143
:102600007A00816080937A0080917A00806880935C
:102610007A001092C1000E94A60B1092B907109286
:10262000B8071092B4071092B5071092B60710922F
:10263000B7071092B30710921E0810921D0810924F
:102640009305109292051092E40B1092060C1092D2
:10265000E20B81E08093E10B1092BC0B61E084E11E
:102660000E94D21061E085E10E94D2108091B900F1
:102670008E7F8093B9008091B9008D7F8093B900DF
:1026800088E48093B80085E48093BC008BE195E0FA
:1026900090939105809390058CE195E090938F0540
:1026A00080938E0510923508109234081092FE0A1D
:1026B0001092FF0A1092000B1092010B1092020B65
:1026C0001092030B1092040B1092050B10920A0B40
:1026D00010920B0B10920C0B10920D0B10920E0B14
:1026E00010920F0B1092100B1092110B1092120BF4
:1026F0001092140B1092150B1092160B1092170BD0
:102700001092180B1092190B10921A0B10921B0BAF
:1027100010921C0B10921D0B10921E0B10921F0B8F
:102720001092200B1092210B1092220B1092230B6F
:102730001092240B1092250B1092260B1092270B4F
:102740001092280B1092290B10922A0B10922B0B2F
:1027500010922C0B10922D0B10922E0B10922F0B0F
:102760001092300B1092310B1092320B1092330BEF
:102770001092340B1092350B1092360B1092370BCF
:102780001092380B1092390B10923A0B10923B0BAF
:1027900010923C0B10923D0B10923E0B10923F0B8F
:1027A0001092400B1092410B1092420B1092430B6F
:1027B0001092440B1092450B1092460B1092470B4F
:1027C0001092480B1092490B10924A0B10924B0B2F
:1027D00010924C0B10924D0B10924E0B10924F0B0F
:1027E0001092500B1092510B1092520B1092530BEF
:1027F0001092540B1092550B1092560B1092570BCF
:102800001092580B1092590B10925A0B10925B0BAE
:1028100010925C0B10925D0B10925E0B10925F0B8E
:102820001092600B1092610B1092620B1092630B6E
:102830001092640B1092650B1092660B1092670B4E
:102840001092690B1092680B10926A0B10926B0B2E
:1028500080E090E0A0E0B0E480936C0B90936D0B6F
:10286000A0936E0BB0936F0B1092700B1092710BC4
:102870001092720B1092730B8091FB0A0091DF0A89
:102880001091E00A811145C0D801CD90DD90ED9006
:10289000FC90C092E70AD092E80AE092E90AF0922E
:1028A000EA0AE091DD0AF091DE0A80819181A2813D
:1028B000B3818093EB0A9093EC0AA093ED0AB09356
:1028C000EE0A8090F70A9090F80AA090F90AB0906A
:1028D000FA0AA5019401C701B6010E942B421816FD
:1028E00084F08090F30A9090F40AA090F50AB090DA
:1028F000F60AA5019401C701B6010E94CC4087FFEA
:1029000008C08092E70A9092E80AA092E90AB09281
:10291000EA0A81E08093FB0AC12CD12C80EAE82EE0
:1029200080E4F82EC092F30AD092F40AE092F50AFD
:10293000F092F60A412C512C9CE0692E92E4792EFB
:102940004092F70A5092F80A6092F90A7092FA0AD5
:10295000F80180809180A280B380A3019201C5011B
:10296000B4010E942B4218163CF4D8014D925D929E
:102970006D927C9213970FC020E030E040EA50E463
:10298000C501B4010E94CC4087FF05C0F801C08298
:10299000D182E282F3828090E70A9090E80AA090C8
:1029A000E90AB090EA0AC090F70AD090F80AE090DD
:1029B000F90AF090FA0AA7019601C501B4010E9434
:1029C0002B42181684F0C090F30AD090F40AE090DD
:1029D000F50AF090F60AA7019601C501B4010E941C
:1029E000CC4087FF08C0C092E70AD092E80AE09284
:1029F000E90AF092EA0A6091EF0A7091F00A809178
:102A0000F10A9091F20A0E9479419B01AC0160E0C9
:102A100070E080E291E40E94D1406B017C019B0157
:102A2000AC016091D10A7091D20A8091D30A909141
:102A3000D40A0E9430426093D10A7093D20A8093E4
:102A4000D30A9093D40AA70196016091D50A709198
:102A5000D60A8091D70A9091D80A0E94D1406093FB
:102A6000D50A7093D60A8093D70A9093D80A8AE041
:102A700090E0A0E0B0E08093EF0A9093F00AA0937A
:102A8000F10AB093F20A61E085E00E94011161E071
:102A900084E00E94011160E086E00E940111E09153
:102AA000050AF091060A82E08083E091010AF09124
:102AB000020A1082E091030AF091040A80E1808307
:102AC00010920D0AE091090AF0910A0A86E08083CB
:102AD000E091070AF091080A808180618083E0918B
:102AE000070AF091080A808188608083E091070AD4
:102AF000F091080A808180688083E091070AF09154
:102B0000080A80818F7D808381E08093B2071092D4
:102B1000AD0784E690E0A0E0B0E08093AE0790932C
:102B2000AF07A093B007B093B10761E08DE00E94BA
:102B3000011122242394312C8091FB079091FC07F2
:102B4000A091FD07B091FE078093790790937A07D3
:102B5000A0937B07B0937C0780916A0B882381F157
:102B600010926A0B8091FF0790910008A0910108D4
:102B7000B09102081092FF0710920008109201080D
:102B80001092020880937D0790937E07A0937F07A1
:102B9000B093800780910708882391F0109207086E
:102BA0008091030890910408A0910508B09106084F
:102BB0008093810790938207A0938307B093840743
:102BC00080916B0B8823C1F010926B0B80910708EA
:102BD000882391F0109207088091030890910408CF
:102BE000A0910508B0910608809385079093860709
:102BF000A0938707B09388078091B8079091B90791
:102C00008130910571F1B0F0029709F015C1109271
:102C1000B9071092B8071092FB071092FC071092A8
:102C2000FD071092FE070AEB17E0780160E070E004
:102C3000CB0186C00E9481110091B4051091B505A9
:102C40002091B6053091B705DC01CB01801B910BBB
:102C5000A20BB30B0B97A105B10508F4EDC00C94C2
:102C6000893810917A0080917A00887F84608093FF
:102C70007A0086E30E943D1110937A00BC01990FFF
:102C8000880B990B0E947B4120E030E040E752E442
:102C90000E94304220E030EC4FE754E40E94D140E3
:102CA00020E030E0A9010E94604020E030E040E8F0
:102CB0005EE30E9430422091B4073091B507409105
:102CC000B6075091B7070E9460406093B4077093B5
:102CD000B5078093B6079093B7072091B3072330C9
:102CE00031F5B2E0CB2ED12CD092B907C092B80703
:102CF0002091FA0730E02F5F3F4F2F70332720934A
:102D0000FA07220F331F220F331FF901E654F84F41
:102D100060837183828393831092B3071092B40708
:102D20001092B5071092B6071092B70785C010929F
:102D3000B9071092B80781E0820F8093B3077CC077
:102D4000D7012D913D914D915D917D010E94604093
:102D5000BAEFEB16B7E0FB0699F720E030E040E869
:102D60005DE30E9430426B017C016093FB0770932E
:102D7000FC078093FD079093FE078090FF079090DB
:102D80000008A0900108B0900208E091FA0724E042
:102D9000E29FF0011124E654F84F40805180628098
:102DA00073809201A301B401C5010E942B42181641
:102DB00014F042015301C401D5018093FF079093A1
:102DC0000008A0930108B0930208D8016D917D918D
:102DD0008D919D918D01A70196010E945F404B014D
:102DE0005C0120E030E0A9010E942B4218165CF43F
:102DF00020E030E040E850E4C501B4010E942B42DD
:102E00001816D4F00AC020E030E040E850ECC501CC
:102E1000B4010E94CC4087FD0FC0B7E00A3F1B07FA
:102E2000A1F681E080930708C0920308D0920408BD
:102E3000E0920508F092060880911D0890911E0806
:102E40008130910569F1A8F0029709F0B4C01092A1
:102E50001E0810921D08109218081092190810925E
:102E60001A0810921B0808E018E0C12CD12C76013A
:102E700082C00E9481110091B8051091B90520917E
:102E8000BA053091BB05DC01CB01801B910BA20B75
:102E9000B30B0B97A105B10508F48DC00C949238C3
:102EA000E2E0F0E0F0931E08E0931D0880911C081A
:102EB00090E001968370992780931C088091E20B23
:102EC0008111FCCFF1E0F093E20BF093E10B8FEF77
:102ED0008093E00B1092DF0B82E08093DE0BF09387
:102EE000BD0B8091BD0B80688093BD0B8091BC0BA6
:102EF000813061F41092BC0B8091BD0B8093BB00BC
:102F00008091BC0083FDF8CF85EC01C085EE8093F5
:102F1000BC008091E20B8130E1F38091DF0B8330C4
:102F200018F41091DF0B01C013E0EEEBFBE0A4E915
:102F3000B5E080E0811721F091919D938F5FFACFEA
:102F40001092930510939205112321F082E99AE0E3
:102F50000E942D0580919305181721F082E99AE0CF
:102F60000E942D0580919305181729F182E99AE0B6
:102F70000E942D0520C0D8016D917D918D919D916C
:102F80008D0120E030E040E85EE30E9430429B018A
:102F9000AC01C701B6010E9460406B017C01B8E042
:102FA00008311B0741F76093180870931908809344
:102FB0001A0890931B08809134089091350881304D
:102FC000910569F1A8F0029709F091C010923508B7
:102FD0001092340810922F08109230081092310885
:102FE000109232080FE118E0C12CD12C76015FC09D
:102FF0000E9481110091BC051091BD052091BE0574
:103000003091BF05DC01CB01801B910BA20BB30BF0
:103010004597A105B10508F46AC00C94C438E2E0F4
:10302000F0E0F0933508E09334088091330890E0A5
:103030000196837099278093330810917A008091CC
:103040007A00887F846080937A0087E30E943D1134
:1030500010937A0000913308F4E00F9F800111244F
:10306000015E174FBC01990F880B990B0E947B41A1
:1030700020E030E040E252E40E94304220E030ECB8
:103080004FE754E40E94D14020E030E040EA51E4B0
:103090000E945F4024EA30E74DE35EE30E94D140A6
:1030A000D8016D937D938D939C93139720C0F80165
:1030B00061917191819191918F0120E030E040E820
:1030C0005EE30E9430429B01AC01C701B6010E9441
:1030D00060406B017C01F8E00F321F0741F76093FD
:1030E0002F0870933008809331089093320886E05F
:1030F0000E94A91021E0892B09F420E02093FD0A09
:1031000020E030E040EA50E460916C0B70916D0B70
:1031100080916E0B90916F0B0E942B4287FD04C033
:1031200010923F0810923E08E0913E08F0913F084F
:10313000E830F10508F00CC38827EE58FF4F8F4F99
:103140000C94574088E592E00E94770E1092690B2C
:103150001092680BA2E0CA2ED12CD0923F08C092E8
:103160003E0888E692E00E94770E8091680B90916D
:10317000690B029719F5F3E0EF2EF12CF092690B31
:10318000E092680B0E9481110E9479412091400BCE
:103190003091410B4091420B5091430B0E94604093
:1031A0000E944A416093600B7093610B8093620BA5
:1031B0009093630BFF24F394F0926A0B8091FD0AC5
:1031C000882331F08091680B9091690B892B69F00D
:1031D0008091340B9091350BA091360BB091370B49
:1031E000181619061A061B062CF46CE57FE882E215
:1031F00090ECC5C160E070E0CB010E948A0E809126
:10320000680B9091690B892B51F40E94F90D109273
:10321000340B1092350B1092360B1092370B23E0C3
:1032200030E030933F0820933E088EE792E010C2D2
:103230008091340B9091350BA091360BB091370BE8
:1032400080399140A105B1054CF46AE47CE082E04C
:1032500090E40E948A0E0E94F90D0DC060E070E0BB
:10326000CB010E948A0E30923F0820923E0889E9E5
:1032700092E00E94770E0E94710C8091680B9091F1
:10328000690B9C012350310922303105E8F484E0B8
:1032900090E09093690B8093680B0E9481110091DC
:1032A000600B1091610B2091620B3091630B6017E2
:1032B00071078207930710F00C94CD388091130B9F
:1032C00081110C94CD384CC2892B09F049C28091F0
:1032D0009907882309F444C20E94710C109299073F
:1032E00074E0E72EF12CF092690BE092680B80916C
:1032F000120B982F9D7F49F4E4E0F0E0F0933F0833
:10330000E0933E0885EA92E0A3C1813009F024C22F
:10331000E5E0CE2ED12CD0923F08C0923E088BEB38
:1033200092E096C18091680B9091690B049711F41B
:103330000E94000D8091380B9091390BA0913A0BAF
:10334000B0913B0B81579E4FAF4FBF4F4091340B15
:103350005091350B6091360B7091370B84179507A0
:10336000A607B7070CF410C10E9481110091580BF9
:103370001091590B20915A0B30915B0B601771071C
:103380008207930708F000C16091A2077091A3071C
:1033900080E090E00E9479419B01AC016091790747
:1033A00070917A0780917B0790917C070E94CC40B6
:1033B00087FF02C00C94BE39E7C08091680B9091E2
:1033C000690B049711F40E94000D0E948111009175
:1033D000580B1091590B20915A0B30915B0B6017D1
:1033E00071078207930710F00C94CE398091340B4B
:1033F0009091350BA091360BB091370B84309041F2
:10340000A105B10514F00C94CE3980917907909103
:103410007A07A0917B07B0917C078093280B90934B
:10342000290BA0932A0BB0932B0B8091FB0A8823C6
:1034300029F10E9481116FA778AB89AB9AAB80917B
:10344000E30A9091E40AA091E50AB091E60A4FA53B
:1034500058A969A97AA9481B590B6A0B7B0B809163
:10346000EF0A9091F00AA091F10AB091F20A481780
:1034700059076A077B0710F00C94F4392091240B4C
:103480003091250B4091260B5091270B60912C0B0E
:1034900070912D0B80912E0B90912F0B0E945F400D
:1034A0006B017C0120E030E0A9010E942B4218163C
:1034B00014F40C94163BC701B601905820E030E09C
:1034C00040EA50E40E945F402EE135E84BEE5FE3B6
:1034D0000E94304220E030E040EF51E40E94D140B1
:1034E00023E333E343E35FE30E9460404B015C016D
:1034F00020E030E0A901C701B6010E942B42A501DE
:10350000940187FF02C00C941A3B60911C0B7091D0
:103510001D0B80911E0B90911F0B0E9460406093C9
:103520001C0B70931D0B80931E0B90931F0BC09070
:103530001C0BD0901D0BE0901E0BF0901F0B23E393
:1035400033E343E35FE3C701B6010E94CC4087FD4C
:1035500002C00C94263B83E393E3A3E3BFE3809391
:103560001C0B90931D0BA0931E0BB0931F0B60912F
:103570001C0B70911D0B80911E0B90911F0B0E94D4
:103580008A0E0E94F90DECC0C0907907D0907A079E
:10359000E0907B07F0907C076091A2077091A307F1
:1035A00080E090E00E9479414B015C019B01AC01FD
:1035B000C701B6010E942B4218168CF00E9481119F
:1035C0000091580B1091590B20915A0B30915B0BC5
:1035D000601771078207930710F40C948D3980915E
:1035E000380B9091390BA0913A0BB0913B0B80575F
:1035F0009E4FAF4FBF4F4091340B5091350B6091B0
:10360000360B7091370B84179507A607B70714F090
:103610000C949D3983ED92E00E94770E0E943E0C3F
:103620006093360870933708809338089093390870
:103630006093700B7093710B8093720B9093730B6C
:1036400086E090E090933F0880933E0888EF92E0F8
:103650000E94770E85C04091340B5091350B6091DC
:10366000360B7091370B8091380B9091390BA091EC
:103670003A0BB0913B0B84179507A607B7074CF49C
:103680006AE47CE082E090EC0E948A0E0E94F90DD0
:103690000FC060E070E0CB010E948A0EA7E0B0E0AE
:1036A000B0933F08A0933E0888E692E00E94770E10
:1036B0008091680B9091690B019741F520E030E013
:1036C00048E452E46091480B7091490B80914A0B99
:1036D00090914B0B0E94D1409B01AC0160911C0B5F
:1036E00070911D0B80911E0B90911F0B0E94D14079
:1036F0006093200B7093210B8093220B9093230BEC
:10370000E2E0F0E0F093690BE093680B0E94811116
:1037100000915C0B10915D0B20915E0B30915F0B63
:10372000601771078207930730F460E070E0CB0107
:103730000E948A0E15C060E070E0CB010E948A0EE4
:1037400062E0C62ED12CD0923F08C0923E0808C03D
:1037500087E293E00E94770E30923F0820923E0865
:10376000198280917307909174078230910511F44A
:103770000C947A3330F4009791F0019759F10C943E
:103780008B368430910511F40C94713610F40C943E
:103790008F36059711F40C947A360C948B368EE2A2
:1037A0000E94860A882311F40C948F360E941F0B06
:1037B0004AE353E060E080E00E94290B4BE453E0D1
:1037C00061E080E00E94290B309274072092730719
:1037D0000C946A331A8AE0915D07F0915E07ED322E
:1037E000F10510F00C945C338827E658FF4F8F4F9B
:1037F0000C9457408AE20E94860A882379F04CE5AF
:1038000053E061E080E00E94290B52E0E52EF12CAC
:10381000F0925E07E0925D070C9460338CE20E94A8
:10382000860A882361F04DE653E061E080E00E9463
:10383000290B30925E0720925D070C94603380E381
:103840000E94860A882369F082E0809360078CE2F8
:1038500090E090935E0780935D070E94460A0C9467
:10386000603364EF71E080E090E00E94520A8823A8
:1038700011F40C94603323E030E030935E07209322
:103880005D074EE753E061E080E00E94290B0E9453
:10389000460A0C9460338AE20E94860A8111AFCFF7
:1038A0008CE20E94860A8111BECF80E30E94860AC4
:1038B0008111CACF6AEF70E080E090E00E94520A66
:1038C000882311F40C9460334BE453E061E080E012
:1038D0000E94290B10925E0710925D070E94460A13
:1038E0000C9460338AE20E94860A882361F04BE4DC
:1038F00053E061E080E00E94290B10925E07109275
:103900005D070C9460338CE20E94860A811177CFA8
:1039100080E30E94860A882391F04DE653E061E03F
:1039200080E00E94290B1092600786E090E090935F
:103930005E0780935D070E94460A0C94603364EF33
:1039400071E080E090E00E94520A882311F40C9408
:103950006033A4E0B0E0B0935E07A0935D074EE74C
:1039600053E061E080E00E94290B0E94460A0C941B
:1039700060338AE20E94860A8111B9CF8CE20E94EC
:10398000860A81113CCF80E30E94860A8111C5CF4F
:103990006AEF70E080E090E00E94520A882311F400
:1039A0000C94603330925E0720925D074DE653E041
:1039B00061E080E00E94290B0E94460A0C9460336B
:1039C0008AE20E94860A81112ECF8CE20E94860A2A
:1039D00081118DCF80E30E94860A882399F04CE5FF
:1039E00053E061E080E00E94290BB1E0B0936007F2
:1039F000E6E0F0E0F0935E07E0935D070E94460A80
:103A00000C94603364EF71E080E090E00E94520A11
:103A1000882311F40C94603345E0C42ED12CD0924D
:103A20005E07C0925D074EE753E061E080E00E94D0
:103A3000290B0E94460A0C9460338AE20E94860A8F
:103A40008111F1CE8CE20E94860A811150CF80E371
:103A50000E94860A8111C3CF6AEF70E080E090E097
:103A60000E94520A882311F40C94603332E0E32E52
:103A7000F12CF0925E07E0925D074CE553E061E0C7
:103A800080E00E94290B0E94460A0C94603364EF88
:103A900071E080E090E00E94520A882311F40C94B7
:103AA000603380916007813049F50E941F0B4FE819
:103AB00053E060E080E00E94290B4AE0BE016E5EA8
:103AC0007F4F80916607909167070E94B13D60EA41
:103AD00073E0CE0142960E94A742AE014E5E5F4F58
:103AE00061E080E00E94290B2AE030E030935E071D
:103AF00020935D070E94460A0C94603381110C9458
:103B000060330E941F0B47EA53E060E080E00E94B0
:103B1000290B4AE0BE016E5E7F4F80916C07909149
:103B20006D070E94B13D64E273E0CE0142960E94AF
:103B3000A742AE014E5E5F4F61E080E00E94290B1C
:103B400087E090E090935E0780935D070E94460AAD
:103B50000C9460338AE20E94860A882341F18091A6
:103B60006607909167078332910510F4019602C0B1
:103B700083E290E090936707809366074AE0BE0176
:103B80006E5E7F4F80916607909167070E94B13DFE
:103B900060EA73E0CE0142960E94A742AE014E5EFB
:103BA0005F4F61E080E00E94290B0C9460338CE24F
:103BB0000E94860A882361F18091660790916707C9
:103BC0008630910530F001979093670780936607E0
:103BD00006C0A5E0B0E0B0936707A09366074AE08F
:103BE000BE016E5E7F4F80916607909167070E94CD
:103BF000B13D60EA73E0CE0142960E94A742AE0159
:103C00004E5E5F4F61E080E00E94290B0C946033B0
:103C100080E30E94860A882309F14AE0BE016E5EB5
:103C20007F4F80916607909167070E94B13D60EADF
:103C300073E0CE0142960E94A742AE014E5E5F4FF6
:103C400061E080E00E94290B8CE090E090935E0799
:103C500080935D070E94460A0C94603388E20E94BC
:103C6000860A8823B1F00E941F0B4AE353E060E00C
:103C700080E00E94290B4BE453E061E080E00E9469
:103C8000290B10925E0710925D070E94460A0C9461
:103C9000603364EF71E080E090E00E94520A882374
:103CA00011F40C9460338BE090E090935E07809366
:103CB0005D074EE753E061E080E00E94290B0E941F
:103CC000460A0C9460338AE20E94860A882341F1F6
:103CD00080916607909167078332910510F40196F1
:103CE00002C083E290E090936707809366074AE002
:103CF000BE016E5E7F4F80916607909167070E94BC
:103D0000B13D60EA73E0CE0142960E94A742AE0147
:103D10004E5E5F4F61E080E00E94290B0C9460339F
:103D20008CE20E94860A882361F180916607909157
:103D300067078630910530F001979093670780936D
:103D4000660706C0E5E0F0E0F0936707E0936607DA
:103D50004AE0BE016E5E7F4F8091660790916707D3
:103D60000E94B13D60EA73E0CE0142960E94A742F4
:103D7000AE014E5E5F4F61E080E00E94290B0C9423
:103D8000603380E30E94860A882309F14AE0BE017D
:103D90006E5E7F4F80916607909167070E94B13DEC
:103DA00060EA73E0CE0142960E94A742AE014E5EE9
:103DB0005F4F61E080E00E94290B8CE090E09093DF
:103DC0005E0780935D070E94460A0C94603388E288
:103DD0000E94860A811147CF6AEF70E080E090E090
:103DE0000E94520A882311F40C9460334AE0BE0109
:103DF0006E5E7F4F80916607909167070E94B13D8C
:103E000060EA73E0CE0142960E94A742AE014E5E88
:103E10005F4F61E080E00E94290B2AE0C22ED12C86
:103E2000D0925E07C0925D070E94460A0C946033F0
:103E300064EF71E080E090E00E94520A882311F460
:103E40000C9460330E941F0B48EB53E060E080E06D
:103E50000E94290B4AE0BE016E5E7F4F80916E0783
:103E600090916F070E94B13D69EC73E0CE014296DC
:103E70000E94A742AE014E5E5F4F61E080E00E946B
:103E8000290B8DE090E090935E0780935D070E9480
:103E9000460A0C9460338AE20E94860A882349F11C
:103EA00080916C0790916D07803223E0920710F4A7
:103EB000C29602C080E293E090936D0780936C07F6
:103EC0004AE0BE016E5E7F4F80916C0790916D0756
:103ED0000E94B13D64E273E0CE0142960E94A74287
:103EE000AE014E5E5F4F61E080E00E94290B0C94B2
:103EF00060338CE20E94860A882349F180916C0726
:103F000090916D078D3231E0930710F0C29702C097
:103F10008CE291E090936D0780936C074AE0BE01BC
:103F20006E5E7F4F80916C0790916D070E94B13D4E
:103F300064E273E0CE0142960E94A742AE014E5E5B
:103F40005F4F61E080E00E94290B0C94603380E3B6
:103F50000E94860A882309F14AE0BE016E5E7F4F07
:103F600080916C0790916D070E94B13D64E273E00F
:103F7000CE0142960E94A742AE014E5E5F4F61E0C5
:103F800080E00E94290B89E090E090935E07809387
:103F90005D070E94460A0C94603388E20E94860AFC
:103FA000811161CE64EF71E080E090E00E94520ADE
:103FB000882311F40C94603388E090E090935E07BE
:103FC00080935D074EE753E061E080E00E94290B9B
:103FD0000E94460A0C9460338AE20E94860A882373
:103FE00049F180916C0790916D07803243E094070E
:103FF00010F4C29602C080E293E090936D07809324
:104000006C074AE0BE016E5E7F4F80916C07909115
:104010006D070E94B13D64E273E0CE0142960E94BA
:10402000A742AE014E5E5F4F61E080E00E94290B27
:104030000C9460338CE20E94860A882349F18091B7
:104040006C0790916D078D32A1E09A0710F0C2972E
:1040500002C08CE291E090936D0780936C074AE078
:10406000BE016E5E7F4F80916C0790916D070E943C
:10407000B13D64E273E0CE0142960E94A742AE01D8
:104080004E5E5F4F61E080E00E94290B0C9460332C
:1040900080E30E94860A882309F14AE0BE016E5E31
:1040A0007F4F80916C0790916D070E94B13D64E253
:1040B00073E0CE0142960E94A742AE014E5E5F4F72
:1040C00061E080E00E94290B89E090E090935E0718
:1040D00080935D070E94460A0C94603388E20E9438
:1040E000860A8111C0CD6AEF70E080E090E00E9406
:1040F000520A882311F40C9460334AE0BE016E5ECC
:104100007F4F80916C0790916D070E94B13D64E2F2
:1041100073E0CE0142960E94A742AE014E5E5F4F11
:1041200061E080E00E94290BE7E0F0E0F0935E0799
:10413000E0935D070E94460A0C94603364EF71E0DF
:1041400080E090E00E94520A882311F40C946033BE
:104150000E941F0B48EB53E060E080E00E94290BB7
:104160004AE0BE016E5E7F4F80916E0790916F07AF
:104170000E94B13D69EC73E0CE0142960E94A742D5
:10418000AE014E5E5F4F61E080E00E94290B8DE042
:1041900090E090935E0780935D070E94460A0C941E
:1041A00060338AE20E94860A882341F180916E077B
:1041B00090916F078031910510F4019602C080E163
:1041C00090E090936F0780936E074AE0BE016E5EA9
:1041D0007F4F80916E0790916F070E94B13D69EC0F
:1041E00073E0CE0142960E94A742AE014E5E5F4F41
:1041F00061E080E00E94290B0C9460338CE20E9405
:10420000860A882341F180916E0790916F078D3067
:10421000910510F0019702C08CE090E090936F0739
:1042200080936E074AE0BE016E5E7F4F80916E07FD
:1042300090916F070E94B13D69EC73E0CE01429608
:104240000E94A742AE014E5E5F4F61E080E00E9497
:10425000290B0C94603380E30E94860A882309F1BD
:104260004AE0BE016E5E7F4F80916E0790916F07AE
:104270000E94B13D69EC73E0CE0142960E94A742D4
:10428000AE014E5E5F4F61E080E00E94290B8FE03F
:1042900090E090935E0780935D070E94460A0C941D
:1042A000603388E20E94860A882309F45BC080910B
:1042B0006007813051F50E941F0B4FE853E060E02A
:1042C00080E00E94290B4AE0BE016E5E7F4F809124
:1042D0006607909167070E94B13D60EA73E0CE01E6
:1042E00042960E94A742AE014E5E5F4F61E080E0C1
:1042F0000E94290B9AE0C92ED12CD0925E07C09261
:104300005D070E94460A0C94603381110C9460335F
:104310000E941F0B47EA53E060E080E00E94290BF7
:104320004AE0BE016E5E7F4F80916C0790916D07F1
:104330000E94B13D64E273E0CE0142960E94A74222
:10434000AE014E5E5F4F61E080E00E94290B87E086
:10435000E82EF12CF0925E07E0925D070E94460A7B
:104360000C94603364EF71E080E090E00E94520AA8
:10437000882311F40C9460338EE090E090935E07F4
:1043800080935D074EE753E061E080E00E94290BD7
:104390000E94460A0C9460338AE20E94860A8823AF
:1043A00041F180916E0790916F078031910510F473
:1043B000019602C080E190E090936F0780936E07B2
:1043C0004AE0BE016E5E7F4F80916E0790916F074D
:1043D0000E94B13D69EC73E0CE0142960E94A74273
:1043E000AE014E5E5F4F61E080E00E94290B0C94AD
:1043F00060338CE20E94860A882341F180916E0727
:1044000090916F078D30910510F0019702C08CE0FC
:1044100090E090936F0780936E074AE0BE016E5E56
:104420007F4F80916E0790916F070E94B13D69ECBC
:1044300073E0CE0142960E94A742AE014E5E5F4FEE
:1044400061E080E00E94290B0C94603380E30E94BD
:10445000860A882309F14AE0BE016E5E7F4F809193
:104460006E0790916F070E94B13D69EC73E0CE0139
:1044700042960E94A742AE014E5E5F4F61E080E02F
:104480000E94290B8FE090E090935E0780935D0778
:104490000E94460A0C94603388E20E94860A8823B0
:1044A00009F459C080916007813049F50E941F0BC3
:1044B0004FE853E060E080E00E94290B4AE0BE0133
:1044C0006E5E7F4F80916607909167070E94B13DB5
:1044D00060EA73E0CE0142960E94A742AE014E5EB2
:1044E0005F4F61E080E00E94290B2AE030E03093CA
:1044F0005E0720935D070E94460A0C946033811189
:104500000C9460330E941F0B47EA53E060E080E0A8
:104510000E94290B4AE0BE016E5E7F4F80916C07BE
:1045200090916D070E94B13D64E273E0CE01429626
:104530000E94A742AE014E5E5F4F61E080E00E94A4
:10454000290B87E090E090935E0780935D070E94BF
:10455000460A0C94603364EF71E080E090E00E94C2
:10456000520A882311F40C9460334AE0BE016E5E57
:104570007F4F80916E0790916F070E94B13D69EC6B
:1045800073E0CE0142960E94A742AE014E5E5F4F9D
:1045900061E080E00E94290B8DE090E090935E073F
:1045A00080935D070E94460A0C94603364EF71E0CB
:1045B00080E090E00E94520A882311F40C9460334A
:1045C0000E941F0B4DEC53E060E080E00E94290B3D
:1045D0004AE0BE016E5E7F4F809170079091710737
:1045E0000E94B13D69EC73E0CE0142960E94A74261
:1045F000AE014E5E5F4F61E080E00E94290B80E1DA
:1046000090E090935E0780935D070E94460A0C94A9
:1046100060338AE20E94860A882361F180917007E4
:10462000909171078530910530F401969093710750
:104630008093700706C0A5E0B0E0B0937107A09327
:1046400070074AE0BE016E5E7F4F809170079091C7
:1046500071070E94B13D69EC73E0CE0142960E9461
:10466000A742AE014E5E5F4F61E080E00E94290BE1
:104670000C9460338CE20E94860A882351F1809169
:104680007007909171078230910530F001979093F7
:1046900071078093700704C03092710720927007F1
:1046A0004AE0BE016E5E7F4F809170079091710766
:1046B0000E94B13D69EC73E0CE0142960E94A74290
:1046C000AE014E5E5F4F61E080E00E94290B0C94CA
:1046D000603380E30E94860A882309F14AE0BE0124
:1046E0006E5E7F4F80917007909171070E94B13D7F
:1046F00069EC73E0CE0142960E94A742AE014E5E85
:104700005F4F61E080E00E94290B82E190E090938E
:104710005E0780935D070E94460A0C94603388E22E
:104720000E94860A882349F10E941F0B48EB53E040
:1047300060E080E00E94290B4AE0BE016E5E7F4F80
:1047400080916E0790916F070E94B13D69EC73E014
:10475000CE0142960E94A742AE014E5E5F4F61E0DD
:1047600080E00E94290B8DE090E090935E0780939B
:104770005D070E94460A0C94603364EF71E080E0AC
:1047800090E00E94520A882311F40C94603381E176
:1047900090E090935E0780935D074EE753E061E001
:1047A00080E00E94290B0E94460A0C9460338AE242
:1047B0000E94860A882361F18091700790917107A9
:1047C0008530910530F401969093710780937007BE
:1047D00006C0E5E0F0E0F0937107E09370074AE06F
:1047E000BE016E5E7F4F80917007909171070E94AD
:1047F000B13D69EC73E0CE0142960E94A742AE0142
:104800004E5E5F4F61E080E00E94290B0C946033A4
:104810008CE20E94860A882351F180917007909162
:1048200071078230910530F0019790937107809362
:10483000700704C030927107209270074AE0BE01F1
:104840006E5E7F4F80917007909171070E94B13D1D
:1048500069EC73E0CE0142960E94A742AE014E5E23
:104860005F4F61E080E00E94290B0C94603380E38D
:104870000E94860A882309F14AE0BE016E5E7F4FDE
:1048800080917007909171070E94B13D69EC73E0CF
:10489000CE0142960E94A742AE014E5E5F4F61E09C
:1048A00080E00E94290B82E190E090935E07809364
:1048B0005D070E94460A0C94603388E20E94860AD3
:1048C000882349F10E941F0B48EB53E060E080E031
:1048D0000E94290B4AE0BE016E5E7F4F80916E07F9
:1048E00090916F070E94B13D69EC73E0CE01429652
:1048F0000E94A742AE014E5E5F4F61E080E00E94E1
:10490000290B8DE090E090935E0780935D070E94F5
:10491000460A0C94603364EF71E080E090E00E94FE
:10492000520A882311F40C9460334AE0BE016E5E93
:104930007F4F80917007909171070E94B13D69ECA3
:1049400073E0CE0142960E94A742AE014E5E5F4FD9
:1049500061E080E00E94290B80E190E090935E0787
:1049600080935D070E94460A0C94603364EF71E007
:1049700080E090E00E94520A882311F40C94603386
:104980000E941F0B4EED53E060E080E00E94290B77
:10499000809163074AE0BE016E5E7F4F90E00E9407
:1049A000B13D6DE873E0CE0142960E94A742AE0190
:1049B0004E5E5F4F61E080E00E94290B83E190E052
:1049C00090935E0780935D070E94460A0C946033C3
:1049D0008AE20E94860A882309F1809163078E315A
:1049E00010F48F5F01C08EE18093630780916307AD
:1049F0004AE0BE016E5E7F4F90E00E94B13D6DE8DF
:104A000073E0CE0142960E94A742AE014E5E5F4F18
:104A100061E080E00E94290B0C9460338CE20E94DC
:104A2000860A882309F180916307863010F081504F
:104A300001C085E080936307809163074AE0BE016F
:104A40006E5E7F4F90E00E94B13D6DE873E0CE0155
:104A500042960E94A742AE014E5E5F4F61E080E049
:104A60000E94290B0C94603380E30E94860A8823FD
:104A700001F1809163074AE0BE016E5E7F4F90E0D6
:104A80000E94B13D6DE873E0CE0142960E94A742BC
:104A9000AE014E5E5F4F61E080E00E94290B85E130
:104AA00090E090935E0780935D070E94460A0C9405
:104AB000603388E20E94860A882349F10E941F0B16
:104AC0004DEC53E060E080E00E94290B4AE0BE011B
:104AD0006E5E7F4F80916E0790916F070E94B13D8F
:104AE0006DE873E0CE0142960E94A742AE014E5E91
:104AF0005F4F61E080E00E94290B80E190E090939D
:104B00005E0780935D070E94460A0C94603364EF51
:104B100071E080E090E00E94520A882311F40C9426
:104B2000603384E190E090935E0780935D074EE7E9
:104B300053E061E080E00E94290B0E94460A0C9439
:104B400060338AE20E94860A882309F18091630714
:104B50008E3110F48F5F01C08EE1809363078091E6
:104B600063074AE0BE016E5E7F4F90E00E94B13D58
:104B70006DE873E0CE0142960E94A742AE014E5E00
:104B80005F4F61E080E00E94290B0C9460338CE25F
:104B90000E94860A882309F180916307863010F00D
:104BA000815001C085E080936307809163074AE0EC
:104BB000BE016E5E7F4F90E00E94B13D6DE873E0F4
:104BC000CE0142960E94A742AE014E5E5F4F61E069
:104BD00080E00E94290B0C94603380E30E94860AD7
:104BE000882301F1809163074AE0BE016E5E7F4F2A
:104BF00090E00E94B13D6DE873E0CE0142960E94C4
:104C0000A742AE014E5E5F4F61E080E00E94290B3B
:104C100085E190E090935E0780935D070E94460ACD
:104C20000C94603388E20E94860A882349F10E942E
:104C30001F0B4DEC53E060E080E00E94290B4AE03E
:104C4000BE016E5E7F4F80916E0790916F070E944C
:104C5000B13D6DE873E0CE0142960E94A742AE01DD
:104C60004E5E5F4F61E080E00E94290B80E190E0A2
:104C700090935E0780935D070E94460A0C94603310
:104C800064EF71E080E090E00E94520A882311F402
:104C90000C946033809163074AE0BE016E5E7F4FE3
:104CA00090E00E94B13D6DE873E0CE0142960E9413
:104CB000A742AE014E5E5F4F61E080E00E94290B8B
:104CC00083E190E090935E0780935D070E94460A1F
:104CD0000C94603364EF71E080E090E00E94520A2F
:104CE000882311F40C9460330E941F0B4FEE53E0A5
:104CF00060E080E00E94290B809164074AE0BE01D9
:104D00006E5E7F4F90E00E94B13D6DE873E0CE0192
:104D100042960E94A742AE014E5E5F4F61E080E086
:104D20000E94290B86E190E090935E0780935D07D7
:104D30000E94460A0C9460338AE20E94860A882305
:104D400009F180916407833210F48F5F01C083E220
:104D500080936407809164074AE0BE016E5E7F4FD6
:104D600090E00E94B13D6DE873E0CE0142960E9452
:104D7000A742AE014E5E5F4F61E080E00E94290BCA
:104D80000C9460338CE20E94860A882309F180919A
:104D900064078A3110F0815001C089E18093640773
:104DA000809164074AE0BE016E5E7F4F90E00E94F2
:104DB000B13D6DE873E0CE0142960E94A742AE017C
:104DC0004E5E5F4F61E080E00E94290B0C946033DF
:104DD00080E30E94860A882301F1809164074AE0FB
:104DE000BE016E5E7F4F90E00E94B13D6DE873E0C2
:104DF000CE0142960E94A742AE014E5E5F4F61E037
:104E000080E00E94290B88E190E090935E078093F8
:104E10005D070E94460A0C94603388E20E94860A6D
:104E2000882341F10E941F0B4EED53E060E080E0CB
:104E30000E94290B809163074AE0BE016E5E7F4F9E
:104E400090E00E94B13D6DE873E0CE0142960E9471
:104E5000A742AE014E5E5F4F61E080E00E94290BE9
:104E600083E190E090935E0780935D070E94460A7D
:104E70000C94603364EF71E080E090E00E94520A8D
:104E8000882311F40C94603387E190E090935E07DF
:104E900080935D074EE753E061E080E00E94290BBC
:104EA0000E94460A0C9460338AE20E94860A882394
:104EB00009F180916407833210F48F5F01C083E2AF
:104EC00080936407809164074AE0BE016E5E7F4F65
:104ED00090E00E94B13D6DE873E0CE0142960E94E1
:104EE000A742AE014E5E5F4F61E080E00E94290B59
:104EF0000C9460338CE20E94860A882309F1809129
:104F000064078A3110F0815001C089E18093640701
:104F1000809164074AE0BE016E5E7F4F90E00E9480
:104F2000B13D6DE873E0CE0142960E94A742AE010A
:104F30004E5E5F4F61E080E00E94290B0C9460336D
:104F400080E30E94860A882301F1809164074AE089
:104F5000BE016E5E7F4F90E00E94B13D6DE873E050
:104F6000CE0142960E94A742AE014E5E5F4F61E0C5
:104F700080E00E94290B88E190E090935E07809387
:104F80005D070E94460A0C94603388E20E94860AFC
:104F9000882341F10E941F0B4EED53E060E080E05A
:104FA0000E94290B809163074AE0BE016E5E7F4F2D
:104FB00090E00E94B13D6DE873E0CE0142960E9400
:104FC000A742AE014E5E5F4F61E080E00E94290B78
:104FD00083E190E090935E0780935D070E94460A0C
:104FE0000C94603364EF71E080E090E00E94520A1C
:104FF000882311F40C946033809164074AE0BE0169
:105000006E5E7F4F90E00E94B13D6DE873E0CE018F
:1050100042960E94A742AE014E5E5F4F61E080E083
:105020000E94290B86E190E090935E0780935D07D4
:105030000E94460A0C94603364EF71E080E090E0D7
:105040000E94520A882311F40C9460330E941F0BB3
:1050500040E054E060E080E00E94290B8091650709
:105060004AE0BE016E5E7F4F90E00E94B13D6DE868
:1050700073E0CE0142960E94A742AE014E5E5F4FA2
:1050800061E080E00E94290B89E190E090935E0747
:1050900080935D070E94460A0C9460338AE20E9466
:1050A000860A882309F1809165078A3010F48F5FA2
:1050B00001C08AE080936507809165074AE0BE01E0
:1050C0006E5E7F4F90E00E94B13D6DE873E0CE01CF
:1050D00042960E94A742AE014E5E5F4F61E080E0C3
:1050E0000E94290B0C9460338CE20E94860A88236C
:1050F00009F180916507863010F0815001C085E08C
:1051000080936507809165074AE0BE016E5E7F4F20
:1051100090E00E94B13D6DE873E0CE0142960E949E
:10512000A742AE014E5E5F4F61E080E00E94290B16
:105130000C94603380E30E94860A882301F18091F9
:1051400065074AE0BE016E5E7F4F90E00E94B13D70
:105150006DE873E0CE0142960E94A742AE014E5E1A
:105160005F4F61E080E00E94290B8BE190E090931B
:105170005E0780935D070E94460A0C94603388E2C4
:105180000E94860A882341F10E941F0B4FEE53E0D4
:1051900060E080E00E94290B809164074AE0BE0134
:1051A0006E5E7F4F90E00E94B13D6DE873E0CE01EE
:1051B00042960E94A742AE014E5E5F4F61E080E0E2
:1051C0000E94290B86E190E090935E0780935D0733
:1051D0000E94460A0C94603364EF71E080E090E036
:1051E0000E94520A882311F40C9460338AE190E003
:1051F00090935E0780935D074EE753E061E080E0A7
:105200000E94290B0E94460A0C9460338AE20E9495
:10521000860A882309F1809165078A3010F48F5F30
:1052200001C08AE080936507809165074AE0BE016E
:105230006E5E7F4F90E00E94B13D6DE873E0CE015D
:1052400042960E94A742AE014E5E5F4F61E080E051
:105250000E94290B0C9460338CE20E94860A8823FA
:1052600009F180916507863010F0815001C085E01A
:1052700080936507809165074AE0BE016E5E7F4FAF
:1052800090E00E94B13D6DE873E0CE0142960E942D
:10529000A742AE014E5E5F4F61E080E00E94290BA5
:1052A0000C94603380E30E94860A882301F1809188
:1052B00065074AE0BE016E5E7F4F90E00E94B13DFF
:1052C0006DE873E0CE0142960E94A742AE014E5EA9
:1052D0005F4F61E080E00E94290B8BE190E09093AA
:1052E0005E0780935D070E94460A0C94603388E253
:1052F0000E94860A882341F10E941F0B4FEE53E063
:1053000060E080E00E94290B809164074AE0BE01C2
:105310006E5E7F4F90E00E94B13D6DE873E0CE017C
:1053200042960E94A742AE014E5E5F4F61E080E070
:105330000E94290B86E190E090935E0780935D07C1
:105340000E94460A0C94603364EF71E080E090E0C4
:105350000E94520A882311F40C94603380916507EF
:105360004AE0BE016E5E7F4F90E00E94B13D6DE865
:1053700073E0CE0142960E94A742AE014E5E5F4F9F
:1053800061E080E00E94290B89E190E090935E0744
:1053900080935D070E94460A0C94603364EF71E0CD
:1053A00080E090E00E94520A882311F40C9460334C
:1053B0000E941F0B41E154E060E080E00E94290B55
:1053C000809161074AE0BE016E5E7F4F90E00E94CF
:1053D000B13D60E175E0CE0142960E94A742AE0168
:1053E0004E5E5F4F61E080E00E94290B8CE190E00F
:1053F00090935E0780935D070E94460A0C94603389
:105400008AE20E94860A882309F18091610780352B
:1054100010F48B5F01C080E5809361078091610784
:105420004AE0BE016E5E7F4F90E00E94B13D60E1B8
:1054300075E0CE0142960E94A742AE014E5E5F4FDC
:1054400061E080E00E94290B0C9460338CE20E94A2
:10545000860A882309F1809161078B3010F085500E
:1054600001C08AE080936107809161074AE0BE0134
:105470006E5E7F4F90E00E94B13D60E175E0CE012D
:1054800042960E94A742AE014E5E5F4F61E080E00F
:105490000E94290B0C94603380E30E94860A8823C3
:1054A00001F1809161074AE0BE016E5E7F4F90E09E
:1054B0000E94B13D60E175E0CE0142960E94A74294
:1054C000AE014E5E5F4F61E080E00E94290B8EE1ED
:1054D00090E090935E0780935D070E94460A0C94CB
:1054E000603388E20E94860A882341F10E941F0BE4
:1054F00040E054E060E080E00E94290B8091650765
:105500004AE0BE016E5E7F4F90E00E94B13D6DE8C3
:1055100073E0CE0142960E94A742AE014E5E5F4FFD
:1055200061E080E00E94290B89E190E090935E07A2
:1055300080935D070E94460A0C94603364EF71E02B
:1055400080E090E00E94520A882311F40C946033AA
:105550008DE190E090935E0780935D074EE753E006
:1055600061E080E00E94290B0E94460A0C9460339F
:105570008AE20E94860A882309F1809161078035BA
:1055800010F48B5F01C080E5809361078091610713
:105590004AE0BE016E5E7F4F90E00E94B13D60E147
:1055A00075E0CE0142960E94A742AE014E5E5F4F6B
:1055B00061E080E00E94290B0C9460338CE20E9431
:1055C000860A882309F1809161078B3010F085509D
:1055D00001C08AE080936107809161074AE0BE01C3
:1055E0006E5E7F4F90E00E94B13D60E175E0CE01BC
:1055F00042960E94A742AE014E5E5F4F61E080E09E
:105600000E94290B0C94603380E30E94860A882351
:1056100001F1809161074AE0BE016E5E7F4F90E02C
:105620000E94B13D60E175E0CE0142960E94A74222
:10563000AE014E5E5F4F61E080E00E94290B8EE17B
:1056400090E090935E0780935D070E94460A0C9459
:10565000603388E20E94860A882341F10E941F0B72
:105660004EED53E060E080E00E94290B80916307DB
:105670004AE0BE016E5E7F4F90E00E94B13D6DE852
:1056800073E0CE0142960E94A742AE014E5E5F4F8C
:1056900061E080E00E94290B83E190E090935E0737
:1056A00080935D070E94460A0C94603364EF71E0BA
:1056B00080E090E00E94520A882311F40C94603339
:1056C000809161074AE0BE016E5E7F4F90E00E94CC
:1056D000B13D60E175E0CE0142960E94A742AE0165
:1056E0004E5E5F4F61E080E00E94290B8CE190E00C
:1056F00090935E0780935D070E94460AE1C764EFBE
:1057000071E080E090E00E94520A882309F4D8C733
:105710000E941F0B42E254E060E080E00E94290BEF
:10572000809162074AE0BE016E5E7F4F90E00E946A
:10573000B13D60E175E0CE0142960E94A742AE0104
:105740004E5E5F4F61E080E00E94290B8FE190E0A8
:1057500090935E0780935D070E94460AB1C78AE274
:105760000E94860A882301F1809162078E3110F42D
:105770008B5F01C08EE180936207809162074AE0EF
:10578000BE016E5E7F4F90E00E94B13D60E175E02A
:10579000CE0142960E94A742AE014E5E5F4F61E08D
:1057A00080E00E94290B8CC78CE20E94860A882325
:1057B00009F180916207882321F085508093620768
:1057C00002C010926207809162074AE0BE016E5EDD
:1057D0007F4F90E00E94B13D60E175E0CE014296BE
:1057E0000E94A742AE014E5E5F4F61E080E00E94E2
:1057F000290B66C780E30E94860A8823F9F080910E
:1058000062074AE0BE016E5E7F4F90E00E94B13DAC
:1058100060E175E0CE0142960E94A742AE014E5E65
:105820005F4F61E080E00E94290B81E290E090935D
:105830005E0780935D070E94460A42C788E20E9485
:10584000860A882339F10E941F0B41E154E060E091
:1058500080E00E94290B809161074AE0BE016E5EE4
:105860007F4F90E00E94B13D60E175E0CE0142962D
:105870000E94A742AE014E5E5F4F61E080E00E9451
:10588000290B8CE190E090935E0780935D070E9466
:10589000460A16C764EF71E080E090E00E94520A69
:1058A000882309F40DC780E290E090935E0780930F
:1058B0005D074EE753E061E080E00E94290B0E9403
:1058C000460AFEC68AE20E94860A882301F1809178
:1058D00062078E3110F48B5F01C08EE18093620706
:1058E000809162074AE0BE016E5E7F4F90E00E94A9
:1058F000B13D60E175E0CE0142960E94A742AE0143
:105900004E5E5F4F61E080E00E94290BD9C68CE2B9
:105910000E94860A882309F180916207882321F07A
:1059200085508093620702C01092620780916207DF
:105930004AE0BE016E5E7F4F90E00E94B13D60E1A3
:1059400075E0CE0142960E94A742AE014E5E5F4FC7
:1059500061E080E00E94290BB3C680E30E94860AC2
:105960008823F9F0809162074AE0BE016E5E7F4FA6
:1059700090E00E94B13D60E175E0CE0142960E9448
:10598000A742AE014E5E5F4F61E080E00E94290BAE
:1059900081E290E090935E0780935D070E94460A43
:1059A0008FC688E20E94860A882339F10E941F0B65
:1059B00041E154E060E080E00E94290B80916107A2
:1059C0004AE0BE016E5E7F4F90E00E94B13D60E113
:1059D00075E0CE0142960E94A742AE014E5E5F4F37
:1059E00061E080E00E94290B8CE190E090935E07DB
:1059F00080935D070E94460A63C664EF71E080E011
:105A000090E00E94520A882309F45AC680916207E6
:105A10004AE0BE016E5E7F4F90E00E94B13D60E1C2
:105A200075E0CE0142960E94A742AE014E5E5F4FE6
:105A300061E080E00E94290B8FE190E090935E0787
:105A400080935D070E94460A3BC664EF71E080E0E8
:105A500090E00E94520A882309F432C60E941F0B6C
:105A600043E354E060E080E00E94290B4AE0BE017D
:105A70006E5E7F4F80916807909169070E94B13DEB
:105A800060EA73E0CE0142960E94A742AE014E5EEC
:105A90005F4F61E080E00E94290B82E290E09093EA
:105AA0005E0780935D070E94460A0AC68AE20E944A
:105AB000860A882339F180916807909169078733B6
:105AC000910510F4019602C087E390E09093690776
:105AD000809368074AE0BE016E5E7F4F8091680741
