:100000000C94E2020C94C2070C9497070C946C07B2
:100010000C9441070C9416070C94EB060C94C00644
:100020000C9495060C9413030C9413030C94130373
:100030000C9413030C94ED070C9413030C9413030A
:100040000C9413030C9413030C9413030C941303D8
:100050000C9413030C9413030C9413030C94CF15FA
:100060000C9413030C94CD080C94A3080C94130364
:100070000C9413030C9413030C9413030C941303A8
:100080000C9413030C9413030C9413030C94130398
:100090000C9413030C9413030C9413030C94030992
:1000A0000C9413030C9413030C9413030C94130378
:1000B0000C9413030C9413030C9413030C94130368
:1000C0000C9413030C9413030C9413030C94130358
:1000D0000C9413030C9413030C9413030C94130348
:1000E0000C9413035A1ABB1A5F1AA41A501BAE1BA6
:1000F000DC1B101CD31CEA1C60346B345A3672367D
:100100008536FA1C711DE11D4A1DB81D1D1E441EB9
:100110003F20E0209221A71E5C1F0C20C521BE229B
:10012000C823FB23C3249C25CE258726502782275E
:100130003A2802293429EC29B42AE62A9E2B632C7A
:10014000932C462D092E3A2EFB2ECD2FFE2FC0309C
:100150009331C5317F324B339C337033D13C163DE4
:100160007A3DB83DEE3D233E563E030F060FF50E99
:10017000F90EFF0E3D0F0A0F0E0F140F180F1C0F74
:10018000220F260F2A0F3D0F300F340F380F161194
:100190001B1120112A113411AD113E1146114E11BF
:1001A000581162116C117B118511AD118F119911CC
:1001B000A3110C9483050C9418050C9400050C9461
:1001C0002A0F0C944B330C94A41A0C94101C0C940E
:1001D0006C110C9499110C945F1A0C9463030C9499
:1001E00016110C94060F0C9402290C9472360C9480
:1001F0003A2E0C94F6030C943F200C9416030C94A6
:1002000020110C94C8230C94EC290C94EA1C0C9437
:1002100089050C94501B0C940D050C947F320C94A2
:10022000E0200C94A5050C9492210C9434290C9494
:10023000FF040C94030F0C94C3240C94A9030C9496
:100240005C1F0C94932C0C9482270C9434110C9406
:1002500040030C94441E0C94EE3D0C94AD110C9490
:100260005A1A0C94180F0C94C0300C94632C0C94F4
:1002700015030C943D0F0C94BB1A0C944E110C9466
:100280006B340C9485360C9409060C945A360C94F5
:10029000092E0C94AA050C94BE220C94233E0C94B7
:1002A0004F030C941D1E0C94B83D0C944A1D0C94E5
:1002B000FB2E0C94D13C0C94F50E0C94DC1B0C948E
:1002C000FB230C9450270C940E0F0C9485110C9466
:1002D000B81D0C94C5210C943E110C941B110C9468
:1002E00006050C94A71E0C9460340C94462D0C94B7
:1002F000340F0C94D31C0C94A4050C943A280C9441
:10030000300F0C9462110C94C5310C94220F0C9494
:10031000380F0C949C330C94AE1B0C94B42A0C94A0
:100320007A3D0C94CE250C94E62A0C94163D0C9440
:100330007B110C94140F0C942A110C940C200C9427
:10034000563E0C94763F0C949E2B0C948F110C947B
:10035000A3110C94260F0C941C0F0C94FE2F0C94DC
:1003600071030C940A0F0C94BE050C94FA1C0C94A7
:1003700087260C949C250C94E11D0C94DA050C94B2
:10038000711D0C948F050C9446110C9470330C94D1
:10039000F90E0C9493310C94FF0E0C9458110C949C
:1003A00003050C94CD2F00407A10F35A00A0724E32
:1003B00018090010A5D4E80000E87648170000E40A
:1003C0000B54020000CA9A3B000000E1F505000052
:1003D00080969800000040420F000000A0860100B7
:1003E0000000102700000000E80300000000640087
:1003F000000000000A0000000000010000000000F2
:100400002C76D888DC674F0823DFC1DFAE59E1B115
:10041000B796E5E3E453C63AE651997696E8E6C224
:100420008426EB898C9B62ED407C6FFCEFBC9C9F2B
:1004300040F2BAA56FA5F490055A2AF75C936B6C4D
:10044000F9676DC11BFCE0E40D47FEF520E6B50041
:10045000D0ED902E0300943577050080841E0800AF
:1004600000204E0A000000C80C333333330F986E5F
:1004700012831141EF8D2114893BE65516CFFEE61C
:10048000DB18D1844B381BF77C1D901DA4BBE424E2
:10049000203284725E228100C9F124ECA1E53D275F
:1004A00000002100240027002A002D003000330026
:1004B00001010000040107010A01000022002500DB
:1004C00028002B002E00310034000201000005013D
:1004D00008010B010200000A0B02090C0D0E0807AF
:1004E0000304010000000000000000000000000004
:1004F00000000000000000000000000000000000FC
:1005000000121110000000000000000000000000B8
:100510000000000000000000000000010210202088
:100520000808102040102040800201020108040247
:1005300001010204081020408080402010080402BD
:100540000180040201804020100804020108040216
:10055000010102040810204080010204081020401C
:1005600080000020002300260029002C002F0032EC
:10057000000001000003010601090105050505074A
:100580000508080808020202020A0A08080404040E
:10059000040101010101010101030303030303033A
:1005A00003040707070C0C0C0C0C0C0C0C020202C9
:1005B0000206060606060606060B0B0B0B0B0B0BBC
:1005C0000B00763F11241FBECFEFD1E2DEBFCDBFBF
:1005D00000E00CBF16E0A0E0B2E0EAE4FCE800E0D6
:1005E0000BBF02C007900D92AA32B107D9F72CE0D9
:1005F000AAE2B6E001C01D92A633B207E1F712E00D
:10060000C2EED2E000E006C021970109802FFE0172
:100610000E949843C13ED10780E00807A9F70E94D5
:1006200019160C9423460C9400000895CF92DF9283
:10063000EF92FF920F931F93CF93DF936C017A0198
:100640008B01C0E0D0E0CE15DF0581F0D8016D91BF
:100650008D01D601ED91FC910190F081E02DC60154
:100660001995892B11F02196EECF7E01C701DF91FC
:10067000CF911F910F91FF90EF90DF90CF90089551
:10068000FC01538D448D252F30E0842F90E0821B98
:10069000930B541710F0CF96089501970895FC011D
:1006A000918D828D981761F0828DDF01A80FB11DA9
:1006B0005D968C91928D9F5F9F73928F90E00895CD
:1006C0008FEF9FEF0895FC01918D828D981731F087
:1006D000828DE80FF11D858D90E008958FEF9FEFDB
:1006E0000895FC01918D228D892F90E0805C9F4FB1
:1006F000821B91098F73992708958DE59BE00E94D5
:10070000710321E0892B09F420E0822F0895FC0178
:10071000848DDF01A80FB11DA35ABF4F2C91848D8A
:1007200090E001968F739927848FA689B7892C93BF
:10073000A089B1898C91837080648C93938D848D12
:10074000981306C00288F389E02D80818F7D808315
:100750000895EF92FF920F931F93CF93DF93EC01D5
:1007600081E0888F9B8D8C8D981305C0E889F9896D
:10077000808185FD26C0F62E0B8D10E00F5F1F4F88
:100780000F731127E02E8C8DE8120CC00FB607FCFA
:10079000FACFE889F989808185FFF5CFCE010E94E3
:1007A0008703F1CF8B8DFE01E80FF11DE35AFF4F58
:1007B000F0829FB7F8940B8FEA89FB898081806271
:1007C0000AC09FB7F894EE89FF896083E889F989A8
:1007D00080818370806480839FBF81E090E0DF919F
:1007E000CF911F910F91FF90EF900895CF93DF93DA
:1007F000EC01888D8823C9F0EA89FB89808185FD19
:1008000005C0A889B9898C9186FD0FC00FB607FC79
:10081000F5CF808185FFF2CFA889B9898C9185FFBA
:10082000EDCFCE010E948703E7CFDF91CF910895EE
:10083000CF93C1E08DE59BE00E947103892B09F401
:1008400075C08DE59BE00E944F03853599F194F4C6
:100850008D3299F18C3441F18B3261F78091990896
:1008600090919A08A0919B08B0919C08C296A11DF6
:10087000B11D33C0843709F442C01CF48C36A1F09A
:10088000D9CF8537B9F08937A9F62DEC3CEC4CEC83
:100890005DE36091000270910102809102029091EB
:1008A00003020E94CF4339C080919D088C2780931A
:1008B0009D08C0CFC0939808BDCF809199089091B2
:1008C0009A08A0919B08B0919C0883339105A105DB
:1008D000B10560F0C297A109B1098093990890937E
:1008E0009A08A0939B08B0939C08A4CF10929908F3
:1008F00010929A0810929B0810929C089BCF2DECA6
:100900003CEC4CEC5DE3609100027091010280913F
:100910000202909103020E94CE4360930002709302
:100920000102809302029093030284CFCF91089535
:100930000E947D03811125C080E090E0892B41F069
:1009400080E090E0892B21F00E94000081111CC002
:1009500080E090E0892B41F080E090E0892B21F04D
:100960000E940000811113C080E090E0892BA1F06B
:1009700080E090E0892B81F00E94000081110AC084
:1009800008950E941804D8CF0E940000E1CF0E9471
:100990000000EACF0C940000089585ED8093BC0020
:1009A0008091BC0084FDFCCF1092E30A0895409131
:1009B000BF0A262F30E0240F311D21323105DCF42F
:1009C0002091E30A2430C9F4FC0180E090E086170E
:1009D00058F43091BF0A2191DC01A156B54FA30F05
:1009E000B11D2C930196F3CF8091BF0A680F6093DD
:1009F000BF0A80E0089581E0089582E00895089597
:100A00008FEF9FEF08958FEF9FEF089580919E0ADB
:100A100090E09195819591090895CF93DF93CB0153
:100A2000EA01642F0E94D704CE01DF91CF9108958F
:100A3000CF93DF931F92CDB7DEB7698361E0CE011C
:100A400001960E94D70481E090E00F90DF91CF9152
:100A50000895DC01ED91FD918081ED91FD919081F2
:100A6000ED91FD916C9163708E2309F064609F237A
:100A700009F06860E6E4F5E0E60FF11D659565951F
:100A80006D936D917D918D919D91099423C01AC0B4
:100A900012C016C010C01EC009C014C013C006C0CA
:100AA00019C009C00DC007C00DC014C0625070400D
:100AB000804090400BC0615070408040904006C024
:100AC0006E5F01C06F5F7F4F8F4F9F4F9E938E93DE
:100AD0007E936E93089580911B0C90911C0C0C9446
:100AE00029058091190C90911A0C0C94290580917C
:100AF000170C9091180C0C9429058091150C90916D
:100B0000160C0C9429058091130C9091140C0C94E4
:100B100029058091110C9091120C0C942905DC018F
:100B2000ED91FC910684F785E02D41E0199581E077
:100B300090E00895DC01ED91FC910684F785E02DAD
:100B400040E0199408950895089580E090E0089594
:100B50000E940C46FC0186898F3F79F02185328501
:100B6000662319F0232B31F403C02130310511F431
:100B700061E001C060E00C9459100895EF92FF927B
:100B80001F93CF93DF93EC01162F7A0161E0812F41
:100B90000E9488101E8BFA86E986E881F981048418
:100BA000F585E02D60E0CE01DF91CF911F91FF90A0
:100BB000EF9019940F931F93CF93DF93EC01162FAF
:100BC000042F61E0413009F060E08B850E945910EC
:100BD0008C858F3F19F060E00E945910023081F03F
:100BE0008C8184FF02C048E00CC0612F70E084E07B
:100BF000759567958A95E1F744E0CE010E949415BA
:100C000044E0612FCE01DF91CF911F910F910C94A1
:100C100094150F931F93CF93DF93EC01423018F09C
:100C20008C8188608C834F836887222329F0413030
:100C300019F48C8184608C830E945D156C8164FD45
:100C400031C0E881F9810684F785E02D42E063E058
:100C5000CE0119958BE496E40197F1F7E881F981CB
:100C60000684F785E02D42E063E0CE01199503E5A7
:100C700012E0C8010197F1F7E881F9810684F78550
:100C8000E02D42E063E0CE011995C8010197F1F72C
:100C9000E881F9810684F785E02D42E062E0CE012B
:100CA000199517C06062CE010E949A058BE496E404
:100CB0000197F1F76C816062CE010E949A0503E50D
:100CC00012E0C8010197F1F76C816062CE010E94C9
:100CD0009A05C8010197F1F76C816062CE010E940C
:100CE0009A058BEE90E00197F1F784E08D836CE03C
:100CF000CE010E949A0561E0CE010E949A058BE325
:100D00009FE10197F1F782E08E8366E0CE010E94B9
:100D10009A05E881F9810484F585E02D6FEFCE0115
:100D2000DF91CF911F910F9119941F920F920FB6DF
:100D30000F9211240BB60F922F933F934F935F9313
:100D40006F937F938F939F93AF93BF93EF93FF9393
:100D5000E0911302F09114021995FF91EF91BF9168
:100D6000AF919F918F917F916F915F914F913F9143
:100D70002F910F900BBE0F900FBE0F901F901895E4
:100D80001F920F920FB60F9211240BB60F922F9352
:100D90003F934F935F936F937F938F939F93AF9303
:100DA000BF93EF93FF93E0911102F0911202199516
:100DB000FF91EF91BF91AF919F918F917F916F9133
:100DC0005F914F913F912F910F900BBE0F900FBEEF
:100DD0000F901F9018951F920F920FB60F9211242B
:100DE0000BB60F922F933F934F935F936F937F9325
:100DF0008F939F93AF93BF93EF93FF93E09107027D
:100E0000F09108021995FF91EF91BF91AF919F91D9
:100E10008F917F916F915F914F913F912F910F90A3
:100E20000BBE0F900FBE0F901F9018951F920F9240
:100E30000FB60F9211240BB60F922F933F934F933F
:100E40005F936F937F938F939F93AF93BF93EF9332
:100E5000FF93E0910502F09106021995FF91EF9141
:100E6000BF91AF919F918F917F916F915F914F91C2
:100E70003F912F910F900BBE0F900FBE0F901F90C0
:100E800018951F920F920FB60F9211240BB60F9266
:100E90002F933F934F935F936F937F938F939F9382
:100EA000AF93BF93EF93FF93E0910F02F091100285
:100EB0001995FF91EF91BF91AF919F918F917F9184
:100EC0006F915F914F913F912F910F900BBE0F90BB
:100ED0000FBE0F901F9018951F920F920FB60F9292
:100EE00011240BB60F922F933F934F935F936F9301
:100EF0007F938F939F93AF93BF93EF93FF93E09173
:100F00000D02F0910E021995FF91EF91BF91AF91F3
:100F10009F918F917F916F915F914F913F912F9111
:100F20000F900BBE0F900FBE0F901F9018951F9241
:100F30000F920FB60F9211240BB60F922F933F937F
:100F40004F935F936F937F938F939F93AF93BF93D1
:100F5000EF93FF93E0910B02F0910C021995FF9132
:100F6000EF91BF91AF919F918F917F916F915F9121
:100F70004F913F912F910F900BBE0F900FBE0F908E
:100F80001F9018951F920F920FB60F9211240BB657
:100F90000F922F933F934F935F936F937F938F9312
:100FA0009F93AF93BF93EF93FF93E0910902F0916A
:100FB0000A021995FF91EF91BF91AF919F918F9187
:100FC0007F916F915F914F913F912F910F900BBE49
:100FD0000F900FBE0F901F9018951F920F920FB693
:100FE0000F9211240BB60F922F933F934F935F9361
:100FF0006F937F938F939F93AF93BF93EF93FF93E1
:101000008091140B9091150BA091160BB091170BBA
:10101000892B8A2B8B2B59F19091110BE091120B9C
:10102000F091130B8081892780838091140B90911C
:10103000150BA091160BB091170B181619061A066E
:101040001B060CF056C08091140B9091150BA091CB
:10105000160BB091170B0197A109B1098093140BDE
:101060009093150BA093160BB093170B42C0809171
:101070000402E4EDF4E0E4919FEF90930402E23087
:10108000C9F050F4EE2399F0E13081F590916F00B2
:101090009D7F90936F002AC0E43019F1E0F0E530B5
:1010A00029F5909173009D7F909373001FC010925B
:1010B0006E001CC0909170009D7F9093700091E035
:1010C0009093B0009091B100987F94609093B1009C
:1010D0001092B3000BC0909171009D7F90937100AE
:1010E00005C0909172009D7F9093720060E00E9415
:1010F0005910FF91EF91BF91AF919F918F917F9187
:101100006F915F914F913F912F910F900BBE0F9078
:101110000FBE0F901F9018956115710579F0FB01B6
:1011200001900020E9F73197AF01461B570BDC0116
:10113000ED91FC910280F381E02D199480E090E024
:1011400008950C948C081F920F920FB60F921124E1
:101150000BB60F922F933F934F935F936F937F93B1
:101160008F939F93AF93BF93EF93FF938DE59BE096
:101170000E948703FF91EF91BF91AF919F918F9153
:101180007F916F915F914F913F912F910F900BBE87
:101190000F900FBE0F901F9018951F920F920FB6D1
:1011A0000F9211240BB60F922F938F939F93EF936F
:1011B000FF93E0916D0BF0916E0B8081E091730BCA
:1011C000F091740B82FD12C090818091760B8F5F3D
:1011D0008F732091770B821751F0E091760BF0E03E
:1011E000E35AF44F958F8093760B01C08081FF9175
:1011F000EF919F918F912F910F900BBE0F900FBE8B
:101200000F901F9018951F920F920FB60F921124F6
:101210000BB60F922F933F934F935F936F937F93F0
:101220008F939F93AF93BF93EF93FF938091B900F8
:10123000887F803609F49CC068F5883209F45BC069
:1012400090F4803109F454C038F4882309F4F2C0D2
:10125000883009F44DC0F2C0883109F44CC08032A6
:1012600009F45DC0EBC0803409F468C048F48033F1
:1012700009F455C0883309F0E1C08093E20AD4C074
:10128000803509F44FC0883509F45DC0883409F011
:10129000D5C0D2C0883909F4C3C0A8F4883709F48E
:1012A00067C038F4883609F463C0803709F460C039
:1012B000C5C0883809F4B4C0803909F45FC08038EB
:1012C00009F0BCC05BC0803B09F484C038F4803AAC
:1012D00009F466C0883A09F47DC0B0C0803C09F4C6
:1012E000A3C0883C09F4A0C0883B09F486C0A6C00E
:1012F0008091080B10C09091070B8091060B9817F6
:1013000070F5E091070B81E08E0F8093070BF0E002
:10131000EA51F54F80818093BB0085EC82C08093B9
:10132000E20A8AC0E091070B81E08E0F8093070BE1
:101330008091BB00F0E0EA51F54F80839091070B5C
:101340008091060B6AC0E091070B81E08E0F8093BD
:10135000070B8091BB00F0E0EA51F54F808380914C
:10136000E50A811169C081E08093E40A84EA5DC0E6
:1013700083E08093E30A1092E10ACFCF8091E10AE3
:10138000803208F04DC0E091E10A81E08E0F809339
:10139000E10A8091BB00F0E0EF53F54F8083BDCFB1
:1013A00085EC8093BC001092E30A8091E10A8032C0
:1013B00030F4E091E10AF0E0EF53F54F10826091D4
:1013C000E10A70E081EC9AE0E0E0F0E0199510921B
:1013D000E10A34C084E08093E30A1092C00A1092BC
:1013E000BF0AE0E0F0E019958091BF0A811105C0C5
:1013F00081E08093BF0A10929F0AE091C00A81E0C9
:101400008E0F8093C00AF0E0E156F54F8081809303
:10141000BB009091C00A8091BF0A981708F47DCF55
:1014200085E88093BC000AC085EC8093BC001092D4
:10143000E30A04C01092E20A0E94CD04FF91EF91EA
:10144000BF91AF919F918F917F916F915F914F91DC
:101450003F912F910F900BBE0F900FBE0F901F90DA
:1014600018950E94511560939A0A70939B0A809375
:101470009C0A90939D0A80E00895CF92DF92EF92AC
:10148000FF920F931F93611571058105910541F43A
:101490001F910F91FF90EF90DF90CF900C94310A45
:1014A0006B017C010E94511500919A0A10919B0AD0
:1014B00020919C0A30919D0ADC01CB01801B910B8D
:1014C000A20BB30B21E0C816D906EA06FB0608F00A
:1014D00020E0822F1F910F91FF90EF90DF90CF902F
:1014E00008958F929F92AF92BF92EF92FF920F93C7
:1014F0001F93CF93DF93C82FD0E08E01000F111FF1
:10150000005D154FF801208131812115310521F051
:1015100021303105A1F16FC00E943010009719F001
:101520000197A1F16BC00E9451159E01220F331F3C
:10153000220F331FA901445A564F7A01FA018080C5
:101540009180A280B380DC01CB0188199909AA0996
:10155000BB090697A105B10508F450C081E090E0F1
:10156000F80191838083C15AD74F88830E94511517
:10157000F701608371838283938381E040C00E947E
:101580003010009719F0019771F038C00E94511582
:10159000CC0FDD1FCC0FDD1FC45AD64F6883798373
:1015A0008A839B832BC00E9451159E01220F331FFB
:1015B000220F331FA901445A564F7A01FA01808045
:1015C0009180A280B380DC01CB0188199909AA0916
:1015D000BB090697A105B10588F0F80111821082B8
:1015E000C15AD74F18820E945115F7016083718349
:1015F0008283938303C0F8011182108280E0DF911F
:10160000CF911F910F91FF90EF90BF90AF909F905F
:101610008F90089561E08AEF9BE00E949A058BE32A
:101620009FE10197F1F70895CF92DF92EF92FF9239
:101630000F931F93CF93DF93CDB7DEB728970FB6E5
:10164000F894DEBF0FBECDBF8A01C090DB02D09000
:10165000DC02E090DD02F090DE02CD82DE82EF82DD
:10166000F886C090DF02D090E002E090E102F090B6
:10167000E202C982DA82EB82FC829091010C691746
:1016800010F06FEF690F4091020C262F30E0FE0141
:10169000E20FF31F403121F4943011F4618101C055
:1016A0006581680F60688AEF9BE00E949A05B80127
:1016B0008AEF9BE028960FB6F894DEBF0FBECDBF31
:1016C000DF91CF911F910F91FF90EF90DF90CF901E
:1016D0000C94A108EEE0F8E080E0928191118F5F18
:1016E000399698E0E635F907C1F70895382F21E0DB
:1016F00049E0932F920F892F8770489FF0011124A2
:10170000E25FF74F9281911103C02F5F293089F773
:1017100008958091580881110AC0E9E5F8E08191A7
:10172000811107C098E0EF35F907C9F708951092C5
:101730005808089580910F0881110BC0EEE0F8E081
:101740008281811108C0399698E0E635F907C1F722
:10175000089510920F08089590910E08992341F072
:1017600091E090935808E82FF0E0E75AF74F908304
:1017700008950F931F9390910E08992391F091E093
:1017800090930F08A9E08A9FF0011124E25FF74FC0
:1017900092834383548365837683078310872187ED
:1017A00032871F910F91089520E042E060E18AEFB7
:1017B0009BE00E94090662E08AEF9BE00E949A0586
:1017C0008BE39FE10197F1F70E940A0B48E056E096
:1017D00060E080E00E94140B49E156E061E080E0A7
:1017E0000E94140B61E08CE00E94881061E087E0A9
:1017F0000E94881010920E088091300B811108C051
:1018000044EF51E060E070E084EF91E00E94B91194
:1018100010929708109296081092950810929408CA
:1018200062E08CE20E94881062E08AE20E948810E6
:1018300062E088E20E94881062E086E20E948810DE
:1018400062E08EE20E94881062E080E30E948810CD
:101850000E94310A0C94B70FCF92DF92EF92FF9261
:101860000F931F93CF93DF93EAE2F6E060E070E01E
:1018700080E090E0DC010481158126813781800FB2
:10188000911FA21FB31F6F5F7F4F81362AEE920711
:10189000A105B10540F080E090E00E94E8446B01B2
:1018A0007C01D1E008C03C966E31710521F7D0E093
:1018B000C12CD12C7601C0911F0B6C2F70E080E001
:1018C00090E00E94EA449B01AC01C701B6010E946E
:1018D0009A45181674F4DD2361F06C2F70E080E0F7
:1018E00090E00E94E8448B019C01B701A60185E0CD
:1018F0001DC0C091200B6C2F70E080E090E00E9432
:10190000EA449B01AC01C701B6010E943B4487FF3A
:101910000FC0DD2369F06C2F70E080E090E00E9442
:10192000E8448B019C01B701A60186E00E94B90B37
:10193000C701B601DF91CF911F910F91FF90EF90FA
:10194000DF90CF9008952F923F924F925F926F92C7
:101950007F928F929F92AF92BF92CF92DF92EF923F
:10196000FF92CF93DF93CDB7DEB728970FB6F894E9
:10197000DEBF0FBECDBF2090CA073090CB0740908E
:10198000CC075090CD07E3E1F3E0612C712C21915D
:1019900031914191519129833A834B835C83221683
:1019A0003306440655060CF052C0C3010197880F58
:1019B000991F880F991FFC01ED51FD4FC080D18008
:1019C000E280F380FC01ED5EFC4F608171818281D9
:1019D00093810E94EA444B015C01F301EE0FFF1F6B
:1019E000EE0FFF1FED51FD4FA70196016081718140
:1019F000828193810E94CE436D837E838F839887FB
:101A0000C201B1010E94EA44A50194010E94CE43A3
:101A10009B01AC016D817E818F8198850E949F45DD
:101A20002B013C0169817A818B819C810E94EA446F
:101A3000A50194010E94CE439B01AC01C301B201F8
:101A40000E944044A70196010E94CF4308C03FEF87
:101A5000631A730A4CE06416710409F098CF289653
:101A60000FB6F894DEBF0FBECDBFDF91CF91FF90D0
:101A7000EF90DF90CF90BF90AF909F908F907F902E
:101A80006F905F904F903F902F9008958091180B2A
:101A9000882309F465C08091020890910308892B7E
:101AA00011F01092180B60911E0B70E080E090E036
:101AB0000E94E8446093930770939407809395077E
:101AC000909396076091270B7091280B80E090E02F
:101AD0000E94E84460939B0770939C0780939D0746
:101AE00090939E0760911C0B70E080E090E00E9454
:101AF000E84420E030E048EC52E40E944044609327
:101B00009F077093A0078093A1079093A20760910D
:101B10001D0B70E080E090E00E94E84420E030E09F
:101B200048EC52E40E9440446093A3077093A407DA
:101B30008093A5079093A6076091210B7091220BCB
:101B400080E090E00E94E8446093B9077093BA0780
:101B50008093BB079093BC0780911B0B8093A707D2
:101B600008958091280C823030F4F8948DE19CE047
:101B70000E94290501C0F8948091240C9091250CB5
:101B8000A091260CB091270C78948093C60790936F
:101B9000C707A093C807B093C907F8941092240C04
:101BA0001092250C1092260C1092270C78944091DC
:101BB000CA075091CB076091CC077091CD078091F7
:101BC000C6079091C707A091C807B091C907840FB5
:101BD000951FA61FB71F8093CA079093CB07A093AA
:101BE000CC07B093CD0708954F925F926F927F928A
:101BF0008F929F92AF92BF92CF92DF92EF92FF921D
:101C00000F931F93CF93DF930E94B10D1092CA07D9
:101C10001092CB071092CC071092CD0781E090E094
:101C200090930308809302082091930730919407C2
:101C3000409195075091960760E070E68AE697E438
:101C40000E9440444B015C0140909F075090A007C8
:101C50006090A1077090A207A30192010E949F4586
:101C60006B017C016093D6077093D7078093D807E8
:101C70009093D907A301920160E070E080E89FE3B0
:101C80000E94CE43A50194010E949F456093DA070C
:101C90007093DB078093DC079093DD078090A307A8
:101CA0009090A407A090A507B090A607A501940165
:101CB00060E070E080E89FE30E94CE43A7019601B8
:101CC0000E949F456093DE077093DF078093E007D3
:101CD0009093E107A5019401C701B6010E949F45B9
:101CE0006093E2077093E3078093E4079093E5071E
:101CF0000E9451150E94E8442091D6073091D707E1
:101D00004091D8075091D9070E94CF430E94B9440F
:101D10006093F6077093F7078093F8079093F9079D
:101D20000E9451150E94E8442091DE073091DF07A0
:101D30004091E0075091E1070E94CF430E94B944CF
:101D40006093F2077093F3078093F4079093F5077D
:101D5000C0909B07D0909C07E0909D07F0909E0755
:101D600003EE12E0C0E0D0E0F80161917191819141
:101D700091918F01A70196010E943B44811113C0EC
:101D8000CC0FDD1FCC0FDD1FCD5EDC4F888199812C
:101D9000AA81BB818093CE079093CF07A093D007F1
:101DA000B093D10704C02196CC30D105E9F6DF917C
:101DB000CF911F910F91FF90EF90DF90CF90BF9048
:101DC000AF909F908F907F906F905F904F9008950D
:101DD00090E0FC013197E231F10508F04EC0882710
:101DE000EB54FF4F8F4F0C949843809180008F7776
:101DF00003C0809180008F7D809380000895809142
:101E00008000877FF9CF84B58F7702C084B58F7D3E
:101E100084BD08958091B0008F7703C08091B00099
:101E20008F7D8093B0000895809190008F7707C0D8
:101E3000809190008F7D03C080919000877F809378
:101E4000900008958091A0008F7707C08091A00036
:101E50008F7D03C08091A000877F8093A0000895AC
:101E6000809120018F7707C0809120018F7D03C072
:101E700080912001877F8093200108958F929F9207
:101E8000AF92BF92CF92DF92EF92FF920F931F9388
:101E9000CF93DF93CDB7DEB7A1970FB6F894DEBF2F
:101EA0000FBECDBF6C01990FEE08FF08F7FE2DC0E5
:101EB0006DE28DE59BE00E94A9038C012227332768
:101EC000A9012C193D094E095F0919A2CE0181967D
:101ED0007C019AE0892E912CA12CB12CCA01B90168
:101EE000A50194010E945743605DF70162937F0151
:101EF000211531054105510589F7BF018DE59BE0AD
:101F00000E948C08800F911F1FC0A701960119A283
:101F10008E010F5D1F4F8AE0C82ED12CE12CF12CD1
:101F2000CA01B901A70196010E945743605DF801FB
:101F300062938F01211531054105510589F7BF01D4
:101F40008DE59BE00E948C08A1960FB6F894DEBF49
:101F50000FBECDBFDF91CF911F910F91FF90EF90FA
:101F6000DF90CF90BF90AF909F908F900895BF92D9
:101F7000CF92DF92EF92FF920F931F93CF93DF9355
:101F8000EEE2FBE082E0B82EB382C4EFD1E0D08B6A
:101F9000C7876EE070E0728B618B42E050E0548B3B
:101FA000438BBEE0B6839EE1978387E0808729E17B
:101FB000C22EC4823AE0D32ED582AEE1EA2EF12CB5
:101FC000F486E38607E010E016870587AEEFA58B61
:101FD00024E130E032872187E8E1FBE0B382C4826C
:101FE000D582F486E38616870587B683D08BC787AC
:101FF000A58B728B618B548B438B328721879783A0
:102000008087DF91CF911F910F91FF90EF90DF902C
:10201000CF90BF900895CF92DF92EF92FF920F93EF
:10202000CF93DF936B017A01E901AC0160E080E0BE
:102030000E94140BA60160E088E00E94140BA70127
:1020400061E084E00E94140BAE0161E0802FDF911B
:10205000CF910F91FF90EF90DF90CF900C94140BE5
:10206000CF93DF93282F30E0F901EB52FB4F84919F
:10207000F901E55EFA4FD491F901E558FA4FC491A0
:10208000CC2391F081110E94E80EEC2FF0E0EE0FCE
:10209000FF1FEF59FA4FA591B491EC91ED2381E028
:1020A00090E021F480E002C080E090E0DF91CF91E9
:1020B00008951F93CF93DF93282F30E0F901EB525F
:1020C000FB4F8491F901E55EFA4FD491F901E5588F
:1020D000FA4FC491CC23C1F0162F81110E94E80E53
:1020E000EC2FF0E0EE0FFF1FE654FB4FA591B491EB
:1020F0009FB7F894111104C08C91D095D82302C0D9
:10210000EC91DE2BDC939FBFDF91CF911F9108955F
:10211000CF93DF9390E0FC01E55EFA4F2491FC0140
:10212000E558FA4F8491882361F190E0880F991F58
:10213000FC01E056FB4FC591D491FC01E654FB4FE6
:10214000A591B491611109C09FB7F8948881209539
:1021500082238883EC912E230BC0623061F49FB7F9
:10216000F8948881322F309583238883EC912E2B2D
:102170002C939FBF06C08FB7F894E8812E2B28833D
:102180008FBFDF91CF910895CF92DF92EF92FF92B0
:10219000CF93DF936B017C0120E030E0A9010E9426
:1021A0003B4487FF06C0F7FAF094F7F8F09461E03B
:1021B00001C060E084E00E94591021EE3AE744E05B
:1021C00050E4C701B6010E94404420E030E04FE7F0
:1021D00053E40E949F450E94B2446B017C01EB01D5
:1021E00061E085E00E948810209711F460E004C04F
:1021F000CF3FD10551F461E085E0DF91CF91FF90B1
:10220000EF90DF90CF900C945910EAEDF4E0E49158
:102210008E2F90E0FC013197E231F10508F09DC06E
:102220008827E953FF4F8F4F0C94984384B58068FB
:1022300084BDC7BC97C084B5806284BDC8BC92C051
:1022400080918000806880938000D0928900C09245
:10225000880088C080918000806280938000D09246
:102260008B00C0928A007EC080918000886080933D
:102270008000D0928D00C0928C0074C08091B0001C
:1022800080688093B000C092B3006CC08091B000B1
:1022900080628093B000C092B40064C080919000CE
:1022A000806880939000D0929900C09298005AC0A4
:1022B00080919000806280939000D0929B00C092A9
:1022C0009A0050C080919000886080939000D092D6
:1022D0009D00C0929C0046C08091A00080688093C1
:1022E000A0008091A0008F7B8093A000D092A900D5
:1022F000C092A80037C08091A00080628093A000A7
:10230000D092AB00C092AA002DC08091A00088603E
:102310008093A000D092AD00C092AC0023C0809109
:102320002001806880932001D0922901C092280169
:1023300019C080912001806280932001D0922B01EE
:10234000C0922A010FC080912001886080932001F3
:10235000D0922D01C0922C0105C0C038D1050CF0DF
:102360004ACF44CFDF91CF91FF90EF90DF90CF9095
:1023700008954F925F926F927F928F929F92AF9249
:10238000BF92CF92DF92EF92FF920F931F93CF9362
:10239000DF9300D01F921F92CDB7DEB78C012A01C8
:1023A0003B0180910402873021F08F3F09F01FC369
:1023B00005C0E4EDF4E024912D83D9C087E080933B
:1023C0000402E4EDF4E084918D838F3F09F40FC3A0
:1023D000823009F468C028F5882309F44BC08130A5
:1023E00009F0C5C010928000109281008091810098
:1023F000886080938100809181008160809381005A
:10240000E2E8F5E0E491F0E0EE0FFF1FE654FB4F49
:1024100085919491E2E2F5E0E491E093470B21E0AD
:10242000A4C09D81943009F482C008F460C0953046
:1024300009F09DC01092200110922101809121018C
:102440008860809321018091210181608093210126
:10245000E2E8F5E0E491F0E0EE0FFF1FE654FB4FF9
:1024600085919491E2E2F5E0E491E093440B85E0FC
:102470008D8307C114BC15BC84B5826084BD85B54D
:10248000816085BDE2E8F5E0E491F0E0EE0FFF1F2A
:10249000E654FB4F85919491E2E2F5E0E491E093FC
:1024A000480B1D829FC21092B0001092B100809123
:1024B000B00082608093B0008091B1008160809311
:1024C000B100E2E8F5E0E491F0E0EE0FFF1FE65422
:1024D000FB4F859194919093130B8093120BE2E242
:1024E000F5E0E491E093110B82E08D837BC21092C2
:1024F00090001092910080919100886080939100EB
:1025000080919100816080939100E2E8F5E0E49190
:10251000F0E0EE0FFF1FE654FB4F85919491E2E24D
:10252000F5E0E491E093460B93E09D83AAC01092FE
:10253000A0001092A1008091A10088608093A1006A
:102540008091A10081608093A100E2E8F5E0E49130
:10255000F0E0EE0FFF1FE654FB4F85919491E2E20D
:10256000F5E0E491E093450B24E02D838AC09D8142
:1025700097FD3DC261E087E00E9488108D818D7FCC
:1025800009F083C04801A12CB12C60E072E18AE718
:1025900090E0A50194010E94794329833A834B83FB
:1025A0005C8369017A0121E0C21AD108E108F108CF
:1025B0008FEFC816D104E104F10409F008F44EC00D
:1025C00060E472E48FE090E0A50194010E947943F9
:1025D00069017A0191E0C91AD108E108F1082D8159
:1025E000223009F58FEFC816D104E104F10409F097
:1025F00008F4BFC160E970ED83E090E0A5019401AB
:102600000E94794369017A0191E0C91AD108E10871
:10261000F1082FEFC216D104E104F10411F008F023
:1026200036C183E027C08FEFC816D104E104F1045E
:10263000B9F0B0F068E478EE81E090E0A501940193
:102640000E94794369017A0191E0C91AD108E10831
:10265000F1082D81222309F490C158C181E001C005
:1026600082E09D81911106C095B5987F892B85BD2B
:102670007FC085E09091B100987F892B8093B10055
:1026800077C061E087E00E9488104801A12CB12C3E
:1026900060E072E18AE790E0A50194010E9479432D
:1026A00069017A0181E0C81AD108E108F108C11472
:1026B000D10491E0E906F10488F068E478EE81E065
:1026C00090E0A50194010E94794369017A0181E0BB
:1026D000C81AD108E108F10883E001C081E09D81BA
:1026E000913081F490918100987F892B80938100B3
:1026F000411451046104710409F03FC02FEF3FEF12
:10270000A9016DC02D81233079F490919100987FBB
:10271000892B80939100411451046104710469F57F
:102720002FEF3FEFA9017DC09D81943079F4909106
:10273000A100987F892B8093A1004114510461046A
:102740007104D9F42FEF3FEFA9017DC02D81253011
:1027500079F490912101987F892B80932101411474
:1027600051046104710449F42FEF3FEFA9017DC0CA
:10277000411451046104710471F0D801AA0FBB1F08
:10278000A30192010E94A04328EE33E040E050E014
:102790000E94574303C02FEF3FEFA9018D81823084
:1027A00081F12CF4882361F08130C9F020C19D8132
:1027B000943009F448C0ACF1953009F456C017C103
:1027C000C7BC2093590B30935A0B40935B0B50932B
:1027D0005C0B80916E00826080936E0008C1D09285
:1027E0008900C09288002093550B3093560B40937C
:1027F000570B5093580B80916F00826080936F004D
:10280000F6C0C092B3002093140B3093150B409385
:10281000160B5093170B80917000826080937000AC
:10282000E6C0D0929900C09298002093510B30934B
:10283000520B4093530B5093540B80917100826064
:1028400080937100D4C0D092A900C092A8002093B8
:102850004D0B30934E0B40934F0B5093500B809188
:102860007200826080937200C2C0D0922901C0922F
:1028700028012093490B30934A0B40934B0B509304
:102880004C0B80917300826080937300B0C068E449
:1028900078EE81E090E0A50194010E9479436901FE
:1028A0007A0181E0C81AD108E108F1089FEFC91642
:1028B000D104E104F10441F138F164E274EF80E005
:1028C00090E0A50194010E94794369017A0181E0B9
:1028D000C81AD108E108F1089FEFC916D104E10434
:1028E000F10409F008F4C5CE62E17AE780E090E0F7
:1028F000A50194010E94794369017A0181E0C81A17
:10290000D108E108F10818C084E0B4CE2FEFC21658
:10291000D104E104F10479F170F162E17AE780E039
:1029200090E0A50194010E94794369017A0191E048
:10293000C91AD108E108F1088FEFC816D104E104E3
:10294000F104A9F0A0F089819A81AB81BC812AE0D1
:10295000B595A795979587952A95D1F76C017D0137
:1029600021E0C21AD108E108F10887E083CE86E0B1
:1029700081CE82E07FCE84E074CE2FEFC216D104E8
:10298000E104F10469F160F162E17AE780E090E04E
:10299000A50194010E94794369017A0181E0C81A76
:1029A000D108E108F1089FEFC916D104E104F10450
:1029B000A9F0A0F089819A81AB81BC813AE0B595FC
:1029C000A795979587953A95D1F76C017D0121E000
:1029D000C21AD108E108F10885E046CE84E044CE71
:1029E00083E042CE61E087E00E948810CBCD0F905B
:1029F0000F900F900F900F90DF91CF911F910F913B
:102A0000FF90EF90DF90CF90BF90AF909F908F900E
:102A10007F906F905F904F900895863308F08653B3
:102A200090917B00282F2870977F922B90937B00AA
:102A30008770806480937C0080917A0080648093AA
:102A40007A0080917A0086FDFCCF809178002091F9
:102A5000790090E0922B08953FB7F89480910D0B88
:102A600090910E0BA0910F0BB091100B26B5A89B67
:102A700005C02F3F19F00196A11DB11D3FBFBA2F10
:102A8000A92F982F8827820F911DA11DB11DBC0170
:102A9000CD0142E0660F771F881F991F4A95D1F735
:102AA00008952FB7F8946091090B70910A0B8091EB
:102AB0000B0B90910C0B2FBF08958F929F92AF92AA
:102AC000BF92CF92DF92EF92FF920E942C154B01A2
:102AD0005C0184E6C82ED12CE12CF12C0E942C152F
:102AE000DC01CB0188199909AA09BB09883E9340EA
:102AF000A105B10598F321E0C21AD108E108F10857
:102B000088EE880E83E0981EA11CB11CC114D1046C
:102B1000E104F10419F7FF90EF90DF90CF90BF90A0
:102B2000AF909F908F900895AF92BF92CF92DF9217
:102B3000EF92FF920F931F93CF93DF938C015C0171
:102B40008EE0A80EB11CC42ED12CC0E0D0E0E62E41
:102B5000F12CCC15DD0579F0B7010C2E02C075956E
:102B600067950A94E2F76170F50181915F010E9417
:102B700059102196EECF61E0F80185850E94591029
:102B800060E0F8018585DF91CF911F910F91FF9053
:102B9000EF90DF90CF90BF90AF900C9459101F92A0
:102BA0000F920FB60F9211242F933F938F939F9301
:102BB000AF93BF938091090B90910A0BA0910B0BDF
:102BC000B0910C0B3091350C23E0230F2D3720F4FE
:102BD0000196A11DB11D05C026E8230F0296A11D77
:102BE000B11D2093350C8093090B90930A0BA09391
:102BF0000B0BB0930C0B80910D0B90910E0BA091D1
:102C00000F0BB091100B0196A11DB11D80930D0B00
:102C100090930E0BA0930F0BB093100BBF91AF913D
:102C20009F918F913F912F910F900FBE0F901F900A
:102C30001895CF93DF93CDB7DEB7E5970FB6F8942D
:102C4000DEBF0FBECDBF789484B5826084BD84B5ED
:102C5000816084BD85B5826085BD85B5816085BD97
:102C600080916E00816080936E001092810080914F
:102C700081008260809381008091810081608093D7
:102C80008100809180008160809380008091B100FC
:102C900084608093B1008091B00081608093B00027
:102CA0008091910082608093910080919100816079
:102CB000809391008091900081608093900080913A
:102CC000A10082608093A1008091A1008160809327
:102CD000A1008091A00081608093A00080912101DB
:102CE0008260809321018091210181608093210184
:102CF0008091200181608093200180917A0084601E
:102D000080937A0080917A00826080937A0080912B
:102D10007A00816080937A0080917A008068809345
:102D20007A001092C1000E94D40B1092A408109255
:102D3000A30810929F081092A0081092A108109268
:102D4000A20810929E081092E5081092E4081092D2
:102D5000930710929407109295071092960710927D
:102D60009707109298071092990710929A0710925D
:102D70009F071092A0071092A1071092A20710922D
:102D8000A3071092A4071092A5071092A60710920D
:102D9000A7071092A9071092AA071092AB071092EA
:102DA000AC071092AD071092AE071092AF071092C9
:102DB000B0071092B1071092B2071092B3071092A9
:102DC000B4071092B5071092B6071092B707109289
:102DD000B8071092B9071092BA071092BB07109269
:102DE000BC071092BD071092BE071092BF07109249
:102DF000C0071092C1071092C2071092C307109229
:102E0000C4071092C5071092C6071092C707109208
:102E1000C8071092C9071092CA071092CB071092E8
:102E2000CC071092CD071092CE071092CF071092C8
:102E3000D0071092D1071092D2071092D3071092A8
:102E4000D4071092D5071092D6071092D707109288
:102E5000D8071092D9071092DA071092DB07109268
:102E6000DC071092DD071092DE071092DF07109248
:102E7000E0071092E1071092E2071092E307109228
:102E8000E4071092E5071092E6071092E707109208
:102E9000E8071092E9071092EA071092EB071092E8
:102EA000EC071092ED071092EE071092EF071092C8
:102EB000F0071092F1071092F2071092F3071092A8
:102EC000F4071092F5071092F6071092F707109288
:102ED000F8071092F9071092FA071092FB07109268
:102EE000FC071092FD071092FE071092FF07109248
:102EF0000008109201081092030810920208109224
:102F000004081092050880E090E0A0E0B0E480930F
:102F1000060890930708A0930808B0930908109238
:102F20000A0810920B0810920C0810920D0861E02C
:102F300085E00E94881061E084E00E94881060E0D3
:102F400086E00E948810E0916D0BF0916E0B82E09C
:102F50008083E091690BF0916A0B1082E0916B0B1A
:102F6000F0916C0B80E180831092750BE091710BF6
:102F7000F091720B86E08083E0916F0BF091700B03
:102F8000808180618083E0916F0BF091700B808174
:102F900088608083E0916F0BF091700B8081806876
:102FA0008083E0916F0BF091700B80818F7D808327
:102FB00010929D081092980884E690E0A0E0B0E09E
:102FC0008093990890939A08A0939B08B0939C08CB
:102FD00061E08DE00E948810109257091092560906
:102FE0000E945115609358097093590980935A09AA
:102FF00090935B0952E0252E312C8091B608909178
:10300000B708A091B808B091B9088093320990939D
:103010003309A0933409B0933509809104088823BB
:10302000A1F1109204088091BA089091BB08A09178
:10303000BC08B091BD0820E030E040EF50EC209398
:10304000BA083093BB084093BC085093BD088093E6
:10305000360990933709A0933809B09339098091C4
:10306000C208882391F01092C2088091BE08909106
:10307000BF08A091C008B091C10880933A0990930D
:103080003B09A0933C09B0933D0980910508882332
:10309000C1F0109205088091C208882391F0109227
:1030A000C2088091BE089091BF08A091C008B0915D
:1030B000C10880933E0990933F09A0934009B093C3
:1030C00041098091A3089091A4088130910571F184
:1030D000B0F0029709F01AC11092A4081092A30848
:1030E0001092B6081092B7081092B8081092B9085A
:1030F00005EA18E0780160E070E0CB018AC00E9428
:1031000051150091C3081091C4082091C508309151
:10311000C608DC01CB01801B910BA20BB30B0697F9
:10312000A105B10508F4F2C00C949E3810917A0004
:1031300080917A00887F846080937A0086E30E9481
:103140000D1510937A00BC01990F880B990B0E9402
:10315000EA4420E030E046E952E40E949F4520E046
:1031600030EC4FE754E40E94404420E030E040EF70
:1031700050E40E94CE432FE236E842E85FE30E942B
:103180009F4520E030E040E85EE30E949F452091AB
:103190009F083091A0084091A1085091A2080E9478
:1031A000CF4360939F087093A0088093A1089093E9
:1031B000A20820919E08233019F53092A40820928D
:1031C000A3082091B50830E02F5F3F4F23703327CD
:1031D0002093B508220F331F220F331FF901EB553F
:1031E000F74F608371838283938310929E081092BD
:1031F0009F081092A0081092A1081092A20886C001
:103200001092A4081092A30881E0820F80939E0878
:103210007DC0D7012D913D914D915D917D010E9421
:10322000CF43B5EBEB16B8E0FB0699F720E030E0B2
:1032300040E85EE30E949F456B017C016093B60805
:103240007093B7088093B8089093B9088090BA0833
:103250009090BB08A090BC08B090BD08E091B50864
:1032600024E0E29FF0011124EB55F74F408051809C
:10327000628073809201A301B401C5010E949A4546
:10328000181614F042015301C401D5018093BA0805
:103290009093BB08A093BC08B093BD08D8016D9172
:1032A0007D918D919D918D01A70196010E94CE4344
:1032B0004B015C0120E030E0A9010E949A451816FC
:1032C0005CF420E030E040E850E4C501B4010E9425
:1032D0009A451816DCF00AC020E030E040E850ECD7
:1032E000C501B4010E943B4487FD10C0E5EBF8E046
:1032F000E017F10799F681E08093C208C092BE08FA
:10330000D092BF08E092C008F092C1088091E40812
:103310009091E5088130910569F1A8F0029709F0D4
:103320008FC01092E5081092E4081092DF08109206
:10333000E0081092E1081092E2080FEC18E0C12CAE
:10334000D12C76015DC00E9451150091CB081091DF
:10335000CC082091CD083091CE08DC01CB01801B38
:10336000910BA20BB30B4597A105B10508F468C0FA
:103370000C94B0383092E5082092E4088091E3087C
:1033800090E00196837099278093E30810917A006A
:1033900080917A00887F846080937A0087E30E941E
:1033A0000D1510937A000091E308F4E00F9F80015F
:1033B00011240153174FBC01990F880B990B0E94E0
:1033C000EA4420E030E040E252E40E949F4520E0E1
:1033D00030EC4FE754E40E94404420E030E040EA03
:1033E00051E40E94CE4324EA30E74DE35EE30E94BD
:1033F0004044D8016D937D938D939C93139720C087
:10340000F80161917191819191918F0120E030E0FB
:1034100040E85EE30E949F459B01AC01C701B601F5
:103420000E94CF436B017C01F8E00F3D1F0741F77D
:103430006093DF087093E0088093E1089093E208BE
:1034400086E00E9430108C0181E00115110509F41D
:1034500080E08093920720E030E040EA50E4609101
:1034600006087091070880910808909109080E9449
:103470009A4587FD07C085E00E94AC0B1092F708C3
:103480001092F6088091190B882331F01092F708FA
:103490001092F6081092190BE091F608F091F708D7
:1034A000E830F10508F05DC28827EE58FF4F8F4FD6
:1034B0000C9498431092030810920208ACC18091BA
:1034C000020890910308029709F583E090E0909339
:1034D0000308809302080E9451150E94E84420913D
:1034E000DA073091DB074091DC075091DD070E943D
:1034F000CF430E94B9446093FA077093FB0780930F
:10350000FC079093FD0781E080930408012B29F0CC
:1035100061EE7AE784E090EC74C160E070E0CB018A
:103520000E94C4108091020890910308892B09F031
:1035300024C20E94B10D1092CA071092CB071092BC
:10354000CC071092CD0719C28091CA079091CB0782
:10355000A091CC07B091CD07B7FF05C06FEC77EF16
:1035600083ED9FE34EC160E070E0CB010E94C41088
:103570000E945D1502C20E94460D80910208909142
:1035800003089C01235031092230310508F04CC05A
:1035900084E090E09093030880930208C090320981
:1035A000D0903309E0903409F090350940903E09FD
:1035B00050903F09609040097090410960912D0B37
:1035C000062E000C770B880B990B0E94EA44A3018E
:1035D00092010E94CF434B015C019B01AC01C701EA
:1035E000B6010E943B44881F8827881F8093A80744
:1035F0000E9451150091FA071091FB072091FC07DA
:103600003091FD07601771078207930710F00C9443
:10361000C238A5019401C701B6010E943B4487FF4F
:1036200002C00C94C238AFC1892B09F0ACC18091A3
:10363000180B882309F4A7C10E94460D1092180B9D
:1036400040919B0750919C0760919D0770919E0748
:10365000E6E8F7E08AE296E0408351836283738371
:10366000148215821682178210861186128613869E
:103670003C978E179F0781F784E090E090930308B2
:10368000809302088091A707982F9D7F19F484E00A
:1036900090E075C1813009F070C185E090E06FC1A4
:1036A0008091020890910308049731F40E94F40D70
:1036B0001092ED081092EC08C090CA07D090CB078A
:1036C000E090CC07F090CD07C701B6010E94EA4414
:1036D0004B015C016091CE077091CF078091D007BC
:1036E0009091D1070E94EA4420E030E0A9010E94B5
:1036F000CF439B01AC01C501B4010E943B4487FD4F
:1037000002C00C94EC3A0E9451150091F2071091FE
:10371000F3072091F4073091F507601771078207CE
:10372000930710F00C94EC3A6091230B7091240BEA
:1037300080E090E00E94E8449B01AC016091320976
:103740007091330980913409909135090E943B446E
:1037500087FF02C00C94FD390C94EC3A809102086A
:1037600090910308049731F40E94F40D1092EB0835
:103770001092EA080E945115C090F207D090F3070A
:10378000E090F407F090F5076C157D058E059F0518
:1037900010F00C94273B8091CA079091CB07A09121
:1037A000CC07B091CD0780389C40A105B10514F439
:1037B0000C94353A0C94273B4091CE075091CF079B
:1037C0006091D0077091D1078091D2079091D30773
:1037D000A091D407B091D507840F951FA61FB71FDE
:1037E0004091CA075091CB076091CC077091CD07EB
:1037F00084179507A607B7074CF46FEC77EF83EDB6
:103800009FEB0E94C4100E94B10DBDC060E070E04B
:10381000CB010E94C4103092F7082092F608B3C082
:103820008091020890910308019709F04AC0C09066
:10383000E207D090E307E090E407F090E50720E08E
:1038400030E048EC52E4C701B6010E949A451816D0
:1038500034F4C12CD12C88ECE82E82E4F82E2DEC27
:103860003CEC4CE45EE36091B1077091B20780914B
:10387000B3079091B4070E94CE434B015C0120E056
:1038800030E040E251E4C701B6010E9440449B0190
:10389000AC01C501B4010E9440446093B507709328
:1038A000B6078093B7079093B80730920308209229
:1038B00002081092D2071092D3071092D4071092E8
:1038C000D5070E9451150091F6071091F707209136
:1038D000F8073091F907601771078207930748F5D9
:1038E0000E9451150091E6081091E7082091E80820
:1038F0003091E908DC01CB01801B910BA20BB30BCB
:103900000A97A105B10508F43EC0C090B107D09058
:10391000B207E090B307F090B40720E030E0A901CF
:10392000C701B6010E949A45181614F40C94B83BCE
:103930002AC060E070E0CB010E94C4100E94A30C7A
:103940006093EE087093EF088093F0089093F1086D
:1039500060930A0870930B0880930C0890930D08ED
:103960005ACF6BE773E08DE59BE00E948C086EE810
:1039700073E08DE59BE00E948C0881E090E09093DD
:10398000F7088093F6081A8AE0919608F091970854
:10399000E730F10510F00C9498368827E658FF4F71
:1039A0008F4F0C94984388E20E94710A882311F487
:1039B0000C949C360E940A0B41E953E060E080E0E1
:1039C0000E94140B42EA53E061E080E00E94140B75
:1039D0000C94723F1982E0919408F0919508ED32B1
:1039E000F10510F00C9433348827EF57FF4F8F4FB9
:1039F0000C9498438CE20E94710A882361F043EB97
:103A000053E061E080E00E94140B30929508209210
:103A100094080C9437348AE20E94710A882371F06A
:103A200044EC53E061E080E00E94140B81E090E000
:103A300090939508809394080C94373486E20E9402
:103A4000710A882369F082E08093310B8CE290E068
:103A500090939508809394080E94310A0C9437340F
:103A600064EF71E080E090E00E943D0A882311F449
:103A70000C94373483E090E09093950880939408F9
:103A800045ED53E061E080E00E94140B0E94310A92
:103A90000C9437348CE20E94710A8111B0CF8AE213
:103AA0000E94710A8111BCCF86E20E94710A8111C5
:103AB000CACF6AEF70E080E090E00E943D0A882360
:103AC00011F40C94373442EA53E061E080E00E9444
:103AD000140B10929508109294080E94310A0C94CD
:103AE00037348CE20E94710A882361F042EA53E085
:103AF00061E080E00E94140B1092950810929408E7
:103B00000C9437348AE20E94710A811178CF86E2E0
:103B10000E94710A882391F044EC53E061E080E058
:103B20000E94140B1092310BA6E0B0E0B093950800
:103B3000A09394080E94310A0C94373464EF71E02A
:103B400080E090E00E943D0A882311F40C94373401
:103B500084E090E0909395088093940845ED53E0BD
:103B600061E080E00E94140B0E94310A0C9437340B
:103B70008CE20E94710A8111B9CF8AE20E94710A17
:103B800081113DCF86E20E94710A8111C5CF6AEF93
:103B900070E080E090E00E943D0A882311F40C94CC
:103BA000373481E090E0909395088093940844EC3A
:103BB00053E061E080E00E94140B0E94310A0C94F3
:103BC00037348CE20E94710A81112ACF8AE20E9466
:103BD000710A81118BCF86E20E94710A882399F0C5
:103BE00043EB53E061E080E00E94140B81E080939E
:103BF000310BE6E0F0E0F0939508E09394080E9422
:103C0000310A0C94373464EF71E080E090E00E9458
:103C10003D0A882311F40C94373485E090E09093AA
:103C200095088093940845ED53E061E080E00E94A0
:103C3000140B0E94310A0C9437348CE20E94710AF2
:103C40008111EECE8AE20E94710A81114FCF86E285
:103C50000E94710A8111C4CF6AEF70E080E090E0A9
:103C60000E943D0A882311F40C9437343092950851
:103C70002092940843EB53E061E080E00E94140B33
:103C80000E94310A0C94373464EF71E080E090E0D8
:103C90000E943D0A882311F40C9437348091310B33
:103CA000813049F50E940A0B46EE53E060E080E067
:103CB0000E94140B4AE0BE016F5F7F4F8091370B6B
:103CC0009091380B0E94BF4067EF73E0CE010196E0
:103CD0000E941146AE014F5F5F4F61E080E00E949D
:103CE000140B8AE090E090939508809394080E94CA
:103CF000310A0C94373481110C9437340E940A0B2A
:103D00004EEF53E060E080E00E94140B4AE0BE01F9
:103D10006F5F7F4F80913D0B90913E0B0E94BF40A3
:103D20006FE074E0CE0101960E941146AE014F5F34
:103D30005F4F61E080E00E94140B87E090E0909379
:103D40009508809394080E94310A0C9437348CE2D1
:103D50000E94710A882341F18091370B9091380BB2
:103D60008332910510F4019602C083E290E09093B3
:103D7000380B8093370B4AE0BE016F5F7F4F809115
:103D8000370B9091380B0E94BF4067EF73E0CE0174
:103D900001960E941146AE014F5F5F4F61E080E0E7
:103DA0000E94140B0C9437348AE20E94710A882313
:103DB00041F18091370B9091380B8630910510F0CE
:103DC000019702C085E090E09093380B8093370B09
:103DD0004AE0BE016F5F7F4F8091370B9091380BA7
:103DE0000E94BF4067EF73E0CE0101960E9411462A
:103DF000AE014F5F5F4F61E080E00E94140B0C94B6
:103E0000373486E20E94710A882309F14AE0BE0134
:103E10006F5F7F4F8091370B9091380B0E94BF40AE
:103E200067EF73E0CE0101960E941146AE014F5F2D
:103E30005F4F61E080E00E94140B8CE090E0909373
:103E40009508809394080E94310A0C9437348EE2CE
:103E50000E94710A8823B1F00E940A0B41E953E0E5
:103E600060E080E00E94140B42EA53E061E080E0F1
:103E70000E94140B10929508109294080E94310A27
:103E80000C94373464EF71E080E090E00E943D0ACA
:103E9000882311F40C9437348BE090E090939508CC
:103EA0008093940845ED53E061E080E00E94140B9C
:103EB0000E94310A0C9437348CE20E94710A8823E4
:103EC00041F18091370B9091380B8332910510F4BA
:103ED000019602C083E290E09093380B8093370BF9
:103EE0004AE0BE016F5F7F4F8091370B9091380B96
:103EF0000E94BF4067EF73E0CE0101960E94114619
:103F0000AE014F5F5F4F61E080E00E94140B0C94A4
:103F100037348AE20E94710A882341F18091370B7D
:103F20009091380B8630910510F0019702C085E022
:103F300090E09093380B8093370B4AE0BE016F5F9F
:103F40007F4F8091370B9091380B0E94BF4067EFF5
:103F500073E0CE0101960E941146AE014F5F5F4FA4
:103F600061E080E00E94140B0C94373486E20E94DA
:103F7000710A882309F14AE0BE016F5F7F4F80918B
:103F8000370B9091380B0E94BF4067EF73E0CE0172
:103F900001960E941146AE014F5F5F4F61E080E0E5
:103FA0000E94140B8CE090E0909395088093940805
:103FB0000E94310A0C9437348EE20E94710A8111FA
:103FC0004BCF6AEF70E080E090E00E943D0A8823CA
:103FD00011F40C9437344AE0BE016F5F7F4F80913B
:103FE000370B9091380B0E94BF4067EF73E0CE0112
:103FF00001960E941146AE014F5F5F4F61E080E085
:104000000E94140B8AE090E09093950880939408A6
:104010000E94310A0C94373464EF71E080E090E044
:104020000E943D0A882311F40C9437340E940A0B35
:1040300042E154E060E080E00E94140B4AE0BE01DF
:104040006F5F7F4F80913F0B9091400B0E94BF406C
:1040500063E274E0CE0101960E941146AE014F5F0B
:104060005F4F61E080E00E94140B8DE090E0909340
:104070009508809394080E94310A0C9437348CE29E
:104080000E94710A882349F180913D0B90913E0B6B
:104090008032F3E09F0710F4C29602C080E293E002
:1040A00090933E0B80933D0B4AE0BE016F5F7F4FC4
:1040B00080913D0B90913E0B0E94BF406FE074E0F9
:1040C000CE0101960E941146AE014F5F5F4F61E045
:1040D00080E00E94140B0C9437348AE20E94710A2B
:1040E000882349F180913D0B90913E0B8D3221E068
:1040F000920710F0C29702C08CE291E090933E0BC1
:1041000080933D0B4AE0BE016F5F7F4F80913D0B76
:1041100090913E0B0E94BF406FE074E0CE0101968B
:104120000E941146AE014F5F5F4F61E080E00E9448
:10413000140B0C94373486E20E94710A882309F12B
:104140004AE0BE016F5F7F4F80913D0B90913E0B27
:104150000E94BF406FE074E0CE0101960E941146BC
:10416000AE014F5F5F4F61E080E00E94140B89E079
:1041700090E090939508809394080E94310A0C94E3
:1041800037348EE20E94710A811166CE64EF71E0CD
:1041900080E090E00E943D0A882311F40C943734AB
:1041A00088E090E0909395088093940845ED53E063
:1041B00061E080E00E94140B0E94310A0C943734B5
:1041C0008CE20E94710A882349F180913D0B909105
:1041D0003E0B803233E0930710F4C29602C080E2B7
:1041E00093E090933E0B80933D0B4AE0BE016F5FDE
:1041F0007F4F80913D0B90913E0B0E94BF406FE03E
:1042000074E0CE0101960E941146AE014F5F5F4FF0
:1042100061E080E00E94140B0C9437348AE20E9423
:10422000710A882349F180913D0B90913E0B8D32AC
:1042300041E0940710F0C29702C08CE291E09093A5
:104240003E0B80933D0B4AE0BE016F5F7F4F809134
:104250003D0B90913E0B0E94BF406FE074E0CE0199
:1042600001960E941146AE014F5F5F4F61E080E012
:104270000E94140B0C94373486E20E94710A882342
:1042800009F14AE0BE016F5F7F4F80913D0B909135
:104290003E0B0E94BF406FE074E0CE0101960E9489
:1042A0001146AE014F5F5F4F61E080E00E94140B4A
:1042B00089E090E090939508809394080E94310AD9
:1042C0000C9437348EE20E94710A8111C5CD6AEFD9
:1042D00070E080E090E00E943D0A882311F40C9485
:1042E00037344AE0BE016F5F7F4F80913D0B909164
:1042F0003E0B0E94BF406FE074E0CE0101960E9429
:104300001146AE014F5F5F4F61E080E00E94140BE9
:1043100087E090E090939508809394080E94310A7A
:104320000C94373464EF71E080E090E00E943D0A25
:10433000882311F40C9437340E940A0B42E154E0B4
:1043400060E080E00E94140B4AE0BE016F5F7F4F87
:1043500080913F0B9091400B0E94BF4063E274E05C
:10436000CE0101960E941146AE014F5F5F4F61E0A2
:1043700080E00E94140B8DE090E09093950880936C
:1043800094080E94310A0C9437348CE20E94710A1E
:10439000882341F180913F0B9091400B8031910532
:1043A00010F4019602C080E190E09093400B80935E
:1043B0003F0B4AE0BE016F5F7F4F80913F0B9091B2
:1043C000400B0E94BF4063E274E0CE0101960E9460
:1043D0001146AE014F5F5F4F61E080E00E94140B19
:1043E0000C9437348AE20E94710A882341F180914B
:1043F0003F0B9091400B8D30910510F0019702C05A
:104400008CE090E09093400B80933F0B4AE0BE011C
:104410006F5F7F4F80913F0B9091400B0E94BF4098
:1044200063E274E0CE0101960E941146AE014F5F37
:104430005F4F61E080E00E94140B0C94373486E2F9
:104440000E94710A882309F14AE0BE016F5F7F4F25
:1044500080913F0B9091400B0E94BF4063E274E05B
:10446000CE0101960E941146AE014F5F5F4F61E0A1
:1044700080E00E94140B8FE090E090939508809369
:1044800094080E94310A0C9437348EE20E94710A1B
:10449000882309F459C08091310B813049F50E947D
:1044A0000A0B46EE53E060E080E00E94140B4AE005
:1044B000BE016F5F7F4F8091370B9091380B0E9448
:1044C000BF4067EF73E0CE0101960E941146AE0136
:1044D0004F5F5F4F61E080E00E94140B8AE090E044
:1044E00090939508809394080E94310A0C94373475
:1044F00081110C9437340E940A0B4EEF53E060E0B8
:1045000080E00E94140B4AE0BE016F5F7F4F8091F4
:104510003D0B90913E0B0E94BF406FE074E0CE01D6
:1045200001960E941146AE014F5F5F4F61E080E04F
:104530000E94140B87E090E0909395088093940874
:104540000E94310A0C94373464EF71E080E090E00F
:104550000E943D0A882311F40C9437348EE090E0D9
:10456000909395088093940845ED53E061E080E0D6
:104570000E94140B0E94310A0C9437348CE20E9482
:10458000710A882341F180913F0B9091400B80315B
:10459000910510F4019602C080E190E09093400BE9
:1045A00080933F0B4AE0BE016F5F7F4F80913F0BCE
:1045B0009091400B0E94BF4063E274E0CE010196EF
:1045C0000E941146AE014F5F5F4F61E080E00E94A4
:1045D000140B0C9437348AE20E94710A882341F14B
:1045E00080913F0B9091400B8D30910510F0019719
:1045F00002C08CE090E09093400B80933F0B4AE028
:10460000BE016F5F7F4F80913F0B9091400B0E94E6
:10461000BF4063E274E0CE0101960E941146AE01F4
:104620004F5F5F4F61E080E00E94140B0C943734C1
:1046300086E20E94710A882309F14AE0BE016F5F99
:104640007F4F80913F0B9091400B0E94BF4063E2EF
:1046500074E0CE0101960E941146AE014F5F5F4F9C
:1046600061E080E00E94140B8FE090E09093950849
:10467000809394080E94310A0C9437348EE20E9491
:10468000710A882309F459C08091310B813049F5B2
:104690000E940A0B46EE53E060E080E00E94140B9B
:1046A0004AE0BE016F5F7F4F8091370B9091380BCE
:1046B0000E94BF4067EF73E0CE0101960E94114651
:1046C000AE014F5F5F4F61E080E00E94140B8AE013
:1046D00090E090939508809394080E94310A0C947E
:1046E000373481110C9437340E940A0B4EEF53E09B
:1046F00060E080E00E94140B4AE0BE016F5F7F4FD4
:1047000080913D0B90913E0B0E94BF406FE074E0A2
:10471000CE0101960E941146AE014F5F5F4F61E0EE
:1047200080E00E94140B87E090E0909395088093BE
:1047300094080E94310A0C94373464EF71E080E0F1
:1047400090E00E943D0A882311F40C9437344AE02B
:10475000BE016F5F7F4F80913F0B9091400B0E9495
:10476000BF4063E274E0CE0101960E941146AE01A3
:104770004F5F5F4F61E080E00E94140B8DE090E09E
:1047800090939508809394080E94310A0C943734D2
:1047900064EF71E080E090E00E943D0A882311F40C
:1047A0000C9437340E940A0B47E254E060E080E04A
:1047B0000E94140B4AE0BE016F5F7F4F8091410B56
:1047C0009091420B0E94BF4063E274E0CE010196DB
:1047D0000E941146AE014F5F5F4F61E080E00E9492
:1047E000140B80E190E090939508809394080E94C8
:1047F000310A0C9437348CE20E94710A882341F10B
:104800008091410B9091420B8530910510F40196F7
:1048100002C085E090E09093420B8093410B4AE008
:10482000BE016F5F7F4F8091410B9091420B0E94C0
:10483000BF4063E274E0CE0101960E941146AE01D2
:104840004F5F5F4F61E080E00E94140B0C9437349F
:104850008AE20E94710A882341F18091410B909174
:10486000420B8230910510F0019702C081E090E088
:104870009093420B8093410B4AE0BE016F5F7F4FE4
:104880008091410B9091420B0E94BF4063E274E023
:10489000CE0101960E941146AE014F5F5F4F61E06D
:1048A00080E00E94140B0C94373486E20E94710A57
:1048B000882309F14AE0BE016F5F7F4F8091410B71
:1048C0009091420B0E94BF4063E274E0CE010196DA
:1048D0000E941146AE014F5F5F4F61E080E00E9491
:1048E000140B82E190E090939508809394080E94C5
:1048F000310A0C9437348EE20E94710A882349F100
:104900000E940A0B42E154E060E080E00E94140B38
:104910004AE0BE016F5F7F4F80913F0B9091400B4B
:104920000E94BF4063E274E0CE0101960E941146EE
:10493000AE014F5F5F4F61E080E00E94140B8DE09D
:1049400090E090939508809394080E94310A0C940B
:10495000373464EF71E080E090E00E943D0A8823E4
:1049600011F40C94373481E190E090939508809392
:10497000940845ED53E061E080E00E94140B0E9432
:10498000310A0C9437348CE20E94710A882341F179
:104990008091410B9091420B8530910510F4019666
:1049A00002C085E090E09093420B8093410B4AE077
:1049B000BE016F5F7F4F8091410B9091420B0E942F
:1049C000BF4063E274E0CE0101960E941146AE0141
:1049D0004F5F5F4F61E080E00E94140B0C9437340E
:1049E0008AE20E94710A882341F18091410B9091E3
:1049F000420B8230910510F0019702C081E090E0F7
:104A00009093420B8093410B4AE0BE016F5F7F4F52
:104A10008091410B9091420B0E94BF4063E274E091
:104A2000CE0101960E941146AE014F5F5F4F61E0DB
:104A300080E00E94140B0C94373486E20E94710AC5
:104A4000882309F14AE0BE016F5F7F4F8091410BDF
:104A50009091420B0E94BF4063E274E0CE01019648
:104A60000E941146AE014F5F5F4F61E080E00E94FF
:104A7000140B82E190E090939508809394080E9433
:104A8000310A0C9437348EE20E94710A882349F16E
:104A90000E940A0B42E154E060E080E00E94140BA7
:104AA0004AE0BE016F5F7F4F80913F0B9091400BBA
:104AB0000E94BF4063E274E0CE0101960E9411465D
:104AC000AE014F5F5F4F61E080E00E94140B8DE00C
:104AD00090E090939508809394080E94310A0C947A
:104AE000373464EF71E080E090E00E943D0A882353
:104AF00011F40C9437344AE0BE016F5F7F4F809110
:104B0000410B9091420B0E94BF4063E274E0CE01E2
:104B100001960E941146AE014F5F5F4F61E080E059
:104B20000E94140B80E190E0909395088093940884
:104B30000E94310A0C94373464EF71E080E090E019
:104B40000E943D0A882311F40C9437340E940A0B0A
:104B500048E354E060E080E00E94140B8091340B45
:104B60004AE0BE016F5F7F4F90E00E94BF4064EE5D
:104B700073E0CE0101960E941146AE014F5F5F4F78
:104B800061E080E00E94140B83E190E0909395082F
:104B9000809394080E94310A0C9437348CE20E946E
:104BA000710A882309F18091340B8E3110F48F5FE4
:104BB00001C08EE18093340B8091340B4AE0BE013A
:104BC0006F5F7F4F90E00E94BF4064EE73E0CE01C4
:104BD00001960E941146AE014F5F5F4F61E080E099
:104BE0000E94140B0C9437348AE20E94710A8823C5
:104BF00009F18091340B863010F0815001C085E0BE
:104C00008093340B8091340B4AE0BE016F5F7F4F7D
:104C100090E00E94BF4064EE73E0CE0101960E94D6
:104C20001146AE014F5F5F4F61E080E00E94140BC0
:104C30000C94373486E20E94710A882301F1809136
:104C4000340B4AE0BE016F5F7F4F90E00E94BF408F
:104C500064EE73E0CE0101960E941146AE014F5FF3
:104C60005F4F61E080E00E94140B85E190E090933B
:104C70009508809394080E94310A0C9437348EE290
:104C80000E94710A882349F10E940A0B47E254E00E
:104C900060E080E00E94140B4AE0BE016F5F7F4F2E
:104CA00080913F0B9091400B0E94BF4064EE73E0F7
:104CB000CE0101960E941146AE014F5F5F4F61E049
:104CC00080E00E94140B80E190E09093950880931F
:104CD00094080E94310A0C94373464EF71E080E04C
:104CE00090E00E943D0A882311F40C94373484E14B
:104CF00090E0909395088093940845ED53E061E02F
:104D000080E00E94140B0E94310A0C9437348CE22C
:104D10000E94710A882309F18091340B8E3110F4BE
:104D20008F5F01C08EE18093340B8091340B4AE099
:104D3000BE016F5F7F4F90E00E94BF4064EE73E062
:104D4000CE0101960E941146AE014F5F5F4F61E0B8
:104D500080E00E94140B0C9437348AE20E94710A9E
:104D6000882309F18091340B863010F0815001C006
:104D700085E08093340B8091340B4AE0BE016F5F75
:104D80007F4F90E00E94BF4064EE73E0CE01019639
:104D90000E941146AE014F5F5F4F61E080E00E94CC
:104DA000140B0C94373486E20E94710A882301F1B7
:104DB0008091340B4AE0BE016F5F7F4F90E00E940C
:104DC000BF4064EE73E0CE0101960E941146AE0131
:104DD0004F5F5F4F61E080E00E94140B85E190E03F
:104DE00090939508809394080E94310A0C9437346C
:104DF0008EE20E94710A882349F10E940A0B47E261
:104E000054E060E080E00E94140B4AE0BE016F5F56
:104E10007F4F80913F0B9091400B0E94BF4064EE0A
:104E200073E0CE0101960E941146AE014F5F5F4FC5
:104E300061E080E00E94140B80E190E0909395087F
:104E4000809394080E94310A0C94373464EF71E027
:104E500080E090E00E943D0A882311F40C943734DE
:104E60008091340B4AE0BE016F5F7F4F90E00E945B
:104E7000BF4064EE73E0CE0101960E941146AE0180
:104E80004F5F5F4F61E080E00E94140B83E190E090
:104E900090939508809394080E94310A0C943734BB
:104EA00064EF71E080E090E00E943D0A882311F4F5
:104EB0000C9437340E940A0B49E454E060E080E02F
:104EC0000E94140B8091350B4AE0BE016F5F7F4F4B
:104ED00090E00E94BF4064EE73E0CE0101960E9414
:104EE0001146AE014F5F5F4F61E080E00E94140BFE
:104EF00086E190E090939508809394080E94310A8F
:104F00000C9437348CE20E94710A882309F1809155
:104F1000350B833210F48F5F01C083E28093350B31
:104F20008091350B4AE0BE016F5F7F4F90E00E9499
:104F3000BF4064EE73E0CE0101960E941146AE01BF
:104F40004F5F5F4F61E080E00E94140B0C94373498
:104F50008AE20E94710A882309F18091350B8A3117
:104F600010F0815001C089E18093350B8091350BA1
:104F70004AE0BE016F5F7F4F90E00E94BF4064EE49
:104F800073E0CE0101960E941146AE014F5F5F4F64
:104F900061E080E00E94140B0C94373486E20E949A
:104FA000710A882301F18091350B4AE0BE016F5FE1
:104FB0007F4F90E00E94BF4064EE73E0CE01019607
:104FC0000E941146AE014F5F5F4F61E080E00E949A
:104FD000140B88E190E090939508809394080E94C8
:104FE000310A0C9437348EE20E94710A882341F111
:104FF0000E940A0B48E354E060E080E00E94140B3A
:105000008091340B4AE0BE016F5F7F4F90E00E94B9
:10501000BF4064EE73E0CE0101960E941146AE01DE
:105020004F5F5F4F61E080E00E94140B83E190E0EE
:1050300090939508809394080E94310A0C94373419
:1050400064EF71E080E090E00E943D0A882311F453
:105050000C94373487E190E09093950880939408FE
:1050600045ED53E061E080E00E94140B0E94310A9C
:105070000C9437348CE20E94710A882309F18091E4
:10508000350B833210F48F5F01C083E28093350BC0
:105090008091350B4AE0BE016F5F7F4F90E00E9428
:1050A000BF4064EE73E0CE0101960E941146AE014E
:1050B0004F5F5F4F61E080E00E94140B0C94373427
:1050C0008AE20E94710A882309F18091350B8A31A6
:1050D00010F0815001C089E18093350B8091350B30
:1050E0004AE0BE016F5F7F4F90E00E94BF4064EED8
:1050F00073E0CE0101960E941146AE014F5F5F4FF3
:1051000061E080E00E94140B0C94373486E20E9428
:10511000710A882301F18091350B4AE0BE016F5F6F
:105120007F4F90E00E94BF4064EE73E0CE01019695
:105130000E941146AE014F5F5F4F61E080E00E9428
:10514000140B88E190E090939508809394080E9456
:10515000310A0C9437348EE20E94710A882341F19F
:105160000E940A0B48E354E060E080E00E94140BC8
:105170008091340B4AE0BE016F5F7F4F90E00E9448
:10518000BF4064EE73E0CE0101960E941146AE016D
:105190004F5F5F4F61E080E00E94140B83E190E07D
:1051A00090939508809394080E94310A0C943734A8
:1051B00064EF71E080E090E00E943D0A882311F4E2
:1051C0000C9437348091350B4AE0BE016F5F7F4FFE
:1051D00090E00E94BF4064EE73E0CE0101960E9411
:1051E0001146AE014F5F5F4F61E080E00E94140BFB
:1051F00086E190E090939508809394080E94310A8C
:105200000C94373464EF71E080E090E00E943D0A36
:10521000882311F40C9437340E940A0B4AE554E0B9
:1052200060E080E00E94140B8091360B4AE0BE01E2
:105230006F5F7F4F90E00E94BF4064EE73E0CE014D
:1052400001960E941146AE014F5F5F4F61E080E022
:105250000E94140B89E190E0909395088093940844
:105260000E94310A0C9437348CE20E94710A882320
:1052700009F18091360B8A3010F48F5F01C08AE00B
:105280008093360B8091360B4AE0BE016F5F7F4FF3
:1052900090E00E94BF4064EE73E0CE0101960E9450
:1052A0001146AE014F5F5F4F61E080E00E94140B3A
:1052B0000C9437348AE20E94710A882309F18091A4
:1052C000360B863010F0815001C085E08093360B9C
:1052D0008091360B4AE0BE016F5F7F4F90E00E94E5
:1052E000BF4064EE73E0CE0101960E941146AE010C
:1052F0004F5F5F4F61E080E00E94140B0C943734E5
:1053000086E20E94710A882301F18091360B4AE0FF
:10531000BE016F5F7F4F90E00E94BF4064EE73E07C
:10532000CE0101960E941146AE014F5F5F4F61E0D2
:1053300080E00E94140B8BE190E09093950880939D
:1053400094080E94310A0C9437348EE20E94710A4C
:10535000882341F10E940A0B49E454E060E080E0B8
:105360000E94140B8091350B4AE0BE016F5F7F4FA6
:1053700090E00E94BF4064EE73E0CE0101960E946F
:105380001146AE014F5F5F4F61E080E00E94140B59
:1053900086E190E090939508809394080E94310AEA
:1053A0000C94373464EF71E080E090E00E943D0A95
:1053B000882311F40C9437348AE190E09093950897
:1053C0008093940845ED53E061E080E00E94140B67
:1053D0000E94310A0C9437348CE20E94710A8823AF
:1053E00009F18091360B8A3010F48F5F01C08AE09A
:1053F0008093360B8091360B4AE0BE016F5F7F4F82
:1054000090E00E94BF4064EE73E0CE0101960E94DE
:105410001146AE014F5F5F4F61E080E00E94140BC8
:105420000C9437348AE20E94710A882309F1809132
:10543000360B863010F0815001C085E08093360B2A
:105440008091360B4AE0BE016F5F7F4F90E00E9473
:10545000BF4064EE73E0CE0101960E941146AE019A
:105460004F5F5F4F61E080E00E94140B0C94373473
:1054700086E20E94710A882301F18091360B4AE08E
:10548000BE016F5F7F4F90E00E94BF4064EE73E00B
:10549000CE0101960E941146AE014F5F5F4F61E061
:1054A00080E00E94140B8BE190E09093950880932C
:1054B00094080E94310A0C9437348EE20E94710ADB
:1054C000882341F10E940A0B49E454E060E080E047
:1054D0000E94140B8091350B4AE0BE016F5F7F4F35
:1054E00090E00E94BF4064EE73E0CE0101960E94FE
:1054F0001146AE014F5F5F4F61E080E00E94140BE8
:1055000086E190E090939508809394080E94310A78
:105510000C94373464EF71E080E090E00E943D0A23
:10552000882311F40C9437348091360B4AE0BE0185
:105530006F5F7F4F90E00E94BF4064EE73E0CE014A
:1055400001960E941146AE014F5F5F4F61E080E01F
:105550000E94140B89E190E0909395088093940841
:105560000E94310A0C94373464EF71E080E090E0DF
:105570000E943D0A882311F40C9437340E940A0BD0
:105580004BE654E060E080E00E94140B8091320B07
:105590004AE0BE016F5F7F4F90E00E94BF4062E72C
:1055A00075E0CE0101960E941146AE014F5F5F4F3C
:1055B00061E080E00E94140B8CE190E090939508EC
:1055C000809394080E94310A0C9437348CE20E9434
:1055D000710A882309F18091320B803510F48B5FBA
:1055E00001C080E58093320B8091320B4AE0BE010E
:1055F0006F5F7F4F90E00E94BF4062E775E0CE0191
:1056000001960E941146AE014F5F5F4F61E080E05E
:105610000E94140B0C9437348AE20E94710A88238A
:1056200009F18091320B8B3010F0855001C08AE077
:105630008093320B8091320B4AE0BE016F5F7F4F47
:1056400090E00E94BF4062E775E0CE0101960E94A3
:105650001146AE014F5F5F4F61E080E00E94140B86
:105660000C94373486E20E94710A882301F18091FC
:10567000320B4AE0BE016F5F7F4F90E00E94BF4057
:1056800062E775E0CE0101960E941146AE014F5FC0
:105690005F4F61E080E00E94140B8EE190E09093F8
:1056A0009508809394080E94310A0C9437348EE256
:1056B0000E94710A882341F10E940A0B4AE554E0D6
:1056C00060E080E00E94140B8091360B4AE0BE013E
:1056D0006F5F7F4F90E00E94BF4064EE73E0CE01A9
:1056E00001960E941146AE014F5F5F4F61E080E07E
:1056F0000E94140B89E190E09093950880939408A0
:105700000E94310A0C94373464EF71E080E090E03D
:105710000E943D0A882311F40C9437348DE190E007
:10572000909395088093940845ED53E061E080E004
:105730000E94140B0E94310A0C9437348CE20E94B0
:10574000710A882309F18091320B803510F48B5F48
:1057500001C080E58093320B8091320B4AE0BE019C
:105760006F5F7F4F90E00E94BF4062E775E0CE011F
:1057700001960E941146AE014F5F5F4F61E080E0ED
:105780000E94140B0C9437348AE20E94710A882319
:1057900009F18091320B8B3010F0855001C08AE006
:1057A0008093320B8091320B4AE0BE016F5F7F4FD6
:1057B00090E00E94BF4062E775E0CE0101960E9432
:1057C0001146AE014F5F5F4F61E080E00E94140B15
:1057D0000C94373486E20E94710A882301F180918B
:1057E000320B4AE0BE016F5F7F4F90E00E94BF40E6
:1057F00062E775E0CE0101960E941146AE014F5F4F
:105800005F4F61E080E00E94140B8EE190E0909386
:105810009508809394080E94310A0C9437348EE2E4
:105820000E94710A882339F10E940A0B48E354E070
:1058300060E080E00E94140B8091340B4AE0BE01CE
:105840006F5F7F4F90E00E94BF4064EE73E0CE0137
:1058500001960E941146AE014F5F5F4F61E080E00C
:105860000E94140B83E190E0909395088093940834
:105870000E94310AFCC764EF71E080E090E00E9472
:105880003D0A882309F4F3C78091320B4AE0BE0138
:105890006F5F7F4F90E00E94BF4062E775E0CE01EE
:1058A00001960E941146AE014F5F5F4F61E080E0BC
:1058B0000E94140B8CE190E09093950880939408DB
:1058C0000E94310AD4C764EF71E080E090E00E944A
:1058D0003D0A882309F4CBC70E940A0B4CE754E029
:1058E00060E080E00E94140B8091330B4AE0BE011F
:1058F0006F5F7F4F90E00E94BF4062E775E0CE018E
:1059000001960E941146AE014F5F5F4F61E080E05B
:105910000E94140B8FE190E0909395088093940877
:105920000E94310AA4C78CE20E94710A882301F107
:105930008091330B8E3110F48B5F01C08EE1809328
:10594000330B8091330B4AE0BE016F5F7F4F90E0D5
:105950000E94BF4062E775E0CE0101960E941146A9
:10596000AE014F5F5F4F61E080E00E94140B7FC784
:105970008AE20E94710A882309F18091330B8823FF
:1059800021F085508093330B02C01092330B80912D
:10599000330B4AE0BE016F5F7F4F90E00E94BF4033
:1059A00062E775E0CE0101960E941146AE014F5F9D
:1059B0005F4F61E080E00E94140B59C786E20E94AD
:1059C000710A8823F9F08091330B4AE0BE016F5FC2
:1059D0007F4F90E00E94BF4062E775E0CE010196E4
:1059E0000E941146AE014F5F5F4F61E080E00E9470
:1059F000140B81E290E090939508809394080E94A4
:105A0000310A35C78EE20E94710A882339F10E945B
:105A10000A0B4BE654E060E080E00E94140B80919A
:105A2000320B4AE0BE016F5F7F4F90E00E94BF40A3
:105A300062E775E0CE0101960E941146AE014F5F0C
:105A40005F4F61E080E00E94140B8CE190E0909346
:105A50009508809394080E94310A09C764EF71E0A9
:105A600080E090E00E943D0A882309F400C780E2AC
:105A700090E0909395088093940845ED53E061E0A1
:105A800080E00E94140B0E94310AF1C68CE20E9451
:105A9000710A882301F18091330B8E3110F48B5FF2
:105AA00001C08EE18093330B8091330B4AE0BE013D
:105AB0006F5F7F4F90E00E94BF4062E775E0CE01CC
:105AC00001960E941146AE014F5F5F4F61E080E09A
:105AD0000E94140BCCC68AE20E94710A882309F145
