:100000000C94C1010C94F2010C94F2010C94F201D5
:100010000C94F2010C94F2010C94F2010C94F20194
:100020000C94F2010C94F2010C94F2010C94F20184
:100030000C94F2010C94F2010C94F2010C94F20174
:100040000C94F2010C94F2010C94F2010C94F20164
:100050000C94F2010C94F2010C94F2010C948B08B4
:100060000C94F2010C94E2030C94B8030C94F2018A
:100070000C94F2010C94F2010C94F2010C94F20134
:100080000C94F2010C94F2010C94F2010C94F20124
:100090000C94F2010C94F2010C94F2010C94F20114
:1000A0000C94F2010C94F2010C94F2010C94F20104
:1000B0000C94F2010C94F2010C94F2010C94F201F4
:1000C0000C94F2010C94F2010C94F2010C94F201E4
:1000D0000C94F2010C94F2010C94F2010C94F201D4
:1000E0000C94F201BC0BD70B630CD70C380CAC0C86
:1000F000160D410D2B0FD00F8710A00D450EFA0ED7
:10010000B81082115D128E125A13371467141B1522
:10011000DC151716EE16E2171118E618CB19FB19A5
:10012000B31A7D1BEE1BA01BDD1CEB1C9A069D0663
:100130008C0690069606D406A106A506AB06AF0669
:10014000B306B906BD06C106D406C706CB06CF0660
:100150000C945D120C948C060C94BD060C94371410
:100160000C943C030C94AC0C0C944F020C94E217CE
:100170000C94D00F0C94C7060C942F030C94160DFE
:100180000C9411180C94D70C0C941E020C94FB19AF
:100190000C94F4010C94D4020C94B8100C94DC155B
:1001A0000C94AF060C9482110C9417160C94BC0B93
:1001B0000C94CB060C94A00D0C942B0F0C94A01B4C
:1001C0000C94630C0C9441020C9490060C941B1537
:1001D0000C94DD1C0C943D030C949A060C948E1226
:1001E0000C94E6180C94EB1C0C94A5060C94B90620
:1001F0000C945E030C94B3060C94FA0E0C94EE1B54
:100200000C94A1060C94D4060C94CF060C942D02E9
:100210000C9487100C9487020C94711D0C949D060D
:100220000C9467140C9472030C9496060C94D70BE0
:100230000C947D1B0C9442030C94EE160C945A13F0
:100240000C94B31A0C94380C0C94450E0C94AB0619
:100250000C94CB190C94C1060C9443050C94410DDD
:1002600000002100240027002A002D003000330068
:1002700001010000040107010A010000220025001D
:1002800028002B002E00310034000201000005017F
:1002900008010B01000020002300260029002C008B
:1002A0002F003200000100000301060109010505CD
:1002B0000505070508080808020202020A0A0808DC
:1002C000040404040101010101010101030303030A
:1002D00003030303040707070C0C0C0C0C0C0C0C99
:1002E0000202020206060606060606060B0B0B0BAA
:1002F0000B0B0B0B010210202008081020401020CF
:1003000040800201020108040201010204081020D9
:1003100040808040201008040201800402018040D7
:100320002010080402010804020101020408102040
:100330004080010204081020408000000A0B0209DE
:100340000C0D0E080703040100000000000000006F
:10035000000000000000000000000000000000009D
:10036000000000000000121110000000000000005A
:10037000000000000000000000000000000000007D
:10038000711D11241FBECFEFD1E2DEBFCDBF00E053
:100390000CBF14E0A0E0B2E0E4ECFDE300E00BBF32
:1003A00002C007900D92A835B107D9F726E0A8E55D
:1003B000B4E001C01D92A63CB207E1F711E0C1EC28
:1003C000D1E000E006C021970109802FFE010E94C4
:1003D000AD1EC03CD10780E00807A9F70E94D508F0
:1003E0000C94E01E0C940000CF92DF92EF92FF92EB
:1003F0000F931F93CF93DF936C017A018B01C0E0C1
:10040000D0E0CE15DF0581F0D8016D918D01D601C8
:10041000ED91FC910190F081E02DC6011995892B99
:1004200011F02196EECF7E01C701DF91CF911F9190
:100430000F91FF90EF90DF90CF900895FC01538DC6
:10044000448D252F30E0842F90E0821B930B5417AE
:1004500010F0CF96089501970895FC01918D828D3B
:10046000981761F0828DDF01A80FB11D5D968C9108
:10047000928D9F5F9F73928F90E008958FEF9FEF13
:100480000895FC01918D828D981731F0828DE80FCF
:10049000F11D858D90E008958FEF9FEF0895FC0189
:1004A000918D228D892F90E0805C9F4F821B910956
:1004B0008F739927089589E096E00E944F0221E00A
:1004C000892B09F420E0822F0895FC01848DDF013F
:1004D000A80FB11DA35ABF4F2C91848D90E00196B7
:1004E0008F739927848FA689B7892C93A089B189A6
:1004F0008C91837080648C93938D848D981306C047
:100500000288F389E02D80818F7D80830895EF92AA
:10051000FF920F931F93CF93DF93EC0181E0888FBD
:100520009B8D8C8D981305C0E889F989808185FDA4
:1005300026C0F62E0B8D10E00F5F1F4F0F73112793
:10054000E02E8C8DE8120CC00FB607FCFACFE889BC
:10055000F989808185FFF5CFCE010E946502F1CF38
:100560008B8DFE01E80FF11DE35AFF4FF0829FB71C
:10057000F8940B8FEA89FB89808180620AC09FB75B
:10058000F894EE89FF896083E889F9898081837016
:10059000806480839FBF81E090E0DF91CF911F91C5
:1005A0000F91FF90EF900895CF93DF93EC01888D2A
:1005B0008823C9F0EA89FB89808185FD05C0A88967
:1005C000B9898C9186FD0FC00FB607FCF5CF8081ED
:1005D00085FFF2CFA889B9898C9185FFEDCFCE0137
:1005E0000E946502E7CFDF91CF91089580E090E00F
:1005F000892B21F00E945B02811125C080E090E0F0
:10060000892B41F080E090E0892B21F00E940000CE
:1006100081111CC080E090E0892B41F080E090E0E7
:10062000892B21F00E940000811113C080E090E02E
:10063000892BA1F080E090E0892B81F00E940000DE
:1006400081110AC008950E940000D8CF0E940000C6
:10065000E1CF0E940000EACF0C9400000895DC0175
:10066000ED91FC910684F785E02D41E0199581E03C
:1006700090E0089508950895089580E090E0089529
:100680000E94D01EEF92FF921F93CF93DF93EC0155
:10069000162F7A0161E0812F0E941E081E8BFA86B8
:1006A000E986E881F9810484F585E02D60E0CE01DA
:1006B000DF91CF911F91FF90EF901994FC018689F3
:1006C0008F3F79F021853285662319F0232B31F491
:1006D00003C02130310511F461E001C060E00C94E9
:1006E000B40708950F931F93CF93DF93EC01162F58
:1006F000042F61E0413009F060E08B850E94B4076F
:100700008C858F3F19F060E00E94B407023081F0C1
:100710008C8184FF02C048E00CC0612F70E084E04F
:10072000759567958A95E1F744E0CE010E94E3074D
:1007300044E0612FCE01DF91CF911F910F910C9476
:10074000E3076115710579F0FB0101900020E9F7DD
:100750003197AF01461B570BDC01ED91FC910280F4
:10076000F381E02D199480E090E008950C94A103AA
:100770001F920F920FB60F9211240BB60F922F9368
:100780003F934F935F936F937F938F939F93AF9319
:10079000BF93EF93FF9389E096E00E946502FF917B
:1007A000EF91BF91AF919F918F917F916F915F91E9
:1007B0004F913F912F910F900BBE0F900FBE0F9056
:1007C0001F9018951F920F920FB60F9211240BB61F
:1007D0000F922F938F939F93EF93FF93E0911906BE
:1007E000F0911A068081E0911F06F091200682FDAB
:1007F00012C09081809122068F5F8F732091230613
:10080000821751F0E0912206F0E0E75FF94F958FF3
:100810008093220601C08081FF91EF919F918F917B
:100820002F910F900BBE0F900FBE0F901F90189539
:100830000E947F0860930506709306068093070662
:100840009093080680E00895CF92DF92EF92FF9296
:100850000F931F93611571058105910541F41F9157
:100860000F91FF90EF90DF90CF900C9418046B01E4
:100870007C010E947F0800910506109106062091D8
:10088000070630910806DC01CB01801B910BA20BFF
:10089000B30B21E0C816D906EA06FB0608F020E0F3
:1008A000822F1F910F91FF90EF90DF90CF900895CE
:1008B0008F929F92AF92BF92EF92FF920F931F93EE
:1008C000CF93DF93C82FD0E08E01000F111F055585
:1008D0001A4FF801208131812115310521F0213095
:1008E0003105A1F16FC00E948B07009719F00197A5
:1008F000A1F16BC00E947F089E01220F331F220FBF
:10090000331FA90149505B4F7A01FA018080918021
:10091000A280B380DC01CB0188199909AA09BB091F
:100920000697A105B10508F450C081E090E0F801F8
:1009300091838083C85ADB4F88830E947F08F70128
:10094000608371838283938381E040C00E948B0720
:10095000009719F0019771F038C00E947F08CC0F02
:10096000DD1FCC0FDD1FC950DB4F688379838A837D
:100970009B832BC00E947F089E01220F331F220FF2
:10098000331FA90149505B4F7A01FA0180809180A1
:10099000A280B380DC01CB0188199909AA09BB099F
:1009A0000697A105B10588F0F80111821082C85A96
:1009B000DB4F18820E947F08F70160837183828376
:1009C000938303C0F8011182108280E0DF91CF9100
:1009D0001F910F91FF90EF90BF90AF909F908F90DD
:1009E00008950E947F086093F3047093F404809349
:1009F000F5049093F60480E00895CF92DF92EF9291
:100A0000FF920F931F93611571058105910541F4C4
:100A10001F910F91FF90EF90DF90CF900C94F10415
:100A20006B017C010E947F080091F3041091F40493
:100A30002091F5043091F604DC01CB01801B910B71
:100A4000A20BB30B21E0C816D906EA06FB0608F094
:100A500020E0822F1F910F91FF90EF90DF90CF90B9
:100A60000895DC01ED91FC910684F785E02D40E0CE
:100A7000199461E086EA96E00E9431058BE39FE1DC
:100A80000197F1F708958F929F92AF92BF92CF9204
:100A9000DF92EF92FF920F931F93CF93DF93EC01BE
:100AA000423018F08C8188608C834F8368872223C2
:100AB00029F0413019F48C8184608C830E945A089B
:100AC0006B017C0184E6882E912CA12CB12C0E9414
:100AD0005A08DC01CB018C199D09AE09BF09883E7B
:100AE0009340A105B10598F321E0821A9108A1086D
:100AF000B10888EEC80E83E0D81EE11CF11C8114F9
:100B00009104A104B10419F76C8164FD31C0E8813E
:100B1000F9810684F785E02D42E063E0CE01199566
:100B20008BE496E40197F1F7E881F9810684F78573
:100B3000E02D42E063E0CE01199503E512E0C80123
:100B40000197F1F7E881F9810684F785E02D42E00D
:100B500063E0CE011995C8010197F1F7E881F981A9
:100B60000684F785E02D42E062E0CE01199517C0BA
:100B70006062CE010E9431058BE496E40197F1F7A3
:100B80006C816062CE010E94310503E512E0C8016C
:100B90000197F1F76C816062CE010E943105C801B6
:100BA0000197F1F76C816062CE010E9431058BEEF6
:100BB00090E00197F1F784E08D836CE0CE010E9414
:100BC000310561E0CE010E9431058BE39FE1019781
:100BD000F1F782E08E8366E0CE010E943105E88164
:100BE000F9810484F585E02D6FEFCE01DF91CF917F
:100BF0001F910F91FF90EF90DF90CF90BF90AF903B
:100C00009F908F901994CF93E9E0F6E0A089B18985
:100C1000C2E0CC93A485B5851C92A685B7858FECE0
:100C20008C93108EA489B58986E08C93A289B389B0
:100C30008C9180618C93A289B3898C9188608C930C
:100C4000A289B3898C9180688C930288F389E02D06
:100C500080818F7D808320E042E060E186EA96E03B
:100C60000E94430562E086EA96E00E9431058BE32C
:100C70009FE10197F1F70E94390562E772E080E099
:100C80000E94D50663E872E081E00E94D5061092CA
:100C900099041092980462E086E00E941E0862E0C7
:100CA00083E00E941E0862E082E00E941E0862E06B
:100CB00085E00E941E0862E084E00E941E080E94F7
:100CC0001804E5E8F4E0C18384EF91E09587848718
:100CD0008EE090E09787868784E090E0918B808B10
:100CE0008EE08383C2838EE190E0918780878CEFD2
:100CF000828B84E190E097838683CF91089590E082
:100D0000FC013197E231F10508F04EC08827EA5620
:100D1000FF4F8F4F0C94AD1E809180008F7703C0E2
:100D2000809180008F7D8093800008958091800065
:100D3000877FF9CF84B58F7702C084B58F7D84BD5E
:100D400008958091B0008F7703C08091B0008F7DAF
:100D50008093B0000895809190008F7707C08091B4
:100D600090008F7D03C080919000877F80939000DA
:100D700008958091A0008F7707C08091A0008F7D9B
:100D800003C08091A000877F8093A0000895809188
:100D900020018F7707C0809120018F7D03C0809153
:100DA0002001877F8093200108950F931F93CF9395
:100DB000DF93CDB7DEB728970FB6F894DEBF0FBE2E
:100DC000CDBF8B014091000250910102609102025F
:100DD000709103024D835E836F8378874091040294
:100DE00050910502609106027091070249835A836F
:100DF0006B837C832091AD06821710F08FEF820FFA
:100E00003091AE0690E0FE01E80FF91F303121F479
:100E1000243011F4618101C06581606886EA96E042
:100E20000E943105B80186EA96E028960FB6F8943C
:100E3000DEBF0FBECDBFDF91CF911F910F910C94FC
:100E4000B6038F929F92AF92BF920F931F93CF934F
:100E5000DF93CDB7DEB7A1970FB6F894DEBF0FBE14
:100E6000CDBF19A2423008F44AE08E010F5D1F4F3A
:100E7000842E912CA12CB12CA50194010E94681EF6
:100E8000E62FB901CA0101501109EA3014F4E05DFE
:100E900001C0E95CD801EC93232B242B252B61F7AF
:100EA000B80189E096E00E94A103A1960FB6F894DC
:100EB000DEBF0FBECDBFDF91CF911F910F91BF90CD
:100EC000AF909F908F900895CF93DF93BC0180E007
:100ED00090E04AE00E942107EC0163E174E089E0C0
:100EE00096E00E94A1038C0F9D1FDF91CF91089582
:100EF000CF93DF93BC0189E096E00E94A103EC014F
:100F000063E174E089E096E00E94A1038C0F9D1FCD
:100F1000DF91CF910895CF93DF93282F30E0F9012F
:100F2000E65CFC4F8491F901EC50FD4FD491F9013E
:100F3000E255FD4FC491CC2391F081110E947F06B0
:100F4000EC2FF0E0EE0FFF1FEC56FD4FA591B49192
:100F5000EC91ED2381E090E021F480E002C080E09C
:100F600090E0DF91CF9108951F93CF93DF93282FC7
:100F700030E0F901E65CFC4F8491F901EC50FD4F43
:100F8000D491F901E255FD4FC491CC23C1F0162F45
:100F900081110E947F06EC2FF0E0EE0FFF1FE65854
:100FA000FD4FA591B4919FB7F894111104C08C9195
:100FB000D095D82302C0EC91DE2BDC939FBFDF914C
:100FC000CF911F910895AF92BF92CF92DF92EF928F
:100FD000FF920F931F93CF93DF938C015C018EE000
:100FE000A80EB11CC42ED12CC0E0D0E0E62EF12C0E
:100FF000CC15DD0579F0B7010C2E02C0759567950B
:101000000A94E2F76170F50181915F010E94B407D3
:101010002196EECF61E0F80185850E94B40760E07B
:10102000F8018585DF91CF911F910F91FF90EF908F
:10103000DF90CF90BF90AF900C94B407CF93DF9325
:1010400090E0FC01EC50FD4F2491FC01E255FD4F76
:101050008491882361F190E0880F991FFC01E05A88
:10106000FD4FC591D491FC01E658FD4FA591B49177
:10107000611109C09FB7F8948881209582238883E5
:10108000EC912E230BC0623061F49FB7F8948881F5
:10109000322F309583238883EC912E2B2C939FBF86
:1010A00006C08FB7F894E8812E2B28838FBFDF917D
:1010B000CF9108953FB7F8948091C2069091C306EE
:1010C000A091C406B091C50626B5A89B05C02F3FC8
:1010D00019F00196A11DB11D3FBFBA2FA92F982F5E
:1010E0008827820F911DA11DB11DBC01CD0142E0D9
:1010F000660F771F881F991F4A95D1F708952FB75C
:10110000F8946091BE067091BF068091C0069091E0
:10111000C1062FBF08951F920F920FB60F92112490
:101120002F933F938F939F93AF93BF938091BE066E
:101130009091BF06A091C006B091C1063091BD0646
:1011400023E0230F2D3720F40196A11DB11D05C00A
:1011500026E8230F0296A11DB11D2093BD068093A2
:10116000BE069093BF06A093C006B093C1068091BF
:10117000C2069091C306A091C406B091C50601961F
:10118000A11DB11D8093C2069093C306A093C4060F
:10119000B093C506BF91AF919F918F913F912F91D1
:1011A0000F900FBE0F901F901895CF93DF93CDB780
:1011B000DEB7A0970FB6F894DEBF0FBECDBF789410
:1011C00084B5826084BD84B5816084BD85B582604C
:1011D00085BD85B5816085BD80916E0081608093FD
:1011E0006E00109281008091810082608093810066
:1011F0008091810081608093810080918000816076
:10120000809380008091B10084608093B1008091D0
:10121000B00081608093B0008091910082608093E3
:101220009100809191008160809391008091900065
:101230008160809390008091A10082608093A100E2
:101240008091A10081608093A1008091A0008160C5
:101250008093A00080912101826080932101809180
:101260002101816080932101809120018160809320
:10127000200180917A00846080937A0080917A00C6
:10128000826080937A0080917A00816080937A00F6
:1012900080917A00806880937A001092C1000E9449
:1012A00003061092A1041092A0041092BC041092A4
:1012B000BE041092BD0482E090E09093D504809328
:1012C000D4041092D1041092D0041092D30410923E
:1012D000D204E0911906F0911A068083E091150678
:1012E000F09116061082E0911706F091180680E141
:1012F000808310922106E0911D06F0911E0686E083
:101300008083E0911B06F0911C06808180618083C0
:10131000E0911B06F0911C06808188608083E0913B
:101320001B06F0911C06808180688083E0911B067B
:10133000F0911C0680818F7D808361E08DE00E94AA
:101340001E08F3E0EF2EF12CA2E06A2E712C01E0D2
:1013500010E0B0E68B2EBAEE9B2EA12CB12C809122
:101360009A0490919B048130910561F030F08230B5
:10137000910541F0039731F009C0F0929B04E0928F
:101380009A0404C010929B0410929A048091A004C5
:101390009091A1048130910539F178F0029709F01C
:1013A00064C01092A1041092A0042091BA04822F6C
:1013B00090E0AC01475F5F4F4AC00E947F082091D8
:1013C0009C0430919D0440919E0450919F04DC0147
:1013D000CB01821B930BA40BB50BC397A105B105E1
:1013E00008F443C00C94561D7092A1046092A004AE
:1013F000C090BA04D12C80917B00877F80937B00C2
:1014000080E480937C0080917A00806480937A00ED
:1014100080917A0086FDFCCFA091780080917900C0
:10142000B0E0B82BC601880F991F9C012A553B4F8D
:10143000690124E630E00E94B51E2FEF33E040E062
:1014400050E00E94491EF601318320830EC0622FB6
:1014500070E04617570714F02F5FF9CF01966AE046
:1014600070E00E94991E8093BA04C090D404D0907A
:10147000D504F1E0CF16D10409F4BAC088F032E007
:10148000C316D10409F067C18091D604882309F4FA
:1014900062C11092D6048091D704811109C0B2C0F4
:1014A0008091D604882361F01092D6048091D704ED
:1014B000813009F050C11093D5040093D40447C182
:1014C0008091D0049091D1048230910509F445C0F7
:1014D00050F4009781F0019709F098C07092D10400
:1014E0006092D0046DC08330910509F463C0049705
:1014F00009F469C08BC08091BB04882309F42BC117
:101500001093D1040093D004D090D8042091D90432
:101510008D2D90E00196289F1001299F300C1124F9
:10152000032C000C44085508C501B401A201910127
:101530000E94491E3093A5042093A4042D2D30E071
:10154000A0E6BAEE0E948A1EA20191010E94491EE5
:101550003093A3042093A204FEC0E091BA04F0E00B
:10156000EE0FFF1FEA55FB4FC080D180D092C1041F
:10157000C092C0048091DE049091DF04C816D906A1
:1015800028F4F092D104E092D004E5C06091A40464
:101590007091A50480E090E00E94FD04882309F486
:1015A000DAC0F092D104E092D004D092C304C09289
:1015B000C204A5C084E090E09093D1048093D0044D
:1015C0000E94F104C8C08091BB04882309F4C3C001
:1015D0006091A2047091A30480E090E00E94FD0459
:1015E000882309F4B8C01093D1040093D004AAC092
:1015F0008091D604882379F01092D6048091D70484
:101600008111A9C01092D5041092D4041092D10473
:101610001092D004A0C08091D2049091D304823063
:10162000910509F445C050F4009781F0019709F045
:101630008EC07092D3046092D204C2CF83309105E1
:1016400009F467C0049709F46BC081C08091BB04A2
:10165000882309F480C0D092D304C092D204D090E1
:10166000D8042091D9048D2D90E00196289F100177
:10167000299F300C1124032C000C44085508C50187
:10168000B401A20191010E94491E3093CF0420931E
:10169000CE042D2D30E0A0E6BAEE0E948A1EA201F3
:1016A00091010E94491E3093CD042093CC0453C075
:1016B000E091BA04F0E0EE0FFF1FEA55FB4F808186
:1016C00091819093C1048093C0042091DE043091F5
:1016D000DF048217930728F4F092D304E092D20437
:1016E0003AC06091CE047091CF0480E090E00E94F7
:1016F000FD04882381F1F092D304E092D20480911A
:10170000BD049091BE0499279093CB048093CA04A2
:1017100022C0E4E0F0E0F093D304E093D20450CF91
:101720008091BB048823B9F06091CC047091CD0402
:1017300080E090E00E94FD04882369F0D092D304F9
:10174000C092D2048091BC048093BF0404C0109264
:10175000D3041092D204198A1982E0919804F0916E
:101760009904E432F10510F00C94FC1C8827EE5823
:10177000FF4F8F4F0C94AD1E82E00E9458048823C7
:1017800011F40C94001D0E9439056EE272E080E0B5
:101790000E94D5066FE372E081E00E94D5061093A7
:1017A0009904009398040E9418040C94001D86E08C
:1017B0000E945804882359F060E572E081E00E949D
:1017C000D506F0929904E09298040C94001D83E0F1
:1017D0000E945804882359F061E672E081E00E947B
:1017E000D50670929904609298040C94001D85E0CF
:1017F0000E945804882369F082E08093D70481E234
:1018000090E090939904809398040E9418040C949B
:10181000001D84E00E945804882381F062E772E092
:1018200080E00E94D50663E872E081E00E94D50660
:1018300010929904109298040C94001D64EF71E0CA
:1018400080E090E00E942404882311F40C94001D91
:1018500054E0252E312C30929904209298046AE1AC
:1018600074E081E00E94D5060E9418040C94001DCB
:1018700086E00E94580481119FCF83E00E945804A3
:101880008111AACF85E00E9458048111B5CF84E070
:101890000E9458048111C2CF6AEF70E080E090E0AE
:1018A0000E942404882311F40C94001D6FE372E05D
:1018B00081E00E94D50610939904009398040E9439
:1018C00018040C94001D86E00E945804882359F0E7
:1018D0006FE372E081E00E94D506109399040093B3
:1018E00098040C94001D83E00E945804811164CF79
:1018F00085E00E945804882389F061E672E081E067
:101900000E94D5061092D70487E090E09093990446
:10191000809398040E9418040C94001D84E00E9497
:10192000580481117BCF64EF71E080E090E00E9469
:101930002404882311F40C94001D85E090E090931A
:101940009904809398046AE174E081E00E94D506CE
:101950000E9418040C94001D86E00E945804811116
:10196000B7CF83E00E945804811126CF85E00E9402
:1019700058048111C2CF84E00E94580481114ECFD7
:101980006AEF70E080E090E00E942404882311F464
:101990000C94001D709299046092980461E672E0C4
:1019A00081E00E94D5060E9418040C94001D86E078
:1019B0000E945804811110CF83E00E9458048111C5
:1019C00087CF85E00E945804882391F060E572E09B
:1019D00081E00E94D50681E08093D70487E090E003
:1019E00090939904809398040E9418040C94001D0D
:1019F00084E00E945804811111CF64EF71E080E00F
:101A000090E00E942404882311F40C94001D86E0C9
:101A100090E090939904809398046AE174E081E0E7
:101A20000E94D5060E9418040C94001D86E00E94B6
:101A300058048111D1CE83E00E945804811148CF0F
:101A400085E00E9458048111C1CF84E00E945804AF
:101A50008111E4CE6AEF70E080E090E00E942404FF
:101A6000882311F40C94001DF0929904E0929804DC
:101A700060E572E081E00E94D5060E9418040C9493
:101A8000001D64EF71E080E090E00E942404882350
:101A900011F40C94001D8091D704813039F50E9417
:101AA000390564E972E080E00E94D5064AE0BE0193
:101AB0006F5E7F4F80918B0490918C040E94141E66
:101AC00065EA72E0CE0141960E94D51EBE016F5EAE
:101AD0007F4F81E00E94D5068BE090E090939904BF
:101AE000809398040E9418040C94001D81110C949A
:101AF000001D0E9439056CEA72E080E00E94D50664
:101B00004AE0BE016F5E7F4F8091910490919204F4
:101B10000E94141E6DEB72E0CE0141960E94D51E0C
:101B2000BE016F5E7F4F81E00E94D50688E090E0A5
:101B300090939904809398040E9418040C94001DBB
:101B400086E00E945804882339F180918B0490919B
:101B50008C048832910510F4019602C088E290E06E
:101B600090938C0480938B044AE0BE016F5E7F4F9C
:101B700080918B0490918C040E94141E65EA72E09F
:101B8000CE0141960E94D51EBE016F5E7F4F81E05F
:101B90000E94D5060C94001D83E00E9458048823FF
:101BA00049F180918B0490918C048630910530F03E
:101BB000019790938C0480938B0404C010938C0441
:101BC00000938B044AE0BE016F5E7F4F80918B04CF
:101BD00090918C040E94141E65EA72E0CE01419639
:101BE0000E94D51EBE016F5E7F4F81E00E94D50628
:101BF0000C94001D85E00E945804882341F14AE0BE
:101C0000BE016F5E7F4F80918B0490918C040E9487
:101C1000141E65EA72E0CE0141960E94D51EBE01F7
:101C20006F5E7F4F81E00E94D50680918B0490917A
:101C30008C049093DD048093DC048DE090E090931D
:101C40009904809398040E9418040C94001D84E069
:101C50000E945804811197CD64EF71E080E090E01C
:101C60000E942404882311F40C94001D8CE090E061
:101C700090939904809398046AE174E081E00E9453
:101C8000D5060E9418040C94001D86E00E9458049A
:101C9000882341F180918B0490918C0488329105C6
:101CA00038F420919104309192042F5F3F4F02C08D
:101CB00028E230E030939204209391044AE0BE0180
:101CC0006F5E7F4F0E94141E65EA72E0CE0141965E
:101CD0000E94D51EBE016F5E7F4F81E00E94D50637
:101CE0000C94001D83E00E945804882339F18091F0
:101CF0009104909192048630910510F0019702C0F2
:101D000085E090E090939204809391044AE0BE01B4
:101D10006F5E7F4F80918B0490918C040E94141E03
:101D200065EA72E0CE0141960E94D51EBE016F5E4B
:101D30007F4F81E00E94D5060C94001D85E00E9433
:101D40005804882341F14AE0BE016F5E7F4F8091C5
:101D50008B0490918C040E94141E65EA72E0CE01FF
:101D600041960E94D51EBE016F5E7F4F81E00E94AA
:101D7000D50680918B0490918C049093DD04809320
:101D8000DC048DE090E090939904809398040E9485
:101D900018040C94001D84E00E9458048111F3CCB7
:101DA0006AEF70E080E090E00E942404882311F440
:101DB0000C94001D4AE0BE016F5E7F4F80918B0442
:101DC00090918C040E94141E65EA72E0CE01419647
:101DD0000E94D51EBE016F5E7F4F81E00E94D50636
:101DE0008BE090E090939904809398040E941804EB
:101DF0000C94001D64EF71E080E090E00E942404E8
:101E0000882311F40C94001D0E94390560EC72E0E7
:101E100080E00E94D5064AE0BE016F5E7F4F809150
:101E20009304909194040E94141E61ED72E0CE011F
:101E300041960E94D51EBE016F5E7F4F81E00E94D9
:101E4000D5068EE090E090939904809398040E94C8
:101E500018040C94001D86E00E945804882341F168
:101E60008091910490919204803223E0920710F4C3
:101E7000C29602C080E293E0909392048093910412
:101E80004AE0BE016F5E7F4F809191049091920471
:101E90000E94141E6DEB72E0CE0141960E94D51E89
:101EA000BE016F5E7F4F81E00E94D5060C94001D3D
:101EB00083E00E945804882341F18091910490911D
:101EC00092048D3231E0930710F0C29702C08CE289
:101ED00091E090939204809391044AE0BE016F5E7A
:101EE0007F4F80919104909192040E94141E6DEB9B
:101EF00072E0CE0141960E94D51EBE016F5E7F4FFB
:101F000081E00E94D5060C94001D85E00E945804D3
:101F1000882341F14AE0BE016F5E7F4F80919104BA
:101F2000909192040E94141E6DEB72E0CE014196D6
:101F30000E94D51EBE016F5E7F4F81E00E94D506D4
:101F400080919104909192049093E3048093E20431
:101F50008AE090E090939904809398040E9418047A
:101F60000C94001D84E00E94580481110CCC64EF95
:101F700071E080E090E00E942404882311F40C9426
:101F8000001D89E090E090939904809398046AE1A1
:101F900074E081E00E94D5060E9418040C94001D94
:101FA00086E00E945804882341F180919104909129
:101FB00092048032E3E09E0710F4C29602C080E2F1
:101FC00093E090939204809391044AE0BE016F5E87
:101FD0007F4F80919104909192040E94141E6DEBAA
:101FE00072E0CE0141960E94D51EBE016F5E7F4F0A
:101FF00081E00E94D5060C94001D83E00E945804E5
:10200000882341F180919104909192048D32F1E006
:102010009F0710F0C29702C08CE291E09093920467
:10202000809391044AE0BE016F5E7F4F80919104DE
:10203000909192040E94141E6DEB72E0CE014196C5
:102040000E94D51EBE016F5E7F4F81E00E94D506C3
:102050000C94001D85E00E945804882349F14AE051
:10206000BE016F5E7F4F80919104909192040E9417
:10207000141E6DEB72E0CE0141960E94D51EBE018A
:102080006F5E7F4F81E00E94D50680919104909110
:1020900092049093E3048093E2044AE0242E312CCE
:1020A00030929904209298040E9418040C94001D08
:1020B00084E00E945804811166CB6AEF70E080E0F2
:1020C00090E00E942404882311F40C94001D4AE03F
:1020D000BE016F5E7F4F80919104909192040E94A7
:1020E000141E6DEB72E0CE0141960E94D51EBE011A
:1020F0006F5E7F4F81E00E94D50688E090E090936C
:102100009904809398040E9418040C94001D64EFB5
:1021100071E080E090E00E942404882311F40C9484
:10212000001D0E94390560EC72E080E00E94D50637
:102130004AE0BE016F5E7F4F8091930490919404BA
:102140000E94141E61ED72E0CE0141960E94D51EE0
:10215000BE016F5E7F4F81E00E94D5068EE090E069
:1021600090939904809398040E9418040C94001D85
:1021700086E00E945804882339F18091930490915D
:1021800094048431910510F4019602C084E190E03A
:1021900090939404809393044AE0BE016F5E7F4F56
:1021A00080919304909194040E94141E61ED72E05A
:1021B000CE0141960E94D51EBE016F5E7F4F81E029
:1021C0000E94D5060C94001D83E00E9458048823C9
:1021D00039F180919304909194048D30910510F021
:1021E000019702C08CE090E0909394048093930454
:1021F0004AE0BE016F5E7F4F8091930490919404FA
:102200000E94141E61ED72E0CE0141960E94D51E1F
:10221000BE016F5E7F4F81E00E94D5060C94001DC9
:1022200085E00E945804882341F14AE0BE016F5EB8
:102230007F4F80919304909194040E94141E61ED4D
:1022400072E0CE0141960E94D51EBE016F5E7F4FA7
:1022500081E00E94D506809193049091940490931C
:10226000E5048093E40480E190E0909399048093E6
:1022700098040E9418040C94001D84E00E945804E5
:10228000882339F10E9439056CEA72E080E00E94EF
:10229000D5064AE0BE016F5E7F4F80919104909118
:1022A00092040E94141E6DEB72E0CE0141960E94D2
:1022B000D51EBE016F5E7F4F81E00E94D50688E08B
:1022C00090E090939904809398040E9418040C94D1
:1022D000001D64EF71E080E090E00E9424048823F8
:1022E00011F40C94001D8FE090E09093990480937A
:1022F00098046AE174E081E00E94D5060E94180407
:102300000C94001D86E00E945804882339F18091C6
:102310009304909194048431910510F4019602C0C5
:1023200084E190E090939404809393044AE0BE018A
:102330006F5E7F4F80919304909194040E94141ECD
:1023400061ED72E0CE0141960E94D51EBE016F5E26
:102350007F4F81E00E94D5060C94001D83E00E940F
:102360005804882339F180919304909194048D301E
:10237000910510F0019702C08CE090E090939404D6
:10238000809393044AE0BE016F5E7F4F8091930477
:10239000909194040E94141E61ED72E0CE0141966A
:1023A0000E94D51EBE016F5E7F4F81E00E94D50660
:1023B0000C94001D85E00E945804882341F14AE0F6
:1023C000BE016F5E7F4F80919304909194040E94B0
:1023D000141E61ED72E0CE0141960E94D51EBE0131
:1023E0006F5E7F4F81E00E94D506809193049091AB
:1023F00094049093E5048093E40480E190E090934A
:102400009904809398040E9418040C94001D84E0A1
:102410000E945804882339F10E9439056CEA72E061
:1024200080E00E94D5064AE0BE016F5E7F4F80913A
:102430009104909192040E94141E6DEB72E0CE0103
:1024400041960E94D51EBE016F5E7F4F81E00E94C3
:10245000D50688E090E090939904809398040E94B8
:1024600018040C94001D64EF71E080E090E00E947D
:102470002404882311F40C94001D4AE0BE016F5E11
:102480007F4F80919304909194040E94141E61EDFB
:1024900072E0CE0141960E94D51EBE016F5E7F4F55
:1024A00081E00E94D5068EE090E09093990480939D
:1024B00098040E9418040C94001D64EF71E080E001
:1024C00090E00E942404882311F40C94001D0E94C3
:1024D000390565ED72E080E00E94D5064AE0BE0154
:1024E0006F5E7F4F80919304909194040E94141E1C
:1024F00061ED72E0CE0141960E94D51EBE016F5E75
:102500007F4F81E00E94D50681E190E0909399048D
:10251000809398040E9418040C94001D86E00E9489
:102520005804882339F18091930490919404853064
:10253000910510F4019602C085E090E09093940418
:10254000809393044AE0BE016F5E7F4F80919304B5
:10255000909194040E94141E61ED72E0CE014196A8
:102560000E94D51EBE016F5E7F4F81E00E94D5069E
:102570000C94001D83E00E945804882349F1809147
:102580009304909194048230910530F001979093D8
:1025900094048093930404C01093940400939304D0
:1025A0004AE0BE016F5E7F4F809193049091940446
:1025B0000E94141E61ED72E0CE0141960E94D51E6C
:1025C000BE016F5E7F4F81E00E94D5060C94001D16
:1025D00085E00E945804882341F14AE0BE016F5E05
:1025E0007F4F80919304909194040E94141E61ED9A
:1025F00072E0CE0141960E94D51EBE016F5E7F4FF4
:1026000081E00E94D5068091930490919404909368
:10261000E5048093E40483E190E09093990480932F
:1026200098040E9418040C94001D84E00E94580431
:10263000882339F10E94390560EC72E080E00E9445
:10264000D5064AE0BE016F5E7F4F80919304909162
:1026500094040E94141E61ED72E0CE0141960E9426
:10266000D51EBE016F5E7F4F81E00E94D5068EE0D1
:1026700090E090939904809398040E9418040C941D
:10268000001D64EF71E080E090E00E942404882344
:1026900011F40C94001D82E190E0909399048093D2
:1026A00098046AE174E081E00E94D5060E94180453
:1026B0000C94001D86E00E945804882339F1809113
:1026C0009304909194048530910510F4019602C012
:1026D00085E090E090939404809393044AE0BE01D7
:1026E0006F5E7F4F80919304909194040E94141E1A
:1026F00061ED72E0CE0141960E94D51EBE016F5E73
:102700007F4F81E00E94D5060C94001D83E00E945B
:102710005804882349F18091930490919404823065
:10272000910530F00197909394048093930404C032
:1027300010939404009393044AE0BE016F5E7F4FB0
:1027400080919304909194040E94141E61ED72E0B4
:10275000CE0141960E94D51EBE016F5E7F4F81E083
:102760000E94D5060C94001D85E00E945804882321
:1027700041F14AE0BE016F5E7F4F809193049091DA
:1027800094040E94141E61ED72E0CE0141960E94F5
:10279000D51EBE016F5E7F4F81E00E94D5068091FD
:1027A0009304909194049093E5048093E40483E16E
:1027B00090E090939904809398040E9418040C94DC
:1027C000001D84E00E945804882339F10E943905D5
:1027D00060EC72E080E00E94D5064AE0BE016F5EC8
:1027E0007F4F80919304909194040E94141E61ED98
:1027F00072E0CE0141960E94D51EBE016F5E7F4FF2
:1028000081E00E94D5068EE090E090939904809339
:1028100098040E9418040C94001D64EF71E080E09D
:1028200090E00E942404882311F40C94001D4AE0D7
:10283000BE016F5E7F4F80919304909194040E943B
:10284000141E61ED72E0CE0141960E94D51EBE01BC
:102850006F5E7F4F81E00E94D50681E190E090930A
:102860009904809398040E9418040C94001D64EF4E
:1028700071E080E090E00E942404882311F40C941D
:10288000001D0E94390566EE72E080E00E94D506C8
:10289000809188044AE0BE016F5E7F4F90E00E9405
:1028A000141E69E274E0CE0141960E94D51EBE015D
:1028B0006F5E7F4F81E00E94D50684E190E09093A7
:1028C0009904809398040E9418040C94001D86E0DB
:1028D0000E945804882301F1809188048E3110F4FD
:1028E0008F5F01C08EE180938804809188044AE064
:1028F000BE016F5E7F4F90E00E94141E69E274E09B
:10290000CE0141960E94D51EBE016F5E7F4F81E0D1
:102910000E94D5060C94001D83E00E945804882371
:1029200001F180918804863010F0815001C085E06B
:1029300080938804809188044AE0BE016F5E7F4FD7
:1029400090E00E94141E69E274E0CE0141960E945C
:10295000D51EBE016F5E7F4F81E00E94D5060C94AC
:10296000001D85E00E945804882319F18091880495
:102970004AE0BE016F5E7F4F90E00E94141E69E244
:1029800074E0CE0141960E94D51EBE016F5E7F4F5E
:1029900081E00E94D506809188048093D90486E165
:1029A00090E090939904809398040E9418040C94EA
:1029B000001D84E00E945804882331F10E943905EB
:1029C00065ED72E080E00E94D5064AE0BE016F5ED0
:1029D0007F4F80919304909194040E94141E69E2A9
:1029E00074E0CE0141960E94D51EBE016F5E7F4FFE
:1029F00081E00E94D50681E190E090939904809354
:102A000098040E941804FCC764EF71E080E090E035
:102A10000E942404882309F4F3C785E190E0909391
:102A20009904809398046AE174E081E00E94D506DD
:102A30000E941804E5C786E00E9458048823F9F034
:102A4000809188048E3110F48F5F01C08EE18093F5
:102A50008804809188044AE0BE016F5E7F4F90E059
:102A60000E94141E69E274E0CE0141960E94D51EB8
:102A7000BE016F5E7F4F81E00E94D506C1C783E033
:102A80000E9458048823F9F080918804863010F061
:102A9000815001C085E080938804809188044AE0D9
:102AA000BE016F5E7F4F90E00E94141E69E274E0E9
:102AB000CE0141960E94D51EBE016F5E7F4F81E020
:102AC0000E94D5069DC785E00E945804882311F115
:102AD000809188044AE0BE016F5E7F4F90E00E94C3
:102AE000141E69E274E0CE0141960E94D51EBE011B
:102AF0006F5E7F4F81E00E94D506809188048093AD
:102B0000D90486E190E090939904809398040E9400
:102B1000180476C784E00E945804882331F10E948B
:102B2000390565ED72E080E00E94D5064AE0BE01FD
:102B30006F5E7F4F80919304909194040E94141EC5
:102B400069E274E0CE0141960E94D51EBE016F5E1F
:102B50007F4F81E00E94D50681E190E09093990437
:102B6000809398040E9418044BC764EF71E080E0E2
:102B700090E00E942404882309F442C780918804CD
:102B80004AE0BE016F5E7F4F90E00E94141E69E232
:102B900074E0CE0141960E94D51EBE016F5E7F4F4C
:102BA00081E00E94D50684E190E09093990480939F
:102BB00098040E94180424C764EF71E080E090E05C
:102BC0000E942404882309F41BC70E94390567EF7B
:102BD00072E080E00E94D50668E073E0CE01419685
:102BE0000E94D51E809187044AE0BE016F5F7F4F2F
:102BF00090E00E94141EBE016F5F7F4FCE01419690
:102C00000E94D51E69E274E0CE0141960E94D51E55
:102C1000BE016F5E7F4F81E00E94D50687E190E0A4
:102C200090939904809398040E941804E9C686E062
:102C30000E945804882361F180918704843010F445
:102C40008F5F01C084E08093870468E073E0CE0169
:102C500041960E94D51E809187044AE0BE016F5FB5
:102C60007F4F90E00E94141EBE016F5F7F4FCE0128
:102C700041960E94D51E69E274E0CE0141960E9401
:102C8000D51EBE016F5E7F4F81E00E94D506B8C69B
:102C900083E00E945804882361F180918704823088
:102CA00010F0815001C081E08093870468E073E0F8
:102CB000CE0141960E94D51E809187044AE0BE0154
:102CC0006F5F7F4F90E00E94141EBE016F5F7F4FC9
:102CD000CE0141960E94D51E69E274E0CE01419674
:102CE0000E94D51EBE016F5E7F4F81E00E94D50617
:102CF00087C685E00E945804882379F168E073E074
:102D0000CE0141960E94D51E809187044AE0BE0103
:102D10006F5F7F4F90E00E94141EBE016F5F7F4F78
:102D2000CE0141960E94D51E69E274E0CE01419623
:102D30000E94D51EBE016F5E7F4F81E00E94D506C6
:102D4000809187048093D80489E190E0909399045E
:102D5000809398040E94180453C684E00E9458048B
:102D6000882329F10E94390566EE72E080E00E9416
:102D7000D506809188044AE0BE016F5E7F4F90E0E7
:102D80000E94141E69E274E0CE0141960E94D51E95
:102D9000BE016F5E7F4F81E00E94D50684E190E026
:102DA00090939904809398040E94180429C664EFB4
:102DB00071E080E090E00E942404882309F420C69A
:102DC00088E190E090939904809398046AE174E01C
:102DD00081E00E94D5060E94180412C686E00E9477
:102DE0005804882361F180918704843010F48F5F48
:102DF00001C084E08093870468E073E0CE014196CF
:102E00000E94D51E809187044AE0BE016F5F7F4F0C
:102E100090E00E94141EBE016F5F7F4FCE0141966D
:102E20000E94D51E69E274E0CE0141960E94D51E33
:102E3000BE016F5E7F4F81E00E94D506E1C583E051
:102E40000E945804882361F180918704823010F039
:102E5000815001C081E08093870468E073E0CE0177
:102E600041960E94D51E809187044AE0BE016F5FA3
:102E70007F4F90E00E94141EBE016F5F7F4FCE0116
:102E800041960E94D51E69E274E0CE0141960E94EF
:102E9000D51EBE016F5E7F4F81E00E94D506B0C592
:102EA00085E00E945804882379F168E073E0CE0140
:102EB00041960E94D51E809187044AE0BE016F5F53
:102EC0007F4F90E00E94141EBE016F5F7F4FCE01C6
:102ED00041960E94D51E69E274E0CE0141960E949F
:102EE000D51EBE016F5E7F4F81E00E94D5068091A6
:102EF00087048093D80489E190E0909399048093AB
:102F000098040E9418047CC584E00E945804882319
:102F100029F10E94390566EE72E080E00E94D50634
:102F2000809188044AE0BE016F5E7F4F90E00E946E
:102F3000141E69E274E0CE0141960E94D51EBE01C6
:102F40006F5E7F4F81E00E94D50684E190E0909310
:102F50009904809398040E94180452C564EF71E0AC
:102F600080E090E00E942404882309F449C568E0C9
:102F700073E0CE0141960E94D51E809187044AE0FD
:102F8000BE016F5F7F4F90E00E94141EBE016F5F15
:102F90007F4FCE0141960E94D51E69E274E0CE01BA
:102FA00041960E94D51EBE016F5E7F4F81E00E9458
:102FB000D50687E190E090939904809398040E944D
:102FC00018041EC564EF71E080E090E00E942404C4
:102FD000882309F415C50E9439056BE073E080E091
:102FE0000E94D5064AE0BE016F5E7F4F80918D043E
:102FF00090918E040E94141E65EA72E0CE01419603
:103000000E94D51EBE016F5E7F4F81E00E94D506F3
:103010008AE190E090939904809398040E941804A8
:10302000EFC486E00E945804882331F180918D041A
:1030300090918E048733910510F4019602C087E3C6
:1030400090E090938E0480938D044AE0BE016F5E01
:103050007F4F80918D0490918E040E94141E65EA2A
:1030600072E0CE0141960E94D51EBE016F5E7F4F79
:1030700081E00E94D506C4C483E00E9458048823DE
:1030800059F180918D0490918E048432910530F035
:10309000019790938E0480938D0407C033E2432EF2
:1030A000512C50928E0440928D044AE0BE016F5E16
:1030B0007F4F80918D0490918E040E94141E65EACA
:1030C00072E0CE0141960E94D51EBE016F5E7F4F19
:1030D00081E00E94D50694C485E00E9458048823AC
:1030E00039F14AE0BE016F5E7F4F80918D0490916F
:1030F0008E040E94141E65EA72E0CE0141960E9481
:10310000D51EBE016F5E7F4F81E00E94D506809183
:103110008D0490918E049093DF048093DE048CE103
:1031200090E090939904809398040E94180468C4D6
:1031300084E00E945804882391F10E94390567EFCA
:1031400072E080E00E94D50668E073E0CE0141960F
:103150000E94D51E809187044AE0BE016F5F7F4FB9
:1031600090E00E94141EBE016F5F7F4FCE0141961A
:103170000E94D51E69E274E0CE0141960E94D51EE0
:10318000BE016F5E7F4F81E00E94D50687E190E02F
:1031900090939904809398040E94180431C464EFBA
:1031A00071E080E090E00E942404882309F428C4A0
:1031B0008BE190E090939904809398046AE174E025
:1031C00081E00E94D5060E9418041AC486E00E947D
:1031D0005804882331F180918D0490918E048733B7
:1031E000910510F4019602C087E390E090938E045D
:1031F00080938D044AE0BE016F5E7F4F80918D0405
:1032000090918E040E94141E65EA72E0CE014196F0
:103210000E94D51EBE016F5E7F4F81E00E94D506E1
:10322000EFC383E00E945804882351F180918D04FC
:1032300090918E048432910530F0019790938E0422
:1032400080938D0406C023E230E030938E042093F7
:103250008D044AE0BE016F5E7F4F80918D04909196
:103260008E040E94141E65EA72E0CE0141960E940F
:10327000D51EBE016F5E7F4F81E00E94D506C0C3A0
:1032800085E00E945804882339F14AE0BE016F5E50
:103290007F4F80918D0490918E040E94141E65EAE8
:1032A00072E0CE0141960E94D51EBE016F5E7F4F37
:1032B00081E00E94D50680918D0490918E049093B8
:1032C000DF048093DE048CE190E090939904809376
:1032D00098040E94180494C384E00E945804882330
:1032E00091F10E94390567EF72E080E00E94D506F7
:1032F00068E073E0CE0141960E94D51E809187045C
:103300004AE0BE016F5F7F4F90E00E94141EBE0135
:103310006F5F7F4FCE0141960E94D51E69E274E037
:10332000CE0141960E94D51EBE016F5E7F4F81E0A7
:103330000E94D50687E190E09093990480939804C9
:103340000E9418045DC364EF71E080E090E00E9489
:103350002404882309F454C34AE0BE016F5E7F4F02
:1033600080918D0490918E040E94141E65EA72E093
:10337000CE0141960E94D51EBE016F5E7F4F81E057
:103380000E94D5068AE190E0909399048093980476
:103390000E94180435C364EF71E080E090E00E9461
:1033A0002404882309F42CC30E9439056CE173E0DE
:1033B00080E00E94D506809197044AE0BE016F5ECE
:1033C0007F4F082E000C990B0E94141E69E274E0D6
:1033D000CE0141960E94D51EBE016F5E7F4F81E0F7
:1033E0000E94D5068DE190E0909399048093980413
:1033F0000E94180405C386E00E945804882311F136
:103400008091970487FF04C08F5F8093970402C068
:1034100010929704809197044AE0BE016F5E7F4F3F
:10342000082E000C990B0E94141E69E274E0CE0174
:1034300041960E94D51EBE016F5E7F4F81E00E94C3
:10344000D506DEC283E00E945804882309F18091EA
:103450009704813F14F0815001C080EF809397045E
:10346000809197044AE0BE016F5E7F4F082E000CEA
:10347000990B0E94141E69E274E0CE0141960E94ED
:10348000D51EBE016F5E7F4F81E00E94D506B8C297
:1034900085E00E945804882321F1809197044AE036
:1034A000BE016F5E7F4F082E000C990B0E94141E08
:1034B00069E274E0CE0141960E94D51EBE016F5EA6
:1034C0007F4F81E00E94D506809197048093E804A5
:1034D0008FE190E090939904809398040E941804DF
:1034E0008FC284E00E945804882331F10E9439057C
:1034F0006BE073E080E00E94D5064AE0BE016F5E9B
:103500007F4F80918D0490918E040E94141E65EA75
:1035100072E0CE0141960E94D51EBE016F5E7F4FC4
:1035200081E00E94D5068AE190E09093990480930F
:1035300098040E94180464C264EF71E080E090E097
:103540000E942404882309F45BC28EE190E09093EA
:103550009904809398046AE174E081E00E94D506A2
:103560000E9418044DC286E00E945804882311F17D
:103570008091970487FF04C08F5F8093970402C0F7
:1035800010929704809197044AE0BE016F5E7F4FCE
:10359000082E000C990B0E94141E69E274E0CE0103
:1035A00041960E94D51EBE016F5E7F4F81E00E9452
:1035B000D50626C283E00E945804882309F1809131
:1035C0009704813F14F0815001C080EF80939704ED
:1035D000809197044AE0BE016F5E7F4F082E000C79
:1035E000990B0E94141E69E274E0CE0141960E947C
:1035F000D51EBE016F5E7F4F81E00E94D50600C2DE
:1036000085E00E945804882321F1809197044AE0C4
:10361000BE016F5E7F4F082E000C990B0E94141E96
:1036200069E274E0CE0141960E94D51EBE016F5E34
:103630007F4F81E00E94D506809197048093E80433
:103640008FE190E090939904809398040E9418046D
:10365000D7C184E00E945804882331F10E943905C3
:103660006BE073E080E00E94D5064AE0BE016F5E29
:103670007F4F80918D0490918E040E94141E65EA04
:1036800072E0CE0141960E94D51EBE016F5E7F4F53
:1036900081E00E94D5068AE190E09093990480939E
:1036A00098040E941804ACC164EF71E080E090E0DF
:1036B0000E942404882309F4A3C1809197044AE05E
:1036C000BE016F5E7F4F082E000C990B0E94141EE6
:1036D00069E274E0CE0141960E94D51EBE016F5E84
:1036E0007F4F81E00E94D506EDE1F0E0F093990470
:1036F000E09398040E94180483C164EF71E080E0B5
:1037000090E00E942404882309F47AC10E943905BC
:103710006DE273E080E00E94D5066EE373E081E025
:103720000E94D506BE016F5E7F4F81E00E94D506E4
:1037300020E2222E312C309299042092980460C10C
:10374000809187048093D80480918D0490918E0499
:103750009093DF048093DE04809188048093D904E1
:1037600080919104909192049093E3048093E204F9
:10377000809197048093E80480919304909194043D
:103780009093E5048093E40464EF71E080E090E0BE
:103790000E942404882309F433C10E9439058091D2
:1037A000D704813019F46DE273E002C06FE473E076
:1037B00080E00E94D5066EE373E081E00E94D506AA
:1037C000BE016F5E7F4F81E00E94D50690E2492ED8
:1037D000512C509299044092980412C185E00E94A5
:1037E0005804882309F4BCC081E08093D60422E207
:1037F00030E030939904209398040E94390560E6E4
:1038000073E080E00E94D50667E673E081E00E94E5
:10381000D5060E94180467E773E089E096E00E94ED
:10382000B6038091D704813049F028F0823019F531
:1038300087EC93E012C08CE893E00FC089EA93E034
:103840000E94780761EB73E089E096E00E94B6037E
:103850008091DC049091DD040CC00E94780764E93B
:1038600073E089E096E00E94B6038091E2049091B3
:10387000E3040E94640762ED73E089E096E00E9431
:10388000B6038091E4049091E5040E94640768EE19
:1038900073E089E096E00E94B6038091E404909181
:1038A000E5040E9464076EEF73E089E096E00E94F1
:1038B000B6036091D90470E080E090E04AE00E9495
:1038C000210763E174E089E096E00E94A10366E1CC
:1038D00074E089E096E00E94B6036091D80470E03D
:1038E00080E090E04AE00E94210763E174E089E013
:1038F00096E00E94A1036BE274E089E096E00E94EA
:10390000B6038091DE049091DF040E94640762E4B4
:1039100074E089E096E00E94B6032090E804022C4F
:10392000000C33084408550857FE0EC06DE289E0CC
:1039300096E00E94870266277727CB0162197309F8
:10394000840995094AE003C04AE0C201B1010E941E
:10395000210763E174E089E096E00E94A10350C072
:1039600084E00E945804882309F44AC00E94390563
:103970006CE173E080E00E94D506809197044AE0F4
:10398000BE016F5E7F4F082E000C990B0E94141E23
:1039900069E274E0CE0141960E94D51EBE016F5EC1
:1039A0007F4F81E00E94D5068DE190E090939904CD
:1039B000809398040E94180423C082E00E94580457
:1039C0008823F1F0E3E2F0E0F0939904E0939804A7
:1039D0000E94180415C082E00E94580480915A0485
:1039E000882309F476C068E873E180E090E00E94E3
:1039F000240481116BC004C01092990410929804A1
:103A00000E947F082091E9043091EA044091EB0480
:103A10005091EC04DC01CB01821B930BA40BB50B82
:103A2000893C9105A105B10550F00E947F08609383
:103A3000E9047093EA048093EB049093EC040E94F1
:103A40007F082091EF043091F0044091F1045091EF
:103A5000F2041B012C01221A330A440A550AE4EF2E
:103A60002E16E1E03E0641045104E0F06093EF04BD
:103A70007093F0048093F1049093F2048091ED042C
:103A80009091EE04892B29F41093EE040093ED0439
:103A900004C01092EE041092ED046091ED048DE0EC
:103AA0000E94B4070E94F6020C94AF091093A1047F
:103AB0000093A0040E947F0860939C0470939D046F
:103AC00080939E0490939F040C94350A0E940306F1
:103AD00097CF82E2282E312C3092990420929804BC
:103AE0008FCFCF93DF9310920C0610920B0688EEC7
:103AF00093E0A0E0B0E080930D0690930E06A093B3
:103B00000F06B09310068CE092E090930A06809323
:103B1000090685EC90E0909316068093150684ECD8
:103B200090E0909318068093170680EC90E09093B5
:103B30001A068093190681EC90E090931C068093FE
:103B40001B0682EC90E090931E0680931D0686EC87
:103B500090E09093200680931F0610922206109208
:103B6000230610922406109225061092A9061092A0
:103B7000A8068EE192E09093A7068093A6068DE2B8
:103B80008093B1068FEF8093B2068CE28093B306E8
:103B90008BE28093B4068AE28093B50689E2809333
:103BA000B60688E28093B7061092B8061092B9065E
:103BB0001092BA061092BB06C4EBD6E061E0899180
:103BC0000E941E0886E0C83BD807C1F761E08091DB
:103BD000B1060E941E088091B2068F3F19F061E085
:103BE0000E941E0861E08091B3060E941E08109298
:103BF000AA0660E08091B1060E94B40760E080915F
:103C0000B3060E94B4078091B2068F3F19F060E0BE
:103C10000E94B4078FEF8093BC061092B0061092FA
:103C2000AF06DF91CF910895BB274A3031F4992335
:103C300022F4BDE2909581959F4F0C94201EBB27E6
:103C4000FB015527AA27880F991FAA1FA41710F058
:103C5000A41B83955051B9F7A05DAA3308F0A95D64
:103C6000A193009779F7B111B1931192CB010C9404
:103C7000391EDC01FC01672F71917723E1F7329740
:103C800004C07C916D9370836291AE17BF07C8F337
:103C90000895052E97FB1EF400940E94601E57FDA8
:103CA00007D00E94681E07FC03D04EF40C94601EDF
:103CB00050954095309521953F4F4F4F5F4F089558
:103CC00090958095709561957F4F8F4F9F4F089588
:103CD000A1E21A2EAA1BBB1BFD010DC0AA1FBB1F10
:103CE000EE1FFF1FA217B307E407F50720F0A21B82
:103CF000B30BE40BF50B661F771F881F991F1A94EF
:103D000069F760957095809590959B01AC01BD0118
:103D1000CF010895A29FB001B39FC001A39F700D72
:103D2000811D1124911DB29F700D811D1124911DC3
:103D3000089597FB072E16F4009407D077FD09D05D
:103D40000E94BC1E07FC05D03EF4909581959F4FC4
:103D50000895709561957F4F0895EE0FFF1F881F9E
:103D60008BBF0790F691E02D19940E948A1EB7FF31
:103D70000895821B930B0895AA1BBB1B51E107C03A
:103D8000AA1FBB1FA617B70710F0A61BB70B881FEB
:103D9000991F5A95A9F780959095BC01CD0108957A
:103DA00081E090E0F8940C94E01EFB01DC010D90A2
:103DB0000020E9F7119701900D920020E1F7089596
:043DC000F894FFCFA5
:103DC4000040145400401050000000008702F40129
:103DD4001E02D4024F022D024102000000002F03F4
:103DE400F4013D033C03430542035E037203536540
:103DF4006C656363696F6E6172204D6F646F00411F
:103E040075746F6D617469636F2020202020200019
:103E140050726573696F6E2020202020202020209E
:103E240000566F6C756D656E2020202020202020A8
:103E340020005245535049524F4E45202020202007
:103E440020200050726573696F6E65204D656E7534
:103E5400202020005041202020202020202020202D
:103E64002020202000636D2E48324F00564F4C20F6
:103E7400544944202020202020202020006D6C0064
:103E8400564D4D202020202020202020202020209E
:103E9400004C2F6D00564D6D202020202020202026
:103EA40020202020200052504D202020202020209F
:103EB40020202020202000493A45202020202020B6
:103EC4002020202020202000313A00504D6178200D
:103ED4002020202020202020202020005472502048
:103EE40020202020202020202020202000436F6E2E
:103EF4006669726D617220202020202020005349C1
:103F04003A456E7465722C4E4F3A4261636B0043BE
:103F14006F6E6669726D6172204175746F20200046
:103F2400544F20444F3A0053484F57205041524178
:103F34004D4554455253004D4F444F3A20202020C4
:103F4400202020202020202020202000564F4C55C7
:103F54004D454E00566F6C756D656E2054696461F5
:103F64006C3A2020202020200050524553494F4EC7
:103F7400005072657369C3B36E20416A75737461CE
:103F840064613A202020004155544F4D4154494327
:103F94004F00566F6C756D656E206D696E75746F2C
:103FA400204DC3A1783A2000566F6C756D656E2064
:103FB4006D696E75746F206DC3AD6E3A20005250FA
:103FC4004D3A2020202020202020202020202020A6
:103FD4002020000D0A00493A453A202020202020C4
:103FE400202020202020202020200050726573698A
:103FF400C3B36E204DC3A1783A2020202020202076
:1040040020005472503A20202020202020202020FC
:084014002020202020200000E4
:00000001FF
