:100000000C94E2020C94A10F0C94760F0C944B0FFD
:100010000C94200F0C94F50E0C94CA0E0C949F0EA9
:100020000C94740E0C9413030C9413030C9413038C
:100030000C9413030C94CC0F0C9413030C94130323
:100040000C9413030C9413030C9413030C941303D8
:100050000C9413030C9413030C9413030C94941D2D
:100060000C9413030C94AC100C9482100C94130396
:100070000C9413030C9413030C9413030C941303A8
:100080000C9413030C9413030C9413030C94130398
:100090000C9413030C9413030C9413030C94E210AC
:1000A0000C9413030C9413030C9413030C94130378
:1000B0000C9413030C9413030C9413030C94130368
:1000C0000C9413030C9413030C9413030C94130358
:1000D0000C9413030C9413030C9413030C94130348
:1000E0000C9413032C224322AE39B739A73BBE3BF5
:1000F000CF3B5322C8223623A1220F2372239923F8
:100100008E252F26DF26F823AD245B25122707280E
:100110000D2940290A2AE52A172BD02B992CCB2C04
:10012000832D4B2E7D2E352FFD2F2F30E730AD3117
:10013000DD319032533384334534173548350C362E
:10014000E1361337CD379938EA38BE38FB3E393FB0
:100150009D3FDB3F114046407540FE05AB06030660
:1001600094065907AF07DA071508A416A916AE16A4
:10017000B816C2163B17CC16D416DC16E616F016C7
:10018000FA16091713173B171D1727173117AA1748
:10019000AD179C17A017A617E417B117B517BB1713
:1001A000BF17C317C917CD17D117E417D717DB1718
:1001B000DF170C94832D0C94F8230C94DA070C941D
:1001C000FA160C9494060C94B2030C9413170C9426
:1001D000E4170C9436230C94393F0C940A2A0C949F
:1001E000A1220C9484330C941D170C94090D0C94CB
:1001F00048350C94C3170C940D290C94AE390C940B
:10020000720D0C944B2E0C94B8160C94FD2F0C947C
:100210000F230C94BB170C94AD170C94C8220C94AC
:1002200090320C94CF3B0C94172B0C948B050C94B0
:1002300043220C94490E0C9472230C94DF0C0C9402
:10024000B7390C94B5170C94BF170C94E7300C9485
:10025000DB3F0C94BF0D0C94AD240C94520C0C9409
:1002600015080C94AF070C94FE050C94BE030C9477
:10027000E6160C94DF260C94AA170C940C360C94FA
:10028000DB170C9440290C94AB060C94AD310C9404
:1002900003060C94CB2C0C9499230C947D2E0C9477
:1002A000FB3E0C94BE3B0C9459070C9475400C9487
:1002B000A6170C943B170C949C170C942C220C94AE
:1002C000EA380C94CC160C9453330C94992C0C945F
:1002D000560E0C949D3F0C94D4160C944C0E0C941A
:1002E00097410C94DD310C9427170C94E52A0C945B
:1002F0005B250C94B1170C94AE160C94D1170C948A
:10030000BE380C94CC030C94A9160C94CD370C94E5
:10031000DF170C94180D0C9412270C94D02B0C940E
:100320004F0E0C94E1360C945B050C94610E0C940A
:10033000C2160C9413370C94D7170C9446400C94A7
:100340008E250C94A4160C9445340C94F0160C9441
:10035000B8030C9411400C9409170C94C9170C9411
:100360002F300C942F260C942C0D0C94DC160C942E
:1003700099380C9453220C94CD170C94CB030C9405
:1003800007280C943A0D0C94480E0C94352F0C94BD
:1003900031170C9417350C946F050C94DE0C0C94EB
:1003A000A0170C94A73B00407A10F35A00A0724E9D
:1003B00018090010A5D4E80000E87648170000E40A
:1003C0000B54020000CA9A3B000000E1F505000052
:1003D00080969800000040420F000000A0860100B7
:1003E0000000102700000000E80300000000640087
:1003F000000000000A0000000000010000000000F2
:100400002C76D888DC674F0823DFC1DFAE59E1B115
:10041000B796E5E3E453C63AE651997696E8E6C224
:100420008426EB898C9B62ED407C6FFCEFBC9C9F2B
:1004300040F2BAA56FA5F490055A2AF75C936B6C4D
:10044000F9676DC11BFCE0E40D47FEF520E6B50041
:10045000D0ED902E0300943577050080841E0800AF
:1004600000204E0A000000C80C333333330F986E5F
:1004700012831141EF8D2114893BE65516CFFEE61C
:10048000DB18D1844B381BF77C1D901DA4BBE424E2
:10049000203284725E228100C9F124ECA1E53D275F
:1004A00000000A0B02090C0D0E08070304010000EE
:1004B000000000000000000000000000000000003C
:1004C00000000000000000000000000012111000F9
:1004D000000000000000000000000000000000001C
:1004E0000000000000000102102020080810204039
:1004F00010204080020102010804020101020408E8
:100500001020408080402010080402018004020175
:1005100080402010080402010804020101020408BE
:1005200010204080010204081020408000002000BC
:100530002300260029002C002F00320000010000BB
:100540000301060109010505050507050808080856
:10055000020202020A0A080804040404010101015B
:100560000101010103030303030303030407070756
:100570000C0C0C0C0C0C0C0C0202020206060606FB
:10058000060606060B0B0B0B0B0B0B0B00002100DA
:10059000240027002A002D00300033000101000054
:1005A000040107010A0100002200250028002B0099
:1005B0002E003100340002010000050108010B018A
:1005C0000200974111241FBECFEFD1E2DEBFCDBFA5
:1005D00000E00CBF16E0A0E0B2E0E6E9F0E900E0E0
:1005E0000BBF02C007900D92A836B107D9F72CE0D7
:1005F000A8E6B6E001C01D92A038B207E1F712E00C
:10060000C2EED2E000E006C021970109802FFE0172
:100610000E94B945C13ED10780E00807A9F70E94B2
:10062000DE1D0C9449480C940000DC01ED91FD9115
:100630008081ED91FD919081ED91FD916C916370C0
:100640008E2309F064609F2309F06860E2E3F3E021
:10065000E60FF11D659565956D936D917D918D9179
:100660009D91099423C01AC012C016C010C01EC0AC
:1006700009C014C013C006C019C009C00DC007C00E
:100680000DC014C062507040804090400BC061505B
:1006900070408040904006C06E5F01C06F5F7F4F2A
:1006A0008F4F9F4F9E938E937E936E93089580916C
:1006B0001E0C823030F4F89483E19CE00E94150314
:1006C00001C0F89480911A0C90911B0CA0911C0C05
:1006D000B0911D0C789480939C0690939D06A093F6
:1006E0009E06B0939F06F89410921A0C10921B0C61
:1006F00010921C0C10921D0C78944091A006509101
:10070000A1066091A2067091A30680919C0690912B
:100710009D06A0919E06B0919F06840F951FA61F6F
:10072000B71F8093A0069093A106A093A206B09352
:10073000A30608958091110C9091120C0C9415034E
:1007400080910F0C9091100C0C94150380910D0C5E
:1007500090910E0C0C94150380910B0C90910C0C45
:100760000C9415038091090C90910A0C0C941503BC
:100770008091070C9091080C0C941503DC01ED910D
:10078000FC910684F785E02D41E0199581E090E029
:10079000089508950895089580E090E008954F9297
:1007A0005F926F927F928F929F92AF92BF92CF9201
:1007B000DF92EF92FF920F931F93CF93DF930E94EC
:1007C00057031092A0061092A1061092A206109252
:1007D000A30681E090E09093D9068093D8062091FB
:1007E000690630916A0640916B0650916C0660E094
:1007F00070E68AE697E40E9461464B015C014090F6
:100800007506509076066090770670907806A30182
:1008100092010E94C0476B017C016093AC0670930B
:10082000AD068093AE069093AF06A301920160E0FF
:1008300070E080E89FE30E94EF45A50194010E94CB
:10084000C0476093B0067093B1068093B206909350
:10085000B3068090790690907A06A0907B06B090BF
:100860007C06A501940160E070E080E89FE30E94AF
:10087000EF45A70196010E94C0476093B4067093AC
:10088000B5068093B6069093B706A5019401C701FB
:10089000B6010E94C0476093B8067093B906809372
:1008A000BA069093BB060E94881D0E9409472091BA
:1008B000AC063091AD064091AE065091AF060E9455
:1008C000F0450E94DA466093CC067093CD06809383
:1008D000CE069093CF060E94881D0E940947209162
:1008E000B4063091B5064091B6065091B7060E9405
:1008F000F0450E94DA466093C8067093C90680935B
:10090000CA069093CB06C0907106D0907206E09014
:100910007306F090740604EF12E0C0E0D0E0F80136
:1009200061917191819191918F01A70196010E942E
:100930005C46811113C0CC0FDD1FCC0FDD1FCC5DD9
:10094000DC4F88819981AA81BB818093A406909312
:10095000A506A093A606B093A70604C02196CC30A6
:10096000D105E9F6DF91CF911F910F91FF90EF90A4
:10097000DF90CF90BF90AF909F908F907F906F90BF
:100980005F904F900895CF93C1E083E59BE00E9474
:100990003A0D892B09F48DC083E59BE00E94180D68
:1009A000853599F174F4813499F134F48B32E1F1A5
:1009B0008D3209F445C0E9CF8C3409F18D3471F1E1
:1009C000E4CF8D3659F12CF4813611F18C36B9F023
:1009D000DCCF8537D1F0893709F454C08437A9F6C4
:1009E0002DEC3CEC4CEC5DE3609100027091010257
:1009F00080910202909103020E94EF4551C08091C4
:100A000099078C2780939907C0CFC0939407BDCFD7
:100A10008091E4068C278093E406B7CF8091E506A9
:100A20008C278093E506B1CF80919507909196072A
:100A3000A0919707B0919807C296A11DB11D10C053
:100A40008091950790919607A0919707B09198078C
:100A500083339105A105B10560F0C297A109B109E1
:100A60008093950790939607A0939707B093980764
:100A70008CCF1092950710929607109297071092BC
:100A8000980783CF2DEC3CEC4CEC5DE360910002C9
:100A90007091010280910202909103020E94F04540
:100AA000609300027093010280930202909303020C
:100AB0006CCFCF910895FC0186898F3F79F0218515
:100AC0003285662319F0232B31F403C02130310520
:100AD00011F461E001C060E00C9485190895EF9273
:100AE000FF921F93CF93DF93EC01162F7A0161E001
:100AF000812F0E94B4191E8BFA86E986E881F9815C
:100B00000484F585E02D60E0CE01DF91CF911F9147
:100B1000FF90EF9019940F931F93CF93DF93EC0105
:100B2000162F042F61E0413009F060E08B850E94B0
:100B300085198C858F3F19F060E00E94851902307D
:100B400081F08C8184FF02C048E00CC0612F70E00E
:100B500084E0759567958A95E1F744E0CE010E949F
:100B6000021644E0612FCE01DF91CF911F910F91CA
:100B70000C9402168F929F92AF92BF92CF92DF9207
:100B8000EF92FF920F931F93CF93DF9386E00E9423
:100B90005C1921E0892B09F420E02093680620E00D
:100BA00030E040EA50E46091DC067091DD0680910F
:100BB000DE069091DF060E94BB4787FD07C085E0F7
:100BC0000E948B1310923D0810923C088091340CC7
:100BD000882331F010923D0810923C081092340C9A
:100BE000E0913C08F0913D08E830F10508F0C1C201
:100BF0008827E355FF4F8F4F0C94B9451092D906C3
:100C00001092D806B3C28091D8069091D906029767
:100C100009F583E090E09093D9068093D8060E946E
:100C2000881D0E9409472091B0063091B10640917D
:100C3000B2065091B3060E94F0450E94DA466093D6
:100C4000D0067093D1068093D2069093D30681E0AC
:100C50008093DA0680916806882309F44EC080915B
:100C6000D8069091D906892B69F08091A0069091C1
:100C7000A106A091A206B091A3068D329140A105D4
:100C8000B1056CF081EE9AE7A4E0B0EC80938706A2
:100C900090938806A0938906B0938A0625C02DEC10
:100CA0003CEC4CE45DE3609187067091880680918E
:100CB000890690918A060E94F0456B017C0120E034
:100CC00030E040E05FEB0E94BB4718162CF4C12CCB
:100CD000D12CE12C9FEBF92EC0928706D09288068A
:100CE000E0928906F0928A066091870670918806E4
:100CF0008091890690918A0682C160E070E0CB0104
:100D00000E9452168091D8069091D906892B09F03D
:100D100034C20E9457031092A0061092A1061092AE
:100D2000A2061092A30629C28091A0069091A10666
:100D3000A091A206B091A306B7FF05C06FEC77EFB4
:100D400083ED9FE35CC160E070E0CB010E9452162E
:100D50000E94CB1512C20E9460158091D806909116
:100D6000D9069C01235031092230310508F03FC0DB
:100D700084E090E09093D9068093D8066091480C67
:100D8000062E000C770B880B990B0E940B472091C5
:100D900080073091810740918207509183070E941C
:100DA000F0459B01AC0160917407709175078091CB
:100DB0007607909177070E945C46881F8827881FD6
:100DC00080937E060E94881D0091D0061091D10666
:100DD0002091D2063091D3066017710782079307DE
:100DE00008F0D2C180917E068111CEC146C5892B03
:100DF00009F043C58091330C882309F43EC50E9455
:100E000060151092330CC0907106D0907206E0907D
:100E10007306F09074062091690630916A0640913D
:100E20006B0650916C0660E070E68AE697E40E94DB
:100E300061460E94DA46EEE3F8E026EA39E0C08235
:100E4000D182E282F38264837583868397831086DE
:100E50001186128613863C962E173F0781F7C4E051
:100E6000D0E0D093D906C093D80680917D06982F04
:100E70009D7F79F40E94881D6093D4067093D506F7
:100E80008093D6069093D706D0933D08C0933C0834
:100E9000F4C4813009F071C10E94881D6093D406AA
:100EA0007093D5068093D6069093D70685E090E0A0
:100EB00066C18091D8069091D906049731F40E94BA
:100EC000CF0310923308109232086091A0067091FF
:100ED000A1068091A2069091A3060E940B476B0188
:100EE0007C016091A4067091A5068091A606909160
:100EF000A7060E940B4720E030E0A9010E94F045C0
:100F00009B01AC01C701B6010E945C4687FF9DC2F0
:100F10000E94881D0091C8061091C9062091CA063A
:100F20003091CB06601771078207930708F08DC2D6
:100F300060913E0C70913F0C80E090E00E94094768
:100F40009B01AC01609174077091750780917607E1
:100F5000909177070E945C4687FDB9C276C2809166
:100F6000D8069091D906049731F40E94CF031092CD
:100F70003108109230080E94881D0091C806109117
:100F8000C9062091CA063091CB0660177107820707
:100F9000930708F06DC38091A0069091A106A091DF
:100FA000A206B091A30680389C40A105B1050CF4BF
:100FB0003CC35EC34091A4065091A5066091A6066D
:100FC0007091A7068091A8069091A906A091AA0603
:100FD000B091AB06840F951FA61FB71F4091A006C6
:100FE0005091A1066091A2067091A30684179507FF
:100FF000A607B707A4F46FEC77EF83ED9FEB0E9491
:101000005216DF91CF911F910F91FF90EF90DF90DB
:10101000CF90BF90AF909F908F900C94570360E05B
:1010200070E0CB010E945216A1C08091D806909129
:10103000D906019709F04CC0C090B806D090B90607
:10104000E090BA06F090BB0620E030E048EC52E4B5
:10105000C701B6010E94BB47181634F4C12CD12C2D
:1010600088ECE82E82E4F82E2DEC3CEC4CE45EE3B8
:1010700060918706709188068091890690918A0612
:101080000E94EF454B015C0120E030E040E251E47A
:10109000C701B6010E9461469B01AC01C501B401C4
:1010A0000E94614660938B0670938C0680938D0638
:1010B00090938E0682E090E09093D9068093D806B4
:1010C0001092A8061092A9061092AA061092AB06DA
:1010D0000E94881D0091CC061091CD062091CE066D
:1010E0003091CF06601771078207930740F50E9481
:1010F000881D00912C0810912D0820912E08309108
:101100002F08DC01CB01801B910BA20BB30B0A97BC
:10111000A105B10508F4B1C3C0908706D090880638
:10112000E0908906F0908A0620E030E0A901C7012E
:10113000B6010E94BB4718160CF441C39EC360E081
:1011400070E0CB010E9452160E94BD1460933408D7
:101150007093350880933608909337086093E006C3
:101160007093E1068093E2069093E30682E090E0BC
:1011700006C082E196E00E94431681E090E09093E1
:101180003D0880933C0879C381E08093DB06209181
:1011900034083091350840913608509137086091F5
:1011A000E0067091E1068091E2069091E3060E94CC
:1011B000EF456B017C0120E030E0A9010E94BB47B4
:1011C00018165CF420E030E048E452E4C701B601B0
:1011D0000E94BB4718165CF013C020E030E048E4E2
:1011E00052ECC701B6010E945C4687FF09C000E0CF
:1011F00010E028E432E4B701A60187E00E949813CA
:101200000E94881D0091D4061091D5062091D60623
:101210003091D7066B017C01C01AD10AE20AF30AA9
:101220008090340890903508A0903608B090370828
:101230002091800730918107409182075091830768
:10124000609178077091790780917A0790917B0778
:101250000E94EF459B01AC01C501B4010E946146AB
:10126000609338087093390880933A0890933B084C
:10127000AAE9B9E0CEE3D8E0AD014C5051092CE029
:10128000FA0101900D922A95E1F7DA0148E0AE33B8
:10129000B40791F7C0924208D0924308E092440804
:1012A000F092450880923E0890923F08A092400834
:1012B000B0924108609346087093470880934808AD
:1012C000909349080E943E146093700770937107D1
:1012D000809372079093730780913408909135083A
:1012E000A0913608B09137088093840790938507C2
:1012F000A0938607B09387070E943E140E94DA46A7
:10130000C62E0EE318E0E12CF12C60E070E0CB017A
:10131000D12CEC14FD0468F4F80120813181428164
:1013200053810E94F045FFEFEF1AFF0A045F1F4F41
:10133000F0CF00E010E09801CC80DD80EE80FF80EF
:101340000C0D1D1D2E1D3F1D01364AEE14072105F3
:10135000310538F42C96E9E0C63ADE0769F7C0E0BB
:1013600001C0C1E020E030E04AE754E40E94614659
:101370006B017C016091440C7091450C80E090E021
:101380000E9409474B015C019B01AC01C701B601FA
:101390000E94BB47181664F4CC2351F095018401D8
:1013A000B701A60183E00E94981383E096E01DC078
:1013B0006091460C7091470C80E090E00E940947D4
:1013C0004B015C019B01AC01C701B6010E945C4668
:1013D00087FF0DC0CC2359F095018401B701A60108
:1013E00084E00E9498138BE096E00E944316C0921E
:1013F0008807D0928907E0928A07F0928B07809144
:10140000380890913908A0913A08B0913B08809330
:101410008C0790938D07A0938E07B0938F070E943F
:10142000881D6093D4067093D5068093D60690935A
:10143000D70680917D06982F9D7F19F484E090E077
:101440009ECE813009F099CE31CDC0907407D090F6
:101450007507E0907607F090770760913E0C7091E9
:101460003F0C80E090E00E9409474B015C019B012A
:10147000AC01C701B6010E94BB47181644F49501A0
:101480008401B701A60181E00E9498131DC00E944B
:10149000881D0091C8061091C9062091CA06309196
:1014A000CB06601771078207930770F48091A0063E
:1014B0009091A106A091A206B091A3068436910551
:1014C000A105B1050CF4F2C087E090E058CE0E946F
:1014D000570380913208909133088130910509F0CB
:1014E00052C06091A0067091A1068091A2069091D1
:1014F000A3060E940B476B017C016091A4067091CA
:10150000A5068091A6069091A7060E940B4723E3AB
:1015100033E343E75FE30E94C0479B01AC01C7018F
:10152000B6010E945C4687FD07C082E090E0909380
:1015300033088093320811C084ED98E7A9EBBFE32C
:1015400004C085E496EBABEFBFE3809387069093EE
:101550008806A0938906B0938A06609187067091E9
:1015600088068091890690918A06DF91CF911F911C
:101570000F91FF90EF90DF90CF90BF90AF909F9032
:101580008F900C9452168130910538F56091A00629
:101590007091A1068091A2069091A3060E940B472C
:1015A0006B017C016091A4067091A5068091A6064E
:1015B0009091A7060E940B4723E333E343E35FE3E5
:1015C0000E94C0479B01AC01C701B6010E945C4666
:1015D00087FDB7CF81E090E0AACF029709F0BDCF99
:1015E0006091A0067091A1068091A2069091A30639
:1015F0000E940B476B017C016091A4067091A506C7
:101600008091A6069091A7060E940B4723E333E33F
:1016100043E75FE30E94C0479B01AC01C701B601ED
:101620000E945C4687FD99CF1EC0809174079091FF
:101630007507A0917607B0917707809393069093F2
:101640009406A0939506B09396060E945703809146
:101650003008909131088130910581F108F451C032
:10166000029709F07ACF8AE999E9A9E1BFE36DCF42
:101670000E94881D0091C8061091C9062091CA06D3
:101680003091CB06061717072807390708F058C00E
:101690008091A0069091A106A091A206B091A30608
:1016A00084369105A105B1050CF04AC084E00E9482
:1016B0008B1310923D0810923C08DFC023E333E304
:1016C00043E75FE360918F067091900680919106E9
:1016D000909192060E94C0479B01AC0160919306D5
:1016E0007091940680919506909196060E945C46B2
:1016F00087FD22CF82E090E09093310880933008FC
:101700002CCF23E333E343E35FE360918F067091D3
:10171000900680919106909192060E94C0479B018D
:10172000AC0160919306709194068091950690911A
:1017300096060E945C4687FD04CF81E090E0DCCFF6
:1017400080919B06811116C060913C0C70913D0CFC
:1017500080E090E00E9409478B019C01409178074E
:101760005091790760917A0770917B0782E00E941F
:10177000981302C010929B060E94BD146093340817
:101780007093350880933608909337086093E0068D
:101790007093E1068093E2069093E3066DEC7CEC97
:1017A0008CE49EE30E94521682E090E090933D0804
:1017B00080933C089093D9068093D8065EC0209110
:1017C0008B0630918C0640918D0650918E06C70194
:1017D000B6010E94EF456B017C012DEC3CEC4CE422
:1017E0005EE30E945C4687FF3FC08DEC9CECACE45E
:1017F000BEE38093870690938806A0938906B093F2
:101800008A060E9457034091A8065091A90660914C
:10181000AA067091AB0680919C0690919D06A091BE
:101820009E06B0919F06840F951FA61FB71F809339
:10183000A8069093A906A093AA06B093AB06609160
:101840008706709188068091890690918A060E9489
:1018500052160E94881D60932C0870932D08809367
:101860002E0890932F0809C0C0928706D092880650
:10187000E0928906F0928A06C4CFDF91CF911F9142
:101880000F91FF90EF90DF90CF90BF90AF909F901F
:101890008F900895DC01ED91FC910684F785E02D91
:1018A00040E019940F931F93CF93DF93EC014230E4
:1018B00018F08C8188608C834F836887222329F0FD
:1018C000413019F48C8184608C830E94CB156C812B
:1018D00064FD31C0E881F9810684F785E02D42E09E
:1018E00063E0CE0119958BE496E40197F1F7E88166
:1018F000F9810684F785E02D42E063E0CE01199579
:1019000003E512E0C8010197F1F7E881F981068447
:10191000F785E02D42E063E0CE011995C8010197FB
:10192000F1F7E881F9810684F785E02D42E062E075
:10193000CE01199517C06062CE010E944A0C8BE45B
:1019400096E40197F1F76C816062CE010E944A0C27
:1019500003E512E0C8010197F1F76C816062CE01E6
:101960000E944A0CC8010197F1F76C816062CE01B8
:101970000E944A0C8BEE90E00197F1F784E08D8392
:101980006CE0CE010E944A0C61E0CE010E944A0C3C
:101990008BE39FE10197F1F782E08E8366E0CE0151
:1019A0000E944A0CE881F9810484F585E02D6FEFEF
:1019B000CE01DF91CF911F910F9119940895CF928D
:1019C000DF92EF92FF920F931F93CF93DF936C01FF
:1019D0007A018B01C0E0D0E0CE15DF0581F0D8019F
:1019E0006D918D01D601ED91FC910190F081E02D7A
:1019F000C6011995892B11F02196EECF7E01C70102
:101A0000DF91CF911F910F91FF90EF90DF90CF90DA
:101A10000895FC01538D448D252F30E0842F90E0F4
:101A2000821B930B541710F0CF96089501970895D9
:101A3000FC01918D828D981761F0828DDF01A80FD6
:101A4000B11D5D968C91928D9F5F9F73928F90E0F8
:101A500008958FEF9FEF0895FC01918D828D981767
:101A600031F0828DE80FF11D858D90E008958FEFA4
:101A70009FEF0895FC01918D228D892F90E0805C6D
:101A80009F4F821B91098F739927089583E59BE0EF
:101A90000E943A0D21E0892B09F420E0822F08955D
:101AA000FC01848DDF01A80FB11DA35ABF4F2C91FB
:101AB000848D90E001968F739927848FA689B789CA
:101AC0002C93A089B1898C91837080648C93938DC1
:101AD000848D981306C00288F389E02D80818F7D64
:101AE00080830895EF92FF920F931F93CF93DF931C
:101AF000EC0181E0888F9B8D8C8D981305C0E8895F
:101B0000F989808185FD26C0F62E0B8D10E00F5FD0
:101B10001F4F0F731127E02E8C8DE8120CC00FB6EB
:101B200007FCFACFE889F989808185FFF5CFCE01DE
:101B30000E94500DF1CF8B8DFE01E80FF11DE35A8D
:101B4000FF4FF0829FB7F8940B8FEA89FB89808161
:101B500080620AC09FB7F894EE89FF896083E889A4
:101B6000F98980818370806480839FBF81E090E0E9
:101B7000DF91CF911F910F91FF90EF900895CF9338
:101B8000DF93EC01888D8823C9F0EA89FB89808185
:101B900085FD05C0A889B9898C9186FD0FC00FB657
:101BA00007FCF5CF808185FFF2CFA889B9898C9198
:101BB00085FFEDCFCE010E94500DE7CFDF91CF9191
:101BC00008950E94460D811125C080E090E0892B88
:101BD00041F080E090E0892B21F00E94000081110B
:101BE0001CC080E090E0892B41F080E090E0892BE0
:101BF00021F00E940000811113C080E090E0892B49
:101C0000A1F080E090E0892B81F00E94000081111A
:101C10000AC008950E94C304D8CF0E940000E1CFFB
:101C20000E940000EACF0C940000089585ED809397
:101C3000BC008091BC0084FDFCCF10922D0B089558
:101C40004091090B262F30E0240F311D2132310540
:101C5000DCF420912D0B2430C9F4FC0180E090E0ED
:101C6000861758F43091090B2191DC01A751B54F2B
:101C7000A30FB11D2C930196F3CF8091090B680F30
:101C80006093090B80E0089581E0089582E0089553
:101C900008958FEF9FEF08958FEF9FEF0895809144
:101CA000E80A90E09195819591090895CF93DF938B
:101CB000CB01EA01642F0E94200ECE01DF91CF916B
:101CC0000895CF93DF931F92CDB7DEB7698361E0AC
:101CD000CE0101960E94200E81E090E00F90DF91EE
:101CE000CF9108950E9432481F920F920FB60F9223
:101CF00011240BB60F922F933F934F935F936F93E3
:101D00007F938F939F93AF93BF93EF93FF93E09154
:101D10001202F09113021995FF91EF91BF91AF91CB
:101D20009F918F917F916F915F914F913F912F91F3
:101D30000F900BBE0F900FBE0F901F9018951F9223
:101D40000F920FB60F9211240BB60F922F933F9361
:101D50004F935F936F937F938F939F93AF93BF93B3
:101D6000EF93FF93E0911002F09111021995FF910A
:101D7000EF91BF91AF919F918F917F916F915F9103
:101D80004F913F912F910F900BBE0F900FBE0F9070
:101D90001F9018951F920F920FB60F9211240BB639
:101DA0000F922F933F934F935F936F937F938F93F4
:101DB0009F93AF93BF93EF93FF93E0910602F0914F
:101DC00007021995FF91EF91BF91AF919F918F916C
:101DD0007F916F915F914F913F912F910F900BBE2B
:101DE0000F900FBE0F901F9018951F920F920FB675
:101DF0000F9211240BB60F922F933F934F935F9343
:101E00006F937F938F939F93AF93BF93EF93FF93C2
:101E1000E0910402F09105021995FF91EF91BF91B5
:101E2000AF919F918F917F916F915F914F913F9172
:101E30002F910F900BBE0F900FBE0F901F90189513
:101E40001F920F920FB60F9211240BB60F922F9381
:101E50003F934F935F936F937F938F939F93AF9332
:101E6000BF93EF93FF93E0910E02F0910F0219954B
:101E7000FF91EF91BF91AF919F918F917F916F9162
:101E80005F914F913F912F910F900BBE0F900FBE1E
:101E90000F901F9018951F920F920FB60F9211245A
:101EA0000BB60F922F933F934F935F936F937F9354
:101EB0008F939F93AF93BF93EF93FF93E0910C02A7
:101EC000F0910D021995FF91EF91BF91AF919F9104
:101ED0008F917F916F915F914F913F912F910F90D3
:101EE0000BBE0F900FBE0F901F9018951F920F9270
:101EF0000FB60F9211240BB60F922F933F934F936F
:101F00005F936F937F938F939F93AF93BF93EF9361
:101F1000FF93E0910A02F0910B021995FF91EF9166
:101F2000BF91AF919F918F917F916F915F914F91F1
:101F30003F912F910F900BBE0F900FBE0F901F90EF
:101F400018951F920F920FB60F9211240BB60F9295
:101F50002F933F934F935F936F937F938F939F93B1
:101F6000AF93BF93EF93FF93E0910802F0910902C2
:101F70001995FF91EF91BF91AF919F918F917F91B3
:101F80006F915F914F913F912F910F900BBE0F90EA
:101F90000FBE0F901F9018951F920F920FB60F92C1
:101FA00011240BB60F922F933F934F935F936F9330
:101FB0007F938F939F93AF93BF93EF93FF93809102
:101FC000620C9091630CA091640CB091650C892B0C
:101FD0008A2B8B2B59F190915F0CE091600CF09162
:101FE000610C8081892780838091620C9091630CC1
:101FF000A091640CB091650C181619061A061B0600
:102000000CF056C08091620C9091630CA091640C0E
:10201000B091650C0197A109B1098093620C90936E
:10202000630CA093640CB093650C42C080911402C1
:10203000E0ECF5E0E4919FEF90931402E230C9F0F8
:1020400050F4EE2399F0E13081F590916F009D7F7F
:1020500090936F002AC0E43019F1E0F0E53029F5E3
:10206000909173009D7F909373001FC010926E003B
:102070001CC0909170009D7F9093700091E09093B0
:10208000B0009091B100987F94609093B10010924D
:10209000B3000BC0909171009D7F9093710005C0BB
:1020A000909172009D7F9093720060E00E9485196C
:1020B000FF91EF91BF91AF919F918F917F916F9120
:1020C0005F914F913F912F910F900BBE0F900FBEDC
:1020D0000F901F9018956115710579F0FB01019023
:1020E0000020E9F73197AF01461B570BDC01ED915A
:1020F000FC910280F381E02D199480E090E0089536
:102100000C946B101F920F920FB60F9211240BB606
:102110000F922F933F934F935F936F937F938F9380
:102120009F93AF93BF93EF93FF9383E59BE00E9450
:10213000500DFF91EF91BF91AF919F918F917F9142
:102140006F915F914F913F912F910F900BBE0F9028
:102150000FBE0F901F9018951F920F920FB60F92FF
:1021600011240BB60F922F938F939F93EF93FF93AE
:10217000E091630BF091640B8081E091690BF09129
:102180006A0B82FD12C0908180916C0B8F5F8F7300
:1021900020916D0B821751F0E0916C0BF0E0ED5A3D
:1021A000F44F958F80936C0B01C08081FF91EF916C
:1021B0009F918F912F910F900BBE0F900FBE0F909C
:1021C0001F9018951F920F920FB60F9211240BB605
:1021D0000F922F933F934F935F936F937F938F93C0
:1021E0009F93AF93BF93EF93FF938091B900887F44
:1021F000803609F49CC068F5883209F45BC090F41D
:10220000803109F454C038F4882309F4F2C08830CE
:1022100009F44DC0F2C0883109F44CC0803209F491
:102220005DC0EBC0803409F468C048F4803309F421
:1022300055C0883309F0E1C080932C0BD4C08035A1
:1022400009F44FC0883509F45DC0883409F0D5C061
:10225000D2C0883909F4C3C0A8F4883709F467C02C
:1022600038F4883609F463C0803709F460C0C5C00B
:10227000883809F4B4C0803909F45FC0803809F0A7
:10228000BCC05BC0803B09F484C038F4803A09F4D8
:1022900066C0883A09F47DC0B0C0803C09F4A3C090
:1022A000883C09F4A0C0883B09F486C0A6C0809190
:1022B000520B10C09091510B8091500B981770F5F4
:1022C000E091510B81E08E0F8093510BF0E0E05DC7
:1022D000F44F80818093BB0085EC82C080932C0BEF
:1022E0008AC0E091510B81E08E0F8093510B809159
:1022F000BB00F0E0E05DF44F80839091510B809142
:10230000500B6AC0E091510B81E08E0F8093510B0E
:102310008091BB00F0E0E05DF44F808380912F0B53
:10232000811169C081E080932E0B84EA5DC083E057
:1023300080932D0B10922B0BCFCF80912B0B8032E3
:1023400008F04DC0E0912B0B81E08E0F80932B0B9A
:102350008091BB00F0E0E55FF44F8083BDCF85EC5A
:102360008093BC0010922D0B80912B0B803230F4A7
:10237000E0912B0BF0E0E55FF44F108260912B0BA6
:1023800070E08BE09BE0E0E0F0E0199510922B0B01
:1023900034C084E080932D0B10920A0B1092090B2D
:1023A000E0E0F0E019958091090B811105C081E012
:1023B0008093090B1092E90AE0910A0B81E08E0FDD
:1023C00080930A0BF0E0E751F54F80818093BB00CA
:1023D00090910A0B8091090B981708F47DCF85E83E
:1023E0008093BC000AC085EC8093BC0010922D0B3A
:1023F00004C010922C0B0E94160EFF91EF91BF911A
:10240000AF919F918F917F916F915F914F913F918C
:102410002F910F900BBE0F900FBE0F901F9018952D
:102420000E94881D6093E40A7093E50A8093E60A8F
:102430009093E70A80E00895CF92DF92EF92FF92A7
:102440000F931F93611571058105910541F41F914B
:102450000F91FF90EF90DF90CF900C9410126B01D2
:102460007C010E94881D0091E40A1091E50A2091E8
:10247000E60A3091E70ADC01CB01801B910BA20B2D
:10248000B30B21E0C816D906EA06FB0608F020E0E7
:10249000822F1F910F91FF90EF90DF90CF900895C2
:1024A0008F929F92AF92BF92EF92FF920F931F93E2
:1024B000CF93DF93C82FD0E08E01000F111F065875
:1024C000154FF801208131812115310521F021308E
:1024D0003105A1F16FC00E945C19009719F00197B6
:1024E000A1F16BC00E94881D9E01220F331F220F95
:1024F000331FA9014A55564F7A01FA018080918015
:10250000A280B380DC01CB0188199909AA09BB0913
:102510004597A105B10508F450C081E090E0F801AD
:1025200091838083C95CD84F88830E94881DF701FE
:10253000608371838283938381E040C00E945C1931
:10254000009719F0019771F038C00E94881DCC0FD8
:10255000DD1FCC0FDD1FCA55D64F688379838A8370
:102560009B832BC00E94881D9E01220F331F220FC8
:10257000331FA9014A55564F7A01FA018080918094
:10258000A280B380DC01CB0188199909AA09BB0993
:102590000697A105B10588F0F80111821082C95C87
:1025A000D84F18820E94881DF7016083718382834F
:1025B000938303C0F8011182108280E0DF91CF91F4
:1025C0001F910F91FF90EF90BF90AF909F908F90D1
:1025D000089561E080EF9BE00E944A0C8BE39FE14D
:1025E0000197F1F70895CF92DF92EF92FF920F9348
:1025F0001F93CF93DF93CDB7DEB728970FB6F8942C
:10260000DEBF0FBECDBF8A01C090EC02D090ED02BC
:10261000E090EE02F090EF02CD82DE82EF82F8864B
:10262000C090F002D090F102E090F202F090F3023C
:10263000C982DA82EB82FC829091F70B691710F065
:102640006FEF690F4091F80B262F30E0FE01E20F8B
:10265000F31F403121F4943011F4618101C0658190
:10266000680F606880EF9BE00E944A0CB80180EF21
:102670009BE028960FB6F894DEBF0FBECDBFDF916A
:10268000CF911F910F91FF90EF90DF90CF900C941E
:102690008010E4EEF6E080E0938191118F5F39962F
:1026A00097E0EC32F907C1F70895382F21E049E0AF
:1026B000932F920F892F8770489FF0011124EC51BE
:1026C000F94F9381911103C02F5F293089F7089545
:1026D00080912F0781110AC0E0E3F7E08191811119
:1026E00007C097E0E733F907C9F7089510922F075D
:1026F00008958091E60681110BC0E4EEF6E0838137
:10270000811108C0399697E0EC32F907C1F70895B6
:102710001092E60608959091E406992341F091E025
:1027200090932F07E82FF0E0E05DF84F9083089535
:102730008F929F92AF92BF92CF92DF92EF92FF92D1
:102740000F931F93CF93DF939091E406992381F128
:10275000680179014A015B01C82FD1E0D093E606F8
:10276000682F70E080E090E04AE00E94471789E01F
:102770000E948A1742E0C501B4010E94E51789E072
:102780000E948A1742E0C701B6010E94E5170E9425
:102790003D1689E0C89FF0011124EC51F94FD38315
:1027A00084829582A682B782C086D186E286F3862D
:1027B000DF91CF911F910F91FF90EF90DF90CF901D
:1027C000BF90AF909F908F90089520E042E060E12D
:1027D00080EF9BE00E94520C62E080EF9BE00E9441
:1027E0004A0C8BE39FE10197F1F70E94E91245E261
:1027F00056E060E080E00E94F31246E356E061E0BC
:1028000080E00E94F31261E082E30E94B41961E06B
:1028100087E00E94B41981E08093E40680914B0C1C
:10282000811108C044EF51E060E070E084EF91E076
:102830000E94F01910926F0710926E0710926D07A8
:1028400010926C0762E08CE20E94B41962E08AE2A6
:102850000E94B41962E088E20E94B41962E086E244
:102860000E94B41962E08EE20E94B41962E080E333
:102870000E94B4190E9410120C94E318CF92DF92B8
:10288000EF92FF920F931F93CF93DF93EEE3F8E065
:1028900060E070E080E090E0DC0104811581268139
:1028A0003781800F911FA21FB31F6F5F7F4F81364B
:1028B0002AEE9207A105B10540F080E090E00E9469
:1028C00009476B017C01D1E008C03C966E3171056F
:1028D00021F7D0E0C12CD12C7601C0913A0C6C2F9D
:1028E00070E080E090E00E940B479B01AC01C701C3
:1028F000B6010E94BB47181694F4DD2381F06C2FBB
:1029000070E080E090E00E9409478B019C01B701D4
:10291000A60185E00E94981387E496E021C0C0914B
:102920003B0C6C2F70E080E090E00E940B479B0115
:10293000AC01C701B6010E945C4687FF13C0DD23CE
:1029400089F06C2F70E080E090E00E9409478B01D5
:102950009C01B701A60186E00E94981380E596E0ED
:102960000E944316C701B601DF91CF911F910F91CD
:10297000FF90EF90DF90CF9008952F923F924F926B
:102980005F926F927F928F929F92AF92BF92CF92FF
:10299000DF92EF92FF92CF93DF93CDB7DEB7289708
:1029A0000FB6F894DEBF0FBECDBF2090A0063090CA
:1029B000A1064090A2065090A306E4E2F3E0612C49
:1029C000712C219131914191519129833A834B830B
:1029D0005C8322163306440655060CF052C0C30130
:1029E0000197880F991F880F991FFC01EC50FD4F2C
:1029F000C080D180E280F380FC01EC5DFC4F6081FF
:102A00007181828193810E940B474B015C01F3012C
:102A1000EE0FFF1FEE0FFF1FEC50FD4FA7019601B9
:102A200060817181828193810E94EF456D837E83F5
:102A30008F839887C201B1010E940B47A5019401C1
:102A40000E94EF459B01AC016D817E818F8198854D
:102A50000E94C0472B013C0169817A818B819C8156
:102A60000E940B47A50194010E94EF459B01AC0118
:102A7000C301B2010E946146A70196010E94F04580
:102A800008C03FEF631A730A4CE06416710409F042
:102A900098CF28960FB6F894DEBF0FBECDBFDF915A
:102AA000CF91FF90EF90DF90CF90BF90AF909F902D
:102AB0008F907F906F905F904F903F902F900895F0
:102AC0008091330C882309F465C08091D8069091D9
:102AD000D906892B11F01092330C6091390C70E0FB
:102AE00080E090E00E9409476093690670936A064F
:102AF00080936B0690936C066091420C7091430C2E
:102B000080E090E00E94094760937106709372061E
:102B100080937306909374066091370C70E080E0A8
:102B200090E00E94094720E030E048EC52E40E9427
:102B3000614660937506709376068093770690934E
:102B400078066091380C70E080E090E00E940947C0
:102B500020E030E048EC52E40E9461466093790640
:102B600070937A0680937B0690937C0660913C0C70
:102B700070913D0C80E090E00E94094760938F06C1
:102B80007093900680939106909392068091360CF4
:102B900080937D0608958F929F92AF92BF92CF92BD
:102BA000DF92EF92FF920E94631D4B015C0184E66D
:102BB000C82ED12CE12CF12C0E94631DDC01CB012D
:102BC00088199909AA09BB09883E9340A105B10556
:102BD00098F321E0C21AD108E108F10888EE880EC6
:102BE00083E0981EA11CB11CC114D104E104F104BE
:102BF00019F7FF90EF90DF90CF90BF90AF909F902C
:102C00008F900895AF92BF92CF92DF92EF92FF9292
:102C10000F931F93CF93DF938C015C018EE0A80E7E
:102C2000B11CC42ED12CC0E0D0E0E62EF12CCC1586
:102C3000DD0579F0B7010C2E02C0759567950A94F1
:102C4000E2F76170F50181915F010E94851921967B
:102C5000EECF61E0F80185850E94851960E0F801FA
:102C60008585DF91CF911F910F91FF90EF90DF90BD
:102C7000CF90BF90AF900C94851968E576E083E51E
:102C80009BE00C946B10CF93DF93BC0183E59BE03A
:102C90000E946B10EC010E943D168C0F9D1FDF916E
:102CA000CF910895CF92DF92EF92FF92CF93DF936F
:102CB0006B017C0120E030E0A9010E945C4687FFA7
:102CC00006C0F7FAF094F7F8F09461E001C060E014
:102CD00084E00E94851921EE3AE744E050E4C70100
:102CE000B6010E94614620E030E04FE753E40E94C5
:102CF000C0470E94D3466B017C01EB0161E085E097
:102D00000E94B419209711F460E004C0CF3FD105B0
:102D100051F461E085E0DF91CF91FF90EF90DF907B
:102D2000CF900C948519E5EAF4E0E4918E2F90E0C1
:102D3000FC013197E231F10508F09DC08827EB5482
:102D4000FF4F8F4F0C94B94584B5806884BDC7BCD4
:102D500097C084B5806284BDC8BC92C08091800059
:102D6000806880938000D0928900C092880088C0DB
:102D700080918000806280938000D0928B00C0920E
:102D80008A007EC080918000886080938000D0920D
:102D90008D00C0928C0074C08091B00080688093D8
:102DA000B000C092B3006CC08091B000806280938C
:102DB000B000C092B40064C080919000806880939D
:102DC0009000D0929900C09298005AC080919000D3
:102DD000806280939000D0929B00C0929A0050C075
:102DE00080919000886080939000D0929D00C09266
:102DF0009C0046C08091A00080688093A0008091D4
:102E0000A0008F7B8093A000D092A900C092A80060
:102E100037C08091A00080628093A000D092AB0068
:102E2000C092AA002DC08091A00088608093A0006D
:102E3000D092AD00C092AC0023C080912001806888
:102E400080932001D0922901C092280119C080915D
:102E50002001806280932001D0922B01C0922A0130
:102E60000FC080912001886080932001D0922D01B5
:102E7000C0922C0105C0C038D1050CF04ACF44CF18
:102E8000DF91CF91FF90EF90DF90CF9008958F92D8
:102E90009F92AF92BF920F931F93CF93DF93CDB7C3
:102EA000DEB7A1970FB6F894DEBF0FBECDBF19A253
:102EB000423008F44AE08E010F5D1F4F842E912CA2
:102EC000A12CB12CA50194010E947845E62FB901EF
:102ED000CA0101501109EA3014F4E05D01C0E95C57
:102EE000D801EC93232B242B252B61F7B80183E524
:102EF0009BE00E946B10A1960FB6F894DEBF0FBE48
:102F0000CDBFDF91CF911F910F91BF90AF909F9058
:102F10008F900895682F83E59BE00C94720D90E0EC
:102F2000FC013197E231F10508F04EC08827E953E2
:102F3000FF4F8F4F0C94B945809180008F7703C06D
:102F4000809180008F7D8093800008958091800023
:102F5000877FF9CF84B58F7702C084B58F7D84BD1C
:102F600008958091B0008F7703C08091B0008F7D6D
:102F70008093B0000895809190008F7707C0809172
:102F800090008F7D03C080919000877F8093900098
:102F900008958091A0008F7707C08091A0008F7D59
:102FA00003C08091A000877F8093A0000895809146
:102FB00020018F7707C0809120018F7D03C0809111
:102FC0002001877F8093200108958F929F92AF9276
:102FD000BF92CF92DF92EF92FF920F931F93CF9306
:102FE000DF936B017C01142F9B01AC010E942D48E3
:102FF000882319F06BE576E027C046015701E89475
:10300000B7F82FEF3FEF4FE75FE7C501B4010E942C
:103010002D4881110DC02FEF3FEF4FE75FE7C5014E
:10302000B4010E945C4618161CF46FE576E00CC0F3
:103030002FEF3FEF4FE75FE4C701B6010E94BB47A8
:10304000181694F463E676E083E59BE0DF91CF9178
:103050001F910F91FF90EF90DF90CF90BF90AF90B6
:103060009F908F900C946B102FEF3FEF4FE75FEC2A
:10307000C701B6010E945C4687FDE4CF20E030E046
:10308000A901C701B6010E945C4687FF09C08DE215
:103090000E948A17EC01F7FAF094F7F8F09402C056
:1030A000C0E0D0E000E060E070E080E09FE3101757
:1030B00041F020E030E040E251E40E9461460F5FC1
:1030C000F6CFA70196010E94F0456B017C010E949A
:1030D000DA464B015C014AE00E944717C80FD91F2E
:1030E0001123A9F1C501B4010E9409479B01AC015C
:1030F000C701B6010E94EF456B017C018EE20E9480
:103100008A17C80FD91F20E030E040E251E4C70120
:10311000B6010E94C0474B015C010E94DA466B0178
:10312000E12CF12C4AE0C701B6010E944717C80FF5
:10313000D91FC701B6010E9409479B01AC01C50117
:10314000B4010E94EF456B017C011150E1F6CE0104
:10315000DF91CF911F910F91FF90EF90DF90CF9073
:10316000BF90AF909F908F900895CF92DF92EF9293
:10317000FF92CF93DF936C01990FEE08FF08F7FEE3
:1031800017C08DE20E948A17EC0166277727CB01D2
:103190006C197D098E099F094AE00E9447178C0F20
:1031A0009D1FDF91CF91FF90EF90DF90CF9008951A
:1031B0004AE0C701B601DF91CF91FF90EF90DF9019
:1031C000CF900C944717BF92CF92DF92EF92FF926D
:1031D0000F931F93CF93DF93E9E4FCE082E0B82ED6
:1031E000B382C4EFD1E0D08BC7876EE070E0728B02
:1031F000618B42E050E0548B438BBEE0B6839EE18E
:10320000978387E0808729E1C22EC4823AE0D32EDB
:10321000D582AEE1EA2EF12CF486E3860AE010E0D6
:1032200016870587AEEFA58B24E130E03287218732
:10323000E3E3FCE0B382C482D582F486E38616879A
:103240000587B683D08BC787A58B728B618B548B18
:10325000438B3287218797838087DF91CF911F919E
:103260000F91FF90EF90DF90CF90BF900895CF9295
:10327000DF92EF92FF920F93CF93DF936B017A016E
:10328000E901AC0160E080E00E94F312A60160E079
:1032900088E00E94F312A70161E084E00E94F3122B
:1032A000AE0161E0802FDF91CF910F91FF90EF9001
:1032B000DF90CF900C94F312CF93DF93282F30E060
:1032C000F901E056FB4F8491F901EA51FB4FD4918B
:1032D000F901EA5BFA4FC491CC2391F081110E946D
:1032E0008F17EC2FF0E0EE0FFF1FE45DFA4FA59172
:1032F000B491EC91ED2381E090E021F480E002C0F4
:1033000080E090E0DF91CF9108951F93CF93DF93FA
:10331000282F30E0F901E056FB4F8491F901EA5182
:10332000FB4FD491F901EA5BFA4FC491CC23C1F071
:10333000162F81110E948F17EC2FF0E0EE0FFF1F68
:10334000EA55FA4FA591B4919FB7F894111104C0B2
:103350008C91D095D82302C0EC91DE2BDC939FBFDB
:10336000DF91CF911F910895CF93DF9390E0FC01FF
:10337000EA51FB4F2491FC01EA5BFA4F84918823C8
:1033800061F190E0880F991FFC01E457FA4FC59155
:10339000D491FC01EA55FA4FA591B491611109C08D
:1033A0009FB7F8948881209582238883EC912E23FF
:1033B0000BC0623061F49FB7F8948881322F30954A
:1033C00083238883EC912E2B2C939FBF06C08FB74D
:1033D000F894E8812E2B28838FBFDF91CF91089539
:1033E0004F925F926F927F928F929F92AF92BF9215
:1033F000CF92DF92EF92FF920F931F93CF93DF93C1
:1034000000D01F921F92CDB7DEB78C012A013B017D
:1034100080911402873021F08F3F09F01FC305C04F
:10342000E0ECF5E024912D83D9C087E0809314026D
:10343000E0ECF5E084918D838F3F09F40FC3823077
:1034400009F468C028F5882309F44BC0813009F0DD
:10345000C5C0109280001092810080918100886028
:103460008093810080918100816080938100EDE4F0
:10347000F5E0E491F0E0EE0FFF1FEA55FA4F859179
:103480009491EDEEF4E0E491E093690C21E0A4C0A6
:103490009D81943009F482C008F460C0953009F031
:1034A0009DC010922001109221018091210188601D
:1034B0008093210180912101816080932101EDE4BD
:1034C000F5E0E491F0E0EE0FFF1FEA55FA4F859129
:1034D0009491EDEEF4E0E491E093660C85E08D8349
:1034E00007C114BC15BC84B5826084BD85B58160FC
:1034F00085BDEDE4F5E0E491F0E0EE0FFF1FEA5545
:10350000FA4F85919491EDEEF4E0E491E0936A0C2A
:103510001D829FC21092B0001092B1008091B00045
:1035200082608093B0008091B10081608093B1008F
:10353000EDE4F5E0E491F0E0EE0FFF1FEA55FA4FFD
:10354000859194919093610C8093600CEDEEF4E082
:10355000E491E0935F0C82E08D837BC21092900037
:1035600010929100809191008860809391008091E9
:103570009100816080939100EDE4F5E0E491F0E04A
:10358000EE0FFF1FEA55FA4F85919491EDEEF4E0AE
:10359000E491E093680C93E09D83AAC01092A00090
:1035A0001092A1008091A10088608093A100809179
:1035B000A10081608093A100EDE4F5E0E491F0E0EA
:1035C000EE0FFF1FEA55FA4F85919491EDEEF4E06E
:1035D000E491E093670C24E02D838AC09D8197FDE0
:1035E0003DC261E087E00E94B4198D818D7F09F0B2
:1035F00083C04801A12CB12C60E072E18AE790E021
:10360000A50194010E949A4529833A834B835C83E8
:1036100069017A0121E0C21AD108E108F1088FEFAF
:10362000C816D104E104F10409F008F44EC060E4C6
:1036300072E48FE090E0A50194010E949A4569012F
:103640007A0191E0C91AD108E108F1082D812230F0
:1036500009F58FEFC816D104E104F10409F008F46C
:10366000BFC160E970ED83E090E0A50194010E9484
:103670009A4569017A0191E0C91AD108E108F10877
:103680002FEFC216D104E104F10411F008F036C1A5
:1036900083E027C08FEFC816D104E104F104B9F02C
:1036A000B0F068E478EE81E090E0A50194010E941A
:1036B0009A4569017A0191E0C91AD108E108F10837
:1036C0002D81222309F490C158C181E001C082E01C
:1036D0009D81911106C095B5987F892B85BD7FC0CE
:1036E00085E09091B100987F892B8093B10077C0DD
:1036F00061E087E00E94B4194801A12CB12C60E080
:1037000072E18AE790E0A50194010E949A4569015F
:103710007A0181E0C81AD108E108F108C114D10486
:1037200091E0E906F10488F068E478EE81E090E049
:10373000A50194010E949A4569017A0181E0C81AA5
:10374000D108E108F10883E001C081E09D8191305A
:1037500081F490918100987F892B8093810041149E
:1037600051046104710409F03FC02FEF3FEFA9013C
:103770006DC02D81233079F490919100987F892B31
:1037800080939100411451046104710469F52FEF95
:103790003FEFA9017DC09D81943079F49091A10003
:1037A000987F892B8093A100411451046104710416
:1037B000D9F42FEF3FEFA9017DC02D81253079F499
:1037C00090912101987F892B80932101411451040C
:1037D0006104710449F42FEF3FEFA9017DC041144A
:1037E00051046104710471F0D801AA0FBB1FA30139
:1037F00092010E94C14528EE33E040E050E00E9473
:10380000784503C02FEF3FEFA9018D81823081F110
:103810002CF4882361F08130C9F020C19D8194305F
:1038200009F448C0ACF1953009F456C017C1C7BCC3
:1038300020937B0C30937C0C40937D0C50937E0C3A
:1038400080916E00826080936E0008C1D0928900E2
:10385000C09288002093770C3093780C4093790CB9
:1038600050937A0C80916F00826080936F00F6C055
:10387000C092B3002093620C3093630C4093640CAD
:103880005093650C80917000826080937000E6C058
:10389000D0929900C09298002093730C3093740CCE
:1038A0004093750C5093760C8091710082608093E8
:1038B0007100D4C0D092A900C092A80020936F0CD0
:1038C0003093700C4093710C5093720C8091720085
:1038D000826080937200C2C0D0922901C0922801F8
:1038E00020936B0C30936C0C40936D0C50936E0CCA
:1038F00080917300826080937300B0C068E478EEBA
:1039000081E090E0A50194010E949A4569017A0145
:1039100081E0C81AD108E108F1089FEFC916D10467
:10392000E104F10441F138F164E274EF80E090E0E9
:10393000A50194010E949A4569017A0181E0C81AA3
:10394000D108E108F1089FEFC916D104E104F104A0
:1039500009F008F4C5CE62E17AE780E090E0A501C5
:1039600094010E949A4569017A0181E0C81AD10840
:10397000E108F10818C084E0B4CE2FEFC216D104DC
:10398000E104F10479F170F162E17AE780E090E01E
:10399000A50194010E949A4569017A0191E0C91A32
:1039A000D108E108F1088FEFC816D104E104F10451
:1039B000A9F0A0F089819A81AB81BC812AE0B595FC
:1039C000A795979587952A95D1F76C017D0121E000
:1039D000C21AD108E108F10887E083CE86E081CEE3
:1039E00082E07FCE84E074CE2FEFC216D104E104D2
:1039F000F10469F160F162E17AE780E090E0A5010D
:103A000094010E949A4569017A0181E0C81AD1089F
:103A1000E108F1089FEFC916D104E104F104A9F00F
:103A2000A0F089819A81AB81BC813AE0B595A795D8
:103A3000979587953A95D1F76C017D0121E0C21ADF
:103A4000D108E108F10885E046CE84E044CE83E069
:103A500042CE61E087E00E94B419CBCD0F900F9069
:103A60000F900F900F90DF91CF911F910F91FF90CA
:103A7000EF90DF90CF90BF90AF909F908F907F900E
:103A80006F905F904F900895863308F08653909121
:103A90007B00282F2870977F922B90937B00877054
:103AA000806480937C0080917A00806480937A00A7
:103AB00080917A0086FDFCCF80917800209179007A
:103AC00090E0922B08953FB7F89480912F0C90913D
:103AD000300CA091310CB091320C26B5A89B05C0DA
:103AE0002F3F19F00196A11DB11D3FBFBA2FA92F7D
:103AF000982F8827820F911DA11DB11DBC01CD01FA
:103B000042E0660F771F881F991F4A95D1F70895E5
:103B10002FB7F89460912B0C70912C0C80912D0C88
:103B200090912E0C2FBF08951F920F920FB60F92F7
:103B300011242F933F938F939F93AF93BF938091C3
:103B40002B0C90912C0CA0912D0CB0912E0C30913F
:103B50007F0C23E0230F2D3720F40196A11DB11D0A
:103B600005C026E8230F0296A11DB11D20937F0CEE
:103B700080932B0C90932C0CA0932D0CB0932E0CB7
:103B800080912F0C9091300CA091310CB091320C9F
:103B90000196A11DB11D80932F0C9093300CA09322
:103BA000310CB093320CBF91AF919F918F913F91A7
:103BB0002F910F900FBE0F901F901895CF93DF930A
:103BC000CDB7DEB7EE970FB6F894DEBF0FBECDBF10
:103BD000789484B5826084BD84B5816084BD85B5E8
:103BE000826085BD85B5816085BD80916E008160F4
:103BF00080936E001092810080918100826080939A
:103C0000810080918100816080938100809180009B
:103C10008160809380008091B10084608093B100C6
:103C20008091B00081608093B000809191008260AB
:103C300080939100809191008160809391008091A8
:103C400090008160809390008091A10082608093B9
:103C5000A1008091A10081608093A1008091A000CB
:103C600081608093A0008091210182608093210176
:103C700080912101816080932101809120018160E8
:103C80008093200180917A00846080937A008091F3
:103C90007A00826080937A0080917A0081608093BC
:103CA0007A0080917A00806880937A001092C10037
:103CB0001092A00710929F0710929B0710929C07EA
:103CC00010929D0710929E0710929A071092E1079A
:103CD0001092E0071092690610926A0610926B0625
:103CE00010926C0610926D0610926E0610926F067E
:103CF0001092700610927506109276061092770652
:103D0000109278061092790610927A0610927B062D
:103D100010927C0610927D0610927F06109280060B
:103D200010928106109282061092830610928406E9
:103D300010928506109286061092870610928806C9
:103D40001092890610928A0610928B0610928C06A9
:103D500010928D0610928E0610928F061092900689
:103D60001092910610929206109293061092940669
:103D70001092950610929606109297061092980649
:103D80001092990610929A0610929B0610929C0629
:103D900010929D0610929E0610929F061092A00609
:103DA0001092A1061092A2061092A3061092A406E9
:103DB0001092A5061092A6061092A7061092A806C9
:103DC0001092A9061092AA061092AB061092AC06A9
:103DD0001092AD061092AE061092AF061092B00689
:103DE0001092B1061092B2061092B3061092B40669
:103DF0001092B5061092B6061092B7061092B80649
:103E00001092B9061092BA061092BB061092BC0628
:103E10001092BD061092BE061092BF061092C00608
:103E20001092C1061092C2061092C3061092C406E8
:103E30001092C5061092C6061092C7061092C806C8
:103E40001092C9061092CA061092CB061092CC06A8
:103E50001092CD061092CE061092CF061092D00688
:103E60001092D1061092D2061092D3061092D40668
:103E70001092D5061092D6061092D7061092D90647
:103E80001092D8061092DA061092DB0680E090E0DD
:103E9000A0E0B0E48093DC069093DD06A093DE06FC
:103EA000B093DF061092E0061092E1061092E2064F
:103EB0001092E30661E085E00E94B41961E084E0BD
:103EC0000E94B41960E086E00E94B4190E94E513D4
:103ED000E091630BF091640B82E08083E0915F0BD3
:103EE000F091600B1082E091610BF091620B80E128
:103EF000808310926B0BE091670BF091680B86E06A
:103F00008083E091650BF091660B808180618083F6
:103F1000E091650BF091660B808188608083E09171
:103F2000650BF091660B808180688083E091650B62
:103F3000F091660B80818F7D80831092990710929B
:103F4000940784E690E0A0E0B0E08093950790931A
:103F50009607A0939707B093980760E089E30E94C3
:103F6000B41960E08BE30E94B41961E088E00E941C
:103F7000B41961E089E00E94B419109224081092EB
:103F8000250844EF51E060E070E084EF91E00E948A
:103F9000F01961E08DE00E94B41910922708109288
:103FA00026080E94881D6093280870932908809332
:103FB0002A0890932B0852E0C52ED12CEE24E394CE
:103FC000F12C77E0672E712CEAE0AE2EB12C8091B7
:103FD000B2079091B307A091B407B091B507809351
:103FE000740790937507A0937607B0937707809135
:103FF000DA068823A1F11092DA068091B607909133
:10400000B707A091B807B091B90720E030E040EFC2
:1040100050EC2093B6073093B7074093B8075093FE
:10402000B9078093780790937907A0937A07B093A4
:104030007B078091BE07882391F01092BE07809184
:10404000BA079091BB07A091BC07B091BD078093C0
:104050007C0790937D07A0937E07B0937F078091A4
:10406000DB068823C1F01092DB068091BE0788230F
:1040700091F01092BE078091BA079091BB07A09172
:10408000BC07B091BD078093800790938107A093F0
:104090008207B093830780919F079091A00781309A
:1040A000910581F1C0F0029709F02BC11092A00791
:1040B00010929F071092B2071092B3071092B407A4
:1040C0001092B50741EA57E05BAF4AAF8A0160E062
:1040D00070E0CB018AC00E94881D0091BF0710913B
:1040E000C0072091C1073091C207DC01CB01801BC2
:1040F000910BA20BB30B0697A105B10508F401C102
:104100000C94213E10917A0080917A00887F84601F
:1041100080937A0086E30E94441D10937A00BC01CC
:10412000990F880B990B0E940B4720E030E046E97D
:1041300052E40E94C04720E030EC4FE754E40E9474
:10414000614620E030E040EF50E40E94EF452FE26E
:1041500036E842E85FE30E94C04720E030E040E8F4
:104160005EE30E94C04720919B0730919C074091DD
:104170009D0750919E070E94F04560939B077093A6
:104180009C0780939D0790939E0720919A07233068
:1041900019F5D092A007C0929F072091B10730E097
:1041A0002F5F3F4F237033272093B107220F331F18
:1041B000220F331FF901EF55F84F6083718382831B
:1041C000938310929A0710929B0710929C0710926B
:1041D0009D0710929E0795C01092A00710929F070E
:1041E00081E0820F80939A078CC0F8012191319170
:1041F000419151918F010E94F045F7E0013B1F076B
:10420000A1F720E030E040E85EE30E94C0471B01D8
:104210002C016093B2077093B3078093B407909317
:10422000B5070091B6071091B7078090B807909036
:10423000B907E091B10724E0E29FF0011124EF55A6
:10424000F84F30813EAB41814CAF52815DAF8381ED
:104250008EAF232F342F452F582FB801C4010E9451
:10426000BB47181624F00EA91CAD8DAC9EACC8013E
:10427000D4018093B6079093B707A093B807B09383
:10428000B907EAADFBAD6191719181919191FBAF5D
:10429000EAAFA20191010E94EF456EAB7FAB88AF00
:1042A00099AF20E030E0A9010E94BB4718166CF4DA
:1042B00020E030E040E850E46EA97FA988AD99ADD8
:1042C0000E94BB471816ECF00CC020E030E040E83C
:1042D00050EC6EA97FA988AD99AD0E945C4687FD20
:1042E00010C02AAD3BAD215B374059F681E0809389
:1042F000BE072092BA073092BB074092BC0750928B
:10430000BD078091E0079091E1078130910569F147
:10431000A8F0029709F08EC01092E1071092E00712
:104320001092DB071092DC071092DD071092DE0777
:104330000BEC17E0212C312C21015CC00E94881D60
:104340000091C7071091C8072091C9073091CA078B
:10435000DC01CB01801B910BA20BB30B4597A10590
:10436000B10508F467C00C94313ED092E107C092C9
:10437000E0078091DF0790E0019683709927809392
:10438000DF0710917A0080917A00887F84608093A3
:104390007A0087E30E94441D10937A000091DF07A2
:1043A00054E0059F800111240553184FBC01990F5B
:1043B000880B990B0E940B4720E030E040E252E46A
:1043C0000E94C04720E030EC4FE754E40E94614671
:1043D00020E030E040EA51E40E94EF4524EA30E773
:1043E0004DE35EE30E946146F8016083718382833E
:1043F000938320C0F80161917191819191918F0116
:1044000020E030E040E85EE30E94C0479B01AC0141
:10441000C201B1010E94F0451B012C01F7E00B3DE8
:104420001F0741F76093DB077093DC078093DD077C
:104430009093DE070E94BA051A8AE0916E07F09108
:104440006F07E730F10510F00C94E03B8827EE5839
:10445000FF4F8F4F0C94B94588E20E945012882379
:1044600011F40C94E43B0E94E9124CE853E060E044
:1044700080E00E94F3124DE953E061E080E00E9489
:10448000F3120C9491411982E0916C07F0916D0741
:10449000ED32F10510F00C9481398827E758FF4F71
:1044A0008F4F0C94B9458CE20E945012882361F022
:1044B0004EEA53E061E080E00E94F312D0926D0773
:1044C000C0926C070C9485398AE20E9450128823AE
:1044D00061F04FEB53E061E080E00E94F312F09254
:1044E0006D07E0926C070C94853986E20E945012A9
:1044F000882369F082E080934C0C8CE290E09093EA
:104500006D0780936C070E9410120C94853964EF3C
:1045100071E080E090E00E941C12882311F40C945A
:10452000853983E090E090936D0780936C0740EDB0
:1045300053E061E080E00E94F3120E9410120C949C
:1045400085398CE20E9450128111B2CF8AE20E941A
:1045500050128111BECF86E20E9450128111CACF43
:104560006AEF70E080E090E00E941C12882311F452
:104570000C9485394DE953E061E080E00E94F3122C
:1045800010926D0710926C070E9410120C948539DE
:104590008CE20E945012882361F04DE953E061E003
:1045A00080E00E94F31210926D0710926C070C9439
:1045B00085398AE20E94501281117ACF86E20E94E8
:1045C0005012882391F04FEB53E061E080E00E94AD
:1045D000F31210924C0C86E090E090936D0780935C
:1045E0006C070E9410120C94853964EF71E080E032
:1045F00090E00E941C12882311F40C94853984E009
:1046000090E090936D0780936C0740ED53E061E07C
:1046100080E00E94F3120E9410120C9485398CE203
:104620000E9450128111B9CF8AE20E94501281116A
:104630003FCF86E20E9450128111C5CF6AEF70E031
:1046400080E090E00E941C12882311F40C948539BC
:10465000F0926D07E0926C074FEB53E061E080E071
:104660000E94F3120E9410120C9485398CE20E9471
:10467000501281112ECF8AE20E94501281118DCFEB
:1046800086E20E945012882399F04EEA53E061E0DE
:1046900080E00E94F31281E080934C0C86E090E071
:1046A00090936D0780936C070E9410120C948539CB
:1046B00064EF71E080E090E00E941C12882311F406
:1046C0000C94853985E090E090936D0780936C079A
:1046D00040ED53E061E080E00E94F3120E9410126E
:1046E0000C9485398CE20E9450128111F2CE8AE23C
:1046F0000E945012811151CF86E20E945012811106
:10470000C4CF6AEF70E080E090E00E941C12882322
:1047100011F40C948539D0926D07C0926C074EEA63
:1047200053E061E080E00E94F3120E9410120C94AA
:10473000853964EF71E080E090E00E941C128823CC
:1047400011F40C94853980914C0C813039F50E941C
:10475000E91241EE53E060E080E00E94F3124AE08B
:10476000BE016F5F7F4F8091520C9091530C0E945D
:10477000E04262EF73E0CE0101960E943748AE013D
:104780004F5F5F4F61E080E00E94F312B0926D07CF
:10479000A0926C070E9410120C94853981110C9420
:1047A00085390E94E91249EF53E060E080E00E9401
:1047B000F3124AE0BE016F5F7F4F8091580C9091D9
:1047C000590C0E94E0426AE074E0CE0101960E941A
:1047D0003748AE014F5F5F4F61E080E00E94F31207
:1047E00070926D0760926C070E9410120C948539CC
:1047F0008CE20E945012882341F18091520C9091DA
:10480000530C8332910510F4019602C083E290E0CC
:104810009093530C8093520C4AE0BE016F5F7F4F20
:104820008091520C9091530C0E94E04262EF73E031
:10483000CE0101960E943748AE014F5F5F4F61E0A5
:1048400080E00E94F3120C9485398AE20E94501293
:10485000882341F18091520C9091530C8630910540
:1048600010F0019702C085E090E09093530C809384
:10487000520C4AE0BE016F5F7F4F8091520C9091C5
:10488000530C0E94E04262EF73E0CE0101960E9459
:104890003748AE014F5F5F4F61E080E00E94F31246
:1048A0000C94853986E20E945012882309F14AE06F
:1048B000BE016F5F7F4F8091520C9091530C0E940C
:1048C000E04262EF73E0CE0101960E943748AE01EC
:1048D0004F5F5F4F61E080E00E94F3128CE090E058
:1048E00090936D0780936C070E9410120C94853989
:1048F0008EE20E9450128823B1F00E94E9124CE827
:1049000053E060E080E00E94F3124DE953E061E083
:1049100080E00E94F31210926D0710926C070E94C3
:1049200010120C94853964EF71E080E090E00E94F1
:104930001C12882311F40C9485398BE090E090933D
:104940006D0780936C0740ED53E061E080E00E94CA
:10495000F3120E9410120C9485398CE20E945012BE
:10496000882341F18091520C9091530C8332910530
:1049700010F4019602C083E290E09093530C809370
:10498000520C4AE0BE016F5F7F4F8091520C9091B4
:10499000530C0E94E04262EF73E0CE0101960E9448
:1049A0003748AE014F5F5F4F61E080E00E94F31235
:1049B0000C9485398AE20E945012882341F180913B
:1049C000520C9091530C8630910510F0019702C063
:1049D00085E090E09093530C8093520C4AE0BE0126
:1049E0006F5F7F4F8091520C9091530C0E94E04278
:1049F00062EF73E0CE0101960E943748AE014F5F2F
:104A00005F4F61E080E00E94F3120C94853986E2EA
:104A10000E945012882309F14AE0BE016F5F7F4F68
:104A20008091520C9091530C0E94E04262EF73E02F
:104A3000CE0101960E943748AE014F5F5F4F61E0A3
:104A400080E00E94F3128CE090E090936D078093D9
:104A50006C070E9410120C9485398EE20E9450124D
:104A600081114BCF6AEF70E080E090E00E941C1251
:104A7000882311F40C9485394AE0BE016F5F7F4FA3
:104A80008091520C9091530C0E94E04262EF73E0CF
:104A9000CE0101960E943748AE014F5F5F4F61E043
:104AA00080E00E94F312B0926D07A0926C070E9402
:104AB00010120C94853964EF71E080E090E00E9460
:104AC0001C12882311F40C9485390E94E9124DE0E0
:104AD00054E060E080E00E94F3124AE0BE016F5FA4
:104AE0007F4F80915A0C90915B0C0E94E0426EE1E6
:104AF00074E0CE0101960E943748AE014F5F5F4FD0
:104B000061E080E00E94F3128DE090E090936D07E9
:104B100080936C070E9410120C9485398CE20E94DD
:104B20005012882349F18091580C9091590C803291
:104B300023E0920710F4C29602C080E293E09093C3
:104B4000590C8093580C4AE0BE016F5F7F4F8091F3
:104B5000580C9091590C0E94E0426AE074E0CE013A
:104B600001960E943748AE014F5F5F4F61E080E0E1
:104B70000E94F3120C9485398AE20E945012882315
:104B800049F18091580C9091590C8D3231E0930786
:104B900010F0C29702C08CE291E09093590C809380
:104BA000580C4AE0BE016F5F7F4F8091580C909186
:104BB000590C0E94E0426AE074E0CE0101960E9426
:104BC0003748AE014F5F5F4F61E080E00E94F31213
:104BD0000C94853986E20E945012882309F14AE03C
:104BE000BE016F5F7F4F8091580C9091590C0E94CD
:104BF000E0426AE074E0CE0101960E943748AE01BF
:104C00004F5F5F4F61E080E00E94F31289E090E027
:104C100090936D0780936C070E9410120C94853955
:104C20008EE20E945012811168CE64EF71E080E044
:104C300090E00E941C12882311F40C94853988E0BE
:104C400090E090936D0780936C0740ED53E061E036
:104C500080E00E94F3120E9410120C9485398CE2BD
:104C60000E945012882349F18091580C9091590C60
:104C7000803243E0940710F4C29602C080E293E0D1
:104C80009093590C8093580C4AE0BE016F5F7F4FA0
:104C90008091580C9091590C0E94E0426AE074E0B7
:104CA000CE0101960E943748AE014F5F5F4F61E031
:104CB00080E00E94F3120C9485398AE20E9450121F
:104CC000882349F18091580C9091590C8D3251E014
:104CD000950710F0C29702C08CE291E09093590CB6
:104CE0008093580C4AE0BE016F5F7F4F8091580C53
:104CF0009091590C0E94E0426AE074E0CE01019666
:104D00000E943748AE014F5F5F4F61E080E00E9434
:104D1000F3120C94853986E20E945012882309F11F
:104D20004AE0BE016F5F7F4F8091580C9091590C03
:104D30000E94E0426AE074E0CE0101960E9437488A
:104D4000AE014F5F5F4F61E080E00E94F31289E0A7
:104D500090E090936D0780936C070E9410120C9462
:104D600085398EE20E9450128111C7CD6AEF70E042
:104D700080E090E00E941C12882311F40C94853985
:104D80004AE0BE016F5F7F4F8091580C9091590CA3
:104D90000E94E0426AE074E0CE0101960E9437482A
:104DA000AE014F5F5F4F61E080E00E94F3127092AE
:104DB0006D0760926C070E9410120C94853964EFA5
:104DC00071E080E090E00E941C12882311F40C94A2
:104DD00085390E94E9124DE054E060E080E00E94D5
:104DE000F3124AE0BE016F5F7F4F80915A0C9091A1
:104DF0005B0C0E94E0426EE174E0CE0101960E94DD
:104E00003748AE014F5F5F4F61E080E00E94F312D0
:104E10008DE090E090936D0780936C070E941012D4
:104E20000C9485398CE20E945012882341F18091C4
:104E30005A0C90915B0C8031910510F4019602C0E0
:104E400080E190E090935B0C80935A0C4AE0BE01A5
:104E50006F5F7F4F80915A0C90915B0C0E94E042F3
:104E60006EE174E0CE0101960E943748AE014F5FBB
:104E70005F4F61E080E00E94F3120C9485398AE272
:104E80000E945012882341F180915A0C90915B0C42
:104E90008D30910510F0019702C08CE090E0909366
:104EA0005B0C80935A0C4AE0BE016F5F7F4F80918C
:104EB0005A0C90915B0C0E94E0426EE174E0CE01CE
:104EC00001960E943748AE014F5F5F4F61E080E07E
:104ED0000E94F3120C94853986E20E9450128823B6
:104EE00009F14AE0BE016F5F7F4F80915A0C9091AB
:104EF0005B0C0E94E0426EE174E0CE0101960E94DC
:104F00003748AE014F5F5F4F61E080E00E94F312CF
:104F10008FE090E090936D0780936C070E941012D1
:104F20000C9485398EE20E945012882309F455C0F2
:104F300080914C0C813039F50E94E91241EE53E02A
:104F400060E080E00E94F3124AE0BE016F5F7F4F95
:104F50008091520C9091530C0E94E04262EF73E0FA
:104F6000CE0101960E943748AE014F5F5F4F61E06E
:104F700080E00E94F312B0926D07A0926C070E942D
:104F800010120C94853981110C9485390E94E91214
:104F900049EF53E060E080E00E94F3124AE0BE0176
:104FA0006F5F7F4F8091580C9091590C0E94E042A6
:104FB0006AE074E0CE0101960E943748AE014F5F6F
:104FC0005F4F61E080E00E94F31270926D07609283
:104FD0006C070E9410120C94853964EF71E080E038
:104FE00090E00E941C12882311F40C9485398EE005
:104FF00090E090936D0780936C0740ED53E061E083
:1050000080E00E94F3120E9410120C9485398CE209
:105010000E945012882341F180915A0C90915B0CB0
:105020008031910510F4019602C080E190E09093E8
:105030005B0C80935A0C4AE0BE016F5F7F4F8091FA
:105040005A0C90915B0C0E94E0426EE174E0CE013C
:1050500001960E943748AE014F5F5F4F61E080E0EC
:105060000E94F3120C9485398AE20E945012882320
:1050700041F180915A0C90915B0C8D30910510F0AC
:10508000019702C08CE090E090935B0C80935A0CE7
:105090004AE0BE016F5F7F4F80915A0C90915B0C8C
:1050A0000E94E0426EE174E0CE0101960E94374812
:1050B000AE014F5F5F4F61E080E00E94F3120C94FD
:1050C000853986E20E945012882309F14AE0BE0128
:1050D0006F5F7F4F80915A0C90915B0C0E94E04271
:1050E0006EE174E0CE0101960E943748AE014F5F39
:1050F0005F4F61E080E00E94F3128FE090E09093B8
:105100006D0780936C070E9410120C9485398EE213
:105110000E945012882309F455C080914C0C8130B4
:1051200039F50E94E91241EE53E060E080E00E9410
:10513000F3124AE0BE016F5F7F4F8091520C909155
:10514000530C0E94E04262EF73E0CE0101960E9490
:105150003748AE014F5F5F4F61E080E00E94F3127D
:10516000B0926D07A0926C070E9410120C948539C2
:1051700081110C9485390E94E91249EF53E060E0F7
:1051800080E00E94F3124AE0BE016F5F7F4F809182
:10519000580C9091590C0E94E0426AE074E0CE01F4
:1051A00001960E943748AE014F5F5F4F61E080E09B
:1051B0000E94F31270926D0760926C070E941012A9
:1051C0000C94853964EF71E080E090E00E941C123D
:1051D000882311F40C9485394AE0BE016F5F7F4F3C
:1051E00080915A0C90915B0C0E94E0426EE174E059
:1051F000CE0101960E943748AE014F5F5F4F61E0DC
:1052000080E00E94F3128DE090E090936D07809310
:105210006C070E9410120C94853964EF71E080E0F5
:1052200090E00E941C12882311F40C9485390E948E
:10523000E91242E254E060E080E00E94F3124AE0AA
:10524000BE016F5F7F4F80915C0C90915D0C0E945E
:10525000E0426EE174E0CE0101960E943748AE0153
:105260004F5F5F4F61E080E00E94F31280E190E0C9
:1052700090936D0780936C070E9410120C948539EF
:105280008CE20E945012882341F180915C0C909135
:105290005D0C8530910510F4019602C085E090E028
:1052A00090935D0C80935C0C4AE0BE016F5F7F4F72
:1052B00080915C0C90915D0C0E94E0426EE174E084
:1052C000CE0101960E943748AE014F5F5F4F61E00B
:1052D00080E00E94F3120C9485398AE20E945012F9
:1052E000882351F180915C0C90915D0C8230910586
:1052F00030F0019790935D0C80935C0C04C0F092A9
:105300005D0CE0925C0C4AE0BE016F5F7F4F8091C4
:105310005C0C90915D0C0E94E0426EE174E0CE0165
:1053200001960E943748AE014F5F5F4F61E080E019
:105330000E94F3120C94853986E20E945012882351
:1053400009F14AE0BE016F5F7F4F80915C0C909144
:105350005D0C0E94E0426EE174E0CE0101960E9475
:105360003748AE014F5F5F4F61E080E00E94F3126B
:1053700082E190E090936D0780936C070E94101279
:105380000C9485398EE20E945012882349F10E94C4
:10539000E9124DE054E060E080E00E94F3124AE040
:1053A000BE016F5F7F4F80915A0C90915B0C0E9401
:1053B000E0426EE174E0CE0101960E943748AE01F2
:1053C0004F5F5F4F61E080E00E94F3128DE090E05C
:1053D00090936D0780936C070E9410120C9485398E
:1053E00064EF71E080E090E00E941C12882311F4C9
:1053F0000C94853981E190E090936D0780936C0760
:1054000040ED53E061E080E00E94F3120E94101230
:105410000C9485398CE20E945012882341F18091CE
:105420005C0C90915D0C8530910510F4019602C0E2
:1054300085E090E090935D0C80935C0C4AE0BE01A7
:105440006F5F7F4F80915C0C90915D0C0E94E042F9
:105450006EE174E0CE0101960E943748AE014F5FC5
:105460005F4F61E080E00E94F3120C9485398AE27C
:105470000E945012882351F180915C0C90915D0C38
:105480008230910530F0019790935D0C80935C0C15
:1054900004C0F0925D0CE0925C0C4AE0BE016F5FCC
:1054A0007F4F80915C0C90915D0C0E94E0426EE118
:1054B00074E0CE0101960E943748AE014F5F5F4F06
:1054C00061E080E00E94F3120C94853986E20E942C
:1054D0005012882309F14AE0BE016F5F7F4F80912F
:1054E0005C0C90915D0C0E94E0426EE174E0CE0194
:1054F00001960E943748AE014F5F5F4F61E080E048
:105500000E94F31282E190E090936D0780936C0704
:105510000E9410120C9485398EE20E94501288234A
:1055200049F10E94E9124DE054E060E080E00E9401
:10553000F3124AE0BE016F5F7F4F80915A0C909149
:105540005B0C0E94E0426EE174E0CE0101960E9485
:105550003748AE014F5F5F4F61E080E00E94F31279
:105560008DE090E090936D0780936C070E9410127D
:105570000C94853964EF71E080E090E00E941C1289
:10558000882311F40C9485394AE0BE016F5F7F4F88
:1055900080915C0C90915D0C0E94E0426EE174E0A1
:1055A000CE0101960E943748AE014F5F5F4F61E028
:1055B00080E00E94F31280E190E090936D07809369
:1055C0006C070E9410120C94853964EF71E080E042
:1055D00090E00E941C12882311F40C9485390E94DB
:1055E000E91243E354E060E080E00E94F31280910E
:1055F0004F0C4AE0BE016F5F7F4F90E00E94E04297
:105600006FED73E0CE0101960E943748AE014F5F07
:105610005F4F61E080E00E94F31283E190E090939D
:105620006D0780936C070E9410120C9485398CE2F0
:105630000E945012882309F180914F0C8E3110F492
:105640008F5F01C08EE180934F0C80914F0C4AE038
:10565000BE016F5F7F4F90E00E94E0426FED73E00C
:10566000CE0101960E943748AE014F5F5F4F61E067
:1056700080E00E94F3120C9485398AE20E94501255
:10568000882309F180914F0C863010F0815001C0C1
:1056900085E080934F0C80914F0C4AE0BE016F5F14
:1056A0007F4F90E00E94E0426FED73E0CE010196E3
:1056B0000E943748AE014F5F5F4F61E080E00E947B
:1056C000F3120C94853986E20E945012882301F16E
:1056D00080914F0C4AE0BE016F5F7F4F90E00E94C7
:1056E000E0426FED73E0CE0101960E943748AE01B3
:1056F0004F5F5F4F61E080E00E94F31285E190E030
:1057000090936D0780936C070E9410120C9485395A
:105710008EE20E945012882349F10E94E91242E26F
:1057200054E060E080E00E94F3124AE0BE016F5F47
:105730007F4F80915A0C90915B0C0E94E0426FED7C
:1057400073E0CE0101960E943748AE014F5F5F4F74
:1057500061E080E00E94F31280E190E090936D0799
:1057600080936C070E9410120C94853964EF71E0ED
:1057700080E090E00E941C12882311F40C9485397B
:1057800084E190E090936D0780936C0740ED53E0C7
:1057900061E080E00E94F3120E9410120C9485399F
:1057A0008CE20E945012882309F180914F0C8E31B7
:1057B00010F48F5F01C08EE180934F0C80914F0CED
:1057C0004AE0BE016F5F7F4F90E00E94E0426FEDC4
:1057D00073E0CE0101960E943748AE014F5F5F4FE4
:1057E00061E080E00E94F3120C9485398AE20E9405
:1057F0005012882309F180914F0C863010F08150AF
:1058000001C085E080934F0C80914F0C4AE0BE01AF
:105810006F5F7F4F90E00E94E0426FED73E0CE013A
:1058200001960E943748AE014F5F5F4F61E080E014
:105830000E94F3120C94853986E20E94501288234C
:1058400001F180914F0C4AE0BE016F5F7F4F90E005
:105850000E94E0426FED73E0CE0101960E9437484E
:10586000AE014F5F5F4F61E080E00E94F31285E17F
:1058700090E090936D0780936C070E9410120C9437
:1058800085398EE20E945012882349F10E94E91264
:1058900042E254E060E080E00E94F3124AE0BE0180
:1058A0006F5F7F4F80915A0C90915B0C0E94E04299
:1058B0006FED73E0CE0101960E943748AE014F5F55
:1058C0005F4F61E080E00E94F31280E190E09093EE
:1058D0006D0780936C070E9410120C94853964EF59
:1058E00071E080E090E00E941C12882311F40C9477
:1058F000853980914F0C4AE0BE016F5F7F4F90E089
:105900000E94E0426FED73E0CE0101960E9437489D
:10591000AE014F5F5F4F61E080E00E94F31283E1D0
:1059200090E090936D0780936C070E9410120C9486
:10593000853964EF71E080E090E00E941C128823BA
:1059400011F40C9485390E94E91244E454E060E0BB
:1059500080E00E94F3128091500C4AE0BE016F5F1C
:105960007F4F90E00E94E0426FED73E0CE01019620
:105970000E943748AE014F5F5F4F61E080E00E94B8
:10598000F31286E190E090936D0780936C070E947C
:1059900010120C9485398CE20E945012882309F170
:1059A0008091500C833210F48F5F01C083E28093AA
:1059B000500C8091500C4AE0BE016F5F7F4F90E029
:1059C0000E94E0426FED73E0CE0101960E943748DD
:1059D000AE014F5F5F4F61E080E00E94F3120C94D4
:1059E00085398AE20E945012882309F18091500C77
:1059F0008A3110F0815001C089E18093500C809170
:105A0000500C4AE0BE016F5F7F4F90E00E94E04281
:105A10006FED73E0CE0101960E943748AE014F5FF3
:105A20005F4F61E080E00E94F3120C94853986E2BA
:105A30000E945012882301F18091500C4AE0BE016F
:105A40006F5F7F4F90E00E94E0426FED73E0CE0108
:105A500001960E943748AE014F5F5F4F61E080E0E2
:105A60000E94F31288E190E090936D0780936C0799
:105A70000E9410120C9485398EE20E9450128823E5
:105A800041F10E94E91243E354E060E080E00E94AB
:105A9000F31280914F0C4AE0BE016F5F7F4F90E0A0
:105AA0000E94E0426FED73E0CE0101960E943748FC
:105AB000AE014F5F5F4F61E080E00E94F31283E12F
:105AC00090E090936D0780936C070E9410120C94E5
:105AD000853964EF71E080E090E00E941C12882319
