:100000000C94D1020C941F110C94F4100C94C91090
:100010000C949E100C9473100C9448100C941D10AA
:100020000C94F20F0C9402030C9402030C94020340
:100030000C9402030C944A110C9402030C940203D6
:100040000C9402030C9402030C9402030C9402031C
:100050000C9402030C9402030C9402030C94B11F41
:100060000C9402030C942A120C9400120C940203B8
:100070000C9402030C9402030C9402030C940203EC
:100080000C9402030C9402030C9402030C940203DC
:100090000C9402030C9402030C9402030C9460125F
:1000A0000C9402030C9402030C9402030C940203BC
:1000B0000C9402030C9402030C9402030C940203AC
:1000C0000C9402030C9402030C9402030C9402039C
:1000D0000C9402030C9402030C9402030C9402038C
:1000E0000C940203E3265827C42731279D27FC27B9
:1000F0002328222AC32A752B86283D29EF29A82BDD
:10010000A12CAB2DDE2DAA2E872FB92F72303B31BB
:100110006D312532ED321F33D7339F34D1348935D9
:100120004E367E363137F4372538E638B839E93976
:10013000AD3A823BB43B6E3C3A3D8C3D5F3D9E43C5
:10014000E04352448F44C844FE443145210793079D
:1001500026077B07FF0748087508B608A717AA17E0
:1001600099179D17A317E117AE17B217B817BC1749
:10017000C017C617CA17CE17E117D417D817DC1740
:100180000E1F131F181F221F2C1FA51F361F3E1FD7
:10019000461F501F5A1F641F731F7D1FA51F871FF7
:1001A000911F9B1F0C94270E0C9459040C94EF295B
:1001B0000C946E3C0C94580E0C94501F0C94780FB9
:1001C0000C9489350C943B310C94FF070C94AD3A98
:1001D0000C94B43B0C94C6170C949F340C94E326F7
:1001E0000C94A82B0C94E0430C948F440C943D2960
:1001F0000C94680F0C94900E0C94D7330C94660FEB
:100200000C9445040C94E1170C94C32A0C94C42755
:100210000C94CA170C94872F0C9448080C94752BD7
:100220000C94FC270C947D1F0C94690F0C94361FC2
:100230000C94C8440C94A12C0C947A060C94222A99
:100240000C9425320C946D310C94D1340C94E93912
:100250000C9475080C94181F0C9423280C94871F79
:100260000C94B8170C94FD0D0C9486280C94D81798
:100270000C94670F0C948E060C945F3D0C943145E2
:100280000C941F330C94B92F0C94A7170C94221FB5
:100290000C949D270C94B6080C9431370C943C0DAB
:1002A0000C945A1F0C94CE170C943A3D0C944B04AA
:1002B0000C947E360C9499170C94F4370C940E1F02
:1002C0000C94AA170C94731F0C94DD0E0C949307D6
:1002D0000C94DE2D0C94940F0C947B070C94ED324F
:1002E0000C94CF450C94461F0C9426070C94A3172E
:1002F0000C948C0F0C9421070C94131F0C94E6386B
:100300000C94A51F0C949B1F0C94BC170C943127C4
:100310000C949E430C944E360C943F040C94AA0605
:100320000C94D4170C94B8390C948C3D0C94AA2ED0
:100330000C94B2170C949D170C9452440C944A0ED2
:100340000C94FE440C94AE170C94641F0C94360E5F
:100350000C9458270C94FC0D0C94911F0C94AB2D0D
:100360000C9472300C94C0170C94C10F0C94DC17D1
:100370000C94823B0C943E1F0C9425380C9458042A
:100380000C942C1F00407A10F35A00A0724E1809EA
:100390000010A5D4E80000E87648170000E40B54EC
:1003A000020000CA9A3B000000E1F50500008096BB
:1003B0009800000040420F000000A08601000000ED
:1003C000102700000000E8030000000064000000A7
:1003D00000000A00000000000100000000002C7670
:1003E000D888DC674F0823DFC1DFAE59E1B1B7968B
:1003F000E5E3E453C63AE651997696E8E6C28426E8
:10040000EB898C9B62ED407C6FFCEFBC9C9F40F2C3
:10041000BAA56FA5F490055A2AF75C936B6CF9673F
:100420006DC11BFCE0E40D47FEF520E6B500D0ED04
:10043000902E0300943577050080841E080000206C
:100440004E0A000000C80C333333330F986E12830A
:100450001141EF8D2114893BE65516CFFEE6DB18DE
:10046000D1844B381BF77C1D901DA4BBE4242032A3
:1004700084725E228100C9F124ECA1E53D270000D1
:100480002100240027002A002D0030003300010144
:100490000000040107010A010000220025002800D5
:1004A0002B002E003100340002010000050108017C
:1004B0000B010200000A0B02090C0D0E08070304D1
:1004C000010000000000000000000000000000002B
:1004D000000000000000000000000000000000120A
:1004E00011100000000000000000000000000000EB
:1004F0000000000000000000000102102020080899
:100500001020401020408002010201080402010175
:10051000020408102040808040201008040201805E
:1005200004020180402010080402010804020101B5
:1005300002040810204080010204081020408000BE
:100540000020002300260029002C002F003200008C
:10055000010000030106010901050505050705085D
:10056000080808020202020A0A0808040404040136
:100570000101010101010103030303030303030458
:100580000707070C0C0C0C0C0C0C0C0202020206E8
:10059000060606060606060B0B0B0B0B0B0B0B00D9
:1005A000CF4511241FBECFEFD1E2DEBFCDBF00E0AB
:1005B0000CBF15E0A0E0B2E0E8E9F9E900E00BBF0C
:1005C00002C007900D92A43EB107D9F72CE0A4EE2B
:1005D000B5E001C01D92A23FB207E1F712E0C1ED04
:1005E000D2E000E006C021970109802FFE010E94A1
:1005F0003A4AC03DD10780E00807A9F70E94FB1FD7
:100600000C94CA4C0C9400008091650C9091660C7F
:10061000A091670CB091680CBC01CD016C52714087
:10062000810991090E948C4B9B01AC010E94714A87
:100630002BED3FE049E450E40E94414C20E030E0E3
:1006400044E856E40E94E24A20E030E04CE852E4FC
:100650000E94414C23E63FEB4FE356E40E94414C9D
:1006600020E030E04AE754E40E94E24A0895809195
:10067000DA06882309F465C080919D0C90919E0C48
:10068000892B11F01092DA066091DF0670E080E0AD
:1006900090E00E948A4B60932E0C70932F0C8093F5
:1006A000300C9093310C6091E8067091E90680E07F
:1006B00090E00E948A4B6093360C7093370C8093C5
:1006C000380C9093390C6091DD0670E080E090E08A
:1006D0000E948A4B20E030E048EC52E40E94E24A5B
:1006E00060933A0C70933B0C80933C0C90933D0CC0
:1006F0006091DE0670E080E090E00E948A4B20E08E
:1007000030E048EC52E40E94E24A60933E0C709361
:100710003F0C8093400C9093410C6091E2067091E5
:10072000E30680E090E00E948A4B6093540C709343
:10073000550C8093560C9093570C8091DC06809357
:10074000420C0895DC01ED91FD918081ED91FD91C8
:100750009081ED91FD916C9163708E2309F064603E
:100760009F2309F06860EFEBF3E0E60FF11D65955C
:1007700065956D936D917D918D919D91099423C0A7
:100780001AC012C016C010C01EC009C014C013C0C9
:1007900006C019C009C00DC007C00DC014C062500A
:1007A0007040804090400BC061507040804090404D
:1007B00006C06E5F01C06F5F7F4F8F4F9F4F9E934C
:1007C0008E937E936E9308958091F00C823030F476
:1007D000F89485EE9CE00E94A20301C0F8948091F9
:1007E000EC0C9091ED0CA091EE0CB091EF0C789484
:1007F0008093610C9093620CA093630CB093640C93
:10080000F8941092EC0C1092ED0C1092EE0C1092E9
:10081000EF0C78944091650C5091660C6091670CD8
:100820007091680C8091610C9091620CA091630CA6
:10083000B091640C840F951FA61FB71F8093650CA1
:100840009093660CA093670CB093680C0895809108
:10085000EF0B9091F00B0C94A2038091ED0B909113
:10086000EE0B0C94A2038091EB0B9091EC0B0C948B
:10087000A2038091E90B9091EA0B0C94A203809162
:10088000E70B9091E80B0C94A2038091E50B9091FB
:10089000E60B0C94A203DC01ED91FC910684F78534
:1008A000E02D41E0199581E090E0089508950895C4
:1008B000089580E090E00895CF92DF92EF92FF924A
:1008C0000F931F93CF93DF93E5ECF7E060E070E0C8
:1008D00080E090E0DC010481158126813781800F62
:1008E000911FA21FB31F6F5F7F4F81362AEE9207C1
:1008F000A105B10540F080E090E00E948A4B6B01B9
:100900007C01D1E008C03C966E31710521F7D0E042
:10091000C12CD12C7601C091E0066C2F70E080E0F4
:1009200090E00E948C4B9B01AC01C701B6010E9474
:100930003C4C181674F4DD2361F06C2F70E080E0FD
:1009400090E00E948A4B8B019C01B701A60185E0D3
:100950001DC0C091E1066C2F70E080E090E00E9425
:100960008C4B9B01AC01C701B6010E94DD4A87FF99
:100970000FC0DD2369F06C2F70E080E090E00E94F2
:100980008A4B8B019C01B701A60186E00E94E91603
:10099000C701B601DF91CF911F910F91FF90EF90AA
:1009A000DF90CF9008954F925F926F927F928F92D7
:1009B0009F92AF92BF92CF92DF92EF92FF9281E02F
:1009C00090E090939E0C80939D0C20912E0C309182
:1009D0002F0C4091300C5091310C60E070E68AE6AB
:1009E00097E40E94E24A4B015C0140903A0C50901F
:1009F0003B0C60903C0C70903D0CA30192010E9456
:100A0000414C6B017C016093710C7093720C80936C
:100A1000730C9093740CA301920160E070E080E885
:100A20009FE30E94704AA50194010E94414C60938B
:100A3000750C7093760C8093770C9093780C809063
:100A40003E0C90903F0CA090400CB090410CA50142
:100A5000940160E070E080E89FE30E94704AA70183
:100A600096010E94414C6093790C70937A0C8093AC
:100A70007B0C90937C0CA5019401C701B6010E94E8
:100A8000414C60937D0C70937E0C80937F0C90930F
:100A9000800C0E94B51D0E948A4B2091710C3091F0
:100AA000720C4091730C5091740C0E94714A0E9418
:100AB0005B4B6093910C7093920C8093930C90938A
:100AC000940C0E94B51D0E948A4B2091790C3091A4
:100AD0007A0C40917B0C50917C0C0E94714A0E94D0
:100AE0005B4B60938D0C70938E0C80938F0C909366
:100AF000900C20E030E04AE754E46091360C7091AD
:100B0000370C8091380C9091390C0E94414C23E6AF
:100B10003FEB4FE356E40E94E24A20E030E04CE82D
:100B200052E40E94E24A20E030E044E856E40E94A9
:100B3000414C2BED3FE049EC50E40E94E24A6B014E
:100B40007C0120E030E0A9010E943C4C20E030E034
:100B500040E05FE387FD05C0C701B6010E94714A0E
:100B600004C0C701B6010E94704A0E94544B6093B2
:100B7000690C70936A0C80936B0C90936C0CFF90D3
:100B8000EF90DF90CF90BF90AF909F908F907F902D
:100B90006F905F904F900895CF93C1E085E29BE006
:100BA0000E94580E892B09F4A3C085E29BE00E94A5
:100BB000360E853609F485C0B4F48D32D1F174F463
:100BC0008B3261F78091F0069091F106A091F206C8
:100BD000B091F306C296A11DB11D3BC08C3401F14A
:100BE000853521F1DBCF803709F445C09CF48C3684
:100BF000B9F08F3699F62DEC3CEC4CEC5DE360914E
:100C000011027091120280911302909114020E94BD
:100C1000704A3FC0823709F445C0853739F0BECFEE
:100C20008091F4068C278093F406B8CFC093EF062A
:100C3000B5CF8091F0069091F106A091F206B091A7
:100C4000F30683339105A105B10560F0C297A109B0
:100C5000B1098093F0069093F106A093F206B09349
:100C6000F3069CCF1092F0061092F1061092F20655
:100C70001092F30693CF2DEC3CEC4CEC5DE36091CD
:100C800011027091120280911302909114020E943D
:100C9000714A609311027093120280931302909331
:100CA00014027CCF2DEC3CEC4CEC5DE36091150222
:100CB0007091160280911702909118020E94714A59
:100CC0000EC02DEC3CEC4CEC5DE360911502709194
:100CD000160280911702909118020E94704A609348
:100CE000150270931602809317029093180256CF44
:100CF000CF910895FC0186898F3F79F02185328557
:100D0000662319F0232B31F403C02130310511F48F
:100D100061E001C060E00C94B2190895EF92FF9277
:100D20001F93CF93DF93EC01162F7A0161E0812F9F
:100D30000E94E1191E8BFA86E986E881F981048414
:100D4000F585E02D60E0CE01DF91CF911F91FF90FE
:100D5000EF9019940F931F93CF93DF93EC01162F0D
:100D6000042F61E0413009F060E08B850E94B219E8
:100D70008C858F3F19F060E00E94B219023081F03B
:100D80008C8184FF02C048E00CC0612F70E084E0D9
:100D9000759567958A95E1F744E0CE010E947B1E28
:100DA00044E0612FCE01DF91CF911F910F910C9400
:100DB0007B1E4F925F926F927F928F929F92AF9223
:100DC000BF92CF92DF92EF92FF920F931F93CF9338
:100DD000DF9386E00E94891921E0892B09F420E045
:100DE00020932D0C20E030E040EA50E46091A10C0B
:100DF0007091A20C8091A30C9091A40C0E943C4C89
:100E000087FD07C085E00E94DC161092C40710928F
:100E1000C3078091DB06882331F01092C40710923B
:100E2000C3071092DB06E091C307F091C407E830D6
:100E3000F10508F02DC28827EA55FF4F8F4F0C941B
:100E40003A4A10929E0C10929D0C8DC180919D0C7F
:100E500090919E0C029709F583E090E090939E0C90
:100E600080939D0C0E94B51D0E948A4B2091750CA9
:100E70003091760C4091770C5091780C0E94714A19
:100E80000E945B4B6093950C7093960C8093970C2B
:100E90009093980C81E080939F0C80912D0C811190
:100EA0000DC08091650C9091660CA091670CB0917B
:100EB000680C181619061A061B062CF461EE7AE760
:100EC00084E090EC37C160E070E0CB010E94BC1E72
:100ED00080919D0C90919E0C892B51F40E94E4030B
:100EE0001092650C1092660C1092670C1092680CB0
:100EF00083E090E0D7C18091650C9091660CA09141
:100F0000670CB091680C8C329140A105B1052CF4AE
:100F10006FEC77EF83ED9FE30DC160E070E0CB01F4
:100F20000E94BC1EBDC10E94370380919D0C909110
:100F30009E0C9C01235031092230310508F03FC03E
:100F400084E090E090939E0C80939D0C6091EE065F
:100F5000062E000C770B880B990B0E948C4B20916E
:100F6000C6063091C7064091C8065091C9060E9436
:100F7000714A9B01AC016091BA067091BB068091E9
:100F8000BC069091BD060E94DD4A881F8827881FF5
:100F90008093430C0E94B51D0091950C1091960C06
:100FA0002091970C3091980C601771078207930776
:100FB00008F07DC18091430C811179C144C5892B12
:100FC00009F041C58091DA06882309F43CC50E94E6
:100FD00037031092DA0684E090E090939E0C8093A1
:100FE0009D0C8091420C982F9D7F19F484E090E035
:100FF00059C1813009F054C185E090E053C180911E
:101000009D0C90919E0C049711F40E94D304809142
:10101000690C90916A0CA0916B0CB0916C0C855D81
:101020009E4FAF4FBF4F4091650C5091660C609141
:10103000670C7091680C84179507A607B7070CF426
:10104000FAC20E94B51D00918D0C10918E0C20915A
:101050008F0C3091900C601771078207930708F08E
:10106000EAC26091E4067091E50680E090E00E949B
:101070008A4B9B01AC016091BA067091BB068091CE
:10108000BC069091BD060E94DD4A87FD48C2D3C2CE
:1010900080919D0C90919E0C049741F40E94D30482
:1010A00061EE7AE784E090E40E94BC1E0E94B51DC8
:1010B00000918D0C10918E0C20918F0C3091900C22
:1010C000601771078207930708F008C38091650CC9
:1010D0009091660CA091670CB091680C803A9F408B
:1010E000A105B1050CF420C3F9C24091690C5091DF
:1010F0006A0C60916B0C70916C0C80916D0C9091EE
:101100006E0CA0916F0CB091700C840F951FA61FF0
:10111000B71F4091650C5091660C6091670C7091FF
:10112000680C84179507A607B707C4F46FEC77EF30
:1011300083ED9FEB0E94BC1EDF91CF911F910F9119
:10114000FF90EF90DF90CF90BF90AF909F908F90E7
:101150007F906F905F904F900C94E40360E070E09C
:10116000CB010E94BC1E82E090E09CC080919D0C4F
:1011700090919E0C019709F04CC0C0907D0CD090CE
:101180007E0CE0907F0CF090800C20E030E048EC8A
:1011900052E4C701B6010E943C4C181634F4C12C2D
:1011A000D12C88ECE82E82E4F82E20E030E040E0FC
:1011B0005FE360914C0C70914D0C80914E0C9091BE
:1011C0004F0C0E94704A4B015C0120E030E040E28D
:1011D00051E4C701B6010E94E24A9B01AC01C5017E
:1011E000B4010E94E24A6093500C7093510C8093BA
:1011F000520C9093530C82E090E090939E0C80935D
:101200009D0C10926D0C10926E0C10926F0C10923F
:10121000700C0E94B51D0091910C1091920C2091C0
:10122000930C3091940C601771078207930740F577
:101230000E94B51D0091B7071091B8072091B9071A
:101240003091BA07DC01CB01801B910BA20BB30BD1
:101250000A97A105B10508F4F6C3C0904C0CD090D4
:101260004D0CE0904E0CF0904F0C20E030E0A901C6
:10127000C701B6010E943C4C18160CF486C3E3C3A8
:1012800060E070E0CB010E94BC1E86E090E00AC0E6
:101290006FE975E085E29BE00E94E9110E94B61EAD
:1012A00081E090E09093C4078093C307CCC381E0B2
:1012B0008093A00CC090BB07D090BC07E090BD0706
:1012C000F090BE07A70196016091A50C7091A60C45
:1012D0008091A70C9091A80C0E94704A4B015C0170
:1012E00020E030E0A9010E943C4C18165CF420E09C
:1012F00030E048E452E4C501B4010E943C4C1816A9
:101300005CF013C020E030E048E452ECC501B401C9
:101310000E94DD4A87FF09C000E010E028E432E4C3
:10132000B501A40187E00E94E9160E94B51D009155
:10133000990C10919A0C20919B0C30919C0C2B01D4
:101340003C01401A510A620A730A2091C606309184
:10135000C7064091C8065091C9066091BE067091BB
:10136000BF068091C0069091C1060E94704A9B0101
:10137000AC01C701B6010E94E24A4B015C016093D7
:10138000BF077093C0078093C1079093C207A1E283
:10139000B9E0C5ECD7E0CD010C972CE0FC01019041
:1013A0000D922A95E1F7DC01C817D907A1F7409201
:1013B000C9075092CA076092CB077092CC07C092BF
:1013C000C507D092C607E092C707F092C80780927F
:1013D000CD079092CE07A092CF07B092D0070E947F
:1013E0005C046093B6067093B7068093B80690933A
:1013F000B906C092CA06D092CB06E092CC06F09213
:10140000CD060E945C040E945B4BC62E05EC17E0E3
:10141000E12CF12C60E070E0CB01D12CEC14FD0448
:1014200068F4F80120813181428153810E94714A20
:10143000FFEFEF1AFF0A045F1F4FF0CF00E010E04C
:101440009801CC80DD80EE80FF800C0D1D1D2E1DCF
:101450003F1D01364AEE14072105310538F42C965C
:10146000E9E0CD32DE0769F7C0E001C0C1E020E06D
:1014700030E04AE754E40E94E24A6B017C0160914B
:10148000EA067091EB0680E090E00E948A4B2B0107
:101490003C019B01AC01C701B6010E943C4C1816EF
:1014A00044F4CC2331F093018201B701A60183E01B
:1014B00019C06091EC067091ED0680E090E00E940A
:1014C0008A4B2B013C019B01AC01C701B6010E9474
:1014D000DD4A87FF09C0CC2339F093018201B701AF
:1014E000A60184E00E94E916C092CE06D092CF06F3
:1014F000E092D006F092D1068092D2069092D30666
:10150000A092D406B092D5060E94B51D6093990CA6
:1015100070939A0C80939B0C90939C0C62CD0E94CC
:10152000901D6093850C7093860C8093870C90932C
:10153000880C0091890C10918A0C20918B0C3091B1
:101540008C0C6B017C01C01AD10AE20AF30AC0922A
:10155000810CD092820CE092830CF092840C609308
:10156000890C70938A0C80938B0C90938C0C81EE79
:101570009AE7A4E0B0E48093440C9093450CA093C8
:10158000460CB093470C0E94E4036091610C70918B
:10159000620C8091630C9091640C0E948C4B9B01B7
:1015A000AC010E94714A2BED3FE049E450E40E94F7
:1015B000414C4B015C01A0E0B2E4A70196010E94FE
:1015C000424A20E432E44FE050E00E941B4ACA0144
:1015D000B9010E948C4B9B01AC01C501B4010E9472
:1015E000E24A6093480C7093490C80934A0C9093A4
:1015F0004B0C8091E30C882321F089EA9CE00E9447
:10160000921360914C0C70914D0C80914E0C909106
:101610004F0CDF91CF911F910F91FF90EF90DF90D2
:10162000CF90BF90AF909F908F907F906F905F9082
:101630004F900C94BC1EC090BA06D090BB06E090B0
:10164000BC06F090BD066091E4067091E50680E06E
:1016500090E00E948A4B4B015C019B01AC01C701E9
:10166000B6010E943C4C181644F495018401B70160
:10167000A60181E00E94E9161CC00E94B51D0091E0
:101680008D0C10918E0C20918F0C3091900C601766
:1016900071078207930768F48091650C9091660C3E
:1016A000A091670CB091680C80399140A105B105FB
:1016B0009CF10E9404036093BB077093BC07809366
:1016C000BD079093BE076093A50C7093A60C809302
:1016D000A70C9093A80C87E090E0E4CD0E94B51D84
:1016E00000918D0C10918E0C20918F0C3091900CEC
:1016F000601771078207930708F008C18091650C95
:101700009091660CA091670CB091680C8039914063
:10171000A105B1050CF0FAC084E00E94DC1610921D
:10172000C4071092C3078FC18091BA069091BB067F
:10173000A091BC06B091BD068093580C9093590CB3
:10174000A0935A0CB0935B0C80912B0C882321F052
:1017500081EF9BE00E949213C0905C0CD0905D0CD6
:10176000E0905E0CF0905F0C20E030E040EA50E446
:10177000C701B6010E94704A22EC35EF48EC5FE3E6
:101780000E94414C20E030E040EF51E40E94E24AE8
:1017900020E030E040E05FE30E94714A4B015C01D1
:1017A0002091540C3091550C4091560C5091570C8F
:1017B000C701B6010E94704A20E030E0A9010E94F2
:1017C0003C4CA501940187FD0BC060914C0C7091BD
:1017D0004D0C80914E0C90914F0C0E94714A0AC0A2
:1017E00060914C0C70914D0C80914E0C90914F0C6F
:1017F0000E94704A60934C0C70934D0C80934E0C79
:1018000090934F0C80904C0C90904D0CA0904E0CEF
:10181000B0904F0C20E030E040E05FE3C501B40140
:101820000E94DD4A87FF05C080E090E0A0E0BFE3B2
:101830000EC021EE3AE744E050E4C501B4010E9435
:101840003C4C181664F481EE9AE7A4E0B0E480936F
:101850004C0C90934D0CA0934E0CB0934F0C42E067
:10186000C701B6010E942A1889E00E9425186091DC
:10187000580C7091590C80915A0C90915B0C42E07D
:101880000E942A1889E00E9425186091540C7091DA
:10189000550C8091560C9091570C42E00E942A18EA
:1018A00089E00E94251860914C0C70914D0C80913C
:1018B0004E0C90914F0C42E00E942A180E94B61ED6
:1018C00060914C0C70914D0C80914E0C90914F0C8E
:1018D0000E94BC1E0E94E4036091E2067091E30640
:1018E00080E090E00E948A4B9B01AC016091BA06B7
:1018F0007091BB068091BC069091BD060E943C4C45
:1019000087FDA1C081E08093600C9DC08091600C38
:10191000811116C06091E2067091E30680E090E0CC
:101920000E948A4B8B019C014091BE065091BF06DC
:101930006091C0067091C10682E00E94E91602C063
:101940001092600C0E9404036093BB077093BC0765
:101950008093BD079093BE076093A50C7093A60C6F
:101960008093A70C9093A80C6DEC7CEC8CEC9EE320
:101970000E94BC1E82E090E09093C4078093C3074E
:1019800090939E0C80939D0C5EC02091500C3091E2
:10199000510C4091520C5091530CC701B6010E945A
:1019A000704A6B017C012DEC3CEC4CEC5EE30E9438
:1019B000DD4A87FF3FC08DEC9CECACECBEE380932E
:1019C0004C0C90934D0CA0934E0CB0934F0C0E9476
:1019D000E40340916D0C50916E0C60916F0C70910E
:1019E000700C8091610C9091620CA091630CB0918D
:1019F000640C840F951FA61FB71F80936D0C9093E6
:101A00006E0CA0936F0CB093700C60914C0C7091A5
:101A10004D0C80914E0C90914F0C0E94BC1E0E9468
:101A2000B51D6093B7077093B8078093B90790937B
:101A3000BA0709C0C0924C0CD0924D0CE0924E0CEB
:101A4000F0924F0CC4CFDF91CF911F910F91FF9077
:101A5000EF90DF90CF90BF90AF909F908F907F904E
:101A60006F905F904F900895DC01ED91FC9106849A
:101A7000F785E02D40E019948F929F92AF92BF922C
:101A8000CF92DF92EF92FF920F931F93CF93DF934A
:101A9000EC01423018F08C8188608C834F8368871A
:101AA000222329F0413019F48C8184608C830E94B8
:101AB000901D6B017C0184E6882E912CA12CB12C09
:101AC0000E94901DDC01CB018C199D09AE09BF0954
:101AD000883E9340A105B10598F321E0821A910850
:101AE000A108B10888EEC80E83E0D81EE11CF11CE5
:101AF00081149104A104B10419F76C8164FD31C013
:101B0000E881F9810684F785E02D42E063E0CE01AB
:101B100019958BE496E40197F1F7E881F981068441
:101B2000F785E02D42E063E0CE01199503E512E070
:101B3000C8010197F1F7E881F9810684F785E02D66
:101B400042E063E0CE011995C8010197F1F7E88101
:101B5000F9810684F785E02D42E062E0CE01199517
:101B600017C06062CE010E94340D8BE496E40197A9
:101B7000F1F76C816062CE010E94340D03E512E042
:101B8000C8010197F1F76C816062CE010E94340DAB
:101B9000C8010197F1F76C816062CE010E94340D9B
:101BA0008BEE90E00197F1F784E08D836CE0CE013D
:101BB0000E94340D61E0CE010E94340D8BE39FE161
:101BC0000197F1F782E08E8366E0CE010E94340D2A
:101BD000E881F9810484F585E02D6FEFCE01DF9176
:101BE000CF911F910F91FF90EF90DF90CF90BF901A
:101BF000AF909F908F9019940895CF92DF92EF92BB
:101C0000FF920F931F93CF93DF936C017A018B01A7
:101C1000C0E0D0E0CE15DF0581F0D8016D918D01D7
:101C2000D601ED91FC910190F081E02DC60119954E
:101C3000892B11F02196EECF7E01C701DF91CF9164
:101C40001F910F91FF90EF90DF90CF900895FC01CE
:101C5000538D448D252F30E0842F90E0821B930B11
:101C6000541710F0CF96089501970895FC01918DB7
:101C7000828D981761F0828DDF01A80FB11D5D96EE
:101C80008C91928D9F5F9F73928F90E008958FEF5C
:101C90009FEF0895FC01918D828D981731F0828D10
:101CA000E80FF11D858D90E008958FEF9FEF089567
:101CB000FC01918D228D892F90E0805C9F4F821BCB
:101CC00091098F739927089585E29BE00E94580E31
:101CD00021E0892B09F420E0822F0895FC01848DF6
:101CE000DF01A80FB11DA35ABF4F2C91848D90E046
:101CF00001968F739927848FA689B7892C93A08921
:101D0000B1898C91837080648C93938D848D9813AA
:101D100006C00288F389E02D80818F7D808308953D
:101D2000EF92FF920F931F93CF93DF93EC0181E02B
:101D3000888F9B8D8C8D981305C0E889F9898081E7
:101D400085FD26C0F62E0B8D10E00F5F1F4F0F7321
:101D50001127E02E8C8DE8120CC00FB607FCFACFCD
:101D6000E889F989808185FFF5CFCE010E946E0E4A
:101D7000F1CF8B8DFE01E80FF11DE35AFF4FF0828A
:101D80009FB7F8940B8FEA89FB89808180620AC033
:101D90009FB7F894EE89FF896083E889F98980818B
:101DA0008370806480839FBF81E090E0DF91CF915A
:101DB0001F910F91FF90EF900895CF93DF93EC0167
:101DC000888D8823C9F0EA89FB89808185FD05C05B
:101DD000A889B9898C9186FD0FC00FB607FCF5CF95
:101DE000808185FFF2CFA889B9898C9185FFEDCFDD
:101DF000CE010E946E0EE7CFDF91CF9108950E9431
:101E0000640E811125C080E090E0892B41F080E0D4
:101E100090E0892B21F00E94000081111CC080E01D
:101E200090E0892B41F080E090E0892B21F00E9426
:101E30000000811113C080E090E0892BA1F080E0C8
:101E400090E0892B81F00E94000081110AC0089562
:101E50000E94CC05D8CF0E940000E1CF0E94000074
:101E6000EACF0C940000089585ED8093BC0080912A
:101E7000BC0084FDFCCF1092E70A089540918F0AC0
:101E8000262F30E0240F311D21323105DCF4209162
:101E9000E70A2430C9F4FC0180E090E0861758F48A
:101EA00030918F0A2191DC01A159B54FA30FB11DCB
:101EB0002C930196F3CF80918F0A680F60938F0A5D
:101EC00080E0089581E0089582E0089508950895DE
:101ED0000895E091E9058091E805E81730F4F0E015
:101EE000E651FA4F808190E008958FEF9FEF0895BB
:101EF0009091E9058091E805981750F4E92FF0E0FA
:101F0000E651FA4F208130E09F5F9093E90502C0CF
:101F10002FEF3FEFC90108958091E80590E02091EF
:101F2000E905821B91090895CF92DF92EF92FF920B
:101F30000F931F93CF93DF937C01CB018A012091F4
:101F4000E80A222389F0EB016B01C40ED51ECC15E3
:101F5000DD0569F06991D701ED91FC910190F08167
:101F6000E02DC7011995F3CF642F0E943E0FC801E1
:101F7000DF91CF911F910F91FF90EF90DF90CF9065
:101F80000895CF93DF931F92CDB7DEB76983209179
:101F9000E80A2223D1F020910B0B203240F021E0FF
:101FA00030E0FC013383228380E090E015C0809113
:101FB000E90AE82FF0E0E651F54F998190838F5FB1
:101FC0008093E90A80930B0B05C061E0CE01019676
:101FD0000E943E0F81E090E00F90DF91CF91089535
:101FE0000E94B34C1F920F920FB60F9211240BB6A2
:101FF0000F922F933F934F935F936F937F938F93A2
:102000009F93AF93BF93EF93FF93E0910F02F091F3
:1020100010021995FF91EF91BF91AF919F918F9110
:102020007F916F915F914F913F912F910F900BBED8
:102030000F900FBE0F901F9018951F920F920FB622
:102040000F9211240BB60F922F933F934F935F93F0
:102050006F937F938F939F93AF93BF93EF93FF9370
:10206000E0910D02F0910E021995FF91EF91BF9151
:10207000AF919F918F917F916F915F914F913F9120
:102080002F910F900BBE0F900FBE0F901F901895C1
:102090001F920F920FB60F9211240BB60F922F932F
:1020A0003F934F935F936F937F938F939F93AF93E0
:1020B000BF93EF93FF93E0910302F091040219950F
:1020C000FF91EF91BF91AF919F918F917F916F9110
:1020D0005F914F913F912F910F900BBE0F900FBECC
:1020E0000F901F9018951F920F920FB60F92112408
:1020F0000BB60F922F933F934F935F936F937F9302
:102100008F939F93AF93BF93EF93FF93E09101025F
:10211000F09102021995FF91EF91BF91AF919F91BC
:102120008F917F916F915F914F913F912F910F9080
:102130000BBE0F900FBE0F901F9018951F920F921D
:102140000FB60F9211240BB60F922F933F934F931C
:102150005F936F937F938F939F93AF93BF93EF930F
:10216000FF93E0910B02F0910C021995FF91EF9112
:10217000BF91AF919F918F917F916F915F914F919F
:102180003F912F910F900BBE0F900FBE0F901F909D
:1021900018951F920F920FB60F9211240BB60F9243
:1021A0002F933F934F935F936F937F938F939F935F
:1021B000AF93BF93EF93FF93E0910902F0910A026E
:1021C0001995FF91EF91BF91AF919F918F917F9161
:1021D0006F915F914F913F912F910F900BBE0F9098
:1021E0000FBE0F901F9018951F920F920FB60F926F
:1021F00011240BB60F922F933F934F935F936F93DE
:102200007F938F939F93AF93BF93EF93FF93E0914F
:102210000702F09108021995FF91EF91BF91AF91DC
:102220009F918F917F916F915F914F913F912F91EE
:102230000F900BBE0F900FBE0F901F9018951F921E
:102240000F920FB60F9211240BB60F922F933F935C
:102250004F935F936F937F938F939F93AF93BF93AE
:10226000EF93FF93E0910502F09106021995FF911B
:10227000EF91BF91AF919F918F917F916F915F91FE
:102280004F913F912F910F900BBE0F900FBE0F906B
:102290001F9018951F920F920FB60F9211240BB634
:1022A0000F922F933F934F935F936F937F938F93EF
:1022B0009F93AF93BF93EF93FF938091BD0A90914B
:1022C000BE0AA091BF0AB091C00A892B8A2B8B2B22
:1022D00059F19091BA0AE091BB0AF091BC0A808151
:1022E000892780838091BD0A9091BE0AA091BF0A80
:1022F000B091C00A181619061A061B060CF056C033
:102300008091BD0A9091BE0AA091BF0AB091C00A07
:102310000197A109B1098093BD0A9093BE0AA093C9
:10232000BF0AB093C00A42C080910002E2EBF4E021
:10233000E4919FEF90930002E230C9F050F4EE2355
:1023400099F0E13081F590916F009D7F90936F003F
:102350002AC0E43019F1E0F0E53029F590917300DE
:102360009D7F909373001FC010926E001CC09091CF
:1023700070009D7F9093700091E09093B0009091D9
:10238000B100987F94609093B1001092B3000BC09D
:10239000909171009D7F9093710005C090917200A3
:1023A0009D7F9093720060E00E94B219FF91EF91BF
:1023B000BF91AF919F918F917F916F915F914F915D
:1023C0003F912F910F900BBE0F900FBE0F901F905B
:1023D00018956115710579F0FB0101900020E9F76E
:1023E0003197AF01461B570BDC01ED91FC91028048
:1023F000F381E02D199480E090E008950C94E911A8
:102400001F920F920FB60F9211240BB60F922F93BB
:102410003F934F935F936F937F938F939F93AF936C
:10242000BF93EF93FF9385E29BE00E946E0EFF91B6
:10243000EF91BF91AF919F918F917F916F915F913C
:102440004F913F912F910F900BBE0F900FBE0F90A9
:102450001F9018951F920F920FB60F9211240BB672
:102460000F922F938F939F93EF93FF93E091350BF0
:10247000F091360B8081E0913B0BF0913C0B82FD9B
:1024800012C0908180913E0B8F5F8F7320913F0B24
:10249000821751F0E0913E0BF0E0EB5DF44F958F29
:1024A00080933E0B01C08081FF91EF919F918F91AE
:1024B0002F910F900BBE0F900FBE0F901F9018958D
:1024C0001F920F920FB60F9211240BB60F922F93FB
:1024D0003F934F935F936F937F938F939F93AF93AC
:1024E000BF93EF93FF938091B900887F803609F402
:1024F0009CC068F5883209F45BC090F4803109F41F
:1025000054C038F4882309F4F6C0883009F44DC06B
:10251000F6C0883109F44CC0803209F45DC0EFC0C8
:10252000803409F468C048F4803309F455C0883316
:1025300009F0E5C08093E50AD8C0803509F44FC0A2
:10254000883509F45DC0883409F0D9C0D6C088390F
:1025500009F4C7C0A8F4883709F467C038F488368E
:1025600009F463C0803709F460C0C9C0883809F431
:10257000B8C0803909F45FC0803809F0C0C05BC0C2
:10258000803B09F486C038F4803A09F466C0883A82
:1025900009F47FC0B4C0803C09F4A7C0883C09F4AA
:1025A000A4C0883B09F48AC0AAC08091C20A10C0A6
:1025B0009091E40A8091E30A981770F5E091E40A9B
:1025C00081E08E0F8093E40AF0E0ED53F54F8081B7
:1025D0008093BB0085EC86C08093E50A8EC0E091B5
:1025E000E40A81E08E0F8093E40A8091BB00F0E062
:1025F000ED53F54F80839091E40A8091E30A6EC019
:10260000E091E40A81E08E0F8093E40A8091BB00A0
:10261000F0E0ED53F54F80838091E60A81116DC0A3
:1026200081E08093C10A84EA61C083E08093E70A75
:102630001092B10ACFCF8091B10A803208F051C018
:10264000E091B10A81E08E0F8093B10A8091BB00C6
:10265000F0E0EF56F54F8083BDCF85EC8093BC0052
:102660001092E70A8091B10A803230F4E091B10A09
:10267000F0E0EF56F54F10826091B10A70E0E09102
:10268000E405F091E50581E99AE019951092B10A07
:1026900036C084E08093E70A1092900A10928F0A65
:1026A000E091E605F091E705199580918F0A811177
:1026B00005C081E080938F0A10926F0AE091900A22
:1026C00081E08E0F8093900AF0E0E159F54F808110
:1026D0008093BB009091900A80918F0A981708F41C
:1026E00079CF85E88093BC000AC085EC8093BC005C
:1026F0001092E70A04C01092E50A0E94340FFF917D
:10270000EF91BF91AF919F918F917F916F915F9169
:102710004F913F912F910F900BBE0F900FBE0F90D6
:102720001F9018952F923F924F925F926F927F92D7
:102730008F929F92AF92BF92CF92DF92EF92FF92D1
:102740000F931F93CF93DF93CDB7DEB72F970FB6BD
:10275000F894DEBF0FBECDBF9F878E870E94B51D48
:102760006D837E838F839887EE85FF8582A193A1F9
:10277000A4A1B5A14D815E816F817885481B590B5D
:102780006A0B7B0B86A597A5A0A9B1A94817590785
:102790006A077B0708F40EC1048CF58DE02D80815B
:1027A0009181A281B38189839A83AB83BC83AE85F7
:1027B000BF859096ED91FC91919729813A814B814B
:1027C0005C8160817181828193810E94704A4B019A
:1027D0005C01EE85FF8522A533A544A555A5698139
:1027E0007A818B819C810E94704A6B017C01AE854D
:1027F000BF8550962D913D914D915C915397C501A8
:10280000B4010E94414CEE85FF8526A137A140A569
:1028100051A50E94714A2B013C01AE85BF85969659
:102820006D937D938D939C939997DB96BC91B9871B
:10283000B11118C0EE85FF852485358546855785FD
:10284000C701B6010E94414C9B01AC01C301B2011A
:102850000E94704AAE85BF8596966D937D938D9349
:102860009C939997EE85FF8546A057A060A471A41C
:1028700016A907A930AC21AC212F302F432D522DA2
:10288000C301B2010E943C4C18162CF4812F902FEA
:10289000A32DB22D18C0AE85BF85D2968D919D9186
:1028A0000D90BC91A02D8A879B87AC87BD879C012A
:1028B000AD01C301B2010E94DD4A87FF0AC08A85CB
:1028C0009B85AC85BD85EE85FF8586A397A3A0A7D4
:1028D000B1A7F985FF2379F0AE85BF851C962D91B0
:1028E0003D914D915C911F97C501B4010E94414CEF
:1028F0004B015C0103C0812C912C5401EE85FF85B6
:102900002489358946895789C701B6010E94414CFF
:102910009B01AC01AE85BF8596966D917D918D91A1
:102920009C9199970E94704AA50194010E94714A56
:102930006B017C019B01AC01612F702F832D922DC7
:102940000E94DD4A87FD14C0EE85FF8512A903A908
:1029500034A825A8212F302F432D522DB601C701B1
:102960000E94DD4A87FD04C01C2D0D2D3E2C2F2C0E
:10297000AE85BF855E96ED91FC915F97812F902F7C
:10298000A32DB22D80839183A283B38389819A8101
:10299000AB81BC81EE85FF8582A793A7A4A7B5A7CD
:1029A0008D819E81AF81B88582A393A3A4A3B5A393
:1029B00081E001C080E02F960FB6F894DEBF0FBE15
:1029C000CDBFDF91CF911F910F91FF90EF90DF90DE
:1029D000CF90BF90AF909F908F907F906F905F90BF
:1029E0004F903F902F9008958F929F92AF92BF92F9
:1029F000CF92DF92EF92FF92CF93DF93EC01EE8DB7
:102A0000FF8DC080D180E280F380CEA2DFA2E8A655
:102A1000F9A6EC8DFD8D80819181A281B3818AA779
:102A20009BA7ACA7BDA78EA89FA8A8ACB9ACA501D1
:102A30009401C701B6010E943C4C181664F08AA8A4
:102A40009BA8ACA8BDA8A5019401C701B6010E942E
:102A5000DD4A87FF04C08EA29FA2A8A6B9A6DF9177
:102A6000CF91FF90EF90DF90CF90BF90AF909F906D
:102A70008F9008950E94B51D60936B0A70936C0A45
:102A800080936D0A90936E0A80E00895CF92DF9252
:102A9000EF92FF920F931F936115710581059105C8
:102AA00041F41F910F91FF90EF90DF90CF900C9425
:102AB0003A156B017C010E94B51D00916B0A1091C3
:102AC0006C0A20916D0A30916E0ADC01CB01801BEB
:102AD000910BA20BB30B21E0C816D906EA06FB0640
:102AE00008F020E0822F1F910F91FF90EF90DF9070
:102AF000CF9008958F929F92AF92BF92EF92FF92E4
:102B00000F931F93CF93DF93C82FD0E08E01000F58
:102B1000111F0F5F154FF8012081318121153105FB
:102B200021F021303105A1F16FC00E948919009771
:102B300019F00197A1F16BC00E94B51D9E01220FF3
:102B4000331F220F331FA901435D564F7A01FA014B
:102B500080809180A280B380DC01CB018819990923
:102B6000AA09BB090697A105B10508F450C081E088
:102B700090E0F80191838083C859D94F88830E94DF
:102B8000B51DF701608371838283938381E040C028
:102B90000E948919009719F0019771F038C00E94BE
:102BA000B51DCC0FDD1FCC0FDD1FC35DD64F688375
:102BB00079838A839B832BC00E94B51D9E01220FBF
:102BC000331F220F331FA901435D564F7A01FA01CB
:102BD00080809180A280B380DC01CB0188199909A3
:102BE000AA09BB090697A105B10588F0F801118271
:102BF0001082C859D94F18820E94B51DF701608311
:102C000071838283938303C0F8011182108280E074
:102C1000DF91CF911F910F91FF90EF90BF90AF90F8
:102C20009F908F90089561E08EEC9BE00E94340DA0
:102C30008BE39FE10197F1F70895CF92DF92EF9236
:102C4000FF920F931F93CF93DF93CDB7DEB72897F3
:102C50000FB6F894DEBF0FBECDBF8A01C090F00260
:102C6000D090F102E090F202F090F302CD82DE8289
:102C7000EF82F886C090F402D090F502E090F60260
:102C8000F090F702C982DA82EB82FC829091D50B38
:102C9000691710F06FEF690F4091D60B262F30E0C7
:102CA000FE01E20FF31F403121F4943011F46181F1
:102CB00001C06581680F60688EEC9BE00E94340D56
:102CC000B8018EEC9BE028960FB6F894DEBF0FBEDD
:102CD000CDBFDF91CF911F910F91FF90EF90DF90CB
:102CE000CF900C94FE11AF92BF92CF92DF92EF92F1
:102CF0000F931F93CF935B016A01C22FAC0160E079
:102D000080E00E941D16A50160E088E00E941D166B
:102D1000A60161E08C2F0E941D16A80161E08E2D96
:102D2000CF911F910F91EF90DF90CF90BF90AF9018
:102D30000C941D16E6E1F6E080E0928191118F5F20
:102D4000399696E0EE35F907C1F70895382F21E05E
:102D500049E0932F920F892F8770489FF00111242B
:102D6000EA5EF94F9281911103C02F5F293089F7F4
:102D700008958091600681110AC0E1E6F6E0819134
:102D8000811107C096E0E836F907C9F70895109257
:102D9000600608958091170681110BC0E6E1F6E008
:102DA0008281811108C0399696E0EE35F907C1F7A6
:102DB000089510921706089590911606992341F0F0
:102DC00091E090936006E82FF0E0EF59F94F90837F
:102DD00008950F931F9390911606992391F091E017
:102DE00090931706A9E08A9FF0011124EA5EF94F3B
:102DF0009283438354836583768307831087218777
:102E000032871F910F91089520E042E060E18EEC3F
:102E10009BE00E943C0D62E08EEC9BE00E94340D32
:102E20008BE39FE10197F1F70E94131642EB55E007
:102E300060E080E00E941D1643EC55E061E080E018
:102E40000E941D1661E08CE00E94E11961E087E0BC
:102E50000E94E1191092160644EF51E060E070E024
:102E600084EF91E00E941D1A1092B5061092B406EC
:102E700010929E0610929D0662E08AE20E94E1197D
:102E800062E08CE20E94E11962E08EE20E94E119A8
:102E900062E080E30E94E11962E088E20E94E119A9
:102EA0000E943A15EFE9F6E082E0828384EF91E038
:102EB000978786878EE090E0918B808B82E090E010
:102EC000938B828B8EE085838EE1868387E0878378
:102ED00089E183838AE084838EE190E0938782870F
:102EE00087E090E0958784878EEF848B84E190E083
:102EF000918780870895CF93C82F0E94B51D24E045
:102F0000C29FF0011124E65FF94F608371838283D1
:102F1000938380E0CF91089590E0FC013197E231F6
:102F2000F10508F04EC08827E255FF4F8F4F0C94F3
:102F30003A4A809180008F7703C0809180008F7D16
:102F400080938000089580918000877FF9CF84B5B9
:102F50008F7702C084B58F7D84BD08958091B000C5
:102F60008F7703C08091B0008F7D8093B00008956B
:102F7000809190008F7707C0809190008F7D03C073
:102F800080919000877F8093900008958091A000A9
:102F90008F7707C08091A0008F7D03C08091A00033
:102FA000877F8093A0000895809120018F7707C0CC
:102FB000809120018F7D03C080912001877F8093C5
:102FC000200108958F929F92AF92BF920F931F930B
:102FD000CF93DF93CDB7DEB7A1970FB6F894DEBFDE
:102FE0000FBECDBF19A2423008F44AE08E010F5D3A
:102FF0001F4F842E912CA12CB12CA50194010E946D
:10300000F949E62FB901CA0101501109EA3014F457
:10301000E05D01C0E95CD801EC93232B242B252B28
:1030200061F7B80185E29BE00E94E911A1960FB615
:10303000F894DEBF0FBECDBFDF91CF911F910F91EE
:10304000BF90AF909F908F900895682F85E29BE08E
:103050000C94900E8F929F92AF92BF92CF92DF927C
:10306000EF92FF920F931F93CF93DF936B017C013D
:10307000142F9B01AC010E94AE4C882319F064ED23
:1030800075E027C046015701E894B7F82FEF3FEFEE
:103090004FE75FE7C501B4010E94AE4C81110DC03E
:1030A0002FEF3FEF4FE75FE7C501B4010E94DD4A14
:1030B00018161CF468ED75E00CC02FEF3FEF4FE7DA
:1030C0005FE4C701B6010E943C4C181694F46CED05
:1030D00075E085E29BE0DF91CF911F910F91FF900A
:1030E000EF90DF90CF90BF90AF909F908F900C9417
:1030F000E9112FEF3FEF4FE75FECC701B6010E94E8
:10310000DD4A87FDE4CF20E030E0A901C701B60128
:103110000E94DD4A87FF09C08DE20E942518EC015C
:10312000F7FAF094F7F8F09402C0C0E0D0E000E0C5
:1031300060E070E080E09FE3101741F020E030E0B5
:1031400040E251E40E94E24A0F5FF6CFA7019601E8
:103150000E94714A6B017C010E945B4B4B015C0138
:103160004AE00E94E217C80FD91F1123A9F1C50137
:10317000B4010E948A4B9B01AC01C701B6010E94B9
:10318000704A6B017C018EE20E942518C80FD91F7E
:1031900020E030E040E251E4C701B6010E94414C1A
:1031A0004B015C010E945B4B6B01E12CF12C4AE06E
:1031B000C701B6010E94E217C80FD91FC701B601A7
:1031C0000E948A4B9B01AC01C501B4010E94704A68
:1031D0006B017C011150E1F6CE01DF91CF911F917F
:1031E0000F91FF90EF90DF90CF90BF90AF909F90A6
:1031F0008F900895282F30910B0B313208F04AC080
:103200008091E70A8111FCCF90910A0B42E0409334
:10321000E70A2093E60A2FEF2093E50A1092E40ACA
:103220003093E30AEAEEFAE0A3ECBAE020E03217CA
:1032300021F041914D932F5FFACF1092C20A209155
:10324000C20A990F922B9093C20A9091C10A9130B1
:1032500061F41092C10A9091C20A9093BB009091C0
:10326000BC0093FDF8CF95EC01C095EE9093BC00A7
:103270009091E70A9230E1F39091E50A9F3F79F04F
:103280008091E50A803241F08091E50A803331F087
:1032900084E005C081E003C082E001C083E01092B9
:1032A000E90A10920B0B1092E80A0895682F82EC3D
:1032B0009BE00C94C10FCF92DF92EF92FF92CF93DD
:1032C000DF936C01990FEE08FF08F7FE17C08DE23F
:1032D0000E942518EC0166277727CB016C197D0920
:1032E0008E099F094AE00E94E2178C0F9D1FDF9113
:1032F000CF91FF90EF90DF90CF9008954AE0C70103
:10330000B601DF91CF91FF90EF90DF90CF900C94BA
:10331000E217CF93DF93282F30E0F901ED54FB4FF4
:103320008491F901E750FB4FD491F901E75AFA4F24
:10333000C491CC2391F081110E948C17EC2FF0E006
:10334000EE0FFF1FE15CFA4FA591B491EC91ED23D4
:1033500081E090E021F480E002C080E090E0DF9125
:10336000CF9108951F93CF93DF93282F30E0F90179
:10337000ED54FB4F8491F901E750FB4FD491F901D3
:10338000E75AFA4FC491CC23C1F0162F81110E9445
:103390008C17EC2FF0E0EE0FFF1FE856FB4FA591C6
:1033A000B4919FB7F894111104C08C91D095D82393
:1033B00002C0EC91DE2BDC939FBFDF91CF911F9178
:1033C0000895CF93DF9390E0FC01E750FB4F2491E9
:1033D000FC01E75AFA4F8491882361F190E0880F4D
:1033E000991FFC01E258FB4FC591D491FC01E856AE
:1033F000FB4FA591B491611109C09FB7F8948881E2
:10340000209582238883EC912E230BC0623061F4D7
:103410009FB7F8948881322F309583238883EC916D
:103420002E2B2C939FBF06C08FB7F894E8812E2BCC
:1034300028838FBFDF91CF9108954F925F926F9253
:103440007F928F929F92AF92BF92CF92DF92EF9234
:10345000FF920F931F93CF93DF9300D01F921F9281
:10346000CDB7DEB78C012A013B0180910002873085
:1034700021F08F3F09F01FC305C0E2EBF4E0249177
:103480002D83D9C087E080930002E2EBF4E08491C1
:103490008D838F3F09F40FC3823009F468C028F58B
:1034A000882309F44BC0813009F0C5C01092800018
:1034B00010928100809181008860809381008091CA
:1034C0008100816080938100E0E6F5E0E491F0E026
:1034D000EE0FFF1FE856FB4F85919491E0E0F5E079
:1034E000E491E0930F0B21E0A4C09D81943009F496
:1034F00082C008F460C0953009F09DC01092200190
:103500001092210180912101886080932101809196
:103510002101816080932101E0E6F5E0E491F0E093
:10352000EE0FFF1FE856FB4F85919491E0E0F5E028
:10353000E491E0930C0B85E08D8307C114BC15BCAE
:1035400084B5826084BD85B5816085BDE0E6F5E027
:10355000E491F0E0EE0FFF1FE856FB4F8591949148
:10356000E0E0F5E0E491E093100B1D829FC2109221
:10357000B0001092B1008091B00082608093B000E2
:103580008091B10081608093B100E0E6F5E0E491C4
:10359000F0E0EE0FFF1FE856FB4F8591949190935A
:1035A000BC0A8093BB0AE0E0F5E0E491E093BA0A3C
:1035B00082E08D837BC210929000109291008091E6
:1035C0009100886080939100809191008160809348
:1035D0009100E0E6F5E0E491F0E0EE0FFF1FE85621
:1035E000FB4F85919491E0E0F5E0E491E0930E0BC0
:1035F00093E09D83AAC01092A0001092A100809138
:10360000A10088608093A1008091A10081608093D7
:10361000A100E0E6F5E0E491F0E0EE0FFF1FE856D0
:10362000FB4F85919491E0E0F5E0E491E0930D0B80
:1036300024E02D838AC09D8197FD3DC261E087E033
:103640000E94E1198D818D7F09F083C04801A12C72
:10365000B12C60E072E18AE790E0A50194010E943C
:103660001B4A29833A834B835C8369017A0121E0F9
:10367000C21AD108E108F1088FEFC816D104E1049D
:10368000F10409F008F44EC060E472E48FE090E0C9
:10369000A50194010E941B4A69017A0191E0C91AAF
:1036A000D108E108F1082D81223009F58FEFC81605
:1036B000D104E104F10409F008F4BFC160E970ED40
:1036C00083E090E0A50194010E941B4A69017A0100
:1036D00091E0C91AD108E108F1082FEFC216D10410
:1036E000E104F10411F008F036C183E027C08FEF48
:1036F000C816D104E104F104B9F0B0F068E478EE42
:1037000081E090E0A50194010E941B4A69017A01C1
:1037100091E0C91AD108E108F1082D81222309F4AA
:1037200090C158C181E001C082E09D81911106C025
:1037300095B5987F892B85BD7FC085E09091B100BC
:10374000987F892B8093B10077C061E087E00E9469
:10375000E1194801A12CB12C60E072E18AE790E008
:10376000A50194010E941B4A69017A0181E0C81AEF
:10377000D108E108F108C114D10491E0E906F1048F
:1037800088F068E478EE81E090E0A50194010E9461
:103790001B4A69017A0181E0C81AD108E108F108E1
:1037A00083E001C081E09D81913081F4909181009E
:1037B000987F892B80938100411451046104710426
:1037C00009F03FC02FEF3FEFA9016DC02D812330DD
:1037D00079F490919100987F892B80939100411406
:1037E00051046104710469F52FEF3FEFA9017DC019
:1037F0009D81943079F49091A100987F892B8093DA
:10380000A1004114510461047104D9F42FEF3FEF7A
:10381000A9017DC02D81253079F490912101987FF7
:10382000892B80932101411451046104710449F4EE
:103830002FEF3FEFA9017DC04114510461047104D1
:1038400071F0D801AA0FBB1FA30192010E94424A46
:1038500028EE33E040E050E00E94F94903C02FEF2A
:103860003FEFA9018D81823081F12CF4882361F032
:103870008130C9F020C19D81943009F448C0ACF179
:10388000953009F456C017C1C7BC2093210B309363
:10389000220B4093230B5093240B80916E00826087
:1038A00080936E0008C1D0928900C0928800209356
:1038B0001D0B30931E0B40931F0B5093200B8091D8
:1038C0006F00826080936F00F6C0C092B3002093B7
:1038D000BD0A3093BE0A4093BF0A5093C00A80913C
:1038E0007000826080937000E6C0D0929900C09210
:1038F00098002093190B30931A0B40931B0B509395
:103900001C0B80917100826080937100D4C0D092B2
:10391000A900C092A8002093150B3093160B40937A
:10392000170B5093180B8091720082608093720085
:10393000C2C0D0922901C09228012093110B30936C
:10394000120B4093130B5093140B80917300826001
:1039500080937300B0C068E478EE81E090E0A50148
:1039600094010E941B4A69017A0181E0C81AD108BA
:10397000E108F1089FEFC916D104E104F10441F117
:1039800038F164E274EF80E090E0A50194010E94B8
:103990001B4A69017A0181E0C81AD108E108F108DF
:1039A0009FEFC916D104E104F10409F008F4C5CE73
:1039B00062E17AE780E090E0A50194010E941B4A51
:1039C00069017A0181E0C81AD108E108F10818C03C
:1039D00084E0B4CE2FEFC216D104E104F10479F1F2
:1039E00070F162E17AE780E090E0A50194010E9425
:1039F0001B4A69017A0191E0C91AD108E108F1086E
:103A00008FEFC816D104E104F104A9F0A0F0898178
:103A10009A81AB81BC812AE0B595A795979587954A
:103A20002A95D1F76C017D0121E0C21AD108E10885
:103A3000F10887E083CE86E081CE82E07FCE84E00D
:103A400074CE2FEFC216D104E104F10469F160F1E4
:103A500062E17AE780E090E0A50194010E941B4AB0
:103A600069017A0181E0C81AD108E108F1089FEFE5
:103A7000C916D104E104F104A9F0A0F089819A816A
:103A8000AB81BC813AE0B595A795979587953A9516
:103A9000D1F76C017D0121E0C21AD108E108F108DB
:103AA00085E046CE84E044CE83E042CE61E087E00C
:103AB0000E94E119CBCD0F900F900F900F900F90B7
:103AC000DF91CF911F910F91FF90EF90DF90CF90FA
:103AD000BF90AF909F908F907F906F905F904F902E
:103AE0000895863308F0865390917B00282F287024
:103AF000977F922B90937B008770806480937C00EB
:103B000080917A00806480937A0080917A0086FDAB
:103B1000FCCF809178002091790090E0922B08955D
:103B20003FB7F8948091B60A9091B70AA091B80A6D
:103B3000B091B90A26B5A89B05C02F3F19F0019690
:103B4000A11DB11D3FBFBA2FA92F982F8827820F23
:103B5000911DA11DB11DBC01CD0142E0660F771F73
:103B6000881F991F4A95D1F708952FB7F89460914F
:103B7000B20A7091B30A8091B40A9091B50A2FBF2E
:103B800008954F925F926F927F928F929F92AF9221
:103B9000BF92CF92DF92EF92FF920F931F93CF933A
:103BA000DF93CDB7DEB74C01DC015F965C934E939B
:103BB0005E975D967C936E935C9791963C932E9363
:103BC0009097DA961C92FC0112AA13AA14AA15AABD
:103BD00080E090E0AFE7B3E486AB97ABA0AFB1AFC6
:103BE00084E690E0A0E0B0E086A797A7A0ABB1ABD9
:103BF000118E108E20E030E0A901C801B7010E94AB
:103C0000DD4A87FD56C020E030E0A901C601B501BC
:103C10000E94DD4A87FD4DC020E030E0A9016C899B
:103C20007D898E899F890E94DD4A87FD42C081E09F
:103C300090E0D4015B969C938E935A97DB968C937D
:103C4000DB97F401E082F182028313831496AD9234
:103C5000BD92CD92DC9217978C899D89AE89BF89E0
:103C600080879187A287B387D4011C96ED92FD923D
:103C70000D931C931F972DEC3CEC4CEC5DE3C601BF
:103C8000B5010E94414CF401608B718B828B938B48
:103C90002DEC3CEC4CEC5DE36C897D898E899F8931
:103CA0000E94E24AD40154966D937D938D939C9328
:103CB00057970E94B51DF401C6A4D7A4E0A8F1A8A7
:103CC000DC01CB018C199D09AE09BF0982A393A326
:103CD000A4A3B5A3DF91CF911F910F91FF90EF9017
:103CE000DF90CF90BF90AF909F908F907F906F901C
:103CF0005F904F900895AF92BF92CF92DF92EF9274
:103D0000FF920F931F93CF93DF938C015C018EE0A2
:103D1000A80EB11CC42ED12CC0E0D0E0E62EF12CB0
:103D2000CC15DD0579F0B7010C2E02C075956795AD
:103D30000A94E2F76170F50181915F010E94B21966
:103D40002196EECF61E0F80185850E94B21960E00E
:103D5000F8018585DF91CF911F910F91FF90EF9032
:103D6000DF90CF90BF90AF900C94B21960EE75E0E9
:103D700085E29BE00C94E911CF92DF92EF92FF92E3
:103D8000CF93DF936B017C0120E030E0A9010E941A
:103D9000DD4A87FF06C0F7FAF094F7F8F09460E088
:103DA00001C061E084E00E94B21921EE3AE744E0EC
:103DB00050E4C701B6010E94E24A20E030E04FE73C
:103DC00053E40E94414C0E94544B6B017C01EB0177
:103DD00061E085E00E94E119209711F460E004C0E1
:103DE000CF3FD10551F461E085E0DF91CF91FF90A5
:103DF000EF90DF90CF900C94B219E8EBF4E0E491EF
:103E00008E2F90E0FC013197E231F10508F09DC062
:103E10008827E054FF4F8F4F0C943A4A84B580684E
:103E200084BDC7BC97C084B5806284BDC8BC92C045
:103E300080918000806880938000D0928900C09239
:103E4000880088C080918000806280938000D0923A
:103E50008B00C0928A007EC0809180008860809331
:103E60008000D0928D00C0928C0074C08091B00010
:103E700080688093B000C092B3006CC08091B000A5
:103E800080628093B000C092B40064C080919000C2
:103E9000806880939000D0929900C09298005AC098
:103EA00080919000806280939000D0929B00C0929D
:103EB0009A0050C080919000886080939000D092CA
:103EC0009D00C0929C0046C08091A00080688093B5
:103ED000A0008091A0008F7B8093A000D092A900C9
:103EE000C092A80037C08091A00080628093A0009B
:103EF000D092AB00C092AA002DC08091A000886033
:103F00008093A000D092AD00C092AC0023C08091FD
:103F10002001806880932001D0922901C09228015D
:103F200019C080912001806280932001D0922B01E2
:103F3000C0922A010FC080912001886080932001E7
:103F4000D0922D01C0922C0105C0C038D1050CF0D3
:103F50004ACF44CFDF91CF91FF90EF90DF90CF9089
:103F600008951F920F920FB60F9211242F933F9333
:103F70008F939F93AF93BF938091B20A9091B30AAE
:103F8000A091B40AB091B50A3091F10C23E0230F4F
:103F90002D3720F40196A11DB11D05C026E8230F81
:103FA0000296A11DB11D2093F10C8093B20A90934B
:103FB000B30AA093B40AB093B50A8091B60A90915F
:103FC000B70AA091B80AB091B90A0196A11DB11D16
:103FD0008093B60A9093B70AA093B80AB093B90A2F
:103FE000BF91AF919F918F913F912F910F900FBEF5
:103FF0000F901F901895CF93DF93CDB7DEB7EE9754
:104000000FB6F894DEBF0FBECDBF789484B5826042
:1040100084BD84B5816084BD85B5826085BD85B56C
:10402000816085BD80916E00816080936E001092EA
:104030008100809181008260809381008091810065
:1040400081608093810080918000816080938000F6
:104050008091B10084608093B1008091B000816054
:104060008093B00080919100826080939100809154
:104070009100816080939100809190008160809395
:1040800090008091A10082608093A1008091A100A6
:1040900081608093A1008091A00081608093A00046
:1040A00080912101826080932101809121018160B2
:1040B0008093210180912001816080932001809173
:1040C0007A00846080937A0080917A008260809385
:1040D0007A0080917A00816080937A0080917A00E2
:1040E000806880937A001092C1000E940417109299
:1040F000FB061092FA061092F6061092F70610923E
:10410000F8061092F9061092F506109260071092C8
:104110005F071092E9051092E8051092E90A1092E3
:104120000B0B1092E70A81E08093E60A1092C10A15
:1041300061E084E10E94B21961E085E10E94B21958
:104140008091B9008E7F8093B9008091B9008D7FF6
:104150008093B90088E48093B80085E48093BC0024
:1041600086E69FE09093E7058093E60587E69FE06B
:104170009093E5058093E4051092770710927607F7
:1041800010922E0C10922F0C1092300C1092310CB9
:104190001092320C1092330C1092340C1092350C99
:1041A00010923A0C10923B0C10923C0C10923D0C69
:1041B00010923E0C10923F0C1092400C1092410C49
:1041C0001092420C1092440C1092450C1092460C26
:1041D0001092470C1092480C1092490C10924A0C05
:1041E00010924B0C10924C0C10924D0C10924E0CE5
:1041F00010924F0C1092500C1092510C1092520CC5
:104200001092530C1092540C1092550C1092560CA4
:104210001092570C1092580C1092590C10925A0C84
:1042200010925B0C10925C0C10925D0C10925E0C64
:1042300010925F0C1092600C1092610C1092620C44
:104240001092630C1092640C1092650C1092660C24
:104250001092670C1092680C1092690C10926A0C04
:1042600010926B0C10926C0C10926D0C10926E0CE4
:1042700010926F0C1092700C1092710C1092720CC4
:104280001092730C1092740C1092750C1092760CA4
:104290001092770C1092780C1092790C10927A0C84
:1042A00010927B0C10927C0C10927D0C10927E0C64
:1042B00010927F0C1092800C1092810C1092820C44
:1042C0001092830C1092840C1092850C1092860C24
:1042D0001092870C1092880C1092890C10928A0C04
:1042E00010928B0C10928C0C10928D0C10928E0CE4
:1042F00010928F0C1092900C1092910C1092920CC4
:104300001092930C1092940C1092950C1092960CA3
:104310001092970C1092980C1092990C10929A0C83
:1043200010929B0C10929C0C10929E0C10929D0C63
:1043300010929F0C1092A00C80E090E0A0E0B0E4FE
:104340008093A10C9093A20CA093A30CB093A40C07
:104350001092A50C1092A60C1092A70C1092A80C0B
:104360008091E30C811104C089EA9CE00E94F4145E
:1043700081E08093E30C95E9C92E94EDD92EEE24CB
:10438000E39490ECF92EC092DB0CD092DC0CE0921E
:10439000DD0CF092DE0C25E9422E24ED522E66242F
:1043A000639420E4722E4092DF0C5092E00C6092F5
:1043B000E10C7092E20C0091C70C1091C80CF8014E
:1043C00080809180A280B380A3019201C501B401D5
:1043D0000E943C4C181634F4F801408251826282EB
:1043E00073820FC025E934ED41E050ECC501B40102
:1043F0000E94DD4A87FF05C0F801C082D182E282B7
:10440000F3828090CF0C9090D00CA090D10CB09003
:10441000D20CC090DF0CD090E00CE090E10CF0905A
:10442000E20CA7019601C501B4010E943C4C18168C
:1044300084F0C090DB0CD090DC0CE090DD0CF090B0
:10444000DE0CA7019601C501B4010E94DD4A87FF79
:1044500008C0C092CF0CD092D00CE092D10CF09258
:10446000D20C6091D70C7091D80C8091D90C90919E
:10447000DA0C0E948A4B9B01AC0160E070E080E0A6
:1044800090E40E94E24A6B017C019B01AC016091C7
:10449000B90C7091BA0C8091BB0C9091BC0C0E942D
:1044A000414C6093B90C7093BA0C8093BB0C909301
:1044B000BC0CA70196016091BD0C7091BE0C80915F
:1044C000BF0C9091C00C0E94E24A6093BD0C7093A7
:1044D000BE0C8093BF0C9093C00C82E090E0A0E0F3
:1044E000B0E08093D70C9093D80CA093D90CB093E4
:1044F000DA0C80912B0C811104C081EF9BE00E94AB
:10450000F41481E080932B0CC12CD12C00EAE02E16
:1045100000E4F02EC092230CD092240CE092250CE3
:10452000F092260C412C512C8CE0682E82E4782EDF
:104530004092270C5092280C6092290C70922A0C01
:1045400000910F0C1091100CF80180809180A280D6
:10455000B380A3019201C501B4010E943C4C18161E
:1045600034F4F80140825182628273820FC020E0ED
:1045700030E040EA50E4C501B4010E94DD4A87FF03
:1045800005C0F801C082D182E282F3828090170CCC
:104590009090180CA090190CB0901A0CC090270C99
:1045A000D090280CE090290CF0902A0CA7019601DD
:1045B000C501B4010E943C4C181684F0C090230C35
:1045C000D090240CE090250CF090260CA7019601C9
:1045D000C501B4010E94DD4A87FF08C0C092170CD4
:1045E000D092180CE092190CF0921A0C60911F0CEA
:1045F0007091200C8091210C9091220C0E948A4B8A
:104600009B01AC0160E070E080E090E40E94E24A2F
:104610006B017C019B01AC016091010C7091020C5B
:104620008091030C9091040C0E94414C6093010C0A
:104630007093020C8093030C9093040CA7019601D5
:104640006091050C7091060C8091070C9091080CFC
:104650000E94E24A6093050C7093060C8093070C4D
:104660009093080C82E090E0A0E0B0E080931F0CF3
:104670009093200CA093210CB093220C61E085E074
:104680000E94E11961E084E00E94E11960E086E0A7
:104690000E94E119E091350BF091360B82E08083A6
:1046A000E091310BF091320B1082E091330BF091DD
:1046B000340B80E1808310923D0BE091390BF09137
:1046C0003A0B86E08083E091370BF091380B8081C4
:1046D00080618083E091370BF091380B8081886096
:1046E0008083E091370BF091380B80818068808364
:1046F000E091370BF091380B80818F7D8083109291
:10470000F4061092EF0684E690E0A0E0B0E080931B
:10471000F0069093F106A093F206B093F30661E0E1
:104720008DE00E94E1191092B2071092B1070E9429
:10473000B51D6093B3077093B4078093B50790934A
:10474000B607F2E0AF2EB12CCC24C394D12CB6E046
:104750002B2E312C15E0812E912C80913D079091CC
:104760003E07A0913F07B09140078093BA0690930F
:10477000BB06A093BC06B093BD0680919F0C882316
:10478000A1F110929F0C8091410790914207A09156
:104790004307B091440720E030E040EF50EC209315
:1047A0004107309342074093430750934407809357
:1047B000BE069093BF06A093C006B093C106809139
:1047C0004907882391F010924907809145079091FD
:1047D0004607A0914707B09148078093C20690937F
:1047E000C306A093C406B093C5068091A00C88238D
:1047F000C1F01092A00C80914907882391F010928B
:1048000049078091450790914607A0914707B091CD
:1048100048078093C6069093C706A093C806B09336
:10482000C9068091FA069091FB068130910581F1CD
:10483000C0F0029709F025C11092FB061092FA060B
:1048400010923D0710923E0710923F0710924007CA
:104850004CEF56E05BAF4AAF8A0160E070E0CB01FD
:1048600084C00E94B51D00910A0610910B0620918C
:104870000C0630910D06DC01CB01801B910BA20BC5
:10488000B30B0B97A105B10508F4FBC00C943D4296
:1048900010917A0080917A00887F846080937A00FA
:1048A00086E30E94711D10937A00BC01990F880B5A
:1048B000990B0E948C4B20E030E046E952E40E94C4
:1048C000414C20E030EC4FE754E40E94E24A20E003
:1048D00030E040EF50E40E94704A20E030E040E8D1
:1048E0005EE30E94414C2091F6063091F70640911C
:1048F000F8065091F9060E94714A6093F60670938B
:10490000F7068093F8069093F9062091F506233078
:1049100019F5B092FB06A092FA0620913C0730E010
:104920002F5F3F4F2F70332720933C07220F331FF9
:10493000220F331FF901E450F94F608371838283A2
:1049400093831092F5061092F6061092F7061092D5
:10495000F8061092F90695C01092FB061092FA061E
:1049600081E0820F8093F5068CC0F801219131918E
:10497000419151918F010E94714AF7E00C331F075A
:10498000A1F720E030E040E85DE30E94414C2B01BC
:104990003C0160933D0770933E0780933F079093DF
:1049A0004007E0904107F0904207009143071091C3
:1049B0004407E0913C0724E0E29FF0011124E45019
:1049C000F94F30813EAB41814CAF52815DAF838165
:1049D0008EAF232F342F452F582FB701C8010E94C7
:1049E0003C4C181624F0EEA8FCAC0DAD1EADC70172
:1049F000D8018093410790934207A0934307B09357
:104A00004407EAADFBAD6191719181919191FBAF4A
:104A1000EAAFA30192010E94704A6EAB7FAB88AFF0
:104A200099AF20E030E0A9010E943C4C18166CF4CC
:104A300020E030E040E850E46EA97FA988AD99AD50
:104A40000E943C4C1816ECF00CC020E030E040E82E
:104A500050EC6EA97FA988AD99AD0E94DD4A87FD13
:104A600010C02AAD3BAD2C53374059F681E08093FE
:104A70004907409245075092460760924707709257
:104A8000480780915F07909160078130910569F137
:104A9000A8F0029709F0B2C01092600710925F0769
:104AA00010925A0710925B0710925C0710925D07F4
:104AB0000AE417E0412C512C320180C00E94B51D40
:104AC00000910E0610910F062091100630911106EC
:104AD000DC01CB01801B910BA20BB30B0B97A10543
:104AE000B10508F48BC00C944642B0926007A092C6
:104AF0005F0780915E0790E001968370992780930D
:104B00005E078091E70A8111FCCF81E08093E70A7C
:104B10008093E60A9FEF9093E50A1092E40A92E0F0
:104B20009093E30A8093C20A8091C20A80688093BE
:104B3000C20A8091C10A813061F41092C10A809149
:104B4000C20A8093BB008091BC0083FDF8CF85EC46
:104B500001C085EE8093BC008091E70A8130E1F3CB
:104B60008091E40A833018F41091E40A01C013E044
:104B7000A3ECBAE0EAEEF5E080E0811721F09D9128
:104B800091938F5FFACF1092E9051093E8051123F6
:104B900021F082EC9BE00E94780F8091E9051817C4
:104BA00021F082EC9BE00E94780F8091E9051817B4
:104BB00029F182EC9BE00E94780F20C0F8016191FE
:104BC0007191819191918F0120E030E040E85EE3A6
:104BD0000E94414C9B01AC01C301B2010E94714A89
:104BE0002B013C01F7E00A351F0741F760935A0794
:104BF00070935B0780935C0790935D0780917607C5
:104C0000909177078130910569F1A8F0029709F03A
:104C10008EC010927707109276071092710710924B
:104C20007207109273071092740701E617E0412C87
:104C3000512C32015CC00E94B51D009112061091EA
:104C400013062091140630911506DC01CB01801B60
:104C5000910BA20BB30B4597A105B10508F467C0F2
:104C60000C947742B0927707A092760780917507EF
:104C700090E00196837099278093750710917A00D0
:104C800080917A00887F846080937A0087E30E9415
:104C9000711D10937A000091750724E0029F800136
:104CA00011240F59184FBC01990F880B990B0E94C2
:104CB0008C4B20E030E040E252E40E94414C20E086
:104CC00030EC4FE754E40E94E24A20E030E040EA52
:104CD00051E40E94704A24EA30E74DE35EE30E940B
:104CE000E24AF801608371838283938320C0F801D4
:104CF00061917191819191918F0120E030E040E8C4
:104D00005EE30E94414C9B01AC01C301B2010E94D1
:104D1000714A2B013C01F7E001371F0741F760930F
:104D200071077093720780937307909374070E94C2
:104D3000D9061A8A8091B4069091B5068230910501
:104D400011F40C943B3E30F4009791F0019759F127
:104D50000C9441408430910511F40C94443E10F4BD
:104D60000C94623E059711F40C944D3E0C94414016
:104D70008EE20E947A15882311F40C9445400E941B
:104D8000131640E353E060E080E00E941D1641E40A
:104D900053E061E080E00E941D16D092B506C092FB
:104DA000B4060C942D3E1982E0919D06F0919E066A
:104DB000ED32F10510F00C94213E8827EE58FF4F9C
:104DC0008F4F0C943A4A8AE20E947A15882361F048
:104DD00042E553E061E080E00E941D16B0929E061D
:104DE000A0929D060C94253E8CE20E947A158823A1
:104DF00061F043E653E061E080E00E941D16D0922E
:104E00009E06C0929D060C94253E80E30E947A1572
:104E1000882369F082E08093A1068CE290E0909371
:104E20009E0680939D060E943A150C94253E64EFE1
:104E300071E080E090E00E944615882311F40C9404
:104E4000253E23E030E030939E0620939D0644E704
:104E500053E061E080E00E941D160E943A150C9418
:104E6000253E8AE20E947A158111B2CF8CE20E941F
:104E70007A158111BECF80E30E947A158111CACFC5
:104E80006AEF70E080E090E00E944615882311F4FC
:104E90000C94253E41E453E061E080E00E941D1641
:104EA00010929E0610929D060E943A150C94253E83
:104EB0008AE20E947A15882361F041E453E061E0C0
:104EC00080E00E941D1610929E0610929D060C9482
:104ED000253E8CE20E947A1581117ACF80E30E94F0
:104EE0007A15882381F043E653E061E080E00E9478
:104EF0001D161092A10630929E0620929D060E94D9
:104F00003A150C94253E64EF71E080E090E00E9439
:104F10004615882311F40C94253E44E050E050934C
:104F20009E0640939D0644E753E061E080E00E94C6
:104F30001D160E943A150C94253E8AE20E947A15AD
:104F40008111BBCF8CE20E947A15811141CF80E3A1
:104F50000E947A158111C7CF6AEF70E080E090E07F
:104F60000E944615882311F40C94253ED0929E068B
:104F7000C0929D0643E653E061E080E00E941D166A
:104F80000E943A150C94253E8AE20E947A158111FE
:104F900030CF8CE20E947A1581118FCF80E30E947E
:104FA0007A15882389F042E553E061E080E00E94B1
:104FB0001D1681E08093A10630929E0620929D06E8
:104FC0000E943A150C94253E64EF71E080E090E079
:104FD0000E944615882311F40C94253E90929E065B
:104FE00080929D0644E753E061E080E00E941D1638
:104FF0000E943A150C94253E8AE20E947A1581118E
:10500000F8CE8CE20E947A15811157CF80E30E947E
:105010007A158111C8CF6AEF70E080E090E00E94BD
:105020004615882311F40C94253EB0929E06A0925A
:105030009D0642E553E061E080E00E941D160E945B
:105040003A150C94253E64EF71E080E090E00E94F8
:105050004615882311F40C94253E8091A1068130D9
:1050600049F50E94131645E853E060E080E00E9495
:105070001D164AE0BE016F5F7F4F8091A706909199
:10508000A8060E94614766E973E0CE0101960E947E
:10509000B84CAE014F5F5F4F61E080E00E941D168B
:1050A0008AE090E090939E0680939D060E943A15B8
:1050B0000C94253E81110C94253E0E9413164DE957
:1050C00053E060E080E00E941D164AE0BE016F5F81
:1050D0007F4F8091AD069091AE060E9461476EEAC7
:1050E00073E0CE0101960E94B84CAE014F5F5F4F56
:1050F00061E080E00E941D1687E090E090939E069C
:1051000080939D060E943A150C94253E8AE20E94E7
:105110007A15882341F18091A7069091A8068332E1
:10512000910510F4019602C083E290E09093A806E6
:105130008093A7064AE0BE016F5F7F4F8091A7066C
:105140009091A8060E94614766E973E0CE0101963E
:105150000E94B84CAE014F5F5F4F61E080E00E945B
:105160001D160C94253E8CE20E947A15882351F17D
:105170008091A7069091A8068630910530F001979E
:105180009093A8068093A70604C09092A8068092E8
:10519000A7064AE0BE016F5F7F4F8091A7069091FE
:1051A000A8060E94614766E973E0CE0101960E945D
:1051B000B84CAE014F5F5F4F61E080E00E941D166A
:1051C0000C94253E80E30E947A15882309F14AE079
:1051D000BE016F5F7F4F8091A7069091A8060E9445
:1051E000614766E973E0CE0101960E94B84CAE01BA
:1051F0004F5F5F4F61E080E00E941D168CE090E001
:1052000090939E0680939D060E943A150C94253E2D
:1052100088E20E947A158823B1F00E94131640E3B9
:1052200053E060E080E00E941D1641E453E061E03D
:1052300080E00E941D1610929E0610929D060E940C
:105240003A150C94253E64EF71E080E090E00E94F6
:105250004615882311F40C94253E8BE090E0909342
:105260009E0680939D0644E753E061E080E00E9443
:105270001D160E943A150C94253E8AE20E947A156A
:10528000882341F18091A7069091A8068332910569
:1052900010F4019602C083E290E09093A8068093F8
:1052A000A7064AE0BE016F5F7F4F8091A7069091ED
:1052B000A8060E94614766E973E0CE0101960E944C
:1052C000B84CAE014F5F5F4F61E080E00E941D1659
:1052D0000C94253E8CE20E947A15882351F180912E
:1052E000A7069091A8068630910530F0019790931B
:1052F000A8068093A70604C09092A8068092A706ED
:105300004AE0BE016F5F7F4F8091A7069091A8068B
:105310000E94614766E973E0CE0101960E94B84C95
:10532000AE014F5F5F4F61E080E00E941D160C945C
:10533000253E80E30E947A15882309F14AE0BE01E8
:105340006F5F7F4F8091A7069091A8060E946147EA
:1053500066E973E0CE0101960E94B84CAE014F5F42
:105360005F4F61E080E00E941D168CE090E090931A
:105370009E0680939D060E943A150C94253E88E275
:105380000E947A15811149CF6AEF70E080E090E0C9
:105390000E944615882311F40C94253E4AE0BE0174
:1053A0006F5F7F4F8091A7069091A8060E9461478A
:1053B00066E973E0CE0101960E94B84CAE014F5FE2
:1053C0005F4F61E080E00E941D168AE090E09093BC
:1053D0009E0680939D060E943A150C94253E64EF2C
:1053E00071E080E090E00E944615882311F40C944F
:1053F000253E0E94131641EB53E060E080E00E94DE
:105400001D164AE0BE016F5F7F4F8091AF069091FD
:10541000B0060E94614762EC73E0CE0101960E94E3
:10542000B84CAE014F5F5F4F61E080E00E941D16F7
:105430008DE090E090939E0680939D060E943A1521
:105440000C94253E8AE20E947A15882349F18091C6
:10545000AD069091AE06803253E0950710F4C296E7
:1054600002C080E293E09093AE068093AD064AE0DE
:10547000BE016F5F7F4F8091AD069091AE060E9496
:1054800061476EEA73E0CE0101960E94B84CAE010E
:105490004F5F5F4F61E080E00E941D160C94253E37
:1054A0008CE20E947A15882349F18091AD06909193
:1054B000AE068D32E1E09E0710F0C29702C08CE28A
:1054C00091E09093AE068093AD064AE0BE016F5F17
:1054D0007F4F8091AD069091AE060E9461476EEAC3
:1054E00073E0CE0101960E94B84CAE014F5F5F4F52
:1054F00061E080E00E941D160C94253E80E30E942E
:105500007A15882309F14AE0BE016F5F7F4F8091D1
:10551000AD069091AE060E9461476EEA73E0CE013F
:1055200001960E94B84CAE014F5F5F4F61E080E092
:105530000E941D1689E090E090939E0680939D0640
:105540000E943A150C94253E88E20E947A1581113A
:1055500064CE64EF71E080E090E00E9446158823FD
:1055600011F40C94253E88E090E090939E06809381
:105570009D0644E753E061E080E00E941D160E9412
:105580003A150C94253E8AE20E947A15882349F147
:105590008091AD069091AE068032F3E09F0710F443
:1055A000C29602C080E293E09093AE068093AD066F
:1055B0004AE0BE016F5F7F4F8091AD069091AE06CD
:1055C0000E9461476EEA73E0CE0101960E94B84CDA
:1055D000AE014F5F5F4F61E080E00E941D160C94AA
:1055E000253E8CE20E947A15882349F18091AD0610
:1055F0009091AE068D3221E0920710F0C29702C062
:105600008CE291E09093AE068093AD064AE0BE0135
:105610006F5F7F4F8091AD069091AE060E9461470B
:105620006EEA73E0CE0101960E94B84CAE014F5F66
:105630005F4F61E080E00E941D160C94253E80E3E0
:105640000E947A15882309F14AE0BE016F5F7F4FFF
:105650008091AD069091AE060E9461476EEA73E0BC
:10566000CE0101960E94B84CAE014F5F5F4F61E0E2
:1056700080E00E941D1689E090E090939E06809342
:105680009D060E943A150C94253E88E20E947A15E8
:105690008111C3CD6AEF70E080E090E00E94461572
:1056A000882311F40C94253E4AE0BE016F5F7F4FC2
:1056B0008091AD069091AE060E9461476EEA73E05C
:1056C000CE0101960E94B84CAE014F5F5F4F61E082
:1056D00080E00E941D1687E090E090939E068093E4
:1056E0009D060E943A150C94253E64EF71E080E01F
:1056F00090E00E944615882311F40C94253E0E94E8
:10570000131641EB53E060E080E00E941D164AE072
:10571000BE016F5F7F4F8091AF069091B0060E94EF
:10572000614762EC73E0CE0101960E94B84CAE0175
:105730004F5F5F4F61E080E00E941D168DE090E0BA
:1057400090939E0680939D060E943A150C94253EE8
:105750008AE20E947A15882341F18091AF069091E8
:10576000B0068031910510F4019602C080E190E00E
:105770009093B0068093AF064AE0BE016F5F7F4F03
:105780008091AF069091B0060E94614762EC73E091
:10579000CE0101960E94B84CAE014F5F5F4F61E0B1
:1057A00080E00E941D160C94253E8CE20E947A1522
:1057B000882341F18091AF069091B0068D3091051C
:1057C00010F0019702C08CE090E09093B0068093B7
:1057D000AF064AE0BE016F5F7F4F8091AF069091A8
:1057E000B0060E94614762EC73E0CE0101960E9410
:1057F000B84CAE014F5F5F4F61E080E00E941D1624
:105800000C94253E80E30E947A15882309F14AE032
:10581000BE016F5F7F4F8091AF069091B0060E94EE
:10582000614762EC73E0CE0101960E94B84CAE0174
:105830004F5F5F4F61E080E00E941D168FE090E0B7
:1058400090939E0680939D060E943A150C94253EE7
:1058500088E20E947A15882309F459C08091A10634
:10586000813049F50E94131645E853E060E080E07E
:105870000E941D164AE0BE016F5F7F4F8091A70610
:105880009091A8060E94614766E973E0CE010196F7
:105890000E94B84CAE014F5F5F4F61E080E00E9414
:1058A0001D168AE090E090939E0680939D060E94CC
:1058B0003A150C94253E81110C94253E0E94131636
:1058C0004DE953E060E080E00E941D164AE0BE0111
:1058D0006F5F7F4F8091AD069091AE060E94614749
:1058E0006EEA73E0CE0101960E94B84CAE014F5FA4
:1058F0005F4F61E080E00E941D1687E090E090938A
:105900009E0680939D060E943A150C94253E64EFF6
:1059100071E080E090E00E944615882311F40C9419
:10592000253E8EE090E090939E0680939D0644E78E
:1059300053E061E080E00E941D160E943A150C942D
:10594000253E8AE20E947A15882341F18091AF06B4
:105950009091B0068031910510F4019602C080E16B
:1059600090E09093B0068093AF064AE0BE016F5F6F
:105970007F4F8091AF069091B0060E94614762EC24
:1059800073E0CE0101960E94B84CAE014F5F5F4FAD
:1059900061E080E00E941D160C94253E8CE20E947E
:1059A0007A15882341F18091AF069091B0068D3031
:1059B000910510F0019702C08CE090E09093B00642
:1059C0008093AF064AE0BE016F5F7F4F8091AF06C4
:1059D0009091B0060E94614762EC73E0CE0101969F
:1059E0000E94B84CAE014F5F5F4F61E080E00E94C3
:1059F0001D160C94253E80E30E947A15882309F138
:105A00004AE0BE016F5F7F4F8091AF069091B00674
:105A10000E94614762EC73E0CE0101960E94B84C8F
:105A2000AE014F5F5F4F61E080E00E941D168FE086
:105A300090E090939E0680939D060E943A150C94E8
:105A4000253E88E20E947A15882309F459C0809186
:105A5000A106813049F50E94131645E853E060E045
:105A600080E00E941D164AE0BE016F5F7F4F80916B
:105A7000A7069091A8060E94614766E973E0CE01EF
:105A800001960E94B84CAE014F5F5F4F61E080E02D
:105A90000E941D168AE090E090939E0680939D06DA
:105AA0000E943A150C94253E81110C94253E0E94CB
:105AB00013164DE953E060E080E00E941D164AE0B5
:105AC000BE016F5F7F4F8091AD069091AE060E9440
:105AD00061476EEA73E0CE0101960E94B84CAE01B8
